:0400000085EF00F098
:100008006853685368536853685368536853744C0B
:10001800685368531D502C5068536853685368538D
:100028003B50685368536853FF4F68530E506853EA
:100038006853685368536853685368536853BE4F8E
:10004800B350A4506853685368536853685368534F
:10005800424E6853E0506853685368536853685376
:1000680068536853685368534A50595068506853E6
:100078006853685368536853420068536853685319
:10008800D150C25068536853624F685368536853DD
:1000980068536853685368534200685368536853F9
:1000A800685368536853685377508650955068531F
:1000B8006853685368536853685368536853685360
:1000C8006853685368536853685368536853685350
:1000D8006853685368536853685368536853685340
:1000E80042006853685368536853685368536853A9
:1000F8005A53685368535F51685368536853685339
:0A010800FF0016EE95F0FAEF92F0FA
:10FB5C00007C7C2F2F2D2D000000000000000000E9
:10FB6C0000000000007C7C2F2F2D2D5C5C00000021
:10FB7C000000000000000000004F4F4F4F4F4F2D72
:10FB8C002D5F5F2D00000000000000000076763C29
:10FB9C003C5E5E3E3E0000000000000000000000E5
:10FBAC00002E2E2A2A7823782358587C7C2D2D0061
:10FBBC0000000000002E2E6F6F4F4F6F6F00000083
:10FBCC00000000000000000000B40000020400006F
:10FBDC0000020000010A000001BA7FFFFEC8001FEE
:10FBEC00FEC77FFFFFC57FFFFF34000000B40797FF
:10FBFC00FCB77FFFFFB8000001C2000000E400006A
:10FC0C00010400000CFFFF0B000010FFFF40F70D7C
:10FC1C002D2D2D205449433132343030204472691B
:10FC2C007665722056657273696F6E202573202578
:10FC3C0073202573202D2D2D0D0A000D2D2D2D201B
:10FC4C004D43333339393620447269766572205608
:10FC5C00657273696F6E20257320257320257320C0
:10FC6C002D2D2D0D0A002052554E205374617469B0
:10FC7C006320446973706C6179202020202020203F
:10FC8C0020202020202000204D6573672025642033
:10FC9C00537461636B2025642020202020202020B9
:10FCAC0020202020202000205465726D696E616C2C
:10FCBC0020496E666F20202020202020202020202C
:10FCCC0020202020002048454C502053637265654D
:10FCDC006E3A202575202020202020202020202056
:10FCEC000020506F7274204C6F636B2023256420AE
:10FCFC00202020202020202020202000205465724D
:10FD0C006D696E616C20256420202020202020202D
:10FD1C0020202020200020434D44202563202563F3
:10FD2C00204C656E202564202020202020202000DF
:10FD3C00204F504920424D434441512025752025E8
:10FD4C007320202020202020200048454C502025C6
:10FD5C007320202020202020202020202020202044
:10FD6C002000204F70656E204C4C2020202020203D
:10FD7C00202020202020202020002050756D702075
:10FD8C004C4C20202020202020202020202020200F
:10FD9C002000205265616479204C4C2020202020CA
:10FDAC0020202020202020202000205332463431D7
:10FDBC0020232563202020202020202020202020EC
:10FDCC002000444953504C415920257320202020B9
:10FDDC00202020202020202020002053746F7265CA
:10FDEC006420232564202020202020202020202077
:10FDFC002000767465726D2025783A2578202020B5
:10FE0C002020202020202020200020534551554523
:10FE1C004E43452025642020202020202020202017
:10FE2C00200020446973706C6179206E756D2025FB
:10FE3C0064202020202020202000205325644625EB
:10FE4C0064206C6F67202020202564202020202037
:10FE5C002000204C6F61642D6C6F636B206E756D90
:10FE6C00202564202020202020002020202020205D
:10FE7C002020202020202020202020202020202076
:10FE8C00002025732020202020202020202020202E
:10FE9C00202020202020200020494E464F202020CA
:10FEAC002020202020202020202020202020002066
:10FEBC00444542554720202020202020202020206F
:10FECC00202020202000204E534153504F4F4B20D8
:10FEDC0020202020202020202020202000205654CC
:10FEEC0045524D20494E464F2020202020202020D6
:10FEFC002020200020565445524D2048454C50207F
:10FF0C0020202020202020202020002056657273E5
:10FF1C00696F6E2025732020202020202020202097
:10FF2C00200020565445524D204445425547202030
:10FF3C002020202020202020002048454C5020420A
:10FF4C0075696C642025732020202020202020003F
:10FF5C0048454C5020257320202020202020202094
:10FF6C00202020202000506F727420257320202028
:10FF7C00202020202020202020200025732020203D
:10FF8C002020202020202020202020202020004C59
:10FF9C006F636B65642031313532303062707300C1
:10FFAC004A756C20203120323032350031323A35EE
:10FFBC00313A303800434F4D4D20202000455252ED
:10FFCC004F522020004F4E4C494E45200052454D7B
:10FFDC004F5445200044495341424C45004F46463E
:10FFEC004C494E450056302E31340056302E3600DA
:04FFFC002573000069
:020000040001F9
:10000000E652E652E652E6520001945112EC9FF09D
:100010009F94D68ED68C91ECA2F0B5ECA5F0000E94
:100020006100A1F302F5C7ECA6F02A0EE66E440EBD
:10003000E66E010EE66E55ECA4F0C4ECA6F0BEEC44
:10004000A6F0FF0E216EFD0E21C5E3F49B0E216E7E
:10005000FC0E21C5E3F4A3EC9AF0EAEC9AF0F40E5E
:10006000E66E010EE66E30ECA2F0BF94BF92BF9632
:10007000E0ECA6F0EAD248EC92F00C0EE66E7EECD4
:10008000A6F025EEEBF2DF50E66EC4ECA5F0FC0E18
:10009000E3C4E6F4E3C4E6F4720EE66EFF0EE66E29
:1000A000150EE66E000EE66E000EE66E000EE66EB3
:1000B00072EC9EF021C5E6F422C5E6F4080EE66E69
:1000C000B6EC90F0FC0EE3C4E6F4E3C4E6F4720E82
:1000D000E66EFF0EE66E150EE66E000EE66E000E84
:1000E000E66E010EE66E72EC9EF021C5E6F422C5C6
:1000F000E6F4080EE66EB6EC90F0FC0EE3C4E6F40F
:10010000E3C4E6F4720EE66EFF0EE66E150EE66EC2
:10011000000EE66E000EE66E020EE66E72EC9EF0CB
:1001200021C5E6F422C5E6F4080EE66EB6EC90F0C2
:10013000FC0EE3C4E6F4E3C4E6F4720EE66EFF0ED2
:10014000E66E150EE66E000EE66E000EE66E030E0F
:10015000E66E72EC9EF021C5E6F422C5E6F4080EC8
:10016000E66EB6EC90F05EECA6F0E80EE66E030EDE
:10017000E66E30ECA2F061ECA2F05AEC9FF053EC8A
:100180008DF02150D8A412D0010E6100A1F30DF71B
:10019000000E6100A1F30EF7000E6100A1F30FF74E
:1001A000000E6100A1F310F70601528179ECA2F074
:1001B00037EC99F02150D8A412D0010E6100A1F3C0
:1001C00011F7000E6100A1F312F7000E6100A1F318
:1001D00013F7000E6100A1F314F70601528347ECF8
:1001E0009EF064ECA3F0010E6100A1F302F5A50EF0
:1001F000E66E070EE66E51ECA3F025EEEBF2DF5053
:10020000E66EC4ECA5F0B30EE66EFC0EE66E3F0E95
:10021000E66E000EE66E280EE66E160EE66E060E12
:10022000E66EB6EC90F0F10EE66EFF0EE66E16018D
:10023000ED51010BE66E000EE66E3C0EE66EFD0E15
:10024000E66E150EE66E000EE66E000EE66E000E11
:10025000E66E72EC9EF021C5E6F422C5E6F40A0EC5
:10026000E66EB6EC90F0720EE66EFC0EE66E150EC3
:10027000E66E000EE66E000EE66E010EE66E72ECA5
:100280009EF021C5E6F422C5E6F4060EE66EB6EC55
:1002900090F0D20EE66EFE0EE66E150EE66E000EC5
:1002A000E66E000EE66E020EE66E72EC9EF021C562
:1002B000E6F422C5E6F4060EE66EB6EC90F0AC0E5F
:1002C000E66EFF0EE66E8D0EE66EFE0EE66E150E07
:1002D000E66E000EE66E000EE66E030EE66E72EC43
:1002E0009EF021C5E6F422C5E6F4080EE66EB6ECF3
:1002F00090F0A40EE66EFE0EE66E150EE66E000E93
:10030000E66E010EE66E000EE66E72EC9EF021C502
:10031000E6F422C5E6F4060EE66EB6EC90F0F10EB9
:10032000E66EFF0EE66E170EE66EFF0EE66E150E1B
:10033000E66E000EE66E010EE66E010EE66E72ECE3
:100340009EF021C5E6F422C5E6F4080EE66EB6EC92
:1003500090F0E90EE66EFE0EE66E150EE66E000EED
:10036000E66E010EE66E020EE66E72EC9EF021C5A0
:10037000E6F422C5E6F4060EE66EB6EC90F0AC0E9E
:10038000E66EFF0EE66E8D0EE66EFE0EE66E150E46
:10039000E66E000EE66E010EE66E030EE66E72EC81
:1003A0009EF021C5E6F422C5E6F4080EE66EB6EC32
:1003B00090F0F10EE66EFF0EE66E450EE66EFF0E55
:1003C000E66E150EE66E000EE66E030EE66E000E8D
:1003D000E66E72EC9EF021C5E6F422C5E6F4080E46
:1003E000E66EB6EC90F0F10EE66EFF0EE66E170EBE
:1003F000E66EFF0EE66E150EE66E000EE66E030E5E
:10040000E66E010EE66E72EC9EF021C5E6F422C5A2
:10041000E6F4080EE66EB6EC90F0000EE66EFF0E07
:10042000E66E150EE66E000EE66E030EE66E020E2A
:10043000E66E72EC9EF021C5E6F422C5E6F4060EE7
:10044000E66EB6EC90F0AC0EE66EFF0EE66E8D0E2C
:10045000E66EFE0EE66E150EE66E000EE66E030EFE
:10046000E66E030EE66E72EC9EF021C5E6F422C540
:10047000E6F4080EE66EB6EC90F0BB0EE66EFE0EED
:10048000E66E150EE66E000EE66E020EE66E000ECD
:10049000E66E72EC9EF021C5E6F422C5E6F4060E87
:1004A000E66EB6EC90F0F10EE66EFF0EE66E170EFD
:1004B000E66EFF0EE66E150EE66E000EE66E020E9E
:1004C000E66E010EE66E72EC9EF021C5E6F422C5E2
:1004D000E6F4080EE66EB6EC90F02E0EE66EFF0E19
:1004E000E66E150EE66E000EE66E020EE66E020E6B
:1004F000E66E72EC9EF021C5E6F422C5E6F4060E27
:10050000E66EB6EC90F0AC0EE66EFF0EE66E8D0E6B
:10051000E66EFE0EE66E150EE66E000EE66E020E3E
:10052000E66E030EE66E72EC9EF021C5E6F422C57F
:10053000E6F4080EE66EB6EC90F05EECA6F0B80EAF
:10054000E66E0B0EE66E30ECA2F0F40EE66E010ED7
:10055000E66E050EE66EDDECA1F0B80EE66E0B0E53
:10056000E66E020EE66EDDECA1F0DC0EE66E050E28
:10057000E66E070EE66EDDECA1F0B80EE66E0B0E31
:10058000E66E040EE66EDDECA1F0100EE66E270EB0
:10059000E66E060EE66EDDECA1F0B80EE66E0B0E12
:1005A000E66E030EE66EDDECA1F0020EE66E000EC6
:1005B000E66E010EE66EDDECA1F0BC0EE66E4D0EB1
:1005C000E66E010EE66E66ECA4F0CDECA6F04ED021
:1005D000000EE66EA6ECA5F0000EE66E000EE66ECE
:1005E00072EC9EF0FF0E22C5E3F4FE0E21C5E3F48B
:1005F000FE0EE3C42BF5FF0EE3C42CF5150E2B24E1
:10060000D96E000E2C20DA6EDF6A000EE66E030E45
:10061000E66E17EC96F0FE0EE3C42BF5FF0EE3C476
:100620002CF5130E2B24D96E000E2C20DA6E21C56A
:10063000DFF41CD0000E6100A1F302F5B80EE66EE7
:100640000B0EE66E30ECA2F011D025EE02F1DF5079
:100650002B6E2C6A2C50000AD8A4ECD72B50000A21
:10066000D8B409D5010AD8B4B3D7E4D7010EE66EE1
:100670003DECA3F02150D8B493D1020EE66E000EEB
:10068000E66E010EE66EDDECA1F025EE0DF3DE5018
:10069000DE10DE10DE10D8A42AD061ECA2F0000E2D
:1006A000E66EE66EE66E000EE66E000EE66E000E7C
:1006B000E66E000EE66E5CEC9AF091C68DF692C680
:1006C0008EF693C68FF694C690F6D69E0501EC5131
:1006D000D8A40CD0610035FA8CF6610039FA8DF699
:1006E00061003DFA8EF6610041FA8FF6D68E25EE56
:1006F00011F3DE50DE10DE10DE10D8A417D079EC36
:10070000A2F0D69E0501EB51D8A409D025EE88F2BF
:10071000DEC42BF5DDC42CF52B50966F976BD68E6F
:1007200096C5E6F497C5E6F49BEC9EF064ECA3F066
:10073000010E06010027000E012302230323AFEC64
:10074000A6F0000EE66E66ECA6F06EECA6F0215068
:10075000D8B4FBD76EECA6F02150D8B406D013EC79
:10076000A6F021C500F722C501F7AFECA6F0010EF7
:10077000E66E66ECA6F06EECA6F02150D8B4FBD77E
:100780006EECA6F02150D8B40ED013ECA6F06100A8
:1007900085F4FBF6610089F4FCF66500ECFB02F7DA
:1007A0006500F0FB03F7AFECA6F0020EE66E66EC18
:1007B000A6F06EECA6F02150D8B4FBD76EECA6F0F4
:1007C0002150D8B40ED013ECA6F0610085F4FDF6EC
:1007D000610089F4FEF66500F4FB04F76500F8FBA0
:1007E00005F7AFECA6F0040EE66E66ECA6F06EEC34
:1007F000A6F02150D8B4FBD76EECA6F02150D8B4A7
:1008000006D013ECA6F021C508F722C509F7AFEC16
:10081000A6F0050EE66E66ECA6F06EECA6F0215092
:10082000D8B4FBD76EECA6F02150D8B406D013ECA8
:10083000A6F021C50AF722C50BF7AFECA6F0160EFD
:10084000E66E66ECA6F06EECA6F02150D8B4FBD7AD
:100850006EECA6F02150D8B406D013ECA6F021C55A
:100860002CF722C52DF7AFECA6F0170EE66E66EC5E
:10087000A6F06EECA6F02150D8B4FBD76EECA6F033
:100880002150D8B406D013ECA6F021C52EF722C50E
:100890002FF7AFECA6F01D0EE66E66ECA6F06EEC40
:1008A000A6F02150D8B4FBD76EECA6F02150D8B4F6
:1008B00006D013ECA6F021C53AF722C53BF7AFEC02
:1008C000A6F03B0EE66E66ECA6F06EECA6F02150AC
:1008D000D8B4FBD76EECA6F02150D8B406D013ECF8
:1008E000A6F021C576F722C577F7AFECA6F03C0E4F
:1008F000E66E66ECA6F06EECA6F02150D8B4FBD7FD
:100900006EECA6F02150D8B406D013ECA6F021C5A9
:1009100078F722C579F7AFECA6F03D0EE66E66ECEF
:10092000A6F06EECA6F02150D8B4FBD76EECA6F082
:100930002150D8B406D013ECA6F021C57AF722C511
:100940007BF7AFECA6F03E0EE66E66ECA6F06EEC22
:10095000A6F02150D8B4FBD76EECA6F02150D8B445
:1009600006D013ECA6F021C57CF722C57DF7AFECCD
:10097000A6F03F0EE66E66ECA6F06EECA6F02150F7
:10098000D8B4FBD76EECA6F02150D8B406D013EC47
:10099000A6F021C57EF722C57FF76500D4FA7DF069
:1009A000050EE66E3DECA3F02150D8B44DD0F40E08
:1009B000E66E010EE66E050EE66EDDECA1F0040EAD
:1009C000E66E3DECA3F02150D8B404D0000EE66EE4
:1009D000A6ECA5F025EEECF2DFC42CF5010EDF2627
:1009E000460E2C642BD00501F151E66EC4ECA5F047
:1009F00025EEECF2DF502B6E2C6A25EEEEF2DF5086
:100A0000296E2A6A660E2926000E2A222B50295C9E
:100A10002A50800A216E2C50800A2158D8B014D058
:100A20000501F12BF151030B030AD8A402D0010EEA
:100A3000F16F000E6100A1F3ECF606D025EEEBF2AB
:100A4000DF50E66EC4ECA5F025EEF7F2DF50D8B427
:100A500016D0030EE66E3DECA3F02150D8B40BD0B7
:100A6000000E6100A1F3F7F625EEEBF2DF50E66E23
:100A7000C4ECA5F004D0030EE66EC4ECA5F025EEA0
:100A8000F2F2DF50D8B438EF80F0060EE66E3DEC9F
:100A9000A3F02150D8B438EF80F0100EE66E270E88
:100AA000E66E060EE66EDDECA1F0B80EE66E0B0EFD
:100AB000E66E030EE66EDDECA1F0010E6100A1F31F
:100AC000F7F6000EE66E8FEC91F038EF80F00D0E29
:100AD000E126000EE222FB0EE36AFC0EE36AEF0E53
:100AE000E3C4D9F4F00EE3C4DAF4DEC4F6F4DDC4F2
:100AF000F7F4000EF86E0800F550250AD8A484D348
:100B0000EF0EE3C4D9F4F00EE3C4DAF4DE2A000EEB
:100B1000DD22EF0EE3C4D9F4F00EE3C4DAF4DEC450
:100B2000F6F4DDC4F7F4000EF86E0800F550630A21
:100B3000D8A42ED0EF0EE3C4D9F4F00EE3C4DAF457
:100B4000DE2A000EDD22ED0EE3C4D9F4EE0EE3C47E
:100B5000DAF4020EDE5E000EDD5ADEC42BF5DDC4D3
:100B60002CF52BC5D9F42CC5DAF4DF502C6EFD0E14
:100B70002CC5E3F4F10EE3C4E6F4E3C4E6F4FB0EA3
:100B8000E350E66E000EE66EACEC94F0010E38D346
:100B9000EF0EE3C4D9F4F00EE3C4DAF4DEC42BF5AF
:100BA000DDC42CF5FA0E2CC5E3F4F90E2BC5E3F4E5
:100BB000E150F90FD96EE250DA6EFF0EDA22DEC490
:100BC000F6F4DDC4F7F4000EF86E0800F550640A80
:100BD000D8B412D0E150F90FD96EE250DA6EFF0EA0
:100BE000DA22DEC4F6F4DDC4F7F4000EF86E080075
:100BF000F550690AD8A4D2D0ED0EE3C4D9F4EE0EB4
:100C0000E3C4DAF4020EDE5E000EDD5ADEC42BF51C
:100C1000DDC42CF52BC5D9F42CC5DAF4DEC42BF5D4
:100C2000DDC42CF5F50E2BC5E3F4F60E2CC5E3F46C
:100C3000F90EE350010F2B6EFA0EE3C42CF5000EF3
:100C40002C22EF0EE3C4D9F4F00EE3C4DAF42BC582
:100C5000DEF42CC5DDF4FD0EE36AE38AF60EE3AEA6
:100C600003D02C6A2C2A01D02C6AFE0E2CC5E3F48A
:100C7000FD0EE306FD0EE3502B6E2C6A800E2B2436
:100C8000D96E070E2C20DA6E0A0EE66E000EE66EA6
:100C9000F30EE3C4E6F4E3C4E6F42CEC94F021C5CF
:100CA000E6F422C5E6F449ECA2F02150300FDF6EE5
:100CB0000A0EE66E000EE66EF30EE3C4E6F4E3C43D
:100CC000E6F493EC93F0F50E21C5E3F4F60E22C59D
:100CD000E3F4FB0EE350010F216EFB0E21C5E3F49C
:100CE000216AFC0EE3502120216EFC0E21C5E3F4A5
:100CF000F50EE3C421F5F60EE3502110D8B404D06C
:100D0000FD0EE350D8A4B4D7FD0EE350D8B438D0CC
:100D1000FE0EE350D8B434D0FD0EE306FD0EE350D2
:100D20002B6E2C6A800E2B24D96E070E2C20DA6EC7
:100D30002D0EDF6EFB0EE350010F216EFB0E21C561
:100D4000E3F4216AFC0EE3502120216EFC0E21C544
:100D5000E3F416D0F10EE3C4E6F4E3C4E6F4FB0ECC
:100D6000E32AE3042B6E2C6A800E2B24D96E070E27
:100D70002C20DA6EDF50E66E000EE66EACEC94F0DE
:100D8000FD0EE3C421F5200E2118D8A4E3D7FB0EF5
:100D9000E3C421F5FC0EE3C422F558D2E150F90F6B
:100DA000D96EE250DA6EFF0EDA22DEC4F6F4DDC44C
:100DB000F7F4000EF86E0800F550780AD8B412D097
:100DC000E150F90FD96EE250DA6EFF0EDA22DEC47E
:100DD000F6F4DDC4F7F4000EF86E0800F550750A5D
:100DE000D8A425D1ED0EE3C4D9F4EE0EE3C4DAF4B1
:100DF000020EDE5E000EDD5ADEC42BF5DDC42CF5DE
:100E00002BC5D9F42CC5DAF4DEC42BF5DDC42CF5E2
:100E1000F50E2BC5E3F4F60E2CC5E3F4F90EE35002
:100E2000010F2B6EFA0EE3C42CF5000E2C22EF0EF0
:100E3000E3C4D9F4F00EE3C4DAF42BC5DEF42CC518
:100E4000DDF4E0D0FD0EE36AE38AFD0EE306FD0E5D
:100E5000E3502B6E2C6A800E2B24D96E070E2C20AB
:100E6000DA6E0A0EE66E000EE66EF30EE3C4E6F4EA
:100E7000E3C4E6F485EC96F02150300FDF6E0A0EE5
:100E8000E66E000EE66EF30EE3C4E6F4E3C4E6F4A9
:100E9000A2EC95F0F50E21C5E3F4F60E22C5E3F4BD
:100EA000FB0EE350010F216EFB0E21C5E3F4216A16
:100EB000FC0EE3502120216EFC0E21C5E3F4F50E5B
:100EC000E3C421F5F60EE3502110D8B41BD0FD0E7B
:100ED000E350D8B417D0B9D7F10EE3C4E6F4E3C4B5
:100EE000E6F4FB0EE32AE3042B6E2C6A800E2B241F
:100EF000D96E070E2C20DA6EDF50E66E000EE66E1D
:100F0000ACEC94F0FD0EE3C421F5200E2118D8B40A
:100F10003ED7E2D7FD0EE36AE38AF50EE3C42CF573
:100F20000F0E2C16FF0E2CC5E3F4FF0EE3C421F5C3
:100F30000A0E216005D0FF0EE3C421F5300E04D067
:100F4000FF0EE3C421F5570E2126FF0E21C5E3F461
:100F5000FD0EE306FD0EE3502B6E2C6A800E2B2453
:100F6000D96E070E2C20DA6EFF0EE3C4DFF4040EF8
:100F70002C6EE150F50FD96EE250DA6EFF0EDA22D8
:100F80002C2804D0DE52D890DD32DF32E82EFAD79A
:100F9000FB0EE350010F216EFB0E21C5E3F4216A25
:100FA000FC0EE3502120216EFC0E21C5E3F4F50E6A
:100FB000E3C421F5F60EE3502110D8B41BD0FD0E8A
:100FC000E350D8B417D0A9D7F10EE3C4E6F4E3C4D4
:100FD000E6F4FB0EE32AE3042B6E2C6A800E2B242E
:100FE000D96E070E2C20DA6EDF50E66E000EE66E2C
:100FF000ACEC94F0FD0EE3C421F5200E2118D8B41A
:10100000C6D6E2D7E150F90FD96EE250DA6EFF0E84
:10101000DA22DEC4F6F4DDC4F7F4000EF86E080040
:10102000F550750AD8B40ED70D0AD8B473D7FE0E92
:10103000E36AEF0EE3C4D9F4F00EE3C4DAF4DEC4DD
:10104000F6F4DDC4F7F4000EF86E0800F550730AEC
:10105000D8A40DD0EF0EE3C4D9F4F00EE3C4DAF453
:10106000DE2A000EDD22FE0EE36AE32A4CD0EF0EEC
:10107000E3C4D9F4F00EE3C4DAF4DEC4F6F4DDC45C
:10108000F7F4000EF86E0800F5506C0AD8A43BD0B7
:10109000EF0EE3C4D9F4F00EE3C4DAF4DEC42BF5AA
:1010A000DDC42CF5010E2B26000E2C222BC5F6F4E8
:1010B0002CC5F7F4000EF86E0800F5506C0AD8A4A1
:1010C00022D0EF0EE3C4D9F4F00EE3C4DAF4DEC4A8
:1010D0002BF5DDC42CF5020E2B26000E2C222BC581
:1010E000F6F42CC5F7F4000EF86E0800F550730AFC
:1010F000D8A409D0EF0EE3C4D9F4F00EE3C4DAF4B7
:10110000030EDE26AED7FE0EE350D8B46FD0ED0E40
:10111000E3C4D9F4EE0EE3C4DAF4020EDE5E000E90
:10112000DD5ADEC42BF5DDC42CF52BC5D9F42CC556
:10113000DAF4DEC42BF5DDC42CF5F40E2CC5E3F493
:10114000F30E2BC5E3F43BD0F10EE3C4E6F4E3C4A5
:10115000E6F4F10EE3C4F6F4F20EE3C4F7F4000E85
:10116000F86E3F0EF76403D00800F55005D0F6C4C2
:10117000E9F4F7C4EAF4EF50E66E000EE66EACEC6C
:1011800094F0FB0EE350010F216EFB0E21C5E3F43A
:10119000216AFC0EE3502120216EFC0E21C5E3F4F0
:1011A000F30EE350010F216EF30E21C5E3F4216A23
:1011B000F40EE3502120216EF40E21C5E3F4F30E6A
:1011C000E3C4F6F4F40EE3C4F7F4000EF86E3F0E39
:1011D000F76403D00800F55005D0F6C4E9F4F7C46D
:1011E000EAF4EF500009D8B4D2D5AED7EF0EE3C47D
:1011F000D9F4F00EE3C4DAF4DE2A000EDD22000E8C
:10120000216E000E226E22D0F10EE3C4E6F4E3C498
:10121000E6F4ED0EE3C4D9F4EE0EE3C4DAF4DEC472
:10122000F6F4DDC4F7F4000EF86E0800F550E66E33
:10123000000EE66EACEC94F0EF0EE3C4D9F4F00EC1
:10124000E3C4DAF4DE2A000EDD22A0D4ED0EE1269E
:10125000FF0EE2221200E652C084BF86000197A56D
:1012600007D0010E06012027000E2123222323236D
:10127000000194B70AD00501A6A507D0010E06010A
:101280004427000E4523462347238DC0A5F5D10EE4
:101290000501E625D96EDA6A050EDA22A5C5DFF466
:1012A000EB51D8B44AD0030EE619D8A43DD0D2C52C
:1012B00029F52A6A2B6A2C6A6100A5F488F6610078
:1012C000A9F489F66100ADF48AF66100B1F48BF6F9
:1012D000D3512C6E2B6A2BC525F52CC526F5000E97
:1012E00026BEFF0E276E286E000E2514296EFF0EF7
:1012F00026142A6E000E27142B6E000E28142C6E56
:1013000025EE88F22950DE262A50DE222B50DE22DE
:101310002C50DE22A56BEB6BE66B010E0601242739
:10132000000E252326232723010E06013427000E55
:101330003523362337230501A56BED51D8B41FD0D3
:10134000030EE619D8A412D0D2512B6E2C6A61007C
:10135000ADF4B5F66100B1F4B6F6ED6BE66B010ED7
:1013600006012427000E252326232723010E06012C
:101370003427000E3523362337230501A56BEC51A6
:10138000D8B43AD0040EE619D8A41DD0E651080D01
:10139000F3C42CF5650030FA2BF52C2A02D0D89036
:1013A0002B322C2EFCD72B5000018E6F0501EC6BDD
:1013B000E66B010E06012427000E25232623272392
:1013C0000501A56B19D0010E06013427000E352347
:1013D000362337230501E651080DF3C42CF56500CB
:1013E00030FA2BF52C2A02D0D8902B322C2EFCD799
:1013F0002B5000018E6FE4D7EE51D8B44BD0030EC2
:10140000E619D8A41FD0A451020D000EF324D96E02
:10141000070EF420DA6EDEC42BF5DDC42CF52CC5E6
:101420002BF52C6A2B5000018E6F0501EE6BE66BDD
:10143000010E06012427000E25232623272305015C
:10144000A56B28D0010E06013427000E3523362364
:1014500037230501E605D8A40AD0A451020D000ED9
:10146000F324D96E070EF420DA6EDF5010D0A451A9
:10147000020D000EF324D96E070EF420DA6EDEC4DE
:101480002BF5DDC42CF52CC52BF52C6A2B50000157
:101490008E6FD5D7EF51D8B41ED0030EE619D8A45D
:1014A0000ED052C68EF0EF6BE66B010E06012427BC
:1014B000000E2523262327230501A56B0CD0010E42
:1014C00006013427000E3523362337230501E65164
:1014D000E6C58EF0F1D7E62B070EE66508D0E66B81
:1014E000010E06012827000E29232A232B23A5C538
:1014F0002CF5F00E2C16FF0E2CC5E3F40501ED5172
:10150000D8A4FCD0EC51D8A4F9D0EB51D8A4F6D093
:10151000ED51D8A4F3D0EF51D8A4F0D0FF0EE3C41E
:1015200021F5900E2118D8A419D0A69FA695010EDA
:1015300006010427000E052306230723010E0501DB
:10154000E66F010EED6F010E06013427000E352304
:10155000362337230501A689A2ECA6F0FF0EE3C4CB
:1015600021F5800E2118D8A457D00501A69FA69575
:10157000010E06010027000E0123022303230501AB
:10158000A5510F0BA46F050EA4653FD021D0160EF8
:101590000DD0170E0BD01D0E09D03B0E07D03C0E00
:1015A00005D03D0E03D03E0E01D03F0EA46F2DD0CE
:1015B0000001849FBF820501E66BEE6BEB6BED6B68
:1015C000EC6BEF6BBF920001848F0501A46B1DD003
:1015D000A451060AD8B4DBD7010AD8B4DAD70F0A67
:1015E000D8B4D9D7010AD8B4D8D7030AD8B4D7D732
:1015F000010AD8B4D6D7070AD8B4D5D7010AD8B4C7
:10160000D4D7020AD8B4D4D7E1D7010EE66F010EC1
:10161000EE6FA689A2ECA6F025EE0DF3DE50DE10EB
:10162000DE10DE10D8A418D0FF0EE3C421F5F00EB2
:101630002118D8A411D00501A69FA685010E060188
:101640000827000E09230A230B230501E66B010E70
:10165000EC6FA689A2ECA6F025EE11F3DE50DE10A9
:10166000DE10DE10D8A423D0FF0EE3C421F5A00EB7
:101670002118D8A41CD00501A69FA685010E06013D
:101680000827000E09230A230B23A5C5A4F5010E84
:101690000501E66F010EEB6F010E06013427000E07
:1016A0003523362337230501A689A2ECA6F0FF0EC9
:1016B000E3C421F5400E2118D8A420D0010E050165
:1016C000E66FEF6BEE51D8A40FD0ED51D8A40CD03B
:1016D000EB51D8A409D0EC51D8A406D0BF82EE6B50
:1016E000EB6BED6BEC6BBF92A2ECA6F0020EE66E1C
:1016F000000EE66E010EE66EDDECA1F0010E0601B5
:101700002C27000E2D232E232F23BF96C094E552A5
:1017100012000000000000000000000000000000B7
:1017200000000000000000000000000000000000B9
:1017300000000000000000000000000000000000A9
:101740000000000000000000000000000000000099
:101750000000000000000000000000000000000089
:101760000000000000000000000000000000000079
:101770000000000000000000000000000000000069
:101780000000000000000000000000000000000059
:101790000000000000000000000000000000000049
:1017A0000000000000000000000000000000000039
:1017B0000000000000000000000000000000000029
:1017C0000000000000000000000000000000000019
:1017D0000000000000000000000000000000000009
:1017E00000000000000000000000000000000000F9
:1017F00000000000000000000000000000000000E9
:1018000000000000000000000000000000000000D8
:1018100000000000000000000000000000000000C8
:1018200000000000000000000000000000000000B8
:1018300000000000000000000000000000000000A8
:101840000000000000000000000000000000000098
:101850000000000000000000000000000000000088
:101860000000000000000000000000000000000078
:101870000000000000000000000000000000000068
:101880000000000000000000000000000000000058
:101890000000000000000000000000000000000048
:1018A00000000000000000000000000A0A14000010
:1018B0000000000000000000000000000000000028
:1018C0000000000000000000000000000000000018
:1018D0000000000000000000000000000000000008
:1018E00000000000000000000000000000000000F8
:1018F00000000000000000010001000200000000E4
:1019000000000100000000000001000000000000D5
:10191000000000004F4F0000000000000000000029
:10192000000000000000434D443A204D2C2043208D
:101930002020202020202020202000000000000067
:101940000000000000004D6573736167652C204343
:101950006C6F736520202020202000000000000014
:1019600000000000000054657874204D65737361B9
:10197000676520746F20486F7374000000000000DA
:10198000000000000000434D443A20522C20502C0F
:10199000204F2020202020202020000000000000D8
:1019A00000000000000052656164792C2050756DC4
:1019B000702C204F70656E20202000000000000079
:1019C0000000000000004C6F6164204C6F636B20CE
:1019D000636F6D6D616E6473202000000000000075
:1019E000000000000000434D443A204C2C20532CB2
:1019F0002044202020202020202000000000000083
:101A00000000000000004C6F672C20536571756565
:101A10006E63652C2044656275670000000000005D
:101A20000000000000002020202020202020202076
:101A30002020202020202020202000000000000066
:101A4000000000000000434D443A20452C20482C63
:101A50002046202020202020202000000000000020
:101A60000000000000004572726F72732C20486500
:101A70006C702C204672656520200000000000007C
:101A8000000000000000453A205465737420204691
:101A90003A2053706565642020200000000000009B
:101AA000000000000000040EE66ED90EE66EFB0E8C
:101AB000E66EF7EC97F0040EE66ED90EE66EFB0EBE
:101AC000E66EF7EC97F066C5D9F467C5DAF4050160
:101AD000DFAA1AD0040EE66ED50EE66EFB0EE66E99
:101AE000F7EC97F00A0EE66E000EE66E30ECA2F010
:101AF000060169696A696B696C69010E7127000EDC
:101B00007223732374235ED1040EE66E090EE66E13
:101B1000FC0EE66EF7EC97F066C5D9F467C5DAF40B
:101B20000501DFAA0FD0010E06017127000E7223F6
:101B300073237423FE0E696FFF0E6A6FFF0E6B6FC7
:101B4000FF0E6C6F040EE66E050EE66EFC0EE66E82
:101B5000F7EC97F066C5D9F467C5DAF40501DFAA9A
:101B60000FD0010E06017127000E72237323742318
:101B7000FD0E696FFF0E6A6FFF0E6B6FFF0E6C6FCD
:101B8000040EE66E010EE66EFC0EE66EF7EC97F0C4
:101B900066C5D9F467C5DAF40501DFAA0FD0010ED6
:101BA00006017127000E722373237423FC0E696FE4
:101BB000FF0E6A6FFF0E6B6FFF0E6C6F040EE66E0A
:101BC000FD0EE66EFB0EE66EF7EC97F066C5D9F4F7
:101BD00067C5DAF40501DFAA0FD0010E06017127EF
:101BE000000E722373237423FB0E696FFF0E6A6F5E
:101BF000FF0E6B6FFF0E6C6F040EE66EF10EE66E5D
:101C0000FB0EE66EF7EC97F066C5D9F467C5DAF41B
:101C10000501DFAA0FD0010E06017127000E722305
:101C200073237423FA0E696FFF0E6A6FFF0E6B6FDA
:101C3000FF0E6C6F040EE66EED0EE66EFB0EE66EAA
:101C4000F7EC97F066C5D9F467C5DAF40501DFAAA9
:101C50000FD0010E06017127000E72237323742327
:101C6000F90E696FFF0E6A6FFF0E6B6FFF0E6C6FE0
:101C7000040EE66EE90EE66EFB0EE66EF7EC97F0EC
:101C800066C5D9F467C5DAF40501DFAA0FD0010EE5
:101C900006017127000E722373237423F80E696FF7
:101CA000FF0E6A6FFF0E6B6FFF0E6C6F040EE66E19
:101CB000E50EE66EFB0EE66EF7EC97F066C5D9F41E
:101CC00067C5DAF40501DFAA0FD0010E06017127FE
:101CD000000E722373237423F60E696FFF0E6A6F72
:101CE000FF0E6B6FFF0E6C6F040EE66EF90EE66E64
:101CF000FB0EE66EF7EC97F0020EE66E000EE66E57
:101D000030ECA2F066C5D9F467C5DAF40501DFACA2
:101D10000FD0F40E0601696FFF0E6A6FFF0E6B6F36
:101D2000FF0E6C6F010E7127000E72237323742354
:101D3000000EE66E000EE66EDD0EE66EFB0EE66E43
:101D4000DAEC8FF0D890243223322232213221C5AE
:101D50007DF622C57EF623C57FF624C580F666C5CE
:101D6000D9F467C5DAF40501DFAC0FD0F30E060134
:101D7000696FFF0E6A6FFF0E6B6FFF0E6C6F010EC7
:101D80007127000E722373237423000EE66E000E7B
:101D9000E66EF50EE66EFB0EE66EDAEC8FF021C510
:101DA00079F622C57AF623C57BF624C57CF6D20ED9
:101DB000E66E450EE66E010EE66E99ECA4F0010E9D
:101DC000436E02D0436ABF8243C521F51200FF0E65
:101DD000E3C421F5030E2116FF0E21C5E3F4000E26
:101DE0002B6E020E2C6EFF0EE3C42AF52A502B0236
:101DF000F3C427F5F4C428F52C02F3502826140E5A
:101E00002724D96E0D0E2820DA6EDF6A000E2B6EA5
:101E1000020E2C6EFF0EE3C42AF52A502B02F3C4E7
:101E200027F5F4C428F52C02F3502826940E272415
:101E3000D96E0D0E2820DA6EDF6A000E2B6E020EB0
:101E40002C6EFF0EE3C42AF52A502B02F3C427F5AB
:101E5000F4C428F52C02F3502826140E2724D96E3A
:101E60000E0E2820DA6EDF6A000E2B6E020E2C6E2C
:101E7000FF0EE3C42AF52A502B02F3C427F5F4C45D
:101E800028F52C02F3502826940E2724D96E0E0E26
:101E90002820DA6EDF6AE3EC96F0000E2B6E020E5D
:101EA0002C6EFF0EE3C42AF52A502B02F3C427F54B
:101EB000F4C428F52C02F3502826FF0E27242B6E9D
:101EC0000C0E28202C6E2BC5E6F42CC5E6F4000E73
:101ED000E66E000EE66E31EC9BF0E3EC96F0000E41
:101EE0002B6E020E2C6EFF0EE3C42AF52A502B0235
:101EF000F3C427F5F4C428F52C02F35028267F0EEE
:101F000027242B6E0D0E28202C6E2BC5E6F42CC535
:101F1000E6F4000EE66E010EE66E31EC9BF0E3ECAB
:101F200096F0000E2B6E020E2C6EFF0EE3C42AF507
:101F30002A502B02F3C427F5F4C428F52C02F350E1
:101F40002826FF0E27242B6E0D0E28202C6E2BC565
:101F5000E6F42CC5E6F4000EE66E020EE66E31ECF9
:101F60009BF0E3EC96F0000E2B6E020E2C6EFF0E33
:101F7000E3C42AF52A502B02F3C427F5F4C428F54C
:101F80002C02F35028267F0E27242B6E0E0E2820BD
:101F90002C6E2BC5E6F42CC5E6F4000EE66E030E9F
:101FA000E66E31EC9BF025EEFFF0DF50030B216E67
:101FB000E5521200040EE66EFD0EE3C4E6F4E3C43F
:101FC000E6F4F7EC97F0050120EE03F06651D92610
:101FD0006751DA22DF500601756F766B776B786B8D
:101FE000050120EE02F06651D9266751DA22DF5052
:101FF0002C6E2B6A2BC525F52CC526F5000E26BEAA
:10200000FF0E276E286E000E2514296EFF0E261473
:102010002A6E000E27142B6E000E28142C6E2950E9
:10202000060175272A5076232B5077232C507823CE
:10203000050120EE01F06651D9266751DA22DF5002
:102040002C6E2CC525F5266A276A286A26C528F530
:1020500025C527F5266A256A000E2514296E000E6F
:1020600026142A6EFF0E27142B6E000E28142C6ED9
:102070002950060175272A5076232B5077232C50A0
:10208000782366C5D9F467C5DAF4DF502C6E2CC509
:1020900025F5266A276A286A25C528F5276A266A4B
:1020A000256A000E2514296E000E26142A6E000ED5
:1020B00027142B6EFF0E28142C6E295075272A50DA
:1020C00076232B5077232C50782305019D6B66C512
:1020D000D9F467C5DAF4DFAA14D0010E9E6F010EA1
:1020E0009D6F010E06016D27000E6E236F23702376
:1020F000BF82040EE66ED90EE66EFB0EE66EF7ECBE
:1021000097F066C5D9F467C5DAF40501DFAC12D0E3
:10211000010E9D6F010E06017127000E72237323BD
:102120007423BF82040EE66ED90EE66EFB0EE66ED9
:10213000F7EC97F0FC0EE3C421F5FD0EE3502110FF
:10214000D8B407D0FC0EE3C4E6F4E3C4E6F430EC04
:10215000A2F075C621F576C622F577C623F578C6B6
:1021600024F5E552E552E552E5521200110EE12642
:10217000000EE222EB0EE3C421F5800E215ED8B002
:10218000C4D0E80EE1242B6EFF0EE2202C6EFF0E71
:102190002CC5E3F4FE0E2BC5E3F4EC0EE3C42BF5E3
:1021A000ED0EE3C42CF5F20E2CC5E3F4F10E2BC5B5
:1021B000E3F4EB0EE35007E1EA0EE3C421F5020E6F
:1021C000215ED8A01CD0EA0EE350FF0F2B6EEB0E61
:1021D000E3C42CF5FF0E2C22FA0EE124D96EFF0E7B
:1021E000E220DA6E2BC5DEF42CC5DDF4F30EE1241B
:1021F000D96EFF0EE220DA6EDE6ADD6A14D0FA0EC6
:10220000E124D96EFF0EE220DA6E010EDE6E000EC2
:10221000DD6EF30EE124D96EFF0EE220DA6E010EC0
:10222000DE6E000EDD6EFE0EE124216EFF0EE2205A
:10223000226E21C5E6F422C5E6F4E60EE3C4E6F418
:10224000E3C4E6F4ED0EE124216EFF0EE220226EDF
:1022500021C5E6F422C5E6F484EC99F0FC0E21C514
:10226000E3F4FD0E22C5E3F4EA0EE3C421F5EB0E20
:10227000E3502110D8B449D0FD0EE3BE46D0EA0E9B
:10228000E350FF0F2B6EEB0EE3C42CF5FF0E2C2258
:10229000FC0EE3C421F52B50215CFD0EE350800AB7
:1022A000216E2C50800A2158D8A010D0EA0EE3509D
:1022B000FF0F2B6EEB0EE3C42CF5FF0E2C22EF0E5E
:1022C0002BC5E3F4F00E2CC5E3F40CD0FC0EE3C4F4
:1022D00021F5EF0E21C5E3F4FD0EE3C421F5F00E68
:1022E00021C5E3F4EF0EE3C42BF5F00EE3C42CF5A7
:1022F000EC0EE3C429F5ED0EE3C42AF52B50292496
:10230000D96E2C502A20DA6EDF6AEF0EE126FF0E1E
:10231000E222E552E750E15E000EE25A120025EE9D
:10232000F2F2DF50D8B4B2D025EEF4F2DF502B6ECB
:102330002C6A010E2B26000E2C222BC5E6F42CC590
:10234000E6F4D10EE66EFC0EE66E150EE66E000E9D
:10235000E66E030EE66E000EE66E72EC9EF021C590
:10236000E6F422C5E6F4080EE66EB6EC90F0FF0E39
:10237000E350D8B41BD0000EE66E000EE66E5C0E85
:10238000E66EFF0EE66E150EE66E000EE66E030EAE
:10239000E66E030EE66E72EC9EF021C5E6F422C5F1
:1023A000E6F4080EE66EB6EC90F024D025EEF4F2DA
:1023B000DF50600D550EF3242B6E170EF4202C6E9B
:1023C0002BC5E6F42CC5E6F48E0EE66EFE0EE66E28
:1023D000150EE66E000EE66E030EE66E030EE66E5A
:1023E00072EC9EF021C5E6F422C5E6F4080EE66E16
:1023F000B6EC90F025EEF4F2DF50600D350EF324CC
:102400002B6E170EF4202C6E2BC5E6F42CC5E6F4CB
:10241000870EE66EFF0EE66E150EE66E000EE66E99
:10242000030EE66E020EE66E72EC9EF021C5E6F437
:1024300022C5E6F4080EE66EB6EC90F025EEF4F256
:10244000DF50600D150EF3242B6E170EF4202C6E4A
:102450002BC5E6F42CC5E6F4870EE66EFF0EE66E9D
:10246000150EE66E000EE66E030EE66E010EE66ECB
:1024700072EC9EF021C5E6F422C5E6F4080EE66E85
:10248000B6EC90F0010E6100A1F3F4F6E5521200F3
:10249000E00E0501646F070E656FA00E666F070EF4
:1024A000676F690EE66E000EE66E200EE66E000E99
:1024B000E66E800EE66E080EE66EFFEC9BF0B20E46
:1024C000E66E4D0EE66E010EE66E10ECA5F0CE0E39
:1024D000E66E4D0EE66E010EE66E21ECA5F0020EE4
:1024E000E66E96ECA5F0500EE66E460EE66E010E18
:1024F000E66EDDECA4F0EC0EE66E4C0EE66E010E20
:10250000E66EEEECA4F0AA0EE66E4C0EE66E010E40
:10251000E66EFFECA4F0030EE66E86ECA5F0500E1E
:10252000E66E460EE66E010EE66EAAECA4F0EC0E28
:10253000E66E4C0EE66E010EE66EBBECA4F0AA0E43
:10254000E66E4C0EE66E010EE66ECCECA4F0030EC9
:10255000E66E76ECA5F05950D8B40AD0C00EE66EFF
:10256000270EE66E090EE66E000EE66EE4EC9DF0B8
:1025700000018A93E86BFC9F849F020E866F848F14
:102580003F0EFD17FD9BFD51F90B0209FD6FE70E94
:10259000FD17FD8164C5F9F065C5FAF0FB6BFC9B86
:1025A000FC8F8A83530EE66E1FECA6F0050EE66ED6
:1025B0009EEC9FF0520EE66E1FECA6F0230EE66E28
:1025C0009EEC9FF0410EE66E1FECA6F0510EE66EFB
:1025D0001FECA6F0DC0EE66E050EE66E000EE66E53
:1025E000000EE66EE4EC9DF09DECA6F08CECA6F0FF
:1025F000596A1200120EF66E170EF76E010EF86E83
:1026000005EE01F120EE94F30900F5C4EEF4DD507F
:10261000D950FAE1DA50F8E14E0EF66E4D0EF76E33
:10262000010EF86E01EEF4F220EE08F00900F5C498
:10263000EEF4DD50D950FAE1CA0EF66E4A0EF76E8E
:10264000010EF86E01EED1F120EE21F00900F5C483
:10265000EEF4DD50D950FAE1E20EF66E4D0EF76E53
:10266000010EF86E0900F5C459F503EEFFF022EEF5
:1026700002F0EE6ADD50D950FCE1DA50FAE103EEE7
:1026800000F020EEFFF0EE6ADD50D950FCE1DA50A8
:10269000FAE102EE00F320EEFFF0EE6ADD50D950D1
:1026A000FCE1DA50FAE102EE00F220EEFFF0EE6A11
:1026B000DD50D950FCE1DA50FAE102EE00F120EEF3
:1026C000FFF0EE6ADD50D950FCE1DA50FAE102EE9B
:1026D00000F0E90EEE6AE806FDE101EE00F320EEFF
:1026E00000F1EE6ADD50D950FCE1DA50FAE101EE7A
:1026F00000F2E80EEE6AE806FDE101EE60F14A0E36
:10270000EE6AE806FDE101EE41F1180EEE6AE80618
:10271000FDE10401080E5D6F000E5E6F000E5F6F3D
:10272000000100EF80F0E652E652E652E652FE0E5D
:10273000E36AF90EE3AE09D0F80EE36CF90EE31E7E
:10274000D8B0E32AFE0EE36AE32AFB0EE3AE08D01C
:10275000FA0EE36CFB0EE31ED8B0E32AFE0EE37024
:10276000FC0EE36AFD0EE36AF80EE3C421F5F90EF0
:10277000E3502110D8B45BD0FF0EE36A10D0F80EFE
:10278000E350D890E834216EF80E21C5E3F4F90E39
:10279000E350E834216EF90E21C5E3F4FF0EE32A7D
:1027A000F90EE3AEECD7FC0EE350D890E834216E7E
:1027B000FC0E21C5E3F4FD0EE350E834216EFD0E5E
:1027C00021C5E3F4F80EE3C42BF5F90EE3C42CF5B0
:1027D000FA0EE3C429F5FB0EE3C42AF52B50295C5D
:1027E0002C502A58D8A014D0FA0EE350216EF80EBF
:1027F000E350215EFA0E21C5E3F4FB0EE350216E97
:10280000F90EE350215AFB0E21C5E3F4FC0EE380E0
:10281000D890F90EE332F80EE332FF0EE350216E4A
:10282000010E215EFF0E21C5E3F4D8A4BCD7FE0E35
:10283000E350D8B406D0FC0EE36CFD0EE31ED8B016
:10284000E32AFC0EE3C421F5FD0EE3C422F5F80EE5
:10285000E126FF0EE2221200E652E652FE0EE36A85
:10286000FD0EE3AE09D0FC0EE36CFD0EE31ED8B006
:10287000E32AFE0EE36AE32AFB0EE3AE06D0FA0E6D
:10288000E36CFB0EE31ED8B0E32AFA0EE3C421F595
:10289000FB0EE3502110D8B44AD0FF0EE36A10D0EB
:1028A000FA0EE350D890E834216EFA0E21C5E3F415
:1028B000FB0EE350E834216EFB0E21C5E3F4FF0E5E
:1028C000E32AFB0EE3AEECD7FA0EE3C42BF5FB0EC6
:1028D000E3C42CF5FC0EE3C429F5FD0EE3C42AF590
:1028E0002B50295C2C502A58D8A012D0FC0EE35053
:1028F000216EFA0EE350215EFC0E21C5E3F4FD0EBD
:10290000E350216EFB0EE350215AFD0E21C5E3F486
:10291000D890FB0EE332FA0EE332FF0EE350216E45
:10292000010E215EFF0E21C5E3F4D8A4CDD7FE0E23
:10293000E350D8B406D0FC0EE36CFD0EE31ED8B015
:10294000E32AFC0EE3C421F5FD0EE3C422F5FA0EE2
:10295000E126FF0EE2221200FC0EE3C421F5FD0E7B
:10296000E3502110D8B408D0FC0EE3C421F5FD0ECD
:10297000E3502110D8A406D0FE0EE350E66EDCEC46
:10298000A6F064D0FC0EE3C42BF5FD0EE3C42CF5D9
:10299000090E2B24D96E000E2C20DA6EDE50DE10CC
:1029A000D8B422D0FC0EE3C42BF5FD0EE3C42CF505
:1029B000090E2B24D96E000E2C20DA6EFC0EE3C417
:1029C0002BF5FD0EE3C42CF5020E2B24E96E000E50
:1029D0002C20EA6EDE50EE5CEE50800A216EDE5056
:1029E000800A2158D8B032D0FC0EE3C42BF5FD0E7E
:1029F000E3C42CF5020E2B24D96E000E2C20DA6EC7
:102A0000DEC42BF5DDC42CF5FC0EE3C4D9F4FD0EB9
:102A1000E3C4DAF4DEC429F5DDC42AF52B502924F9
:102A2000D96E2C502A20DA6EFE0EE3C4DFF4FC0EC1
:102A3000E3C42BF5FD0EE3C42CF5020E2B24D96E56
:102A4000000E2C20DA6EDE2A000EDD22E552E55261
:102A5000E552E5521200050EE126000EE222F70EC5
:102A6000E3C42BF5F80EE3C42CF5FC0E2CC5E3F4FF
:102A7000FB0E2BC5E3F4F90EE3C42BF5FA0EE3C409
:102A80002CF5FE0E2CC5E3F4FD0E2BC5E3F43ED071
:102A9000FB0EE3C4F6F4FC0EE3C4F7F4000EF86E8C
:102AA0003F0EF76403D00800F55005D0F6C4E9F4F2
:102AB000F7C4EAF4EF502C6EFF0E2CC5E3F4FB0EC6
:102AC000E350010F216EFB0E21C5E3F4216AFC0ED9
:102AD000E3502120216EFC0E21C5E3F4FD0EE3C47A
:102AE000D9F4FE0EE3C4DAF4FF0EE3C4DFF4FD0E06
:102AF000E350010F216EFD0E21C5E3F4216AFE0EA5
:102B0000E3502120216EFE0E21C5E3F4F50EE3C44F
:102B100021F5010E215EF50E21C5E3F4F60EE3C4A6
:102B200021F5000E215AF60E21C5E3F4F50EE32837
:102B3000AFE1F60EE328D8A4ABD7F50EE126FF0EE1
:102B4000E2221200E652E652E652FD0EE36AFE0E63
:102B5000E36AF90EE3C421F5FA0EE3502110D8B46C
:102B60005BD0FF0EE36A10D0F90EE350D890E83442
:102B7000216EF90E21C5E3F4FA0EE350E834216E1C
:102B8000FA0E21C5E3F4FF0EE32AFA0EE3AEECD70A
:102B9000FD0EE350D890E834216EFD0E21C5E3F41C
:102BA000FE0EE350E834216EFE0E21C5E3F4F90E6B
:102BB000E3C42BF5FA0EE3C42CF5FB0EE3C429F5B0
:102BC000FC0EE3C42AF52B50295C2C502A58D8A0BF
:102BD00014D0FB0EE350216EF90EE350215EFB0E84
:102BE00021C5E3F4FC0EE350216EFA0EE350215AA6
:102BF000FC0E21C5E3F4FD0EE380D890FA0EE3321B
:102C0000F90EE332FF0EE350216E010E215EFF0E3E
:102C100021C5E3F4D8A4BCD7FD0EE3C421F5FE0E14
:102C2000E3C422F5F90EE126FF0EE2221200E6527D
:102C3000FE0EE3C421F5050E216402D0FE0EE36A08
:102C4000FD0EE350D8B40BD0FE0EE3502B6E2C6A71
:102C5000630E2B24D96E060E2C20DA6EDF6AFE0E70
:102C6000E350140D5D0EF3242B6EFB0EF4202C6E3E
:102C7000FE0EE350296E2A6A630E2924D96E060ED1
:102C80002A20DA6EDF502B26000E2C222BC5F6F4FC
:102C90002CC5F7F4000EF86E0800FF0EF5C4E3F43F
:102CA000FE0EE350140D5D0EF3242B6EFB0EF4208C
:102CB0002C6E2BC5E6F42CC5E6F476EC9BF0FE0EEC
:102CC000E3502B6E2C6A630E2B24D96E060E2C203B
:102CD000DA6EDF2ADF502B6E2C6A21502B5C2250DB
:102CE0002C58D8A00BD0FE0EE3502B6E2C6A630E2E
:102CF0002B24D96E060E2C20DA6EDF6AFF0EE3C499
:102D000021F5E552E552E5521200E652FB0EE3C40E
:102D100021F5FC0EE3502110D8B44AD0FF0EE36A2F
:102D200010D0FB0EE350D890E834216EFB0E21C585
:102D3000E3F4FC0EE350E834216EFC0E21C5E3F40D
:102D4000FF0EE32AFC0EE3AEECD7FB0EE3C42BF53B
:102D5000FC0EE3C42CF5FD0EE3C429F5FE0EE3C41E
:102D60002AF52B50295C2C502A58D8A012D0FD0EE1
:102D7000E350216EFB0EE350215EFD0E21C5E3F40E
:102D8000FE0EE350216EFC0EE350215AFE0E21C5CB
:102D9000E3F4D890FC0EE332FB0EE332FF0EE35077
:102DA000216E010E215EFF0E21C5E3F4D8A4CDD71C
:102DB000FD0EE3C421F5FE0EE3C422F5FB0EE12671
:102DC000FF0EE2221200E652E652E652E652FC0EF6
:102DD000E36AFD0EE36AFE0EE36AFF0EE36A1ED0AD
:102DE000E150FC0FD96EE250DA6EFF0EDA22DFC43A
:102DF00029F5DE2ADEC42AF5DEC42BF5DDC42CF568
:102E0000DD52000EDE22DE22DF222C502B1034E1B8
:102E1000100E295C270E2A58D8B02ED0050160B7B5
:102E2000DFD7FC0EE36AFD0EE36AFE0EE36AFF0ED7
:102E3000E36A1ED0E150FC0FD96EE250DA6EFF0E4D
:102E4000DA22DFC429F5DE2ADEC42AF5DEC42BF53A
:102E5000DDC42CF5DD52000EDE22DE22DF222C50F6
:102E60002B100AE1100E295C270E2A58D8B004D086
:102E7000000187ABDFD7BF96E552E552E552E55238
:102E80001200E652E652FC0EE3C42BF5FD0EE3C43D
:102E90002CF5FF0E2CC5E3F4FE0E2BC5E3F431D068
:102EA000010E0001826FFE0EE3C4F6F4FF0EE3C4D0
:102EB000F7F4000EF86E3F0EF76403D00800F550EB
:102EC00005D0F6C4E9F4F7C4EAF4EF500001816FCD
:102ED000B1A0FED7FE0EE3C4D9F4FF0EE3C4DAF4CA
:102EE00080C0DFF4FE0EE350010F216EFE0E21C5FF
:102EF000E3F4216AFF0EE3502120216EFF0E21C56D
:102F0000E3F4FA0EE3C421F5010E215EFA0E21C5A9
:102F1000E3F4FB0EE3C421F5000E215AFB0E21C59C
:102F2000E3F4FA0EE328BCE1FB0EE328D8A4B8D7FB
:102F3000FA0EE126FF0EE2221200070EC26EDE0E2E
:102F4000C16EBE6A510EBF6E2A0EC06ECA6AC668D6
:102F5000E00EC76ED10EC86E270EC96E200E04019A
:102F6000186FC00E106F800E086F206B00698F0EF7
:102F7000196F070E216F710E096F016B310E116F02
:102F8000226B026B010E0A6F126B800E1A6F0369BF
:102F90000B6913691B69070E236F04690C691469B7
:102FA0001C690F0E246F0F9D0E8D0D9DC40EE66ED5
:102FB0004D0EE66E010EE66E99ECA4F09E8E180E94
:102FC0000201746F130E6A6F0D0E6E6F310E146F67
:102FD000200E126F350E0D6F320E166F100E726FBF
:102FE000230E1F6F1A0E6D6F140E6B6F1200E652D8
:102FF000E652FC0EE3C42BF5FD0EE3C42CF5FF0EE8
:103000002CC5E3F4FE0E2BC5E3F4E3EC96F0C18689
:10301000C292010E05017027000E712372237323E3
:10302000FB0EE3C421F5080E216401D02AD0FB0E6B
:10303000E350E66E000EE66EFC0EE3C4E6F4E3C475
:10304000E6F4D40EE66E060EE66E2BEC95F0FB0E63
:10305000E350E66E000EE66ED40EE66E060EE66EE9
:1030600041EC97F0FB0EE350E66E000EE66ED40ED8
:10307000E66E060EE66E66C5E6F467C5E6F42BEC72
:1030800095F0C282FB0EE126FF0EE2221200000E36
:103090005524D96EDA6A090EDA22DF6A0201B2A774
:1030A00015D0000E5524D96EDA6A090EDA2209010C
:1030B000DF8201D80BD00500FA6E0601BF51FD6E0C
:1030C000C051FE6EC151FF6EFA5012000201B2A350
:1030D00015D0000E5524D96EDA6A090EDA220901DC
:1030E000DF8401D80BD00500FA6E0601BC51FD6EDD
:1030F000BD51FE6EBE51FF6EFA501200000E5524F7
:10310000D96EDA6A090EDA22DF50D8B40DD001D8B0
:1031100012000500FA6E0601B951FD6EBA51FE6E3D
:10312000BB51FF6EFA501200D2ECA5F01200000E57
:103130004E24D96EDA6A0A0EDA22DF6A0201C5A7C6
:1031400015D0000E4E24D96EDA6A0A0EDA220A0170
:10315000DF8201D80BD00500FA6E0601B651FD6E74
:10316000B751FE6EB851FF6EFA5012000201C5A3AE
:1031700015D0000E4E24D96EDA6A0A0EDA220A0140
:10318000DF8401D80BD00500FA6E0601B351FD6E45
:10319000B451FE6EB551FF6EFA501200000E4E246F
:1031A000D96EDA6A0A0EDA22DF50D8B40DD001D80F
:1031B00012000500FA6E0601B051FD6EB151FE6EAF
:0E31C000B251FF6EFA501200E0ECA5F01200C2
:1031D000FAC401F5FBC402F5F6C403F5F7C404F51F
:1031E000F8C405F5F5C406F521C507F522C508F5AF
:1031F00023C509F524C50AF525C50BF526C50CF52B
:1032000027C50DF528C50EF529C50FF52AC510F5FA
:103210002BC511F52CC512F518EEBAF204010FBD3D
:10322000D4ECA2F012C52CF511C52BF510C52AF56A
:103230000FC529F50EC528F50DC527F50CC526F5D2
:103240000BC525F50AC524F509C523F508C522F5E2
:1032500007C521F506C5F5F405C5F8F404C5F7F46E
:1032600003C5F6F402C5FBF401C5FAF41100190E0A
:103270000601C46F570EC56F070EC66FC76BC869CE
:10328000C969060EE66EC40EE66E060EE66E3EECEC
:103290009DF0190E0601C719D8A408D0570EC819F9
:1032A000D8A404D0070EC919D8B403D0000E216EDB
:1032B0001200030EE66E160EE66EFC0EE66E3EEC97
:1032C0009DF0030EE66EA70EE66E050EE66E3EEC72
:1032D0009DF0030EE66E130EE66EFC0EE66E3EECFF
:1032E0009DF0030EE66E100EE66EFC0EE66E3EECF2
:1032F0009DF0030EE66E0D0EE66EFC0EE66E3EECE5
:103300009DF0010E216E1200E652E652FA0EE3C461
:103310002BF5FB0EE3C42CF5FF0E2CC5E3F4FE0EDB
:103320002BC5E3F40501946B956B1BD0F80EE3C439
:10333000E6F4E3C4E6F4FC0EE124216EFF0EE22085
:10334000226E21C5E6F422C5E6F4F80EE3C4E6F4E5
:10335000E3C4E6F467EC85F0215005019427225080
:103360009523E150FE0FD96EE250DA6EFF0EDA229D
:10337000DEC4F6F4DDC4F7F4000EF86E0800F55074
:103380000009D8A4D3D794C521F595C522F5F80E28
:10339000E126FF0EE2221200A6902E0EE66E310EFE
:1033A000E66E010EE66EABECA3F0A692260EE66E7C
:1033B000460EE66E010EE66E9AECA3F00201B86BC3
:1033C000B96BBA6BBB6BBC6BBD6BB00EBE6F800EC6
:1033D000BF6FC06B820EC16F060EC26FC36BC46B32
:1033E000C56BC66BCC0EE66E4D0EE66E010EE66E3C
:1033F000CDECA3F0CA0EE66E4D0EE66E010EE66E43
:10340000BCECA3F0AC0EE66E4D0EE66E010EE66E61
:10341000DEECA3F04B6A516A506A400E4F6E4E6A62
:103420004D6A4C6AA6801200A2908E0EE66E300E97
:10343000E66E010EE66E00ECA4F0A292FC0EE66EC3
:10344000450EE66E010EE66EEFECA3F00201A56BF1
:10345000A66BA76BA86BA96BAA6BB00EAB6F800EA7
:10346000AC6FAD6B820EAE6F060EAF6FB06BB16B13
:10347000B26BB36BC80EE66E4D0EE66E010EE66ED5
:1034800022ECA4F0C60EE66E4D0EE66E010EE66E60
:1034900011ECA4F0A60EE66E4D0EE66E010EE66E81
:1034A00033ECA4F0526A586A576A400E566E556A59
:1034B000546A536AA2801200000EE66E000EE66E99
:1034C000E10EE66EFB0EE66EDAEC8FF021C5F4F647
:1034D00022C5F5F623C5F6F624C5F7F666C5D9F478
:1034E00067C5DAF40501DFA609D0010E9F6F010E52
:1034F00006018127000E822383238423F4C629F545
:10350000F5C62AF5F6C62BF5F7C62CF5D8902C3261
:103510002B322A322932FF0E29140601916FFF0E39
:103520002A14926FFF0E2B14936F000E2C14946FBD
:10353000010E8527000E862387238823F90EE126B6
:10354000FF0EE2221200A6902E0EE66E310EE66EFF
:10355000010EE66EABECA3F0A692260EE66E460ECA
:10356000E66E010EE66E9AECA3F00201B86BB96B41
:10357000BA6BBB6BBC6BBD6BB00EBE6F800EBF6F0A
:10358000C06B8A0EC16FC26BC36BC46BC56BC66B5D
:10359000CC0EE66E4D0EE66E010EE66ECDECA3F09F
:1035A000CA0EE66E4D0EE66E010EE66EBCECA3F0A2
:1035B000AC0EE66E4D0EE66E010EE66EDEECA3F08E
:1035C0004B6A516A506A400E4F6E4E6A4D6A4C6AA1
:1035D000A6801200A2908E0EE66E300EE66E010EF0
:1035E000E66E00ECA4F0A292FC0EE66E450EE66ECE
:1035F000010EE66EEFECA3F00201A56BA66BA76BC4
:10360000A86BA96BAA6BB00EAB6F800EAC6FAD6BE5
:103610008A0EAE6FAF6BB06BB16BB26BB36BC80E93
:10362000E66E4D0EE66E010EE66E22ECA4F0C60EBE
:10363000E66E4D0EE66E010EE66E11ECA4F0A60EDF
:10364000E66E4D0EE66E010EE66E33ECA4F0526AA5
:10365000586A576A400E566E556A546A536AA28079
:103660001200E6524450D8A43CD012D0FF0EE36AB8
:10367000E38C1DD0FF0EE36AE384E38818D0540E78
:103680002C6EFF0E2CC5E3F412D0FF0EE36A0FD0B0
:10369000FE0EE350000AD8B4F8D7010AD8B4E6D732
:1036A000030AD8B4E7D7010AD8B4E9D7EED7FD0E9C
:1036B000E3C42CF5FF0EE3502C24E66E17EC9EF0CD
:1036C000900EE66E010EE66E000EE66E000EE66EE1
:1036D000E4EC9DF0FB0EE3C4E6F4E3C4E6F442EC54
:1036E0009CF0FB0EE126FF0EE2221200E652E652AB
:1036F000FC0EE3C42BF5FD0EE3C42CF5FF0E2CC528
:10370000E3F4FE0E2BC5E3F40FD0FC0EE350010FE3
:10371000216EFC0E21C5E3F4216AFD0EE350212049
:10372000216EFD0E21C5E3F4FC0EE3C4F6F4FD0E9C
:10373000E3C4F7F4000EF86E3F0EF76403D0080000
:10374000F55005D0F6C4E9F4F7C4EAF4EF500009E7
:10375000D8A4DBD7FC0EE3C421F5FD0EE3C422F5AB
:10376000FE0EE350215EFF0EE350225AE552E55271
:10377000E552E55212000301F96B170EFA6FD86B90
:10378000FB6BD96BDA6BDB6BDC6BDF6BE06BE36BDA
:10379000E46BE56BE66BE76BEA6BEB6BEC6B140EC3
:1037A000EE6FEF6B1F0EF06FF16BF26BF36B010EB0
:1037B000F46F100EF56FF66BF76B020EF86FFC6B83
:1037C000AF94AF96B090D20EE66E4D0EE66E010E3F
:1037D000E66E54ECA5F0D60EE66E4D0EE66E010ECA
:1037E000E66E32ECA5F0D40EE66E4D0EE66E010EDE
:1037F000E66E43ECA5F0840E0301F36F1200E6526F
:10380000E652FC0EE3C42BF5FD0EE3C42CF5FF0ECF
:103810002CC5E3F4FE0E2BC5E3F418D0FE0EE3C472
:10382000D9F4FF0EE3C4DAF4FA0EE3C4DFF4FE0EBB
:10383000E350010F216EFE0E21C5E3F4216AFF0E55
:10384000E3502120216EFF0E21C5E3F4F80EE3C4FE
:1038500021F5010E215EF80E21C5E3F4F90EE3C453
:1038600021F5000E215AF90E21C5E3F4F80EE328E4
:10387000D5E1F90EE328D8A4D1D7F80EE126FF0E42
:10388000E2221200E652FD0EE3C4E6F4E3C4E6F4DD
:1038900076EC9BF0FF0E21C5E3F4E3EC96F0B8EC78
:1038A000A6F0C196FF0EE3C421F5140E216404D0E6
:1038B000FF0EE36AE384E388FF0EE350E66E000E3A
:1038C000E66EFB0EE3C4E6F4E3C4E6F464C5E6F496
:1038D00065C5E6F42BEC95F00001E86BFC9FFF0E4C
:1038E000E350E66E000EE66E2AECA6F0010EE66EE0
:1038F000000EE66E35ECA6F0FC8FBBECA6F0E552B0
:06390000E552E552120041
:10390800FAC4B0F5FBC4B1F521C5B2F525C5B3F5C8
:1039180026C5B4F527C5B5F528C5B6F529C5B7F543
:103928002AC5B8F52BC5B9F52CC5BAF518EEBAF203
:103938000501825183118411D8B40CD001D80AD062
:103948000500FA6E8251FD6E8351FE6E8451FF6E42
:10395800FA501200BAC52CF5B9C52BF5B8C52AF529
:10396800B7C529F5B6C528F5B5C527F5B4C526F5F3
:10397800B3C525F5B2C521F5B1C5FBF4B0C5FAF458
:103988001100010E0001E86F800EF96F000EFA6F4A
:10399800000EFB6F070EF16FA00EF06F400EFD6F6B
:1039A800000EF86F010EF76F000EEF6F080EEE6F46
:1039B800FF6BFE6BB49AB498B49EB49CA48AE00ED4
:1039C800E66E4D0EE66E010EE66EFFECA4F0A488DE
:1039D800E00EE66E4D0EE66E010EE66EDDECA4F02E
:1039E800A49EA48CE00EE66E4D0EE66E010EE66E09
:1039F800EEECA4F0800E0001FC6F1200020E000134
:103A0800E86F800EF96F000EFA6F000EFB6F070E5D
:103A1800F16FC00EF06FFD6B000EF86F010EF76FBF
:103A2800000EEF6F030EEE6FFF6BFE6BB89AB8983F
:103A3800B89EB89CA88ADE0EE66E4D0EE66E010EA4
:103A4800E66ECCECA4F0A888DE0EE66E4D0EE66EAF
:103A5800010EE66EAAECA4F0A89EA88CDE0EE66E17
:103A68004D0EE66E010EE66EBBECA4F0800E000172
:103A7800FC6F1200E652E652FC0EE3C42BF5FD0E75
:103A8800E3C42CF5FF0E2CC5E3F4FE0E2BC5E3F4BE
:103A9800E3EC96F0C186C290010E05017027000E76
:103AA800712372237323FB0EE3C421F5080E2164EE
:103AB80001D012D0010E7027000E712372237323D8
:103AC800FB0EE350E66E000EE66EFC0EE3C4E6F471
:103AD800E3C4E6F441EC97F0C280FB0EE126FF0E4A
:103AE800E22212000001E86BE00E2B6E070E2C6E2E
:103AF8002BC5F9F02CC5FAF0FB6B000EF16F810EA7
:103B0800F06F020EFD6F000EF86F010EF76F000EDA
:103B1800EF6F010EEE6F190EFF6FFE6BB09AB09843
:103B2800B09EB09CA09AA088D00EE66E4D0EE66EB0
:103B3800010EE66E10ECA5F0A09EA08CD00EE66EED
:103B48004D0EE66E010EE66E21ECA5F0C00E0001EA
:103B5800FC6F1200E652D68AD6AE03D02C6A2C2A05
:103B680001D02C6AFF0E2CC5E3F4D69E550E040135
:103B7800596FAA0E596F59915F6B5E6B080E5D6F96
:103B8800550E596FAA0E596F5981FF0EE3B002D036
:103B9800D69E01D0D68E0301688B6889688D6785AB
:103BA80067816489648D6C8B6C896C8D6A836A818A
:103BB800628F66836681658F71976A99E5521200F4
:103BC800E652E652E652E652FC0EE36AFD0EE36A5E
:103BD800FE0EE36AFF0EE36A0400E150FC0FD96EA3
:103BE800E250DA6EFF0EDA22DE2A000EDE22DE2234
:103BF800DE22E150F80FD96EE250DA6EFF0EDA22BB
:103C0800FC0EE350DE5CFD0EE350DE58FE0EE35082
:103C1800DE58FF0EE350DE58D8B0DED7F80EE126A6
:103C2800FF0EE2221200E3EC96F0B8ECA6F0C19683
:103C380064C5D9F465C5DAF4FE0EDF6E20EE01F036
:103C48006451D9266551DA22450EDF6E20EE02F066
:103C58006451D9266551DA22FF0EE3C4DFF400016E
:103C6800E86BFC9F030EE66E000EE66E2AECA6F0EB
:103C7800010EE66E000EE66E35ECA6F0FC8FBBEC8E
:103C8800A6F0E5521200E652FF0E2C6EFF0E2CC570
:103C9800E3F40001919F560EE66E120EE66E010ED9
:103CA800E66E77ECA4F0960EE66E4C0EE66E010E0C
:103CB800E66E88ECA4F003D0FF0E8DC0E3F400019B
:103CC80094A7FAD7FF0EE3C4D3F594979383918F03
:103CD800000EE66E98ECA6F0E5521200FF0EE350D7
:103CE800030B800DF3C42BF5F4C42CF5000E296EDC
:103CF800020E2A6EFE0EE3C428F5030E281628507D
:103D08002902F3C425F5F4C426F52A02F350262621
:103D1800FF0E2524296E0C0E26202A6E2B502924EE
:103D2800216E2C502A20226EE552E5521200FF0E19
:103D3800E124D96EFF0EE220DA6EDF500501A86F8C
:103D4800A96BFE0EE3C42BF5FF0EE3C42CF52B5034
:103D58002C6E2B6A000E2B14296EFF0E2C142A6E63
:103D68002950A8132A50A913030EE66EA70EE66E73
:0E3D7800050EE66E3EEC9DF0E552E55212009F
:103D8800D8C4CDF5FAC4CEF5FBC4CFF52CC5D0F513
:103D98001BEEDDF0B6989AC5E6F49BC5E6F4DEECBA
:103DA8009FF00501984B992B995104E1320E985DCB
:103DB800D8A005D088ECA3F00501986B996BD0C505
:103DC8002CF5CFC5FBF4CEC5FAF4CDC5D8F4110057
:103DD800E652FF0EE36AFF0EE350020D530EF32482
:103DE800D96E060EF420DA6EDE50DE10D8B40CD090
:103DF800FF0EE350020D530EF324D96E060EF42085
:103E0800DA6EDE06000EDD5AFF0EE32AFF0EE3C46B
:103E180021F5070E2164DFD7E5521200AEEC9DF0C4
:103E280040ECA6F0BBEC9BF09DEC97F007ECA6F0FD
:103E3800C5EC9CF076EC9DF0FBECA5F0BEEC9FF099
:103E4800A7ECA2F002EC9DF092ECA6F037EC9FF004
:103E580014EC9AF0CCEC99F0EEECA5F0F9ECA1F0AA
:103E680085ECA6F012000301376B386B010E396F31
:103E7800630E356FC00E346FB698345135C321F5D3
:103E8800226A21C522F5216A211005019A6F225064
:103E98009B6FA688C20EE66E4D0EE66E010EE66EAC
:103EA80055ECA4F0310E0301366F1200040EE66ED5
:103EB800D50EE66EFB0EE66EF7EC97F00A0EE66E90
:103EC800000EE66E30ECA2F0040EE66ED50EE66E3D
:103ED800FB0EE66EF7EC97F00A0EE66E000EE66E45
:103EE80030ECA2F00601696B6A6B6B6B6C6B1200AD
:103EF800FAC4BBF5FBC4BCF518EEBAF2B19E42C5D4
:103F080019F341C518F30601A751A811A911D8B48E
:103F18000CD001D80AD00500FA6EA751FD6EA85141
:103F2800FE6EA951FF6EFA501200BCC5FBF4BBC56A
:103F3800FAF41100E3EC96F0B8ECA6F0C19664C56B
:103F4800D9F465C5DAF4FF0EE3C4DFF40001E86BC9
:103F5800FC9F010EE66E000EE66E2AECA6F0010E3E
:103F6800E66E000EE66E35ECA6F0FC8FBBECA6F014
:103F7800E55212004D0E03011B6FB30E196FB50EFB
:103F8800186F185119C321F5226A21C522F5216A33
:103F98002110416E2250426EB19EA18EDC0EE66E5B
:103FA8004D0EE66E010EE66E66ECA4F0900E03016F
:103FB8001A6F1200030136A50ED03691FF0EE124C8
:103FC800D96EFF0EE220DA6EDF50356FFE0EE3C4C5
:103FD80034F336810BD0FF0EE124D96EFF0EE220B8
:103FE800DA6EDF50356FFE0EE3C434F3E552E55266
:023FF8001200B5
:103FFC00FAC41BF5FBC41CF518EEBAF2B098050117
:10400C007C517D117E11D8B40CD001D80AD005009A
:10401C00FA6E7C51FD6E7D51FE6E7E51FF6EFA5034
:10402C0012001CC5FBF41BC5FAF41100FAC41DF5F3
:10403C00FBC41EF518EEBAF2B09C0601AD51AE11E0
:10404C00AF11D8B40CD001D80AD00500FA6EAD511E
:10405C00FD6EAE51FE6EAF51FF6EFA5012001EC5D2
:10406C00FBF41DC5FAF41100FAC41FF5FBC420F5CE
:10407C0018EEBAF2AF940601EE51EF11F011D8B46C
:10408C000CD001D80AD00500FA6EEE51FD6EEF513E
:10409C00FE6EF051FF6EFA50120020C5FBF41FC5E6
:1040AC00FAF41100FAC4AAF5FBC4ABF518EEBAF297
:1040BC00AF960601E851E911EA11D8B40CD001D839
:1040CC000AD00500FA6EE851FD6EE951FE6EEA5118
:1040DC00FF6EFA501200ABC5FBF4AAC5FAF411003E
:1040EC00FAC4ACF5FBC4ADF518EEBAF2B09006010B
:1040FC00EB51EC11ED11D8B40CD001D80AD005005D
:10410C00FA6EEB51FD6EEC51FE6EED51FF6EFA50F6
:10411C001200ADC5FBF4ACC5FAF41100FAC4BDF540
:10412C00FBC4BEF518EEBAF2B4980601A451A51161
:10413C00A611D8B40CD001D80AD00500FA6EA4513F
:10414C00FD6EA551FE6EA651FF6EFA501200BEC553
:10415C00FBF4BDC5FAF41100FAC4BFF5FBC4C0F5FD
:10416C0018EEBAF2B49A0601A151A211A311D8B457
:10417C000CD001D80AD00500FA6EA151FD6EA251E7
:10418C00FE6EA351FF6EFA501200C0C5FBF4BFC502
:10419C00FAF41100FAC4C1F5FBC4C2F518EEBAF278
:1041AC00B49C06019E519F11A011D8B40CD001D81B
:1041BC000AD00500FA6E9E51FD6E9F51FE6EA05105
:1041CC00FF6EFA501200C2C5FBF4C1C5FAF411001F
:1041DC00FAC4C3F5FBC4C4F518EEBAF2B8980601DC
:1041EC009B519C119D11D8B40CD001D80AD005005C
:1041FC00FA6E9B51FD6E9C51FE6E9D51FF6EFA50F6
:10420C001200C4C5FBF4C3C5FAF41100FAC4C5F519
:10421C00FBC4C6F518EEBAF2B89A0601985199117A
:10422C009A11D8B40CD001D80AD00500FA6E985166
:10423C00FD6E9951FE6E9A51FF6EFA501200C6C572
:10424C00FBF4C5C5FAF41100FAC4C7F5FBC4C8F5F4
:10425C0018EEBAF2B89C0601955196119711D8B484
:10426C000CD001D80AD00500FA6E9551FD6E96510E
:10427C00FE6E9751FF6EFA501200C8C5FBF4C7C50D
:10428C00FAF41100FAC413F5FBC414F518EEBAF2E3
:10429C000501885189118A11D8B40CD001D80AD0E3
:1042AC000500FA6E8851FD6E8951FE6E8A51FF6EC3
:0E42BC00FA50120014C5FBF413C5FAF41100F9
:1042CC00FAC415F5FBC416F518EEBAF205018B51BC
:1042DC008C118D11D8B40CD001D80AD00500FA6E0F
:1042EC008B51FD6E8C51FE6E8D51FF6EFA5012008B
:0A42FC0016C5FBF415C5FAF4110015
:10430800FAC417F5FBC418F518EEBAF205018E5178
:104318008F119011D8B40CD001D80AD00500FA6ECC
:104328008E51FD6E8F51FE6E9051FF6EFA50120045
:0A43380018C5FBF417C5FAF41100D4
:10434400FAC419F5FBC41AF518EEBAF20501915135
:1043540092119311D8B40CD001D80AD00500FA6E8A
:104364009151FD6E9251FE6E9351FF6EFA50120000
:0A4374001AC5FBF419C5FAF4110094
:10438000FAC4AEF5FBC4AFF518EEBAF205018551DB
:1043900086118711D8B40CD001D80AD00500FA6E66
:1043A0008551FD6E8651FE6E8751FF6EFA501200E8
:1043B000AFC5FBF4AEC5FAF41100FD0EE3C42BF556
:1043C000FE0EE3C42CF5D8902B34296E2C342A6EC3
:1043D000FF0EE350020D530EF324D96E060EF420A7
:1043E000DA6E29C5DEF42AC5DDF4E552E552E55260
:1043F00012000001916B440E926F010E936F996B46
:10440000966BC984A384A380D80EE66E4D0EE66E2B
:10441000010EE66E88ECA4F0DA0EE66E4D0EE66E46
:10442000010EE66E77ECA4F01200BFA402D0010EDC
:1044300001D0000EFF0A2C6E2C462C46BF502C18C3
:10444000FB0B2C18BF6EBF92BF96010E0601F86FD2
:1044500025EE90F2DE2A000EDE22DE22DE2212009F
:10446000FE0EE3C4E6F4E3C4E6F4000EE66EDDEC13
:10447000A1F005D000000000000000000400000EC4
:10448000E66E3DECA3F02150D8B4F4D7E552E552E6
:104490001200FF0EE3BE07D0FE0EE3C421F5FF0EAF
:1044A000E3C422F50BD0FE0EE3C421F5211EFF0E5E
:1044B000E3C422F5221E212AD8B4222AE552E5526D
:1044C0001200E3EC96F0C280C282C18600018785AB
:1044D000849F030E846F859B859D858F8599859329
:1044E0008591030E866F8C6B070E896F848F87957D
:1044F0001200E3EC96F0C280C282C186000187857B
:10450000849F030E846F859B859D858F85998593F8
:104510008591030E866F8C6B070E896F848F87954C
:104520001200D69E550E0001B46FAA0EB46FB4915E
:10453000D68E010EBF6F020EB66F070EBE6FD69EEF
:10454000550EB46FAA0EB46FB481D68E1200010E50
:1045500003013E6F3D6B3F6B7F0E3B6F3A6BBD9629
:10456000AD86D80EE66E3D0EE66E010EE66E44ECAC
:0A457000A4F0C30E03013C6F12001B
:10457C00D8C4C9F5FAC4CAF5FBC4CBF521C5CCF532
:10458C001BEEDDF0BD9676ECA3F0CCC521F5CBC5CA
:10459C00FBF4CAC5FAF4C9C5D8F411000601F151EF
:1045AC00F211F311D8B40CD001D80AD00500FA6E70
:1045BC00F151FD6EF251FE6EF351FF6EFA50120086
:1045CC0004010F9D12004350D8B40ED0000EE66EBD
:1045DC00E66EE66E000EE66E000EE66E000EE66E01
:1045EC00000EE66E5CEC9AF0BF82CFC44AF5120066
:1045FC00400E566010D0400E5724D96EDA6A080E61
:10460C00DA22DF500201A36F572A3F0E576401D004
:10461C00576A562A1200A2921200400E4F6010D018
:10462C00000E5024D96EDA6A080EDA22DF5002012D
:10463C00B66F502A3F0E506401D0506A4F2A1200B8
:10464C00A6921200455005016625D96E000E672111
:10465C00DA6E80C0DFF4452A030E456401D0456A4A
:10466C00010E7427000E75237623772312000400A5
:10467C00FF0EE350020D530EF324D96E060EF420F8
:10468C00DA6EDE50DE10D8A402D0010E01D0000E7E
:10469C00216EE5521200FE0EE350FF0F2B6EFF0E43
:1046AC00E3C42CF5FF0E2C222BC5E4F62CC5E5F645
:1046BC000601E66BE76BE552E5521200E3EC96F06F
:1046CC00C280C2820001849F240E856F020E866F09
:1046DC00020E8C6F040E896F830E846F848F120010
:1046EC0005017F5180118111D8B4120001D812003C
:1046FC000500FA6E7F51FD6E8051FE6E8151FF6E8A
:10470C00FA5012000601AA51AB11AC11D8B4120028
:10471C0001D812000500FA6EAA51FD6EAB51FE6E67
:10472C00AC51FF6EFA501200E150FD0FD96EE25001
:10473C00DA6EFF0EDA22DEC48EF5DEC48FF5DDC430
:10474C0090F5E552E552E5521200E150FD0FD96E9D
:10475C00E250DA6EFF0EDA22DEC491F5DEC492F579
:10476C00DDC493F5E552E552E5521200E150FD0F20
:10477C00D96EE250DA6EFF0EDA22DEC4B3F6DEC476
:10478C00B4F6DDC4B5F6E552E552E5521200E1503F
:10479C00FD0FD96EE250DA6EFF0EDA22DEC4B6F6E9
:1047AC00DEC4B7F6DDC4B8F6E552E552E5521200A8
:1047BC00E150FD0FD96EE250DA6EFF0EDA22DEC444
:1047CC00B0F6DEC4B1F6DDC4B2F6E552E552E55200
:1047DC001200E150FD0FD96EE250DA6EFF0EDA22B4
:1047EC00DEC488F5DEC489F5DDC48AF5E552E552F0
:1047FC00E5521200E150FD0FD96EE250DA6EFF0E59
:10480C00DA22DEC48BF5DEC48CF5DDC48DF5E55201
:10481C00E552E5521200E150FD0FD96EE250DA6E0E
:10482C00FF0EDA22DEC4BCF6DEC4BDF6DDC4BEF675
:10483C00E552E552E5521200E150FD0FD96EE250FF
:10484C00DA6EFF0EDA22DEC4BFF6DEC4C0F6DDC4BB
:10485C00C1F6E552E552E5521200E150FD0FD96E5A
:10486C00E250DA6EFF0EDA22DEC4B9F6DEC4BAF616
:10487C00DDC4BBF6E552E552E5521200E150FD0FE6
:10488C00D96EE250DA6EFF0EDA22DEC47FF5DEC49A
:10489C0080F5DDC481F5E552E552E5521200E15098
:1048AC00FD0FD96EE250DA6EFF0EDA22DEC4AAF6E4
:1048BC00DEC4ABF6DDC4ACF6E552E552E5521200AF
:1048CC00E150FD0FD96EE250DA6EFF0EDA22DEC433
:1048DC00A7F6DEC4A8F6DDC4A9F6E552E552E5520A
:1048EC001200E150FD0FD96EE250DA6EFF0EDA22A3
:1048FC00DEC482F5DEC483F5DDC484F5E552E552F1
:10490C00E5521200E150FD0FD96EE250DA6EFF0E47
:10491C00DA22DEC485F5DEC486F5DDC487F5E55202
:10492C00E552E5521200E150FD0FD96EE250DA6EFD
:10493C00FF0EDA22DEC4F1F6DEC4F2F6DDC4F3F6C5
:10494C00E552E552E5521200E150FD0FD96EE250EE
:10495C00DA6EFF0EDA22DEC49BF6DEC49CF6DDC4F2
:10496C009DF6E552E552E5521200E150FD0FD96E6D
:10497C00E250DA6EFF0EDA22DEC495F6DEC496F64D
:10498C00DDC497F6E552E552E5521200E150FD0FF9
:10499C00D96EE250DA6EFF0EDA22DEC498F6DEC46F
:1049AC0099F6DDC49AF6E552E552E5521200E15053
:1049BC00FD0FD96EE250DA6EFF0EDA22DEC4A4F6D9
:1049CC00DEC4A5F6DDC4A6F6E552E552E5521200AA
:1049DC00E150FD0FD96EE250DA6EFF0EDA22DEC422
:1049EC009EF6DEC49FF6DDC4A0F6E552E552E55214
:1049FC001200E150FD0FD96EE250DA6EFF0EDA2292
:104A0C00DEC4A1F6DEC4A2F6DDC4A3F6E552E5527F
:104A1C00E5521200E150FD0FD96EE250DA6EFF0E36
:104A2C00DA22DEC47CF5DEC47DF5DDC47EF5E5520C
:104A3C00E552E5521200E150FD0FD96EE250DA6EEC
:104A4C00FF0EDA22DEC4ADF6DEC4AEF6DDC4AFF680
:104A5C00E552E552E5521200E150FD0FD96EE250DD
:104A6C00DA6EFF0EDA22DEC4EBF6DEC4ECF6DDC441
:104A7C00EDF6E552E552E5521200E150FD0FD96E0C
:104A8C00E250DA6EFF0EDA22DEC4E8F6DEC4E9F696
:104A9C00DDC4EAF6E552E552E5521200E150FD0F95
:104AAC00D96EE250DA6EFF0EDA22DEC4EEF6DEC408
:104ABC00EFF6DDC4F0F6E552E552E5521200570070
:104ACC000000000000000000000000000000810059
:0F4ADC00000000000000000000000000000401C6
:104AEC00550E0001B46FAA0EB46FB491FF0EE3C45F
:104AFC00B8F0550EB46FAA0EB46FB481E552120023
:104B0C00550E0001B46FAA0EB46FB491FF0EE3C43E
:104B1C00B7F0550EB46FAA0EB46FB481E552120003
:104B2C00550E0001B46FAA0EB46FB491FF0EE3C41E
:104B3C00B6F0550EB46FAA0EB46FB481E5521200E4
:104B4C00020EE66E3DECA3F02150D8B406D0FF0E59
:104B5C00E3C42CF56100B1F4E0F6E5521200020E4C
:104B6C00E66E080EE66E000EE66E000EE66EFF0EAA
:104B7C00E66E0C0EE66EFFEC9BF01200FF0EE3C42B
:104B8C002CF5030E2C1625EEFFF0DF502C18FC0B29
:104B9C002C18DF6EE5521200000E5524D96EDA6A1D
:104BAC000B0EDA22A1C2DFF4552A5528D8B4556A67
:104BBC00532A1200000E4E24D96EDA6A0C0EDA2239
:104BCC00B4C2DFF44E2A4E28D8B44E6A4C2A1200D6
:104BDC00830E0001846F240E856F030E866F020E08
:104BEC008C6F040E896FC8961200010E0301266F9C
:104BFC00256B276B630E236F226BB1968F0E246F80
:104C0C001200200E0001AD6FAF6B010EB36F080EDA
:104C1C00B16FB06BB2B11200FDD70301EA51EBC317
:104C2C0021F5226A21C522F5216A2126000E2222B5
:104C3C001200FE0EE66E9EEC9FF0FF0EE350E66E49
:104C4C009EEC9FF0E55212000001E86BFE0EE3C4EF
:104C5C00F7F0FF0EE3C4F8F0E552E5521200000144
:104C6C00E86BFE0EE3C4EEF0FF0EE3C4EFF0E5528A
:104C7C00E55212000001606B616B626B636B646BDD
:104C8C00656B666B676B686B1200010E0601402743
:104C9C00000E4123422343230001976B1200010EA7
:104CAC0005017027000E7123722373236099120083
:104CBC0025EEFFF0DF50030BE66EE7EC8EF01200F2
:104CCC00FF0EE3C4ECF30301F38FF381E552120002
:104CDC000301F3B103D0216A212A1200216A1200C8
:104CEC00010E05017827000E79237A237B2312000D
:104CFC00FF0EE350E66E1FECA6F0E5521200550EC7
:104D0C000001B46FAA0EB46FB4811200010E000141
:104D1C00E86FFC9DFC9B1200940E00017F6F400E0F
:104D2C007D6F1200FF0EE3C4FBF3E552120000018D
:104D3C00E86BFC9DFC9B120042C519F341C518F3AE
:104D4C001200A5070000000600000001E86BFC8DB6
:0A4D5C0012003B0E0301EC6F120081
:104D680018EEBAF2BD901100050160871200ABEC95
:104D7800A6F01200C1ECA6F0120003013C8F12004D
:104D8800030136811200CAECA6F012000301248F39
:104D9800120003011A8F120018EEBAF21100D2ECB9
:104DA800A5F01200E0ECA5F01200050160971200D2
:104DB800E5521200C19E12001200120012001200E9
:104DC800120012001200120012001200120012004B
:0B4DD800120012001200120012000175
:020000040020DA
:10000000FFFFFFFFFFFFFFFFFFFFFFFFFFFFFFFF00
:10001000FFFFFFFFFFFFFFFFFFFFFFFFFFFFFFFFF0
:10002000FFFFFFFFFFFFFFFFFFFFFFFFFFFFFFFFE0
:10003000FFFFFFFFFFFFFFFFFFFFFFFFFFFFFFFFD0
:020000040030CA
:10000000AFECEFD79FFFFFFFFFFEFFFFFFFFFFFFFC
:10001000FFFFFFFFFFFFFFFFFFFFFFFFFFFFFFFFF0
:03002000FFFFFFE0
:00000001FF
