:0400000085EF00F098
:10000800CE08CE08CE08CE08CE08CE08CE08AC075B
:10001800CE08CE08B904C704CE08CE08CE08CE084C
:10002800D504CE08CE08CE089D04CE08AB04CE0871
:10003800CE08CE08CE08CE080203CE08CE08460366
:100048007B056D05CE08CE08CE08CE08CE08CE08B2
:100058009705CE088905CE083902CE08CE08CE0805
:10006800CE08CE08CE08CE08E304F104FF04CE087B
:10007800CE08CE08CE08CE084200CE08CE08CE085C
:10008800CE08CE08CE08CE08F002CE08CE08CE089C
:10009800B305A505CE08CE084200CE08CE08CE0886
:1000A800CE08CE08CE08CE080D051B052905CE08BA
:1000B800CE08CE08CE08CE08CE08CE08CE08CE0888
:1000C800CE08CE08CE08CE08CE08CE08CE08CE0878
:1000D800CE08CE08CE08CE08CE08CE08CE08CE0868
:1000E8004200CE08CE08CE08CE08CE08CE08CE08EC
:1000F800C708CE08CE081807CE08CE08CE08CE0806
:10010800FF0035EFD4F0E86B9E0E0501846F100EEA
:10011800856F84C5F9F085C5FAF00001FB6BF16BBA
:10012800810EF06F020EFD6FF86B010EF76FEF6B2B
:10013800010EEE6F190EFF6FFE6BB09AB098B09E6D
:10014800B09CA09AA088420E0501816F230E826F91
:10015800000E836FF6EC10F0A09EA08C420E816F0B
:10016800230E826F000E836FFDEC10F0C00E0001AD
:10017800FC6F12008EC5D9F48FC5DAF492C5DFF48E
:100188000A0E816F905126EC0DF0300F8E07D8A023
:100198008F078EC5D9F48FC5DAF4DF6E90C586F562
:1001A800876B896B0A0E886FA3ECFDF08651906F00
:1001B8009051D8B40BD09051300F8E07D8A08F072C
:1001C8008EC5D9F48FC5DAF4DF6E12008E07D8A079
:1001D8008F078EC5D9F48FC5DAF491C5DFF4120004
:1001E800926F0501F451D8A4120009D0400E03D033
:1001F800140E01D0540E936F10D0936B0ED0925101
:10020800000AD8B4FAD7010AD8B4F0D7030AD8B488
:10021800EFD7010AD8B4EED7F0D793518F2520EC49
:1002280002F0900E0501816F010E826F000E836F40
:10023800000E846FE6EC08F090C58CF591C58DF53D
:1002480027EC01F012008CC581F58DC582F575EC9F
:1002580005F081518E6F1CECFAF05EEC11F0C1963E
:10026800140E05018E6502D0140E8E6F94C881F5A8
:1002780095C882F58CC583F58DC584F58EC585F541
:10028800866B4FEC02F00001E86BFC9F8EC581F590
:100298000501826B24EC10F00501826B010E816F61
:1002A8002BEC10F0FC8F61EC11F0120085518611D7
:1002B80087118811D8B424D0010E896F06D0D89040
:1002C8008537863787378837892B88AFF8D78551A0
:1002D800815D865182598751835988518459D8A0A4
:1002E80008D08551815F8651825B8751835B885135
:1002F800845BD8908833873386338533892FE7D753
:1003080081C581F582C582F583C583F584C584F5E9
:100318001200D68A000ED6BE010E0501816FD69E48
:10032800550E0401596FAA0E596F59915F6B5E6B98
:10033800080E5D6F550E596FAA0E596F5981050148
:1003480081B102D0D69E01D0D68E0301688B688910
:10035800688D678567816489648D6C8B6C896C8D09
:10036800628F6B836B8166836681659F71976A99DB
:1003780067996599120081C587F582C588F517D0F8
:100388008507D8A0860783C5F6F484C5F7F4834BA0
:10039800842B000EF86E87C5D9F488C5DAF4874B2C
:1003A800882B0800F5C4DFF4DF50D8B40CD0855191
:1003B8008611D8B408D0E4D787C5D9F488C5DAF44B
:1003C800DF6A874B882B8507D8A086078529F4E143
:1003D8008629D8B41200F0D700C041459A994941FE
:1003E80000000000000096439A994941000000402F
:1003F8004F66666C696E650000000000454D353437
:10040800300000000000000000010300400005006B
:100418000000000000004800000103004000040044
:100428000000000000004700000116000000000066
:100438000000010000001700896F1CECFAF05EEC68
:1004480011F0C19694C8D9F495C8DAF4FE0EDF6E9F
:1004580020EE01F09451D9269551DA22450EDF6E2F
:1004680020EE02F09451D9269551DA2289C5DFF49D
:100478000001E86BFC9F0501826B030E816F24EC81
:1004880010F00501826B010E816F2BEC10F0FC8FD0
:1004980061EC11F0120083C589F584C58AF581C520
:1004A80087F582C588F51DD089C5F6F48AC5F7F4A5
:1004B800000EF86E3F0EF76403D00800F55005D023
:1004C800F6C4E1F4F7C4E2F4E75005018B6F894BF9
:1004D8008A2B87C5D9F488C5DAF48BC5DFF4874B36
:1004E800882B8507D8A086078529DEE18629D8B418
:1004F8001200DAD78DEC01F094EC0FF011ECFCF05F
:100508003AECF3F07DEC0FF099ECFEF087EC00F09C
:100518003EEC0FF089EC0FF02DEC07F0E6EC0CF058
:100528005EECFEF024EC04F020EC11F0FDEC03F09E
:100538004BEC04F066ECFAF03EECFBF0ADEC02F0AC
:100548004BEC0FF05CEC03F058EC08F0B0EC10F05A
:1005580012000201B86BB96BBA6BBB6BBC6BBD6B9D
:10056800B40EBE6F800EBF6FC06B820EC16F060ED9
:10057800C26FC36BC46BC56BC66B000E0501816F80
:10058800000E826F000E836F5CEC10F0000E816F1E
:10059800000E826F000E836F55EC10F0000E816F15
:1005A800000E826F000E836F63EC10F0526A120027
:1005B80074C678F675C679F6EB6B000EEA6F13D041
:1005C80072C652F673C653F6780E546F060E556F00
:1005D80076C656F677C657F643ECA9F0060152518F
:1005E800EA275351EB2378C6F6F479C6F7F4000EE0
:1005F800F86E0800F5500009D8A4E2D7EAC672F6EA
:10060800EBC673F61200000E896F000E8A6F000E9B
:100618008B6F000E8C6F81A108D085518927865178
:100628008A2387518B2388518C23D8908537863726
:1006380087378837D8908433833382338133815125
:10064800821183118411D8A4E6D789C581F58AC59A
:1006580082F58BC583F58CC584F512008D6F8DC529
:1006680084F5030E050184178451800DF3C485F5C4
:10067800F4C486F58151030B876F886B000E8703DE
:10068800F3C489F5F4C48AF58803F3508A27020E67
:100698008703F3508A27FA0E89258B6F1F0E8A214C
:1006A8008C6F85518B25816F86518C21826F12004A
:1006B8000F0E0301586F0F0E596F5751F30B0809AE
:1006C800576F566B556B100E546F210E536FF30E08
:1006D8005717566B556B54695369526B516B506B76
:1006E8004F6B3F0E5F6F5E695D695C6B5B6B5A6B4E
:1006F800616BBD94AD94B69EA69E800E576F800E1A
:10070800606F1200866B000E856F83518411D8B418
:100718001CD0010E876F04D0D89083378437872B7D
:1007280084AFFAD7D890853786378351815D845155
:100738008259D8A005D08351815F8451825B85811D
:10074800D89084338333872FEDD785C581F586C547
:1007580082F51200010E0A01AC6FC7C23EF59C512A
:100768000501E125D96E0A019D510501E221DA6EE4
:100778003EC5DFF4010E0A019C27000E9D239E232F
:100788009F239F519E119D1104E1FA0E9C5DD8A0F4
:100798001200000E9C6F000E9D6F000E9E6F000EE3
:1007A8009F6F12008CC581F58DC582F58EC583F5C6
:1007B8008FC584F581ECFFF081C590F582C591F570
:1007C8008E518C25D96E8F518D21DA6E91C5DFF44B
:1007D8008E4B8F2B8E518C25D96E8F518D21DA6ED1
:1007E80090C5DFF48E4B8F2B8EC58CF58FC58DF59C
:1007F80012000301376B386B010E396F630E356FCA
:10080800C00E346FB698345135C384F50501856B35
:1008180084C585F5846B84110601F86F050185513F
:100828000601F96FA688300E0501816F230E826FCD
:10083800000E836F94EC10F0310E0301366F120036
:1008480003012B6B2C6B010E2D6FF00E296F600EC0
:10085800286FB398285129C384F50501856B84C591
:1008680085F5846B841107017C6F050185510701AB
:100878007D6FA388340E0501816F230E826F000EF1
:10088800836F9BEC10F0330E03012A6F12001F6B6D
:10089800206B050E216F0B0E1D6FDC0E1C6FB198BF
:1008A8001C511DC384F50501856B84C585F5846BD2
:1008B800841107017A6F0501855107017B6FA188B3
:1008C800360E0501816F230E826F000E836FA2EC36
:0A08D80010F0310E03011E6F120034
:1008E400D8C479F5FAC47AF5FBC47BF5B3987CC710
:1008F40077F57DC778F5D7EC0EF00801C751C8111C
:10090400C911D8B40CD001D80AD00500FA6EC75169
:10091400FD6EC851FE6EC951FF6EFA5012007BC5C0
:10092400FBF47AC5FAF479C5D8F411009FFF7FFF70
:10093400A7FF8FFF97FF87FF000000000000000063
:1009440000000000000000000000000000000000A3
:100954000000000000001000000000000000000083
:100964000000000000000000000000000000000083
:07097400000000000000007C
:10097C00C20E05018C6FF80E8D6F040E8E6FD4ECC9
:10098C00FEF0876B0A0E866F8EEC0DF0C20E8C6F2C
:10099C00F80E8D6F040E8E6FD4ECFEF0876B0A0E82
:1009AC00866F8EEC0DF0000E0B017E6F000E7F6FCC
:1009BC00000E806F000E816F1200570E0501846FC0
:1009CC000001919F5E0E0501816F8B0E826F010EEF
:1009DC00836FB7EC10F08E0E816F1F0E826F000EBE
:1009EC00836FBEEC10F002D08DC084F5000194A78B
:1009FC00FBD784C502FA94979383918F000E2CEC4D
:100A0C0011F0120084BF09D081C581F582C582F531
:100A1C0083C583F584C584F5120081C585F582C52F
:100A2C0086F583C587F584C588F5851F861F871FC6
:100A3C00881F852B000E86238723882385C581F587
:100A4C0086C582F587C583F588C584F512007E0EB0
:100A5C00896F060E8A6F7AC67EF67BC67FF6816B2F
:100A6C00000E806F886B000E876F7E0E726F060E05
:100A7C00736F7CC674F67DC675F6890E766F060E9E
:100A8C00776FDCEC02F080517A25D96E81517B2195
:100A9C00DA6EDF6A120001EC10F00009D8B4120013
:100AAC00090196510501916F090197510501926F4A
:100ABC000901964B972B410E0501915D1F0E925922
:100ACC00D8A012008FC58CF590C58DF5080E8E6FD1
:100ADC009BEC0BF00901976B000E966F120081C511
:100AEC0083F582C584F503D00501814B822B81C52A
:100AFC00F6F482C5F7F4000EF86E3F0EF76403D0DF
:100B0C000800F55005D0F6C4E1F4F7C4E2F4E75060
:100B1C000009D8A4E9D705018351815D816F845107
:100B2C008259826F1200000E0501C81B000EC91BF2
:100B3C00000ECA1B800ECB1BC4C5B4F5C5C5B5F5DC
:100B4C00C6C5B6F5C7C5B7F5C8C5B8F5C9C5B9F5B5
:100B5C00CAC5BAF5CBC5BBF5B0ECD2F0B4C5C4F57B
:100B6C00B5C5C5F5B6C5C6F5B7C5C7F51200000EB7
:100B7C00D6BE010E846F380E0001456F82C544F05D
:100B8C0081C543F083C546F04151F80B0309416F11
:100B9C00D69E550E426FAA0E426F408140B1FED7D1
:100BAC00050184B102D0D69E01D0D68EF80E00017C
:100BBC0041171200D8C471F5FAC472F5FBC473F571
:100BCC00B698F8C66FF5F9C670F5C8EC0EF00601CC
:100BDC00F64BF72BF75104E1320EF65DD8A006D098
:100BEC00EAEC0DF00601F76B000EF66F73C5FBF423
:0A0BFC0072C5FAF471C5D8F41100B7
:100C0800D8C47EF5FAC47FF5FBC480F5B1987AC7DD
:100C18007CF57BC77DF5E6EC0EF00701784B792B68
:100C2800795104E1020E785DD8A006D00EEC0EF0E2
:100C38000701796B000E786F80C5FBF47FC5FAF465
:100C48007EC5D8F4110081C585F582C586F514D016
:100C5800010E0001826F85C5D9F486C5DAF4DF502C
:100C6800816FB1A0FED785C5D9F486C5DAF480C0F6
:100C7800DFF40501854B862B8307D8A084078329D9
:100C8800E7E18429D8B41200E3D797C581F598C560
:100C980082F5846B0A0E836F6AEC06F081C593F5C2
:100CA80082C594F57AEC0DF093C570F794C571F789
:100CB80097C581F598C582F5846B0A0E836F86EC1B
:100CC80003F081C574F782C575F71200835184114A
:100CD800D8B418D0010E856F04D0D89083378437E4
:100CE800852B84AFFAD78351815D84518259D8A06E
:100CF80004D08351815F8451825BD89084338333DD
:0E0D0800852FF1D781C581F582C582F51200D5
:100D1800D8C474F5FAC475F5FBC476F5B19E3CC524
:100D280019F33BC518F307017E4B7F2B7F5104E174
:100D3800040E7E5DD8A006D0FCEC0DF007017F6B99
:100D4800000E7E6F76C5FBF475C5FAF474C5D8F449
:100D580011000F0E0D015415396E3A6A030E391839
:100D68003A10D8A405D0010E0901A46F466A0DD027
:100D7800462A46040501816F030E816506D00901E4
:100D8800A46B0701D06B050ECF6F010E0701816FB1
:100D980012000501856F05018551D8B409D063C9D2
:100DA80081F564C982F565C983F566C984F51200C1
:100DB800ACC863F9ADC864F9AEC865F9AFC866F9DF
:100DC80063C981F564C982F565C983F566C984F587
:100DD80012000501856F05018551D8B409D067C98E
:100DE80081F568C982F569C983F56AC984F5120075
:100DF800B0C867F9B1C868F9B2C869F9B3C86AF97F
:100E080067C981F568C982F569C983F56AC984F536
:100E180012000501896F1CECFAF05EEC11F0C19626
:100E280094C8D9F495C8DAF489C5DFF40001E86BF1
:100E3800FC9F0501826B010E816F24EC10F0050107
:100E4800826B010E816F2BEC10F0FC8F61EC11F0BE
:100E580012004D0E1B6F1B0E196F1E0E186F1851C6
:100E680019C384F50501856B84C585F5846B8411E8
:100E78003B6E85513C6EB19EA18E320E816F230E62
:100E8800826F000E836FA9EC10F0900E03011A6FA9
:100E9800120092C5FEF80801FF6B05019151946F8D
:100EA800936B000E9315956FFF0E9415966F9551E1
:100EB8000801FE13050196510801FF13FD0E0501F7
:100EC8008C6F080E8D6F030E8E6F0EECFFF0120004
:100ED800C084CA0E0501816F0B0E826F030EE125D7
:100EE800836F000EE221846F866B100E856F4FECC6
:100EF80002F00B01D76BD8CB81F5D9CB82F59BECEF
:100F08000EF081C5D8FB82C5D9FBC094120005013B
:100F1800626B6251020D630EF324D96E0C0EF4203D
:100F2800DA6EDE50DE10D8B40BD06251020D630EBB
:100F3800F324D96E0C0EF420DA6EDE06000EDD5AAC
:100F4800622B0C0E6265E5D71200FC29FC27000015
:100F580000000011050080008000800011012000C1
:100F68000000000000000000000000008080420037
:100F78000000000D808042E5612140CD0C05430052
:050F88000300571942AF
:100F8E000D0152510501826F816B0D015451050106
:100F9E0081250701726F0D0155510501822107014F
:100FAE00736F0901A451D8B404D0090E0701816FE3
:100FBE0012000B0E0701816F1200C084FD0E050199
:100FCE00816F050E826F030EE125836F000EE22105
:100FDE00846F866B020E856F4FEC02F0FDC581F5B6
:100FEE00FEC582F59BEC0EF081C5FDF582C5FEF5C2
:100FFE00C09412000501FB51D8B4FCD7000EFC259D
:10100E00D96EDA6A140EDA22DF50FA6F000EFC2562
:10101E00D96EDA6A190EDA22DF50816FFC2BFC29A9
:10102E00D8B4FC6BA290FB07A2808151120092C52E
:10103E0081F593C582F594C583F595C584F596C55E
:10104E0085F597C586F54FEC02F092C58CF593C5E4
:10105E008DF596C58EF597C58FF5D6EC03F08CC53C
:10106E0092F58DC593F5120081C586F582C587F57B
:10107E0083C588F584C589F586C585F587C586F54A
:10108E0085C587F588C585F589C588F585C589F532
:10109E0086C581F587C582F588C583F589C584F532
:1010AE0012000001916B240E926F050E936F996BD7
:1010BE00966BC984A384A3804A0E0501816F230E0B
:1010CE00826F000E836FBEEC10F04C0E816F230EFC
:1010DE00826F000E836FB7EC10F01200696B6951CE
:1010EE00020D630EF324D96E0C0EF420DA6EDE5070
:1010FE00DE10D8B40BD06951020D630EF324D96EF5
:10110E000C0EF420DA6EDE06000EDD5A692B0C0E84
:10111E006965E5D71200C20E0501816F0F0E826F51
:10112E005F0E836FFE0E846F866B200E856FBFEC95
:10113E0001F0B70E816F0E0E826FBD0E836FFF0E24
:10114E00846F866B0C0E856FBFEC01F01200C20E21
:10115E000501816F0F0E826F1C0E836FFF0E846F61
:10116E00866B200E856FBFEC01F0B70E816F0E0EF1
:10117E00826FB60E836FFF0E846F866B0C0E856FBB
:10118E00BFEC01F01200C20E0501816F0F0E826FCF
:10119E00580E836FFF0E846F866B200E856FBFEC2B
:1011AE0001F0B70E816F0E0E826FD50E836FFF0E9C
:1011BE00846F866B0C0E856FBFEC01F01200000E73
:1011CE00856F000E866F000E876F000E886F000011
:1011DE000000010E05018527000E86238723882334
:1011EE008551815D86518259875183598851845921
:1011FE00D8A01200ECD7F651D8B4FDD7000EF725C3
:10120E00D96EDA6A150EDA22DF50F56F000EF72569
:10121E00D96EDA6A1A0EDA22DF50816FF72BF729B0
:10122E00D8B4F76BA790F607A7808151120005017D
:10123E00906B000E8F6F0BD08EC581F5826B8CC5B7
:10124E0083F58DC584F5FEECF7F08F4B902B8F5107
:10125E008A25D96E90518B21DA6EDF508E6F8E51AA
:10126E00D8B41200E9D7FAC407F5FBC408F5B09854
:10127E000801DC51DD11DE11D8B40CD001D80AD032
:10128E000500FA6EDC51FD6EDD51FE6EDE51FF6E15
:10129E00FA50120008C5FBF407C5FAF41100FAC49F
:1012AE0009F5FBC40AF5B09C0801D951DA11DB111E
:1012BE00D8B40CD001D80AD00500FA6ED951FD6E03
:1012CE00DA51FE6EDB51FF6EFA5012000AC5FBF4C6
:1012DE0009C5FAF41100FAC40BF5FBC40CF5AF9472
:1012EE000801D351D411D511D8B40CD001D80AD0DD
:1012FE000500FA6ED351FD6ED451FE6ED551FF6EC0
:10130E00FA5012000CC5FBF40BC5FAF41100FAC426
:10131E000DF5FBC40EF5AF960801CD51CE11CF11D0
:10132E00D8B40CD001D80AD00500FA6ECD51FD6E9E
:10133E00CE51FE6ECF51FF6EFA5012000EC5FBF469
:10134E000DC5FAF41100FAC40FF5FBC410F5B090F8
:10135E000801D051D111D211D8B40CD001D80AD075
:10136E000500FA6ED051FD6ED151FE6ED251FF6E58
:10137E00FA50120010C5FBF40FC5FAF41100FAC4AE
:10138E0025F5FBC426F5B4980801C151C211C3114D
:10139E00D8B40CD001D80AD00500FA6EC151FD6E3A
:1013AE00C251FE6EC351FF6EFA50120026C5FBF4F9
:1013BE0025C5FAF41100FAC427F5FBC428F5B49A32
:1013CE000801BE51BF11C011D8B40CD001D80AD03B
:1013DE000500FA6EBE51FD6EBF51FE6EC051FF6E1E
:1013EE00FA50120028C5FBF427C5FAF41100FAC40E
:1013FE0029F5FBC42AF5B49C0801BB51BC11BD11E3
:10140E00D8B40CD001D80AD00500FA6EBB51FD6ECF
:10141E00BC51FE6EBD51FF6EFA5012002AC5FBF490
:10142E0029C5FAF41100FAC42BF5FBC42CF5B898B3
:10143E000801B851B911BA11D8B40CD001D80AD0DC
:10144E000500FA6EB851FD6EB951FE6EBA51FF6EBF
:10145E00FA5012002CC5FBF42BC5FAF41100FAC495
:10146E002DF5FBC42EF5B89A090176517711781136
:10147E00D8B40CD001D80AD00500FA6E7651FD6EA4
:10148E007751FE6E7851FF6EFA5012002EC5FBF4A6
:10149E002DC5FAF41100FAC42FF5FBC430F5B89C33
:1014AE000901735174117511D8B40CD001D80AD03A
:1014BE000500FA6E7351FD6E7451FE6E7551FF6E1E
:1014CE00FA50120030C5FBF42FC5FAF411000701D3
:1014DE008251020DD70EF324D96E090EF420DA6E66
:1014EE0054CDDEF455CDDDF4822B0D01D051D8A4B0
:1014FE0004D00A0E0701816F1200D06B070E070190
:10150E00816F1200000EDF6F1C0EE06F030EDF25E1
:10151E00376E000EE021386E030EDF25356E000E9D
:10152E00E021366E8E0E816F180E826F000E836F65
:10153E009BEC10F05BEC11F01200816F0501F8517D
:10154E00D8B4FCD7A7B203D081C5C9F20FD0A792E9
:10155E00000EF925D96EDA6A100EDA2281C5DFF493
:10156E00F92B3F0EF96501D0F96BF807A78212002F
:10157E008B6F0901A851D8B41200A86BA16B000E95
:10158E00A06F05018B51D8B407D0530EB3EC0FF0FA
:10159E00020E0DEC07F01200530EB3EC0FF0080E16
:1015AE000DEC07F01200FAC403F5FBC404F50801B4
:1015BE00EB51EC11ED11D8B40CD001D80AD00500C6
:1015CE00FA6EEB51FD6EEC51FE6EED51FF6EFA5060
:0C15DE00120004C5FBF403C5FAF4110070
:1015EC00FAC405F5FBC406F50801EE51EF11F01134
:1015FC00D8B40CD001D80AD00500FA6EEE51FD6EAD
:10160C00EF51FE6EF051FF6EFA50120006C5FBF45E
:06161C0005C5FAF41100FF
:10162400FAC411F5FBC412F50801E851E911EA11F5
:10163400D8B40CD001D80AD00500FA6EE851FD6E7A
:10164400E951FE6EEA51FF6EFA50120012C5FBF426
:0616540011C5FAF41100BB
:10165C00FAC41FF5FBC420F50801E551E611E711AA
:10166C00D8B40CD001D80AD00500FA6EE551FD6E45
:10167C00E651FE6EE751FF6EFA50120020C5FBF4E6
:06168C001FC5FAF4110075
:10169400FAC421F5FBC422F50801F151F211F3114A
:1016A400D8B40CD001D80AD00500FA6EF151FD6E01
:1016B400F251FE6EF351FF6EFA50120022C5FBF494
:0616C40021C5FAF411003B
:1016CC00FAC423F5FBC424F50801F451F511F61105
:1016DC00D8B40CD001D80AD00500FA6EF451FD6EC6
:1016EC00F551FE6EF651FF6EFA50120024C5FBF454
:1016FC0023C5FAF41100000E09017F6F1E0E806FD6
:10170C00030E7F250A01EE6F000E090180210A01EC
:10171C00EF6F8E0E0501816F180E826F000E836FB6
:10172C009BEC10F05BEC11F012004150D8A41200AD
:10173C00800E816F0F0E826F8CC583F58DC584F57D
:10174C00D8908E35856F866B86374FEC02F0406AE9
:10175C008EC541F5010E0901A56F1200030E391853
:10176C003A10D8B408D00901A46B0701D06B050E50
:10177C00CF6F816B120009018751D8A404D00A0ED7
:10178C000701816F1200010E0701816F1200000E1C
:10179C00E16F1B0EE26F030EE1250601F46F000EE4
:1017AC000501E2210601F56F8E0E0501816F180E01
:1017BC00826F000E836F9BEC10F05BEC11F012004B
:1017CC0081C585F582C586F583C5F6F484C5F7F425
:1017DC00834B842B000EF86E85C5D9F486C5DAF4DC
:1017EC00854B862B0800F5C4DFF4DF50D8B412000B
:1017FC00EBD705018151821183118411D8B408D023
:10180C00000E811B000E821B000E831B800E841B9E
:10181C0081C581F582C582F583C583F584C584F5C0
:10182C0012001CECFAF0C280C282C18600018785CE
:10183C00849F030E846F859B859D858F85998593E9
:10184C008591030E866F8C6B070E896F848F87953D
:10185C0012001CECFAF0C280C282C186000187859E
:10186C00849F030E846F859B859D858F85998593B9
:10187C008591030E866F8C6B070E896F848F87950D
:10188C001200010EAC27000EAD23AE23AF23010EC8
:10189C00B027000EB123B223B3233D2AC70E3D64FB
:1018AC001200010EB427000EB523B623B7233D6AF0
:1018BC001200010000000100000001000000010006
:1018CC00000001000000000000000000000000000B
:1018DC0000000000000000000000000000000000FC
:1018EC00000E0601F26F1D0EF36F030EF225F06F62
:1018FC00000EF321F16F8E0E0501816F180E826FB1
:10190C00000E836F9BEC10F05BEC11F01200400E9C
:10191C000501F86111D0000E5124D96EDA6A100E4F
:10192C00DA22DF500201C96F512A3F0E516401D0F7
:10193C00516A0501F82B1200A7921200856F81C520
:10194C0083F582C584F5D89005018337843785519A
:10195C00020D630EF324D96E0C0EF420DA6E83C5DF
:10196C00DEF484C5DDF41200E8C58EF58E51D8B4D2
:10197C000FD08CC581F58DC582F55C0E836F100E72
:10198C00846FD8908E35856F866B86374FEC02F05E
:10199C00E86B120081C587F582C588F508D087C52C
:1019AC00D9F488C5DAF483C5DFF4874B882B850717
:1019BC00D8A086078529F3E18629D8B41200EFD781
:1019CC00010E3E6F3D6B3F6B7F0E3B6F3A6BBD96CE
:1019DC00AD86160E0501816F0F0E826F000E836FA0
:1019EC008DEC10F0C30E03013C6F12000D0152512F
:1019FC0005019A6F996B0D01545105019925976F4B
:101A0C000D01555105019A21986F49EC06F0050E10
:101A1C000701816F12000D01525105019A6F996BEC
:101A2C000D01545105019925976F0D015551050173
:101A3C009A21986F49EC06F0040E0701816F120091
:101A4C00826F080E0501836F846BD89082358435C4
:101A5C00846FD89082378151845DD8A002D0815197
:101A6C00845F832FF2D784511200D69E550EB46F2B
:101A7C00AA0EB46FB491D68E010EBF6F020EB66F64
:101A8C00070EBE6FD69E550EB46FAA0EB46FB481FE
:101A9C00D68E12000801E251E311E411D8B40CD037
:101AAC0001D80AD00500FA6EE251FD6EE351FE6ECC
:101ABC00E451FF6EFA50120004010F9D1200400E0B
:101ACC00546010D0000E5524D96EDA6A110EDA2249
:101ADC00DF500201A36F552A3F0E556401D0556AA1
:101AEC00542A1200A292120094BF05D093C593F50C
:101AFC0094C594F5120093C595F594C596F5951F6C
:101B0C00961F954B962B95C593F596C594F512009B
:101B1C0086C581F587C582F5000EA4EC0CF004D0C7
:101B2C000000000000000000000EA1EC0DF0000908
:101B3C00D8A41200F5D70501836F05018351020D5E
:101B4C00630EF324D96E0C0EF420DA6EDE50DE1028
:101B5C00D8A402D0010E1200000E120081C596FA14
:101B6C0082C597FA83C594FA84C595FA010E0A01C9
:101B7C00A027000EA123A223A323924B932B120088
:101B8C001CECFAF0C280C2820001849F240E856F87
:101B9C00020E866F020E8C6F040E896F830E846F9B
:101BAC00848F12000801DF51E011E111D8B412004A
:101BBC0001D812000500FA6EDF51FD6EE051FE6E89
:101BCC00E151FF6EFA5012000801D651D711D8110D
:101BDC00D8B4120001D812000500FA6ED651FD6E71
:101BEC00D751FE6ED851FF6EFA5012000801CA513F
:101BFC00CB11CC11D8B4120001D812000500FA6E2A
:101C0C00CA51FD6ECB51FE6ECC51FF6EFA501200D4
:101C1C000801C451C511C611D8B4120001D8120064
:101C2C000500FA6EC451FD6EC551FE6EC651FF6EB5
:101C3C00FA5012000501846F020EA1EC0DF00009A0
:101C4C00D8B412006B0058F7F1F52BEED6F184C521
:101C5C00DFF41200D8C46CF5FAC46DF5FBC46EF554
:101C6C00BD96D8EC0DF06EC5FBF46DC5FAF46CC5E1
:101C7C00D8F411000001919F918F94BF02D094A7CA
:101C8C001200010E09011027000E11231223132339
:101C9C00BF8212000501826F82C581F5030E05011A
:101CAC00811729EEFAF3DF508119FC0B8119DF6ED5
:101CBC001200C20E0501816F0F0E826F300E836F02
:101CCC00FF0E846F866B200E856FBFEC01F0120047
:101CDC00FA0E0501816F1F0E826F846B000E836FED
:101CEC00080E866F020E856FD0EC0CF01200A698D1
:101CFC00610006F686FD61000AF687FD61000EF6AE
:101D0C0088FD610012F689FDA6881200816F550EC0
:101D1C000001B46FAA0EB46FB49181C5B6F0550E24
:101D2C00B46FAA0EB46FB481120081C584F582C55C
:101D3C0085F584C583F585C584F583C585F584C58E
:101D4C0081F585C582F51200BCC5B8F5BDC5B9F5E0
:101D5C00E20EBA6F0F0EBB6FE3ECFDF0B8C5BCF52D
:101D6C00B9C5BDF51200EB510501846F836B0301FE
:101D7C00EA5105018325816F0301000E05018421C1
:101D8C00826F1200030136A507D0369170C535F36A
:101D9C006FC534F33681120070C535F36FC534F35B
:101DAC00120003012AA507D02A9178C529F377C51B
:101DBC0028F32A81120078C529F377C528F312007D
:101DCC0003011EA507D01E917DC51DF37CC51CF318
:101DDC001E8112007DC51DF37CC51CF31200000E84
:101DEC005324D96EDA6A190EDA22A1C2DFF4532A0F
:101DFC005328D8B4536A0501FB2B1200000E502453
:101E0C00D96EDA6A1A0EDA22C7C2DFF4502A5028C9
:101E1C00D8B4506A0501F62B120010000000000027
:101E2C0000000000000000000000000000000000A6
:101E3C000000000000000010000000000000000086
:101E4C000000000000000000000000000000000086
:101E5C0000000000FF0E8125836FFF0E8221846F2E
:101E6C0083C5DAFB84C5DBFB0B01DC6BDD6B12007D
:101E7C00020E0301326F200E316F336BC70E2F6FC2
:101E8C002E6BB9969F0E306F1200830E0001846F7B
:101E9C00240E856F030E866F020E8C6F040E896FF5
:101EAC00C8961200FAC401F5FBC402F504010FBD7B
:101EBC0050EC0DF002C5FBF401C5FAF41100380E1C
:101ECC000001456F82C544F081C543F0F80E4117FF
:101EDC00408146511200030157B1120084C552F3E0
:101EEC0083C551F382C550F381C54FF31200200E08
:101EFC000001AD6FAF6B010EB36F080EB16FB06B1D
:101F0C00B2B11200FDD7010E266F256B276B630E45
:101F1C00236F226BB1968F0E246F12000001606B41
:101F2C00616B626B636B646B656B666B676B686B29
:101F3C001200000E0801AC6F000EAD6F000EAE6FFC
:101F4C00000EAF6F1200000E0801B46F000EB56FDB
:101F5C00000EB66F000EB76F120005018A6FFE0EF1
:101F6C000DEC07F005018A510DEC07F01200425000
:101F7C00D8B404D0010E0501ED6FBF82CFC44FF56C
:101F8C001200010E09014C27000E4D234E234F2346
:101F9C000001976B1200000EB06F000EB16F000EB7
:101FAC00B26F000EB36F12000501E851D8A402D035
:101FBC00000E1200010E12000501F651D8B402D029
:101FCC00010E1200000E12000501816F81C5ECF3A9
:101FDC000301F38FF38112006F6B6C6B6E6B6D6B87
:101FEC00706B716B726B1200030157AB02D0010E58
:101FFC001200000E12004150D8A402D0010E1200A3
:10200C00000E120029EEFAF3DF50030B56ECE6F04B
:10201C00120020EE07F03051D9263151DA2212008D
:10202C00FB51D8B402D0010E1200000E12000501B3
:10203C008B6F05018B51B3EC0FF012000001E86BB4
:10204C0081C5F7F082C5F8F012000001E86B81C57C
:10205C00EEF082C5EFF0120081C5F1F882C5F2F8FE
:10206C0083C5F3F8120081C5F4F882C5F5F883C571
:10207C00F6F8120081C5E0FA82C5E1FA83C5E2FAEE
:10208C00120081C5E3FA82C5E4FA83C5E5FA1200B1
:10209C0081C5DDFA82C5DEFA83C5DFFA120081C57F
:1020AC00A1FB82C5A2FB83C5A3FB120081C5E6FA86
:1020BC0082C5E7FA83C5E8FA120081C59EFB82C58A
:1020CC009FFB83C5A0FB120081C5EBF882C5ECF821
:1020DC0083C5EDF8120081C5EEF882C5EFF883C513
:1020EC00F0F8120081C579F982C57AF983C57BF9BC
:1020FC00120081C57CF982C57DF983C57EF9120079
:10210C0081C5E9FA82C5EAFA83C5EBFA120081C5EA
:10211C00DFF882C5E0F883C5E1F8120081C5D6F876
:10212C0082C5D7F883C5D8F8120081C5C7F882C517
:10213C00C8F883C5C9F8120081C5C4F882C5C5F8B2
:10214C0083C5C6F8120081C5CAF882C5CBF883C511
:10215C00CCF81200550E0001B46FAA0EB46FB48106
:10216C00120081C5E5F882C5E6F883C5E7F81200D0
:10217C0081C5E8F882C5E9F883C5EAF8120081C583
:10218C00E2F882C5E3F883C5E4F8120081C5B8F81B
:10219C0082C5B9F883C5BAF8120081C573F982C536
:1021AC0074F983C575F9120081C576F982C577F982
:1021BC0083C578F9120081C5C1F882C5C2F883C500
:1021CC00C3F8120081C5BBF882C5BCF883C5BDF845
:1021DC00120081C5BEF882C5BFF883C5C0F81200D5
:1021EC0081C5DCF882C5DDF883C5DEF8120081C537
:1021FC00D9F882C5DAF883C5DBF8120081C5D0F8AE
:10220C0082C5D1F883C5D2F8120081C5CDF882C53C
:10221C00CEF883C5CFF8120081C5D3F882C5D4F8A7
:10222C0083C5D5F812000301F3B102D0010E1200E0
:10223C00000E1200940E00017F6F400E7D6F120095
:10224C00606FB6A2FED760C5B6F212000501816FB1
:10225C0081C5FBF312000001E86BFC9DFC9B120096
:10226C003CC519F33BC518F31200EE07E6070757F8
:03227C0019040141
:102280000A0E0701816F1200080E0701816F12000C
:10229000030E0701816F1200E8C581F5815112001C
:1022A0003B0E0301EC6F1200010E0901876F120053
:1022B0000701816B120003012A8112000801908737
:1022C000120064EC11F01200E86BFC8D120086EC39
:1022D00011F0120003013681120088EC11F0120097
:1022E00073EC11F012000301248F120003011E8110
:1022F000120003011A8F1200F5EC0EF0120004EC2C
:102300000FF01200578D1200000E12003C8F1200C9
:10231000308F1200C19E120090971200BD901100E4
:10232000BF821200BF821200BF8212001200120090
:10233000120012001200120011001200120012000E
:1023400012001200120012001200120012001200FD
:0623500012001200120051
:10CCA0000000C0C101C30302C2C60607C705C5C450
:10CCB00004CC0C0DCD0FCFCE0E0ACACB0BC9090880
:10CCC000C8D81819D91BDBDA1A1EDEDF1FDD1D1CC0
:10CCD000DC14D4D515D71716D6D21213D311D1D050
:10CCE00010F03031F133F3F23236F6F737F53534F0
:10CCF000F43CFCFD3DFF3F3EFEFA3A3BFB39F9F8C0
:10CD00003828E8E929EB2B2AEAEE2E2FEF2DEDEC5F
:10CD10002CE42425E527E7E62622E2E323E121208F
:10CD2000E0A06061A163A3A26266A6A767A565648F
:10CD3000A46CACAD6DAF6F6EAEAA6A6BAB69A9A8FF
:10CD40006878B8B979BB7B7ABABE7E7FBF7DBDBC3F
:10CD50007CB47475B577B7B67672B2B373B17170CF
:10CD6000B05090915193535292965657975595942F
:10CD7000549C5C5D9D5F9F9E5E5A9A9B5B9959583F
:10CD800098884849894B8B8A4A4E8E8F4F8D4D4CDF
:10CD90008C4484854587474686824243834181800F
:10CDA0004000C1814001C0804101C0804100C1817B
:10CDB0004001C0804100C1814000C1814001C0806C
:10CDC0004101C0804100C1814000C1814001C0805B
:10CDD0004100C1814001C0804101C0804100C1814A
:10CDE0004001C0804100C1814000C1814001C0803C
:10CDF0004100C1814001C0804101C0804100C1812A
:10CE00004000C1814001C0804101C0804100C1811A
:10CE10004001C0804100C1814000C1814001C0800B
:10CE20004101C0804100C1814000C1814001C080FA
:10CE30004100C1814001C0804101C0804100C181E9
:10CE40004000C1814001C0804101C0804100C181DA
:10CE50004001C0804100C1814000C1814001C080CB
:10CE60004100C1814001C0804101C0804100C181B9
:10CE70004001C0804100C1814000C1814001C080AB
:10CE80004101C0804100C1814000C1814001C0809A
:10CE90004100C1814001C0804101C0804100C18189
:10CEA0004000C0C101C30302C2C60607C705C5C40E
:10CEB00004CC0C0DCD0FCFCE0E0ACACB0BC909087E
:10CEC000C8D81819D91BDBDA1A1EDEDF1FDD1D1CBE
:10CED000DC14D4D515D71716D6D21213D311D1D04E
:10CEE00010F03031F133F3F23236F6F737F53534EE
:10CEF000F43CFCFD3DFF3F3EFEFA3A3BFB39F9F8BE
:10CF00003828E8E929EB2B2AEAEE2E2FEF2DEDEC5D
:10CF10002CE42425E527E7E62622E2E323E121208D
:10CF2000E0A06061A163A3A26266A6A767A565648D
:10CF3000A46CACAD6DAF6F6EAEAA6A6BAB69A9A8FD
:10CF40006878B8B979BB7B7ABABE7E7FBF7DBDBC3D
:10CF50007CB47475B577B7B67672B2B373B17170CD
:10CF6000B05090915193535292965657975595942D
:10CF7000549C5C5D9D5F9F9E5E5A9A9B5B9959583D
:10CF800098884849894B8B8A4A4E8E8F4F8D4D4CDD
:10CF90008C4484854587474686824243834181800D
:10CFA0004000C1814001C0804101C0804100C18179
:10CFB0004001C0804100C1814000C1814001C0806A
:10CFC0004101C0804100C1814000C1814001C08059
:10CFD0004100C1814001C0804101C0804100C18148
:10CFE0004001C0804100C1814000C1814001C0803A
:10CFF0004100C1814001C0804101C0804100C18128
:10D000004000C1814001C0804101C0804100C18118
:10D010004001C0804100C1814000C1814001C08009
:10D020004101C0804100C1814000C1814001C080F8
:10D030004100C1814001C0804101C0804100C181E7
:10D040004000C1814001C0804101C0804100C181D8
:10D050004001C0804100C1814000C1814001C080C9
:10D060004100C1814001C0804101C0804100C181B7
:10D070004001C0804100C1814000C1814001C080A9
:10D080004101C0804100C1814000C1814001C08098
:10D090004100C1814001C0804101C0804100C18187
:10D0A0004000C0C101C30302C2C60607C705C5C40C
:10D0B00004CC0C0DCD0FCFCE0E0ACACB0BC909087C
:10D0C000C8D81819D91BDBDA1A1EDEDF1FDD1D1CBC
:10D0D000DC14D4D515D71716D6D21213D311D1D04C
:10D0E00010F03031F133F3F23236F6F737F53534EC
:10D0F000F43CFCFD3DFF3F3EFEFA3A3BFB39F9F8BC
:10D100003828E8E929EB2B2AEAEE2E2FEF2DEDEC5B
:10D110002CE42425E527E7E62622E2E323E121208B
:10D12000E0A06061A163A3A26266A6A767A565648B
:10D13000A46CACAD6DAF6F6EAEAA6A6BAB69A9A8FB
:10D140006878B8B979BB7B7ABABE7E7FBF7DBDBC3B
:10D150007CB47475B577B7B67672B2B373B17170CB
:10D16000B05090915193535292965657975595942B
:10D17000549C5C5D9D5F9F9E5E5A9A9B5B9959583B
:10D1800098884849894B8B8A4A4E8E8F4F8D4D4CDB
:10D190008C4484854587474686824243834181800B
:10D1A0004000C1814001C0804101C0804100C18177
:10D1B0004001C0804100C1814000C1814001C08068
:10D1C0004101C0804100C1814000C1814001C08057
:10D1D0004100C1814001C0804101C0804100C18146
:10D1E0004001C0804100C1814000C1814001C08038
:10D1F0004100C1814001C0804101C0804100C18126
:10D200004000C1814001C0804101C0804100C18116
:10D210004001C0804100C1814000C1814001C08007
:10D220004101C0804100C1814000C1814001C080F6
:10D230004100C1814001C0804101C0804100C181E5
:10D240004000C1814001C0804101C0804100C181D6
:10D250004001C0804100C1814000C1814001C080C7
:10D260004100C1814001C0804101C0804100C181B5
:10D270004001C0804100C1814000C1814001C080A7
:10D280004101C0804100C1814000C1814001C08096
:10D290004100C1814001C0804101C0804100C18185
:10D2A0004000C0C101C30302C2C60607C705C5C40A
:10D2B00004CC0C0DCD0FCFCE0E0ACACB0BC909087A
:10D2C000C8D81819D91BDBDA1A1EDEDF1FDD1D1CBA
:10D2D000DC14D4D515D71716D6D21213D311D1D04A
:10D2E00010F03031F133F3F23236F6F737F53534EA
:10D2F000F43CFCFD3DFF3F3EFEFA3A3BFB39F9F8BA
:10D300003828E8E929EB2B2AEAEE2E2FEF2DEDEC59
:10D310002CE42425E527E7E62622E2E323E1212089
:10D32000E0A06061A163A3A26266A6A767A5656489
:10D33000A46CACAD6DAF6F6EAEAA6A6BAB69A9A8F9
:10D340006878B8B979BB7B7ABABE7E7FBF7DBDBC39
:10D350007CB47475B577B7B67672B2B373B17170C9
:10D36000B050909151935352929656579755959429
:10D37000549C5C5D9D5F9F9E5E5A9A9B5B99595839
:10D3800098884849894B8B8A4A4E8E8F4F8D4D4CD9
:10D390008C44848545874746868242438341818009
:10D3A0004000C1814001C0804101C0804100C18175
:10D3B0004001C0804100C1814000C1814001C08066
:10D3C0004101C0804100C1814000C1814001C08055
:10D3D0004100C1814001C0804101C0804100C18144
:10D3E0004001C0804100C1814000C1814001C08036
:10D3F0004100C1814001C0804101C0804100C18124
:10D400004000C1814001C0804101C0804100C18114
:10D410004001C0804100C1814000C1814001C08005
:10D420004101C0804100C1814000C1814001C080F4
:10D430004100C1814001C0804101C0804100C181E3
:10D440004000C1814001C0804101C0804100C181D4
:10D450004001C0804100C1814000C1814001C080C5
:10D460004100C1814001C0804101C0804100C181B3
:10D470004001C0804100C1814000C1814001C080A5
:10D480004101C0804100C1814000C1814001C08094
:10D490004100C1814001C0804101C0804100C18183
:10D4A0004000C0C101C30302C2C60607C705C5C408
:10D4B00004CC0C0DCD0FCFCE0E0ACACB0BC9090878
:10D4C000C8D81819D91BDBDA1A1EDEDF1FDD1D1CB8
:10D4D000DC14D4D515D71716D6D21213D311D1D048
:10D4E00010F03031F133F3F23236F6F737F53534E8
:10D4F000F43CFCFD3DFF3F3EFEFA3A3BFB39F9F8B8
:10D500003828E8E929EB2B2AEAEE2E2FEF2DEDEC57
:10D510002CE42425E527E7E62622E2E323E1212087
:10D52000E0A06061A163A3A26266A6A767A5656487
:10D53000A46CACAD6DAF6F6EAEAA6A6BAB69A9A8F7
:10D540006878B8B979BB7B7ABABE7E7FBF7DBDBC37
:10D550007CB47475B577B7B67672B2B373B17170C7
:10D56000B050909151935352929656579755959427
:10D57000549C5C5D9D5F9F9E5E5A9A9B5B99595837
:10D5800098884849894B8B8A4A4E8E8F4F8D4D4CD7
:10D590008C44848545874746868242438341818007
:10D5A0004000C1814001C0804101C0804100C18173
:10D5B0004001C0804100C1814000C1814001C08064
:10D5C0004101C0804100C1814000C1814001C08053
:10D5D0004100C1814001C0804101C0804100C18142
:10D5E0004001C0804100C1814000C1814001C08034
:10D5F0004100C1814001C0804101C0804100C18122
:10D600004000C1814001C0804101C0804100C18112
:10D610004001C0804100C1814000C1814001C08003
:10D620004101C0804100C1814000C1814001C080F2
:10D630004100C1814001C0804101C0804100C181E1
:10D640004000C1814001C0804101C0804100C181D2
:10D650004001C0804100C1814000C1814001C080C3
:10D660004100C1814001C0804101C0804100C181B1
:10D670004001C0804100C1814000C1814001C080A3
:10D680004101C0804100C1814000C1814001C08092
:10D690004100C1814001C0804101C0804100C18181
:10D6A0004000C0C101C30302C2C60607C705C5C406
:10D6B00004CC0C0DCD0FCFCE0E0ACACB0BC9090876
:10D6C000C8D81819D91BDBDA1A1EDEDF1FDD1D1CB6
:10D6D000DC14D4D515D71716D6D21213D311D1D046
:10D6E00010F03031F133F3F23236F6F737F53534E6
:10D6F000F43CFCFD3DFF3F3EFEFA3A3BFB39F9F8B6
:10D700003828E8E929EB2B2AEAEE2E2FEF2DEDEC55
:10D710002CE42425E527E7E62622E2E323E1212085
:10D72000E0A06061A163A3A26266A6A767A5656485
:10D73000A46CACAD6DAF6F6EAEAA6A6BAB69A9A8F5
:10D740006878B8B979BB7B7ABABE7E7FBF7DBDBC35
:10D750007CB47475B577B7B67672B2B373B17170C5
:10D76000B050909151935352929656579755959425
:10D77000549C5C5D9D5F9F9E5E5A9A9B5B99595835
:10D7800098884849894B8B8A4A4E8E8F4F8D4D4CD5
:10D790008C44848545874746868242438341818005
:10D7A0004000C1814001C0804101C0804100C18171
:10D7B0004001C0804100C1814000C1814001C08062
:10D7C0004101C0804100C1814000C1814001C08051
:10D7D0004100C1814001C0804101C0804100C18140
:10D7E0004001C0804100C1814000C1814001C08032
:10D7F0004100C1814001C0804101C0804100C18120
:10D800004000C1814001C0804101C0804100C18110
:10D810004001C0804100C1814000C1814001C08001
:10D820004101C0804100C1814000C1814001C080F0
:10D830004100C1814001C0804101C0804100C181DF
:10D840004000C1814001C0804101C0804100C181D0
:10D850004001C0804100C1814000C1814001C080C1
:10D860004100C1814001C0804101C0804100C181AF
:10D870004001C0804100C1814000C1814001C080A1
:10D880004101C0804100C1814000C1814001C08090
:10D890004100C1814001C0804101C0804100C1817F
:10D8A0004000C0C101C30302C2C60607C705C5C404
:10D8B00004CC0C0DCD0FCFCE0E0ACACB0BC9090874
:10D8C000C8D81819D91BDBDA1A1EDEDF1FDD1D1CB4
:10D8D000DC14D4D515D71716D6D21213D311D1D044
:10D8E00010F03031F133F3F23236F6F737F53534E4
:10D8F000F43CFCFD3DFF3F3EFEFA3A3BFB39F9F8B4
:10D900003828E8E929EB2B2AEAEE2E2FEF2DEDEC53
:10D910002CE42425E527E7E62622E2E323E1212083
:10D92000E0A06061A163A3A26266A6A767A5656483
:10D93000A46CACAD6DAF6F6EAEAA6A6BAB69A9A8F3
:10D940006878B8B979BB7B7ABABE7E7FBF7DBDBC33
:10D950007CB47475B577B7B67672B2B373B17170C3
:10D96000B050909151935352929656579755959423
:10D97000549C5C5D9D5F9F9E5E5A9A9B5B99595833
:10D9800098884849894B8B8A4A4E8E8F4F8D4D4CD3
:10D990008C44848545874746868242438341818003
:10D9A0004000C1814001C0804101C0804100C1816F
:10D9B0004001C0804100C1814000C1814001C08060
:10D9C0004101C0804100C1814000C1814001C0804F
:10D9D0004100C1814001C0804101C0804100C1813E
:10D9E0004001C0804100C1814000C1814001C08030
:10D9F0004100C1814001C0804101C0804100C1811E
:10DA00004000C1814001C0804101C0804100C1810E
:10DA10004001C0804100C1814000C1814001C080FF
:10DA20004101C0804100C1814000C1814001C080EE
:10DA30004100C1814001C0804101C0804100C181DD
:10DA40004000C1814001C0804101C0804100C181CE
:10DA50004001C0804100C1814000C1814001C080BF
:10DA60004100C1814001C0804101C0804100C181AD
:10DA70004001C0804100C1814000C1814001C0809F
:10DA80004101C0804100C1814000C1814001C0808E
:10DA90004100C1814001C0804101C0804100C1817D
:10DAA0004000C0C101C30302C2C60607C705C5C402
:10DAB00004CC0C0DCD0FCFCE0E0ACACB0BC9090872
:10DAC000C8D81819D91BDBDA1A1EDEDF1FDD1D1CB2
:10DAD000DC14D4D515D71716D6D21213D311D1D042
:10DAE00010F03031F133F3F23236F6F737F53534E2
:10DAF000F43CFCFD3DFF3F3EFEFA3A3BFB39F9F8B2
:10DB00003828E8E929EB2B2AEAEE2E2FEF2DEDEC51
:10DB10002CE42425E527E7E62622E2E323E1212081
:10DB2000E0A06061A163A3A26266A6A767A5656481
:10DB3000A46CACAD6DAF6F6EAEAA6A6BAB69A9A8F1
:10DB40006878B8B979BB7B7ABABE7E7FBF7DBDBC31
:10DB50007CB47475B577B7B67672B2B373B17170C1
:10DB6000B050909151935352929656579755959421
:10DB7000549C5C5D9D5F9F9E5E5A9A9B5B99595831
:10DB800098884849894B8B8A4A4E8E8F4F8D4D4CD1
:10DB90008C44848545874746868242438341818001
:10DBA0004000C1814001C0804101C0804100C1816D
:10DBB0004001C0804100C1814000C1814001C0805E
:10DBC0004101C0804100C1814000C1814001C0804D
:10DBD0004100C1814001C0804101C0804100C1813C
:10DBE0004001C0804100C1814000C1814001C0802E
:10DBF0004100C1814001C0804101C0804100C1811C
:10DC00004000C1814001C0804101C0804100C1810C
:10DC10004001C0804100C1814000C1814001C080FD
:10DC20004101C0804100C1814000C1814001C080EC
:10DC30004100C1814001C0804101C0804100C181DB
:10DC40004000C1814001C0804101C0804100C181CC
:10DC50004001C0804100C1814000C1814001C080BD
:10DC60004100C1814001C0804101C0804100C181AB
:10DC70004001C0804100C1814000C1814001C0809D
:10DC80004101C0804100C1814000C1814001C0808C
:10DC90004100C1814001C0804101C0804100C1817B
:10DCA0004000C0C101C30302C2C60607C705C5C400
:10DCB00004CC0C0DCD0FCFCE0E0ACACB0BC9090870
:10DCC000C8D81819D91BDBDA1A1EDEDF1FDD1D1CB0
:10DCD000DC14D4D515D71716D6D21213D311D1D040
:10DCE00010F03031F133F3F23236F6F737F53534E0
:10DCF000F43CFCFD3DFF3F3EFEFA3A3BFB39F9F8B0
:10DD00003828E8E929EB2B2AEAEE2E2FEF2DEDEC4F
:10DD10002CE42425E527E7E62622E2E323E121207F
:10DD2000E0A06061A163A3A26266A6A767A565647F
:10DD3000A46CACAD6DAF6F6EAEAA6A6BAB69A9A8EF
:10DD40006878B8B979BB7B7ABABE7E7FBF7DBDBC2F
:10DD50007CB47475B577B7B67672B2B373B17170BF
:10DD6000B05090915193535292965657975595941F
:10DD7000549C5C5D9D5F9F9E5E5A9A9B5B9959582F
:10DD800098884849894B8B8A4A4E8E8F4F8D4D4CCF
:10DD90008C448485458747468682424383418180FF
:10DDA0004000C1814001C0804101C0804100C1816B
:10DDB0004001C0804100C1814000C1814001C0805C
:10DDC0004101C0804100C1814000C1814001C0804B
:10DDD0004100C1814001C0804101C0804100C1813A
:10DDE0004001C0804100C1814000C1814001C0802C
:10DDF0004100C1814001C0804101C0804100C1811A
:10DE00004000C1814001C0804101C0804100C1810A
:10DE10004001C0804100C1814000C1814001C080FB
:10DE20004101C0804100C1814000C1814001C080EA
:10DE30004100C1814001C0804101C0804100C181D9
:10DE40004000C1814001C0804101C0804100C181CA
:10DE50004001C0804100C1814000C1814001C080BB
:10DE60004100C1814001C0804101C0804100C181A9
:10DE70004001C0804100C1814000C1814001C0809B
:10DE80004101C0804100C1814000C1814001C0808A
:10DE90004100C1814001C0804101C0804100C18179
:10DEA0004000C0C101C30302C2C60607C705C5C4FE
:10DEB00004CC0C0DCD0FCFCE0E0ACACB0BC909086E
:10DEC000C8D81819D91BDBDA1A1EDEDF1FDD1D1CAE
:10DED000DC14D4D515D71716D6D21213D311D1D03E
:10DEE00010F03031F133F3F23236F6F737F53534DE
:10DEF000F43CFCFD3DFF3F3EFEFA3A3BFB39F9F8AE
:10DF00003828E8E929EB2B2AEAEE2E2FEF2DEDEC4D
:10DF10002CE42425E527E7E62622E2E323E121207D
:10DF2000E0A06061A163A3A26266A6A767A565647D
:10DF3000A46CACAD6DAF6F6EAEAA6A6BAB69A9A8ED
:10DF40006878B8B979BB7B7ABABE7E7FBF7DBDBC2D
:10DF50007CB47475B577B7B67672B2B373B17170BD
:10DF6000B05090915193535292965657975595941D
:10DF7000549C5C5D9D5F9F9E5E5A9A9B5B9959582D
:10DF800098884849894B8B8A4A4E8E8F4F8D4D4CCD
:10DF90008C448485458747468682424383418180FD
:10DFA0004000C1814001C0804101C0804100C18169
:10DFB0004001C0804100C1814000C1814001C0805A
:10DFC0004101C0804100C1814000C1814001C08049
:10DFD0004100C1814001C0804101C0804100C18138
:10DFE0004001C0804100C1814000C1814001C0802A
:10DFF0004100C1814001C0804101C0804100C18118
:10E000004000C1814001C0804101C0804100C18108
:10E010004001C0804100C1814000C1814001C080F9
:10E020004101C0804100C1814000C1814001C080E8
:10E030004100C1814001C0804101C0804100C181D7
:10E040004000C1814001C0804101C0804100C181C8
:10E050004001C0804100C1814000C1814001C080B9
:10E060004100C1814001C0804101C0804100C181A7
:10E070004001C0804100C1814000C1814001C08099
:10E080004101C0804100C1814000C1814001C08088
:10E090004100C1814001C0804101C0804100C18177
:10E0A0004000C0C101C30302C2C60607C705C5C4FC
:10E0B00004CC0C0DCD0FCFCE0E0ACACB0BC909086C
:10E0C000C8D81819D91BDBDA1A1EDEDF1FDD1D1CAC
:10E0D000DC14D4D515D71716D6D21213D311D1D03C
:10E0E00010F03031F133F3F23236F6F737F53534DC
:10E0F000F43CFCFD3DFF3F3EFEFA3A3BFB39F9F8AC
:10E100003828E8E929EB2B2AEAEE2E2FEF2DEDEC4B
:10E110002CE42425E527E7E62622E2E323E121207B
:10E12000E0A06061A163A3A26266A6A767A565647B
:10E13000A46CACAD6DAF6F6EAEAA6A6BAB69A9A8EB
:10E140006878B8B979BB7B7ABABE7E7FBF7DBDBC2B
:10E150007CB47475B577B7B67672B2B373B17170BB
:10E16000B05090915193535292965657975595941B
:10E17000549C5C5D9D5F9F9E5E5A9A9B5B9959582B
:10E1800098884849894B8B8A4A4E8E8F4F8D4D4CCB
:10E190008C448485458747468682424383418180FB
:10E1A0004000C1814001C0804101C0804100C18167
:10E1B0004001C0804100C1814000C1814001C08058
:10E1C0004101C0804100C1814000C1814001C08047
:10E1D0004100C1814001C0804101C0804100C18136
:10E1E0004001C0804100C1814000C1814001C08028
:10E1F0004100C1814001C0804101C0804100C18116
:10E200004000C1814001C0804101C0804100C18106
:10E210004001C0804100C1814000C1814001C080F7
:10E220004101C0804100C1814000C1814001C080E6
:10E230004100C1814001C0804101C0804100C181D5
:10E240004000C1814001C0804101C0804100C181C6
:10E250004001C0804100C1814000C1814001C080B7
:10E260004100C1814001C0804101C0804100C181A5
:10E270004001C0804100C1814000C1814001C08097
:10E280004101C0804100C1814000C1814001C08086
:10E290004100C1814001C0804101C0804100C18175
:10E2A0004000C0C101C30302C2C60607C705C5C4FA
:10E2B00004CC0C0DCD0FCFCE0E0ACACB0BC909086A
:10E2C000C8D81819D91BDBDA1A1EDEDF1FDD1D1CAA
:10E2D000DC14D4D515D71716D6D21213D311D1D03A
:10E2E00010F03031F133F3F23236F6F737F53534DA
:10E2F000F43CFCFD3DFF3F3EFEFA3A3BFB39F9F8AA
:10E300003828E8E929EB2B2AEAEE2E2FEF2DEDEC49
:10E310002CE42425E527E7E62622E2E323E1212079
:10E32000E0A06061A163A3A26266A6A767A5656479
:10E33000A46CACAD6DAF6F6EAEAA6A6BAB69A9A8E9
:10E340006878B8B979BB7B7ABABE7E7FBF7DBDBC29
:10E350007CB47475B577B7B67672B2B373B17170B9
:10E36000B050909151935352929656579755959419
:10E37000549C5C5D9D5F9F9E5E5A9A9B5B99595829
:10E3800098884849894B8B8A4A4E8E8F4F8D4D4CC9
:10E390008C448485458747468682424383418180F9
:10E3A0004000C1814001C0804101C0804100C18165
:10E3B0004001C0804100C1814000C1814001C08056
:10E3C0004101C0804100C1814000C1814001C08045
:10E3D0004100C1814001C0804101C0804100C18134
:10E3E0004001C0804100C1814000C1814001C08026
:10E3F0004100C1814001C0804101C0804100C18114
:10E400004000C1814001C0804101C0804100C18104
:10E410004001C0804100C1814000C1814001C080F5
:10E420004101C0804100C1814000C1814001C080E4
:10E430004100C1814001C0804101C0804100C181D3
:10E440004000C1814001C0804101C0804100C181C4
:10E450004001C0804100C1814000C1814001C080B5
:10E460004100C1814001C0804101C0804100C181A3
:10E470004001C0804100C1814000C1814001C08095
:10E480004101C0804100C1814000C1814001C08084
:10E490004100C1814001C0804101C0804100C18173
:10E4A0004000C0C101C30302C2C60607C705C5C4F8
:10E4B00004CC0C0DCD0FCFCE0E0ACACB0BC9090868
:10E4C000C8D81819D91BDBDA1A1EDEDF1FDD1D1CA8
:10E4D000DC14D4D515D71716D6D21213D311D1D038
:10E4E00010F03031F133F3F23236F6F737F53534D8
:10E4F000F43CFCFD3DFF3F3EFEFA3A3BFB39F9F8A8
:10E500003828E8E929EB2B2AEAEE2E2FEF2DEDEC47
:10E510002CE42425E527E7E62622E2E323E1212077
:10E52000E0A06061A163A3A26266A6A767A5656477
:10E53000A46CACAD6DAF6F6EAEAA6A6BAB69A9A8E7
:10E540006878B8B979BB7B7ABABE7E7FBF7DBDBC27
:10E550007CB47475B577B7B67672B2B373B17170B7
:10E56000B050909151935352929656579755959417
:10E57000549C5C5D9D5F9F9E5E5A9A9B5B99595827
:10E5800098884849894B8B8A4A4E8E8F4F8D4D4CC7
:10E590008C448485458747468682424383418180F7
:10E5A0004000C1814001C0804101C0804100C18163
:10E5B0004001C0804100C1814000C1814001C08054
:10E5C0004101C0804100C1814000C1814001C08043
:10E5D0004100C1814001C0804101C0804100C18132
:10E5E0004001C0804100C1814000C1814001C08024
:10E5F0004100C1814001C0804101C0804100C18112
:10E600004000C1814001C0804101C0804100C18102
:10E610004001C0804100C1814000C1814001C080F3
:10E620004101C0804100C1814000C1814001C080E2
:10E630004100C1814001C0804101C0804100C181D1
:10E640004000C1814001C0804101C0804100C181C2
:10E650004001C0804100C1814000C1814001C080B3
:10E660004100C1814001C0804101C0804100C181A1
:10E670004001C0804100C1814000C1814001C08093
:10E680004101C0804100C1814000C1814001C08082
:10E690004100C1814001C0804101C0804100C18171
:10E6A0004000C0C101C30302C2C60607C705C5C4F6
:10E6B00004CC0C0DCD0FCFCE0E0ACACB0BC9090866
:10E6C000C8D81819D91BDBDA1A1EDEDF1FDD1D1CA6
:10E6D000DC14D4D515D71716D6D21213D311D1D036
:10E6E00010F03031F133F3F23236F6F737F53534D6
:10E6F000F43CFCFD3DFF3F3EFEFA3A3BFB39F9F8A6
:10E700003828E8E929EB2B2AEAEE2E2FEF2DEDEC45
:10E710002CE42425E527E7E62622E2E323E1212075
:10E72000E0A06061A163A3A26266A6A767A5656475
:10E73000A46CACAD6DAF6F6EAEAA6A6BAB69A9A8E5
:10E740006878B8B979BB7B7ABABE7E7FBF7DBDBC25
:10E750007CB47475B577B7B67672B2B373B17170B5
:10E76000B050909151935352929656579755959415
:10E77000549C5C5D9D5F9F9E5E5A9A9B5B99595825
:10E7800098884849894B8B8A4A4E8E8F4F8D4D4CC5
:10E790008C448485458747468682424383418180F5
:10E7A0004000C1814001C0804101C0804100C18161
:10E7B0004001C0804100C1814000C1814001C08052
:10E7C0004101C0804100C1814000C1814001C08041
:10E7D0004100C1814001C0804101C0804100C18130
:10E7E0004001C0804100C1814000C1814001C08022
:10E7F0004100C1814001C0804101C0804100C18110
:10E800004000C1814001C0804101C0804100C18100
:10E810004001C0804100C1814000C1814001C080F1
:10E820004101C0804100C1814000C1814001C080E0
:10E830004100C1814001C0804101C0804100C181CF
:10E840004000C1814001C0804101C0804100C181C0
:10E850004001C0804100C1814000C1814001C080B1
:10E860004100C1814001C0804101C0804100C1819F
:10E870004001C0804100C1814000C1814001C08091
:10E880004101C0804100C1814000C1814001C08080
:10E890004100C1814001C0804101C0804100C1816F
:10E8A0004000C0C101C30302C2C60607C705C5C4F4
:10E8B00004CC0C0DCD0FCFCE0E0ACACB0BC9090864
:10E8C000C8D81819D91BDBDA1A1EDEDF1FDD1D1CA4
:10E8D000DC14D4D515D71716D6D21213D311D1D034
:10E8E00010F03031F133F3F23236F6F737F53534D4
:10E8F000F43CFCFD3DFF3F3EFEFA3A3BFB39F9F8A4
:10E900003828E8E929EB2B2AEAEE2E2FEF2DEDEC43
:10E910002CE42425E527E7E62622E2E323E1212073
:10E92000E0A06061A163A3A26266A6A767A5656473
:10E93000A46CACAD6DAF6F6EAEAA6A6BAB69A9A8E3
:10E940006878B8B979BB7B7ABABE7E7FBF7DBDBC23
:10E950007CB47475B577B7B67672B2B373B17170B3
:10E96000B050909151935352929656579755959413
:10E97000549C5C5D9D5F9F9E5E5A9A9B5B99595823
:10E9800098884849894B8B8A4A4E8E8F4F8D4D4CC3
:10E990008C448485458747468682424383418180F3
:10E9A0004000C1814001C0804101C0804100C1815F
:10E9B0004001C0804100C1814000C1814001C08050
:10E9C0004101C0804100C1814000C1814001C0803F
:10E9D0004100C1814001C0804101C0804100C1812E
:10E9E0004001C0804100C1814000C1814001C08020
:10E9F0004100C1814001C0804101C0804100C1810E
:10EA00004000C1814001C0804101C0804100C181FE
:10EA10004001C0804100C1814000C1814001C080EF
:10EA20004101C0804100C1814000C1814001C080DE
:10EA30004100C1814001C0804101C0804100C181CD
:10EA40004000C1814001C0804101C0804100C181BE
:10EA50004001C0804100C1814000C1814001C080AF
:10EA60004100C1814001C0804101C0804100C1819D
:10EA70004001C0804100C1814000C1814001C0808F
:10EA80004101C0804100C1814000C1814001C0807E
:10EA90004100C1814001C0804101C0804100C1816D
:10EAA0004001030000000000000000000000000022
:10EAB0000000000000000000000000000000000056
:10EAC0000000000000000000000000000000000046
:10EAD0000000000000000000000000000000000036
:10EAE0000000000000000000000000000000000026
:10EAF0000000000000000000000000000000000016
:10EB00000000000000000000000000000000000005
:10EB100000000000000000000000000000000000F5
:10EB200000000000000000000000000000000000E5
:10EB300000000000000000000000020400000000CF
:10EB400000000000000000000000000000000000C5
:10EB500000000000000000000000000000000000B5
:10EB600000000000000000000000000000000000A5
:10EB70000000000000000000000000000000000095
:10EB80000000000000000000000000000000000085
:10EB90000000000000000000000000000000000075
:10EBA0000000000000000000000000000000000065
:10EBB0000000000000000000000000000000000154
:10EBC0000300000000000000000000000000000042
:10EBD0000000000000000000000000000000000035
:10EBE0000000000000000000000000000000000025
:10EBF0000000000000000000000000000000000015
:10EC00000000000000000000000000000000000004
:10EC100000000000000000000000000000000000F4
:10EC200000000000000000000000000000000000E4
:10EC300000000000000000000000000000000000D4
:10EC400000000000010300000000000000000000C0
:10EC500000000000000000000000000000000000B4
:10EC600000000000000000000000000000000000A4
:10EC70000000000000000000000000000000000094
:10EC80000000000000000000000000000000000084
:10EC90000000000000000000000000000000000074
:10ECA0000000000000000000000000000000000064
:10ECB000000AD7233CCDCCCC3DCDCC4C3E9A999983
:10ECC0003E0000003F9A99193F6666263F33333372
:10ECD0003F6666663FA4707D3F0000803F00008075
:10ECE0003F0000A0410000C841CDCCC8416666CAC3
:10ECF000410000CC416666CE410000D0419A99D1D6
:10ED000041CDCCD4416666D6419A99D94100000CD8
:10ED100042257320256420257320202020202020D8
:10ED200020202020202020202020202020202020E3
:10ED300020202020202020202020202020202000F3
:10ED40004F4E4C494E45204125642C2052256420CD
:10ED5000524625642C2054256420544625642C20DA
:10ED6000432564202564202573202020202000488E
:10ED70006F7374204125642C20522564205246254F
:10ED8000642C2054256420544625642C204325649B
:10ED90002025642025732020202020202000554E8F
:10EDA0004B20464F524D4154204125642C20522582
:10EDB0006420524625642C20542564205446256442
:10EDC0002C20432564202573202020002573202536
:10EDD00073202020202020202020202020202020E0
:10EDE0002020202020202020202020202020202023
:10EDF0002020202020200025732025732020202083
:10EE00002020202020202020202020202020202002
:10EE10002020202020202020202020202020000131
:10EE200003000000000000000000000000000000DF
:10EE300000000000000000000000000000000000D2
:10EE400056332E303120464D783020696E7465720D
:10EE50006661636520513834004F66666C696E6583
:10EE6000000000000043414E4255530000000000E6
:10EE7000000103000000000000000000000000008E
:10EE8000000000000000000103000000D6000000A8
:10EE900001000000DA00000103000000D6000000BD
:10EEA00000000000D9001F1E1F1E1F1F1E1F1E1F57
:10EEB0001F1D0210000100020402000000021000E9
:10EEC000010002040201000002100001000204021D
:10EED0000101000210000200010200000210000205
:10EEE0000001020100021000000000000000030009
:10EEF000040001C41A010600000000000001060021
:10EF000000000000000106000000000000010300F6
:10EF10000000000001030000000000832003040043
:10EF2000002405000183240304001A005442000059
:10EF3000544200008841CD0C0543E56121400000AA
:10EF400000000000804500401C4700401C470000B6
:10EF50008841CD0C0543E56121400D808042008051
:10EF60008042000000000000804500401C47000077
:10EF70008841CD0C0543E56121400D808042008031
:10EF80008042000000000000804500401C47000057
:10EF90008841CD0C0543E56121400D808042008011
:10EFA00080420000000000008045BC000000BA7FE5
:10EFB000FFFEC80080003400000000401C47000035
:10EFC0008841CD0C0543E56121400D8080420080E1
:10EFD0008042000000000000804500401C47000007
:10EFE0008841CD0C0543E56121400D8080420080C1
:10EFF0008042000000000000804500401C470000E7
:10F000008841CD0C0543E56121400D8080420080A0
:10F010008042000000000000804500401C470000C6
:10F020008841CD0C0543E56121400D808042008080
:10F030008042000000000000804500401C470000A6
:10F040008841CD0C0543E56121400D808042008060
:10F050008042000000000000804500401C47000086
:10F060008841CD0C0543E56121400D808042008040
:10F070008042000000000000804500401C47000066
:10F080008841000080451800000200881304000237
:10F09000002800B0040200020003000200881304EC
:10F0A0000002002800B004020002000300B004DCEB
:10F0B00005F4016400400660091027B80B3075059F
:10F0C0009904990399B004DC05F4016400400660DA
:10F0D000091027B80B059904990399B004DC05F4CD
:10F0E000016400400660091027B80B0599049903D4
:10F0F00099B004DC05F4016400400660091027B8EB
:10F100000B059904990399B004DC05F401640040EF
:10F110000660091027B80B059904990399B004DC1F
:10F1200005F4016400400660091027B80BB004DC48
:10F1300005F4016400400660091027B80B05990426
:10F14000990399B004DC05F40164004006600910DD
:10F1500027B80BB004DC05F4016400400660091018
:10F1600027B80B3075059904990399B004DC05F4B0
:10F17000016400400660091027B80B3075E8FF3CB9
:10F18000002300059904990399B004DC05F4016497
:10F1900000400660091027B80BFF00C802280402CF
:10F1A00028C80102FF00C80228040228C80102FF83
:10F1B00000C80228040228C8010206465A2D012070
:10F1C0004601FF00C80228040228C80102FF00C847
:10F1D0000228040228C801028003C80107070707A4
:10F1E0000707070D050440400FF001050F67FF40BA
:10F1F00010F0E0D0C0B0A090800006465A2D01204B
:10F200004601FF00C80228040228C80102070707B8
:10F21000070707070D050440400FF001050F67FFC2
:10F220004010F0E0D0C0B0A090800006465A2D01FA
:10F23000204601FF00C80228040228C8010207076F
:10F2400007070707070D050440400FF001050F678A
:10F25000FF4010F0E0D0C0B0A090800006465A2DCC
:10F2600001204601FF00C80228040228C801020745
:10F270000707070707070D050440400FF001050FBA
:10F2800067FF4010F0E0D0C0B0A090800006465A62
:10F290002D01204601FF00C80228040228C80102EF
:10F2A000070707070707070D050440400FF0010592
:10F2B0000F67FF4010F0E0D0C0B0A090800006467D
:10F2C0005A2D01204601FF00C80228040228C80167
:10F2D0000206465A2D01204601FF00C802280402FA
:10F2E00028C80102070707070707070D0504404064
:10F2F0000FF001050F67FF4010F0E0D0C0B0A09004
:10F30000800006465A2D01204601FF00C80228044D
:10F310000228C8010206465A2D01204601FF00C8F6
:10F320000228040228C801028003C8010707070752
:10F330000707070D050440400FF001050F67FF4068
:10F3400010F0E0D0C0B0A090800006465A2D0120F9
:10F350004601FF00C80228040228C801028003C831
:10F3600001070707070707070D050440400FF001D5
:10F37000050F67FF4010F0E0D0C0B0A090800006FD
:10F38000465A2D01204601FF00C80228040228C861
:10F3900001025E2C25642C25332E32662C25332E5B
:10F3A00032662C25332E32662C25332E32662C25E0
:10F3B000332E32662C25332E32662C25332E3266C0
:10F3C0002C25332E32662C25642E253031642C25D5
:10F3D000642E253031642C25642E253031642C2593
:10F3E000642C25642C25642C25642C25642C256C28
:10F3F0006C752C25372E34662C25372E34662C253B
:10F40000372E34662C25372E34662C313935372C7F
:10F410007E454F5420202020202020202020202006
:10F4200020202020202020202020202020202020DC
:10F4300020202020202020202020202020202020CC
:10F440002020202020200D0A005E2C25642C25334E
:10F450002E32662C25332E32662C25332E32662C26
:10F4600025332E32662C25332E32662C25332E3250
:10F47000662C25332E32662C25332E32662C2564DD
:10F480002E253031642C25642E253031642C2564E2
:10F490002E253031642C25642C25642C25642C25E4
:10F4A000642C25642C256C6C752C25372E34662C29
:10F4B00025372E34662C25372E34662C25372E34EE
:10F4C000662C313935372C7E454F542020202020A2
:10F4D000202020202020202020202020202020202C
:10F4E000202020202020202020202020202020201C
:10F4F000202020202020202020202020200D0A0055
:10F500005E2C25642C25332E32662C25332E326654
:10F510002C25332E32662C25332E32662C25332EA5
:10F5200032662C25332E32662C25332E32662C255E
:10F53000332E32662C25642E253031642C25642E22
:10F54000253031642C25642E253031642C25642C23
:10F5500025642C25642C25642C25642C256C6C7565
:10F560002C25362E34662C25362E34662C25362E48
:10F5700034662C25362E34662C313935372C7E45B1
:10F580004F54202020202020202020202020202018
:10F59000202020202020202020202020202020206B
:10F5A000202020202020202020202020202020205B
:10F5B000202020200D0A005E2C25642C25332E32BD
:10F5C000662C25332E32662C25332E32662C2533BD
:10F5D0002E32662C25332E32662C25332E32662CA5
:10F5E00025332E32662C25332E32662C25642E25AB
:10F5F0003031642C25642E253031642C25642E2571
:10F600003031642C25642C25642C25642C25642C35
:10F6100025642C256C6C752C25372E34662C2537EB
:10F620002E34662C25372E34662C25372E34662C46
:10F63000313935372C7E454F542020202020202082
:10F6400020202020202020202020202020202020BA
:10F6500020202020202020202020202020202020AA
:10F6600020202020202020202020200D0A007C7C2B
:10F670002F2F2D2D000000000000000000000000D2
:10F6800000007C7C2F2F2D2D5C5C00000000000012
:10F690000000000000004F4F4F4F4F4F2D2D5F5F78
:10F6A0002D00000000000000000076763C3C5E5E0D
:10F6B0003E3E0000000000000000000000002E2E72
:10F6C0002A2A7823782358587C7C2D2D00000000AE
:10F6D00000002E2E6F6F4F4F6F6F00000000000074
:10F6E000000000000000536C656570000000000021
:10F6F0000000466C6F61740000000000000042755D
:10F700006C6B00000000000000004162736F7262C9
:10F71000000000000000457175616C697A650000A9
:10F7200000004E2F412000000000000000004F6646
:10F73000666C696E650000000000464D7830000080
:10F740000000000000000001030040000200000073
:10F75000010000004600000102000000040000005B
:10F76000000000000600000102000000030000008D
:10F77000000000000500000102000000020000007F
:10F780000000000004000001020000000000000072
:10F790000000000002000001020001006A000000F9
:10F7A000000000006D00000102000100C700000021
:10F7B00000000000CA000001020000000800000074
:10F7C000000000000A00000102000100C600000065
:10F7D00000000000C900000104000000010000005A
:10F7E000000000000500000102000100C800000048
:10F7F00000000000CB00000102000000000000003B
:10F800000000000002000110006600020400000079
:10F810000075AD0110006300020400000000B59205
:10F820000110000C00020400000000F3FA021000B6
:10F830000100020402000100020400000040010374
:10F840000078000E01030048004A01061604000576
:10F850000106100000000106100200000103500024
:10F86000000801030500004001030000003401030B
:10F87000030200010103000B0001369C8042299C19
:10F8800080420D808042008080423AB2804239B48A
:10F8900080422CC58042CFB78042B4995E426666F2
:10F8A0005E42E590584289C1584273488042C56023
:10F8B0008042098A8042FC8980420D80804200801B
:10F8C0008042B400000204000000020000010A00AF
:10F8D0000001C77FFFFFC57FFFFFB4001000B77FA7
:10F8E000FFFFB8000001C2000000E4000001CD0CE1
:10F8F0000543E56121400D80804200808042000088
:10F9000000000400000CFFFF0B000010FFFF40F799
:10F9100025342E3266487A2025332E316652202532
:10F92000332E3266506620202020202020202020E8
:10F9300020202020202020202020202020002534CE
:10F940002E3266487A2025332E3266522025332EF9
:10F9500032665066202020202020202020202020D9
:10F96000202020202020202020202000424D432045
:10F97000256C7520203058252E325820202020203C
:10F980002020202020202020202020202020202077
:10F9900020202020202020200025322E31664B57A9
:10F9A0006820666C6F61742025332E3166682020D4
:10F9B0002020202020202020202020202020202047
:10F9C0002020202020000D2D2D2D205449433132A0
:10F9D00034303020447269766572205665727369DE
:10F9E0006F6E202573202573202573202D2D2D0D5E
:10F9F0000A000D2D2D2D204D433333393936204447
:10FA000072697665722056657273696F6E20257310
:10FA1000202573202573202D2D2D0D0A00424154E1
:10FA20002025642E25303164562050562025642E22
:10FA30002530316456202020202020202020202026
:10FA40002020202020200025342E30662025342E32
:10FA500030662025342E306650682025322E3066E0
:10FA6000572020202020202020202020202020205F
:10FA7000004325752053256C752055252E326625AB
:10FA80002520202020202020202020202020202071
:10FA900020202020202020202000342025362E3336
:10FAA00066562C352025362E336656202020202001
:10FAB0002020202020202020202020202020202046
:10FAC0002000426D61782025755620426D696E20B8
:10FAD0002575562020202020202020202020202096
:10FAE0002020202020202020200025342E306620B9
:10FAF00025342E30662025342E30662025342E30D5
:10FB00006657202020202020202020202020202078
:10FB1000200025342E30662025342E3066202534F2
:10FB20002E306656612025322E3066487A202020FD
:10FB300020202020202020202000424D4320256C22
:10FB40007520202020202020202020202020202060
:10FB500020202020202020202020202020202020A5
:10FB6000004F4620256C752045525220256C75208B
:10FB70002020202020202020202020202020202085
:10FB8000202020202020200020256C6C5820527539
:10FB90006E20446973706C6179203058252E32587C
:10FBA00020202020202020202020202020004A610A
:10FBB0006E4665624D61724170724D61794A756E33
:10FBC0004A756C4175675365704F63744E6F764428
:10FBD00065630025332E32662025332E32662025BC
:10FBE000332E326650662020202020202020202026
:10FBF0002020202020200025342E30665720253458
:10FC00002E306656612025332E3266506620202025
:10FC1000202020202020202020200025332E326686
:10FC2000572025332E326656612025332E326650FA
:10FC30006620202020202020202020202020002599
:10FC4000732056657220257320202020202020203C
:10FC500020202020202020202020202020202000C4
:10FC60002025372E34662C2025372E346620202080
:10FC70002020202020202020202020202020202084
:10FC80000025732025732025642E25303164412002
:10FC900025644120202020202020202020202020FA
:10FCA00020004D554920256C6C5820504943202593
:10FCB000582020202020202020202020202020200C
:10FCC0002000205465726D696E616C20496E666F0C
:10FCD0002020202020202020202020202020200044
:10FCE0002048454C502053637265656E3A20256468
:10FCF00020202020202020202020200025732025C7
:10FD0000342E3166562025342E32664120202020A4
:10FD1000202020202020200025732025342E31662D
:10FD2000562025342E3166572020202020202020E8
:10FD3000202020002025635049204441515F424D3E
:10FD40004320257320202020202020200076746569
:10FD5000726D2025783A2578202020202020202030
:10FD6000202020200020257320202020202020205B
:10FD700020202020202020202020200020494E4626
:10FD80004F20202020202020202020202020202044
:10FD900020200020565445524D20494E464F2020E9
:10FDA0002020202020202020200020565445524D85
:10FDB0002048454C5020202020202020202020209A
:10FDC000002056657273696F6E20257320202020F5
:10FDD000202020202020200020257320416C6C2032
:10FDE0004465762020202020202020202020002074
:10FDF00048454C50204275696C64202573202020B2
:10FE000020202020200020257320416E616C6F6728
:10FE10002044657620202020202020200053756E6D
:10FE20004D6F6E54756557656454687546726953B5
:10FE300061740048454C502025732020202020204C
:10FE400020202020202020200043616C6962726104
:10FE500074696F6E20436F6D706C65746520005718
:10FE6000454D333038302044726976657220202049
:10FE7000202020002573202020202020202020204A
:10FE800020202020202020200025732025732020E2
:10FE90002020202020202020202020202000506F03
:10FEA0007274202573202020202020202020202054
:10FEB000202000424D43426F617264204472697693
:10FEC0006572202020202000526561642045455045
:10FED000524F4D2044415441202020200057726948
:10FEE000746520454550524F4D20444154412020D7
:10FEF000200055706461746520454550524F4D2077
:10FF000044415441202000496E76616C696420456B
:10FF10004550524F4D20444154412000504F5745C9
:10FF2000524D2044726976657220202020202000E6
:10FF3000454D35343020447269766572202020208A
:10FF40002020200025732020202020202020202079
:10FF50002020202020202000505A454D2044726946
:10FF6000766572202020202020004A756E202035E2
:10FF700020323032360030393A35353A34330043A6
:10FF80004F4D4D202020004552524F522020004F0F
:10FF90004E4C494E45200052454D4F54452000449B
:10FFA000495341424C45004F46464C494E45002876
:10FFB0006E756C6C2900504F5745524D0057454D9A
:10FFC00033300056302E3731003437513834003555
:10FFD0003751383400505A454D0056302E370056B0
:10FFE000302E3800494E46004E414E00696E660084
:10FFF0006E616E00474D540025732000257300008C
:020000040001F9
:1000000000019451D8BC05D0010E0701806F210E6C
:10001000D96F7EEC02F09F9497EC11F0D68ED68CBF
:10002000BF82BF84BF863BEC0DF06EEC0EF0000E7D
:100030006100A2F3FDFB22EEF3F1070EDE6AE80693
:10004000FDE20701C06BC051020DF3C4E5F6F4C434
:10005000E6F6000E0601E6BFFF0EE76FE86F000E42
:10006000E5250501816F000E0601E6210501826F7D
:100070002C0E0601E7210501836F87ECF9F00701DB
:10008000C051020DC30EF324D96E090EF420DA6EAE
:10009000050181C5DEF482C5DDF40701C051020D02
:1000A000C30EF324D96E090EF420DA6EDEC4E5F631
:1000B000DDC4E6F60601E5510901F3270601E65124
:1000C0000901F423000EF523000EF623000EF7239A
:1000D000000EF823000EF923000EFA230701C02BAF
:1000E000080EC065B0D7F3C95BF9F4C95CF9F5C96E
:1000F0005DF9F6C95EF9F7C95FF9F8C960F9F9C9A0
:1001000061F9FAC962F9FC0E0501816FFF0E826F79
:100110003F0E836F87ECF9F081C559F982C55AF912
:10012000FE0E816FFF0E826F3F0E836F87ECF9F03A
:1001300081C557F982C558F9050E0901571904E11F
:10014000990E5819D8B42DD0040E571906E1990EFE
:100150005819D8A402D0548524D05469000E5A6F7F
:100160005969FF0E5B6F000E5C6F000E5D6F000E35
:100170005E6F000E5F6F000E606F000E616F000E0D
:10018000626FFF0EF36FFF0EF46FFF0EF56FFF0E41
:10019000F66F000EF76F000EF86F000EF96F000E8D
:1001A000FA6F5BC9A6F55CC9A7F55DC9A8F55EC97C
:1001B000A9F55FC9AAF560C9ABF561C9ACF562C91B
:1001C000ADF577ECDFF00701FC6F74D0EC0E610049
:1001D000A2F30BFE180E6100A2F30CFE000E6100EC
:1001E000A2F30DFE240E6100A2F311FE920E610037
:1001F000A2F312FE010E6100A2F313FE940E610041
:10020000A2F30EFE110E6100A2F30FFE000E43D00A
:10021000020E6100A2F30BFE170E6100A2F30CFEAA
:10022000000E6100A2F30DFE1E0E6100A2F311FE8E
:10023000200E6100A2F312FE000E6100A2F313FE75
:100240005C0E6100A2F30EFE110E6100A2F30FFE20
:10025000000E21D0120E6100A2F30BFE150E6100FC
:10026000A2F30CFE000E6100A2F30DFE720E6100FF
:10027000A2F311FE960E6100A2F312FE010E6100C0
:10028000A2F313FE240E6100A2F30EFE110E610014
:10029000A2F30FFE000E6100A2F310FE21D0F7ECD6
:1002A000FAF05C0E816F070E826F000E836F39ECDF
:1002B00010F016D0FC510601E56FE66BE651000A1E
:1002C000D8A4EDD7E551000AD8B4E9D7010AD8B4CB
:1002D000C1D7030AD8B47AD7010AD8B499D7DFD7DF
:1002E0002BEE0EF201D80AD00500FA6EDE50FD6E3C
:1002F000DE50FE6EDE50FF6EFA5012002BEE0BF257
:1003000001D80AD00500FA6EDE50FD6EDE50FE6E9A
:10031000DE50FF6EFA5012000501826B140E816FE1
:10032000090EA4EC0CF04E0E826F200E816F0C0EA5
:10033000A4EC0CF02BEE0EF201D80AD00500FA6EF8
:10034000DE50FD6EDE50FE6EDE50FF6EFA50120083
:1003500022EEF3F1FF0EDE140901F36FFF0EDE143F
:10036000F46FFF0EDE14F56FFF0EDE14F66F000E55
:10037000DE14F76F000EDE14F86F000EDE14F96F56
:10038000000EDE14FA6F70EC11F06DEC11F09C0EA3
:100390000501816FF00E826F010E836F94EC10F0F7
:1003A0006AEC11F067EC11F0CA0E0501816FDE0EE8
:1003B000826F010E836F8DEC10F0140E816F230E8F
:1003C000826F000E836FA9EC10F079EC11F0A80E8B
:1003D0000501816F220E826F000E836FA2EC10F078
:1003E00076EC11F0C20E0901836F0F0E846F0501C8
:1003F000876B640E866F8EEC0DF0BF94BF92BF9634
:10040000B4ECD5F00701FBA570D0FB95DDECF1F065
:100410000009D8B43AD0000E0501816F000E32EC0D
