:0400000085EF00F098
:100008005909590959095909590959095909A7078C
:100018005909590938044804590959095909590904
:10002800580459095909590918045909280459093A
:100038005909590959095909670359095909E90316
:10004800F504E60459095909590959095909590979
:10005800CD7E590904055909040259095909590954
:10006800590959095909590968047804880459092A
:100078005909590959095909420059095909590988
:100088005909590959095909560359095909590961
:1000980022051305590959094200590959095909ED
:1000A80059095909590959099804A804B80459095A
:1000B8005909590959095909590959095909590928
:1000C8005909590959095909590959095909590918
:1000D8005909590959095909590959095909590908
:1000E8004200590959095909590959095909590918
:1000F8004809590959090A08590959095909590949
:10010800FF001BEE94F33BEFD1F099C59CF59AC51F
:100118009DF593ECFAF0C186C290010E0801A02764
:10012800000EA123A223A323080E05019B6502D07C
:10013800C2801200B30E8E6F0B0E8F6F9CC590F5A8
:100148009DC591F59BC592F5936BFAEC02F0B30E41
:100158008E6F0B0E8F6F9BC590F5916B89EC06F037
:10016800C00E8E6F0C0E8F6FB30E906F0B0E916FCB
:100178009BC592F5936BFAEC02F0C2801200976966
:10018800986922D08EC5D9F48FC5DAF4DF50971953
:10019800966F8E4B8F2B290E9625F66EF76AD40E26
:1001A800F722F86A000EF8220800F5509819976FA0
:1001B800290E9625F66EF76AD30EF722F86A000E16
:1001C800F8220800F5C498F59007D8A0910790295F
:1001D800D9E19129D8A4D6D79751926F9851946FA5
:1001E80092C595F594C58EF595C58FF51200936B5C
:1001F8008FAF06D08E6D8F1FD8B08F2B010E936FE7
:1002080091AF04D0906D911FD8B0912B905191115E
:10021800D8B418D0010E926F04D0D8909037913787
:10022800922B91AFFAD790518E5D91518F59D8A0EA
:1002380004D090518E5F91518F5BD8909133903359
:10024800922FF1D79351D8B404D08E6D8F1FD8B0A8
:100258008F2B8EC58EF58FC58FF51200E86B9E0E1D
:100268000501916F100E926F91C5F9F092C5FAF0E1
:100278000001FB6BF16B810EF06F020EFD6FF86BE6
:10028800010EF76FEF6B010EEE6F190EFF6FFE6B2D
:10029800B09AB098B09EB09CA09AA088F80E0501BC
:1002A8008E6F250E8F6F000E906F44EC12F0A09E9B
:1002B800A08CF80E8E6F250E8F6F000E906F4BEC92
:1002C80012F0C00E0001FC6F12009BC5D9F49CC54A
:1002D800DAF49FC5DFF40A0E8E6F9D511FEC0EF005
:1002E800300F9B07D8A09C079BC5D9F49CC5DAF4AE
:1002F800DF6E9DC593F5946B966B0A0E956F5EEC59
:10030800FEF093519D6F9D51D8B40BD09D51300F85
:100318009B07D8A09C079BC5D9F49CC5DAF4DF6E6F
:1003280012009B07D8A09C079BC5D9F49CC5DAF49A
:100338009EC5DFF412009F6F0501E251D8A4120098
:1003480009D0400E03D0140E01D0540EA06F10D067
:10035800A06B0ED09F51000AD8B4FAD7010AD8B4BE
:10036800F0D7030AD8B4EFD7010AD8B4EED7F0D73C
:10037800A0519C25CBEC02F0900E05018E6F010E6A
:100388008F6F000E906F000E916F9EEC0BF09DC565
:1003980099F59EC59AF5D2EC01F0120099C58EF533
:1003A8009AC58FF51FEC06F08E519B6F93ECFAF00F
:1003B800BCEC12F0C196140E05019B6502D0140E18
:1003C8009B6F94C88EF595C88FF599C590F59AC519
:1003D80091F59BC592F5936BFAEC02F00001E86B7E
:1003E800FC9F9BC58EF505018F6B72EC11F0050122
:1003F8008F6B010E8E6F79EC11F0FC8FBFEC12F051
:1004080012009251931194119511D8B424D0010E71
:10041800966F06D0D8909237933794379537962BA6
:1004280095AFF8D792518E5D93518F599451905949
:1004380095519159D8A008D092518E5F93518F5BF6
:100448009451905B9551915BD89095339433933345
:100458009233962FE7D78EC58EF58FC58FF590C549
:1004680090F591C591F51200D68A000ED6BE010E00
:1004780005018E6FD69E550E0401596FAA0E596F4D
:1004880059915F6B5E6B080E5D6F550E596FAA0E22
:10049800596F598105018EB102D0D69E01D0D68EF2
:1004A8000301688B6889688D678567816489648DB5
:1004B8006C8B6C896C8D628F6B836B8166836681B4
:1004C800658F71876A896799658912008EC594F569
:1004D8008FC595F517D09207D8A0930790C5F6F465
:1004E80091C5F7F4904B912B000EF86E94C5D9F492
:1004F80095C5DAF4944B952B0800F5C4DFF4DF506A
:10050800D8B40CD092519311D8B408D0E4D794C57C
:10051800D9F495C5DAF4DF6A944B952B9207D8A0E5
:1005280093079229F4E19329D8B41200F0D7000078
:1005380000000000000000000000000000000000B3
:100548000000000000000000000000001000000093
:100558000000000000000000000000000000000093
:10056800000000000000000000000000000001037F
:1005780000400005000000000000004800000103E2
:0D05880000400004000000000000004700DB
:10059600966F93ECFAF0BCEC12F0C19694C8D9F4BD
:1005A60095C8DAF4FE0EDF6E20EE01F09451D926DE
:1005B6009551DA22450EDF6E20EE02F09451D926CF
:1005C6009551DA2296C5DFF40001E86BFC9F050120
:1005D6008F6B030E8E6F72EC11F005018F6B010E9F
:1005E6008E6F79EC11F0FC8FBFEC12F0120090C503
:1005F60096F591C597F58EC594F58FC595F51DD0E1
:1006060096C5F6F497C5F7F4000EF86E3F0EF7643C
:1006160003D00800F55005D0F6C4E9F4F7C4EAF4AF
:10062600EF500501986F964B972B94C5D9F495C555
:10063600DAF498C5DFF4944B952B9207D8A093076C
:100646009229DEE19329D8B41200DAD738EC02F009
:10065600D0EC10F089ECFCF05BECF3F0B9EC10F0A8
:1006660018ECFFF032EC01F07BEC10F0C5EC10F06A
:10067600B2EC07F0CAEC0DF0DDECFEF0F7EC04F09E
:1006860074EC12F0D0EC04F01EEC05F026ECFBF056
:10069600B6ECFBF058EC03F088EC10F059EC04F0E3
:1006A600F3EC0AF0FEEC11F012000201B86BB96B24
:1006B600BA6BBB6BBC6BBD6BB40EBE6F800EBF6FEF
:1006C600C06B820EC16F060EC26FC36BC46BC56B67
:1006D600C66B000E05018E6F000E8F6F000E906FB9
:1006E600AAEC11F0000E8E6F000E8F6F000E906F49
:1006F600A3EC11F0000E8E6F000E8F6F000E906F40
:10070600B1EC11F0F26B12008CC690F68DC691F624
:10071600466A000E456E13D08AC66AF68BC66BF61D
:10072600900E6C6F060E6D6F8EC66EF68FC66FF6E8
:1007360020ECA9F006016A5145266B51462290C667
:10074600F6F491C6F7F4000EF86E0800F5500009AD
:10075600D8A4E2D745C58AF646C58BF61200000E28
:10076600966F000E976F000E986F000E996F8EA110
:1007760008D09251962793519723945198239551D7
:100786009923D8909237933794379537D8909133E9
:1007960090338F338E338E518F1190119111D8A4CF
:1007A600E6D796C58EF597C58FF598C590F599C588
:1007B60091F512009A6F9AC591F5030E05019117EE
:1007C6009151800DF3C492F5F4C493F58E51030B49
:1007D600946F956B000E9403F3C496F5F4C497F5E5
:1007E6009503F3509727020E9403F3509727FA0EBA
:1007F6009625986F1F0E9721996F925198258E6FA7
:08080600935199218F6F12003C
:10081000D8C48BF5FAC48CF5FBC48DF51DEE87F0BA
:10082000B398EFC889F5F0C88AF504EC10F0090117
:10083000665167116811D8B40CD001D80AD00500F0
:10084000FA6E6651FD6E6751FE6E6851FF6EFA508A
:100850001200E5528DC5FBF48CC5FAF48BC5D8F4B3
:100860001100936B000E926F90519111D8B41CD06F
:10087000010E946F04D0D89090379137942B91AF9C
:10088000FAD7D8909237933790518E5D91518F5906
:10089000D8A005D090518E5F91518F5B9281D890F6
:1008A00091339033942FEDD792C58EF593C58FF584
:1008B0001200070E0301586F070E596F5751F30BC3
:1008C0000809576F566B556B546BD50E536FF30E6B
:1008D0005717566B556B546B536B526B516B506B78
:1008E0004F6B3F0E5F6F5E695D695C6B5B6B5A6B54
:1008F000616BBD94AD94B69EA69E900E576F606BD3
:100900001200010E0A018F6FC7C252F57F51050117
:10091000DA25D96E0A0180510501DB21DA6E52C554
:10092000DFF4010E0A017F27000E8023812382233A
:1009300082518111801104E1FA0E7F5DD8A012006E
:10094000000E7F6F000E806F000E816F000E826FB1
:10095000120099C58EF59AC58FF59BC590F59CC57B
:1009600091F5C3EC00F08EC59DF58FC59EF59B51AA
:100970009925D96E9C519A21DA6E9EC5DFF49B4B66
:100980009C2B9B519925D96E9C519A21DA6E9DC55D
:10099000DFF49B4B9C2B9BC599F59CC59AF51200E7
:1009A0000301376B386B010E396F630E356FC00E64
:1009B000346FB698345135C391F50501926B91C5EA
:1009C00092F5916B91110801F56F050192510801A3
:1009D000F66FA688FA0E05018E6F250E8F6F000E3A
:1009E000906FE2EC11F0310E0301366F120003013B
:1009F0002B6B2C6B010E2D6FF00E296F600E286F84
:100A0000B398285129C391F50501926B91C592F5D0
:100A1000916B91110801EF6F050192510801F06F80
:100A2000A388EE0E05018E6F250E8F6F000E906F5E
:100A3000E9EC11F0330E03012A6F12001F6B206BDB
:100A4000050E216F0B0E1D6FDC0E1C6FB1981C5133
:100A50001DC391F50501926B91C592F5916B9111B2
:100A60000801ED6F050192510801EE6FA188100E8B
:100A700005018E6F260E8F6F000E906FF0EC11F057
:100A8000310E03011E6F12004A0E0501996FF70E19
:100A90009A6F040E9B6F8DECFFF0926B0A0E916FB4
:100AA00087EC0EF04A0E996FF70E9A6F040E9B6F4B
:100AB0008DECFFF0926B0A0E916F87EC0EF0000E3A
:100AC0000B01786F000E796F000E7A6F000E7B6F4E
:100AD0001200570E0501916F0001919F4C0E050108
:100AE0008E6F740E8F6F010E906F05EC12F0060E74
:100AF0008E6F220E8F6F000E906F0CEC12F002D0F2
:100B00008DC091F5000194A7FBD791C502FA949787
:100B10009383918F000E80EC12F0120091BF09D0E8
:100B20008EC58EF58FC58FF590C590F591C591F561
:100B300012008EC592F58FC593F590C594F591C5B9
:100B400095F5921F931F941F951F922B000E9323D0
:100B50009423952392C58EF593C58FF594C590F592
:100B600095C591F5120043E8FD0E15C5E3F4FE0EA0
:100B700017C5E3F4010F18C5E3F4FE0EE3C41FF537
:100B8000010FE3C420F5D8901F341D6E20341E6E73
:100B9000FD0EE350020D000EF324D96E0C0EF4206E
:100BA000DA6E1DC5DEF41EC5DDF443E91200960EB3
:100BB000A16F060EA26F92C696F693C697F6996B32
:100BC000000E986FA06B000E9F6F960E8A6F060E38
:100BD0008B6F94C68CF695C68DF6A10E8E6F060EA1
:100BE0008F6F87EC03F098519225D96E995193211C
:100BF000DA6EDF6A120056EC11F00009D8B4120068
:100C000009019B5105019E6F09019C5105019F6FD0
:100C100009019B4B9C2B410E05019E5D1F0E9F59A8
:100C2000D8A012009CC599F59DC59AF5080E9B6F3A
:100C300094EC0CF009019C6B000E9B6F12008EC5AA
:100C400090F58FC591F503D005018E4B8F2B8EC586
:100C5000F6F48FC5F7F4000EF86E3F0EF76403D07C
:100C60000800F55005D0F6C4E9F4F7C4EAF4EF50F3
:100C70000009D8A4E9D7050190518E5D8E6F91517E
:100C80008F598F6F1200000ED6BE010E916F380E75
:100C90000001456F8FC544F08EC543F090C546F006
:100CA0004151F80B0309416FD69E550E426FAA0EB3
:100CB000426F408140B1FED7050191B102D0D69E6E
:100CC00001D0D68EF80E000141171200000E041B51
:100CD000000E051B000E061B800E071B00C6C1F58B
:100CE00001C6C2F502C6C3F503C6C4F504C6C5F500
:100CF00005C6C6F506C6C7F507C6C8F56DECD4F03F
:100D0000C1C500F6C2C501F6C3C502F6C4C503F6E7
:100D100012008EC592F58FC593F514D0010E000117
:100D2000826F92C5D9F493C5DAF4DF50816FB1A018
:100D3000FED792C5D9F493C5DAF480C0DFF405017B
:100D4000924B932B9007D8A091079029E7E1912926
:060D5000D8B41200E3D745
:100D5800FAC43BF5FBC43CF51CEE0EF2B698F5C898
:100D680039F5F6C83AF523EC10F00801F34BF42BEB
:100D7800F45104E1320EF35DD8A006D01CEC0FF05C
:100D88000801F46B000EF36FE5523CC5FBF43BC55C
:100D9800FAF41100FAC487F5FBC488F51CEE0EF2CC
:100DA800B198EDC885F5EEC886F541EC10F008015C
:100DB800EB4BEC2BEC5104E1020EEB5DD8A006D016
:100DC8000AEC0FF00801EC6B000EEB6FE55288C5DA
:100DD800FBF487C5FAF41100A4C58EF5A5C58FF5F7
:100DE800916B0A0E906F11EC07F08EC5A0F58FC5B8
:100DF800A1F59BEC0EF0A0C5E5F8A1C5E6F8A4C5E1
:100E08008EF5A5C58FF5916B0A0E906F31EC04F045
:100E18008EC5E7F88FC5E8F8120090519111D8B443
:100E280018D0010E926F04D0D89090379137922B3A
:100E380091AFFAD790518E5D91518F59D8A004D0B7
:100E480090518E5F91518F5BD89091339033922F50
:100E5800F1D78EC58EF58FC58FF512000F0E0D01D7
:100E6800B7154D6E4E6A030E4D184E10D8A405D016
:100E7800010E0901A96F586A0DD0582A58040501B6
:100E88008E6F030E8E6506D00901A96B0701CF6B23
:100E9800050ECE6F010E07017E6F12000501926FDD
:100EA80005019251D8B409D0BECA8EF5BFCA8FF5D4
:100EB800C0CA90F5C1CA91F51200ACC8BEFAADC857
:100EC800BFFAAEC8C0FAAFC8C1FABECA8EF5BFCA6B
:100ED8008FF5C0CA90F5C1CA91F512000501926F4D
:100EE80005019251D8B409D0C2CA8EF5C3CA8FF58C
:100EF800C4CA90F5C5CA91F51200B0C8C2FAB1C803
:100F0800C3FAB2C8C4FAB3C8C5FAC2CA8EF5C3CA0E
:100F18008FF5C4CA90F5C5CA91F512000501966F00
:100F280093ECFAF0BCEC12F0C19694C8D9F495C8C9
:100F3800DAF496C5DFF40001E86BFC9F05018F6BBE
:100F4800010E8E6F72EC11F005018F6B010E8E6F22
:100F580079EC11F0FC8FBFEC12F012004D0E1B6FF4
:100F68001B0E196F1E0E186F185119C391F5050144
:100F7800926B91C592F5916B91114F6E9251506E93
:100F8800B19EA18E060E8E6F260E8F6F000E906F8B
:100F9800F7EC11F0900E03011A6F1200FAC473F502
:100FA800FBC474F51CEE0EF2B19E50C519F34FC583
:100FB80018F30801F14BF22BF25104E1040EF15D34
:100FC800D8A006D0F8EC0EF00801F26B000EF16F15
:100FD800E55274C5FBF473C5FAF411009FC5FEF819
:100FE8000801FF6B05019E51A16FA06B000EA015B3
:100FF800A26FFF0EA115A36FA2510801FE130501F0
:10100800A3510801FF13FD0E0501996F080E9A6F91
:10101800030E9B6F89EC00F01200C084980E050146
:101028008E6F0B0E8F6F030EDA25906F000EDB218B
:10103800916F936B100E926FFAEC02F00B01A56B97
:10104800A6CB8EF5A7CB8FF5D7EC0FF08EC5A6FBF8
:101058008FC5A7FBC0941200FAC435F5FBC436F55A
:101068001CEE0EF2B0980801C451C511C611D8B4CF
:101078000CD001D80AD00500FA6EC451FD6EC551D6
:10108800FE6EC651FF6EFA501200E55236C5FBF4EB
:0610980035C5FAF4110059
:1010A000FAC437F5FBC438F51CEE0EF2B09C08010B
:1010B000C151C211C311D8B40CD001D80AD0050057
:1010C000FA6EC151FD6EC251FE6EC351FF6EFA50F1
:0E10D0001200E55238C5FBF437C5FAF41100E2
:1010E000FAC43DF5FBC43EF51CEE0EF2AF940801C8
:1010F000BB51BC11BD11D8B40CD001D80AD0050029
:10110000FA6EBB51FD6EBC51FE6EBD51FF6EFA50C2
:0E1110001200E5523EC5FBF43DC5FAF4110095
:10112000FAC43FF5FBC440F51CEE0EF2AF96090180
:101130007E517F118011D8B40CD001D80AD005009F
:10114000FA6E7E51FD6E7F51FE6E8051FF6EFA5039
:0E1150001200E55240C5FBF43FC5FAF4110051
:10116000FAC460F5FBC461F51CEE0EF2B090080104
:10117000B851B911BA11D8B40CD001D80AD00500B1
:10118000FA6EB851FD6EB951FE6EBA51FF6EFA504B
:0E1190001200E55261C5FBF460C5FAF41100CF
:1011A000FAC475F5FBC476F51CEE0EF2B49809018D
:1011B000785179117A11D8B40CD001D80AD0050031
:1011C000FA6E7851FD6E7951FE6E7A51FF6EFA50CB
:0E11D0001200E55276C5FBF475C5FAF4110065
:1011E000FAC477F5FBC478F51CEE0EF2B49A090147
:1011F000755176117711D8B40CD001D80AD00500FA
:10120000FA6E7551FD6E7651FE6E7751FF6EFA5093
:0E1210001200E55278C5FBF477C5FAF4110020
:10122000FAC479F5FBC47AF51CEE0EF2B49C090100
:10123000725173117411D8B40CD001D80AD00500C2
:10124000FA6E7251FD6E7351FE6E7451FF6EFA505C
:0E1250001200E5527AC5FBF479C5FAF41100DC
:10126000FAC47BF5FBC47CF51CEE0EF2B8980901BC
:101270006F5170117111D8B40CD001D80AD005008B
:10128000FA6E6F51FD6E7051FE6E7151FF6EFA5025
:0E1290001200E5527CC5FBF47BC5FAF4110098
:1012A000FAC47DF5FBC47EF51CEE0EF2B89A090176
:1012B0006C516D116E11D8B40CD001D80AD0050054
:1012C000FA6E6C51FD6E6D51FE6E6E51FF6EFA50EE
:0E12D0001200E5527EC5FBF47DC5FAF4110054
:1012E000FAC47FF5FBC480F51CEE0EF2B89C090130
:1012F00069516A116B11D8B40CD001D80AD005001D
:10130000FA6E6951FD6E6A51FE6E6B51FF6EFA50B6
:101310001200E55280C5FBF47FC5FAF41100FC29E8
:10132000FC27000000000011050080008000800004
:101330005711012000000000000000000000000024
:10134000008080420000000000808042E561214072
:10135000CD0C05430003005719425B50D8B4FDD7AC
:10136000000E5C24D96EDA6A140EDA22DF50050111
:10137000F36F000E5C24D96EDA6A190EDA22DF50A0
:10138000056E5C2A5C28D8B45C6AA2905B06A280D9
:0613900005C501F5120085
:10139800FAC423F5FBC424F51CEE0EF20801D35160
:1013A800D411D511D8B40CD001D80AD00500FA6EE2
:1013B800D351FD6ED451FE6ED551FF6EFA50120016
:1013C800E55224C5FBF423C5FAF41100FAC425F547
:1013D800FBC426F51CEE0EF20801D651D711D81120
:1013E800D8B40CD001D80AD00500FA6ED651FD6EDB
:1013F800D751FE6ED851FF6EFA501200E55226C53D
:10140800FBF425C5FAF41100FAC462F5FBC463F5D0
:101418001CEE0EF20801D051D111D211D8B40CD063
:1014280001D80AD00500FA6ED051FD6ED151FE6E7A
:10143800D251FF6EFA501200E55263C5FBF462C543
:10144800FAF41100FAC481F5FBC482F51CEE0EF221
:101458000801D951DA11DB11D8B40CD001D80AD05F
:101468000500FA6ED951FD6EDA51FE6EDB51FF6E42
:10147800FA501200E55282C5FBF481C5FAF4110056
:10148800FAC483F5FBC484F51CEE0EF20801DC51A6
:10149800DD11DE11D8B40CD001D80AD00500FA6EDF
:1014A800DC51FD6EDD51FE6EDE51FF6EFA5012000A
:1014B800E55284C5FBF483C5FAF41100100000005E
:1014C8000000000000000000000000000000000014
:1014D80000000000000000000010000000000000F4
:1014E80000000000000000000000000000000000F4
:1014F8000000000000000D01B55105018F6F8E6BD3
:101508000D01B75105018E250701706F0D01B85106
:1015180005018F210701716F0901A951D8B404D0C1
:10152800090E07017E6F12000B0E07017E6F120075
:10153800C084F60E05018E6F050E8F6F030EDA2537
:10154800906F000EDB21916F936B020E926FFAEC95
:1015580002F0F6C58EF5F7C58FF5D7EC0FF08EC5FE
:10156800F6F58FC5F7F5C09412009FC58EF5A0C596
:101578008FF5A1C590F5A2C591F5A3C592F5A4C5AF
:1015880093F5FAEC02F09FC599F5A0C59AF5A3C5A5
:101598009BF5A4C59CF5A9EC04F099C59FF59AC5DF
:1015A800A0F512008EC593F58FC594F590C595F5F5
:1015B80091C596F593C592F594C593F592C594F5A2
:1015C80095C592F596C595F592C596F593C58EF590
:1015D80094C58FF595C590F596C591F51200000153
:1015E800916B240E926F050E936F996B966BC9845D
:1015F800A384A380020E05018E6F260E8F6F000E46
:10160800906F0CEC12F0040E8E6F260E8F6F000E8A
:10161800906F05EC12F01200296A2950020D000E95
:10162800F324D96E0C0EF420DA6EDE50DE10D8B436
:101638000BD02950020D000EF324D96E0C0EF420A5
:10164800DA6EDE06000EDD5A292A0C0E2964E5D76B
:101658001200306A3050020D000EF324D96E0C0EC1
:10166800F420DA6EDE50DE10D8B40BD03050020D04
:10167800000EF324D96E0C0EF420DA6EDE06000E8E
:10168800DD5A302A0C0E3064E5D71200C20E05016F
:101698008E6F0F0E8F6F590E906FFE0E916F936BBA
:1016A800200E926F6AEC02F0EE0E8E6F0F0E8F6FA7
:1016B800C00E906FFF0E916F936B0C0E926F6AECD9
:1016C80002F01200C20E05018E6F0F0E8F6F160EFC
:1016D800906FFF0E916F936B200E926F6AEC02F081
:1016E800EE0E8E6F0F0E8F6FB90E906FFF0E916F0B
:1016F800936B0C0E926F6AEC02F01200C20E050199
:101708008E6F0F0E8F6F520E906FFF0E916F936B4F
:10171800200E926F6AEC02F0EE0E8E6F0F0E8F6F36
:10172800D80E906FFF0E916F936B0C0E926F6AEC50
:1017380002F01200000E926F000E936F000E946F6D
:10174800000E956F00000000010E05019227000EA3
:1017580093239423952392518E5D93518F599451DD
:10176800905995519159D8A01200ECD7EE51D8B4A0
:10177800FDD7000EEF25D96EDA6A150EDA22DF5092
:10178800ED6F000EEF25D96EDA6A1A0EDA22DF50F5
:101798008E6FEF2BEF29D8B4EF6BA790EE07A780D9
:1017A8008E51120005019D6B000E9C6F0BD09BC5DE
:1017B8008EF58F6B99C590F59AC591F577ECF8F091
:1017C8009C4B9D2B9C519725D96E9D519821DA6E83
:1017D800DF509B6F9B51D8B41200E9D70501646FA5
:1017E8000501F451D8B4FCD7A2B203D064C5A3F262
:1017F8000FD0A292400EF525D96EDA6A110EDA22C0
:1018080064C5DFF4F52B3F0EF56501D0F56BF407E1
:10181800A282120007017F51020DDC0EF324D96E5B
:10182800090EF420DA6EB7CDDEF4B8CDDDF47F2BE7
:101838000E01A451D8A404D00A0E07017E6F12002D
:10184800A46B070E07017E6F1200000ED86F1C0EE6
:10185800D96F030ED825496E000ED9214A6E030EA2
:10186800D825476E000ED921486EF00E8E6F190EDE
:101878008F6F000E906FE9EC11F0B9EC12F01200C6
:101888008E6F0501F051D8B4FCD7A7B203D08EC52E
:10189800C9F20FD0A792000EF125D96EDA6A110E9F
:1018A800DA228EC5DFF4F12B3F0EF16501D0F16B22
:1018B800F007A7821200986F0901AD51D8B4120041
:1018C800AD6BA66B000EA56F05019851D8B407D073
:1018D800530EEFEC10F0020E92EC07F01200530ECC
:1018E800EFEC10F0080E92EC07F01200000E090160
:1018F800846F1E0E856F030E84250A01F46F000E97
:10190800090185210A01F56FF00E05018E6F190E88
:101918008F6F000E906FE9EC11F0B9EC12F0120025
:101928005550D8A41200800E8E6F0F0E8F6F99C578
:1019380090F59AC591F5D8909B35926F936B933734
:10194800FAEC02F0546A9BC555F5010E0901AA6F1D
:101958001200030E4D184E10D8B408D00901A96B17
:101968000701CF6B050ECE6F7E6B120009018C51FB
:10197800D8A404D00A0E07017E6F1200010E0701D9
:101988007E6F1200000ED66F1D0ED76F030ED62580
:101998000601FD6F000E0501D7210601FE6FF00E4E
:1019A80005018E6F190E8F6F000E906FE9EC11F024
:1019B800B9EC12F012008EC592F58FC593F590C55B
:1019C800F6F491C5F7F4904B912B000EF86E92C582
:1019D800D9F493C5DAF4924B932B0800F5C4DFF4DD
:1019E800DF50D8B41200EBD7010E0801AC27000E67
:1019F800AD23AE23AF23010EB027000EB123B223CF
:101A0800B323512AC70E51641200010EB427000EE9
:101A1800B523B623B723516A120005018E518F11E1
:101A280090119111D8B408D0000E8E1B000E8F1B98
:101A3800000E901B800E911B8EC58EF58FC58FF5FD
:101A480090C590F591C591F5120093ECFAF0C2801B
:101A5800C282C18600018785849F030E846F859B9F
:101A6800859D858F859985938591030E866F8C6BEF
:101A7800070E896F848F8795120093ECFAF0C28065
:101A8800C282C18600018785849F030E846F859B6F
:101A9800859D858F859985938591030E866F8C6BBF
:101AA800070E896F848F87951200010000000100DE
:101AB800000001000000010000000100000000001B
:101AC800000000000000000000000000000000000E
:101AD8000000000000000000400E0501F46111D074
:101AE800400E5E24D96EDA6A110EDA22DF50020146
:101AF800A36F5E2A3F0E5E6401D05E6A0501F42B77
:101B08001200A2921200400E0501F06111D0000EE1
:101B18005A24D96EDA6A110EDA22DF500201C96F2F
:101B28005A2A3F0E5A6401D05A6A0501F02B120056
:101B3800A7921200DEC59BF59B51D8B40FD099C56A
:101B48008EF59AC58FF51C0E906F100E916FD89078
:101B58009B35926F936B9337FAEC02F0DE6B1200B1
:101B68008EC594F58FC595F508D094C5D9F495C55B
:101B7800DAF490C5DFF4944B952B9207D8A093071D
:101B88009229F3E19329D8B41200EFD7010E3E6FE2
:101B98003D6B3F6B7F0E3B6F3A6BBD96AD86200E5B
:101BA80005018E6F160E8F6F000E906FDBEC11F033
:101BB800C30E03013C6F12000D01B5510501A76F5B
:101BC800A66B0D01B7510501A625A46F0D01B851EB
:101BD8000501A721A56FF0EC06F0050E07017E6F41
:101BE80012000D01B5510501A76FA66B0D01B75184
:101BF8000501A625A46F0D01B8510501A721A56F00
:101C0800F0EC06F0040E07017E6F1200000EDA6F8A
:101C18001B0EDB6F030EDA254B6E000EDB214C6EBC
:101C2800F00E8E6F190E8F6F000E906FE9EC11F0A9
:101C3800B9EC12F012008F6F080E0501906F916BCE
:101C4800D8908F359135916FD8908F378E51915D9F
:101C5800D8A002D08E51915F902FF2D791511200E7
:101C6800D69E550EB46FAA0EB46FB491D68E010EDF
:101C7800BF6F020EB66F070EBE6FD69E550EB46FBD
:101C8800AA0EB46FB481D68E12000801CA51CB11C6
:101C9800CC11D8B40CD001D80AD00500FA6ECA51BC
:101CA800FD6ECB51FE6ECC51FF6EFA50120004014E
:101CB8000F9D1200575008019625D96E000E9721E6
:101CC800DA6E80C0DFF4572A030E576401D0576AD2
:101CD800010EA427000EA523A623A723120000C0E7
:101CE80041459A99494100000000000096439A999D
:101CF80049410000004000011600000000000000FB
:101D0800010000001700000E156E91C517F592C569
:101D180018F5B3EC05F004D0000000000000000046
:101D2800000EAFEC0EF00009D8A41200F5D7A1BF41
:101D380005D0A0C5A0F5A1C5A1F51200A0C5A2F5C2
:101D4800A1C5A3F5A21FA31FA24BA32BA2C5A0F553
:101D5800A3C5A1F512000501906F05019051020D70
:101D6800000EF324D96E0C0EF420DA6EDE50DE106D
:101D7800D8A402D0010E1200000E12008EC579FA06
:101D88008FC57AFA90C577FA91C578FA010E0A01DB
:101D98008327000E842385238623754B762B120018
:101DA80093ECFAF0C280C2820001849F240E856FF2
:101DB800020E866F020E8C6F040E896F830E846F7D
:101DC800848F12000801C751C811C911D8B4120074
:101DD80001D812000500FA6EC751FD6EC851FE6E9B
:101DE800C951FF6EFA50120009017B517C117D1117
:101DF800D8B4120001D812000500FA6E7B51FD6EAE
:101E08007C51FE6E7D51FF6EFA501200090163513C
:101E180064116511D8B4120001D812000500FA6ED9
:101E28006351FD6E6451FE6E6551FF6EFA501200EB
:101E3800BE51BF11C011D8B4120001D8120005005C
:101E4800FA6EBE51FD6EBF51FE6EC051FF6EFA5064
:101E5800120023EE9AF001EEDAF3250EDBC4EBF460
:101E6800E806FCE20701FBA1FB81FBB31200FB8340
:101E780012000501916F020EAFEC0EF00009D8B404
:101E880012006B0058F779F72BEED6F191C5DFF405
:021E9800120036
:101E9C00FAC421F5FBC422F51CEE0EF204010FBDB1
:101EAC0049EC0EF0E55222C5FBF421C5FAF4110001
:101EBC000001919F918F94BF02D094A71200010E44
:101ECC0009011027000E112312231323BF821200C5
:101EDC0005018F6F8FC58EF5030E05018E1729EE48
:101EEC00FAF3DF508E19FC0B8E19DF6E1200C20E46
:101EFC0005018E6F0F0E8F6F2A0E906FFF0E916F74
:101F0C00936B200E926F6AEC02F01200FA0E050130
:101F1C008E6F1F0E8F6F916B000E906F080E936F6C
:101F2C00020E926FB4EC0DF01200A69861003AF616
:101F3C0086FD61003EF687FD610042F688FD61007A
:101F4C0046F689FDA68812008E6F550E0001B46FFF
:101F5C00AA0EB46FB4918EC5B8F0550EB46FAA0E1C
:101F6C00B46FB48112008E6F550E0001B46FAA0EBF
:101F7C00B46FB4918EC5B7F0550EB46FAA0EB46F92
:101F8C00B48112008E6F550E0001B46FAA0EB46F9F
:101F9C00B4918EC5B6F0550EB46FAA0EB46FB48161
:101FAC0012008EC591F58FC592F591C590F592C52D
:101FBC0091F590C592F591C58EF592C58FF51200ED
:101FCC00C9C5C5F5CAC5C6F5BE0EC76F100EC86F1C
:101FDC009EECFEF0C5C5C9F5C6C5CAF51200EB519D
:101FEC000501916F906B0301EA51050190258E6FED
:101FFC000301000E050191218F6F120003012AA528
:10200C0007D02A918AC529F389C528F32A811200A1
:0A201C008AC529F389C528F31200D4
:10202800FAC433F5FBC434F51CEE0EF2BD96E6ECAB
:102038000EF0E55234C5FBF433C5FAF41100030180
:1020480036A507D036913AC535F339C534F336810C
:1020580012003AC535F339C534F31200000E59247D
:10206800D96EDA6A1A0EDA22C7C2DFF4592A592859
:10207800D8B4596A0501EE2B120003011EA507D03A
:102088001E9186C51DF385C51CF31E81120086C5E9
:102098001DF385C51CF312001000000000000000AD
:1020A8000000000000000000000000000000000028
:0520B800000000000023
:1020BE00FF0E8E25906FFF0E8F21916F90C5BBFB8B
:1020CE0091C5BCFB0B01BD6BBE6B1200000E5D24F7
:1020DE00D96EDA6A190EDA22A1C2DFF45D2A5D2802
:1020EE00D8B45D6A5B2A1200020E0301326F200E15
:1020FE00316F336BC70E2F6F2E6BB9969F0E306FED
:10210E001200830E0001846F240E856F030E866FFE
:10211E00020E8C6F040E896FC89612004F66666CA5
:10212E00696E650000000000454D3534300000003A
:10213E0000000000380E0001456F8FC544F08EC5BB
:10214E0043F0F80E4117408146511200030157B17A
:10215E00120091C552F390C551F38FC550F38EC541
:10216E004FF31200200E0001AD6FAF6B010EB36F77
:10217E00080EB16FB06BB2B11200FDD7010E266F13
:10218E00256B276B630E236F226BB1968F0E246F18
:10219E0012000001606B616B626B636B646B656B4D
:1021AE00666B676B686B1200000E0801AC6F000E59
:1021BE00AD6F000EAE6F000EAF6F1200000E080175
:1021CE00B46F000EB56F000EB66F000EB76F120033
:1021DE000501976FFE0E92EC07F00501975192ECF8
:1021EE0007F012005650D8B404D0010E0701776FD5
:1021FE00BF82CFC4EBF51200010E09014C27000E71
:10220E004D234E234F230001976B1200000EB06F2B
:10221E00000EB16F000EB26F000EB36F1200010E02
:10222E000801A027000EA123A223A3239099120038
:10223E000501DE51D8A402D0000E1200010E1200CC
:10224E005B50D8B403D0016A012A1200016A120051
:10225E000501EE51D8B402D0010E1200000E12008C
:10226E0005018E6F8EC5ECF30301F38FF38112001F
:10227E006F6B6C6B6E6B6D6B706B716B726B120048
:10228E00010E0801A827000EA923AA23AB231200D2
:10229E00030157AB02D0010E1200000E1200555072
:1022AE00D8A402D0010E1200000E120029EEFAF38D
:1022BE00DF50030B9DECE7F0120020EE07F04851C3
:1022CE00D9264951DA2212000501986F050198515D
:1022DE00EFEC10F012000001E86B8EC5F7F08FC521
:1022EE00F8F012000001E86B8EC5EEF08FC5EFF02E
:1022FE0012008EC5D9F88FC5DAF890C5DBF812003A
:10230E008EC5DCF88FC5DDF890C5DEF812008EC5DF
:10231E00DDFA8FC5DEFA90C5DFFA12008EC5E0FA3F
:10232E008FC5E1FA90C5E2FA12008EC5DAFA8FC5B2
:10233E00DBFA90C5DCFA12008EC5E6FA8FC5E7FA15
:10234E0090C5E8FA12008EC5E9FA8FC5EAFA90C573
:10235E00EBFA12008EC5E3FA8FC5E4FA90C5E5FAE2
:10236E0012008EC5D3F88FC5D4F890C5D5F81200DB
:10237E008EC5D6F88FC5D7F890C5D8F812008EC581
:10238E00EFFA8FC5F0FA90C5F1FA12008EC581F9F9
:10239E008FC582F990C583F912008EC5ECFA8FC5F0
:1023AE00EDFA90C5EEFA12008EC5C7F88FC5C8F8C3
:1023BE0090C5C9F812008EC5BEF88FC5BFF890C57E
:1023CE00C0F812008EC566F98FC567F990C568F919
:1023DE0012008EC563F98FC564F990C565F91200B8
:1023EE008EC57BF98FC57CF990C57DF91200550E0F
:1023FE000001B46FAA0EB46FB48112008EC5CDF871
:10240E008FC5CEF890C5CFF812008EC5D0F88FC507
:10241E00D1F890C5D2F812008EC5CAF88FC5CBF888
:10242E0090C5CCF812008EC56FF98FC570F990C5A6
:10243E0071F912008EC569F98FC56AF990C56BF9ED
:10244E0012008EC56CF98FC56DF990C56EF912002C
:10245E008EC578F98FC579F990C57AF912008EC5B7
:10246E0072F98FC573F990C574F912008EC575F99E
:10247E008FC576F990C577F912008EC5C4F88FC551
:10248E00C5F890C5C6F812008EC5C1F88FC5C2F842
:10249E0090C5C3F812008EC5B8F88FC5B9F890C5AF
:1024AE00BAF812008EC57EF98FC57FF990C580F9F6
:1024BE0012008EC5BBF88FC5BCF890C5BDF81200D2
:1024CE000301F3B102D0010E1200000E1200A2FFA2
:1024DE0082FFAAFF92FF9AFF8AFF940E00017F6F80
:1024EE00400E7D6F1200276EB6A2FED727C5B6F23C
:1024FE00120005018E6F8EC5FBF31200010EE86F00
:10250E00FC9DFC9B12000001E86BFC9DFC9B1200E5
:102520001CEE0EF2BD90E552110050C519F34FC5D7
:1025300018F31200EE07E607075719040A0E070101
:102540007E6F1200080E07017E6F1200030E070156
:102550007E6F1200DEC58EF58E5112003B0E030118
:10256000EC6F12001CEE0EF2E552110007017E6BBB
:10257000120003012A811200080190871200C2ECA8
:1025800012F01200E86BFC8D1200EAEC12F012005F
:10259000030136811200ECEC12F01200D1EC12F0C3
:1025A00012000301248F120003011E811200030197
:1025B0001A8F12006DEC10F01200080190971200B3
:1025C00032EC10F01200010E8C6F1200578D1200C9
:1025D000000E12003C8F1200308F1200C19E1200BC
:1025E000BF821200BF821200BF82120012001200CE
:1025F000120012001200120012001200120012004B
:10260000120012001200120012001200120012003A
:03261000120001B4
:10CB28000000C0C101C30302C2C60607C705C5C4C9
:10CB380004CC0C0DCD0FCFCE0E0ACACB0BC90908F9
:10CB4800C8D81819D91BDBDA1A1EDEDF1FDD1D1C39
:10CB5800DC14D4D515D71716D6D21213D311D1D0C9
:10CB680010F03031F133F3F23236F6F737F5353469
:10CB7800F43CFCFD3DFF3F3EFEFA3A3BFB39F9F839
:10CB88003828E8E929EB2B2AEAEE2E2FEF2DEDECD9
:10CB98002CE42425E527E7E62622E2E323E1212009
:10CBA800E0A06061A163A3A26266A6A767A5656409
:10CBB800A46CACAD6DAF6F6EAEAA6A6BAB69A9A879
:10CBC8006878B8B979BB7B7ABABE7E7FBF7DBDBCB9
:10CBD8007CB47475B577B7B67672B2B373B1717049
:10CBE800B0509091519353529296565797559594A9
:10CBF800549C5C5D9D5F9F9E5E5A9A9B5B995958B9
:10CC080098884849894B8B8A4A4E8E8F4F8D4D4C58
:10CC18008C44848545874746868242438341818088
:10CC28004000C1814001C0804101C0804100C181F4
:10CC38004001C0804100C1814000C1814001C080E5
:10CC48004101C0804100C1814000C1814001C080D4
:10CC58004100C1814001C0804101C0804100C181C3
:10CC68004001C0804100C1814000C1814001C080B5
:10CC78004100C1814001C0804101C0804100C181A3
:10CC88004000C1814001C0804101C0804100C18194
:10CC98004001C0804100C1814000C1814001C08085
:10CCA8004101C0804100C1814000C1814001C08074
:10CCB8004100C1814001C0804101C0804100C18163
:10CCC8004000C1814001C0804101C0804100C18154
:10CCD8004001C0804100C1814000C1814001C08045
:10CCE8004100C1814001C0804101C0804100C18133
:10CCF8004001C0804100C1814000C1814001C08025
:10CD08004101C0804100C1814000C1814001C08013
:10CD18004100C1814001C0804101C0804100C18102
:10CD28004000C0C101C30302C2C60607C705C5C487
:10CD380004CC0C0DCD0FCFCE0E0ACACB0BC90908F7
:10CD4800C8D81819D91BDBDA1A1EDEDF1FDD1D1C37
:10CD5800DC14D4D515D71716D6D21213D311D1D0C7
:10CD680010F03031F133F3F23236F6F737F5353467
:10CD7800F43CFCFD3DFF3F3EFEFA3A3BFB39F9F837
:10CD88003828E8E929EB2B2AEAEE2E2FEF2DEDECD7
:10CD98002CE42425E527E7E62622E2E323E1212007
:10CDA800E0A06061A163A3A26266A6A767A5656407
:10CDB800A46CACAD6DAF6F6EAEAA6A6BAB69A9A877
:10CDC8006878B8B979BB7B7ABABE7E7FBF7DBDBCB7
:10CDD8007CB47475B577B7B67672B2B373B1717047
:10CDE800B0509091519353529296565797559594A7
:10CDF800549C5C5D9D5F9F9E5E5A9A9B5B995958B7
:10CE080098884849894B8B8A4A4E8E8F4F8D4D4C56
:10CE18008C44848545874746868242438341818086
:10CE28004000C1814001C0804101C0804100C181F2
:10CE38004001C0804100C1814000C1814001C080E3
:10CE48004101C0804100C1814000C1814001C080D2
:10CE58004100C1814001C0804101C0804100C181C1
:10CE68004001C0804100C1814000C1814001C080B3
:10CE78004100C1814001C0804101C0804100C181A1
:10CE88004000C1814001C0804101C0804100C18192
:10CE98004001C0804100C1814000C1814001C08083
:10CEA8004101C0804100C1814000C1814001C08072
:10CEB8004100C1814001C0804101C0804100C18161
:10CEC8004000C1814001C0804101C0804100C18152
:10CED8004001C0804100C1814000C1814001C08043
:10CEE8004100C1814001C0804101C0804100C18131
:10CEF8004001C0804100C1814000C1814001C08023
:10CF08004101C0804100C1814000C1814001C08011
:10CF18004100C1814001C0804101C0804100C18100
:10CF28004000C0C101C30302C2C60607C705C5C485
:10CF380004CC0C0DCD0FCFCE0E0ACACB0BC90908F5
:10CF4800C8D81819D91BDBDA1A1EDEDF1FDD1D1C35
:10CF5800DC14D4D515D71716D6D21213D311D1D0C5
:10CF680010F03031F133F3F23236F6F737F5353465
:10CF7800F43CFCFD3DFF3F3EFEFA3A3BFB39F9F835
:10CF88003828E8E929EB2B2AEAEE2E2FEF2DEDECD5
:10CF98002CE42425E527E7E62622E2E323E1212005
:10CFA800E0A06061A163A3A26266A6A767A5656405
:10CFB800A46CACAD6DAF6F6EAEAA6A6BAB69A9A875
:10CFC8006878B8B979BB7B7ABABE7E7FBF7DBDBCB5
:10CFD8007CB47475B577B7B67672B2B373B1717045
:10CFE800B0509091519353529296565797559594A5
:10CFF800549C5C5D9D5F9F9E5E5A9A9B5B995958B5
:10D0080098884849894B8B8A4A4E8E8F4F8D4D4C54
:10D018008C44848545874746868242438341818084
:10D028004000C1814001C0804101C0804100C181F0
:10D038004001C0804100C1814000C1814001C080E1
:10D048004101C0804100C1814000C1814001C080D0
:10D058004100C1814001C0804101C0804100C181BF
:10D068004001C0804100C1814000C1814001C080B1
:10D078004100C1814001C0804101C0804100C1819F
:10D088004000C1814001C0804101C0804100C18190
:10D098004001C0804100C1814000C1814001C08081
:10D0A8004101C0804100C1814000C1814001C08070
:10D0B8004100C1814001C0804101C0804100C1815F
:10D0C8004000C1814001C0804101C0804100C18150
:10D0D8004001C0804100C1814000C1814001C08041
:10D0E8004100C1814001C0804101C0804100C1812F
:10D0F8004001C0804100C1814000C1814001C08021
:10D108004101C0804100C1814000C1814001C0800F
:10D118004100C1814001C0804101C0804100C181FE
:10D128004000C0C101C30302C2C60607C705C5C483
:10D1380004CC0C0DCD0FCFCE0E0ACACB0BC90908F3
:10D14800C8D81819D91BDBDA1A1EDEDF1FDD1D1C33
:10D15800DC14D4D515D71716D6D21213D311D1D0C3
:10D1680010F03031F133F3F23236F6F737F5353463
:10D17800F43CFCFD3DFF3F3EFEFA3A3BFB39F9F833
:10D188003828E8E929EB2B2AEAEE2E2FEF2DEDECD3
:10D198002CE42425E527E7E62622E2E323E1212003
:10D1A800E0A06061A163A3A26266A6A767A5656403
:10D1B800A46CACAD6DAF6F6EAEAA6A6BAB69A9A873
:10D1C8006878B8B979BB7B7ABABE7E7FBF7DBDBCB3
:10D1D8007CB47475B577B7B67672B2B373B1717043
:10D1E800B0509091519353529296565797559594A3
:10D1F800549C5C5D9D5F9F9E5E5A9A9B5B995958B3
:10D2080098884849894B8B8A4A4E8E8F4F8D4D4C52
:10D218008C44848545874746868242438341818082
:10D228004000C1814001C0804101C0804100C181EE
:10D238004001C0804100C1814000C1814001C080DF
:10D248004101C0804100C1814000C1814001C080CE
:10D258004100C1814001C0804101C0804100C181BD
:10D268004001C0804100C1814000C1814001C080AF
:10D278004100C1814001C0804101C0804100C1819D
:10D288004000C1814001C0804101C0804100C1818E
:10D298004001C0804100C1814000C1814001C0807F
:10D2A8004101C0804100C1814000C1814001C0806E
:10D2B8004100C1814001C0804101C0804100C1815D
:10D2C8004000C1814001C0804101C0804100C1814E
:10D2D8004001C0804100C1814000C1814001C0803F
:10D2E8004100C1814001C0804101C0804100C1812D
:10D2F8004001C0804100C1814000C1814001C0801F
:10D308004101C0804100C1814000C1814001C0800D
:10D318004100C1814001C0804101C0804100C181FC
:10D328004000C0C101C30302C2C60607C705C5C481
:10D3380004CC0C0DCD0FCFCE0E0ACACB0BC90908F1
:10D34800C8D81819D91BDBDA1A1EDEDF1FDD1D1C31
:10D35800DC14D4D515D71716D6D21213D311D1D0C1
:10D3680010F03031F133F3F23236F6F737F5353461
:10D37800F43CFCFD3DFF3F3EFEFA3A3BFB39F9F831
:10D388003828E8E929EB2B2AEAEE2E2FEF2DEDECD1
:10D398002CE42425E527E7E62622E2E323E1212001
:10D3A800E0A06061A163A3A26266A6A767A5656401
:10D3B800A46CACAD6DAF6F6EAEAA6A6BAB69A9A871
:10D3C8006878B8B979BB7B7ABABE7E7FBF7DBDBCB1
:10D3D8007CB47475B577B7B67672B2B373B1717041
:10D3E800B0509091519353529296565797559594A1
:10D3F800549C5C5D9D5F9F9E5E5A9A9B5B995958B1
:10D4080098884849894B8B8A4A4E8E8F4F8D4D4C50
:10D418008C44848545874746868242438341818080
:10D428004000C1814001C0804101C0804100C181EC
:10D438004001C0804100C1814000C1814001C080DD
:10D448004101C0804100C1814000C1814001C080CC
:10D458004100C1814001C0804101C0804100C181BB
:10D468004001C0804100C1814000C1814001C080AD
:10D478004100C1814001C0804101C0804100C1819B
:10D488004000C1814001C0804101C0804100C1818C
:10D498004001C0804100C1814000C1814001C0807D
:10D4A8004101C0804100C1814000C1814001C0806C
:10D4B8004100C1814001C0804101C0804100C1815B
:10D4C8004000C1814001C0804101C0804100C1814C
:10D4D8004001C0804100C1814000C1814001C0803D
:10D4E8004100C1814001C0804101C0804100C1812B
:10D4F8004001C0804100C1814000C1814001C0801D
:10D508004101C0804100C1814000C1814001C0800B
:10D518004100C1814001C0804101C0804100C181FA
:10D528004000C0C101C30302C2C60607C705C5C47F
:10D5380004CC0C0DCD0FCFCE0E0ACACB0BC90908EF
:10D54800C8D81819D91BDBDA1A1EDEDF1FDD1D1C2F
:10D55800DC14D4D515D71716D6D21213D311D1D0BF
:10D5680010F03031F133F3F23236F6F737F535345F
:10D57800F43CFCFD3DFF3F3EFEFA3A3BFB39F9F82F
:10D588003828E8E929EB2B2AEAEE2E2FEF2DEDECCF
:10D598002CE42425E527E7E62622E2E323E12120FF
:10D5A800E0A06061A163A3A26266A6A767A56564FF
:10D5B800A46CACAD6DAF6F6EAEAA6A6BAB69A9A86F
:10D5C8006878B8B979BB7B7ABABE7E7FBF7DBDBCAF
:10D5D8007CB47475B577B7B67672B2B373B171703F
:10D5E800B05090915193535292965657975595949F
:10D5F800549C5C5D9D5F9F9E5E5A9A9B5B995958AF
:10D6080098884849894B8B8A4A4E8E8F4F8D4D4C4E
:10D618008C4484854587474686824243834181807E
:10D628004000C1814001C0804101C0804100C181EA
:10D638004001C0804100C1814000C1814001C080DB
:10D648004101C0804100C1814000C1814001C080CA
:10D658004100C1814001C0804101C0804100C181B9
:10D668004001C0804100C1814000C1814001C080AB
:10D678004100C1814001C0804101C0804100C18199
:10D688004000C1814001C0804101C0804100C1818A
:10D698004001C0804100C1814000C1814001C0807B
:10D6A8004101C0804100C1814000C1814001C0806A
:10D6B8004100C1814001C0804101C0804100C18159
:10D6C8004000C1814001C0804101C0804100C1814A
:10D6D8004001C0804100C1814000C1814001C0803B
:10D6E8004100C1814001C0804101C0804100C18129
:10D6F8004001C0804100C1814000C1814001C0801B
:10D708004101C0804100C1814000C1814001C08009
:10D718004100C1814001C0804101C0804100C181F8
:10D728004000C0C101C30302C2C60607C705C5C47D
:10D7380004CC0C0DCD0FCFCE0E0ACACB0BC90908ED
:10D74800C8D81819D91BDBDA1A1EDEDF1FDD1D1C2D
:10D75800DC14D4D515D71716D6D21213D311D1D0BD
:10D7680010F03031F133F3F23236F6F737F535345D
:10D77800F43CFCFD3DFF3F3EFEFA3A3BFB39F9F82D
:10D788003828E8E929EB2B2AEAEE2E2FEF2DEDECCD
:10D798002CE42425E527E7E62622E2E323E12120FD
:10D7A800E0A06061A163A3A26266A6A767A56564FD
:10D7B800A46CACAD6DAF6F6EAEAA6A6BAB69A9A86D
:10D7C8006878B8B979BB7B7ABABE7E7FBF7DBDBCAD
:10D7D8007CB47475B577B7B67672B2B373B171703D
:10D7E800B05090915193535292965657975595949D
:10D7F800549C5C5D9D5F9F9E5E5A9A9B5B995958AD
:10D8080098884849894B8B8A4A4E8E8F4F8D4D4C4C
:10D818008C4484854587474686824243834181807C
:10D828004000C1814001C0804101C0804100C181E8
:10D838004001C0804100C1814000C1814001C080D9
:10D848004101C0804100C1814000C1814001C080C8
:10D858004100C1814001C0804101C0804100C181B7
:10D868004001C0804100C1814000C1814001C080A9
:10D878004100C1814001C0804101C0804100C18197
:10D888004000C1814001C0804101C0804100C18188
:10D898004001C0804100C1814000C1814001C08079
:10D8A8004101C0804100C1814000C1814001C08068
:10D8B8004100C1814001C0804101C0804100C18157
:10D8C8004000C1814001C0804101C0804100C18148
:10D8D8004001C0804100C1814000C1814001C08039
:10D8E8004100C1814001C0804101C0804100C18127
:10D8F8004001C0804100C1814000C1814001C08019
:10D908004101C0804100C1814000C1814001C08007
:10D918004100C1814001C0804101C0804100C181F6
:10D928004000C0C101C30302C2C60607C705C5C47B
:10D9380004CC0C0DCD0FCFCE0E0ACACB0BC90908EB
:10D94800C8D81819D91BDBDA1A1EDEDF1FDD1D1C2B
:10D95800DC14D4D515D71716D6D21213D311D1D0BB
:10D9680010F03031F133F3F23236F6F737F535345B
:10D97800F43CFCFD3DFF3F3EFEFA3A3BFB39F9F82B
:10D988003828E8E929EB2B2AEAEE2E2FEF2DEDECCB
:10D998002CE42425E527E7E62622E2E323E12120FB
:10D9A800E0A06061A163A3A26266A6A767A56564FB
:10D9B800A46CACAD6DAF6F6EAEAA6A6BAB69A9A86B
:10D9C8006878B8B979BB7B7ABABE7E7FBF7DBDBCAB
:10D9D8007CB47475B577B7B67672B2B373B171703B
:10D9E800B05090915193535292965657975595949B
:10D9F800549C5C5D9D5F9F9E5E5A9A9B5B995958AB
:10DA080098884849894B8B8A4A4E8E8F4F8D4D4C4A
:10DA18008C4484854587474686824243834181807A
:10DA28004000C1814001C0804101C0804100C181E6
:10DA38004001C0804100C1814000C1814001C080D7
:10DA48004101C0804100C1814000C1814001C080C6
:10DA58004100C1814001C0804101C0804100C181B5
:10DA68004001C0804100C1814000C1814001C080A7
:10DA78004100C1814001C0804101C0804100C18195
:10DA88004000C1814001C0804101C0804100C18186
:10DA98004001C0804100C1814000C1814001C08077
:10DAA8004101C0804100C1814000C1814001C08066
:10DAB8004100C1814001C0804101C0804100C18155
:10DAC8004000C1814001C0804101C0804100C18146
:10DAD8004001C0804100C1814000C1814001C08037
:10DAE8004100C1814001C0804101C0804100C18125
:10DAF8004001C0804100C1814000C1814001C08017
:10DB08004101C0804100C1814000C1814001C08005
:10DB18004100C1814001C0804101C0804100C181F4
:10DB28004000C0C101C30302C2C60607C705C5C479
:10DB380004CC0C0DCD0FCFCE0E0ACACB0BC90908E9
:10DB4800C8D81819D91BDBDA1A1EDEDF1FDD1D1C29
:10DB5800DC14D4D515D71716D6D21213D311D1D0B9
:10DB680010F03031F133F3F23236F6F737F5353459
:10DB7800F43CFCFD3DFF3F3EFEFA3A3BFB39F9F829
:10DB88003828E8E929EB2B2AEAEE2E2FEF2DEDECC9
:10DB98002CE42425E527E7E62622E2E323E12120F9
:10DBA800E0A06061A163A3A26266A6A767A56564F9
:10DBB800A46CACAD6DAF6F6EAEAA6A6BAB69A9A869
:10DBC8006878B8B979BB7B7ABABE7E7FBF7DBDBCA9
:10DBD8007CB47475B577B7B67672B2B373B1717039
:10DBE800B050909151935352929656579755959499
:10DBF800549C5C5D9D5F9F9E5E5A9A9B5B995958A9
:10DC080098884849894B8B8A4A4E8E8F4F8D4D4C48
:10DC18008C44848545874746868242438341818078
:10DC28004000C1814001C0804101C0804100C181E4
:10DC38004001C0804100C1814000C1814001C080D5
:10DC48004101C0804100C1814000C1814001C080C4
:10DC58004100C1814001C0804101C0804100C181B3
:10DC68004001C0804100C1814000C1814001C080A5
:10DC78004100C1814001C0804101C0804100C18193
:10DC88004000C1814001C0804101C0804100C18184
:10DC98004001C0804100C1814000C1814001C08075
:10DCA8004101C0804100C1814000C1814001C08064
:10DCB8004100C1814001C0804101C0804100C18153
:10DCC8004000C1814001C0804101C0804100C18144
:10DCD8004001C0804100C1814000C1814001C08035
:10DCE8004100C1814001C0804101C0804100C18123
:10DCF8004001C0804100C1814000C1814001C08015
:10DD08004101C0804100C1814000C1814001C08003
:10DD18004100C1814001C0804101C0804100C181F2
:10DD28004000C0C101C30302C2C60607C705C5C477
:10DD380004CC0C0DCD0FCFCE0E0ACACB0BC90908E7
:10DD4800C8D81819D91BDBDA1A1EDEDF1FDD1D1C27
:10DD5800DC14D4D515D71716D6D21213D311D1D0B7
:10DD680010F03031F133F3F23236F6F737F5353457
:10DD7800F43CFCFD3DFF3F3EFEFA3A3BFB39F9F827
:10DD88003828E8E929EB2B2AEAEE2E2FEF2DEDECC7
:10DD98002CE42425E527E7E62622E2E323E12120F7
:10DDA800E0A06061A163A3A26266A6A767A56564F7
:10DDB800A46CACAD6DAF6F6EAEAA6A6BAB69A9A867
:10DDC8006878B8B979BB7B7ABABE7E7FBF7DBDBCA7
:10DDD8007CB47475B577B7B67672B2B373B1717037
:10DDE800B050909151935352929656579755959497
:10DDF800549C5C5D9D5F9F9E5E5A9A9B5B995958A7
:10DE080098884849894B8B8A4A4E8E8F4F8D4D4C46
:10DE18008C44848545874746868242438341818076
:10DE28004000C1814001C0804101C0804100C181E2
:10DE38004001C0804100C1814000C1814001C080D3
:10DE48004101C0804100C1814000C1814001C080C2
:10DE58004100C1814001C0804101C0804100C181B1
:10DE68004001C0804100C1814000C1814001C080A3
:10DE78004100C1814001C0804101C0804100C18191
:10DE88004000C1814001C0804101C0804100C18182
:10DE98004001C0804100C1814000C1814001C08073
:10DEA8004101C0804100C1814000C1814001C08062
:10DEB8004100C1814001C0804101C0804100C18151
:10DEC8004000C1814001C0804101C0804100C18142
:10DED8004001C0804100C1814000C1814001C08033
:10DEE8004100C1814001C0804101C0804100C18121
:10DEF8004001C0804100C1814000C1814001C08013
:10DF08004101C0804100C1814000C1814001C08001
:10DF18004100C1814001C0804101C0804100C181F0
:10DF28004000C0C101C30302C2C60607C705C5C475
:10DF380004CC0C0DCD0FCFCE0E0ACACB0BC90908E5
:10DF4800C8D81819D91BDBDA1A1EDEDF1FDD1D1C25
:10DF5800DC14D4D515D71716D6D21213D311D1D0B5
:10DF680010F03031F133F3F23236F6F737F5353455
:10DF7800F43CFCFD3DFF3F3EFEFA3A3BFB39F9F825
:10DF88003828E8E929EB2B2AEAEE2E2FEF2DEDECC5
:10DF98002CE42425E527E7E62622E2E323E12120F5
:10DFA800E0A06061A163A3A26266A6A767A56564F5
:10DFB800A46CACAD6DAF6F6EAEAA6A6BAB69A9A865
:10DFC8006878B8B979BB7B7ABABE7E7FBF7DBDBCA5
:10DFD8007CB47475B577B7B67672B2B373B1717035
:10DFE800B050909151935352929656579755959495
:10DFF800549C5C5D9D5F9F9E5E5A9A9B5B995958A5
:10E0080098884849894B8B8A4A4E8E8F4F8D4D4C44
:10E018008C44848545874746868242438341818074
:10E028004000C1814001C0804101C0804100C181E0
:10E038004001C0804100C1814000C1814001C080D1
:10E048004101C0804100C1814000C1814001C080C0
:10E058004100C1814001C0804101C0804100C181AF
:10E068004001C0804100C1814000C1814001C080A1
:10E078004100C1814001C0804101C0804100C1818F
:10E088004000C1814001C0804101C0804100C18180
:10E098004001C0804100C1814000C1814001C08071
:10E0A8004101C0804100C1814000C1814001C08060
:10E0B8004100C1814001C0804101C0804100C1814F
:10E0C8004000C1814001C0804101C0804100C18140
:10E0D8004001C0804100C1814000C1814001C08031
:10E0E8004100C1814001C0804101C0804100C1811F
:10E0F8004001C0804100C1814000C1814001C08011
:10E108004101C0804100C1814000C1814001C080FF
:10E118004100C1814001C0804101C0804100C181EE
:10E128004000C0C101C30302C2C60607C705C5C473
:10E1380004CC0C0DCD0FCFCE0E0ACACB0BC90908E3
:10E14800C8D81819D91BDBDA1A1EDEDF1FDD1D1C23
:10E15800DC14D4D515D71716D6D21213D311D1D0B3
:10E1680010F03031F133F3F23236F6F737F5353453
:10E17800F43CFCFD3DFF3F3EFEFA3A3BFB39F9F823
:10E188003828E8E929EB2B2AEAEE2E2FEF2DEDECC3
:10E198002CE42425E527E7E62622E2E323E12120F3
:10E1A800E0A06061A163A3A26266A6A767A56564F3
:10E1B800A46CACAD6DAF6F6EAEAA6A6BAB69A9A863
:10E1C8006878B8B979BB7B7ABABE7E7FBF7DBDBCA3
:10E1D8007CB47475B577B7B67672B2B373B1717033
:10E1E800B050909151935352929656579755959493
:10E1F800549C5C5D9D5F9F9E5E5A9A9B5B995958A3
:10E2080098884849894B8B8A4A4E8E8F4F8D4D4C42
:10E218008C44848545874746868242438341818072
:10E228004000C1814001C0804101C0804100C181DE
:10E238004001C0804100C1814000C1814001C080CF
:10E248004101C0804100C1814000C1814001C080BE
:10E258004100C1814001C0804101C0804100C181AD
:10E268004001C0804100C1814000C1814001C0809F
:10E278004100C1814001C0804101C0804100C1818D
:10E288004000C1814001C0804101C0804100C1817E
:10E298004001C0804100C1814000C1814001C0806F
:10E2A8004101C0804100C1814000C1814001C0805E
:10E2B8004100C1814001C0804101C0804100C1814D
:10E2C8004000C1814001C0804101C0804100C1813E
:10E2D8004001C0804100C1814000C1814001C0802F
:10E2E8004100C1814001C0804101C0804100C1811D
:10E2F8004001C0804100C1814000C1814001C0800F
:10E308004101C0804100C1814000C1814001C080FD
:10E318004100C1814001C0804101C0804100C181EC
:10E328004000C0C101C30302C2C60607C705C5C471
:10E3380004CC0C0DCD0FCFCE0E0ACACB0BC90908E1
:10E34800C8D81819D91BDBDA1A1EDEDF1FDD1D1C21
:10E35800DC14D4D515D71716D6D21213D311D1D0B1
:10E3680010F03031F133F3F23236F6F737F5353451
:10E37800F43CFCFD3DFF3F3EFEFA3A3BFB39F9F821
:10E388003828E8E929EB2B2AEAEE2E2FEF2DEDECC1
:10E398002CE42425E527E7E62622E2E323E12120F1
:10E3A800E0A06061A163A3A26266A6A767A56564F1
:10E3B800A46CACAD6DAF6F6EAEAA6A6BAB69A9A861
:10E3C8006878B8B979BB7B7ABABE7E7FBF7DBDBCA1
:10E3D8007CB47475B577B7B67672B2B373B1717031
:10E3E800B050909151935352929656579755959491
:10E3F800549C5C5D9D5F9F9E5E5A9A9B5B995958A1
:10E4080098884849894B8B8A4A4E8E8F4F8D4D4C40
:10E418008C44848545874746868242438341818070
:10E428004000C1814001C0804101C0804100C181DC
:10E438004001C0804100C1814000C1814001C080CD
:10E448004101C0804100C1814000C1814001C080BC
:10E458004100C1814001C0804101C0804100C181AB
:10E468004001C0804100C1814000C1814001C0809D
:10E478004100C1814001C0804101C0804100C1818B
:10E488004000C1814001C0804101C0804100C1817C
:10E498004001C0804100C1814000C1814001C0806D
:10E4A8004101C0804100C1814000C1814001C0805C
:10E4B8004100C1814001C0804101C0804100C1814B
:10E4C8004000C1814001C0804101C0804100C1813C
:10E4D8004001C0804100C1814000C1814001C0802D
:10E4E8004100C1814001C0804101C0804100C1811B
:10E4F8004001C0804100C1814000C1814001C0800D
:10E508004101C0804100C1814000C1814001C080FB
:10E518004100C1814001C0804101C0804100C181EA
:10E528004000C0C101C30302C2C60607C705C5C46F
:10E5380004CC0C0DCD0FCFCE0E0ACACB0BC90908DF
:10E54800C8D81819D91BDBDA1A1EDEDF1FDD1D1C1F
:10E55800DC14D4D515D71716D6D21213D311D1D0AF
:10E5680010F03031F133F3F23236F6F737F535344F
:10E57800F43CFCFD3DFF3F3EFEFA3A3BFB39F9F81F
:10E588003828E8E929EB2B2AEAEE2E2FEF2DEDECBF
:10E598002CE42425E527E7E62622E2E323E12120EF
:10E5A800E0A06061A163A3A26266A6A767A56564EF
:10E5B800A46CACAD6DAF6F6EAEAA6A6BAB69A9A85F
:10E5C8006878B8B979BB7B7ABABE7E7FBF7DBDBC9F
:10E5D8007CB47475B577B7B67672B2B373B171702F
:10E5E800B05090915193535292965657975595948F
:10E5F800549C5C5D9D5F9F9E5E5A9A9B5B9959589F
:10E6080098884849894B8B8A4A4E8E8F4F8D4D4C3E
:10E618008C4484854587474686824243834181806E
:10E628004000C1814001C0804101C0804100C181DA
:10E638004001C0804100C1814000C1814001C080CB
:10E648004101C0804100C1814000C1814001C080BA
:10E658004100C1814001C0804101C0804100C181A9
:10E668004001C0804100C1814000C1814001C0809B
:10E678004100C1814001C0804101C0804100C18189
:10E688004000C1814001C0804101C0804100C1817A
:10E698004001C0804100C1814000C1814001C0806B
:10E6A8004101C0804100C1814000C1814001C0805A
:10E6B8004100C1814001C0804101C0804100C18149
:10E6C8004000C1814001C0804101C0804100C1813A
:10E6D8004001C0804100C1814000C1814001C0802B
:10E6E8004100C1814001C0804101C0804100C18119
:10E6F8004001C0804100C1814000C1814001C0800B
:10E708004101C0804100C1814000C1814001C080F9
:10E718004100C1814001C0804101C0804100C181E8
:10E728004000C0C101C30302C2C60607C705C5C46D
:10E7380004CC0C0DCD0FCFCE0E0ACACB0BC90908DD
:10E74800C8D81819D91BDBDA1A1EDEDF1FDD1D1C1D
:10E75800DC14D4D515D71716D6D21213D311D1D0AD
:10E7680010F03031F133F3F23236F6F737F535344D
:10E77800F43CFCFD3DFF3F3EFEFA3A3BFB39F9F81D
:10E788003828E8E929EB2B2AEAEE2E2FEF2DEDECBD
:10E798002CE42425E527E7E62622E2E323E12120ED
:10E7A800E0A06061A163A3A26266A6A767A56564ED
:10E7B800A46CACAD6DAF6F6EAEAA6A6BAB69A9A85D
:10E7C8006878B8B979BB7B7ABABE7E7FBF7DBDBC9D
:10E7D8007CB47475B577B7B67672B2B373B171702D
:10E7E800B05090915193535292965657975595948D
:10E7F800549C5C5D9D5F9F9E5E5A9A9B5B9959589D
:10E8080098884849894B8B8A4A4E8E8F4F8D4D4C3C
:10E818008C4484854587474686824243834181806C
:10E828004000C1814001C0804101C0804100C181D8
:10E838004001C0804100C1814000C1814001C080C9
:10E848004101C0804100C1814000C1814001C080B8
:10E858004100C1814001C0804101C0804100C181A7
:10E868004001C0804100C1814000C1814001C08099
:10E878004100C1814001C0804101C0804100C18187
:10E888004000C1814001C0804101C0804100C18178
:10E898004001C0804100C1814000C1814001C08069
:10E8A8004101C0804100C1814000C1814001C08058
:10E8B8004100C1814001C0804101C0804100C18147
:10E8C8004000C1814001C0804101C0804100C18138
:10E8D8004001C0804100C1814000C1814001C08029
:10E8E8004100C1814001C0804101C0804100C18117
:10E8F8004001C0804100C1814000C1814001C08009
:10E908004101C0804100C1814000C1814001C080F7
:10E918004100C1814001C0804101C0804100C181E6
:10E92800400103000000000000000000000000009B
:10E9380000000000000000000000000000000000CF
:10E9480000000000000000000000000000000000BF
:10E9580000000000000000000000000000000000AF
:10E96800000000000000000000000000000000009F
:10E97800000000000000000000000000000000008F
:10E98800000000000000000000000000000000007F
:10E99800000000000000000000000000000000006F
:10E9A800000000000000000000000000000000005F
:10E9B8000000000000000000000002040000000049
:10E9C800000000000000000000000000000000003F
:10E9D800000000000000000000000000000000002F
:10E9E800000000000000000000000000000000001F
:10E9F800000000000000000000000000000000000F
:10EA080000000000000000000000000000000000FE
:10EA180000000000000000000000000000000000EE
:10EA280000000000000000000000000000000000DE
:10EA380000000000000000000000000000000001CD
:10EA480003000000000000000000000000000000BB
:10EA580000000000000000000000000000000000AE
:10EA6800000000000000000000000000000000009E
:10EA7800000000000000000000000000000000008E
:10EA8800000000000000000000000000000000007E
:10EA9800000000000000000000000000000000006E
:10EAA800000000000000000000000000000000005E
:10EAB800000000000000000000000000000000004E
:10EAC800000000000103000000000000000000003A
:10EAD800000000000000000000000000000000002E
:10EAE800000000000000000000000000000000001E
:10EAF800000000000000000000000000000000000E
:10EB080000000000000000000000000000000000FD
:10EB180000000000000000000000000000000000ED
:10EB280000000000000000000000000000000000DD
:10EB3800000AD7233CCDCCCC3DCDCC4C3E9A9999FC
:10EB48003E0000003F9A99193F6666263F333333EB
:10EB58003F6666663FA4707D3F0000803F000080EE
:10EB68003F0000A0410000C841CDCCC8416666CA3C
:10EB7800410000CC416666CE410000D0419A99D14F
:10EB880041CDCCD4416666D6419A99D94100000C52
:10EB98004225732025642025732020202020202052
:10EBA800202020202020202020202020202020205D
:10EBB800202020202020202020202020202020006D
:10EBC8004F4E4C494E45204125642C205225642047
:10EBD800524625642C2054256420544625642C2054
:10EBE8004325642025642025732020202020004808
:10EBF8006F7374204125642C2052256420524625C9
:10EC0800642C2054256420544625642C2043256414
:10EC18002025642025732020202020202000554E08
:10EC28004B20464F524D4154204125642C205225FB
:10EC38006420524625642C205425642054462564BB
:10EC48002C204325642025732020200025732025AF
:10EC58007320202020202020202020202020202059
:10EC6800202020202020202020202020202020209C
:10EC780020202020202000257320257320202020FC
:10EC8800202020202020202020202020202020207C
:10EC980020202020202020202020202020200001AB
:10ECA8000300000000000000000000000000000059
:10ECB800000000000000000000000000000000004C
:10ECC80056332E303120464D783020696E74657287
:10ECD8006661636520513834004F66666C696E65FD
:10ECE800000000000043414E425553000000000060
:10ECF8000001030000000000000000000000000008
:10ED0800000000000000000103000000D600000021
:10ED180001000000DA00000103000000D600000036
:10ED280000000000D9001F1E1F1E1F1F1E1F1E1FD0
:10ED38001F1D021000010002040200000002100062
:10ED48000100020402010000021000010002040296
:10ED5800010100021000020001020000021000027E
:10ED68000001020100021000000000000000030082
:10ED7800040001C41A01060000000000000106009A
:10ED88000000000000010600000000000001030070
:10ED980000000000010300000000008320030400BD
:10EDA80000240500018324030400000054420000ED
:10EDB800544200008841CD0C0543E5612140000024
:10EDC80000000000804500401C4700401C47000030
:10EDD8008841CD0C0543E5612140008080420080D8
:10EDE8008042000000000000804500401C470000F1
:10EDF8008841CD0C0543E5612140008080420080B8
:10EE08008042000000000000804500401C470000D0
:10EE18008841CD0C0543E561214000808042008097
:10EE280080420000000000008045BC000000BA7F5E
:10EE3800FFFEC80080003400000000401C470000AE
:10EE48008841CD0C0543E561214000808042008067
:10EE58008042000000000000804500401C47000080
:10EE68008841CD0C0543E561214000808042008047
:10EE78008042000000000000804500401C47000060
:10EE88008841CD0C0543E561214000808042008027
:10EE98008042000000000000804500401C47000040
:10EEA8008841CD0C0543E561214000808042008007
:10EEB8008042000000000000804500401C47000020
:10EEC8008841CD0C0543E5612140008080420080E7
:10EED8008042000000000000804500401C47000000
:10EEE8008841CD0C0543E5612140008080420080C7
:10EEF8008042000000000000804500401C470000E0
:10EF080088410000804518000002008813040002B0
:10EF1800002800B004020002000300020088130465
:10EF28000002002800B004020002000300B004DC64
:10EF380005F4016400400660091027B80B30750518
:10EF48009904990399B004DC05F401640040066053
:10EF5800091027B80B059904990399B004DC05F446
:10EF6800016400400660091027B80B05990499034D
:10EF780099B004DC05F4016400400660091027B864
:10EF88000B059904990399B004DC05F40164004069
:10EF98000660091027B80B059904990399B004DC99
:10EFA80005F4016400400660091027B80BB004DCC2
:10EFB80005F4016400400660091027B80B059904A0
:10EFC800990399B004DC05F4016400400660091057
:10EFD80027B80BB004DC05F4016400400660091092
:10EFE80027B80B3075059904990399B004DC05F42A
:10EFF800016400400660091027B80B3075E8FF3C33
:10F00800002300059904990399B004DC05F4016410
:10F0180000400660091027B80BFF00C80228040248
:10F0280028C80102FF00C80228040228C80102FFFC
:10F0380000C80228040228C8010206465A2D0120E9
:10F048004601FF00C80228040228C80102FF00C8C0
:10F058000228040228C801028003C801070707071D
:10F068000707070D050440400FF001050F67FF4033
:10F0780010F0E0D0C0B0A090800006465A2D0120C4
:10F088004601FF00C80228040228C8010207070732
:10F09800070707070D050440400FF001050F67FF3C
:10F0A8004010F0E0D0C0B0A090800006465A2D0174
:10F0B800204601FF00C80228040228C801020707E9
:10F0C80007070707070D050440400FF001050F6704
:10F0D800FF4010F0E0D0C0B0A090800006465A2D46
:10F0E80001204601FF00C80228040228C8010207BF
:10F0F8000707070707070D050440400FF001050F34
:10F1080067FF4010F0E0D0C0B0A090800006465ADB
:10F118002D01204601FF00C80228040228C8010268
:10F12800070707070707070D050440400FF001050B
:10F138000F67FF4010F0E0D0C0B0A09080000646F6
:10F148005A2D01204601FF00C80228040228C801E0
:10F158000206465A2D01204601FF00C80228040273
:10F1680028C80102070707070707070D05044040DD
:10F178000FF001050F67FF4010F0E0D0C0B0A0907D
:10F18800800006465A2D01204601FF00C8022804C7
:10F198000228C8010206465A2D01204601FF00C870
:10F1A8000228040228C801028003C80107070707CC
:10F1B8000707070D050440400FF001050F67FF40E2
:10F1C80010F0E0D0C0B0A090800006465A2D012073
:10F1D8004601FF00C80228040228C801028003C8AB
:10F1E80001070707070707070D050440400FF0014F
:10F1F800050F67FF4010F0E0D0C0B0A09080000677
:10F20800465A2D01204601FF00C80228040228C8DA
:10F2180001025E2C25642C25332E32662C25332ED4
:10F2280032662C25332E32662C25332E32662C2559
:10F23800332E32662C25332E32662C25332E326639
:10F248002C25332E32662C25642E253031642C254E
:10F25800642E253031642C25642E253031642C250C
:10F26800642C25642C25642C25642C25642C256CA1
:10F278006C752C25372E34662C25372E34662C25B4
:10F28800362E34662C25372E34662C313935372CFA
:10F298007E454F5420202020202020202020202080
:10F2A8002020202020202020202020202020202056
:10F2B8002020202020202020202020202020202046
:10F2C8002020202020200D0A005E2C25642C2533C8
:10F2D8002E32662C25332E32662C25332E32662CA0
:10F2E80025332E32662C25332E32662C25332E32CA
:10F2F800662C25332E32662C25332E32662C256457
:10F308002E253031642C25642E253031642C25645B
:10F318002E253031642C25642C25642C25642C255D
:10F32800642C25642C256C6C752C25372E34662CA2
:10F3380025372E34662C25362E34662C25372E3468
:10F34800662C313935372C7E454F5420202020201B
:10F3580020202020202020202020202020202020A5
:10F368002020202020202020202020202020202095
:10F37800202020202020202020202020200D0A00CE
:10F388005E2C25642C25332E32662C25332E3266CE
:10F398002C25332E32662C25332E32662C25332E1F
:10F3A80032662C25332E32662C25332E32662C25D8
:10F3B800332E32662C25642E253031642C25642E9C
:10F3C800253031642C25642E253031642C25642C9D
:10F3D80025642C25642C25642C25642C256C6C75DF
:10F3E8002C25362E34662C25362E34662C25362EC2
:10F3F80034662C25362E34662C313935372C7E452B
:10F408004F54202020202020202020202020202091
:10F4180020202020202020202020202020202020E4
:10F4280020202020202020202020202020202020D4
:10F43800202020200D0A005E2C25642C25332E3236
:10F44800662C25332E32662C25332E32662C253336
:10F458002E32662C25332E32662C25332E32662C1E
:10F4680025332E32662C25332E32662C25642E2524
:10F478003031642C25642E253031642C25642E25EA
:10F488003031642C25642C25642C25642C25642CAF
:10F4980025642C256C6C752C25362E33662C253668
:10F4A8002E33662C25362E33662C25362E33662CC5
:10F4B800313935372C7E454F5420202020202020FC
:10F4C8002020202020202020202020202020202034
:10F4D8002020202020202020202020202020202024
:10F4E80020202020202020202020200D0A007C7CA5
:10F4F8002F2F2D2D0000000000000000000000004C
:10F5080000007C7C2F2F2D2D5C5C0000000000008B
:10F518000000000000004F4F4F4F4F4F2D2D5F5FF1
:10F528002D00000000000000000076763C3C5E5E86
:10F538003E3E0000000000000000000000002E2EEB
:10F548002A2A7823782358587C7C2D2D0000000027
:10F5580000002E2E6F6F4F4F6F6F000000000000ED
:10F56800000000000000536C65657000000000009A
:10F578000000466C6F6174000000000000004275D6
:10F588006C6B00000000000000004162736F726243
:10F59800000000000000457175616C697A65000023
:10F5A80000004E2F412000000000000000004F66C0
:10F5B800666C696E650000000000464D78300000FA
:10F5C80000000000000000010300400002000000ED
:10F5D80001000000460000010200000004000000D5
:10F5E8000000000006000001020000000300000007
:10F5F80000000000050000010200000002000000F9
:10F6080000000000040000010200000000000000EB
:10F618000000000002000001020001006A00000072
:10F62800000000006D00000102000100C70000009A
:10F6380000000000CA0000010200000008000000ED
:10F64800000000000A00000102000100C6000000DE
:10F6580000000000C90000010400000001000000D3
:10F66800000000000500000102000100C8000000C1
:10F6780000000000CB0000010200000000000000B4
:10F6880000000000020001100066000204000000F3
:10F698000075AD0110006300020400000000B5927F
:10F6A8000110000C00020400000000F3FA02100030
:10F6B80001000204020001000204000000400103EE
:10F6C8000078000E01030048004A010616040005F0
:10F6D800010610000000010610020000010350009E
:10F6E8000008010305000040010300000034010385
:10F6F800030200010103000B0001299C8042299CA0
:10F70800804200808042008080422DB2804239B41D
:10F7180080421FC58042CFB780429A995E42666692
:10F728005E42E590584289C1584273488042C5609C
:10F738008042FC898042FC898042008080420080AF
:10F748008042B400000204000000020000010A0028
:10F758000001C77FFFFFC57FFFFFB4001000B77F20
:10F76800FFFFB8000001C2000000E4000001CD0C5A
:10F778000543E5612140008080420080804200000E
:10F7880000000400000CFFFF0B000010FFFF40F713
:10F7980025342E3266487A2025332E3166522025AC
:10F7A800332E326650662020202020202020202062
:10F7B8002020202020202020202020202000253448
:10F7C8002E3266487A2025332E3266522025332E73
:10F7D8003266506620202020202020202020202053
:10F7E800202020202020202020202000424D4320BF
:10F7F800256C7520203058252E32582020202020B6
:10F8080020202020202020202020202020202020F0
:10F8180020202020202020200025322E31664B5722
:10F828006820666C6F61742025332E31666820204D
:10F8380020202020202020202020202020202020C0
:10F848002020202020000D2D2D2D20544943313219
:10F858003430302044726976657220566572736957
:10F868006F6E202573202573202573202D2D2D0DD7
:10F878000A000D2D2D2D204D4333333939362044C0
:10F8880072697665722056657273696F6E2025738A
:10F89800202573202573202D2D2D0D0A004241545B
:10F8A8002025642E25303164562050562025642E9C
:10F8B80025303164562020202020202020202020A0
:10F8C8002020202020200025342E30662025342EAC
:10F8D80030662025342E306650682025322E30665A
:10F8E80057202020202020202020202020202020D9
:10F8F800004325752053256C752055252E32662525
:10F9080025202020202020202020202020202020EA
:10F9180020202020202020202000342025362E33AF
:10F9280066562C352025362E33665620202020207A
:10F9380020202020202020202020202020202020BF
:10F948002000426D61782025755620426D696E2031
:10F95800257556202020202020202020202020200F
:10F968002020202020202020200025342E30662032
:10F9780025342E30662025342E30662025342E304E
:10F9880066572020202020202020202020202020F2
:10F99800200025342E30662025342E30662025346C
:10F9A8002E306656612025322E3066487A20202077
:10F9B80020202020202020202000424D4320256C9C
:10F9C80075202020202020202020202020202020DA
:10F9D800202020202020202020202020202020201F
:10F9E800004F4620256C752045525220256C752005
:10F9F80020202020202020202020202020202020FF
:10FA0800202020202020200020256C6C58205275B2
:10FA18006E20446973706C6179203058252E3258F5
:10FA280020202020202020202020202020004A6183
:10FA38006E4665624D61724170724D61794A756EAC
:10FA48004A756C4175675365704F63744E6F7644A1
:10FA580065630025332E32662025332E3266202535
:10FA6800332E32665066202020202020202020209F
:10FA78002020202020200025342E306657202534D1
:10FA88002E306656612025332E326650662020209F
:10FA9800202020202020202020200025332E326600
:10FAA800572025332E326656612025332E32665074
:10FAB8006620202020202020202020202020002513
:10FAC80073205665722025732020202020202020B6
:10FAD800202020202020202020202020202020003E
:10FAE80025732025732025642E2530316441202577
:10FAF8006441202020202020202020202020202099
:10FB080000204D65736720256420537461636B2062
:10FB18002564202020202020202020202020202094
:10FB2800004D554920256C6C5820504943202558D4
:10FB380020202020202020202020202020202020BD
:10FB480000205465726D696E616C20496E666F2085
:10FB580020202020202020202020202020200020BD
:10FB680048454C502053637265656E3A20256420E1
:10FB78002020202020202020202000257320202045
:10FB8800202020202020202020202020202020206D
:10FB98002020202020200025732025342E31665671
:10FBA8002025342E326641202020202020202020AD
:10FBB80020200025732025342E3166562025342E2A
:10FBC80031665720202020202020202020200020BF
:10FBD800506F7274204C6F636B20232564202020A3
:10FBE80020202020202020202000205465726D69CC
:10FBF8006E616C20256420202020202020202020D9
:10FC08002020200020434D44202563202563204CDC
:10FC1800656E20256420202020202020200020251B
:10FC2800635049204441515F424D432025732020B1
:10FC38002020202020200048454C502025732020DB
:10FC480020202020202020202020202020200020CC
:10FC58004F70656E204C4C20202020202020202032
:10FC6800202020202020002050756D70204C4C2032
:10FC7800202020202020202020202020202000209C
:10FC88005265616479204C4C2020202020202020BF
:10FC980020202020202000205332463431202325E4
:10FCA8006320202020202020202020202020004405
:10FCB8004953504C415920257320202020202020D2
:10FCC800202020202020002053746F726564202398
:10FCD800256420202020202020202020202000769D
:10FCE8007465726D2025783A257820202020202000
:10FCF800202020202020002053455155454E4345C3
:10FD080020256420202020202020202020200020C2
:10FD1800446973706C6179206E756D2025642020AC
:10FD28002020202020200020532564462564206CB4
:10FD38006F672020202025642020202020200020FC
:10FD48004C6F61642D6C6F636B206E756D2025643C
:10FD58002020202020200020257320202020202063
:10FD68002020202020202020202020202000204982
:10FD78004E464F20202020202020202020202020F8
:10FD8800202020200020565445524D20494E464FF1
:10FD980020202020202020202020200020565445EC
:10FDA800524D2048454C5020202020202020202043
:10FDB8002020002056657273696F6E2025732020FD
:10FDC8002020202020202020200020257320416C86
:10FDD8006C20446576202020202020202020202010
:10FDE800002048454C50204275696C6420257320DA
:10FDF800202020202020200020257320416E616CC7
:10FE08006F67204465762020202020202020005382
:10FE1800756E4D6F6E547565576564546875467296
:10FE2800695361740048454C5020257320202020D8
:10FE3800202020202020202020200043616C69629F
:10FE4800726174696F6E20436F6D706C65746520A4
:10FE58000057454D3330383020447269766572203A
:10FE68002020202020002573202020202020202052
:10FE780020202020202020202020002573202573EA
:10FE8800202020202020202020202020202020008A
:10FE9800506F7274202573202020202020202020DD
:10FEA8002020202000424D43426F6172642044723A
:10FEB8006976657220202020200052656164204503
:10FEC8004550524F4D204441544120202020005796
:10FED8007269746520454550524F4D204441544144
:10FEE8002020200055706461746520454550524FAC
:10FEF8004D2044415441202000496E76616C69646C
:10FF080020454550524F4D20444154412000504F08
:10FF18005745524D20447269766572202020202072
:10FF28002000454D353430204472697665722020B2
:10FF38002020202020002573202020202020202081
:10FF480020202020202020202000505A454D2044E9
:10FF58007269766572202020202020004D6179206A
:10FF6800323520323032360031313A34343A333691
:10FF78000031313A34343A333500434F4D4D202067
:10FF880020004552524F522020004F4E4C494E45BA
:10FF9800200052454D4F5445200044495341424C9E
:10FFA80045004F46464C494E4500286E756C6C29F5
:10FFB80000504F5745524D0057454D3330003437A8
:10FFC8005138340035375138340056302E36380021
:10FFD800505A454D0056302E370056302E380049BD
:10FFE8004E46004E414E00696E66006E616E0047D7
:07FFF8004D540025730000C9
