:0400000085EF00F098
:10000800417441744174417441744174417418736A
:100018004174417415702370417441744174417482
:100028003170417441744174F96F417407704174BF
:1000380041744174417441743C6F41744174B26FAE
:10004800BC70AE7041744174417441744174417420
:10005800D8704174CA704174FC6D41744174417424
:1000680041744174417441743F704D705B704174C8
:100078004174417441744174420041744174417443
:1000880041744174417441742C6F417441744174DA
:10009800F470E670417441744200417441744174D3
:1000A800417441744174417469707770857041740A
:1000B800417441744174DE6E4174417441744174F9
:1000C8004174417441744174417441744174417480
:1000D8004174417441744174417441744174417470
:1000E80042004174417441744174417441744174D3
:1000F8003874417441742573417441744174417476
:06010800FF0048EFBAF011
:10D512000000C0C101C30302C2C60607C705C5C4D5
:10D5220004CC0C0DCD0FCFCE0E0ACACB0BC9090805
:10D53200C8D81819D91BDBDA1A1EDEDF1FDD1D1C45
:10D54200DC14D4D515D71716D6D21213D311D1D0D5
:10D5520010F03031F133F3F23236F6F737F5353475
:10D56200F43CFCFD3DFF3F3EFEFA3A3BFB39F9F845
:10D572003828E8E929EB2B2AEAEE2E2FEF2DEDECE5
:10D582002CE42425E527E7E62622E2E323E1212015
:10D59200E0A06061A163A3A26266A6A767A5656415
:10D5A200A46CACAD6DAF6F6EAEAA6A6BAB69A9A885
:10D5B2006878B8B979BB7B7ABABE7E7FBF7DBDBCC5
:10D5C2007CB47475B577B7B67672B2B373B1717055
:10D5D200B0509091519353529296565797559594B5
:10D5E200549C5C5D9D5F9F9E5E5A9A9B5B995958C5
:10D5F20098884849894B8B8A4A4E8E8F4F8D4D4C65
:10D602008C44848545874746868242438341818094
:10D612004000C1814001C0804101C0804100C18100
:10D622004001C0804100C1814000C1814001C080F1
:10D632004101C0804100C1814000C1814001C080E0
:10D642004100C1814001C0804101C0804100C181CF
:10D652004001C0804100C1814000C1814001C080C1
:10D662004100C1814001C0804101C0804100C181AF
:10D672004000C1814001C0804101C0804100C181A0
:10D682004001C0804100C1814000C1814001C08091
:10D692004101C0804100C1814000C1814001C08080
:10D6A2004100C1814001C0804101C0804100C1816F
:10D6B2004000C1814001C0804101C0804100C18160
:10D6C2004001C0804100C1814000C1814001C08051
:10D6D2004100C1814001C0804101C0804100C1813F
:10D6E2004001C0804100C1814000C1814001C08031
:10D6F2004101C0804100C1814000C1814001C08020
:10D702004100C1814001C0804101C0804100C1810E
:10D712004000C0C101C30302C2C60607C705C5C493
:10D7220004CC0C0DCD0FCFCE0E0ACACB0BC9090803
:10D73200C8D81819D91BDBDA1A1EDEDF1FDD1D1C43
:10D74200DC14D4D515D71716D6D21213D311D1D0D3
:10D7520010F03031F133F3F23236F6F737F5353473
:10D76200F43CFCFD3DFF3F3EFEFA3A3BFB39F9F843
:10D772003828E8E929EB2B2AEAEE2E2FEF2DEDECE3
:10D782002CE42425E527E7E62622E2E323E1212013
:10D79200E0A06061A163A3A26266A6A767A5656413
:10D7A200A46CACAD6DAF6F6EAEAA6A6BAB69A9A883
:10D7B2006878B8B979BB7B7ABABE7E7FBF7DBDBCC3
:10D7C2007CB47475B577B7B67672B2B373B1717053
:10D7D200B0509091519353529296565797559594B3
:10D7E200549C5C5D9D5F9F9E5E5A9A9B5B995958C3
:10D7F20098884849894B8B8A4A4E8E8F4F8D4D4C63
:10D802008C44848545874746868242438341818092
:10D812004000C1814001C0804101C0804100C181FE
:10D822004001C0804100C1814000C1814001C080EF
:10D832004101C0804100C1814000C1814001C080DE
:10D842004100C1814001C0804101C0804100C181CD
:10D852004001C0804100C1814000C1814001C080BF
:10D862004100C1814001C0804101C0804100C181AD
:10D872004000C1814001C0804101C0804100C1819E
:10D882004001C0804100C1814000C1814001C0808F
:10D892004101C0804100C1814000C1814001C0807E
:10D8A2004100C1814001C0804101C0804100C1816D
:10D8B2004000C1814001C0804101C0804100C1815E
:10D8C2004001C0804100C1814000C1814001C0804F
:10D8D2004100C1814001C0804101C0804100C1813D
:10D8E2004001C0804100C1814000C1814001C0802F
:10D8F2004101C0804100C1814000C1814001C0801E
:10D902004100C1814001C0804101C0804100C1810C
:10D912004000C0C101C30302C2C60607C705C5C491
:10D9220004CC0C0DCD0FCFCE0E0ACACB0BC9090801
:10D93200C8D81819D91BDBDA1A1EDEDF1FDD1D1C41
:10D94200DC14D4D515D71716D6D21213D311D1D0D1
:10D9520010F03031F133F3F23236F6F737F5353471
:10D96200F43CFCFD3DFF3F3EFEFA3A3BFB39F9F841
:10D972003828E8E929EB2B2AEAEE2E2FEF2DEDECE1
:10D982002CE42425E527E7E62622E2E323E1212011
:10D99200E0A06061A163A3A26266A6A767A5656411
:10D9A200A46CACAD6DAF6F6EAEAA6A6BAB69A9A881
:10D9B2006878B8B979BB7B7ABABE7E7FBF7DBDBCC1
:10D9C2007CB47475B577B7B67672B2B373B1717051
:10D9D200B0509091519353529296565797559594B1
:10D9E200549C5C5D9D5F9F9E5E5A9A9B5B995958C1
:10D9F20098884849894B8B8A4A4E8E8F4F8D4D4C61
:10DA02008C44848545874746868242438341818090
:10DA12004000C1814001C0804101C0804100C181FC
:10DA22004001C0804100C1814000C1814001C080ED
:10DA32004101C0804100C1814000C1814001C080DC
:10DA42004100C1814001C0804101C0804100C181CB
:10DA52004001C0804100C1814000C1814001C080BD
:10DA62004100C1814001C0804101C0804100C181AB
:10DA72004000C1814001C0804101C0804100C1819C
:10DA82004001C0804100C1814000C1814001C0808D
:10DA92004101C0804100C1814000C1814001C0807C
:10DAA2004100C1814001C0804101C0804100C1816B
:10DAB2004000C1814001C0804101C0804100C1815C
:10DAC2004001C0804100C1814000C1814001C0804D
:10DAD2004100C1814001C0804101C0804100C1813B
:10DAE2004001C0804100C1814000C1814001C0802D
:10DAF2004101C0804100C1814000C1814001C0801C
:10DB02004100C1814001C0804101C0804100C1810A
:10DB12004000C0C101C30302C2C60607C705C5C48F
:10DB220004CC0C0DCD0FCFCE0E0ACACB0BC90908FF
:10DB3200C8D81819D91BDBDA1A1EDEDF1FDD1D1C3F
:10DB4200DC14D4D515D71716D6D21213D311D1D0CF
:10DB520010F03031F133F3F23236F6F737F535346F
:10DB6200F43CFCFD3DFF3F3EFEFA3A3BFB39F9F83F
:10DB72003828E8E929EB2B2AEAEE2E2FEF2DEDECDF
:10DB82002CE42425E527E7E62622E2E323E121200F
:10DB9200E0A06061A163A3A26266A6A767A565640F
:10DBA200A46CACAD6DAF6F6EAEAA6A6BAB69A9A87F
:10DBB2006878B8B979BB7B7ABABE7E7FBF7DBDBCBF
:10DBC2007CB47475B577B7B67672B2B373B171704F
:10DBD200B0509091519353529296565797559594AF
:10DBE200549C5C5D9D5F9F9E5E5A9A9B5B995958BF
:10DBF20098884849894B8B8A4A4E8E8F4F8D4D4C5F
:10DC02008C4484854587474686824243834181808E
:10DC12004000C1814001C0804101C0804100C181FA
:10DC22004001C0804100C1814000C1814001C080EB
:10DC32004101C0804100C1814000C1814001C080DA
:10DC42004100C1814001C0804101C0804100C181C9
:10DC52004001C0804100C1814000C1814001C080BB
:10DC62004100C1814001C0804101C0804100C181A9
:10DC72004000C1814001C0804101C0804100C1819A
:10DC82004001C0804100C1814000C1814001C0808B
:10DC92004101C0804100C1814000C1814001C0807A
:10DCA2004100C1814001C0804101C0804100C18169
:10DCB2004000C1814001C0804101C0804100C1815A
:10DCC2004001C0804100C1814000C1814001C0804B
:10DCD2004100C1814001C0804101C0804100C18139
:10DCE2004001C0804100C1814000C1814001C0802B
:10DCF2004101C0804100C1814000C1814001C0801A
:10DD02004100C1814001C0804101C0804100C18108
:10DD12004000C0C101C30302C2C60607C705C5C48D
:10DD220004CC0C0DCD0FCFCE0E0ACACB0BC90908FD
:10DD3200C8D81819D91BDBDA1A1EDEDF1FDD1D1C3D
:10DD4200DC14D4D515D71716D6D21213D311D1D0CD
:10DD520010F03031F133F3F23236F6F737F535346D
:10DD6200F43CFCFD3DFF3F3EFEFA3A3BFB39F9F83D
:10DD72003828E8E929EB2B2AEAEE2E2FEF2DEDECDD
:10DD82002CE42425E527E7E62622E2E323E121200D
:10DD9200E0A06061A163A3A26266A6A767A565640D
:10DDA200A46CACAD6DAF6F6EAEAA6A6BAB69A9A87D
:10DDB2006878B8B979BB7B7ABABE7E7FBF7DBDBCBD
:10DDC2007CB47475B577B7B67672B2B373B171704D
:10DDD200B0509091519353529296565797559594AD
:10DDE200549C5C5D9D5F9F9E5E5A9A9B5B995958BD
:10DDF20098884849894B8B8A4A4E8E8F4F8D4D4C5D
:10DE02008C4484854587474686824243834181808C
:10DE12004000C1814001C0804101C0804100C181F8
:10DE22004001C0804100C1814000C1814001C080E9
:10DE32004101C0804100C1814000C1814001C080D8
:10DE42004100C1814001C0804101C0804100C181C7
:10DE52004001C0804100C1814000C1814001C080B9
:10DE62004100C1814001C0804101C0804100C181A7
:10DE72004000C1814001C0804101C0804100C18198
:10DE82004001C0804100C1814000C1814001C08089
:10DE92004101C0804100C1814000C1814001C08078
:10DEA2004100C1814001C0804101C0804100C18167
:10DEB2004000C1814001C0804101C0804100C18158
:10DEC2004001C0804100C1814000C1814001C08049
:10DED2004100C1814001C0804101C0804100C18137
:10DEE2004001C0804100C1814000C1814001C08029
:10DEF2004101C0804100C1814000C1814001C08018
:10DF02004100C1814001C0804101C0804100C18106
:10DF12004000C0C101C30302C2C60607C705C5C48B
:10DF220004CC0C0DCD0FCFCE0E0ACACB0BC90908FB
:10DF3200C8D81819D91BDBDA1A1EDEDF1FDD1D1C3B
:10DF4200DC14D4D515D71716D6D21213D311D1D0CB
:10DF520010F03031F133F3F23236F6F737F535346B
:10DF6200F43CFCFD3DFF3F3EFEFA3A3BFB39F9F83B
:10DF72003828E8E929EB2B2AEAEE2E2FEF2DEDECDB
:10DF82002CE42425E527E7E62622E2E323E121200B
:10DF9200E0A06061A163A3A26266A6A767A565640B
:10DFA200A46CACAD6DAF6F6EAEAA6A6BAB69A9A87B
:10DFB2006878B8B979BB7B7ABABE7E7FBF7DBDBCBB
:10DFC2007CB47475B577B7B67672B2B373B171704B
:10DFD200B0509091519353529296565797559594AB
:10DFE200549C5C5D9D5F9F9E5E5A9A9B5B995958BB
:10DFF20098884849894B8B8A4A4E8E8F4F8D4D4C5B
:10E002008C4484854587474686824243834181808A
:10E012004000C1814001C0804101C0804100C181F6
:10E022004001C0804100C1814000C1814001C080E7
:10E032004101C0804100C1814000C1814001C080D6
:10E042004100C1814001C0804101C0804100C181C5
:10E052004001C0804100C1814000C1814001C080B7
:10E062004100C1814001C0804101C0804100C181A5
:10E072004000C1814001C0804101C0804100C18196
:10E082004001C0804100C1814000C1814001C08087
:10E092004101C0804100C1814000C1814001C08076
:10E0A2004100C1814001C0804101C0804100C18165
:10E0B2004000C1814001C0804101C0804100C18156
:10E0C2004001C0804100C1814000C1814001C08047
:10E0D2004100C1814001C0804101C0804100C18135
:10E0E2004001C0804100C1814000C1814001C08027
:10E0F2004101C0804100C1814000C1814001C08016
:10E102004100C1814001C0804101C0804100C18104
:10E112004000C0C101C30302C2C60607C705C5C489
:10E1220004CC0C0DCD0FCFCE0E0ACACB0BC90908F9
:10E13200C8D81819D91BDBDA1A1EDEDF1FDD1D1C39
:10E14200DC14D4D515D71716D6D21213D311D1D0C9
:10E1520010F03031F133F3F23236F6F737F5353469
:10E16200F43CFCFD3DFF3F3EFEFA3A3BFB39F9F839
:10E172003828E8E929EB2B2AEAEE2E2FEF2DEDECD9
:10E182002CE42425E527E7E62622E2E323E1212009
:10E19200E0A06061A163A3A26266A6A767A5656409
:10E1A200A46CACAD6DAF6F6EAEAA6A6BAB69A9A879
:10E1B2006878B8B979BB7B7ABABE7E7FBF7DBDBCB9
:10E1C2007CB47475B577B7B67672B2B373B1717049
:10E1D200B0509091519353529296565797559594A9
:10E1E200549C5C5D9D5F9F9E5E5A9A9B5B995958B9
:10E1F20098884849894B8B8A4A4E8E8F4F8D4D4C59
:10E202008C44848545874746868242438341818088
:10E212004000C1814001C0804101C0804100C181F4
:10E222004001C0804100C1814000C1814001C080E5
:10E232004101C0804100C1814000C1814001C080D4
:10E242004100C1814001C0804101C0804100C181C3
:10E252004001C0804100C1814000C1814001C080B5
:10E262004100C1814001C0804101C0804100C181A3
:10E272004000C1814001C0804101C0804100C18194
:10E282004001C0804100C1814000C1814001C08085
:10E292004101C0804100C1814000C1814001C08074
:10E2A2004100C1814001C0804101C0804100C18163
:10E2B2004000C1814001C0804101C0804100C18154
:10E2C2004001C0804100C1814000C1814001C08045
:10E2D2004100C1814001C0804101C0804100C18133
:10E2E2004001C0804100C1814000C1814001C08025
:10E2F2004101C0804100C1814000C1814001C08014
:10E302004100C1814001C0804101C0804100C18102
:10E312004000C0C101C30302C2C60607C705C5C487
:10E3220004CC0C0DCD0FCFCE0E0ACACB0BC90908F7
:10E33200C8D81819D91BDBDA1A1EDEDF1FDD1D1C37
:10E34200DC14D4D515D71716D6D21213D311D1D0C7
:10E3520010F03031F133F3F23236F6F737F5353467
:10E36200F43CFCFD3DFF3F3EFEFA3A3BFB39F9F837
:10E372003828E8E929EB2B2AEAEE2E2FEF2DEDECD7
:10E382002CE42425E527E7E62622E2E323E1212007
:10E39200E0A06061A163A3A26266A6A767A5656407
:10E3A200A46CACAD6DAF6F6EAEAA6A6BAB69A9A877
:10E3B2006878B8B979BB7B7ABABE7E7FBF7DBDBCB7
:10E3C2007CB47475B577B7B67672B2B373B1717047
:10E3D200B0509091519353529296565797559594A7
:10E3E200549C5C5D9D5F9F9E5E5A9A9B5B995958B7
:10E3F20098884849894B8B8A4A4E8E8F4F8D4D4C57
:10E402008C44848545874746868242438341818086
:10E412004000C1814001C0804101C0804100C181F2
:10E422004001C0804100C1814000C1814001C080E3
:10E432004101C0804100C1814000C1814001C080D2
:10E442004100C1814001C0804101C0804100C181C1
:10E452004001C0804100C1814000C1814001C080B3
:10E462004100C1814001C0804101C0804100C181A1
:10E472004000C1814001C0804101C0804100C18192
:10E482004001C0804100C1814000C1814001C08083
:10E492004101C0804100C1814000C1814001C08072
:10E4A2004100C1814001C0804101C0804100C18161
:10E4B2004000C1814001C0804101C0804100C18152
:10E4C2004001C0804100C1814000C1814001C08043
:10E4D2004100C1814001C0804101C0804100C18131
:10E4E2004001C0804100C1814000C1814001C08023
:10E4F2004101C0804100C1814000C1814001C08012
:10E502004100C1814001C0804101C0804100C18100
:10E512004000C0C101C30302C2C60607C705C5C485
:10E5220004CC0C0DCD0FCFCE0E0ACACB0BC90908F5
:10E53200C8D81819D91BDBDA1A1EDEDF1FDD1D1C35
:10E54200DC14D4D515D71716D6D21213D311D1D0C5
:10E5520010F03031F133F3F23236F6F737F5353465
:10E56200F43CFCFD3DFF3F3EFEFA3A3BFB39F9F835
:10E572003828E8E929EB2B2AEAEE2E2FEF2DEDECD5
:10E582002CE42425E527E7E62622E2E323E1212005
:10E59200E0A06061A163A3A26266A6A767A5656405
:10E5A200A46CACAD6DAF6F6EAEAA6A6BAB69A9A875
:10E5B2006878B8B979BB7B7ABABE7E7FBF7DBDBCB5
:10E5C2007CB47475B577B7B67672B2B373B1717045
:10E5D200B0509091519353529296565797559594A5
:10E5E200549C5C5D9D5F9F9E5E5A9A9B5B995958B5
:10E5F20098884849894B8B8A4A4E8E8F4F8D4D4C55
:10E602008C44848545874746868242438341818084
:10E612004000C1814001C0804101C0804100C181F0
:10E622004001C0804100C1814000C1814001C080E1
:10E632004101C0804100C1814000C1814001C080D0
:10E642004100C1814001C0804101C0804100C181BF
:10E652004001C0804100C1814000C1814001C080B1
:10E662004100C1814001C0804101C0804100C1819F
:10E672004000C1814001C0804101C0804100C18190
:10E682004001C0804100C1814000C1814001C08081
:10E692004101C0804100C1814000C1814001C08070
:10E6A2004100C1814001C0804101C0804100C1815F
:10E6B2004000C1814001C0804101C0804100C18150
:10E6C2004001C0804100C1814000C1814001C08041
:10E6D2004100C1814001C0804101C0804100C1812F
:10E6E2004001C0804100C1814000C1814001C08021
:10E6F2004101C0804100C1814000C1814001C08010
:10E702004100C1814001C0804101C0804100C181FE
:10E712004000C0C101C30302C2C60607C705C5C483
:10E7220004CC0C0DCD0FCFCE0E0ACACB0BC90908F3
:10E73200C8D81819D91BDBDA1A1EDEDF1FDD1D1C33
:10E74200DC14D4D515D71716D6D21213D311D1D0C3
:10E7520010F03031F133F3F23236F6F737F5353463
:10E76200F43CFCFD3DFF3F3EFEFA3A3BFB39F9F833
:10E772003828E8E929EB2B2AEAEE2E2FEF2DEDECD3
:10E782002CE42425E527E7E62622E2E323E1212003
:10E79200E0A06061A163A3A26266A6A767A5656403
:10E7A200A46CACAD6DAF6F6EAEAA6A6BAB69A9A873
:10E7B2006878B8B979BB7B7ABABE7E7FBF7DBDBCB3
:10E7C2007CB47475B577B7B67672B2B373B1717043
:10E7D200B0509091519353529296565797559594A3
:10E7E200549C5C5D9D5F9F9E5E5A9A9B5B995958B3
:10E7F20098884849894B8B8A4A4E8E8F4F8D4D4C53
:10E802008C44848545874746868242438341818082
:10E812004000C1814001C0804101C0804100C181EE
:10E822004001C0804100C1814000C1814001C080DF
:10E832004101C0804100C1814000C1814001C080CE
:10E842004100C1814001C0804101C0804100C181BD
:10E852004001C0804100C1814000C1814001C080AF
:10E862004100C1814001C0804101C0804100C1819D
:10E872004000C1814001C0804101C0804100C1818E
:10E882004001C0804100C1814000C1814001C0807F
:10E892004101C0804100C1814000C1814001C0806E
:10E8A2004100C1814001C0804101C0804100C1815D
:10E8B2004000C1814001C0804101C0804100C1814E
:10E8C2004001C0804100C1814000C1814001C0803F
:10E8D2004100C1814001C0804101C0804100C1812D
:10E8E2004001C0804100C1814000C1814001C0801F
:10E8F2004101C0804100C1814000C1814001C0800E
:10E902004100C1814001C0804101C0804100C181FC
:10E912004000C0C101C30302C2C60607C705C5C481
:10E9220004CC0C0DCD0FCFCE0E0ACACB0BC90908F1
:10E93200C8D81819D91BDBDA1A1EDEDF1FDD1D1C31
:10E94200DC14D4D515D71716D6D21213D311D1D0C1
:10E9520010F03031F133F3F23236F6F737F5353461
:10E96200F43CFCFD3DFF3F3EFEFA3A3BFB39F9F831
:10E972003828E8E929EB2B2AEAEE2E2FEF2DEDECD1
:10E982002CE42425E527E7E62622E2E323E1212001
:10E99200E0A06061A163A3A26266A6A767A5656401
:10E9A200A46CACAD6DAF6F6EAEAA6A6BAB69A9A871
:10E9B2006878B8B979BB7B7ABABE7E7FBF7DBDBCB1
:10E9C2007CB47475B577B7B67672B2B373B1717041
:10E9D200B0509091519353529296565797559594A1
:10E9E200549C5C5D9D5F9F9E5E5A9A9B5B995958B1
:10E9F20098884849894B8B8A4A4E8E8F4F8D4D4C51
:10EA02008C44848545874746868242438341818080
:10EA12004000C1814001C0804101C0804100C181EC
:10EA22004001C0804100C1814000C1814001C080DD
:10EA32004101C0804100C1814000C1814001C080CC
:10EA42004100C1814001C0804101C0804100C181BB
:10EA52004001C0804100C1814000C1814001C080AD
:10EA62004100C1814001C0804101C0804100C1819B
:10EA72004000C1814001C0804101C0804100C1818C
:10EA82004001C0804100C1814000C1814001C0807D
:10EA92004101C0804100C1814000C1814001C0806C
:10EAA2004100C1814001C0804101C0804100C1815B
:10EAB2004000C1814001C0804101C0804100C1814C
:10EAC2004001C0804100C1814000C1814001C0803D
:10EAD2004100C1814001C0804101C0804100C1812B
:10EAE2004001C0804100C1814000C1814001C0801D
:10EAF2004101C0804100C1814000C1814001C0800C
:10EB02004100C1814001C0804101C0804100C181FA
:10EB12004000C0C101C30302C2C60607C705C5C47F
:10EB220004CC0C0DCD0FCFCE0E0ACACB0BC90908EF
:10EB3200C8D81819D91BDBDA1A1EDEDF1FDD1D1C2F
:10EB4200DC14D4D515D71716D6D21213D311D1D0BF
:10EB520010F03031F133F3F23236F6F737F535345F
:10EB6200F43CFCFD3DFF3F3EFEFA3A3BFB39F9F82F
:10EB72003828E8E929EB2B2AEAEE2E2FEF2DEDECCF
:10EB82002CE42425E527E7E62622E2E323E12120FF
:10EB9200E0A06061A163A3A26266A6A767A56564FF
:10EBA200A46CACAD6DAF6F6EAEAA6A6BAB69A9A86F
:10EBB2006878B8B979BB7B7ABABE7E7FBF7DBDBCAF
:10EBC2007CB47475B577B7B67672B2B373B171703F
:10EBD200B05090915193535292965657975595949F
:10EBE200549C5C5D9D5F9F9E5E5A9A9B5B995958AF
:10EBF20098884849894B8B8A4A4E8E8F4F8D4D4C4F
:10EC02008C4484854587474686824243834181807E
:10EC12004000C1814001C0804101C0804100C181EA
:10EC22004001C0804100C1814000C1814001C080DB
:10EC32004101C0804100C1814000C1814001C080CA
:10EC42004100C1814001C0804101C0804100C181B9
:10EC52004001C0804100C1814000C1814001C080AB
:10EC62004100C1814001C0804101C0804100C18199
:10EC72004000C1814001C0804101C0804100C1818A
:10EC82004001C0804100C1814000C1814001C0807B
:10EC92004101C0804100C1814000C1814001C0806A
:10ECA2004100C1814001C0804101C0804100C18159
:10ECB2004000C1814001C0804101C0804100C1814A
:10ECC2004001C0804100C1814000C1814001C0803B
:10ECD2004100C1814001C0804101C0804100C18129
:10ECE2004001C0804100C1814000C1814001C0801B
:10ECF2004101C0804100C1814000C1814001C0800A
:10ED02004100C1814001C0804101C0804100C181F8
:10ED120040010300000000000000000000000000AD
:10ED220000000000000000000000000000000000E1
:10ED320000000000000000000000000000000000D1
:10ED420000000000000000000000000000000000C1
:10ED520000000000000000000000000000000000B1
:10ED620000000000000000000000000000000000A1
:10ED72000000000000000000000000000000000091
:10ED82000000000000000000000000000000000081
:10ED9200000000000000010300000000000000006D
:10EDA2000000000000000000000000000000000061
:10EDB2000000000000000000000000000000000051
:10EDC2000000000000000000000000000000000041
:10EDD2000000000000000000000000000000000031
:10EDE2000000000000000000000000000000000021
:10EDF2000000000000000000000000000000000011
:10EE02000000002573202564202573202020202067
:10EE120020202020202020202020202020202020F0
:10EE220020202020202020202020202020202020E0
:10EE320020004F4E4C494E45204125642C2052253E
:10EE42006420524625642C205425642054462564AF
:10EE52002C20432564202564202573202020202097
:10EE620000486F7374204125642C2052256420527F
:10EE72004625642C2054256420544625642C2043C6
:10EE820025642025642025732020202020202000B6
:10EE9200554E4B20464F524D4154204125642C2063
:10EEA20052256420524625642C2054256420544661
:10EEB20025642C20432564202573202020002573FF
:10EEC20020257320202020202020202020202020E8
:10EED2002020202020202020202020202020202030
:10EEE2002020202020202020002573202573202090
:10EEF2002020202020202020202020202020202010
:10EF020020202020202020202020202020202020FF
:10EF12000056332E303020464D383020696E7465ED
:10EF2200726661636520513834004F66666C696EA3
:10EF320065000000000043414E42555300000000AE
:10EF420000000103000000000000000000000000BB
:10EF520000000000000000000103000000D60000D5
:10EF62000001000000DA00000103000000D60000EA
:10EF72000000000000D9001F1E1F1E1F1F1E1F1EA3
:10EF82001F1F1D0106000000000000010600000016
:10EF92000000000106000000000000010300000064
:10EFA200000001030000000000832003040000248D
:10EFB2000100018324030400CD0C0543E5612140D7
:10EFC20000000000CD0C0543E56121401FC58042D1
:10EFD200CFB780429A995E4266665E42E590584299
:10EFE20089C1584273488042C5608042FC89804290
:10EFF200FC8980421F8580421F85804200000000FC
:10F00200CD0C0543E56121401FC58042CFB7804248
:10F012009A995E4266665E42E590584289C15842BC
:10F0220073488042C5608042FC898042FC898042EC
:10F032001F8580421F85804200000000CD0C0543E1
:10F04200E56121401FC58042CFB780429A995E4256
:10F0520066665E42E590584289C1584273488042D2
:10F06200C5608042FC898042FC8980421F858042C3
:10F072001F85804200000000BC000000BA7FFFFE36
:10F08200C800800034000000CD0C0543E56121403A
:10F092001FC58042CFB780429A995E4266665E4241
:10F0A200E590584289C1584273488042C560804207
:10F0B200FC898042FC8980421F8580421F858042F4
:10F0C20000000000CD0C0543E56121401FC58042D0
:10F0D200CFB780429A995E4266665E42E590584298
:10F0E20089C1584273488042C5608042FC8980428F
:10F0F200FC8980421F8580421F85804200000000FB
:10F10200CD0C0543E56121401FC58042CFB7804247
:10F112009A995E4266665E42E590584289C15842BB
:10F1220073488042C5608042FC898042FC898042EB
:10F132001F8580421F85804200000000CD0C0543E0
:10F14200E56121401FC58042CFB780429A995E4255
:10F1520066665E42E590584289C1584273488042D1
:10F16200C5608042FC898042FC8980421F858042C2
:10F172001F85804200000000CD0C0543E56121405F
:10F182001FC58042CFB780429A995E4266665E4250
:10F19200E590584289C1584273488042C560804216
:10F1A200FC898042FC8980421F8580421F85804203
:10F1B20000000000CD0C0543E56121401FC58042DF
:10F1C200CFB780429A995E4266665E42E5905842A7
:10F1D20089C1584273488042C5608042FC8980429E
:10F1E200FC8980421F8580421F858042000000000A
:10F1F2001FC58042CFB780429A995E4266665E42E0
:10F20200E590584289C1584273488042C5608042A5
:10F21200FC898042FC898042180000B004DC05F4BD
:10F2220001640064001027B80B3075059904990336
:10F2320099B004DC05F401640064001027B80B05E2
:10F242009904990399B004DC05F401640064001088
:10F2520027B80B059904990399B004DC05F40164FD
:10F262000064001027B80B059904990399B004DCD7
:10F2720005F401640064001027B80B059904990392
:10F2820099B004DC05F401640064001027B80BB0E7
:10F2920004DC05F401640064001027B80B0599042E
:10F2A200990399B004DC05F401640064001027B8E6
:10F2B2000BB004DC05F401640064001027B80B30C5
:10F2C20075059904990399B004DC05F4016400649E
:10F2D200001027B80B3075E8FF3C002300059904A5
:10F2E200990399B004DC05F401640064001027B8A6
:10F2F2000B465A2D01204601FF000228040228C8AD
:10F302000102FF000228040228C801028003C8018A
:10F312000707070707070740400FF001050F67FFC0
:10F322004010F0E0D0C0B0A0908000465A2D0120DD
:10F332004601FF000228040228C801020707070746
:10F3420007070740400FF001050F67FF4010F0E08C
:10F35200D0C0B0A0908000465A2D01204601FF0087
:10F362000228040228C80102070707070707074007
:10F37200400FF001050F67FF4010F0E0D0C0B0A0D1
:10F38200908000465A2D01204601FF000228040207
:10F3920028C801020707070707070740400FF001C7
:10F3A200050F67FF4010F0E0D0C0B0A0908000468B
:10F3B2005A2D01204601FF000228040228C801023A
:10F3C2000707070707070740400FF001050F67FF10
:10F3D2004010F0E0D0C0B0A0908000465A2D01202D
:10F3E2004601FF000228040228C80102465A2D01E4
:10F3F200204601FF000228040228C801020707076D
:10F402000707070740400FF001050F67FF4010F0A4
:10F41200E0D0C0B0A0908000465A2D01204601FFE6
:10F42200000228040228C80102465A2D0120460182
:10F43200FF000228040228C801028003C80107074E
:10F44200070707070740400FF001050F67FF40104D
:10F45200F0E0D0C0B0A0908000465A2D01204601B5
:10F46200FF000228040228C801028003C80107071E
:10F47200070707070740400FF001050F67FF40101D
:10F48200F0E0D0C0B0A0908000465A2D0120460185
:10F49200FF000228040228C801025E2C25642C25E4
:10F4A200332E32662C25332E32662C25332E3266CD
:10F4B2002C25332E32662C25332E32662C25332E04
:10F4C20032662C25332E32662C25332E32662C25BD
:10F4D200642E253031642C25642E253031642C2590
:10F4E200642E253031642C25642C25642C25642C53
:10F4F20025642C25642C256C6C752C25372E3466DE
:10F502002C25372E34662C25362E34662C25372EA4
:10F5120034662C313935372C7E454F54202020203B
:10F5220020202020202020202020202020202020D9
:10F5320020202020202020202020202020202020C9
:10F5420020202020202020202020202020200D0AE2
:10F55200005E2C25642C25332E32662C25332E3268
:10F56200662C25332E32662C25332E32662C25331B
:10F572002E32662C25332E32662C25332E32662C03
:10F5820025332E32662C25642E253031642C2564D9
:10F592002E253031642C25642E253031642C2564CF
:10F5A2002C25642C25642C25642C25642C256C6C5C
:10F5B200752C25372E34662C25372E34662C2536AD
:10F5C2002E34662C25372E34662C313935372C7E75
:10F5D200454F5420202020202020202020202020A1
:10F5E2002020202020202020202020202020202019
:10F5F2002020202020202020202020202020202009
:10F6020020202020200D0A005E2C25642C25332E7C
:10F6120032662C25332E32662C25332E32662C256B
:10F62200332E32662C25332E32662C25332E32664B
:10F632002C25332E32662C25332E32662C25642E51
:10F64200253031642C25642E253031642C25642E1E
:10F65200253031642C25642C25642C25642C2564EA
:10F662002C25642C256C6C752C25362E34662C25A5
:10F67200362E34662C25362E34662C25362E3466EC
:10F682002C313935372C7E454F5420202020202024
:10F692002020202020202020202020202020202068
:10F6A2002020202020202020202020202020202058
:10F6B2002020202020202020202020200D0A005E53
:10F6C2002C25642C25332E32662C25332E32662CC3
:10F6D20025332E32662C25332E32662C25332E32DC
:10F6E200662C25332E32662C25332E32662C25339A
:10F6F2002E32662C25642E253031642C25642E256D
:10F702003031642C25642E253031642C25642C255F
:10F71200642C25642C25642C25642C256C6C752C9A
:10F7220025362E33662C25362E33662C25362E337F
:10F73200662C25362E33662C313935372C7E454FD3
:10F742005420202020202020202020202020202083
:10F7520020202020202020202020202020202020A7
:10F762002020202020202020202020202020202097
:10F772002020200D0A007C7C2F2F2D2D0000000060
:10F78200000000000000000000007C7C2F2F2D2DC7
:10F792005C5C0000000000000000000000004F4F11
:10F7A2004F4F4F4F2D2D5F5F2D00000000000000D6
:10F7B200000076763C3C5E5E3E3E000000000000AB
:10F7C2000000000000002E2E2A2A782378235858A1
:10F7D2007C7C2D2D0000000000002E2E6F6F4F4FFD
:10F7E2006F6F000000000000000000000000536C7A
:10F7F20065657000000000000000466C6F617400D7
:10F8020000000000000042756C6B00000000000068
:10F8120000004162736F72620000000000004571D7
:10F8220075616C697A6500000000204C6173740098
:10F832000000000000004F66666C696E6500000003
:10F842000000454D353430000000000000004F66D6
:10F85200666C696E650000000000464D383000009D
:10F862000000000000000001030040000200000050
:10F872000100000046000001020000000400000038
:10F88200000000000600000102000000030000006A
:10F89200000000000500000102000000020000005C
:10F8A200000000000400000102000000000000004F
:10F8B2000000000002000001020001006A000000D6
:10F8C200000000006D00000102000100C7000000FE
:10F8D20000000000CA000001020000000800000051
:10F8E200000000000A00000102000100C600000042
:10F8F20000000000C9000001040000000100000037
:10F90200000000000500000102000100C800000024
:10F9120000000000CB000001020000000000000017
:10F922000000000002000106160400050106100096
:10F93200000001061002000001035000000801034C
:10F94200050000400103000000340103030200012E
:10F952000103000B00011FC58042CFB780429A9974
:10F962005E4266665E42E590584289C158427348DB
:10F972008042C5608042FC898042FC8980421F85AA
:10F9820080421F858042B400000204000000020091
:10F9920000010A000001C77FFFFFC57FFFFFB4001F
:10F9A2001000B77FFFFFB8000001C2000000E400B2
:10F9B2000001CD0C0543E56121401F8580421F8572
:10F9C2008042000000000400000CFFFF0B0000104A
:10F9D200FFFF40F7424D4320256C7520203058250B
:10F9E2002E325820202020202020202020202020BD
:10F9F2002020202020202020202020202020202005
:10FA0200000D2D2D2D205449433132343030204405
:10FA120072697665722056657273696F6E202573FE
:10FA2200202573202573202D2D2D0D0A000D2D2D3F
:10FA32002D204D433333393936204472697665724D
:10FA42002056657273696F6E2025732025732025F9
:10FA520073202D2D2D0D0A00424154205625642E6F
:10FA620025303164205056205625642E25303164CD
:10FA72002020202020202020202020202020202084
:10FA82002000424D4320256C75202020202020207C
:10FA92002020202020202020202020202020202064
:10FAA2002020202020202020004F4620256C752079
:10FAB20045525220256C7520202020202020202015
:10FAC2002020202020202020202020202020200054
:10FAD2006B776820257520666C6F61742025752010
:10FAE2002020202020202020202020202020202014
:10FAF20020202020202000342025362E33662C356D
:10FB02002025362E33662020202020202020202071
:10FB120020202020202020202020202000426D6153
:10FB22007820257520426D696E20257520202020C1
:10FB320020202020202020202020202020202020C3
:10FB42002020004A616E4665624D61724170724DBD
:10FB520061794A756E4A756C4175675365704F637A
:10FB6200744E6F764465630056256C6420412533DC
:10FB72002E3266202020202020202020202020201D
:10FB82002020202020202020202020002573205605
:10FB92006572202573202020202020202020202074
:10FBA200202020202020202020202020002573201B
:10FBB2002573204125642E2530316420412564209F
:10FBC2002020202020202020202020202000204D26
:10FBD20065736720256420537461636B202564205C
:10FBE20020202020202020202020202020004D55D1
:10FBF2004920256C6C58205049432025582020204C
:10FC0200202020202020202020202020200020250D
:10FC12006C6C582052756E20446973706C61792047
:10FC22002020202020202020202020200020546579
:10FC3200726D696E616C20496E666F2020202020F3
:10FC42002020202020202020202000257320257322
:10FC520020202020202020202020202020202020A2
:10FC620020202020202020002048454C5020536393
:10FC72007265656E3A2025642020202020202020F5
:10FC8200202020002573202020202020202020203A
:10FC92002020202020202020202020202020200082
:10FCA20057256C64205641256C6420502564202021
:10FCB20020202020202020202020200025732056D4
:10FCC2006163256C64204125332E3266202020207A
:10FCD200202020202020200020506F7274204C6FA2
:10FCE200636B202325642020202020202020202038
:10FCF200202000205465726D696E616C202564209D
:10FD02002020202020202020202020200020434DC1
:10FD120044202563202563204C656E202564202025
:10FD22002020202020200048454C502025732020F0
:10FD320020202020202020202020202020200020E1
:10FD42004F70656E204C4C20202020202020202047
:10FD5200202020202020002050756D70204C4C2047
:10FD620020202020202020202020202020200020B1
:10FD72005265616479204C4C2020202020202020D4
:10FD820020202020202000205332463431202325F9
:10FD9200632020202020202020202020202000441A
:10FDA2004953504C415920257320202020202020E7
:10FDB200202020202020002053746F7265642023AD
:10FDC20025642020202020202020202020200076B2
:10FDD2007465726D2025783A257820202020202015
:10FDE200202020202020002053455155454E4345D8
:10FDF20020256420202020202020202020200020D8
:10FE0200446973706C6179206E756D2025642020C1
:10FE12002020202020200020532564462564206CC9
:10FE22006F67202020202564202020202020002011
:10FE32004C6F61642D6C6F636B206E756D20256451
:10FE420020202020202000204F5049204441515F93
:10FE5200424D4320257320202020202020200020F6
:10FE62002573202020202020202020202020202038
:10FE720020202020200020494E464F2020202020F4
:10FE82002020202020202020202020200020565426
:10FE920045524D20494E464F202020202020202030
:10FEA2002020200020565445524D2048454C5020D9
:10FEB2002020202020202020202000205665727340
:10FEC200696F6E20257320202020202020202020F2
:10FED200200020257320416C6C2044657620202070
:10FEE2002020202020202020002048454C50204265
:10FEF20075696C642025732020202020202020009A
:10FF020020257320416E616C6F6720446576202046
:10FF12002020202020200053756E4D6F6E54756591
:10FF22005765645468754672695361740048454C5C
:10FF32005020257320202020202020202020202037
:10FF4200202000506F727420257320202020202052
:10FF52002020202020202000257320202020202067
:10FF62002020202020202020202020004C6F636BA6
:10FF7200656420313135323030627073004A616E0F
:10FF820020323720323032360031363A32393A3284
:10FF92003200434F4D4D202020004552524F5220F7
:10FFA20020004F4E4C494E45200052454D4F54457E
:10FFB200200044495341424C45004F46464C494E6D
:10FFC2004500286E756C6C290056302E3531003490
:10FFD200375138340035375138340056302E370017
:10FFE20056302E3800494E46004E414E00696E662C
:0DFFF200006E616E00474D54002573000045
:020000040001F9
:1000000000019451B0ECDAF09F947EECE8F0D68ECB
:10001000D68CBF82BF84BF86DAECE3F055ECE5F006
:10002000000E6100A2F3F3F122EEF8F0070EDE6A93
:10003000E806FDE20601EB6BEB51020DF3C4DAF6C4
:10004000F4C4DBF6000EDBBFFF0EDC6FDD6F000ECD
:10005000DA2505017E6F000E0601DB2105017F6FA9
:100060002C0E0601DC210501806F9CECD2F006010C
:10007000EB51020DC80EF324D96E080EF420DA6E8F
:1000800005017EC5DEF47FC5DDF40601EB51020DEE
:10009000C80EF324D96E080EF420DA6EDEC4DAF648
:1000A000DDC4DBF6DA510801F8270601DB5108014F
:1000B000F923000EFA23000EFB23000EFC23000E92
:1000C000FD23000EFE23000EFF230601EB2B080E7E
:1000D000EB65B2D7F8C853F8F9C854F8FAC855F820
:1000E000FBC856F8FCC857F8FDC858F8FEC859F8C0
:1000F000FFC85AF8FC0E05017E6FFF0E7F6F3F0EA2
:10010000806F9CECD2F07EC551F87FC552F8FE0E90
:100110007E6FFF0E7F6F3F0E806F9CECD2F07EC52E
:100120004FF87FC550F8050E08014F1904E1990EEC
:100130005019D8B42DD0040E4F1906E1990E50195C
:10014000D8A402D04C8524D04C69000E526F51695E
:10015000FF0E536F000E546F000E556F000E566F5A
:10016000000E576F000E586F000E596F000E5A6F39
:10017000FF0EF86FFF0EF96FFF0EFA6FFF0EFB6FA9
:10018000000EFC6F000EFD6F000EFE6F000EFF6F85
:1001900053C87EF554C87FF555C880F556C881F51B
:1001A00057C882F558C883F559C884F55AC885F5EB
:1001B00044ECC3F05E0E05017E6FC70E7F6F010E2B
:1001C000806F0BECE7F05CECDDF005017F6B140E4B
:1001D0007E6F090E41ECE3F04E0E7F6F200E7E6FB6
:1001E0000C0E41ECE3F022EEF8F0FF0EDE140801F5
:1001F000F86FFF0EDE14F96FFF0EDE14FA6FFF0EBC
:10020000DE14FB6F000EDE14FC6F000EDE14FD6FBB
:10021000000EDE14FE6F000EDE14FF6F52ECE8F0ED
:100220003A0E05017E6FC40E7F6F010E806F66EC83
:10023000E7F04FECE8F04CECE8F0400E05017E6F83
:10024000950E7F6F010E806F5FECE7F0E40E7E6F1E
:10025000D00E7F6F010E806F82ECE7F05BECE8F070
:10026000CE0E05017E6FD00E7F6F010E806F7BEC8E
:10027000E7F058ECE8F06E0E0601E96FFF0EEA6F4A
:1002800031ECD3F00501846B640E836F94ECE4F0E1
:10029000BF94BF92BF96C0847CECE8F008014CB5D7
:1002A000E7EF85F0C094BE0E0501B66F0A0EB76F7A
:1002B000B5ECA4F0C084C09422D1180E05018C6F57
:1002C000F90E8D6F8DECDCF0B80E0501CE6FBB0E14
:1002D000CF6F010ED06F050ED16FAAECCBF03DD1E0
:1002E0000801B951D8A413D0080E05018C6FF90E7E
:1002F0008D6F8DECDCF0580E0501CE6F980ECF6F30
:10030000010ED06F050ED16FAAECCBF026D1680E8E
:1003100005018C6FF80E8D6F8DECDCF0D40E0501AD
:10032000CE6FD00ECF6F010ED06F050ED16FAAEC3D
:10033000CBF013D1E80E05018C6FF80E8D6F8DECAC
:10034000DCF06E0E0501CE6FD00ECF6F010ED06FB8
:10035000050ED16FAAECCBF000D1D80E05018C6F41
:10036000F80E8D6F8DECDCF0D80E0501CE6FC80E47
:10037000CF6F010ED06F050ED16FAAECCBF0EDD090
:10038000C80E05018C6FF80E8D6F8DECDCF0B00E91
:100390000501CE6FC80ECF6F010ED06F050ED16F65
:1003A000AAECCBF0DAD0B80E05018C6FF80E8D6F89
:1003B0008DECDCF0D40E0501CE6FC40ECF6F010EB4
:1003C000D06F050ED16FAAECCBF0C7D0F80E0501A7
:1003D0008C6FF80E8D6F8DECDCF04E0E0501CE6F3C
:1003E000960ECF6F010ED06F100ED16FAAECCBF02E
:1003F000B4D0980E05018C6FF80E8D6F8DECDCF08B
:10040000380E0501CE6FC50ECF6F010ED06F050EF1
:10041000D16FAAECCBF0A1D0880E05018C6FF80E3D
:100420008D6F8DECDCF0ECD7780E05018C6FF80E3B
:100430008D6F8DECDCF0380E0501CE6FC50ECF6FE1
:10044000010ED06F050ED16FAAECCBF04E6A85D0AD
:100450004E50000AD8B4CDD7010AD8B4DDD7030A6C
:10046000D8B4E2D7F3D7EB0E05018C6F0A0E8D6F6F
:100470008DECDCF0100E0501CE6F720ECF6F010E09
:10048000D06F110ED16FAAECCBF067D0EB0E050147
:100490008C6F0B0E8D6F8DECDCF0680E0501CE6F4E
:1004A000D00ECF6F010ED06F050ED16FAAECCBF03E
:1004B00054D0E80E05018C6F0C0E8D6F8DECDCF0C6
:1004C000620E0501CE6FD00ECF6F010ED06F050EFC
:1004D000D16FAAECCBF041D0A80E05018C6FF80EBD
:1004E0008D6F8DECDCF0260E0501CE6FC60ECF6F42
:1004F000010ED06F050ED16FAAECCBF02ED04D506F
:100500000601DA6FDB6BDB51000AD8A4D6D6DA51CC
:10051000000AD8B4D2D6010AD8B4E2D6030AD8B4B5
:1005200009D7010AD8B419D7070AD8B429D7010ABC
:10053000D8B439D7030AD8B48BD7010AD8B4A6D710
:100540000F0AD8B4B6D7010AD8B48DD7030AD8B4E5
:10055000C3D7010AD8B43AD7B0D6C0840C0EA7ECE2
:10056000E4F00009D8B433D3750E7F6F300E7E6F80
:100570000C0E41ECE3F00801B96B29D388ECC5F00F
:100580000C0E00ECE8F028EED7F3DF5046ECE5F077
:10059000000E7E6F000E0AECDBF07EC553F67FC5C1
:1005A00054F60601566B150E556F450E576FFF0E2C
:1005B000586FE9C659F6EAC65AF60FECCDF0000EB0
:1005C00005017E6F010E0AECDBF07EC553F67FC598
:1005D00054F60601566B150E556F450E576FFF0EFC
:1005E000586FE9C659F6EAC65AF60FECCDF0000E80
:1005F00005017E6F020E0AECDBF07EC553F67FC567
:1006000054F60601566B150E556F450E576FFF0ECB
:10061000586FE9C659F6EAC65AF60FECCDF0000E4F
:1006200005017E6F030E0AECDBF07EC553F67FC535
:1006300054F60601566B150E556F450E576FFF0E9B
:10064000586FE9C659F6EAC65AF60FECCDF0E8EC59
:10065000E6F00501846B640E836F94ECE4F0CCEC5F
:10066000E2F01EECDCF01AECB1F00009D8A415D0D1
:10067000010E6100A2F3F9F3000E6100A2F3FAF398
:10068000000E6100A2F3FBF3000E6100A2F3FCF385
:10069000010E0601F66F08014C81E4ECE2F004EC77
:1006A000D2F00009D8A415D0010E6100A2F3FDF329
:1006B000000E6100A2F3FEF3000E6100A2F3FFF34F
:1006C000000E6100A2F300F4010E0601F66F0801AE
:1006D0004C8343ECDCF0CCECE4F0010E6100A2F3BF
:1006E000F3F1070E05017F6FA50E7E6FF9ECE5F0C3
:1006F00028EED7F3DF5046ECE5F0140E0601536FF9
:10070000230E546F566B3F0E556F2F0E576FFC0E16
:10071000586F0FECCDF0000E05017E6F000E0AEC55
:10072000DBF07EC553F67FC554F60601566B150EF9
:10073000556F490E576FFE0E586FCB0E596FFF0E57
:100740005A6F0FECCDF0000E05017E6F010E0AEC22
:10075000DBF07EC553F67FC554F60601566B150EC9
:10076000556F100E576FFC0E586F53C859F654C88A
:100770005AF655C85BF656C85CF657C85DF658C8B9
:100780005EF659C85FF65AC860F60FECCDF0060168
:10079000F651D8B42BD0050E08014F1904E1990E7B
:1007A0005019D8B405D0D10E0601DF6FFF0E04D06A
:1007B000D70E0601DF6FFF0EE06F000E05017E6FA2
:1007C000020E0AECDBF07EC553F67FC554F6060137
:1007D000566B150E556F020E576FFF0E586FDFC622
:1007E00059F6E0C65AF60FECCDF02AD0050E0801F6
:1007F0004F1904E1990E5019D8B405D0D10E060155
:10080000E16FFF0E04D0D70E0601E16FFF0EE26F1D
:10081000000E05017E6F020E0AECDBF07EC553F67A
:100820007FC554F60601566B150E556FD40E576FE3
:10083000FE0E586FE1C659F6E2C65AF60FECCDF03F
:10084000000E05017E6F030E0AECDBF07EC553F649
:100850007FC554F60601566B150E556F610E576F26
:10086000FE0E586F7F0E596FFF0E5A6F0FECCDF0D2
:10087000010E05017E6F000E0AECDBF07EC553F61B
:100880007FC554F60601566B150E556F780E576FDF
:10089000FE0E586F0FECCDF0010E05017E6F010EBC
:1008A0000AECDBF07EC553F67FC554F60601566BA5
:1008B000150E556FBD0E576FFE0E586FCB0E596F4C
:1008C000FF0E5A6F0FECCDF0010E05017E6F020E88
:1008D0000AECDBF07EC553F67FC554F60601566B75
:1008E000150E556F8F0E576FFE0E586F0FECCDF033
:1008F000010E05017E6F030E0AECDBF07EC553F698
:100900007FC554F60601566B150E556F610E576F75
:10091000FE0E586F7F0E596FFF0E5A6F0FECCDF021
:10092000030E05017E6F000E0AECDBF07EC553F668
:100930007FC554F60601566B150E556FEB0E576FBB
:10094000FE0E586FCB0E596FFF0E5A6F0FECCDF0A5
:10095000030E05017E6F010E0AECDBF07EC553F637
:100960007FC554F60601566B150E556FBD0E576FB9
:10097000FE0E586FCB0E596FFF0E5A6F0FECCDF075
:10098000030E05017E6F020E0AECDBF07EC553F606
:100990007FC554F60601566B150E556FA60E576FA0
:1009A000FE0E586F0FECCDF0030E05017E6F030EA7
:1009B0000AECDBF07EC553F67FC554F60601566B94
:1009C000150E556F610E576FFE0E586F7F0E596FE3
:1009D000FF0E5A6F0FECCDF0020E05017E6F000E78
:1009E0000AECDBF07EC553F67FC554F60601566B64
:1009F000150E556FF00E576FFB0E586F53C859F612
:100A000054C85AF655C85BF656C85CF657C85DF62A
:100A100058C85EF659C85FF65AC860F64FC861F606
:100A200050C862F60FECCDF0020E05017E6F010E8C
:100A30000AECDBF07EC553F67FC554F60601566B13
:100A4000150E556FAB0E576FFA0E586F24C859F636
:100A500025C85AF626C85BF627C85CF644C85DF67A
:100A600045C85EF646C85FF647C860F60FECCDF0A5
:100A7000020E05017E6F020E0AECDBF07EC553F616
:100A80007FC554F60601566B150E556F840E576FD1
:100A9000FA0E586F08C859F609C85AF60AC85BF624
:100AA0000BC85CF60FECCDF0020E05017E6F030E55
:100AB0000AECDBF07EC553F67FC554F60601566B93
:100AC000150E556F8E0E576FFB0E586F7F0E596FB8
:100AD000FF0E5A6FCB0E5B6FFF0E5C6F0FECCDF00D
:100AE000E8ECE6F00B0E0501846FB80E836F94EC12
:100AF000E4F00601F651D8B407D0270E0501846F43
:100B0000100E836F94ECE4F0010E05017F6FF40E7C
:100B10007E6F050E41ECE3F00B0E7F6FB80E7E6F1B
:100B2000020E41ECE3F0050E7F6FDC0E7E6F070EC8
:100B300041ECE3F00B0E7F6FB80E7E6F040E41ECBC
:100B4000E3F0270E7F6F100E7E6F060E41ECE3F090
:100B50000B0E7F6FB80E7E6F030E41ECE3F07F6BE0
:100B6000010E7E6F010E41ECE3F043D0000E26EC47
:100B7000E5F0000E7E6F000E0AECDBF07EC5E3F6BA
:100B80007FC5E4F6060120EE15F0E351D926E451C5
:100B9000DA22DF6A000E0501826F030EC8ECD0F086
:100BA0000601DA6F20EE13F0E351D926E451DA2280
:100BB000DAC6DFF41ED0000E6100A2F3F3F10B0ED3
:100BC0000501846FB80E836F94ECE4F012D028EE28
:100BD000F3F1DF500601DA6FDB6BDB51000AD8A4BA
:100BE000EAD7DA51000AD8B4C9D4010AD8B4BED7BA
:100BF000E2D7010EA7ECE4F00009D8B471D17F6B05
:100C0000010E7E6F010E41ECE3F028EEFDF3DE50A5
:100C1000DE10DE10DE10D8A414D0E4ECE2F0D69E94
:100C200009016C51D8A406D06800D0FD9EF7680079
:100C3000D4FD9FF7D68E9EC78EF59FC78FF5FBEC30
:100C4000DDF0CCECE4F0010E08010027000E0123DA
:100C5000022303232AECE8F0000EC1ECE6F0F2ECEC
:100C6000E7F00009D8B4FBD7F2ECE7F00009D8B4FC
:100C700006D0AFECE5F07EC500FC7FC501FC2AEC98
:100C8000E8F0010EC1ECE6F0F2ECE7F00009D8B4B0
:100C9000FBD7F2ECE7F00009D8B40ED0AFECE5F0EA
:100CA0006100FAF5E7F36100FEF5E8F368009CFFE8
:100CB00002FC6800A0FF03FC2AECE8F0020EC1EC85
:100CC000E6F0F2ECE7F00009D8B4FBD7F2ECE7F07D
:100CD0000009D8B40ED0AFECE5F06100FAF5E9F305
:100CE0006100FEF5EAF36800A4FF04FC6800A8FFB9
:100CF00005FC2AECE8F0040EC1ECE6F0F2ECE7F0BB
:100D00000009D8B4FBD7F2ECE7F00009D8B406D05C
:100D1000AFECE5F07EC508FC7FC509FC2AECE8F0E5
:100D2000050EC1ECE6F0F2ECE7F00009D8B4FBD711
:100D3000F2ECE7F00009D8B406D0AFECE5F07EC5E0
:100D40000AFC7FC50BFC2AECE8F0160EC1ECE6F0BD
:100D5000F2ECE7F00009D8B4FBD7F2ECE7F00009B9
:100D6000D8B406D0AFECE5F07EC52CFC7FC52DFCD9
:100D70002AECE8F0170EC1ECE6F0F2ECE7F000091F
:100D8000D8B4FBD7F2ECE7F00009D8B406D0AFEC4A
:100D9000E5F07EC52EFC7FC52FFC2AECE8F01D0E89
:100DA000C1ECE6F0F2ECE7F00009D8B4FBD7F2ECC6
:100DB000E7F00009D8B406D0AFECE5F07EC53AFC08
:100DC0007FC53BFC2AECE8F03B0EC1ECE6F0F2EC10
:100DD000E7F00009D8B4FBD7F2ECE7F00009D8B48B
:100DE00006D0AFECE5F07EC576FC7FC577FC2AEC3B
:100DF000E8F03C0EC1ECE6F0F2ECE7F00009D8B404
:100E0000FBD7F2ECE7F00009D8B406D0AFECE5F080
:100E10007EC578FC7FC579FC2AECE8F03D0EC1EC7C
:100E2000E6F0F2ECE7F00009D8B4FBD7F2ECE7F01B
:100E30000009D8B406D0AFECE5F07EC57AFC7FC5DA
:100E40007BFC2AECE8F03E0EC1ECE6F0F2ECE7F0B9
:100E50000009D8B4FBD7F2ECE7F00009D8B406D00B
:100E6000AFECE5F07EC57CFC7FC57DFC2AECE8F0AC
:100E70003F0EC1ECE6F0F2ECE7F00009D8B4FBD786
:100E8000F2ECE7F00009D8B406D0AFECE5F07EC58F
:100E90007EFC7FC57FFC680084FE7DF028EEF9F3C0
:100EA000DE50DE10DE10DE10D8A41AD0CCECE2F05A
:100EB000000E05019D6F000E9E6F000E9F6F000ECD
:100EC000A06F000EA16F000EA26F000EA36FE7ECE3
:100ED000D2F06EC7D9F46FC7DAF4DFBE1AECB1F006
:100EE000050EA7ECE4F00009D8B480D2CCECE4F015
:100EF000010E05017F6FF40E7E6F050E41ECE3F0ED
:100F0000040EA7ECE4F00009D8B403D0000E26ECE0
:100F1000E5F0000E41ECE1F00601F751D8B42CD217
:100F200031EC8AF0000E05017E6F000E0AECDBF05A
:100F30007EC553F67FC554F60601566B150E556FE8
:100F4000860E576FFC0E586F020E0501E325060151
:100F5000596F000E0501E42106015A6F0FECCDF028
:100F600018C77EF519C77FF51AC780F51BC781F52D
:100F7000010ED4ECC8F07EC58CF57FC58DF580C51B
:100F80008EF581C58FF5000E906F000E916F7A0E71
:100F9000926F440E936FC5ECB7F08CC5E5F68DC526
:100FA000E6F68EC5E7F68FC5E8F6000E7E6F010EF9
:100FB0000AECDBF07EC553F67FC554F60601566B8E
:100FC000150E556FBE0E576FFC0E586F0A01C451B7
:100FD0000C0D380EF3240601596FF80EF4205A6FE9
:100FE00014C77EF515C77FF516C780F517C781F5BD
:100FF0000A0E0501826F000E836F000E846F000ED3
:10100000856F48ECCEF07EC55BF67FC55CF680C58B
:101010005DF681C55EF6E5C65FF6E6C660F6E7C634
:1010200061F6E8C662F60FECCDF0000E05017E6FAA
:10103000020E0AECDBF07EC553F67FC554F60601BE
:10104000566B150E556FAF0E576FFB0E586F08019C
:10105000B3510C0D500EF3240601596FF80EF42015
:101060005A6F0C0EF903F3C4DAF6F4C4DBF6FA0394
:10107000F350DB27F00EDA255B6FF70EDB215C6F98
:10108000800E5E245D6FFF0E5F205E6F800E5C241D
:101090005F6FFF0E5D20606F800E5A24616FFF0E40
:1010A0005B20626F0FECCDF0000E05017E6F030E2A
:1010B0000AECDBF07EC553F67FC554F60601566B8D
:1010C000150E556F5A0E576FFA0E586F40C559F6E8
:1010D00041C55AF642C55BF643C55CF6F2C65DF6FD
:1010E000F3C65EF63EC55FF63FC560F60FECCDF089
:1010F000010E05017E6F000E0AECDBF07EC553F693
:101100007FC554F60601566B150E556FD20E576FFC
:10111000FA0E586FE7C859F6E8C85AF6F5C85BF6F4
:10112000F6C85CF60FECCDF0010E05017E6F010EE6
:101130000AECDBF07EC553F67FC554F60601566B0C
:10114000150E556F1F0E576FFB0E586FF1C859F6ED
:10115000F2C85AF6EFC85BF6F0C85CF60FECCDF0BB
:1011600018C77EF519C77FF51AC780F51BC781F52B
:10117000010ED4ECC8F07EC58CF57FC58DF580C519
:101180008EF581C58FF5000E906F000E916F7A0E6F
:10119000926F440E936FC5ECB7F08CC5E5F68DC524
:1011A000E6F68EC5E7F68FC5E8F6010E7E6F020EF5
:1011B0000AECDBF07EC553F67FC554F60601566B8C
:1011C000150E556F6A0E576FFB0E586F0CC759F608
:1011D0000DC75AF60EC75BF60FC75CF6E5C65DF69F
:1011E000E6C65EF6E7C65FF6E8C660F60FECCDF041
:1011F000010E05017E6F030E0AECDBF07EC553F68F
:101200007FC554F60601566B150E556FA20E576F2B
:10121000FC0E586F24C759F625C75AF626C75BF649
:1012200027C75CF630C75DF631C75EF632C75FF69A
:1012300033C760F662C761F663C762F60FECCDF0A4
:10124000020E05017E6F000E0AECDBF07EC553F640
:101250007FC554F60601566B150E556FF00E576F8D
:10126000FB0E586F53C859F654C85AF655C85BF66A
:1012700056C85CF657C85DF658C85EF659C85FF6A2
:101280005AC860F64FC861F650C862F60FECCDF050
:10129000020E05017E6F010E0AECDBF07EC553F6EF
:1012A0007FC554F60601566B150E556FF90E576F34
:1012B000FA0E586F08CCBEF509CCBFF56CECD5F032
:1012C000BEC559F6BFC55AF6C0C55BF6C1C55CF6CA
:1012D0000ACCBEF50BCCBFF5B0ECD5F0BEC55DF6C3
:1012E000BFC55EF6C0C55FF6C1C560F60FECCDF0B8
:1012F000020E05017E6F020E0AECDBF07EC553F68E
:101300007FC554F60601566B150E556FD60E576FF6
:10131000F90E586F08C859F609C85AF60AC85BF69C
:101320000BC85CF64CC85DF65E6B0FECCDF0020EA0
:1013300005017E6F030E0AECDBF07EC553F67FC518
:1013400054F60601566B150E556F4D0E576FFC0E79
:10135000586F7F0E596FFF0E5A6FCB0E5B6FFF0EEB
:101360005C6F0FECCDF0E8ECE6F00901666B06016E
:10137000F76B000EF3ECD5F028EED8F3DFC4DAF605
:10138000010EDF26460E0601DA652BD00501F3516A
:1013900046ECE5F028EED8F3DF500601DA6FDB6BA0
:1013A00028EEDAF3DF50DC6FDD6B660EDC27000E13
:1013B000DD23DA51DC5DDD51800ADE6FDB51800A0E
:1013C000DE59D8B013D00501F32BF351030B030AF8
:1013D000D8A402D0010EF36F000E6100A2F3D8F37F
:1013E00005D028EED7F3DF5046ECE5F028EEE3F326
:1013F000DF50D8B413D0030EA7ECE4F00009D8B442
:101400000AD0000E6100A2F3E3F328EED7F3DF5019
:1014100046ECE5F003D0030E46ECE5F028EEDEF3F3
:10142000DF50D8B41BD0060EA7ECE4F00009D8B406
:1014300015D0270E7F6F100E7E6F060E41ECE3F085
:101440000B0E7F6FB80E7E6F030E41ECE3F0010EC2
:101450006100A2F3E3F3000E89ECC7F0C0944BEFF8
:1014600081F07C0E046F230E056FA0ECE5F004C63E
:1014700096F805C697F8F20E536F1F0E546F566B11
:10148000190E556FFB0E576FFF0E586F96C88BF5F0
:1014900097C88CF581ECBBF08BC559F68CC55AF614
:1014A0000FECCDF0000E6100A1F3F5FF35EF93F0E6
:1014B000FBC6EAF514C77EF515C77FF516C780F59C
:1014C00017C781F5010ED4ECC8F07EC58CF57FC539
:1014D0008DF580C58EF581C58FF5000E906F000EDD
:1014E000916F200E926F410E936FC5ECB7F08CC5D3
:1014F000C2F68DC5C3F68EC5C4F68FC5C5F624C722
:101500007EF525C77FF526C780F527C781F5010E33
:10151000D4ECC8F07EC58CF57FC58DF580C58EF501
:1015200081C58FF5000E906F000E916F200E926FA7
:10153000410E936FC5ECB7F08CC5C6F68DC5C7F6E6
:101540008EC5C8F68FC5C9F628C77EF529C77FF5B1
:101550002AC780F52BC781F5010ED4ECC8F07EC5F3
:101560008CF57FC58DF580C58EF581C58FF5000E94
:10157000906F000E916F200E926F410E936FC5EC2D
:10158000B7F08CC5CAF68DC5CBF68EC5CCF68FC527
:10159000CDF630C77EF531C77FF532C780F533C74A
:1015A00081F5010ED4ECC8F07EC58CF57FC58DF5B4
:1015B00080C58EF581C58FF5000E906F000E916F7E
:1015C000200E926F410E936FC5ECB7F08CC5CEF62E
:1015D0008DC5CFF68EC5D0F68FC5D1F63CC77EF54A
:1015E0003DC77FF53EC780F53FC781F5010ED4ECBE
:1015F000C8F07EC58CF57FC58DF580C58EF581C59B
:101600008FF5000E906F000E916F200E926F410EBD
:10161000936FC5ECB7F08CC5D2F68DC5D3F68EC5E9
:10162000D4F68FC5D5F621EE62F3DEC47EF5DDC4B7
:101630007FF5000E7FBFFF0E806F816F010ED4EC2F
:10164000C8F07EC58CF57FC58DF580C58EF581C54A
:101650008FF5000E906F000E916F200E926F410E6D
:10166000936FC5ECB7F08CC5D6F68DC5D7F68EC591
:10167000D8F68FC5D9F6F20E0601536F1D0E546FC2
:10168000020E566F000E556FC10E576FF60E586F53
:10169000EAC559F65A6BC2C65BF6C3C65CF6C4C649
:1016A0005DF6C5C65EF618CD5FF619CD60F61ACDAB
:1016B00061F61BCD62F6C6C663F6C7C664F6C8C639
:1016C00065F6C9C666F6CAC667F6CBC668F6CCC666
:1016D00069F6CDC66AF6CEC66BF6CFC66CF6D0C636
:1016E0006DF6D1C66EF6D2C66FF6D3C670F6D4C606
:1016F00071F6D5C672F6D6C673F6D7C674F6D8C6D6
:1017000075F6D9C676F670CD77F671CD78F672CDCE
:1017100079F673CD7AF640C57BF641C57CF642C5B5
:101720007DF643C57EF6F2C67FF6F3C680F63EC56B
:1017300081F63FC582F6800E5E24836FFF0E5F2028
:10174000846F800E5C24856FFF0E5D20866F800E97
:101750005A24876FFF0E5B20886F44C589F645C504
:101760008AF6B3C88BF68C6BF9C68DF6FAC68EF680
:10177000C7CA8FF6906BF8C891F6F9C892F6FAC806
:1017800093F6FBC894F6FCC895F6FDC896F6FEC81D
:1017900097F6FFC898F6EBC799F6ECC79AF6EDC72F
:1017A0009BF6EEC79CF6F3C79DF6F4C79EF6F5C709
:1017B0009FF6F6C7A0F6F7C7A1F6F8C7A2F6F9C7D5
:1017C000A3F6FAC7A4F6FBC7A5F6FCC7A6F6FDC7A5
:1017D000A7F6FEC7A8F60FECCDF0120E99EF91F028
:1017E000FBC6EAF500C77EF501C77FF502C780F5A5
:1017F00003C781F5010ED4ECC8F07EC58CF57FC51A
:101800008DF580C58EF581C58FF5000E906F000EA9
:10181000916F200E926F410E936FC5ECB7F08CC59F
:10182000C2F68DC5C3F68EC5C4F68FC5C5F604C70E
:101830007EF505C77FF506C780F507C781F5010E60
:10184000D4ECC8F07EC58CF57FC58DF580C58EF5CE
:1018500081C58FF5000E906F000E916F200E926F74
:10186000410E936FC5ECB7F08CC5C6F68DC5C7F6B3
:101870008EC5C8F68FC5C9F608C77EF509C77FF5BE
:101880000AC780F50BC781F5010ED4ECC8F07EC500
:101890008CF57FC58DF580C58EF581C58FF5000E61
:1018A000906F000E916F200E926F410E936FC5ECFA
:1018B000B7F08CC5CAF68DC5CBF68EC5CCF68FC5F4
:1018C000CDF61CC77EF51DC77FF51EC780F51FC767
:1018D00081F5010ED4ECC8F07EC58CF57FC58DF581
:1018E00080C58EF581C58FF5000E906F000E916F4B
:1018F0007A0E926F440E936FC5ECB7F08CC5CEF69E
:101900008DC5CFF68EC5D0F68FC5D1F62CC77EF526
:101910002DC77FF52EC780F52FC781F5010ED4ECBA
:10192000C8F07EC58CF57FC58DF580C58EF581C567
:101930008FF5000E906F000E916F200E926F410E8A
:10194000936FC5ECB7F08CC5D2F68DC5D3F68EC5B6
:10195000D4F68FC5D5F650C77EF551C77FF552C76F
:1019600080F553C781F5010ED4ECC8F07EC58CF527
:101970007FC58DF580C58EF581C58FF5000E906F02
:10198000000E916F200E926F410E936FC5ECB7F071
:101990008CC5D6F68DC5D7F68EC5D8F68FC5D9F6C7
:1019A00021EE5CF3DEC47EF5DDC47FF5000E7FBF63
:1019B000FF0E806F816F010ED4ECC8F07EC58CF5F0
:1019C0007FC58DF580C58EF581C58FF5000E906FB2
:1019D000000E916F200E926F410E936FC5ECB7F021
:1019E0008CC5BAF68DC5BBF68EC5BCF68FC5BDF6E7
:1019F00021EE5EF3DEC47EF5DDC47FF5000E7FBF11
:101A0000FF0E806F816F010ED4ECC8F07EC58CF59F
:101A10007FC58DF580C58EF581C58FF5000E906F61
:101A2000000E916F200E926F410E936FC5ECB7F0D0
:101A30008CC5BEF68DC5BFF68EC5C0F68FC5C1F686
:101A4000F20E0601536F1D0E546F020E566F000EFC
:101A5000556F0A0E576FF60E586FEAC559F65A6B56
:101A6000C2C65BF6C3C65CF6C4C65DF6C5C65EF606
:101A7000C6C65FF6C7C660F6C8C661F6C9C662F6D6
:101A8000CAC663F6CBC664F6CCC665F6CDC666F6A6
:101A9000CEC667F6CFC668F6D0C669F6D1C66AF676
:101AA000D2C66BF6D3C66CF6D4C66DF6D5C66EF646
:101AB000D6C66FF6D7C670F6D8C671F6D9C672F616
:101AC000BAC673F6BBC674F6BCC675F6BDC676F666
:101AD000BEC677F6BFC678F6C0C679F6C1C67AF636
:101AE00040C57BF641C57CF642C57DF643C57EF612
:101AF000F2C67FF6F3C680F63EC581F63FC582F694
:101B0000800E5E24836FFF0E5F20846F800E5C2446
:101B1000856FFF0E5D20866F800E5A24876FFF0E43
:101B20005B20886F44C589F645C58AF6B3C88BF635
:101B30008C6BF9C68DF6FAC68EF6C7CA8FF6906B17
:101B4000F8C891F6F9C892F6FAC893F6FBC894F66D
:101B5000FCC895F6FDC896F6FEC897F6FFC898F63D
:101B6000EBC799F6ECC79AF6EDC79BF6EEC79CF665
:101B7000F3C79DF6F4C79EF6F5C79FF6F6C7A0F625
:101B8000F7C7A1F6F8C7A2F6F9C7A3F6FAC7A4F6F5
:101B9000FBC7A5F6FCC7A6F6FDC7A7F6FEC7A8F6C5
:101BA0000FECCDF0110E0601FB6F04004BEF93F02C
:101BB000FBC6EAF514C77EF515C77FF516C780F595
:101BC00017C781F5010ED4ECC8F07EC58CF57FC532
:101BD0008DF580C58EF581C58FF5000E906F000ED6
:101BE000916F200E926F410E936FC5ECB7F08CC5CC
:101BF000C2F68DC5C3F68EC5C4F68FC5C5F618C727
:101C00007EF519C77FF51AC780F51BC781F5010E50
:101C1000D4ECC8F07EC58CF57FC58DF580C58EF5FA
:101C200081C58FF5000E906F000E916F7A0E926F46
:101C3000440E936FC5ECB7F08CC5C6F68DC5C7F6DC
:101C40008EC5C8F68FC5C9F624C77EF525C77FF5B2
:101C500026C780F527C781F5010ED4ECC8F07EC5F4
:101C60008CF57FC58DF580C58EF581C58FF5000E8D
:101C7000906F000E916F200E926F410E936FC5EC26
:101C8000B7F08CC5CAF68DC5CBF68EC5CCF68FC520
:101C9000CDF628C77EF529C77FF52AC780F52BC763
:101CA00081F5010ED4ECC8F07EC58CF57FC58DF5AD
:101CB00080C58EF581C58FF5000E906F000E916F77
:101CC000200E926F410E936FC5ECB7F08CC5CEF627
:101CD0008DC5CFF68EC5D0F68FC5D1F630C77EF54F
:101CE00031C77FF532C780F533C781F5010ED4ECDB
:101CF000C8F07EC58CF57FC58DF580C58EF581C594
:101D00008FF5000E906F000E916F200E926F410EB6
:101D1000936FC5ECB7F08CC5D2F68DC5D3F68EC5E2
:101D2000D4F68FC5D5F63CC77EF53DC77FF53EC7D7
:101D300080F53FC781F5010ED4ECC8F07EC58CF567
:101D40007FC58DF580C58EF581C58FF5000E906F2E
:101D5000000E916F200E926F410E936FC5ECB7F09D
:101D60008CC5D6F68DC5D7F68EC5D8F68FC5D9F6F3
:101D700021EE62F3DEC47EF5DDC47FF5000E7FBF89
:101D8000FF0E806F816F010ED4ECC8F07EC58CF51C
:101D90007FC58DF580C58EF581C58FF5000E906FDE
:101DA000000E916F200E926F410E936FC5ECB7F04D
:101DB0008CC5BAF68DC5BBF68EC5BCF68FC5BDF613
:101DC00078CB7EF579CB7FF57ACB80F57BCB81F52F
:101DD000010ED4ECC8F07EC58CF57FC58DF580C5AD
:101DE0008EF581C58FF5000E906F000E916F7A0E03
:101DF000926F440E936FC5ECB7F08CC5BEF68DC5DF
:101E0000BFF68EC5C0F68FC5C1F6F20E0601536F40
:101E10001D0E546F020E566F000E556F530E576F06
:101E2000F50E586FEAC559F65A6BC2C65BF6C3C6C3
:101E30005CF6C4C65DF6C5C65EF6C6C65FF6C7C626
:101E400060F6C8C661F6C9C662F6CAC663F6CBC6F6
:101E500064F6CCC665F6CDC666F6CEC667F6CFC6C6
:101E600068F6D0C669F6D1C66AF6D2C66BF6D3C696
:101E70006CF6D4C66DF6D5C66EF6D6C66FF6D7C666
:101E800070F6D8C671F6D9C672F6BAC673F6BBC676
:101E900074F6BCC675F6BDC676F6BEC677F6BFC686
:101EA00078F6C0C679F6C1C67AF640C57BF641C55C
:101EB0007CF642C57DF643C57EF6F2C67FF6F3C6D4
:101EC00080F63EC581F63FC582F6800E5E24836FA4
:101ED000FF0E5F20846F800E5C24856FFF0E5D20F7
:101EE000866F800E5A24876FFF0E5B20886F44C573
:101EF00089F645C58AF6B3C88BF68C6BF9C68DF6A4
:101F0000FAC68EF6C7CA8FF6906BF8C891F6F9C874
:101F100092F6FAC893F6FBC894F6FCC895F6FDC88D
:101F200096F6FEC897F6FFC898F6EBC799F6ECC789
:101F30009AF6EDC79BF6EEC79CF6F3C79DF6F4C77D
:101F40009EF6F5C79FF6F6C7A0F6F7C7A1F6F8C745
:101F5000A2F6F9C7A3F6FAC7A4F6FBC7A5F6FCC715
:101F6000A6F6FDC7A7F6FEC7A8F60FECCDF0140E37
:101F7000E0D1FBC6EAF514C77EF515C77FF516C795
:101F800080F517C781F5010ED4ECC8F07EC58CF53D
:101F90007FC58DF580C58EF581C58FF5000E906FDC
:101FA000000E916F200E926F410E936FC5ECB7F04B
:101FB0008CC5C2F68DC5C3F68EC5C4F68FC5C5F6F1
:101FC00018C77EF519C77FF51AC780F51BC781F5BD
:101FD000010ED4ECC8F07EC58CF57FC58DF580C5AB
:101FE0008EF581C58FF5000E906F000E916F7A0E01
:101FF000926F440E936FC5ECB7F08CC5C6F68DC5D5
:10200000C7F68EC5C8F68FC5C9F624C77EF525C7A5
:102010007FF526C780F527C781F5010ED4ECC8F0FF
:102020007EC58CF57FC58DF580C58EF581C58FF594
:10203000000E906F000E916F200E926F410E936F05
:10204000C5ECB7F08CC5CAF68DC5CBF68EC5CCF6FF
:102050008FC5CDF628C77EF529C77FF52AC780F53D
:102060002BC781F5010ED4ECC8F07EC58CF57FC579
:102070008DF580C58EF581C58FF5000E906F000E31
:10208000916F200E926F410E936FC5ECB7F08CC527
:10209000CEF68DC5CFF68EC5D0F68FC5D1F630C73A
:1020A0007EF531C77FF532C780F533C781F5010E64
:1020B000D4ECC8F07EC58CF57FC58DF580C58EF556
:1020C00081C58FF5000E906F000E916F200E926FFC
:1020D000410E936FC5ECB7F08CC5D2F68DC5D3F623
:1020E0008EC5D4F68FC5D5F63CC77EF53DC77FF5C6
:1020F0003EC780F53FC781F5010ED4ECC8F07EC520
:102100008CF57FC58DF580C58EF581C58FF5000EE8
:10211000906F000E916F200E926F410E936FC5EC81
:10212000B7F08CC5D6F68DC5D7F68EC5D8F68FC557
:10213000D9F621EE62F3DEC47EF5DDC47FF5000E34
:102140007FBFFF0E806F816F010ED4ECC8F07EC59B
:102150008CF57FC58DF580C58EF581C58FF5000E98
:10216000906F000E916F200E926F410E936FC5EC31
:10217000B7F08CC5BAF68DC5BBF68EC5BCF68FC55B
:10218000BDF678CB7EF579CB7FF57ACB80F57BCB2E
:1021900081F5010ED4ECC8F07EC58CF57FC58DF5B8
:1021A00080C58EF581C58FF5000E906F000E916F82
:1021B0007A0E926F440E936FC5ECB7F08CC5BEF6E5
:1021C0008DC5BFF68EC5C0F68FC5C1F6F20E0601ED
:1021D000536F1D0E546F020E566F000E556F9C0EFE
:1021E000576FF40E586FEAC559F65A6BC2C65BF6C4
:1021F000C3C65CF6C4C65DF6C5C65EF6C6C65FF667
:10220000C7C660F6C8C661F6C9C662F6CAC663F636
:10221000CBC664F6CCC665F6CDC666F6CEC667F606
:10222000CFC668F6D0C669F6D1C66AF6D2C66BF6D6
:10223000D3C66CF6D4C66DF6D5C66EF6D6C66FF6A6
:10224000D7C670F6D8C671F6D9C672F6BAC673F696
:10225000BBC674F6BCC675F6BDC676F6BEC677F6C6
:10226000BFC678F6C0C679F6C1C67AF640C57BF619
:1022700041C57CF642C57DF643C57EF6F2C67FF6C3
:10228000F3C680F63EC581F63FC582F6800E5E2419
:10229000836FFF0E5F20846F800E5C24856FFF0EBE
:1022A0005D20866F800E5A24876FFF0E5B20886F3B
:1022B00044C589F645C58AF6B3C88BF68C6BF9C65A
:1022C0008DF6FAC68EF6C7CA8FF6906BF8C891F6EF
:1022D000F9C892F6FAC893F6FBC894F6FCC895F6CE
:1022E000FDC896F6FEC897F6FFC898F6EBC799F6B4
:1022F000ECC79AF6EDC79BF6EEC79CF6F3C79DF6C2
:10230000F4C79EF6F5C79FF6F6C7A0F6F7C7A1F685
:10231000F8C7A2F6F9C7A3F6FAC7A4F6FBC7A5F655
:10232000FCC7A6F6FDC7A7F6FEC7A8F60FECCDF0D2
:10233000110E0601FB6FAFD1110EFB6F110E0501DF
:10234000EA6F14C77EF515C77FF516C780F517C766
:1023500081F5010ED4ECC8F07EC58CF57FC58DF5F6
:1023600080C58EF581C58FF5000E906F000E916FC0
:10237000200E926F410E936FC5ECB7F08CC5C2F67C
:102380008DC5C3F68EC5C4F68FC5C5F624C77EF5C8
:1023900025C77FF526C780F527C781F5010ED4EC48
:1023A000C8F07EC58CF57FC58DF580C58EF581C5DD
:1023B0008FF5000E906F000E916F200E926F410E00
:1023C000936FC5ECB7F08CC5C6F68DC5C7F68EC544
:1023D000C8F68FC5C9F628C77EF529C77FF52AC775
:1023E00080F52BC781F5010ED4ECC8F07EC58CF5C5
:1023F0007FC58DF580C58EF581C58FF5000E906F78
:10240000000E916F200E926F410E936FC5ECB7F0E6
:102410008CC5CAF68DC5CBF68EC5CCF68FC5CDF66C
:1024200030C77EF531C77FF532C780F533C781F5F8
:10243000010ED4ECC8F07EC58CF57FC58DF580C546
:102440008EF581C58FF5000E906F000E916F200EF6
:10245000926F410E936FC5ECB7F08CC5CEF68DC56B
:10246000CFF68EC5D0F68FC5D1F63CC77EF53DC7F9
:102470007FF53EC780F53FC781F5010ED4ECC8F06B
:102480007EC58CF57FC58DF580C58EF581C58FF530
:10249000000E906F000E916F200E926F410E936FA1
:1024A000C5ECB7F08CC5D2F68DC5D3F68EC5D4F683
:1024B0008FC5D5F621EE62F3DEC47EF5DDC47FF56F
:1024C000000E7FBFFF0E806F816F010ED4ECC8F04D
:1024D0007EC58CF57FC58DF580C58EF581C58FF5E0
:1024E000000E906F000E916F200E926F410E936F51
:1024F000C5ECB7F08CC5D6F68DC5D7F68EC5D8F627
:102500008FC5D9F6F20E0601536F1D0E546F020EE1
:10251000566F000E556FC10E576FF60E586FEAC515
:1025200059F65A6BC2C65BF6C3C65CF6C4C65DF606
:10253000C5C65EF618CD5FF619CD60F61ACD61F608
:102540001BCD62F6C6C663F6C7C664F6C8C665F696
:10255000C9C666F6CAC667F6CBC668F6CCC669F6C3
:10256000CDC66AF6CEC66BF6CFC66CF6D0C66DF693
:10257000D1C66EF6D2C66FF6D3C670F6D4C671F663
:10258000D5C672F6D6C673F6D7C674F6D8C675F633
:10259000D9C676F670CD77F671CD78F672CD79F62C
:1025A00073CD7AF640C57BF641C57CF642C57DF613
:1025B00043C57EF6F2C67FF6F3C680F63EC581F6C9
:1025C0003FC582F6800E5E24836FFF0E5F20846F0E
:1025D000800E5C24856FFF0E5D20866F800E5A246E
:1025E000876FFF0E5B20886F44C589F645C58AF664
:1025F000B3C88BF68C6BF9C68DF6FAC68EF6C7CAD1
:102600008FF6906BF8C891F6F9C892F6FAC893F66F
:10261000FBC894F6FCC895F6FDC896F6FEC897F67A
:10262000FFC898F6EBC799F6ECC79AF6EDC79BF68C
:10263000EEC79CF6F3C79DF6F4C79EF6F5C79FF666
:10264000F6C7A0F6F7C7A1F6F8C7A2F6F9C7A3F632
:10265000FAC7A4F6FBC7A5F6FCC7A6F6FDC7A7F602
:10266000FEC7A8F60FECCDF016D00601FB51020A0A
:10267000D8B458EF8AF0130AD8B458EF8AF0030A96
:10268000D8B4F0EF8BF0010AD8B4D8EF8DF0070A78
:10269000D8B46FD451D6F20E0501E36F1D0EE46F6E
:1026A000020EE66F000EE56FE86B000EE76F010E9D
:1026B000E96F010E0701BD6F1200D6C5D9F4D7C569
:1026C000DAF4DEC4F6F4DDC4F7F4000EF86E0800A8
:1026D000F550250AD8A488EF99F0D6C5D9F4D7C506
:1026E000DAF4DE2A000EDD220601EF6B000EEE6F3B
:1026F000EEC6F4F6F069F169416B30D0F481D6C5CD
:10270000D9F4D7C5DAF4DE2A000EDD2227D0F4830F
:10271000F6D7F485F4D7F487F2D7F489F0D7010E11
:10272000416F1CD0D6C5D9F4D7C5DAF4DEC4F6F4AF
:10273000DDC4F7F4000EF86E0800F550200AD8B496
:10274000EAD7030AD8B4E9D7080AD8B4E2D7060A08
:10275000D8B4D4D71D0AD8B4DAD7E1D74151D8B408
:10276000E1D7F4B1F493D6C57EF5D7C57FF5D8C5CA
:1027700080F5D9C581F56EECCFF07EC5EEF67FC54C
:10278000EFF60601EFAF05D0F481EE6DEF1FD8B084
:10279000EF2BD6C5D9F4D7C5DAF4DEC4F6F4DDC420
:1027A000F7F4000EF86E0800F5502E0AD8A415D0E4
:1027B000D6C5D9F4D7C5DAF4DE2A000EDD22D6C597
:1027C0007EF5D7C57FF5D8C580F5D9C581F56EEC06
:1027D000CFF07EC5F0F67FC5F1F6D6C5D9F4D7C5E2
:1027E000DAF4DEC4F6F4DDC4F7F4000EF86E080087
:1027F000F550630AD8A427D0D6C5D9F4D7C5DAF4E2
:10280000DE2A000EDD22D8C5D9F4D9C5DAF4DFC43A
:1028100033F6020EDE26DFC434F6000EDD2233C6A8
:10282000D9F434C6DAF4DF500601426FD4C587F517
:10283000D5C588F542C689F575ECD0F087C5D4F5C5
:1028400088C5D5F51200D6C5D9F4D7C5DAF4DEC4EB
:102850004BF6DDC44CF64BC6F6F44CC6F7F4000E4E
:10286000F86E0800F5C442F626D04B4B4C2B4BC6F5
:10287000F6F44CC6F7F4000EF86E0800F550680A3E
:10288000D8A440D0480E426F4B4B4C2B3BD04B4B07
:102890004C2B4BC6F6F44CC6F7F4000EF86E08004D
:1028A000F5506C0AD8A42ED04C0EEDD7690E426FAD
:1028B00029D0426B27D006014251580AD8B4F6D726
:1028C0003C0AD8B4F3D70C0AD8B4CFD7010AD8B48D
:1028D000EDD7030AD8B4D8D7060AD8B4D8D7020A95
:1028E000D8B4E4D7010AD8B4E1D71B0AD8B4CCD7FE
:1028F000010AD8B4DBD70D0AD8B4D8D7020AD8B4A5
:10290000C3D7D7D74BC6F6F44CC6F7F4000EF86E13
:102910000800F550640AD8B4CBD04BC6F6F44CC6C8
:10292000F7F4000EF86E0800F550690AD8B4C0D06C
:1029300001D1D8C5D9F4D9C5DAF4DFC433F6020E13
:10294000DE26DFC434F6000EDD2233C6D9F434C6E9
:10295000DAF4DF50436F000E43BFFF0E446F51D0D7
:10296000D8C5D9F4D9C5DAF4DFC433F6040EDE26AF
:10297000DFC434F6000EDD2233C6D9F434C6DAF4EF
:10298000DEC435F6DEC436F6DEC437F6DEC438F60D
:1029900035C639F636C63AF637C63BF638C63CF683
:1029A0003D6B3CBF3D693DC63EF63DC63FF63DC66C
:1029B00040F639C643F63AC644F63BC645F63CC631
:1029C00046F63DC647F63EC648F63FC649F640C6FF
:1029D0004AF687D0D8C5D9F4D9C5DAF4DFC433F6BE
:1029E000020EDE26DFC434F6000EDD2233C6D9F433
:1029F00034C6DAF4DEC443F6DDC444F6000E44BF48
:102A0000FF0E456F466F476F486F496F4A6F69D039
:102A1000D8C5D9F4D9C5DAF4DFC433F6080EDE26FA
:102A2000DFC434F6000EDD2233C6D9F434C6DAF43E
:102A3000DEC435F6DEC436F6DEC437F6DEC438F65C
:102A4000DEC439F6DEC43AF6DEC43BF6DEC43CF63C
:102A500035C643F636C644F637C645F638C646F69A
:102A600039C647F63AC648F63BC649F63CC64AF66A
:102A700038D0D8C5D9F4D9C5DAF4DFC433F6020E9C
:102A8000DE26DFC434F6000EDD2233C6D9F434C6A8
:102A9000DAF4DEC435F6DDC436F635C643F636C69E
:102AA00044F6456B466B476B486B496B4A6B19D0D4
:102AB0004251480AD8B43DD7040AD8B4A9D7240A49
:102AC000D8B488D7010AD8B485D7030AD8B4A0D718
:102AD000060AD8B445D7180AD8B47CD70E0AD8B499
:102AE000C8D7010E4B25336F000E4C21346FD6C56D
:102AF000D9F4D7C5DAF433C6DEF434C6DDF4D4C570
:102B000098F5D5C599F543C69AF544C69BF545C6D3
:102B10009CF546C69DF547C69EF548C69FF549C635
:102B2000A0F54AC6A1F5D2ECBEF098C5D4F599C57A
:102B3000D5F512004BC6F6F44CC6F7F4000EF86E4D
:102B40000800F550780AD8B4C7D04BC6F6F44CC686
:102B5000F7F4000EF86E0800F550580AD8B4BCD04F
:102B60004BC6F6F44CC6F7F4000EF86E0800F550AC
:102B70006F0AD8B4B1D04BC6F6F44CC6F7F4000EC9
:102B8000F86E0800F550750AD8B4A6D03BD1D8C568
:102B9000D9F4D9C5DAF4DFC433F6020EDE26DFC479
:102BA00034F6000EDD2233C6D9F434C6DAF4DF5031
:102BB000356F3551436F446B88D0D8C5D9F4D9C52A
:102BC000DAF4DFC433F6040EDE26DFC434F6000E7A
:102BD000DD2233C6D9F434C6DAF4DEC435F6DEC4F9
:102BE00036F6DEC437F6DEC438F63551436F36515B
:102BF000446F3751456F3851466F69D0D8C5D9F405
:102C0000D9C5DAF4DFC433F6020EDE26DFC434F6AB
:102C1000000EDD2233C6D9F434C6DAF4DEC443F63E
:102C2000DDC444F6000E44BFFF0E456F466F476F8C
:102C3000486F496F4A6F69D0D8C5D9F4D9C5DAF45D
:102C4000DFC433F6080EDE26DFC434F6000EDD22C4
:102C500033C6D9F434C6DAF4DEC435F6DEC436F64B
:102C6000DEC437F6DEC438F6DEC439F6DEC43AF622
:102C7000DEC43BF6DEC43CF635C643F636C644F643
:102C800037C645F638C646F639C647F63AC648F658
:102C90003BC649F63CC64AF638D0D8C5D9F4D9C5A2
:102CA000DAF4DFC433F6020EDE26DFC434F6000E9B
:102CB000DD2233C6D9F434C6DAF4DEC435F6DDC419
:102CC00036F635C643F636C644F6456B466B476B5B
:102CD000486B496B4A6B19D04251480AD8B457D750
:102CE000040AD8B4A9D7240AD8B4D7D7010AD8B4CB
:102CF000D4D7030AD8B4A0D7060AD8B45ED7180A26
:102D0000D8B47CD70E0AD8B4C8D7010E4B25336F80
:102D1000000E4C21346FD6C5D9F4D7C5DAF433C6CA
:102D2000DEF434C6DDF45AD0D4C597F5D5C598F590
:102D300043C699F544C69AF545C69BF546C69CF52B
:102D400047C69DF548C69EF549C69FF54AC6A0F5FB
:102D5000D7ECC4F097C5D4F598C5D5F51200D4C505
:102D600097F5D5C598F543C699F544C69AF545C675
:102D70009BF546C69CF547C69DF548C69EF549C6D7
:102D80009FF54AC6A0F511ECC4F097C5D4F598C5D7
:102D9000D5F51200D4C597F5D5C598F543C699F574
:102DA00044C69AF545C69BF546C69CF547C69DF5B3
:102DB00048C69EF549C69FF54AC6A0F54BC6F6F42F
:102DC0004CC6F7F4000EF86E0800F5C4A1F5D5EC7A
:102DD000BFF097C5D4F598C5D5F512004BC6F6F4EB
:102DE0004CC6F7F4000EF86E0800F550580AD8B437
:102DF000D1D7370AD8B498D71A0AD8B4B0D70D0AA1
:102E0000D8B4C8D74BC6F6F44CC6F7F4000EF86E2B
:102E10000800F5506E0AD8B489D0B4D0D8C5D9F41A
:102E2000D9C5DAF4DFC433F6020EDE26DFC434F689
:102E3000000EDD2233C6D9F434C6DAF4DEC4E1F480
:102E4000DEC4E2F4ECC6E7F48AD0ECC633F6EDC695
:102E500034F6000E34BFFF0E356F366FD8C5D9F487
:102E6000D9C5DAF4DFC437F6020EDE26DFC438F641
:102E7000000EDD2237C6D9F438C6DAF4DEC4E1F438
:102E8000DEC4E2F433C6E6F434C6E6F435C6E6F44E
:102E900036C6E7F464D0ECC633F6EDC634F6000E61
:102EA00034BFFF0E356F366F376F386F396F3A6F3B
:102EB000D8C5D9F4D9C5DAF4DFC43BF6020EDE2654
:102EC000DFC43CF6000EDD223BC6D9F43CC6DAF482
:102ED000DEC4E1F4DEC4E2F433C6E6F434C6E6F45C
