:0400000085EF00F098
:1000080076087608760876087608760876086B0704
:1000180076087608A904B70476087608760876087C
:10002800C5047608760876088D0476089B04760859
:100038007608760876087608FD02760876085C0366
:100048005B054E0576087608760876087608760801
:1000580075057608680576086202760876087608D7
:100068007608760876087608D304E104EF04760863
:1000780076087608760876084200760876087608C4
:100088007608760876087608EC0276087608760808
:100098008F05820576087608420076087608760885
:1000A8007608760876087608FD040B0519057608A3
:1000B8007608760876087608760876087608760848
:1000C8007608760876087608760876087608760838
:1000D8007608760876087608760876087608760828
:1000E8004200760876087608760876087608760854
:1000F8006B0876087608C3067608760876087608C8
:10010800FF0063EFE4F08A698B6922D081C5D9F4D6
:1001180082C5DAF4DF508A19896F814B822B970EDA
:100128008925F66EF76AF30EF722F86A000EF822B0
:100138000800F5508B198A6F970E8925F66EF76AB5
:10014800F20EF722F86A000EF8220800F5C48BF5C3
:100158008307D8A084078329D9E18429D7E18A5164
:10016800856F8B51876F85C588F587C581F588C5EB
:1001780082F51200E86B9C0E0501846F100E856FE6
:1001880084C5F9F085C5FAF00001FB6BF16B810EAF
:10019800F06F020EFD6FF86B010EF76FEF6B010E3B
:1001A800EE6F190EFF6FFE6BB09AB098B09EB09CC0
:1001B800A09AA088E20E0501816F210E826F000EC1
:1001C800836F26EC10F0A09EA08CE20E816F210EAA
:1001D800826F000E836F2DEC10F0C00E0001FC6FD3
:1001E800C00C86C581F587C582F5000E856F81C56F
:1001F80083F582C584F50501D89083378437855106
:10020800020D740EF324D96E0B0EF420DA6E83C53A
:10021800DEF484C5DDF404D0000000000000000016
:10022800000E0501836F05018351020D740EF3243E
:10023800D96E0B0EF420DA6EDE50DE1004E101D028
:1002480002D0010E01D0000E0009E6E012008EC5B2
:10025800D9F48FC5DAF492C5DFF40A0E816F905194
:1002680007EC0DF0300F8E07D8A08F078EC5D9F494
:100278008FC5DAF4DF6E90C586F5876B896B0A0E39
:10028800886F8CECFDF08651906F90510BE0905187
:10029800300F8E07D8A08F078EC5D9F48FC5DAF432
:1002A800DF6E12008E07D8A08F078EC5D9F48FC5D0
:1002B800DAF491C5DFF41200896B8A6B800E83151E
:1002C8008B6F7F0E84158C6F89518A118B118C115D
:1002D80004E1816B826B836B846B896B8A6B800E04
:1002E80087158B6F7F0E88158C6F89518A118B113A
:1002F8008C1104E1856B866B876B886B855181193E
:1003080009E18651821906E18751831903E1885171
:10031800841902E0D8901200D8801200D68A000E04
:10032800D6BE010E0501816FD69E550E0401596F88
:10033800AA0E596F59915F6B5E6B080E5D6F550E73
:10034800596FAA0E596F5981050181B102D0D69E05
:1003580001D0D68E0301688B6889688D67856781AF
:100368006489648D6C8B6C896C8D628F6B836B81F7
:1003780066836681659F71976A9967996599120086
:100388008CC581F58DC582F5F3EC0CF081518E6F2B
:1003980011ECFCF0AAEC10F0C196140E05018E6564
:1003A80001D08E6F6CC781F56DC782F58CC583F55A
:1003B8008DC584F58EC585F5866BE1EC02F00001EC
:1003C800E86BFC9F8EC581F50501826B69EC0FF027
:1003D8000501826B010E816F70EC0FF0FC8FC8EF86
:1003E80010F0855186118711881123E0010E896F5D
:1003F80006D0D8908537863787378837892B88AFD6
:10040800F8D78551815D8651825987518359885122
:10041800845908E38551815F8651825B8751835BEC
:100428008851845BD8908833873386338533892F06
:10043800E8D781C581F582C582F583C583F584C572
:1004480084F5120000C041459A9949410000000016
:10045800000096439A9949410000004000000000BE
:100468000000000000000000000000000000000084
:100478000000000000000000000010000000000064
:100488000000000000000000000000000000000064
:10049800000000000000000000000000000CFFFF4A
:1004A8000B00000100000001000000010000000135
:1004B8000000000100000000000000000000000033
:1004C8000000000000000000000000000000000024
:1004D8000000010200000008000000000000000AFF
:1004E80000000102000100C600000000000000C971
:1004F80000000104000000010000000000000005E9
:0105080000F2
:10050A00896F11ECFCF0AAEC10F0C1966CC7D9F413
:10051A006DC7DAF4FE0EDF6E20EE01F06C51D926BB
:10052A006D51DA22450EDF6E20EE02F06C51D926AB
:10053A006D51DA2289C5DFF40001E86BFC9F0501E1
:10054A00826B030E816F69EC0FF00501826B010E5D
:10055A00816F70EC0FF0FC8FC8EF10F081C587F542
:10056A0082C588F516D08507D8A0860783C5F6F414
:10057A0084C5F7F4834B842B000EF86E87C5D9F433
:10058A0088C5DAF4874B882B0800F5C4DFF4DF50FE
:10059A000BE08551861108E0E6D787C5D9F488C5EE
:1005AA00DAF4DF6A874B882B8507D8A08607852966
:1005BA00F4E18629F2E1120083C589F584C58AF53A
:1005CA0081C587F582C588F51DD089C5F6F48AC527
:1005DA00F7F4000EF86E3F0EF76403D00800F550EA
:1005EA0005D0F6C4E1F4F7C4E2F4E75005018B6FD5
:1005FA00894B8A2B87C5D9F488C5DAF48BC5DFF411
:10060A00874B882B8507D8A086078529DEE18629AE
:10061A00DCE1120092EC01F012EC0FF0CCECFBF0F2
:10062A00C6ECF2F0FBEC0EF05BECFFF0BEEC00F077
:10063A00BBEC0EF007EC0FF01BEC06F00EEC0CF026
:10064A0022ECFFF02DEC04F05BEC10F006EC04F069
:10065A0054EC04F0AEECFAF085ECFBF067EC03F036
:10066A00C8EC0EF090EC03F090EC08F0E0EF0FF01D
:10067A00926F47500AE01200400E03D0140E01D0C8
:10068A00540E936F0CD0936B0AD005019251FBE084
:10069A00010AF2E0030AF2E0010AF2E0F4D7935108
:1006AA008F2585EC02F0900E0501816F010E826F95
:1006BA00836B846BF8EC0BF090C58CF591C58DF5C6
:1006CA00C4EF01F00201B86BB96BBA6BBB6BBC6BC0
:1006DA00BD6BB40EBE6F800EBF6FC06B820EC16F52
:1006EA00060EC26FC36BC46BC56BC66B000E0501E9
:1006FA00816B826B836BE5EC10F0000E816B826B71
:10070A00836BE4EC10F0000E816B826B836BE6EC7A
:10071A0010F0556A12000F0E0301586F596F5751A6
:10072A00F30B0809576F566B556B100E546F210E59
:10073A00536FF30E5717566B556B54695369526BC7
:10074A00516B506B4F6B3F0E5F6F5E695D695C6BFF
:10075A005B6B5A6B616BBD94AD94B69EA69E800E80
:10076A00576F606B1200570E0501846F0001919F4D
:10077A00480E0501816F9B0E826F010E836FE7ECB5
:10078A000FF0720E816F1E0E826F000E836FEEECF9
:10079A000FF002D08DC084F5000194A7FBD784C561
:1007AA0002FA94979383918F000E0501816F81C598
:1007BA00FBF312008CC581F58DC582F58EC583F5D4
:1007CA008FC584F587EC00F081C590F582C591F557
:1007DA008E518C25D96E8F518D21DA6E91C5DFF439
:1007EA008E4B8F2B8E518C25D96E8F518D21DA6EBF
:1007FA0090C5DFF48E4B8F2B8EC58CF58FC58DF58A
:10080A0012000301376B386B010E396F630E356FB7
:10081A00C00E346FB698345135C384F50501856B23
:10082A0084C585F5846B84110801F96F050185512A
:10083A000801FA6FA688D00E0501816F210E826F1A
:10084A00000E836FC4EC0FF0310E0301366F310CCA
:10085A0003012B6B2C6B010E2D6FF00E296F600EAE
:10086A00286FB398285129C384F50501856B84C57F
:10087A0085F5846B84110801F36F05018551080120
:10088A00F46FA388D40E0501816F210E826F000ECA
:10089A00836FCBEC0FF0330E03012A6F330C1F6BFF
:1008AA00206B050E216F0B0E1D6FDC0E1C6FB198AD
:1008BA001C511DC384F50501856B84C585F5846BC0
:1008CA0084110801F16F050185510801F26FA188B1
:1008DA00D60E0501816F210E826F000E836FD2EC56
:1008EA000FF0310E03011E6F310C856B866B83513D
:1008FA0084111BE0010E876F04D0D89083378437A8
:10090A00872B84AFFAD7D890853786378351815D94
:10091A008451825905E38351815F8451825B8581C9
:10092A00D89084338333872FEED785C581F586C562
:10093A0082F5120084BF09D081C581F582C582F58E
:10094A0083C583F584C584F5120081C585F582C502
:10095A0086F583C587F584C588F5851F861F871F99
:10096A00881F852B000E86238723882385C581F55A
:10097A0086C582F587C583F588C584F5000CD8C479
:10098A0079F5FAC47AF5FBC47BF5B398F3C877F521
:10099A00F4C878F52DEC0EF00801B151B211B3117B
:1009AA000CE001D80AD00500FA6EB151FD6EB251C1
:1009BA00FE6EB351FF6EFA5012007BC5FBF47AC586
:1009CA00FAF479C5D8F41100000ED6BE010E846F70
:1009DA00380E0001456F82C544F081C543F083C5D6
:1009EA0046F04151F80B0309416FD69E550E426FEE
:1009FA00AA0E426F408140B1FED7050184B102D0F0
:100A0A00D69E01D0D68EF80E00014117F80C7A0E48
:100A1A00856F060E866F76C67AF677C67BF67C6B8E
:100A2A007D6B836B846B7A0E6E6F060E6F6F78C662
:100A3A0070F679C671F6850E726F060E736F00EC4A
:100A4A0080F006017C517625D96E7D517721DA6EC8
:100A5A00DF6A120080EC10F00009D8B41200090114
:100A6A0097510501916F090198510501926F09018A
:100A7A00974B982B410E0501915D1F0E9259D8A0F4
:100A8A0012008FC58CF590C58DF5080E8E6F38EC67
:100A9A000BF00901976B986B12008A6F050181515F
:100AAA00030B846F856B000E8403F3C486F5F4C4CC
:100ABA0087F58503F3508727020E8403F3508727AF
:100ACA00C00E8625886F200E8721896F8A51030BF5
:100ADA00800DF3508825816FF4508921826F1200AE
:100AEA009B0E05018C6FF80E8D6F040E8E6F3EEC17
:100AFA00FEF0876B0A0E866FF5EC00F09B0E8C6F8A
:100B0A00F80E8D6F040E8E6F3EECFEF0876B0A0EA8
:100B1A00866FF5EC00F00B018E6B8F6B906B916B0F
:100B2A00120095C581F596C582F5846B0A0E836F0E
:100B3A0079EC06F081C593F582C594F584EC0EF044
:100B4A0093C5E9F894C5EAF895C581F596C582F585
:100B5A00846B0A0E836F7AEC04F081C5EBF882C5C8
:100B6A00ECF8120081C585F582C586F514D0010E10
:100B7A000001826F85C5D9F486C5DAF4DF50816F2A
:100B8A00B1A0FED785C5D9F486C5DAF480C0DFF4F2
:100B9A000501854B862B8307D8A084078329E7E1C3
:100BAA008429E5E11200D8C471F5FAC472F5FBC4D0
:100BBA0073F5B698F9C86FF5FAC870F5F1EC0DF04F
:100BCA000801F74BF82BF85103E1320EF75D05E304
:100BDA0000EC0EF00801F76BF86B73C5FBF472C5F5
:080BEA00FAF471C5D8F4110002
:100BF400D8C47EF5FAC47FF5FBC480F5B198F1C87A
:100C04007CF5F2C87DF53CEC0EF00801EF4BF02BBF
:100C1400F05103E1020EEF5D05E34BEC0EF0080129
:100C2400EF6BF06B80C5FBF47FC5FAF47EC5D8F496
:100C340011004D0E1B6F1B0E196F1E0E186F1851ED
:100C440019C384F50501856B84C585F5846B84110E
:100C54003D6E85513E6EB19EA18ED20E816F210EE6
:100C6400826F000E836FD9EC0FF0900E03011A6FA0
:100C7400900CC22AC228000000000011C707BF0759
:100C840080008000075719040120000000000000C4
:100C940000000000000000808042000000000D8081
:100CA4008042E5612140CD0C054300030057194201
:100CB4000F0E0D0154153B6E3C6A030E3B183C109D
:100CC40005E1010E0901A56F486A0DD0482A4804C0
:100CD4000501816F030E816506D00901A56B05012D
:100CE400FC6B050EFB6F010E0701956F010C835120
:100CF400841117E0010E856F04D0D89083378437B0
:100D0400852B84AFFAD78351815D8451825904E3E2
:100D14008351815F8451825BD89084338333852FE0
:100D2400F2D781C581F582C582F512000501896F6C
:100D340011ECFCF0AAEC10F0C1966CC7D9F46DC7A5
:100D4400DAF489C5DFF40001E86BFC9F0501826BCE
:100D5400010E816F69EC0FF00501826B010E816F4A
:0A0D640070EC0FF0FC8FC8EF10F0E8
:100D7000D8C474F5FAC475F5FBC476F5B19E3EC5CA
:100D800019F33DC518F30801F54BF62BF65103E1B5
:100D9000040EF55D05E31EEC0EF00801F56BF66B35
:100DA00076C5FBF475C5FAF474C5D8F41100010ECC
:100DB0000A01C96FC7C242F5B9513924D96EBA5177
:100DC0003A20DA6E42C5DFF4B92B000EBA23BB23FA
:100DD000BC23BC51BB11BA1104E1FA0EB95DD8A015
:100DE0001200B96BBA6BBB6BBC6B12001000000039
:100DF00000000000000000000000000000000000F3
:100E0000000000000000000000000102000100C816
:100E100000000000000000CB000001020000000004
:090E2000000000000000000200C7
:100E2A000501846F020E0501836F05018351020DCE
:100E3A00740EF324D96E0B0EF420DA6EDE50DE1037
:100E4A0004E101D002D0010E01D0000E0009D8B48D
:100E5A0012002BEE9EF284C5DFF4120092C5FEF852
:100E6A000801FF6B05019151936F946B93C594F53B
:100E7A00936B956B9451966F95510801FE1305017A
:100E8A0096510801FF13FD0E05018C6F080E8D6F38
:100E9A00030E8E6FB0EFFEF0C084D00E816F0B0E82
:100EAA00826F030E3924836F000E3A20846F866B9B
:100EBA00100E856FE1EC02F00B01DD6BDECB81F5E4
:100ECA00DFCB82F5D3EC0DF081C5DEFB82C5DFFBFB
:100EDA00C09412000501856F855109E063C981F547
:100EEA0064C982F565C983F566C984F5120090C89C
:100EFA0063F991C864F992C865F993C866F963C938
:100F0A0081F564C982F565C983F566C984F512005D
:100F1A000501856F855109E067C981F568C982F5C0
:100F2A0069C983F56AC984F5120094C867F995C836
:100F3A0068F996C869F997C86AF967C981F568C9ED
:100F4A0082F569C983F56AC984F512000501800E24
:100F5A00C81BC1C5B1F5C2C5B2F5C3C5B3F5C4C591
:100F6A00B4F5C5C5B5F5C6C5B6F5C7C5B7F5C8C59F
:100F7A00B8F568ECDDF0B1C5C1F5B2C5C2F5B3C5C7
:100F8A00C3F5B4C5C4F5120092C581F593C582F5BF
:100F9A0094C583F595C584F596C585F597C586F5F7
:100FAA00E1EC02F092C58CF593C58DF596C58EF5E8
:100FBA0097C58FF5DFEC03F08CC592F58DC593F5D7
:100FCA00120081C586F582C587F583C588F584C573
:100FDA0089F586C585F587C586F585C587F588C5EA
:100FEA0085F589C588F585C589F586C581F587C5DD
:100FFA0082F588C583F589C584F512000501626BFF
:10100A006251020D740EF324D96E0B0EF420DA6EBF
:10101A00DE50DE100BE06251020D740EF324D96E1D
:10102A000B0EF420DA6EDE06000EDD5A622B0C0E71
:10103A006265E6D70C0C0D0152510501826F816B76
:10104A000D015451050181250701866F0D01555186
:10105A00050182210701876F0901A55104E0090EE4
:10106A000701956F090C0B0E0701956F0B0CC084D5
:10107A005D0E816F050E826F030E3924836F000E99
:10108A003A20846F866B020E856FE1EC02F05DC533
:10109A0081F55EC582F5D3EC0DF081C55DF582C59B
:1010AA005EF5C09412005750FEE0000E5824D96E27
:1010BA00DA6A130EDA22DF50566E000E5824D96E01
:1010CA00DA6A190EDA22DF500501816F582A582888
:1010DA0001E1586AA2905706A280815112004F502E
:1010EA00FEE0000E5024D96EDA6A140EDA22DF50BE
:1010FA004E6E000E5024D96EDA6A1A0EDA22DF50CA
:10110A000501816F502A502801E1506AA7904F06C5
:10111A00A780815112000001916B240E926F050E77
:10112A00936F996B966BC984A384A380EA0E050119
:10113A00816F210E826F000E836FEEEC0FF0EC0EC2
:10114A00816F210E826F000E836FE7EF0FF0696BDC
:10115A006951020D740EF324D96E0B0EF420DA6E67
:10116A00DE50DE100BE06951020D740EF324D96EC5
:10117A000B0EF420DA6EDE06000EDD5A692B0C0E19
:10118A006965E6D70C0C840E0501816F0F0E826F1C
:10119A00560E836FFE0E846F866B200E856FB3EC3E
:1011AA0002F0E30E816F0F0E826FBD0E836FFF0E8A
:1011BA00846F866B0C0E856FB3EF02F0840E050107
:1011CA00816F0F0E826F130E836FFF0E846F866B13
:1011DA00200E856FB3EC02F0E30E816F0F0E826F63
:1011EA00B60E836FFF0E846F866B0C0E856FB3EF9E
:1011FA0002F0840E0501816F0F0E826F4F0E836F0E
:10120A00FF0E846F866B200E856FB3EC02F0E30E3F
:10121A00816F0F0E826FD50E836FFF0E846F866B00
:08122A000C0E856FB3EF02F01A
:10123400FAC407F5FBC408F5B0980801C651C711F4
:10124400C8110CE001D80AD00500FA6EC651FD6E33
:10125400C751FE6EC851FF6EFA50120008C5FBF468
:0612640007C5FAF41100B9
:10126C00FAC409F5FBC40AF5B09C0801C351C411BA
:10127C00C5110CE001D80AD00500FA6EC351FD6E01
:10128C00C451FE6EC551FF6EFA5012000AC5FBF434
:06129C0009C5FAF411007F
:1012A400FAC40BF5FBC40CF5AF940801BD51BE1193
:1012B400BF110CE001D80AD00500FA6EBD51FD6ED5
:1012C400BE51FE6EBF51FF6EFA5012000CC5FBF406
:0612D4000BC5FAF4110045
:1012DC00FAC40DF5FBC40EF5AF960801B751B81161
:1012EC00B9110CE001D80AD00500FA6EB751FD6EA9
:1012FC00B851FE6EB951FF6EFA5012000EC5FBF4D8
:06130C000DC5FAF411000A
:10131400FAC40FF5FBC410F5B0900801BA51BB1123
:10132400BC110CE001D80AD00500FA6EBA51FD6E6A
:10133400BB51FE6EBC51FF6EFA50120010C5FBF497
:061344000FC5FAF41100D0
:10134C00FAC425F5FBC426F5B4980801AB51AC11D1
:10135C00AD110CE001D80AD00500FA6EAB51FD6E50
:10136C00AC51FE6EAD51FF6EFA50120026C5FBF467
:06137C0025C5FAF4110082
:10138400FAC427F5FBC428F5B49A0801A851A91199
:10139400AA110CE001D80AD00500FA6EA851FD6E1E
:1013A400A951FE6EAA51FF6EFA50120028C5FBF433
:0613B40027C5FAF4110048
:1013BC00FAC429F5FBC42AF5B49C0801A551A61161
:1013CC00A7110CE001D80AD00500FA6EA551FD6EEC
:1013DC00A651FE6EA751FF6EFA5012002AC5FBF4FF
:0613EC0029C5FAF411000E
:1013F400FAC42BF5FBC42CF5B8980801A251A3112B
:10140400A4110CE001D80AD00500FA6EA251FD6EB9
:10141400A351FE6EA451FF6EFA5012002CC5FBF4CA
:061424002BC5FAF41100D3
:10142C00FAC42DF5FBC42EF5B89A08019F51A011F2
:10143C00A1110CE001D80AD00500FA6E9F51FD6E87
:10144C00A051FE6EA151FF6EFA5012002EC5FBF496
:06145C002DC5FAF4110099
:10146400FAC42FF5FBC430F5B89C08019C519D11BA
:101474009E110CE001D80AD00500FA6E9C51FD6E55
:101484009D51FE6E9E51FF6EFA50120030C5FBF462
:101494002FC5FAF4110007019851020DD80EF32458
:1014A400D96E090EF420DA6E54CDDEF455CDDDF498
:1014B400982B0D01C95104E10A0E0701956F0A0C1E
:1014C400C96B070E0701956F070C000EE96F1C0E20
:1014D400EA6F030EE925E76F000EEA21E86F030EB9
:1014E400E925376E000EEA21386E360E816F1A0E2A
:1014F400826F000E836FCBEC0FF0A7EF10F00501A5
:10150400816F5250FEE0A7B203D081C5C9F20FD05B
:10151400A792000E5424D96EDA6A100EDA2281C51D
:10152400DFF4542A3F0E546401D0546A5206A78251
:021534001200A3
:10153800FAC403F5FBC404F50801D551D611D71137
:101548000CE001D80AD00500FA6ED551FD6ED651CF
:10155800FE6ED751FF6EFA50120004C5FBF403C5A6
:10156800FAF41100FAC405F5FBC406F50801D851D0
:10157800D911DA110CE001D80AD00500FA6ED85159
:10158800FD6ED951FE6EDA51FF6EFA50120006C593
:10159800FBF405C5FAF41100FAC411F5FBC412F501
:1015A8000801D251D311D4110CE001D80AD005009A
:1015B800FA6ED251FD6ED351FE6ED451FF6EFA50C1
:1015C800120012C5FBF411C5FAF41100FAC41FF594
:1015D800FBC420F50801CF51D011D1110CE001D87E
:1015E8000AD00500FA6ECF51FD6ED051FE6ED15172
:1015F800FF6EFA50120020C5FBF41FC5FAF4110063
:10160800FAC421F5FBC422F50801DB51DC11DD1118
:101618000CE001D80AD00500FA6EDB51FD6EDC51F2
:10162800FE6EDD51FF6EFA50120022C5FBF421C593
:10163800FAF41100FAC423F5FBC424F50801DE51BD
:10164800DF11E0110CE001D80AD00500FA6EDE5176
:10165800FD6EDF51FE6EE051FF6EFA50120024C598
:10166800FBF423C5FAF41100F551D8A41200420E78
:10167800816F0F0E826F8CC583F58DC584F5D89068
:101688008E35856F866B8637E1EC02F0F46B8EC57C
:10169800F5F5010E0901A66F010C000E0901826F14
:1016A8001E0E836F030E82250A01F36F000E0901D7
:1016B80083210A01F46F360E0501816F1A0E826FBD
:1016C800000E836FCBEC0FF0A7EF10F08F6B906BD1
:1016D8000BD08EC581F5826B8CC583F58DC584F5DD
:1016E800F1ECF8F08F4B902B8F518A25D96E9051E1
:1016F8008B21DA6EDF508E6F8E51EBE11200030EF4
:101708003B183C1009E00901A56B0501FC6B050EAF
:10171800FB6F0701956B12000901885104E10A0E5D
:101728000701956F0A0C010E0701956F010C81C521
:1017380085F582C586F583C5F6F484C5F7F4834B31
:10174800842B000EF86E85C5D9F486C5DAF4854B6E
:10175800862B0800F5C4DFF4DF50EDE112008B6F33
:101768000901A951D8B41200A96BA16BA26B05019C
:101778008B5106E0530E27EC0FF0020E98EF06F09F
:10178800530E27EC0FF0080E98EF06F011ECFCF062
:10179800C280C282C18600018785849F030E846F40
:1017A800859B859D858F859985938591866F8C6BA3
:1017B800070E896F848F8795070C11ECFCF0C280A7
:1017C800C282C18600018785849F030E846F859B32
:1017D800859D858F859985938591866F8C6B070E7E
:1017E800896F848F8795070C856B866B876B886BF1
:1017F800000000000501852B000E8623872388231F
:101808008551815D86518259875183598851845900
:10181800EFE21200010E3E6F3D6B3F6B7F0E3B6F98
:101828003A6BBD96AD86060E0501816F100E826F6C
:10183800000E836FBDEC0FF0C30E03013C6FC30CA9
:101848000D0152510501986F976B0D015451050117
:101858009725956F0D01555105019821966F96ECC6
:1018680005F0050E0701956F050C0D015251050194
:10187800986F976B0D01545105019725956F0D01D0
:10188800555105019821966F96EC05F0040E070155
:10189800956F040C44C58EF58E510FE08CC581F50B
:1018A8008DC582F5000E836F0F0E846FD8908E352C
:1018B800856F866B8637E1EC02F0446A120081C5B9
:1018C80087F582C588F508D087C5D9F488C5DAF4C4
:1018D80083C5DFF4874B882B8507D8A08607852921
:1018E800F3E18629F1E11200D69E550EB46FAA0ED7
:1018F800B46FB491D68E010EBF6F020EB66F070E8D
:10190800BE6FD69E550EB46FAA0EB46FB481D68E34
:10191800AA0C400E5A6010D0400E5B24D96EDA6AC9
:10192800100EDA22DF500201A36F5B2A3F0E5B64C0
:1019380001D05B6A5A2A1200A2921200400E52602D
:1019480010D0000E5324D96EDA6A100EDA22DF5056
:101958000201C96F532A3F0E536401D0536A522AB9
:101968001200A79212004F66666C696E650000004F
:101978000000454D35343000000000000000000133
:101988000300400005000000000000004800000EB1
:10199800396E1B0E3A6E030E3924EB6F000E3A2097
:1019A800EC6F360E816F1A0E826F000E836FCBECD0
:1019B8000FF0A7EF10F0000E356E1D0E366E030EF9
:1019C8003524E56F000E3620E66F360E816F1A0E4D
:1019D800826F000E836FCBEC0FF0A7EF10F081C57C
:1019E80083F582C584F502D0814B822B81C5D9F459
:1019F80082C5DAF4DF50F8E18351815D816F84514B
:101A08008259826F1200826F080E0501836F846B02
:101A1800D89082358435846FD89082378151845D1F
:101A280002E38151845F832FF3D784511200902BF6
:101A3800000E912392239323942B95239623972387
:101A4800412AC70E4164C70C982B000E99239A238C
:101A58009B23416A12000801CC51CD11CE110CE034
:101A680001D80AD00500FA6ECC51FD6ECD51FE6E3C
:101A7800CE51FF6EFA50120004010F9D120081C56D
:101A8800B3FA82C5B4FA83C5B1FA84C5B2FA0A01B9
:101A9800BD2B000EBE23BF23C023AF4BB02B000CC1
:101AA8000501815182118311841102E0800E841B8B
:101AB80081C581F582C582F583C583F584C584F522
:101AC800120011ECFCF0C280C2820001849F240E37
:101AD800856F020E866F8C6F040E896F830E846F7C
:101AE800848F830CEB510501836F846B83C584F568
:101AF800836B0301EA5105018325816F000E842160
:101B0800826F1200D8C46CF5FAC46DF5FBC46EF58B
:101B1800BD9696EC0DF06EC5FBF46DC5FAF46CC578
:101B2800D8F411000801C951CA11CB11D8B4120058
:101B38000500FA6EC951FD6ECA51FE6ECB51FF6E9B
:101B4800FA50120022EEAAF311EEB3F3250EDBC40D
:101B5800E3F4E806FCE20701D4A1D481D4A3D4833A
:101B68001200A698610006F64CFE61000AF64DFECA
:101B780061000EF64EFE610012F64FFEA6881200B6
:101B8800816F550E0001B46FAA0EB46FB49181C570
:101B9800B6F0550EB46FAA0EB46FB481AA0C81C505
:101BA80084F582C585F584C583F585C584F583C527
:101BB80085F584C581F585C582F51200C8C5C4F5CB
:101BC800C9C5C5F5BF0EC66F0F0EC76F94ECFFF001
:101BD800C4C5C8F5C5C5C9F51200030136A507D0A7
:101BE800369170C535F36FC534F33681120070C570
:101BF80035F36FC534F31200C051C111C211D8B406
:101C080012000500FA6EC051FD6EC151FE6EC25140
:101C1800FF6EFA5012000001919F918F94BF02D07D
:101C280094A712000901102B000E1123122313236D
:101C3800BF82000CB451B511B611D8B4120005001A
:101C4800FA6EB451FD6EB551FE6EB651FF6EFA5084
:101C5800120003012AA507D02A9178C529F377C570
:101C680028F32A81120078C529F377C528F31200D2
:101C780003011EA507D01E917DC51DF37CC51CF36D
:101C88001E8112007DC51DF37CC51CF31200AE51E8
:101C9800AF11B011D8B412000500FA6EAE51FD6E46
:101CA800AF51FE6EB051FF6EFA501200FF0E812543
:101CB800836FFF0E8221846F83C5F8FB84C5F9FB0F
:101CC8000B01FA6BFB6B12000501826F82C581F56F
:101CD800030E81172AEEC0F0DF508119FC0B811921
:101CE800DF6E1200840E0501816F0F0E826F270EC2
:101CF800836FFF0E846F866B200E856FB3EF02F043
:101D080094BF05D093C593F594C594F51200931D1F
:101D1800936F941D946F934B942B1200000E5924CB
:101D2800D96EDA6A190EDA22A1C2DFF4592A5928C3
:101D380001E1596A572A1200000E5124D96EDA6A55
:101D48001A0EDA22C7C2DFF4512A512801E1516A7A
:101D58004F2A1200C00E0501816F200E826F846B1E
:101D6800836B080E866F020E856F63EF0CF0020E10
:101D78000301326F200E316F336BC70E2F6F2E6B3E
:101D8800B9969F0E306F9F0C830E0001846F240E4E
:101D9800856F030E866F020E8C6F040E896FC896CE
:021DA800040C29
:101DAC00FAC401F5FBC402F504010FBD2FEC0DF0D4
:101DBC0002C5FBF401C5FAF41100380E0001456FA1
:101DCC0082C544F081C543F0F80E4117408146515D
:101DDC001200030157B1120084C552F383C551F3AD
:101DEC0082C550F381C54FF31200200E0001AD6F78
:101DFC00AF6B010EB36F080EB16FB06BB2B11200C6
:101E0C00FDD7010E266F256B276B630E236F226B9C
:101E1C00B1968F0E246F8F0C0001606B616B626B3F
:101E2C00636B646B656B666B676B686B12000001B0
:101E3C000300400004000000000000004700040004
:011E4C000095
:101E4E0005018A6FFE0E98EC06F005018A5198EF97
:101E5E0006F0455004E0010E07018E6FBF82CFC41D
:101E6E004DF5120009014C2B000E4D234E234F232E
:101E7E000001976B12000001160000000000000028
:101E8E00010000001700000102000100C700000061
:101E9E0000000000CA000501816F81C5ECF303014B
:101EAE00F38FF38112006F6B6C6B6E6B6D6B706BDF
:101EBE00716B726B120020EE07F02C51D9262D514A
:101ECE00DA2212000001E86B81C5F7F082C5F8F046
:101EDE0012000001E86B81C5EEF082C5EFF0120032
:101EEE0081C5DBF882C5DCF883C5DDF8120081C53B
:101EFE00DEF882C5DFF883C5E0F8120081C573F9FC
:101F0E0082C574F983C575F9120081C576F982C54B
:101F1E0077F983C578F9120081C5F0FA82C5F1FA16
:101F2E0083C5F2FA120081C5D5F882C5D6F883C5ED
:101F3E00D7F8120081C5D8F882C5D9F883C5DAF86A
:101F4E00120081C57CF982C57DF983C57EF9120028
:101F5E0081C57FF982C580F983C581F9120081C5DB
:101F6E0079F982C57AF983C57BF9120081C5C9F862
:101F7E0082C5CAF883C5CBF8120081C5C0F882C5E8
:101F8E00C1F883C5C2F8120081C5B1F882C5B2F896
:101F9E0083C5B3F8120081C5AEF882C5AFF883C50C
:101FAE00B0F8120081C5B4F882C5B5F883C5B6F88D
:101FBE001200550E0001B46FAA0EB46FB481AA0CB4
:101FCE0081C5CFF882C5D0F883C5D1F8120081C57E
:101FDE00D2F882C5D3F883C5D4F8120081C5CCF8E7
:101FEE0082C5CDF883C5CEF8120081C5A2F882C590
:101FFE00A3F883C5A4F8120081C59CF882C59DF88C
:10200E0083C59EF8120081C59FF882C5A0F883C5CE
:10201E00A1F8120081C5ABF882C5ACF883C5ADF846
:10202E00120081C5A5F882C5A6F883C5A7F81200CF
:10203E0081C5A8F882C5A9F883C5AAF8120081C582
:10204E00C6F882C5C7F883C5C8F8120081C5C3F8A3
:10205E0082C5C4F883C5C5F8120081C5BAF882C519
:10206E00BBF883C5BCF8120081C5B7F882C5B8F8B5
:10207E0083C5B9F8120081C5BDF882C5BEF883C507
:10208E00BFF812002AEEC0F0DF50030B3BEFEAF070
:10209E000801906B916B926B936B12000801986B19
:1020AE00996B9A6B9B6B1200940E00017F6F400E22
:1020BE007D6F400C606FB6A2FED760C5B6F21200FF
:1020CE0044C581F50501815112000001E86BFC9DAC
:1020DE00FC9B1200946B956B966B976B120005012F
:1020EE008B6F8B5127EF0FF03EC519F33DC518F3DB
:1020FE001200F55101E1010C000C0A0E0701956F5B
:10210E000A0C080E0701956F080C030E0701956F58
:10211E00030C445001E1000C010C5750D8A4010CE3
:10212E00000C4F50D8A4010C000C0301F3A1010CBC
:10213E00000C010E0901886F010C0701956B12004E
:10214E0003012A811200070168871200E86BFC8DDB
:10215E0012000301368112000301248F12000301C5
:10216E001E81120003011A8F12000501F92B1200B5
:10217E00C19EFF0012000701689712000500800043
:01218E00113F
:10219000ADEF10F0CCEF10F03C8F1200D0EF10F04C
:1021A000308F1200B3EF10F092EF0EF0BD901100DF
:1021B000BF821200BF821200A0EF0EF0BF82120099
:0321C00010FFFF0E
:1021C400000C120012001200120012001200120081
:1021D400120012001100120012001200120012006C
:1021E400120012001200120012001200120012005B
:0321F400120001D5
:10F296000000C0C101C30302C2C60607C705C5C434
:10F2A60004CC0C0DCD0FCFCE0E0ACACB0BC9090864
:10F2B600C8D81819D91BDBDA1A1EDEDF1FDD1D1CA4
:10F2C600DC14D4D515D71716D6D21213D311D1D034
:10F2D60010F03031F133F3F23236F6F737F53534D4
:10F2E600F43CFCFD3DFF3F3EFEFA3A3BFB39F9F8A4
:10F2F6003828E8E929EB2B2AEAEE2E2FEF2DEDEC44
:10F306002CE42425E527E7E62622E2E323E1212073
:10F31600E0A06061A163A3A26266A6A767A5656473
:10F32600A46CACAD6DAF6F6EAEAA6A6BAB69A9A8E3
:10F336006878B8B979BB7B7ABABE7E7FBF7DBDBC23
:10F346007CB47475B577B7B67672B2B373B17170B3
:10F35600B050909151935352929656579755959413
:10F36600549C5C5D9D5F9F9E5E5A9A9B5B99595823
:10F3760098884849894B8B8A4A4E8E8F4F8D4D4CC3
:10F386008C448485458747468682424383418180F3
:10F396004000C1814001C0804101C0804100C1815F
:10F3A6004001C0804100C1814000C1814001C08050
:10F3B6004101C0804100C1814000C1814001C0803F
:10F3C6004100C1814001C0804101C0804100C1812E
:10F3D6004001C0804100C1814000C1814001C08020
:10F3E6004100C1814001C0804101C0804100C1810E
:10F3F6004000C1814001C0804101C0804100C181FF
:10F406004001C0804100C1814000C1814001C080EF
:10F416004101C0804100C1814000C1814001C080DE
:10F426004100C1814001C0804101C0804100C181CD
:10F436004000C1814001C0804101C0804100C181BE
:10F446004001C0804100C1814000C1814001C080AF
:10F456004100C1814001C0804101C0804100C1819D
:10F466004001C0804100C1814000C1814001C0808F
:10F476004101C0804100C1814000C1814001C0807E
:10F486004100C1814001C0804101C0804100C1816D
:10F49600400AD7233CCDCCCC3DCDCC4C3E9A999955
:10F4A6003E0000003F9A99193F6666263F33333384
:10F4B6003F6666663FA4707D3F0000803F00008087
:10F4C6003F0000A0410000C841CDCCC8416666CAD5
:10F4D600410000CC416666CE410000D0419A99D1E8
:10F4E60041CDCCD4416666D6419A99D94100000CEB
:10F4F600421F1E1F1E1F1F1E1F1E1F1F1D5E2C25A7
:10F50600642C25332E32662C25332E32662C253379
:10F516002E32662C25332E32662C25332E32662C5F
:10F5260025332E32662C25332E32662C25332E3289
:10F53600662C25642E253031642C25642E25303129
:10F54600642C25642E253031642C25642C25642CEE
:10F5560025642C25642C25642C256C6C752C25378C
:10F566002E34662C25372E34662C25372E34662C01
:10F5760025372E34662C313935372C7E454F5420AD
:10F586002020202020202020202020202020202075
:10F596002020202020202020202020202020202065
:10F5A6002020202020202020202020202020202055
:10F5B600200D0A005E2C25642C25332E32662C2560
:10F5C600332E32662C25332E32662C25332E3266A8
:10F5D6002C25332E32662C25332E32662C25332EDF
:10F5E60032662C25332E32662C25642E2530316466
:10F5F6002C25642E253031642C25642E253031646B
:10F606002C25642C25642C25642C25642C25642C3F
:10F61600256C6C752C25372E34662C25372E3466D2
:10F626002C25372E34662C25372E34662C31393569
:10F63600372C7E454F5420202020202020202020BB
:10F6460020202020202020202020202020202020B4
:10F6560020202020202020202020202020202020A4
:10F6660020202020202020200D0A005E2C25642C3E
:10F6760025332E32662C25332E32662C25332E3238
:10F68600662C25332E32662C25332E32662C2533F6
:10F696002E32662C25332E32662C25332E32662CDE
:10F6A60025642E253031642C25642E253031642CBA
:10F6B60025642E253031642C25642C25642C256484
:10F6C6002C25642C25642C256C6C752C25362E3443
:10F6D600662C25362E34662C25362E34662C253699
:10F6E6002E34662C313935372C7E454F5420202058
:10F6F6002020202020202020202020202020202004
:10F7060020202020202020202020202020202020F3
:10F716002020202020202020202020202020200DF6
:10F726000A005E2C25642C25332E32662C25332EBA
:10F7360032662C25332E32662C25332E32662C2546
:10F74600332E32662C25332E32662C25332E326626
:10F756002C25332E32662C25642E253031642C253B
:10F76600642E253031642C25642E253031642C25F9
:10F77600642C25642C25642C25642C25642C256C8E
:10F786006C752C25372E34662C25372E34662C25A1
:10F79600372E34662C25372E34662C313935372CE6
:10F7A6007E454F542020202020202020202020206D
:10F7B6002020202020202020202020202020202043
:10F7C6002020202020202020202020202020202033
:10F7D6002020202020200D0A0001100066000204CF
:10F7E6000000000075AD0110006300020400000077
:10F7F60000B5920110000C00020400000000F3FAAC
:10F8060002100001000204020001000204000000D0
:10F816004001030078000E01030048004A01061665
:10F826000400050106100000000106100200000198
:10F83600035000000801030500004001030000001A
:10F84600340103030200010103000B0001369C8012
:10F8560042299C80422BC78042819580423AB280E1
:10F866004239B480422CC58042CFB78042B4995EFB
:10F876004266665E42E590584289C15842734880A6
:10F8860042C5608042098A8042FC8980420D8080A0
:10F896004200808042B40000020400000002000022
:10F8A600010A000001C77FFFFFC57FFFFFB40010FC
:10F8B60000B77FFFFFB8000001C2000000E40000AF
:10F8C60001CD0C0543E56121400D8080420080801A
:10F8D6004200000000424D4320256C75203058251B
:10F8E6002E32582025752020202020202020202060
:10F8F6002020202020202020202020202020202002
:10F9060020200025342E3266487A2025332E316693
:10F91600522025332E3266506620202020202020BB
:10F9260020202020202020202020202020202020D1
:10F936000025342E3266487A2025332E3266522030
:10F9460025332E32665066202020202020202020BD
:10F9560020202020202020202020202020200025BC
:10F96600322E31664B576820666C6F6174202533E2
:10F976002E316668202020202020202020202020D4
:10F986002020202020202020202020004144432029
:10F99600253033582025303358202530335820253C
:10F9A60030335820202020202020202020202020F6
:10F9B6002020202020202020000D2D2D2D205449F0
:10F9C6004331323430302044726976657220566590
:10F9D6007273696F6E202573202573202573202D81
:10F9E6002D2D0D0A000D2D2D2D204D433333393984
:10F9F60036204472697665722056657273696F6E39
:10FA0600202573202573202573202D2D2D0D0A000A
:10FA16004241542025642E2530316456205056200C
:10FA260025642E25303164562020202020202020D9
:10FA36002020202020202020200025342E30662063
:10FA460025342E30662025342E3066506820253227
:10FA56002E30665720202020202020202020202005
:10FA6600202020004325752053256C752055252E12
:10FA7600326625252020202020202020202020201E
:10FA86002020202020202020202020200034202577
:10FA9600362E3366562C352025362E3366562020D4
:10FAA6002020202020202020202020202020202050
:10FAB6002020202000426D61782025755620426D59
:10FAC600696E202575562020202020202020202009
:10FAD6002020202020202020202020200025342E19
:10FAE60030662025342E30662025342E30662025BB
:10FAF600342E306657202020202020202020202051
:10FB0600202020200025342E30662025342E306615
:10FB16002025342E306656612025322E3066487AEE
:10FB260020202020202020202020202000424D437D
:10FB360020256C7520202020202020202020202019
:10FB460020202020202020202020202020202020AF
:10FB5600202020004F4620256C7520455252202536
:10FB66006C752020202020202020202020202020EE
:10FB7600202020202020202020200020256C6C58CA
:10FB86002052756E20446973706C61792030582557
:10FB96002E32582020202020202020202020202007
:10FBA600004A616E4665624D61724170724D6179BF
:10FBB6004A756E4A756C4175675365704F63744E2E
:10FBC6006F764465630025332E32662025332E3248
:10FBD600662025332E3266506620202020202020E5
:10FBE6002020202020202020200025342E3066577B
:10FBF6002025342E306656612025332E3266506617
:10FC060020202020202020202020202020002533F6
:10FC16002E3266572025332E326656612025332E26
:10FC26003266506620202020202020202020202000
:10FC36002000257320566572202573202020202061
:10FC460020202020202020202020202020202020AE
:10FC560020200025732025732025642E253031644D
:10FC66004120256441202020202020202020202003
:10FC7600202020004D554920256C6C5820504943C2
:10FC86002025582020202020202020202020202031
:10FC96002020200020256C755365632C20257520B7
:10FCA600202020202020202020202020202020204E
:10FCB600202000205465726D696E616C20496E6665
:10FCC6006F202020202020202020202020202020DF
:10FCD600002048454C502053637265656E3A2025D6
:10FCE6006420202020202020202020200025732092
:10FCF60025342E3166562025342E326641202020AA
:10FD060020202020202020200025732025342E317D
:10FD160066562025342E31665720202020202020AC
:10FD260020202020002025635049204441515F4275
:10FD36004D4320257320202020202020200076748B
:10FD460065726D2025783A257820202020202020F5
:10FD56002020202020002025732020202020202065
:10FD66002020202020202020202020200020494E56
:10FD7600464F202020202020202020202020202028
:10FD86002020200020565445524D20494E464F20F3
:10FD960020202020202020202020002056544552BC
:10FDA6004D2048454C502020202020202020202077
:10FDB60020002056657273696F6E202573202020FF
:10FDC60020202020202020200020257320416C6C3C
:10FDD600204465762020202020202020202020007E
:10FDE6002048454C50204275696C642025732020BC
:10FDF6002020202020200020257320416E616C6F7A
:10FE0600672044657620202020202020200053757E
:10FE16006E4D6F6E547565576564546875467269A4
:10FE26005361740048454C50202573202020202023
:10FE36002020202020202020200043616C6962724F
:10FE46006174696F6E20436F6D706C657465200018
:10FE560057454D333038302044726976657220201C
:10FE66002020202000257320202020202020202054
:10FE760020202020202020202000257320257320EC
:10FE8600202020202020202020202020202000505C
:10FE96006F7274202573202020202020202020200F
:10FEA60020202000424D43426F61726420447269F3
:10FEB6007665722020202020005265616420454529
:10FEC60050524F4D2044415441202020200057726B
:10FED60069746520454550524F4D20444154412098
:10FEE60020200055706461746520454550524F4D81
:10FEF6002044415441202000496E76616C6964209B
:10FF0600454550524F4D20444154412000504F57D3
:10FF160045524D20447269766572202020202020AB
:10FF260000454D35343020447269766572202020B4
:10FF36002020202000257320202020202020202083
:10FF4600202020202020202000505A454D20447299
:10FF560069766572202020202020005365702031AC
:10FF66003320323032360031343A30313A343200CE
:10FF760031343A34323A313400434F4D4D2020204B
:10FF8600004552524F522020004F4E4C494E4520BC
:10FF96000052454D4F5445200044495341424C457B
:10FFA600004F46464C494E4500286E756C6C29003C
:10FFB600504F5745524D0057454D33300056302E61
:10FFC600373400343751383400353751383400501F
:10FFD6005A454D0056302E370056302E3800494EC1
:10FFE60046004E414E00696E66006E616E00474DDA
:0AFFF600540025732000257300005D
:020000040001F9
:1000000070C674F671C675F60501DF6BE06BE4EF40
:1000100097F06EC64EF66FC64FF6740E0601506F1F
:10002000060E516F72C652F673C653F650C6D9F417
:1000300051C6DAF4DEC4F6F4DDC4F7F4F86A000E53
:10004000F86E0800F550250A02E0BEEF97F002D0E6
:10005000BEEF97F050C6D9F451C6DAF4DE2A000E8E
:10006000DD220501E26BE16BE1C5F3F5E369E469CB
:100070000601626B31D00501F38150C6D9F451C637
:10008000DAF4DE2A000EDD2227D00501F383F5D74E
:100090000501F385F2D70501F387EFD70501F38951
:1000A000ECD7010E626F18D050C6D9F451C6DAF4FD
:1000B000DEC4F6F4DDC4F7F4F86A000EF86E08004A
:1000C000F550200AE8E0030AE9E0080AE1E0060A40
:1000D000D2E01D0ADAE0E5D706016251E5E001D081
:1000E000E3D70501F3A103D001D001D0F39350C6AB
:1000F00081F551C682F552C683F553C684F5B0EC3E
:10010000F6F081C5E1F582C5E2F5E2BF01D005D088
:10011000F381E16DE21FD8B0E22B50C6D9F451C68D
:10012000DAF4DEC4F6F4DDC4F7F4F86A000EF86E13
:100130000800F5502E0A17E101D015D050C6D9F4A9
:1001400051C6DAF4DE2A000EDD2250C681F551C612
:1001500082F552C683F553C684F5B0ECF6F081C53E
:10016000E3F582C5E4F550C6D9F451C6DAF4DEC42D
:10017000F6F4DDC4F7F4F86A000EF86E0800F550E6
:10018000630A78E101D076D050C6D9F451C6DAF4CA
:10019000DE2A000EDD2252C6D9F453C6DAF4DFC4DB
:1001A00054F6020EDE26DFC455F6000EDD2254C6DC
:1001B000D9F455C6DAF4DF500601636F4EC68AF5EE
:1001C0004FC68BF563C68CF50501E151E21107E1DD
:1001D00001D005D0E1C590F5E2C591F506D0FF0E3E
:1001E000E125906FFF0EE221916FF3A10BD001D0BA
:1001F00009D08CC581F5826B8AC583F58BC584F5E2
:10020000F1ECF8F091BF03D004D001D002D0906B94
:10021000916B8E6B8F6B0BD0826B200E816F8AC5BA
:1002200083F58BC584F5F1ECF8F08E4B8F2B905154
:100230008E5D8F51800A8D6F9151800A8D59ECE34C
:1002400001D0EAD7F3B10BD001D009D08CC581F52C
:10025000826B8AC583F58BC584F5F1ECF8F08E29A5
:100260008A6F000E8F218B6F8AC54EF68BC54FF6B5
:10027000DCEF97F050C6D9F451C6DAF4DEC46CF660
:10028000DDC46DF66CC6F6F46DC6F7F4F86A000EC0
:10029000F86E0800F5C463F62AD06C4B6D2B6CC663
:1002A000F6F46DC6F7F4F86A000EF86E0800F55023
:1002B000680A38E101D036D0480E636F6C4B6D2B65
:1002C00031D06C4B6D2B6CC6F6F46DC6F7F4F86A42
:1002D000000EF86E0800F5506C0A24E101D022D01F
:1002E0004C0EEBD7690E636F1DD0636B1BD00601FC
:1002F0006351580AF7E03C0AF5E00C0ACEE0010A27
:10030000F1E0030ADBE0060ADCE0020AEBE0010AA6
:10031000E9E01B0AD3E0010AE5E00D0AE3E0020A86
:10032000CDE0E3D76CC6F6F46DC6F7F4F86A000EBC
:10033000F86E0800F550640A01E1D1D001D0CFD0A9
:100340006CC6F6F46DC6F7F4F86A000EF86E080095
:10035000F550690A01E03ED2C2D03CD2C0D052D0A2
:1003600052C6D9F453C6DAF4DFC454F6020EDE26C0
:10037000DFC455F6000EDD2254C6D9F455C6DAF4B2
:10038000DF50646F000E64BFFF0E656F51D052C620
:10039000D9F453C6DAF4DFC454F6040EDE26DFC403
:1003A00055F6000EDD2254C6D9F455C6DAF4DEC483
:1003B00056F6DEC457F6DEC458F6DEC459F656C605
:1003C0005AF657C65BF658C65CF659C65DF65E6BC4
:1003D0005DBF5E695EC65FF65EC660F65EC661F6CC
:1003E0005AC664F65BC665F65CC666F65DC667F619
:1003F0005EC668F65FC669F660C66AF661C66BF6E9
:1004000081D01DD052C6D9F453C6DAF4DFC454F6F5
:10041000020EDE26DFC455F6000EDD2254C6D9F4E6
:1004200055C6DAF4DEC464F6DDC465F665BFFF0EBA
:10043000666F676F686F696F6A6F6B6F63D052C664
:10044000D9F453C6DAF4DFC454F6080EDE26DFC44E
:1004500055F6000EDD2254C6D9F455C6DAF4DEC4D2
:1004600056F6DEC457F6DEC458F6DEC459F6DEC4CE
:100470005AF6DEC45BF6DEC45CF6DEC45DF656C634
:1004800064F657C665F658C666F659C667F65AC684
:1004900068F65BC669F65CC66AF65DC66BF632D076
:1004A00052C6D9F453C6DAF4DFC454F6020EDE267F
:1004B000DFC455F6000EDD2254C6D9F455C6DAF471
:1004C000DEC456F6DDC457F656C664F657C665F662
:1004D000666B676B686B696B6A6B6B6B13D0635190
:1004E000480A01E13DD7040AAAE0240A8BE0010A88
:1004F00089E0030AA4E0060A01E149D7180A82E06C
:100500000E0ACEE06C29546F000E6D21556F50C657
:10051000D9F451C6DAF454C6DEF455C6DDF44EC63D
:100520009BF54FC69CF564C69DF565C69EF566C6EF
:100530009FF567C6A0F568C6A1F569C6A2F56AC6AB
:10054000A3F56BC6A4F50501A4BF01D002D0010E2E
:1005500001D0000EB36FE4BF03D001D001D0F393FC
:10056000E4BF01D004D0B06B010EAF6F04D0E3C57F
:10057000AFF5E4C5B0F5E1C5B1F5E2C5B2F5B351EB
:1005800006E101D004D0F3A512D001D010D0B107FC
:10059000D8A0B207B35105E101D003D0AE6B2B0E4A
:1005A00002D0AE6B2D0EAD6FADC5B3F509D0F3A77C
:1005B00007D001D005D0B107D8A0B207200EB36F85
:1005C000B56B4F0EB46F0D014F6B6ED0B407D8A052
:1005D000B507000EB425D96E0D0EB521DA6E9DC596
:1005E00081F59EC582F59FC583F5A0C584F5A1C59B
:1005F00085F5A2C586F5A3C587F5A4C588F50A0EBD
:10060000896F8A6B8B6B8C6B8D6B8E6B8F6B906B2A
:10061000DEECEFF081C5A5F582C5A6F583C5A7F58B
:1006200084C5A8F585C5A9F586C5AAF587C5ABF526
:1006300088C5ACF5A5C593F5A6C594F584EC0EF078
:100640009351300FDF6EAF07D8A0B007B107D8A025
:10065000B2079DC581F59EC582F59FC583F5A0C5EE
:1006600084F5A1C585F5A2C586F5A3C587F5A4C502
:1006700088F50A0E896F8A6B8B6B8C6B8D6B8E6B1A
:100680008F6B906B0AECEEF081C59DF582C59EF5EF
:1006900083C59FF584C5A0F585C5A1F586C5A2F5DE
:1006A00087C5A3F588C5A4F50501B5BF26D0B5510A
:1006B00004E1B40522E301D020D09D519E119F1189
:1006C000A011A111A211A311A41180E101D07ED724
:1006D000B0BF07D0B05104E1AF0501E377D701D037
:1006E00075D7B2BF0AD0B25104E1B10506E301D01B
:1006F00004D0F3B36BD701D069D7B3510DE001D06B
:100700000BD0B407D8A0B507000EB425D96E0D0ED6
:10071000B521DA6EB3C5DFF49BC591F59CC592F5A2
:10072000000EB425936F0D0EB521946FB1C595F5EC
:10073000B2C596F5F3A10CD001D00AD093C58AF5C5
:1007400094C58BF591C58CF592C58DF56AEC0BF0CF
:1007500096BF01D002D0956B966B986B996B0BD0BE
:10076000826B200E816F91C583F592C584F5F1EC03
:10077000F8F0984B992B9551985D9951800A976F95
:100780009651800A9759ECE301D0EAD7F3B10CD027
:1007900001D00AD093C58AF594C58BF591C58CF527
:1007A00092C58DF56AEC0BF093C581F594C582F581
:1007B000F3EC0CF095518125916F96518221926F47
:1007C00091C59BF592C59CF59BC54EF69CC54FF611
:1007D000DCEF97F06CC6F6F46DC6F7F4F86A000E1D
:1007E000F86E0800F550780A01E1D3D001D0D1D0DD
:1007F0006CC6F6F46DC6F7F4F86A000EF86E0800E1
:10080000F550580A01E1C5D001D0C3D06CC6F6F44A
:100810006DC6F7F4F86A000EF86E0800F5506F0A1E
:1008200001E1B7D001D0B5D06CC6F6F46DC6F7F4CF
:10083000F86A000EF86E0800F550750A02E03FEF06
:1008400088F0A7D03FEF88F0A4D084D052C6D9F466
:1008500053C6DAF4DFC454F6020EDE26DFC455F6C2
:10086000000EDD2254C6D9F455C6DAF4DF50646FA9
:10087000656B88D052C6D9F453C6DAF4DFC454F697
:10088000040EDE26DFC455F6000EDD2254C6D9F470
:1008900055C6DAF4DEC456F6DEC457F6DEC458F6A2
:1008A000DEC459F65651646F5751656F5851666FE3
:1008B0005951676F69D01DD052C6D9F453C6DAF4C6
:1008C000DFC454F6020EDE26DFC455F6000EDD222C
:1008D00054C6D9F455C6DAF4DEC464F6DDC465F650
:1008E00065BFFF0E666F676F686F696F6A6F6B6FCA
:1008F00063D052C6D9F453C6DAF4DFC454F6080EF6
:10090000DE26DFC455F6000EDD2254C6D9F455C6E6
:10091000DAF4DEC456F6DEC457F6DEC458F6DEC49A
:1009200059F6DEC45AF6DEC45BF6DEC45CF6DEC4FD
:100930005DF656C664F657C665F658C666F659C6DD
:1009400067F65AC668F65BC669F65CC66AF65DC6A7
:100950006BF632D052C6D9F453C6DAF4DFC454F67B
:10096000020EDE26DFC455F6000EDD2254C6D9F491
:1009700055C6DAF4DEC456F6DDC457F656C664F63C
:1009800057C665F6666B676B686B696B6A6B6B6BFA
:1009900013D06351480A01E159D7040AAAE0240A96
:1009A000D9E0010AD7E0030AA4E0060A01E162D710
:1009B000180A82E00E0ACEE06C29546F000E6D21F9
:1009C000556F50C6D9F451C6DAF454C6DEF455C694
:1009D000DDF440D34EC69AF54FC69BF564C69CF530
:1009E00065C69DF566C69EF567C69FF568C6A0F507
:1009F00069C6A1F56AC6A2F56BC6A3F50501E4BFF9
:100A000003D001D001D0F393E4BF01D004D0A56B93
:100A1000010EA46F04D0E3C5A4F5E4C5A5F5E1C5B6
:100A2000A6F5E2C5A7F5AA6B4F0EA96F0D014F6B96
:100A30000501A86B21D0A907D8A0AA079C51070BD4
:100A4000A86F000EA925D96E0D0EAA21DA6EA85145
:100A5000300FDF6EA407D8A0A507A607D8A0A70768
:100A6000030ED890A333A233A133A0339F339E3318
:100A70009D339C33E82EF5D7AABF25D0AA5104E1B7
:100A8000A90521E301D01FD09C519D119E119F11FA
:100A9000A011A111A211A311CEE101D0CCD7A5BF05
:100AA00006D0A551C8E1A405C6E201D0C4D7A7BFAE
:100AB0000AD0A75104E1A60506E301D004D0F3B3A0
:100AC000BAD701D0B8D7A85107E101D005D0E3517A
:100AD000E41114E101D012D0F3A910D001D00ED04E
:100AE000A907D8A0AA07000EA925D96E0D0EAA2124
:100AF000DA6E300EDF6EA607D8A0A7079AC591F56B
:100B00009BC592F5000EA925936F0D0EAA21946F37
:100B1000A6C595F5A7C596F5F3A10CD001D00AD0CE
:100B200093C58AF594C58BF591C58CF592C58DF565
:100B30006AEC0BF096BF01D002D0956B966B986B68
:100B4000996B0BD0826B200E816F91C583F592C596
:100B500084F5F1ECF8F0984B992B9551985D9951EB
:100B6000800A976F9651800A9759ECE301D0EAD733
:100B7000F3B10CD001D00AD093C58AF594C58BF59A
:100B800091C58CF592C58DF56AEC0BF093C581F596
:100B900094C582F5F3EC0CF095518125916F965137
:100BA0008221926F91C59AF592C59BF59AC54EF632
:100BB0009BC54FF6DCEF97F04EC69AF54FC69BF5F6
:100BC00064C69CF565C69DF566C69EF567C69FF52D
:100BD00068C6A0F569C6A1F56AC6A2F56BC6A3F5FD
:100BE0000501E4BF03D001D001D0F393E4BF01D0ED
:100BF00004D0AD6B010EAC6F04D0E3C5ACF5E4C519
:100C0000ADF5E1C5AEF5E2C5AFF5B16B4F0EB06F16
:100C10000D014F6B68D0B007D8A0B107000EB0250A
:100C2000D96E0D0EB121DA6E9CC581F59DC582F598
:100C30009EC583F59FC584F5A0C585F5A1C586F53C
:100C4000A2C587F5A3C588F50A0E896F8A6B8B6BE1
:100C50008C6B8D6B8E6B8F6B906B08ECF7F081C596
:100C6000A4F582C5A5F583C5A6F584C5A7F585C5F8
:100C7000A8F586C5A9F587C5AAF588C5ABF5A45121
:100C8000300FDF6EAC07D8A0AD07AE07D8A0AF0716
:100C90009CC581F59DC582F59EC583F59FC584F5EC
:100CA000A0C585F5A1C586F5A2C587F5A3C588F5BC
:100CB0000A0E896F8A6B8B6B8C6B8D6B8E6B8F6B57
:100CC000906B9FECF3F081C59CF582C59DF583C5C3
:100CD0009EF584C59FF585C5A0F586C5A1F587C598
:100CE000A2F588C5A3F50501B051B11121E001D0ED
:100CF0001FD09C519D119E119F11A011A111A211F5
:100D0000A31189E101D087D7ADBF06D0AD5183E1F2
:100D1000AC0581E201D07FD7AFBF0AD0AF5104E16B
:100D2000AE0506E301D004D0F3B375D701D073D775
:100D30009AC591F59BC592F5000EB025936F0D0EE7
:100D4000B121946FAEC595F5AFC596F5F3A10CD062
:100D500001D00AD093C58AF594C58BF591C58CF561
:100D600092C58DF56AEC0BF096BF01D002D0956B61
:100D7000966B986B996B0BD0826B200E816F91C52F
:100D800083F592C584F5F1ECF8F0984B992B9551C9
:100D9000985D9951800A976F9651800A9759ECE3B4
:100DA00001D0EAD7F3B10CD001D00AD093C58AF5AF
:100DB00094C58BF591C58CF592C58DF56AEC0BF059
:100DC00093C581F594C582F5F3EC0CF0955181251E
:100DD000916F96518221926F91C59AF592C59BF5BC
:100DE0009AC54EF69BC54FF6DCEF97F04EC69AF5C6
:100DF0004FC69BF564C69CF565C69DF566C69EF517
:100E000067C69FF568C6A0F569C6A1F56AC6A2F5D2
:100E10006BC6A3F56CC6F6F46DC6F7F4F86A000E5F
:100E2000F86E0800F5C4A4F50501E4BF03D001D0B5
:100E300001D0F393E4BF01D004D0A96B010EA86FD9
:100E400004D0E3C5A8F5E4C5A9F5E1C5AAF5E2C556
:100E5000ABF59C519D119E119F11A011A111A211E2
:100E6000A31101E102D0010E01D0000EAC6FF3A975
:100E70000AD001D008D0AC5106E001D004D0FE0E5B
:100E8000AA27FF0EAB23780EA41905E001D003D0EA
:100E9000A66B410E02D0A66B610EA56FA5C5A7F586
:100EA000AF6B4F0EAE6F0D014F6B2AD0AE07D8A0BF
:100EB000AF079C510F0BAD6F0A0EAD6104D001D08E
:100EC00002D0300E02D0A751F60FAD27000EAE258E
:100ED000D96E0D0EAF21DA6EADC5DFF4A807D8A02C
:100EE000A907AA07D8A0AB07040ED890A333A23352
:100EF000A133A0339F339E339D339C33E82EF5D727
:100F00000501AFBF26D0AF5105E1020EAE5D21E372
:100F100001D01FD09C519D119E119F11A011A111B4
:100F2000A211A311C3E101D0C1D7A9BF06D0A95115
:100F3000BDE1A805BBE201D0B9D7ABBF0AD0AB5128
:100F400004E1AA0506E301D004D0F3B3AFD701D082
:100F5000ADD7F3A921D001D01FD0AC511DE001D0F5
:100F60001BD0E351E41118E001D016D0AE07D8A091
:100F7000AF07000EAE25D96E0D0EAF21DA6EA4C5F7
:100F8000DFF4AE07D8A0AF07000EAE25D96E0D0E68
:100F9000AF21DA6E300EDF6E9AC591F59BC592F5E2
:100FA000000EAE25936F0D0EAF21946FAAC595F577
:100FB000ABC596F5F3A10CD001D00AD093C58AF544
:100FC00094C58BF591C58CF592C58DF56AEC0BF047
:100FD00096BF01D002D0956B966B986B996B0BD036
:100FE000826B200E816F91C583F592C584F5F1EC7B
:100FF000F8F0984B992B9551985D9951800A976F0D
:101000009651800A9759ECE301D0EAD7F3B10CD09E
:1010100001D00AD093C58AF594C58BF591C58CF59E
:1010200092C58DF56AEC0BF093C581F594C582F5F8
:10103000F3EC0CF095518125916F96518221926FBE
:1010400091C59AF592C59BF59AC54EF69BC54FF68C
:10105000DCEF97F06CC6F6F46DC6F7F4F86A000E94
:10106000F86E0800F550580A01E1C0D6370A01E1D0
:10107000B1D41A0A01E1A0D50D0A01E1B7D66CC6B8
:10108000F6F46DC6F7F4F86A000EF86E0800F55035
:101090006E0A01E0B2D08DD0B0D08BD071D052C6E4
:1010A000D9F453C6DAF4DFC454F6020EDE26DFC4E8
:1010B00055F6000EDD2254C6D9F455C6DAF4DEC466
:1010C000E1F4DEC4E2F4DFC5E7F486D0DFC554F610
:1010D000E0C555F6000E55BFFF0E566F576F52C64E
:1010E000D9F453C6DAF4DFC458F6020EDE26DFC4A4
:1010F00059F6000EDD2258C6D9F459C6DAF4DEC41A
:10110000E1F4DEC4E2F454C6E6F455C6E6F456C68D
:10111000E6F457C6E7F460D001D032D0DFC554F60C
:10112000E0C555F6000E55BFFF0E566F576F586F4E
:10113000596F5A6F5B6F52C6D9F453C6DAF4DFC4E5
:101140005CF6020EDE26DFC45DF6000EDD225CC614
:10115000D9F45DC6DAF4DEC4E1F4DEC4E2F454C6C8
:10116000E6F455C6E6F456C6E6F457C6E6F458C6A5
:10117000E6F459C6E6F45AC6E6F45BC6E7F42CD0AA
:1011800052C6D9F453C6DAF4DFC454F6020EDE2692
:10119000DFC455F6000EDD2254C6D9F455C6DAF484
:1011A000DEC4E1F4DEC4E2F4DFC5E6F4E0C5E7F452
:1011B00013D06351480A01E172D7040AAFE0240A50
:1011C000DFE0010ADDE0030AA9E0060A01E17ED7BB
:1011D000180AD6E00E0AD4E06C29546F000E6D2177
:1011E000556F50C6D9F451C6DAF454C6DEF455C66C
:1011F000DDF44E6B4F6BDCEF97F0626B50C6D9F4A9
:1012000051C6DAF4DEC4F6F4DDC4F7F4F86A000E71
:10121000F86E0800F550730A0CE101D00AD050C6F0
:10122000D9F451C6DAF4DE2A000EDD22010E626F17
:1012300049D050C6D9F451C6DAF4DEC4F6F4DDC4A0
:10124000F7F4F86A000EF86E0800F5506C0A3AE1FF
:1012500001D038D050C6D9F451C6DAF4DEC454F601
:10126000DDC455F6542B000E552354C6F6F455C66E
:10127000F7F4F86A000EF86E0800F5506C0A22E1E7
:1012800001D020D050C6D9F451C6DAF4DEC454F6E9
:10129000DDC455F6020E5427000E552354C6F6F44D
:1012A00055C6F7F4F86A000EF86E0800F550730A98
:1012B00009E101D007D0030E50C6D9F451C6DAF4C3
:1012C000DE26B2D7625101E1CBD001D0C9D04EC6E3
:1012D0008AF54FC68BF552C6D9F453C6DAF4DFC48B
:1012E00054F6020EDE26DFC455F6000EDD2254C68B
:1012F000D9F455C6DAF4DEC48CF5DDC48DF58CC5A1
:1013000094F58DC595F505019451951106E101D02F
:1013100004D0AF0E946FFF0E956F966B976B03D052
:101320000501964B972B965194258E6F97519521D9
:101330008F6F8EC5F6F48FC5F7F4000EF86E3F0E72
:10134000F76403D00800F55005D0F6C4E1F4F7C403
:10135000E2F4E7500009E4E101D0E2D70501E4BF7F
:1013600011D001D00FD09651E35DE451800A8E6F09
:101370009751800A8E5906E201D004D0E3C596F554
:10138000E4C597F596C590F597C591F5E1C592F539
:10139000E2C593F5F3B136D00DD034D00BD0826BCB
:1013A000200E816F8AC583F58BC584F5F1ECF8F0CA
:1013B000964B972B9251965D9751800A8E6F935161
:1013C000800A8E59ECE31ED0EAD71CD094C5F6F4FF
:1013D00095C5F7F4000EF86E3F0EF76403D00800D1
:1013E000F55005D0F6C4E1F4F7C4E2F4E750050186
:1013F000816F826B8AC583F58BC584F5F1ECF8F0BB
:10140000944B952B9007D8A091079029DFE1912963
:10141000DDE101D0DBD7F3A119D00DD017D00BD06F
:10142000826B200E816F8AC583F58BC584F5F1EC44
:10143000F8F0964B972B9251965D9751800A8E6FDC
:101440009351800A8E59ECE301D0EAD796C58AF50C
:1014500097C58BF58AC54EF68BC54FF6DCEF97F036
:1014600050C6D9F451C6DAF4DEC46CF6DDC46DF6AC
:101470006CC6F6F46DC6F7F4F86A000EF86E080054
:10148000F5C463F608D06C4B6D2B1BD06C0E636FEC
:1014900018D0636B16D06351410AF8E0040AF6E0F5
:1014A000030AF4E0010AF2E00B0AEDE02D0AEEE097
:1014B000040AECE0030AEAE0010AE8E00B0AE3E0D0
:1014C000E8D76CC6F6F46DC6F7F4F86A000EF86E4D
:1014D0000800F550610A7AE001D078D06CC6F6F4C5
:1014E0006DC6F7F4F86A000EF86E0800F550410A70
:1014F0006DE001D06BD06CC6F6F46DC6F7F4F86AF7
:10150000000EF86E0800F550650A60E001D05ED06C
:101510006CC6F6F46DC6F7F4F86A000EF86E0800B3
:10152000F550450A53E001D051D06CC6F6F46DC6B3
:10153000F7F4F86A000EF86E0800F550660A46E007
:1015400001D044D06CC6F6F46DC6F7F4F86A000E0C
:10155000F86E0800F550460A39E001D037D06CC665
:10156000F6F46DC6F7F4F86A000EF86E0800F55050
:10157000670A2CE001D02AD06CC6F6F46DC6F7F4E9
:10158000F86A000EF86E0800F550470A02E08EEF88
:1015900097F01CD08EEF97F019D052C6D9F453C6ED
:1015A000DAF4DFC454F6040EDE26DFC455F6000E6E
:1015B000DD2254C6D9F455C6DAF4DEC464F6DEC4BE
:1015C00065F6DEC466F6DEC467F605D063514C0AE4
:1015D000E4E0200AE2E06C29546F000E6D21556FA3
:1015E00050C6D9F451C6DAF454C6DEF455C6DDF45B
:1015F00065EF97F04EC611F64FC612F664C613F6A5
:1016000065C614F666C615F667C616F66CC6F6F419
:101610006DC6F7F4F86A000EF86E0800F5C417F608
:1016200017C618F6BF0E1827190E186501D002D07C
:10163000010E01D0000E176F426B13C63EF614C6A2
:101640003FF615C640F616C641F641BF01D014D08C
:10165000010E426F3EC681F53FC682F540C683F556
:1016600041C684F554EC0DF081C53EF682C53FF6C7
:1016700083C540F684C541F60601496B4A6BE1C556
:1016800034F6E2C535F6425107E101D005D0050137
:10169000F3A510D001D00ED00601425105E101D0D2
:1016A00003D01F6B2B0E02D01F6B2D0E1E6F1EC69C
:1016B00042F607D0F3A705D001D003D0200E0601D3
:1016C000426F3EC681F53FC682F540C683F541C6EE
:1016D00084F597ECF5F08105821101E08CD001D002
:1016E0008AD0060142510AE001D008D042C600FD6E
:1016F0004A6B010E496F3407D8A03507175112E025
:1017000001D010D0000E49250501816F0D0E060194
:101710004A210501826FE40E836FFF0E846F9BECFC
:101720000BF00FD0000E49250501816F0D0E06014B
:101730004A210501826FEC0E836FFF0E846F9BECD4
:101740000BF00601FD0E3427FF0E352311C691F56F
:1017500012C692F5000E0501936F0D0E946F34C6FC
:1017600095F535C696F5F3A10CD001D00AD093C5F6
:101770008AF594C58BF591C58CF592C58DF56AEC0B
:101780000BF096BF01D002D0956B966B986B996B5E
:101790000BD0826B200E816F91C583F592C584F5C5
:1017A000F1ECF8F0984B992B9551985D9951800A7E
:1017B000976F9651800A9759ECE301D0EAD7F3B1BD
:1017C0000CD001D00AD093C58AF594C58BF591C58C
:1017D0008CF592C58DF56AEC0BF093C581F594C537
:1017E00082F5F3EC0CF095518125916F9651822191
:1017F000926FD3EF90F03EC681F53FC682F540C6AA
:1018000083F541C684F597ECF5F08151821133E1FF
:1018100001D031D0060142510AE001D008D042C6C1
:1018200000FD4A6B010E496F3407D8A035071751E8
:1018300012E001D010D0000E49250501816F0D0E78
:1018400006014A210501826FE80E836FFF0E846F47
:101850009BEC0BF076D7000E49250501816F0D0E2C
:1018600006014A210501826FF00E836FFF0E846F1F
:101870009BEC0BF066D70601436B446B800E456F03
:101880003F0E466F306B316B3EC681F53FC682F529
:1018900040C683F541C684F50501856B866B876B71
:1018A000886B60EC01F073E21CD071D01AD043C693
:1018B000C9F544C6CAF545C6CBF546C6CCF5CD6BD1
:1018C000CE6BCF6B400ED06F8AECD6F0C9C543F615
:1018D000CAC544F6CBC545F6CCC546F60601304B25
:1018E000312B3EC6D5F53FC6D6F540C6D7F541C625
:1018F000D8F50501CD6BCE6BCF6B400ED06F43C6D4
:10190000C9F544C6CAF545C6CBF546C6CCF58AEC42
:10191000D6F0C9C5D9F5CAC5DAF5CBC5DBF5CCC556
:10192000DCF55DECF7F0C3E21DD0C1D71BD043C698
:1019300098F544C699F545C69AF546C69BF59C6B45
:101940009D6B9E6B400E9F6F69ECE7F098C543F668
:1019500099C544F69AC545F69BC546F6060130077B
:10196000D8A031073EC6D5F53FC6D6F540C6D7F557
:1019700041C6D8F543C6D9F544C6DAF545C6DBF508
:1019800046C6DCF55DECF7F0D2E301D0D0D7E4BF7A
:1019900007D001D005D0E3C52BF6E4C52CF604D062
:1019A00006012C6B4A0E2B6F010E06012B25276FAB
:1019B000000E2C21286F476B486B3EC636F63FC69B
:1019C00037F640C638F641C639F643C61AF644C65D
:1019D0001BF645C61CF646C61DF679D036C698F5E8
:1019E00037C699F538C69AF539C69BF543C69CF5B6
:1019F00044C69DF545C69EF546C69FF569ECE7F0E1
:101A000098C5B1F599C5B2F59AC5B3F59BC5B4F5BE
:101A1000D5ECEBF0B1C53AF6B2C53BF6B3C53CF632
:101A2000B4C53DF63AC6D5F53BC6D6F53CC6D7F5A6
:101A30003DC6D8F5A5ECF8F0D5C532F6D6C533F6D7
:101A400036C6C1F537C6C2F538C6C3F539C6C4F5C2
:101A500043C6CDF544C6CEF545C6CFF546C6D0F54E
:101A60003AC6C9F53BC6CAF53CC6CBF53DC6CCF572
:101A70008AECD6F0C9C5C5F5CAC5C6F5CBC5C7F54C
:101A8000CCC5C8F5ABEC07F0C1C536F6C2C537F614
:101A9000C3C538F6C4C539F643C698F544C699F5AA
:101AA00045C69AF546C69BF59C6B9D6B800E9E6F56
:101AB000410E9F6F69ECE7F098C543F699C544F66F
:101AC0009AC545F69BC546F60601474B482B27515C
:101AD000475D4851800A186F2851800A185901E261
:101AE0007DD701D07BD743C6C9F544C6CAF545C6E4
:101AF000CBF546C6CCF50501CD6BCE6BCF6B410E59
:101B0000D06F8AECD6F0C9C53AF6CAC53BF6CBC54C
:101B10003CF6CCC53DF636C6D5F537C6D6F538C643
:101B2000D7F539C6D8F53AC6D9F53BC6DAF53CC67D
:101B3000DBF53DC6DCF55DECF7F004E201D002D048
:101B400006011AD036C681F537C682F538C683F548
:101B500039C684F53AC685F53BC686F53CC687F599
:101B60003DC688F560EC01F00BE301D009D0060119
:101B700032B106D001D004D03A6B3B6B3C6B3D6B6D
:101B80003EC6B1F53FC6B2F540C6B3F541C6B4F5A1
:101B90003AC6B5F53BC6B6F53CC6B7F53DC6B8F591
:101BA00068ECDDF0B1C536F6B2C537F6B3C538F628
:101BB000B4C539F61AC643F61BC644F61CC645F62C
:101BC0001DC646F60601296B2A6B2F6B2D6B2E6BFB
:101BD000476B486B09D136C698F537C699F538C6B4
:101BE0009AF539C69BF543C69CF544C69DF545C696
:101BF0009EF546C69FF569ECE7F098C5B1F599C525
:101C0000B2F59AC5B3F59BC5B4F5D5ECEBF0B1C50B
:101C10003AF6B2C53BF6B3C53CF6B4C53DF63AC696
:101C2000D5F53BC6D6F53CC6D7F53DC6D8F5A5ECEF
:101C3000F8F0D5C532F6D6C533F606013251331168
:101C40000EE101D00CD02ABF01D009D00501F3B9B3
:101C500006D001D004D006012D4B2E2B65D00601F5
:101C60002F5125E101D023D02ABF01D020D0000E72
:101C70004925D96E0D0E4A21DA6E2E0EDF6E494BC4
:101C80004A2B3407D8A03507010E2F6F10D0000E55
:101C90004925D96E0D0E4A21DA6E300EDF6E494BA2
:101CA0004A2B3407D8A035072D07D8A02E072D5171
:101CB0002E11EDE101D0EBD733BF09D0335105E14F
:101CC0000A0E325D04E301D002D0570E01D0300E6F
:101CD0003227000E332317511AE001D018D032C634
:101CE00018F6200E18139F0E18271A0E18610FD021
:101CF00001D00DD032C618F69F0E1827190E1865A0
:101D000003D005D001D003D05F0E3217336B000E25
:101D10004925D96E0D0E4A21DA6E32C6DFF4494BE1
:101D20004A2B3407D8A0350736C6C1F537C6C2F5E9
:101D300038C6C3F539C6C4F543C6CDF544C6CEF59D
:101D400045C6CFF546C6D0F53AC6C9F53BC6CAF575
:101D50003CC6CBF53DC6CCF58AECD6F0C9C5C5F579
:101D6000CAC5C6F5CBC5C7F5CCC5C8F5ABEC07F001
:101D7000C1C536F6C2C537F6C3C538F6C4C539F68F
:101D800043C698F544C699F545C69AF546C69BF5EF
:101D90009C6B9D6B800E9E6F410E9F6F69ECE7F010
:101DA00098C543F699C544F69AC545F69BC546F6CF
:101DB00006012907D8A02A07474B482B0501E4BF95
:101DC00001D012D036C681F537C682F538C683F504
:101DD00039C684F5856B866B876B886B60EC01F088
:101DE00003E318D001D016D006012751475D4851B2
:101DF000800A186F2851800A18590CE201D00AD0C5
:101E00004ABFE9D64A5106E14B0E495D01E2E3D6ED
:101E100001D0E1D606012F513AE101D038D02D5141
:101E20002E1135E001D033D00501E4BF30D0E451AC
:101E300004E1E3052CE301D02AD006014ABF07D014
:101E40004A5125E14B0E495D22E201D020D0010E1E
:101E50002F6F000E4925D96E0D0E4A21DA6E2E0E17
:101E6000DF6E494B4A2B3407D8A0350710D0000E3F
:101E70004925D96E0D0E4A21DA6E300EDF6E494BC0
:101E80004A2B3407D8A035072D07D8A02E07060106
:101E90002D512E110BE001D009D04ABFE8D74A518D
:101EA00005E14B0E495DE3E301D0E1D72F5112E18B
:101EB00001D010D00501F3A90DD001D00BD0000E38
:101EC00006014925D96E0D0E4A21DA6E2E0EDF6EFF
:101ED000494B4A2B000E06014925D96E0D0E4A21A9
:101EE000DA6EDF6A486B4F0E476F000E4725D96EDA
:101EF0000D0E4821DA6EDF6A266B31BF01D006D0A5
:101F0000010E266F306D311FD8B0312B2C6B010EB6
:101F10002B6F2AD04707D8A04807000E4725D96E57
:101F20000D0E4821DA6E30C681F531C682F5050105
:101F3000846B0A0E836FCCECFFF08151300FDF6EA3
:101F400030C686F531C687F5896B0A0E886F8CEC32
:101F5000FDF086C530F687C531F606012B07D8A0FF
:101F60002C073407D8A0350730513111D3E101D007
:101F7000D1D72CBF06D02C51CDE12B05CBE201D01F
:101F8000C9D74707D8A04807265105E101D003D09B
:101F9000216B2B0E02D0216B2D0E206F000E4725DA
:101FA000D96E0D0E4821DA6E20C6DFF43407D8A0B2
:101FB00035074707D8A04807175105E101D003D0DE
:101FC000236B700E02D0236B500E226F000E47253C
:101FD000D96E0D0E4821DA6E22C6DFF43407D8A080
:101FE0003507000E186F0D0E196F4951185F4A51D1
:101FF000195B475118250501816F060148511921C8
:102000000501826F000E836F0D0E846F49C685F542
:102010004AC686F5E1EC02F006014951475D496F79
:102020004A5148594A6F425105E101D003D0486BEB
:10203000020E02D0486B030E476F0501F3A328D0B0
:1020400010D026D00ED04907D8A04A07000E492547
:10205000D96E0D0E4A21DA6E300EDF6E3407D8A02D
:10206000350706013451475D4851800A186F3551D4
:10207000800A18590DE201D00BD04951475D4851F3
:10208000800A186F4A51800A1859DDE301D0DBD766
:102090000601175105E101D003D0256B780E02D05F
:1020A000256B580E246F4907D8A04A07000E492512
:1020B000D96E0D0E4A21DA6E24C6DFF44907D8A086
:1020C0004A07000E4925D96E0D0E4A21DA6E300EF0
:1020D000DF6E42510DE001D00BD04907D8A04A076E
:1020E000000E4925D96E0D0E4A21DA6E42C6DFF484
:1020F0004751345F4851355B11C691F512C692F5D0
:10210000000E49250501936F0D0E06014A210501B8
:10211000946F34C695F535C696F5F3A10CD001D071
:102120000AD093C58AF594C58BF591C58CF592C5F7
:102130008DF56AEC0BF096BF01D002D0956B966BD3
:10214000986B996B0BD0826B200E816F91C583F5D4
:1021500092C584F5F1ECF8F0984B992B9551985D68
:102160009951800A976F9651800A9759ECE301D0F4
:10217000EAD7F3B10CD001D00AD093C58AF594C543
:102180008BF591C58CF592C58DF56AEC0BF093C576
:1021900081F594C582F5F3EC0CF095518125916F92
:1021A00096518221926F91C511F692C512F611C611
:1021B0004EF612C64FF6DCEF97F04EC611F64FC63C
:1021C00012F664C613F665C614F666C615F667C63B
:1021D00016F66CC6F6F46DC6F7F4F86A000EF86EE3
:1021E0000800F5C417F63F6B13C642F614C643F653
:1021F00015C644F616C645F645BF01D014D0010EEB
:102200003F6F42C681F543C682F544C683F545C695
:1022100084F554EC0DF081C542F682C543F683C5C2
:1022200044F684C545F606014C6B4D6BE1C535F6A9
:10223000E2C536F63F5107E101D005D00501F3A50F
:1022400010D001D00ED006013F5105E101D003D0DE
:102250001C6B2B0E02D01C6B2D0E1B6F1BC63FF68A
:1022600007D0F3A705D001D003D0200E06013F6FA1
:1022700042C681F543C682F544C683F545C684F55A
:1022800097ECF5F08105821101E091D001D08FD05B
:1022900006013F510AE001D008D03FC600FD3507D6
:1022A000D8A036074D6B010E4C6F17C618F6BF0E3F
:1022B00018271A0E186112D001D010D0000E4C252C
:1022C0000501816F0D0E06014D210501826FE40E9F
:1022D000836FFF0E846F9BEC0BF00FD0000E4C252C
:1022E0000501816F0D0E06014D210501826FEC0E77
:1022F000836FFF0E846F9BEC0BF00601FD0E3527FC
:10230000FF0E362311C691F512C692F5000E050197
:10231000936F0D0E946F35C695F536C696F5F3A1FD
:102320000CD001D00AD093C58AF594C58BF591C520
:102330008CF592C58DF56AEC0BF096BF01D002D0FA
:10234000956B966B986B996B0BD0826B200E816F9F
:1023500091C583F592C584F5F1ECF8F0984B992B73
:102360009551985D9951800A976F9651800A9759B7
:10237000ECE301D0EAD7F3B10CD001D00AD093C579
:102380008AF594C58BF591C58CF592C58DF56AECEF
:102390000BF093C581F594C582F5F3EC0CF09551E3
:1023A0008125916F96518221926F5CEF97F042C622
:1023B00081F543C682F544C683F545C684F597EC9E
:1023C000F5F08151821138E101D036D006013F513C
:1023D0000AE001D008D03FC600FD3507D8A0360777
:1023E0004D6B010E4C6F17C618F6BF0E18271A0E4C
:1023F000186112D001D010D0000E4C250501816F5C
:102400000D0E06014D210501826FE80E836FFF0E50
:10241000846F9BEC0BF071D7000E4C250501816F8A
:102420000D0E06014D210501826FF00E836FFF0E28
:10243000846F9BEC0BF061D70601486B496B800EF3
:102440004A6F3F0E4B6F406B416B42C681F543C6EE
:1024500082F544C683F545C684F50501856B866B18
:10246000876B886B60EC01F001E3D9D00DD0D7D039
:102470000BD031C648F632C649F633C64AF634C6E2
:102480004BF60601404B412B48C6C9F549C6CAF573
:102490004AC6CBF54BC6CCF50501CD6BCE6B200EF5
:1024A000CF6F410ED06F8AECD6F0C9C531F6CAC5E0
:1024B00032F6CBC533F6CCC534F606013151425D58
:1024C0000501816F0601325143590501826F0601F2
:1024D000335144590501836F0601345145590501B3
:1024E000846F9FEC04F084BFC4D7845183118211A0
:1024F00005E1020E815DBDE301D0BBD731C6D5F544
:1025000032C6D6F533C6D7F534C6D8F542C6D9F5A6
:1025100043C6DAF544C6DBF545C6DCF55DECF7F0FD
:10252000A8E301D0A6D706014851425D0501816F9D
:102530000601495143590501826F06014A51445928
:102540000501836F06014B5145590501846F9FECCE
:1025500004F084BF09D08451831182114BE1020E33
:10256000815D48E201D046D048C642F649C643F6EE
:102570004AC644F64BC645F652D048C698F549C6F9
:1025800099F54AC69AF54BC69BF59C6B9D6B200E40
:102590009E6F410E9F6F69ECE7F098C548F699C5AC
:1025A00049F69AC54AF69BC54BF606014007D8A0E6
:1025B00041074851425D0501816F06014951435968
:1025C0000501826F06014A5144590501836F0601D6
:1025D0004B5145590501846F9FEC04F084BFC4D76B
:1025E00084518311821106E1020E815D03E2BCD7A2
:1025F00001D0BAD742C6D5F543C6D6F544C6D7F5FD
:1026000045C6D8F548C6D9F549C6DAF54AC6DBF558
:102610004BC6DCF55DECF7F0B0E301D0AED717C6E2
:1026200018F6BF0E06011827190E186506D001D03E
:1026300004D017C61DF61E6B08D0200E17C618F65C
:10264000196B18111D6F19511E6F1DC630F630C65B
:102650002FF6670E30191DE101D01BD00501E351A3
:10266000E41105E101D003D0E46B010EE36FE4BF98
:1026700006D0E45109E1E30507E201D005D00601E7
:102680002E6B060E2D6F0BD0E3C52DF6E4C52EF68E
:1026900006D00501E4BFF3D7F7D7F1D7F5D7670E1A
:1026A0000601301920E101D01ED041AF07D0FC0E49
:1026B000405DFF0E415915E301D013D0FF0E2D25CB
:1026C000186FFF0E2E21196F4051185D1951800AA5
:1026D0001A6F4151800A1A5904E301D002D0660EE4
:1026E00001D0650E2F6F2DC629F62EC62AF6670E6D
:1026F00030190AE101D008D0660E2F1907E101D088
:1027000005D041BF01D002D0294B2A2B660E2F19CC
:1027100016E101D014D041BF01D008D0486B496BFD
:10272000800E4A6F3F0E4B6F406B416B670E301946
:1027300006E001D004D04051292741512A23466B9D
:10274000476B42C637F643C638F644C639F645C627
:102750003AF648C631F649C632F64AC633F64BC693
:1027600034F679D037C698F538C699F539C69AF552
:102770003AC69BF548C69CF549C69DF54AC69EF5E6
:102780004BC69FF569ECE7F098C5B1F599C5B2F570
:102790009AC5B3F59BC5B4F5D5ECEBF0B1C53BF6E6
:1027A000B2C53CF6B3C53DF6B4C53EF63BC6D5F55D
:1027B0003CC6D6F53DC6D7F53EC6D8F5A5ECF8F033
:1027C000D5C52BF6D6C52CF637C6C1F538C6C2F529
:1027D00039C6C3F53AC6C4F53BC6CDF53CC6CEF501
:1027E0003DC6CFF53EC6D0F548C6C9F549C6CAF5BF
:1027F0004AC6CBF54BC6CCF58AECD6F0C9C5C5F5B3
:10280000CAC5C6F5CBC5C7F5CCC5C8F5ABEC07F056
:10281000C1C537F6C2C538F6C3C539F6C4C53AF6E0
:1028200048C698F549C699F54AC69AF54BC69BF530
:102830009C6B9D6B200E9E6F410E9F6F69ECE7F0C5
:1028400098C548F699C549F69AC54AF69BC54BF610
:102850000601464B472B2951465D4751800A186FA8
:102860002A51800A185901E27DD701D07BD748C68A
:10287000C9F549C6CAF54AC6CBF54BC6CCF5050124
:10288000CD6BCE6BA00ECF6F400ED06F8AECD6F022
:10289000C9C53BF6CAC53CF6CBC53DF6CCC53EF630
:1028A00037C6D5F538C6D6F539C6D7F53AC6D8F500
:1028B0003BC6D9F53CC6DAF53DC6DBF53EC6DCF5D0
:1028C0005DECF7F004E201D002D006011AD037C661
:1028D00081F538C682F539C683F53AC684F53BC61C
:1028E00085F53CC686F53DC687F53EC688F560ECA5
:1028F00001F00BE301D009D006012BB106D001D0C5
:1029000004D03B6B3C6B3D6B3E6B42C6B1F543C69E
:10291000B2F544C6B3F545C6B4F53BC6B5F53CC6FD
:10292000B6F53DC6B7F53EC6B8F568ECDDF0B1C505
:1029300037F6B2C538F6B3C539F6B4C53AF637C678
:10294000D5F538C6D6F539C6D7F53AC6D8F5CD6B24
:10295000CE6B200ECF6F410ED06F31C6C9F532C697
:10296000CAF533C6CBF534C6CCF58AECD6F0C9C56A
:10297000D9F5CAC5DAF5CBC5DBF5CCC5DCF55DEC20
:10298000F7F026E301D024D00601404B412B31C69D
:10299000C9F532C6CAF533C6CBF534C6CCF5050148
:1029A000CD6BCE6B200ECF6F410ED06F8AECD6F080
:1029B000C9C531F6CAC532F6CBC533F6CCC534F637
:1029C000660E06012F1904E101D002D0294B2A2BF3
:1029D00031C648F632C649F633C64AF634C64BF617
:1029E000650E06012F1907E001D005D040C626F676
:1029F00041C627F602D0266B276B286B236B246B0E
:102A0000466B476BE6D037C698F538C699F539C698
:102A10009AF53AC69BF548C69CF549C69DF54AC647
:102A20009EF54BC69FF569ECE7F098C5B1F599C5E1
:102A3000B2F59AC5B3F59BC5B4F5D5ECEBF0B1C5CD
:102A40003BF6B2C53CF6B3C53DF6B4C53EF63BC653
:102A5000D5F53CC6D6F53DC6D7F53EC6D8F5A5ECAE
:102A6000F8F0D6BF07D0D65114E10A0ED55D11E2B9
:102A700001D00FD03BC6D5F53CC6D6F53DC6D7F53F
:102A80003EC6D8F5A5ECF8F0D5C52BF6D6C52CF684
:102A900004D006012C6B090E2B6F06012B512C1153
:102AA00013E101D011D0670E30190EE101D00CD026
:102AB00027BF01D009D00501F3B906D001D004D059
:102AC0000601234B242B3BD00601285125E101D0E0
:102AD00023D027BF01D020D0000E4C25D96E0D0E7B
:102AE0004D21DA6E2E0EDF6E4C4B4D2B3507D8A0E4
:102AF0003607010E286F10D0000E4C25D96E0D0E32
:102B00004D21DA6E300EDF6E4C4B4D2B3507D8A0C1
:102B100036072307D8A0240723512411EDE101D063
:102B2000EBD7000E4C25D96E0D0E4D21DA6E2B51D0
:102B3000300FDF6E4C4B4D2B3507D8A0360737C60C
:102B4000C1F538C6C2F539C6C3F53AC6C4F53BC6A9
:102B5000CDF53CC6CEF53DC6CFF53EC6D0F548C650
