:0400000085EF00F098
:100008003E523E523E523E523E523E523E52144B99
:100018003E523E522B4F3A4F3E523E523E523E5275
:10002800494F3E523E523E520D4F3E521C4F3E5299
:100038003E523E523E523E523E523E523E52AD4ECD
:10004800C14FB24F3E523E523E523E523E523E5237
:10005800FD4F3E52EE4F3E523E523E523E523E52AF
:100068003E523E523E523E52584F674F764F3E5296
:100078003E523E523E523E5242003E523E523E5246
:10008800DF4FD04F3E523E52414E3E523E523E52BC
:100098003E523E523E523E5242003E523E523E5226
:1000A8003E523E523E523E52854F944FA34F3E52CF
:1000B8003E523E523E523E523E523E523E523E52B8
:1000C8003E523E523E523E523E523E523E523E52A8
:1000D8003E523E523E523E523E523E523E523E5298
:1000E80042003E523E523E523E523E523E523E52D6
:1000F80030523E523E52F4503E523E523E523E52D2
:0A010800FF0016EE8DF191EF92F06A
:10F9C200002573202564202573202020202020205C
:10F9D2002020202020202020202020202020202025
:10F9E2002020202020202020202020202020200035
:10F9F2004F4E4C494E45204125642C20522564200F
:10FA0200524625642C2054256420544625642C201B
:10FA120043256420256420257320202020200048CF
:10FA22006F7374204125642C205225642052462590
:10FA3200642C2054256420544625642C20432564DC
:10FA42002025642025732020202020202000554ED0
:10FA52004B20464F524D4154204125642C205225C3
:10FA62006420524625642C20542564205446256483
:10FA72002C20432564202573202020002573202577
:10FA82007320202020202020202020202020202021
:10FA92002020202020202020202020202020202064
:10FAA20020202020202000257320257320202020C4
:10FAB2002020202020202020202020202020202044
:10FAC200202020202020202020202020202000482C
:10FAD2006F737420434D44533A204D2043205220EB
:10FAE20050204F204C2053204420452048204600DF
:10FAF200506F727420626175642072617465207542
:10FB02006E6C6F636B656420202020202020200013
:10FB1200486F737420434D44533A20454E41424C42
:10FB220045442052454D4F544500832003040000B4
:10FB3200440700018324030400180000E8FF3C008E
:10FB420023007C7C2F2F2D2D0000000000000000E0
:10FB52000000000000007C7C2F2F2D2D5C5C00003B
:10FB6200000000000000000000004F4F4F4F4F4FB9
:10FB72002D2D5F5F2D000000000000000000767652
:10FB82003C3C5E5E3E3E00000000000000000000C3
:10FB920000002E2E2A2A7823782358587C7C2D2D7B
:10FBA2000000000000002E2E6F6F4F4F6F6F00009D
:10FBB20000000000000000000000B4000002040089
:10FBC2000002020000000A000001BA492492C9FFA3
:10FBD200FFFFC8001FFEC7FFFFFFC5FFFFFEB40007
:10FBE2001401B4018001B7FFFFFEB8000001C2009A
:10FBF2000000E400000104FFFF0CFFFF0B000010F7
:10FC0200000040F70D2D2D2D205449433132343060
:10FC120030204472697665722056657273696F6E20
:10FC2200202573202573202573202D2D2D0D0A00EC
:10FC32000D2D2D2D204D4333333939362044726931
:10FC42007665722056657273696F6E202573202562
:10FC520073202573202D2D2D0D0A002052554E2084
:10FC620053746174696320446973706C61792020F4
:10FC7200202020202020202020202000204D6573DD
:10FC82006720256420537461636B20256420202043
:10FC920020202020202020202020200020546572B7
:10FCA2006D696E616C20496E666F202020202020D5
:10FCB200202020202020202020002048454C5020B9
:10FCC20053637265656E3A2025752020202020201E
:10FCD20020202020200020506F7274204C6F636B14
:10FCE20020232564202020202020202020202020C6
:10FCF20000205465726D696E616C2025642020209D
:10FD0200202020202020202020200020434D44209D
:10FD12002563202563204C656E2025642020202049
:10FD2200202020200048454C5020257320202020F0
:10FD320020202020202020202020202000204F7062
:10FD4200656E204C4C2020202020202020202020C6
:10FD520020202020002050756D70204C4C20202047
:10FD6200202020202020202020202020002052653A
:10FD7200616479204C4C202020202020202020204B
:10FD820020202020002053324634312023256320B6
:10FD92002020202020202020202020200044495301
:10FDA200504C415920257320202020202020202043
:10FDB20020202020002053746F7265642023256464
:10FDC2002020202020202020202020200076746562
:10FDD200726D2025783A25782020202020202020AE
:10FDE20020202020002053455155454E43452025D3
:10FDF2006420202020202020202020200020446970
:10FE020073706C6179206E756D202564202020202E
:10FE1200202020200020532564462564206C6F6733
:10FE220020202020256420202020202000204C6F2C
:10FE320061642D6C6F636B206E756D2025642020CC
:10FE420020202020002020202020202020202020D0
:10FE52002020202020202020202020002025732068
:10FE62002020202020202020202020202020202090
:10FE720020200020494E464F2020202020202020F4
:10FE820020202020202020202000204445425547C9
:10FE92002020202020202020202020202020202060
:10FEA20000204E534153504F4F4B20202020202002
:10FEB200202020202020200020565445524D204949
:10FEC2004E464F20202020202020202020200020CD
:10FED200565445524D2048454C5020202020202089
:10FEE2002020202020002056657273696F6E202525
:10FEF2007320202020202020202020200020565463
:10FF020045524D20444542554720202020202020A4
:10FF1200202020002048454C50204275696C642006
:10FF22002573202020202020202000204F5049200F
:10FF32004441512025752020202573202020202097
:10FF4200200048454C5020257320202020202020CE
:10FF52002020202020202000506F72742025732042
:10FF62002020202020202020202020200025732057
:10FF7200202020202020202020202020202020207F
:10FF8200004C6F636B656420313135323030627002
:10FF920073004C6F636B6564203936303062707366
:10FFA200004D617920323620323032350032303A1B
:10FFB20032363A30320032303A33373A3133004354
:10FFC2004F4D4D202020004552524F522020004FCD
:10FFD2004E4C494E45200052454D4F544520004459
:10FFE200495341424C45004F46464C494E45005606
:0EFFF200302E31330056302E360025730000BD
:020000040001F9
:100000000A01806B00019451A8EC9CF09F94D68E5D
:10001000D68C31ECA1F02EECA2F0000E6100A1F321
:1000200002F676ECA4F09E0E0601E16F400EE26F40
:10003000010EE36FB0ECA3F073ECA4F070ECA4F04D
:10004000030E0601E26FF10EE16F02ECA3F000096E
:10005000D8B404D00A017B6B7B2B02D00A017B6BE6
:100060006200EDF9F6F7030E0601E26FF00EE16FA4
:1000700002ECA3F00A017B6F6200EDF9EDF7030ECD
:100080000601E26FF10EE16F000EE36F14EC9DF0DC
:10009000030E0601E26FF00EE16F6500B4FF7BFA1C
:1000A0000A017B290601E36F14EC9DF025EEEDF3C8
:1000B000DFB005D0940E0A01856FFF0E04D0830EC9
:1000C0000A01856FFF0E866FBF82BF84BF86B80EA0
:1000D000E66E0B0EE66EBCECA0F0BF94BF92BF962E
:1000E00025EEF6F3DF50D8B409D0030E0601E26F17
:1000F000F10EE16F010EE36F14EC9DF0030E0601AB
:10010000E26FF00EE16F6500B4FFE3F614EC9DF0D2
:1001100025EEF6F3DF50D8B452D0030E0601E26F9D
:10012000F00EE16F02ECA3F00A017B6F6200EDF9C3
:10013000EDF76500B4FFE8F4FF0AD8A40ED0000E76
:100140006100A1F3EDF7030E0601E26FF00EE16F1F
:100150006500B4FFE3F614EC9DF025EEEDF3DFB09F
:1001600009D0A0EC98F0EAEC98F08A0E0A01856FAD
:10017000FF0E08D00AEC98F055EC98F09B0E0A019F
:10018000856FFF0E866F030E0601E26FF00EE16FC2
:100190006500B4FFE8F4010F6100A1F3EDF765001D
:1001A000B4FFE3F614EC9DF0030E0601E26FF10ECE
:1001B000E16F6500D8FFE3F614EC9DF019D0030E53
:1001C0000601E26FF00EE16F02ECA3F00A017B6F13
:1001D0006200EDF9EDF725EEEDF3DFB005D00AECA6
:1001E00098F055EC98F004D0A0EC98F0EAEC98F078
:1001F000000E0A01846F000E836F0DD00A01835137
:100200007B6F84517C6F834B842B7C5109E10B0EF7
:100210007B5DD8B005D077EC88F00009D8B4EED774
:10022000000E0A01846F000E836F0DD00A01835106
:100230007B6F84517C6F834B842B7C5109E10B0EC7
:100240007B5DD8B005D070EC9BF00009D8B4EED738
:10025000FFEC9BF08BECA4F084D2E3EC91F00C0E5D
:100260004EECA3F025EEEBF3DF503EECA2F0000ED7
:10027000E16F000E2EEC9CF0E1C6F3F8E2C6F4F854
:10028000000E0801F66F150EF56F5A0EF76FFF0E90
:10029000F86F85CAF9F886CAFAF8B3EC93F0000E45
:1002A0000601E16F010E2EEC9CF0E1C6F3F8E2C608
:1002B000F4F8000E0801F66F150EF56F5A0EF76F81
:1002C000FF0EF86F85CAF9F886CAFAF8B3EC93F016
:1002D000000E0601E16F020E2EEC9CF0E1C6F3F871
:1002E000E2C6F4F8000E0801F66F150EF56F5A0E0F
:1002F000F76FFF0EF86F85CAF9F886CAFAF8B3EC03
:1003000093F0000E0601E16F030E2EEC9CF0E1C6A7
:10031000F3F8E2C6F4F8000E0801F66F150EF56F5B
:100320005A0EF76FFF0EF86F85CAF9F886CAFAF809
:10033000B3EC93F047ECA3F0E80EE66E030EE66E26
:10034000BCECA0F0010E6100A1F302F6070E06015D
:10035000E26FA50EE16FC4ECA2F025EEEBF3DF50E7
:100360003EECA2F0280E0801F36F170EF46F000E9A
:10037000F66F3F0EF56F9E0EF76FFC0EF86FB3EC45
:1003800093F0000E0601E16F000E2EEC9CF0E1C62A
:10039000F3F8E2C6F4F8000E0801F66F150EF56FDB
:1003A0002D0EF76FFF0EF86F6500B4FF7BFA010E9C
:1003B0000A017B177B510801F96FFA6BF10EFB6F95
:1003C000FF0EFC6FB3EC93F0000E0601E16F010E1F
:1003D0002EEC9CF0E1C6F3F8E2C6F4F8000E08013A
:1003E000F66F150EF56F5D0EF76FFC0EF86FB3EC40
:1003F00093F0000E0601E16F020E2EEC9CF0E1C6B8
:10040000F3F8E2C6F4F8000E0801F66F150EF56F6A
:10041000A30EF76FFE0EF86FB3EC93F0000E06011B
:10042000E16F030E2EEC9CF0E1C6F3F8E2C6F4F89F
:10043000000E0801F66F150EF56F5E0EF76FFE0EDB
:10044000F86FA30EF96FFF0EFA6FB3EC93F0010E85
:100450000601E16F000E2EEC9CF0E1C6F3F8E2C657
:10046000F4F8000E0801F66F150EF56F750EF76FB4
:10047000FE0EF86FB3EC93F0010E0601E16F010E72
:100480002EEC9CF0E1C6F3F8E2C6F4F8000E080189
:10049000F66F150EF56FE80EF76FFE0EF86FF10EA2
:1004A000F96FFF0EFA6FB3EC93F0010E0601E16FE6
:1004B000020E2EEC9CF0E1C6F3F8E2C6F4F8000E52
:1004C0000801F66F150EF56FBA0EF76FFE0EF86F96
:1004D000B3EC93F0010E0601E16F030E2EEC9CF0DD
:1004E000E1C6F3F8E2C6F4F8000E0801F66F150E47
:1004F000F56F5E0EF76FFE0EF86FA30EF96FFF0E2D
:10050000FA6FB3EC93F0030E0601E16F000E2EECD0
:100510009CF0E1C6F3F8E2C6F4F8000E0801F66FAD
:10052000150EF56F160EF76FFF0EF86FF10EF96FDF
:10053000FF0EFA6FB3EC93F0030E0601E16F010EAC
:100540002EEC9CF0E1C6F3F8E2C6F4F8000E0801C8
:10055000F66F150EF56FE80EF76FFE0EF86FF10EE1
:10056000F96FFF0EFA6FB3EC93F0030E0601E16F23
:10057000020E2EEC9CF0E1C6F3F8E2C6F4F8000E91
:100580000801F66F150EF56FD10EF76FFE0EF86FBE
:10059000B3EC93F0030E0601E16F030E2EEC9CF01A
:1005A000E1C6F3F8E2C6F4F8000E0801F66F150E86
:1005B000F56F5E0EF76FFE0EF86FA30EF96FFF0E6C
:1005C000FA6FB3EC93F0020E0601E16F000E2EEC11
:1005D0009CF0E1C6F3F8E2C6F4F8000E0801F66FED
:1005E000150EF56F8C0EF76FFE0EF86FB3EC93F0EF
:1005F000020E0601E16F010E2EEC9CF0E1C6F3F84D
:10060000E2C6F4F8000E0801F66F150EF56FE80E5D
:10061000F76FFE0EF86FF10EF96FFF0EFA6FB3EC85
:1006200093F0020E0601E16F020E2EEC9CF0E1C683
:10063000F3F8E2C6F4F8000E0801F66F150EF56F38
:10064000FF0EF76FFE0EF86FB3EC93F0020E06018B
:10065000E16F030E2EEC9CF0E1C6F3F8E2C6F4F86D
:10066000000E0801F66F150EF56F5E0EF76FFE0EA9
:10067000F86FA30EF96FFF0EFA6FB3EC93F047EC2F
:10068000A3F0B80EE66E0B0EE66EBCECA0F0F40E16
:10069000E66E010EE66E050EE66E17ECA0F0B80EE3
:1006A000E66E0B0EE66E020EE66E17ECA0F0DC0EA8
:1006B000E66E050EE66E070EE66E17ECA0F0B80EBD
:1006C000E66E0B0EE66E040EE66E17ECA0F0100E52
:1006D000E66E270EE66E060EE66E17ECA0F0B80E7C
:1006E000E66E0B0EE66E030EE66E17ECA0F0010E42
:1006F000E66E000EE66E010EE66E17ECA0F043D03B
:10070000000E0CECA2F0000E0601E16F000E2EECC4
:100710009CF0E1C681FAE2C682FA0A0120EE15F0E9
:100720008151D9268251DA22DF6A000E0601E56F77
:10073000030E7BEC96F00A017B6F20EE13F08151E3
:10074000D9268251DA227BCADFF41DD0000E610067
:10075000A1F302F6B80EE66E0B0EE66EBCECA0F04E
:1007600012D025EE02F2DF500A017B6F7C6B7C51C8
:10077000000AD8A4EBD77B51000AD8B46ED5010A81
:10078000D8B4BED7E3D7010EE66E9AECA1F00150C3
:10079000D8B45BD1EDECA0F0650020FEE4F6650076
:1007A00024FEE5F6AEECA1F0D5ECA0F0000EE66E6E
:1007B000E66EE66E000EE66E000EE66E000EE66E6B
:1007C000000EE66EBBEC97F06100B9F88CF76100A3
:1007D000BDF88DF76100C1F88EF76100C5F88FF79D
:1007E000D6ECA1F0010EE66E000EE66E010EE66E8E
:1007F00017ECA0F0010E07018027000E8123822351
:1008000083235BECA4F0000E37ECA3F027ECA4F0FC
:100810000009D8B4FBD727ECA4F00009D8B406D05F
:100820007AECA2F0E1C600F7E2C601F75BECA4F0B7
:10083000010E37ECA3F027ECA4F00009D8B4FBD7E5
:1008400027ECA4F00009D8B40ED07AECA2F0610035
:1008500085FBFBF7610089FBFCF76500ECFF02F705
:100860006500F0FF03F75BECA4F0020E37ECA3F099
:1008700027ECA4F00009D8B4FBD727ECA4F00009BA
:10088000D8B40ED07AECA2F0610085FBFDF76100D0
:1008900089FBFEF76500F4FF04F76500F8FF05F734
:1008A0005BECA4F0040E37ECA3F027ECA4F00009F5
:1008B000D8B4FBD727ECA4F00009D8B406D07AEC62
:1008C000A2F0E1C608F7E2C609F75BECA4F0050E5A
:1008D00037ECA3F027ECA4F00009D8B4FBD727EC41
:1008E000A4F00009D8B406D07AECA2F0E1C60AF769
:1008F000E2C60BF75BECA4F0160E37ECA3F027EC86
:10090000A4F00009D8B4FBD727ECA4F00009D8B4B0
:1009100006D07AECA2F0E1C62CF7E2C62DF75BEC2C
:10092000A4F0170E37ECA3F027ECA4F00009D8B41C
:10093000FBD727ECA4F00009D8B406D07AECA2F0DB
:10094000E1C62EF7E2C62FF75BECA4F01D0E37ECE4
:10095000A3F027ECA4F00009D8B4FBD727ECA4F04F
:100960000009D8B406D07AECA2F0E1C63AF7E2C6A4
:100970003BF75BECA4F03B0E37ECA3F027ECA4F0C4
:100980000009D8B4FBD727ECA4F00009D8B406D0EE
:100990007AECA2F0E1C676F7E2C677F75BECA4F05A
:1009A0003C0E37ECA3F027ECA4F00009D8B4FBD739
:1009B00027ECA4F00009D8B406D07AECA2F0E1C686
:1009C00078F7E2C679F75BECA4F03D0E37ECA3F0C4
:1009D00027ECA4F00009D8B4FBD727ECA4F0000959
:1009E000D8B406D07AECA2F0E1C67AF7E2C67BF77B
:1009F0005BECA4F03E0E37ECA3F027ECA4F000096A
:100A0000D8B4FBD727ECA4F00009D8B406D07AEC10
:100A1000A2F0E1C67CF7E2C67DF75BECA4F03F0EE6
:100A200037ECA3F027ECA4F00009D8B4FBD727ECEF
:100A3000A4F00009D8B406D07AECA2F0E1C67EF7A3
:100A4000E2C67FF76500D4FE7DF0050EE66E9AECF7
:100A5000A1F00150D8B44ED0F40EE66E010EE66E51
:100A6000050EE66E17ECA0F0040EE66E9AECA1F00F
:100A70000150D8B403D0000E0CECA2F07CEC90F046
:100A800025EEECF3DFC47BFA010EDF26460E0A01E9
:100A90007B652BD00501C6513EECA2F025EEECF3B0
:100AA000DF500A017B6F7C6B25EEEEF3DF507D6F2C
:100AB0007E6B660E7D27000E7E237B517D5D7E5111
:100AC000800A7F6F7C51800A7F59D8B013D005010E
:100AD000C62BC651030B030AD8A402D0010EC66F61
:100AE000000E6100A1F3ECF705D025EEEBF3DF502B
:100AF0003EECA2F025EEF7F3DF50D8B414D0030E8D
:100B0000E66E9AECA1F00150D8B40AD0000E610054
:100B1000A1F3F7F725EEEBF3DF503EECA2F003D0A4
:100B2000030E3EECA2F025EEF2F3DF50D8B42AEF2C
:100B300081F0060EE66E9AECA1F00150D8B42AEFCF
:100B400081F0100EE66E270EE66E060EE66E17ECCE
:100B5000A0F0B80EE66E0B0EE66E030EE66E17EC16
:100B6000A0F0010E6100A1F3F7F7000E33EC91F055
:100B70002AEF81F0000E0801E56F000EE46FFCC75C
:100B8000D9F4FDC7DAF4DEC4F6F4DDC4F7F4000EE0
:100B9000F86E0800F550250AD8A48CD2FCC7D9F409
:100BA000FDC7DAF4DE2A000EDD22000E06017A6FA0
:100BB000000E796F79C689F67B697C69FCC7D9F428
:100BC000FDC7DAF4DEC4F6F4DDC4F7F4000EF86E07
:100BD0000800F550630AD8A42AD0FCC7D9F4FDC791
:100BE000DAF4DE2A000EDD22FEC7D9F4FFC7DAF4FC
:100BF000DFC4EBF6020EDE26DFC4ECF6000EDD22CB
:100C0000EBC6D9F4ECC6DAF4DF500801EC6FECC89F
:100C1000E1F60601E26BFAC7E3F6FBC7E4F6CBECBC
:100C200096F0000E0701FB6F010EFA6F1200FCC771
:100C3000D9F4FDC7DAF4DEC4E6F8DDC4E7F8E6C8A7
:100C4000F6F4E7C8F7F4000EF86E0800F550640AF1
:100C5000D8B40BD0E6C8F6F4E7C8F7F4000EF86E87
:100C60000800F550690AD8A491D0FEC7D9F4FFC78F
:100C7000DAF4DFC4EBF6020EDE26DFC4ECF6000E7B
:100C8000DD22EBC6D9F4ECC6DAF4DEC4E8F8DDC444
:100C9000E9F8010E0801E6250601EB6F000E0801D8
:100CA000E7210601EC6FFCC7D9F4FDC7DAF4EBC607
:100CB000DEF4ECC6DDF4200E0801EC6FE9AF02D0E3
:100CC000010E01D0000EE36FEC07DA0EEC25D96EB1
:100CD000DA6A070EDA22E8C8E1F6E9C8E2F6000EA1
:100CE0000601E46F0A0EE36F6EEC9AF0E1C6E7F6D8
:100CF000E2C6E8F6C2ECA1F0E751300FDF6EE8C8BB
:100D0000E1F6E9C8E2F6000EE46F0A0EE36F79EC53
:100D100099F0E1C6E8F8E2C6E9F80801E44BE52BF2
:100D2000E851E911D8B403D0EC51D8A4CDD7EC5197
:100D3000D8B423D0E351D8B420D0EC07DA0EEC2598
:100D4000D96EDA6A070EDA222D0EDF6EE44BE52B40
:100D500014D0DA0EEC25D96EDA6A070EDA22DF50EB
:100D60000601EB6FEB51E16FE26BFAC7E3F6FBC7ED
:100D7000E4F6CBEC96F00801EC2B200EEC19D8A48D
:100D8000E8D7E4C8FAF7E5C8FBF71200E6C8F6F4BE
:100D9000E7C8F7F4000EF86E0800F550780AD8B4EA
:100DA0000BD0E6C8F6F4E7C8F7F4000EF86E0800BA
:100DB000F550750AD8A4C1D0FEC7D9F4FFC7DAF43C
:100DC000DFC4EBF6020EDE26DFC4ECF6000EDD22F9
:100DD000EBC6D9F4ECC6DAF4DEC4E8F8DDC4E9F811
:100DE000010E0801E6250601EB6F000E0801E72160
:100DF0000601EC6FFCC7D9F4FDC7DAF4EBC6DEF4EC
:100E0000ECC6DDF48CD0200E0801EC6FEC07DA0E96
:100E1000EC25D96EDA6A070EDA22E8C8E1F6E9C8ED
:100E2000E2F6000E0601E46F0A0EE36F7CEC9DF023
:100E3000E151300FDF6EE8C8E1F6E9C8E2F6000ED6
:100E4000E46F0A0EE36F58EC9CF0E1C6E8F8E2C6E6
:100E5000E9F80801E44BE52BE851E911D8B418D0C2
:100E6000EC51D8B415D0D2D7DA0EEC25D96EDA6AA7
:100E7000070EDA22DF500601EB6FEB51E16FE26BF8
:100E8000FAC7E3F6FBC7E4F6CBEC96F00801EC2BCF
:100E9000200EEC19D8B475D7E7D7200E0801EC6FF7
:100EA000E8510F0BE26F0A0EE26102D0300E01D062
:100EB000570EE227EC07DA0EEC25D96EDA6A070E38
:100EC000DA22E2C8DFF4E83BE93B0F0EE817E9510C
:100ED000F00BE8130F0EE917E44BE52BE851E9118D
:100EE000D8B418D0EC51D8B415D0DAD7DA0EEC2536
:100EF000D96EDA6A070EDA22DF500601EB6FEB518A
:100F0000E16FE26BFAC7E3F6FBC7E4F6CBEC96F0D1
:100F10000801EC2B200EEC19D8B433D7E7D7E6C87C
:100F2000F6F4E7C8F7F4000EF86E0800F550750AFD
:100F3000D8B469D70D0AD8B4B0D70801E36BFCC7A1
:100F4000D9F4FDC7DAF4DEC4F6F4DDC4F7F4000E1C
:100F5000F86E0800F550730AD8A40BD0FCC7D9F47A
:100F6000FDC7DAF4DE2A000EDD22010E0801E36F70
:100F700045D0FCC7D9F4FDC7DAF4DEC4F6F4DDC40D
:100F8000F7F4000EF86E0800F5506C0AD8A436D0BD
:100F9000FCC7D9F4FDC7DAF4DEC4EBF6DDC4ECF629
:100FA000010E0601EB27000EEC23EBC6F6F4ECC6AF
:100FB000F7F4000EF86E0800F5506C0AD8A41ED0A5
:100FC000FCC7D9F4FDC7DAF4DEC4EBF6DDC4ECF6F9
:100FD000020EEB27000EEC23EBC6F6F4ECC6F7F49A
:100FE000000EF86E0800F550730AD8A407D0030E5F
:100FF000FCC7D9F4FDC7DAF4DE26B5D70801E35102
:10100000D8B44BD0FEC7D9F4FFC7DAF4DFC4EBF68F
:10101000020EDE26DFC4ECF6000EDD22EBC6D9F4AC
:10102000ECC6DAF4DEC4E0F8DDC4E1F821D0E0C8B3
:10103000F6F4E1C8F7F4000EF86E3F0EF76403D043
:101040000800F55005D0F6C4E9F4F7C4EAF4EF500F
:101050000601EB6FEB51E16FE26BFAC7E3F6FBC7FA
:10106000E4F6CBEC96F00801E44BE52BE04BE12BEA
:10107000E0C8F6F4E1C8F7F4000EF86E3F0EF7642E
:1010800003D00800F55005D0F6C4E9F4F7C4EAF43B
:10109000EF500009D8B475D6CAD7FCC7D9F4FDC73C
:1010A000DAF4DE2A000EDD22000E0701FB6F000ECF
:1010B000FA6F1200FCC7D9F4FDC7DAF4DEC4F6F407
:1010C000DDC4F7F4000EF86E0800F5500601E16F7C
:1010D000E26BFAC7E3F6FBC7E4F6CBEC96F0FCC78D
:1010E000D9F4FDC7DAF4DE2A000EDD229AD54C5081
:1010F000D8B440D2000EE66E000EE66EC00EE66E6C
:10110000FB0EE66EB1EC8FF001C529F502C52AF59C
:1011100003C52BF504C52CF5000E29140601E46F58
:10112000000E2A14E56F000E2B14E66F3E0E2C14F1
:10113000E76FE451E511E611E711D8B40DD0DDEC0D
:101140009DF01669176918691969010E1E27000EAE
:101150001F23202321230ED2000EE66E000EE66E22
:10116000F40EE66EFB0EE66EB1EC8FF001C529F5CC
:1011700002C52AF503C52BF504C52CF5000E29146C
:101180000601E46F000E2A14E56F000E2B14E66FC3
:101190003E0E2C14E76FE451E511E611E711D8B4C7
:1011A00008D0010E1E27000E1F2320232123FE0E30
:1011B00094D1000EE66E000EE66EF00EE66EFB0EAB
:1011C000E66EB1EC8FF001C529F502C52AF503C51D
:1011D0002BF504C52CF5000E29140601E46F000E52
:1011E0002A14E56F000E2B14E66F3E0E2C14E76FE9
:1011F000E451E511E611E711D8B408D0010E1E271D
:10120000000E1F2320232123FD0E67D1000EE66E62
:10121000000EE66EEC0EE66EFB0EE66EB1EC8FF0A5
:1012200001C529F502C52AF503C52BF504C52CF522
:10123000000E29140601E46F000E2A14E56F000E5B
:101240002B14E66F3E0E2C14E76FE451E511E61106
:10125000E711D8B408D0010E1E27000E1F2320234B
:101260002123FC0E3AD1000EE66E000EE66EE80E6B
:10127000E66EFB0EE66EB1EC8FF001C529F502C5F6
:101280002AF503C52BF504C52CF5000E291406011B
:10129000E46F000E2A14E56F000E2B14E66F3E0E6D
:1012A0002C14E76FE451E511E611E711D8B408D02A
:1012B000010E1E27000E1F2320232123FB0E0DD11C
:1012C000000EE66E000EE66EDC0EE66EFB0EE66EBF
:1012D000B1EC8FF001C529F502C52AF503C52BF540
:1012E00004C52CF5000E29140601E46F000E2A1423
:1012F000E56F000E2B14E66F3E0E2C14E76FE451E1
:10130000E511E611E711D8B408D0010E1E27000E32
:101310001F2320232123FA0EE0D0000EE66E000EDC
:10132000E66ED80EE66EFB0EE66EB1EC8FF001C5F0
:1013300029F502C52AF503C52BF504C52CF5000EC9
:1013400029140601E46F000E2A14E56F000E2B1419
:10135000E66F3E0E2C14E76FE451E511E611E7113C
:10136000D8B408D0010E1E27000E1F2320232123EE
:10137000F90EB3D0000EE66E000EE66ED40EE66EE9
:10138000FB0EE66EB1EC8FF001C529F502C52AF51A
:1013900003C52BF504C52CF5000E29140601E46FD6
:1013A000000E2A14E56F000E2B14E66F3E0E2C146F
:1013B000E76FE451E511E611E711D8B408D0010E4A
:1013C0001E27000E1F2320232123F80E86D0000E97
:1013D000E66E000EE66ED00EE66EFB0EE66EB1EC2B
:1013E0008FF001C529F502C52AF503C52BF504C503
:1013F0002CF5000E29140601E46F000E2A14E56F87
:10140000000E2B14E66F3E0E2C14E76FE451E5112D
:10141000E611E711D8B408D0010E1E27000E1F23D5
:1014200020232123F70E59D0000EE66E000EE66E43
:10143000CC0EE66EFB0EE66EB1EC8FF001C529F521
:1014400002C52AF503C52BF504C52CF5000E291499
:101450000601E46F000E2A14E56F000E2B14E66FF0
:101460003E0E2C14E76FE451E511E611E711D8B4F4
:1014700008D0010E1E27000E1F2320232123F60E65
:101480002CD0000EE66E000EE66EE40EE66EFB0E4D
:10149000E66EB1EC8FF001C529F502C52AF503C54A
:1014A0002BF504C52CF5000E29140601E46F000E7F
:1014B0002A14E56F000E2B14E66F3E0E2C14E76F16
:1014C000E451E511E611E711D8B40ED0010E1E2744
:1014D000000E1F2320232123F50E166FFF0E176F1A
:1014E000FF0E186FFF0E45D0020EE66E000EE66E80
:1014F000E00EE66EFB0EE66EB1EC8FF001C529F54D
:1015000002C52AF503C52BF504C52CF52CAC03D078
:10151000F40E060116D0000EE66E000EE66EC40E46
:10152000E66EFB0EE66EB1EC8FF001C522F602C549
:1015300023F603C524F604C525F6060125AD09D01A
:10154000F30E166FFF0E176FFF0E186FFF0E196F59
:10155000FCD5120EE16F450EE26F010EE36FD3EC86
:10156000A3F04C6A000E166F000E176F000E186F76
:10157000000E196FBF824C50D8A402D0010E120089
:10158000000E1200670E05016D6F000197A508D0CF
:10159000010E0701A027000EA123A223A323BF82CF
:1015A000000194B70BD00501C0A508D0010E0701BA
:1015B000C427000EC523C623C723BF828DC0BFF535
:1015C0009D0E0601B225D96EDA6A060EDA22BFC573
:1015D000DFF4B751D8B44ED0030EB219D8A441D01D
:1015E0009EC662F50501636B646B656B610089F5EE
:1015F00088F761008DF589F7610091F58AF7610040
:1016000095F58BF706019F510501636F626B62C50B
:1016100064F563C565F5000E65BFFF0E666F676F05
:10162000000E6415686FFF0E6515696F000E661574
:101630006A6F000E67156B6F25EE88F36851DE2622
:101640006951DE226A51DE226B51DE22BF6B060138
:10165000B76BB26B010E0701A427000EA523A623CA
:10166000A723010E0701B427000EB523B623B72325
:101670000501BF6B0601B951D8B421D0030EB219D0
:10168000D8A414D09E510501626F636B610089F587
:10169000B5F761008DF5B6F70601B96BB26B010EB7
:1016A0000701A427000EA523A623A723010E0701E7
:1016B000B427000EB523B623B7230501BF6B06017F
:1016C000B851D8B43ED0040EB219D8A41FD0B2512C
:1016D000080DF3C462F5650030FE63F50501622B69
:1016E00002D0D8906333622FFCD70501635100010B
:1016F0008E6F0601B86BB26B010E0701A427000EB6
:10170000A523A623A7230501BF6B1BD0010E07014C
:10171000B427000EB523B623B7230601B251080D36
:10172000F3C462F5650030FE63F50501622B02D05B
:10173000D8906333622FFCD70501635100018E6F8F
:10174000E2D70601BA51D8B44ED0030EB219D8A4CC
:1017500020D00501BC51020D000EF324D96E070EF6
:10176000F420DA6EDEC462F5DDC463F563C562F5AC
:10177000636B625100018E6F0601BA6BB26B010E92
:101780000701A427000EA523A623A7230501BF6BED
:101790002AD0010E0701B427000EB523B623B723C4
:1017A0000601B205D8A40BD00501BC51020D000EF4
:1017B000F324D96E070EF420DA6EDF5011D0050144
:1017C000BC51020D000EF324D96E070EF420DA6E20
:1017D000DEC462F5DDC463F563C562F5636B625117
:1017E00000018E6FD3D70601B22B080EB26509D067
:1017F000B26B010E0701A827000EA923AA23AB2371
:10180000BF820501BF51F00B6F6F0601B951D8A41B
:10181000E3D0B851D8A4E0D0B751D8A4DDD0B951A5
:10182000D8A4DAD0900E05016F19D8A419D0C09FA2
:10183000C095010E07018427000E85238623872388
:10184000010E0601B26F010EB96F010E0701B42738
:10185000000EB523B623B7230501C08956ECA4F0CA
:10186000800E6F19D8A447D0C09FC095010E070104
:101870008027000E8123822383230501BF510F0B94
:10188000BC6F050EBC652ED013D0160E0DD0170EF2
:101890000BD01D0E09D03B0E07D03C0E05D03D0EDF
:1018A00003D03E0E01D03F0EBC6F1CD0BC6B1AD0D3
:1018B000BC51060AD8B4E9D7010AD8B4E8D70F0A50
:1018C000D8B4E7D7010AD8B4E6D7030AD8B4E5D725
:1018D000010AD8B4E4D7070AD8B4E3D7010AD8B4C8
:1018E000E2D7E4D7010E0601B26F010EBA6F05010F
:1018F000C08956ECA4F0F00E6F19D8A411D0C09F87
:10190000C085010E07018827000E89238A238B23B7
:101910000601B26B010EB86F0501C08956ECA4F048
:10192000A00E6F19D8A41BD0C09FC085010E07015F
:101930008827000E89238A238B23BFC5BCF5010E9F
:101940000601B26F010EB76F010E0701B427000E3A
:10195000B523B623B7230501C08956ECA4F035ECB6
:10196000A4F00009D8B408D0BF926BECA0F06E6F61
:101970006EC59EF66D8DC087B00E6F19D8A40BD0C2
:10198000BF510F0B6C6FC095010E07019827000E19
:1019900099239A239B23E00E05016F19D8A415D033
:1019A0002EECA4F00009D8B409D0BFC562F50F0E23
:1019B00062176239F00B6C11A2ECA0F06DC5ADF6A8
:1019C0000501C097C08956ECA4F0100E6F19D8A479
:1019D00003D0C0956EC5ADF6010E0701AC27000E11
:1019E000AD23AE23AF23BF92120000000000000021
:1019F00000000000000000000000000000000000E7
:101A000000000000000000000000000000000000D6
:101A100000000000000000000000000000000000C6
:101A200000000000000000000000000000000000B6
:101A300000000000000000000000000000000000A6
:101A40000000000000000000000000000000000096
:101A50000000000000000000000000000000000086
:101A60000000000000000000000000000000000076
:101A70000000000000000000000000000000000066
:101A80000000000000000000000000000000000056
:101A90000000000000000000000000000000000046
:101AA0000000000000000000000000000000000036
:101AB0000000000000000000000000000000000026
:101AC0000000000000000000000000000000000016
:101AD0000000000000000000000000000000000006
:101AE00000000000000000000000000000000000F6
:101AF00000000000000000000000000000000000E6
:101B000000000000000000000000000000000000D5
:101B100000000000000000000000000000000000C5
:101B200000000000000000000000000000000000B5
:101B300000000000000000000000000000000000A5
:101B40000000000000000000000000000000000095
:101B50000000000000000000000000000000000085
:101B60000000000000000000000000000000000075
:101B70000000000000000000000000000000000065
:101B80000000000A0A14000000000000000000002D
:101B90000000000000000000000000000000000045
:101BA0000000000000000000000000000000000035
:101BB0000000000000000000000000000000000025
:101BC0000000000000000000000000000000000114
:101BD0000001000200000000000001000000000001
:101BE0000001000000000000000000004F4F000056
:101BF000000000000000434D443A204D2C204320BB
:101C00002020202020202020202000000000000094
:101C10000000000000004D6573736167652C204370
:101C20006C6F736520202020202000000000000041
:101C300000000000000054657874204D65737361E6
:101C4000676520746F20486F737400000000000007
:101C5000000000000000434D443A20522C20502C3C
:101C6000204F202020202020202000000000000005
:101C700000000000000052656164792C2050756DF1
:101C8000702C204F70656E202020000000000000A6
:101C90000000000000004C6F6164204C6F636B20FB
:101CA000636F6D6D616E64732020000000000000A2
:101CB000000000000000434D443A204C2C20532CDF
:101CC00020442020202020202020000000000000B0
:101CD0000000000000004C6F672C20536571756593
:101CE0006E63652C2044656275670000000000008B
:101CF00000000000000020202020202020202020A4
:101D00002020202020202020202000000000000093
:101D1000000000000000434D443A20452C20482C90
:101D2000204620202020202020200000000000004D
:101D30000000000000004572726F72732C2048652D
:101D40006C702C20467265652020000000000000A9
:101D5000000000000000453A2054657374202046BE
:101D60003A205370656564202020000000000000C8
:101D70000000000000000601EE6F0601EE51030BAB
:101D8000EE6FEE510701FA6FFB6B000EFA03F3C41E
:101D9000FCF7F4C4FDF7FB03F350FD27020EFA0332
:101DA000F350FD27140EFC25D96E0E0EFD21DA6EC0
:101DB000DF6A0601EE510701FA6FFB6B000EFA03B2
:101DC000F3C4FCF7F4C4FDF7FB03F350FD27020E48
:101DD000FA03F350FD27940EFC25D96E0E0EFD215B
:101DE000DA6EDF6A0601EE510701FA6FFB6B000E37
:101DF000FA03F3C4FCF7F4C4FDF7FB03F350FD272B
:101E0000020EFA03F350FD27140EFC25D96E0F0EB7
:101E1000FD21DA6EDF6A0601EE510701FA6FFB6BF6
:101E2000000EFA03F3C4FCF7F4C4FDF7FB03F35010
:101E3000FD27020EFA03F350FD27940EFC25D96E00
:101E40000F0EFD21DA6EDF6A19EC95F0000E060127
:101E5000E96FEE510701FA6FFB6B000EFA03F3C452
:101E6000FCF7F4C4FDF7FB03F350FD27020EFA0361
:101E7000F350FD27FF0EFC250601EA6F0D0E07014A
:101E8000FD210601EB6F000EDAEC9AF019EC95F0EB
:101E9000000E0601E96FEE510701FA6FFB6B000EB1
:101EA000FA03F3C4FCF7F4C4FDF7FB03F350FD277A
:101EB000020EFA03F350FD277F0EFC250601EA6FA0
:101EC0000E0E0701FD210601EB6F010EDAEC9AF010
:101ED00019EC95F0000E0601E96FEE510701FA6F5B
:101EE000FB6B000EFA03F3C4FCF7F4C4FDF7FB032D
:101EF000F350FD27020EFA03F350FD27FF0EFC25D9
:101F00000601EA6F0E0E0701FD210601EB6F020EBE
:101F1000DAEC9AF019EC95F0000E0601E96FEE513B
:101F20000701FA6FFB6B000EFA03F3C4FCF7F4C46D
:101F3000FDF7FB03F350FD27020EFA03F350FD27D4
:101F40007F0EFC250601EA6F0F0E0701FD21060139
:101F5000EB6F030EDAEC9AF025EEFFF1DF50030B86
:101F60001200040EE66EFD0EE3C4E6F4E3C4E6F4EC
:101F70002BEC94F0A0C5D9F4A1C5DAF4DF50216EA2
:101F8000226A236A246A20EE01F0A051D926A151C9
:101F9000DA22DF500C6E0B6A0BC505F50CC506F591
:101FA000000E06BEFF0E076E086E000E0514096EC9
:101FB000FF0E06140A6E000E07140B6E000E0814B6
:101FC0000C6E095021260A5022220B5023220C505D
:101FD000242220EE02F0A051D926A151DA22DF50AE
:101FE0000C6E0CC505F5066A076A086A06C508F591
:101FF00005C507F5066A056A000E0514096E000E90
:1020000006140A6EFF0E07140B6E000E08140C6EF9
:10201000095021260A5022220B5023220C50242240
:1020200020EE03F0A051D926A151DA22DF500C6E28
:102030000CC505F5066A076A086A05C508F5076A4A
:10204000066A056A000E0514096E000E06140A6E73
:10205000000E07140B6EFF0E08140C6E095021269B
:102060000A5022220B5023220C50242206018A6B94
:1020700024AA13D0010E8B6F010E8A6F010E1A274E
:10208000000E1B231C231D23BF82040EE66EC00E10
:10209000E66EFB0EE66E2BEC94F024AC12D0010E33
:1020A00006018A6F010E1E27000E1F232023212305
:1020B000BF82040EE66EC00EE66EFB0EE66E2BECE3
:1020C00094F0FC0EE3C401F5FD0EE3500110D8B40A
:1020D00006D0010EE66E000EE66EBCECA0F021C547
:1020E00001F522C502F523C503F524C504F5E55223
:1020F000E552E552E55212006500ECFFE1F665009D
:10210000F0FFE2F6D0EC9BF0E96F6100A5FB03F86D
:102110006500F4FFE1F66500F8FFE2F6D0EC9BF015
:10212000E96F6100A5FB04F825EEFBF3DEC4E9F6D8
:10213000DDC4EAF6400EE925E16FF70EEA21E26F11
:10214000000EE46F3C0EE36F79EC99F0610085FBC3
:10215000FFF7610089FB00F825EEFFF3010EDBBEFF
:102160001FD0010EDB5003E1DE04D8A019D025EE0C
:10217000FBF3DEC4E9F6DDC4EAF6400EE925E16FC3
:10218000F70EEA21E26F000EE46F230EE36F79ECA5
:1021900099F0610085FBFFF7610089FB00F813D01F
:1021A00025EEFFF3010EDBAE0ED0E80EDE5CFF0E77
:1021B000DE58D8B008D0000E6100A1F3FFF7000E82
:1021C0006100A1F300F825EEFDF3DEC4E9F6DDC4FD
:1021D000EAF6400EE925E16FF70EEA21E26F000E04
:1021E000E46F3C0EE36F79EC99F0610085FB01F838
:1021F000610089FB02F826EE01F0010EDBBE1FD064
:10220000010EDB5003E1DE04D8A019D025EEFDF36A
:10221000DEC4E9F6DDC4EAF6400EE925E16FF70E0B
:10222000EA21E26F000EE46F230EE36F79EC99F080
:10223000610085FB01F8610089FB02F8120026EEBF
:1022400001F0010EDBAE1200E80EDE5CFF0EDE5880
:10225000D8B01200000E6100A1F301F8000E610079
:10226000A1F302F812000A017A6F25EEF2F3DF50B3
:10227000D8B41200030E0601E16F000E2EEC9CF0A4
:10228000E1C6F3F8E2C6F4F8000E0801F66F150E89
:10229000F56FBC0EF76FFC0EF86F6500D0FFFFF90D
:1022A000010E0901FF250801F96FFA6B000EFA23F0
:1022B000B3EC93F00A017A51D8B41AD0030E060198
:1022C000E16F030E2EEC9CF0E1C6F3F8E2C6F4F8E1
:1022D000000E0801F66F150EF56F440EF76FFF0E36
:1022E000F86F000EF96F000EFA6FB3EC93F022D086
:1022F000030E0601E16F030E2EEC9CF0E1C6F3F82D
:10230000E2C6F4F8000E0801F66F150EF56F5F0EC9
:10231000F76FFE0EF86F6500D0FFFFF90901FF515E
:10232000600D4D0EF3240801F96F180EF420FA6FBA
:10233000B3EC93F0030E0601E16F020E2EEC9CF05D
:10234000E1C6F3F8E2C6F4F8000E0801F66F150EC8
:10235000F56F6F0EF76FFF0EF86F6500D0FFFFF996
:102360000901FF51600D2D0EF3240801F96F180EBD
:10237000F420FA6FB3EC93F0030E0601E16F010E47
:102380002EEC9CF0E1C6F3F8E2C6F4F8000E08016A
:10239000F66F150EF56F6F0EF76FFF0EF86F650095
:1023A000D0FFFFF90901FF51600D0D0EF324080164
:1023B000F96F180EF420FA6FB3EC93F0010E610080
:1023C000A1F3F4F71200C00E05019E6F080E9F6F77
:1023D000800EA06F080EA16F000E0601E16F0A0EBD
:1023E000E26F000EE46F200EE36F000EE66F690EE1
:1023F000E56F05ECA1F00A0EE16F490EE26F010EE8
:10240000E36F04ECA4F0260EE16F490EE26F010EBB
:10241000E36F0BECA4F0020E6BECA2F00A0E0601C7
:10242000E16F430EE26F010EE36FEFECA3F07E0E5F
:10243000E16F460EE26F010EE36FF6ECA3F05C0E67
:10244000E16F460EE26F010EE36FFDECA3F0030EA9
:102450005CECA2F00A0E0601E16F430EE26F010E82
:10246000E36FDAECA3F07E0EE16F460EE26F010E31
:10247000E36FE1ECA3F05C0EE16F460EE26F010E3C
:10248000E36FE8ECA3F0030E4DECA2F04D50D8B48E
:102490000BD0C00E0601E16F270EE26F090EE36F4D
:1024A000000EE46F87ECA0F000018A93E86BFC9FBC
:1024B000849F020E866F848F3F0EFD17FD9BFD519A
:1024C000F90B0209FD6FE70EFD17FD819EC5F9F0BE
:1024D0009FC5FAF0FB6BFC9BFC8F8A83530E24ECA8
:1024E000A3F0050E37EC9DF0520E24ECA3F0230E62
:1024F00037EC9DF0410E24ECA3F0510E24ECA3F038
:10250000DC0E0601E16F050EE26F000EE36F000EB8
:10251000E46F87ECA0F04CECA4F047ECA4F04D6A1B
:102520001200EA0EF66E190EF76E010EF86E05EE49
:1025300001F220EE8CF30900F5C4EEF4DD50D95021
:10254000FAE1DA50F8E17A0EF66E3B0EF76E010E04
:10255000F86E01EE9DF220EE3FF00900F5C4EEF4B6
:10256000DD50D950FAE13A0EF66E490EF76E010EC3
:10257000F86E0900F5C4C6F5140EF66E490EF76E36
:10258000010EF86E0900F5C44CF50900F5C44DF5CF
:1025900003EEFFF122EE02F0EE6ADD50D950FCE1CD
:1025A000DA50FAE103EE00F120EEFFF0EE6ADD50C2
:1025B000D950FCE1DA50FAE103EE00F020EEFFF032
:1025C000EE6ADD50D950FCE1DA50FAE102EE00F398
:1025D00020EEFFF0EE6ADD50D950FCE1DA50FAE16E
:1025E00002EE00F2690EEE6AE806FDE102EE00F18D
:1025F00020EEFFF0EE6ADD50D950FCE1DA50FAE14E
:1026000002EE00F0E00EEE6AE806FDE101EE00F3F6
:10261000FA0EEE6AE806FDE101EE00F29D0EEE6AAA
:10262000E806FDE101EE9AF12C0EEE6AE806FDE106
:1026300001EE21F1180EEE6AE806FDE10401080E34
:102640005D6F000E5E6F000E5F6F000100EF80F0A7
:10265000FE0EE124D96EFF0EE220DA6EDEC40BF529
:10266000DDC40CF50B50056E0C50066E076A086A47
:10267000E150FC0FD96EE250DA6EFF0EDA220550FF
:10268000DE1A0650DE1A0750DE1A0850DE1AFD0E5A
:10269000E124D96EFF0EE220DA6EDEC40AF5DEC454
:1026A0000BF5DEC40CF50A50056E0B50066E0C508F
:1026B000076E086AE150FC0FD96EE250DA6EFF0E29
:1026C000DA220550DE1A0650DE1A0750DE1A0850CC
:1026D000DE1AFC0EE3C409F5FD0EE3C40AF5FE0E96
:1026E000E3C40BF5FF0EE3C40CF5050E05D0D8903E
:1026F0000C320B320A320932E82EF9D7E150FC0FC6
:10270000D96EE250DA6EFF0EDA220950DE1A0A5054
:10271000DE1A0B50DE1A0C50DE1AE150FC0FD96E97
:10272000E250DA6EFF0EDA220F0EDE16000EDE1613
:10273000DE16DE16FC0EE3C40CF5960E096E690E6D
:102740000A6E0C2A03D00A340A3209320C2EFBD747
:1027500009A003D0016A012A01D0016AE552E552BD
:10276000E552E5521200800EF65DD8A006D0000EAC
:1027700006017E6F4B0E7D6F1200F90E0A016D6F20
:10278000080E6E6FF3C86FFAF4C870FA0801F651BC
:1027900004E1020EF55DD8A00DD0FF0EF5250A016B
:1027A000786FFF0E0801F6210A01796F000E726F33
:1027B000000E08D0000E0A01796F010E786F000E2E
:1027C000726F010E716F6F0E0801ED6F0A0EEE6FE2
:1027D000F7C8EFF8F8C8F0F86D0EF16F0A0EF26F57
:1027E0003FEC9BF0EDC86BFAEEC86CFA0801F551AE
:1027F000F611D8B412000A016CBF1200FF0E0801D6
:10280000F525FD6FFF0EF621FE6FFD510A016B5D90
:102810006C51800A0801FF6FFE51800AFF59D8A051
:102820000AD0FF0EF5250A01696FFF0E0801F62197
:102830000A016A6F04D06BCA69FA6CCA6AFA0A01A3
:1028400069510801F325D96E0A016A510801F42182
:10285000DA6EDF6A120019EC95F0C292010E0501E2
:10286000AA27000EAB23AC23AD23FD0EE350E66E8A
:10287000000EE66EFC0EE3C4E6F4E3C4E6F49EC587
:10288000E6F49FC5E6F4A2EC94F09EC5D9F49FC58A
:10289000DAF4DF50E66EDEECA2F00150A0C5D9F408
:1028A000A1C5DAF4DF6E050120EE01F0A051D926B2
:1028B000A151DA2200EE01F09E51E9269F51EA2251
:1028C000EF50E66EDEECA2F00150DF6E050120EE67
:1028D00002F0A051D926A151DA2200EE02F09E5159
:1028E000E9269F51EA22EF50E66EDEECA2F001509D
:1028F000DF6E050120EE03F0A051D926A151DA22A6
:1029000000EE03F09E51E9269F51EA22EF50E66E59
:10291000DEECA2F00150DF6E05019A999A999A991E
:102920009A999A999A999A999A999A999A999A990F
:102930009A999A999A999A999A99C282E552E552E6
:10294000E5521200050EE126000EE222F70EE3C466
:102950000BF5F80EE3C40CF5FC0E0CC5E3F4FB0E0E
:102960000BC5E3F4F90EE3C40BF5FA0EE3C40CF562
:10297000FE0E0CC5E3F4FD0E0BC5E3F43ED0FB0EDA
:10298000E3C4F6F4FC0EE3C4F7F4000EF86E3F0E59
:10299000F76403D00800F55005D0F6C4E9F4F7C495
:1029A000EAF4EF500C6EFF0E0CC5E3F4FB0EE3509F
:1029B000010F016EFB0E01C5E3F4016AFC0EE3504A
:1029C0000120016EFC0E01C5E3F4FD0EE3C4D9F451
:1029D000FE0EE3C4DAF4FF0EE3C4DFF4FD0EE350B1
:1029E000010F016EFD0E01C5E3F4016AFE0EE35016
:1029F0000120016EFE0E01C5E3F4F50EE3C401F5FE
:102A0000010E015EF50E01C5E3F4F60EE3C401F517
:102A1000000E015AF60E01C5E3F4F50EE328AFE10E
:102A2000F60EE328D8A4ABD7F50EE126FF0EE2227E
:102A30001200E652E652E652E652FC0EE36AFD0E42
:102A4000E36AFE0EE36AFF0EE36A1ED0E150FC0F5C
:102A5000D96EE250DA6EFF0EDA22DFC409F5DE2A03
:102A6000DEC40AF5DEC40BF5DDC40CF5DD52000E44
:102A7000DE22DE22DF220C500B1034E1100E095C46
:102A8000270E0A58D8B02ED005019AB7DFD7FC0E12
:102A9000E36AFD0EE36AFE0EE36AFF0EE36A1ED0F0
:102AA000E150FC0FD96EE250DA6EFF0EDA22DFC47D
:102AB00009F5DE2ADEC40AF5DEC40BF5DDC40CF52B
:102AC000DD52000EDE22DE22DF220C500B100AE166
:102AD000100E095C270E0A58D8B004D0000187AB4D
:102AE000DFD7BF96E552E552E552E5521200070ED8
:102AF000C26EDA0EC16EBE6A110EBF6E060EC06ED9
:102B0000CA6AC668E00EC76ED10EC86E270EC96EBF
:102B1000200E0401186FC00E106F800E086F206B1E
:102B200000690F0E196F040E216F710E096F016B92
:102B3000110E116F226B026B010E0A6F126B1A6B72
:102B400003690B6913691B69070E236F04690C691C
:102B500014691C690F0E246F0F9D0E8D0D9D1A0EAA
:102B60000601E16F490EE26F010EE36FD3ECA3F0B3
:102B70009E8E180E0201746F130E6A6F190E6F6F1E
:102B80000D0E6E6F310E146F200E126F350E0D6F1D
:102B9000320E166F100E726F230E1F6F1A0E6D6FAE
:102BA000140E6B6F120019EC95F005019A89C29012
:102BB000010EAA27000EAB23AC23AD239A89060190
:102BC000E351E66E000EE66EE1C6E6F4E2C6E6F418
:102BD0009EC5E6F49FC5E6F4A2EC94F09EC5D9F438
:102BE0009FC5DAF4DF50E66EDEECA2F00150A0C51E
:102BF000D9F4A1C5DAF4DF6E050120EE01F0A05191
:102C0000D926A151DA2200EE01F09E51E9269F510A
:102C1000EA22EF50E66EDEECA2F00150DF6E050115
:102C200020EE02F0A051D926A151DA2200EE02F0E6
:102C30009E51E9269F51EA22EF50E66EDEECA2F0AB
:0E2C40000150DF6E05019A999A99C280120028
:102C5000D8C480F5FAC481F5FBC482F5F6C483F5C7
:102C6000F7C484F5F8C485F5F5C486F501C587F584
:102C700002C588F503C589F504C58AF505C58BF538
:102C800006C58CF507C58DF508C58EF509C58FF508
:102C90000AC590F50BC591F50CC592F51BEE2FF109
:102CA00004010FBD46ECA1F092C50CF591C50BF5E2
:102CB00090C50AF58FC509F58EC508F58DC507F5D0
:102CC0008CC506F58BC505F58AC504F589C503F5E0
:102CD00088C502F587C501F586C5F5F485C5F8F404
:102CE00084C5F7F483C5F6F482C5FBF481C5FAF414
:102CF00080C5D8F41100EA6F050E0601EA6501D01F
:102D0000EA6BE551D8B407D0100EEA25D96EDA6A1D
:102D1000060EDA22DF6AEA51140D440EF324E66F40
:102D2000FB0EF420E76F100EEA25D96EDA6A060E64
:102D3000DA22DF50E86FE851E627000EE723E6C607
:102D4000F6F4E7C6F7F4000EF86E0800F5C4E9F6ED
:102D5000EA51140D440EF324E16FFB0EF420E26FF0
:102D6000CDEC9CF0100EEA25D96EDA6A060EDA2256
:102D7000DF2ADF50E66FE76BE151E65DE251E7598C
:102D8000D8A007D0100EEA25D96EDA6A060EDA222C
:102D9000DF6AE9511200E351E411D8B404D0E351E1
:102DA000E411D8A404D0E1518CECA4F0120020EE80
:102DB00009F0E351D926E451DA22DE50DE10D8B40E
:102DC00016D020EE09F0E351D926E451DA2200EEC4
:102DD00002F0E351E926E451EA22DE50EE5CEE50C7
:102DE000800AE96FDE50800AE959D8B0120020EE5F
:102DF00002F0E351D926E451DA22DEC4E5F6DDC45F
:102E0000E6F6E3C6D9F4E4C6DAF4DEC4E7F6DDC4D8
:102E1000E8F6E551E725D96EE651E821DA6EE1C61C
:102E2000DFF420EE02F0E351D926E451DA22DE2A63
:102E3000000EDD221200000E3524D96EDA6A090E6A
:102E4000DA22DF6A0201B2A715D0000E3524D96E4E
:102E5000DA6A090EDA220901DF8201D80BD00500F7
:102E6000FA6E06016251FD6E6351FE6E6451FF6E93
:102E7000FA5012000201B2A315D0000E3524D96E0B
:102E8000DA6A090EDA220901DF8401D80BD00500C5
:102E9000FA6E06015F51FD6E6051FE6E6151FF6E6C
:102EA000FA501200000E3524D96EDA6A090EDA22C1
:102EB000DF50D8B40DD001D812000500FA6E06011B
:102EC0005C51FD6E5D51FE6E5E51FF6EFA50120058
:102ED000B6ECA2F01200000E3024D96EDA6A0B0EA6
:102EE000DA22DF6A0201C5A715D0000E3024D96EA0
:102EF000DA6A0B0EDA220B01DF8201D80BD0050053
:102F0000FA6E06015951FD6E5A51FE6E5B51FF6E0D
:102F1000FA5012000201C5A315D0000E3024D96E5C
:102F2000DA6A0B0EDA220B01DF8401D80BD0050020
:102F3000FA6E06015651FD6E5751FE6E5851FF6EE6
:102F4000FA501200000E3024D96EDA6A0B0EDA2223
:102F5000DF50D8B40DD001D812000500FA6E06017A
:102F60005351FD6E5451FE6E5551FF6EFA501200D2
:102F7000A7ECA2F01200000EE66E000EE66EC80E80
:102F8000E66EFB0EE66EB1EC8FF001C525F502C5CD
:102F900026F503C527F504C528F528A816D025C5AC
:102FA000E6F426C5E6F427C5E6F428C5E6F428ECE1
:102FB00093F00150D8B409D0010E06018C6F010EB8
:102FC0002627000E27232823292325C509F526C5F2
:102FD0000AF527C50BF528C50CF5D8900C320B3235
:102FE0000A320932FF0E091406012E6FFF0E0A1471
:102FF0002F6FFF0E0B14306F000E0C14316F010E8B
:103000002A27000E2B232C232D23F90EE126FF0E59
:10301000E2221200A690D60E0601E16F2E0EE26F9C
:10302000010EE36F6AECA3F0A692E00EE16F420E90
:10303000E26F010EE36F63ECA3F00201B86BB96BB2
:10304000BA6BBB6BBC6BBD6BB00EBE6F800EBF6F3F
:10305000C06B820EC16F060EC26FC36BC46BC56BB3
:10306000C66B240E0601E16F490EE26F010EE36F9D
:1030700078ECA3F0220EE16F490EE26F010EE36FD0
:1030800071ECA3F0040EE16F490EE26F010EE36FE5
:103090007FECA3F00501C16BC46B326A400E316E48
:1030A000306AC36BC26BA6801200A290360E060176
:1030B000E16F2E0EE26F010EE36F8DECA3F0A29292
:1030C000B60EE16F420EE26F010EE36F86ECA3F0E5
:1030D0000201A56BA66BA76BA86BA96BAA6BB00EC0
:1030E000AB6F800EAC6FAD6B820EAE6F060EAF6F26
:1030F000B06BB16BB26BB36B200E0601E16F490E82
:10310000E26F010EE36F9BECA3F01E0EE16F490E20
:10311000E26F010EE36F94ECA3F0FE0EE16F480E38
:10312000E26F010EE36FA2ECA3F00501C56B386AF4
:10313000376A400E366E356A346A336AA2801200EE
:10314000A690D60E0601E16F2E0EE26F010EE36F20
:103150006AECA3F0A692E00EE16F420EE26F010E60
:10316000E36F63ECA3F00201B86BB96BBA6BBB6B96
:10317000BC6BBD6BB00EBE6F800EBF6FC06B8A0E96
:10318000C16FC26BC36BC46BC56BC66B240E0601EB
:10319000E16F490EE26F010EE36F78ECA3F0220EAF
:1031A000E16F490EE26F010EE36F71ECA3F0040EC4
:1031B000E16F490EE26F010EE36F7FECA3F00501B2
:1031C000C16BC46B326A400E316E306AC36BC26B26
:1031D000A6801200A290360E0601E16F2E0EE26F5D
:1031E000010EE36F8DECA3F0A292B60EE16F420EDA
:1031F000E26F010EE36F86ECA3F00201A56BA66BF4
:10320000A76BA86BA96BAA6BB00EAB6F800EAC6FEF
:10321000AD6B8A0EAE6FAF6BB06BB16BB26BB36B55
:10322000200E0601E16F490EE26F010EE36F9BEC89
:10323000A3F01E0EE16F490EE26F010EE36F94ECF6
:10324000A3F0FE0EE16F480EE26F010EE36FA2ECF9
:10325000A3F00501C56B386A376A400E366E356AD1
:10326000346A336AA28012000301F96B170EFA6FF9
:10327000D86BFB6BD96BDA6BDB6BDC6BDF6BE06BFA
:10328000E36BE46BE56BE66BE76BEA6BEB6BEC6BAC
:10329000140EEE6FEF6B1F0EF06FF16BF26BF36BB2
:1032A000010EF46F100EF56FF66BF76B020EF86FF0
:1032B000FC6BAF94AF96B0902A0E0601E16F490EF9
:1032C000E26F010EE36F20ECA4F02E0EE16F490EC9
:1032D000E26F010EE36F12ECA4F02C0EE16F490EC9
:1032E000E26F010EE36F19ECA4F0840E0301F36F9B
:1032F0001200E66BE4AF06D0E36DE41FD8B0E42B18
:10330000010EE66FE2AF06D0E16DE21FD8B0E22B0E
:10331000010EE61B000EE86F000EE76FE351E411AB
:10332000D8B41CD0010EE56F04D0D890E337E43751
:10333000E52BE4AFFAD7D890E737E837E351E15D02
:10334000E451E259D8A005D0E351E15FE451E25BDA
:10335000E781D890E433E333E52FEDD7E651D8B4D5
:1033600004D0E76DE81FD8B0E82BE7C6E1F6E8C661
:10337000E2F61200020E0001E86F800EF96F000EF7
:10338000FA6F000EFB6F080EF16FA00EF06FFD6B71
:10339000000EF86F010EF76F000EEF6F030EEE6F69
:1033A000FF6BFE6BB89AB898B89EB89CA88A360E88
:1033B0000601E16F490EE26F010EE36FE8ECA3F046
:1033C000A888360EE16F490EE26F010EE36FDAEC6A
:1033D000A3F0A89EA88C360EE16F490EE26F010E95
:1033E000E36FE1ECA3F0800E0001FC6F1200010E10
:1033F000E86F800EF96F000EFA6F000EFB6F080E7B
:10340000F16F800EF06F400EFD6F000EF86F010E31
:10341000F76F000EEF6F080EEE6FFF6BFE6BB49A46
:10342000B498B49EB49CA48A380E0601E16F490E8C
:10343000E26F010EE36FFDECA3F0A488380EE16F9C
:10344000490EE26F010EE36FEFECA3F0A49EA48C93
:10345000380EE16F490EE26F010EE36FF6ECA3F058
:10346000800E0001FC6F1200E86BC00E0601E46FD5
:10347000080EE56FE4C6F9F0E5C6FAF00001FB6B53
:10348000000EF16F810EF06F020EFD6F000EF86FEF
:10349000010EF76F000EEF6F010EEE6F190EFF6F4A
:1034A000FE6BB09AB098B09EB09CA09AA088280EEF
:1034B0000601E16F490EE26F010EE36F04ECA4F028
:1034C000A09EA08C280EE16F490EE26F010EE36F03
:1034D0000BECA4F0C00E0001FC6F1200E66BE2AF33
:1034E00006D0E16DE21FD8B0E22B010EE66FE4AF2B
:1034F00004D0E36DE41FD8B0E42BE351E411D8B459
:1035000018D0010EE56F04D0D890E337E437E52BEF
:10351000E4AFFAD7E351E15DE451E259D8A004D019
:10352000E351E15FE451E25BD890E433E333E52F0C
:10353000F1D7E651D8B404D0E16DE21FD8B0E22B48
:10354000E1C6E1F6E2C6E2F61200E5C6E1F6E6C63D
:10355000E2F6CDEC9CF0E151E76F19EC95F067ECE9
:10356000A4F0C196140E0601E76502D0140EE76FB1
:10357000E751E66E000EE66EE5C6E6F4E6C6E6F452
:103580009EC5E6F49FC5E6F4A2EC94F00001E86B5A
:10359000FC9FE7C6E1F60601E26B55ECA3F0000ED6
:1035A0000601E26F010EE16F5CECA3F0FC8F6AECA8
:1035B000A4F01200EC6F0501B651D8A4120009D096
:1035C000400E03D0140E01D0540EED6F11D0ED6BF0
:1035D0000FD00601EC51000AD8B4F9D7010AD8B4CB
:1035E000EFD7030AD8B4EED7010AD8B4EDD7EFD796
:1035F000ED51E9250EEC9BF0900E0601E16F010EF6
:10360000E26F000EE36F000EE46F87ECA0F0EAC6F5
:10361000E5F6EBC6E6F6A5EC9AF01200E36F19ECBE
:1036200095F067ECA4F0C1969EC5D9F49FC5DAF475
:10363000FE0EDF6E20EE01F09E51D9269F51DA2258
:10364000450EDF6E20EE02F09E51D9269F51DA2200
:10365000E3C6DFF40001E86BFC9F000E0601E26F99
:10366000030EE16F55ECA3F0000E0601E26F010EB0
:10367000E16F5CECA3F0FC8F6AECA4F01200EFC8E1
:10368000EDF6F0C8EEF6000E0601786F000E776FCB
:1036900017D0EDC8FAF7EEC8FBF7ED0E0701FC6F87
:1036A000060EFD6FF1C8FEF7F2C8FFF7BAEC85F021
:1036B0000701FA51060177270701FB51060178231C
:1036C000EDC6F6F4EEC6F7F4000EF86E0800F550FD
:1036D0000009D8A4DED777C6EDF878C6EEF8120058
:1036E000C18E010E0601E16FFC0EE26F030EE36F67
:1036F000D3EC95F09A0E0601E16F060EE26F030E11
:10370000E36FD3EC95F0FE0E0601E16FFB0EE26F66
:10371000030EE36FD3EC95F0FB0E0601E16FFB0E99
:10372000E26F030EE36FD3EC95F0F80E0601E16F44
:10373000FB0EE26F030EE36FD3EC95F0010E120067
:10374000D68A000ED6BE010E0601E16FD69E550E3A
:103750000401596FAA0E596F59915F6B5E6B080E89
:103760005D6F550E596FAA0E596F59810601E1B16F
:1037700002D0D69E01D0D68E0301688B6889688DF1
:10378000678567816489648D6C8B6C896C8D6A83B5
:103790006A81629F66836681658F71976A9912005C
:1037A000440E0601E36F8E0EE15D080EE259D8B0BB
:1037B00008D08F0EE15D080EE259D8A002D04F0E5E
:1037C000E36F250EE15D090EE259D8A008D04A0E3C
:1037D000E15D0B0EE259D8B002D0530EE36F940EA8
:1037E000E15D070EE259D8B008D09E0EE15D030EF0
:1037F000E259D8A002D04D0EE36FE351120006014A
:10380000E4690001919F840E0601E16F150EE26FDD
:10381000010EE36FC5ECA3F064ECA4F0780E060192
:10382000E16F480EE26F010EE36FB7ECA3F0320ECA
:10383000E16F460EE26F010EE36FCCECA3F002D015
:103840008DC0E4F6000194A7FBD7E4C69FF69497D9
:103850009383918F000E42ECA4F01200ED6FEDC641
:10386000E4F6030E0601E417E451800DF3C4E5F617
:10387000F4C4E6F6E151030BE76FE86B000EE703D3
:10388000F3C4E9F6F4C4EAF6E803F350EA27020EBB
:10389000E703F350EA27FF0EE925EB6F0D0EEA214F
:1038A000EC6FE551EB25E16FE651EC21E26F120080
:1038B000000EE76F000EE66FE351E411D8B41CD0A0
:1038C000010EE56F04D0D890E337E437E52BE4AF81
:1038D000FAD7D890E637E737E351E15DE451E25992
:1038E000D8A005D0E351E15FE451E25BE681D890D6
:1038F000E433E333E52FEDD7E6C6E1F6E7C6E2F6BB
:023900001200B3
:10390400D8C4DEF6FAC4DFF6FBC4E0F61BEE2FF1F2
:10391400B69887C6DCF688C6DDF698ECA2F00601F8
:10392400854B862B865104E1320E855DD8A007D0E5
:103934001DECA2F0000E0601866F000E856FE0C636
:10394400FBF4DFC6FAF4DEC6D8F41100A0EC9BF059
:103954000EECA3F034EC99F077EC95F0F6ECA2F0D1
:10396400F7EC99F034EC9AF0EAECA2F09DEC9DF0BF
:103974001BECA1F0BAEC99F051ECA4F0F1EC9CF042
:1039840055EC98F00AEC98F0D1ECA2F033ECA0F0EE
:10399400BEECA3F01200E1C6E3F6E2C6E4F603D0FF
:1039A4000601E14BE22BE1C6F6F4E2C6F7F4000EA1
:1039B400F86E3F0EF76403D00800F55005D0F6C446
:1039C400E9F4F7C4EAF4EF500009D8A4E9D70601F2
:1039D400E351E15DE16FE451E259E26F120003014A
:1039E400376B386B010E396F630E356FC00E346F51
:1039F400B698345135C3E4F60601E56BE4C6E5F642
:103A0400E46BE411876FE551886FA6881C0EE16FA3
:103A1400490EE26F010EE36FB0ECA3F0310E030127
:103A2400366F1200000ED6BE010EE46F380E000190
:103A3400456FE2C644F0E1C643F0E3C646F04151A7
:103A4400F80B0309416FD69E550E426FAA0E426FC2
:103A5400408140B1FED70601E4B102D0D69E01D028
:103A6400D68EF80E0001411712000601E36F19EC1F
:103A740095F067ECA4F0C1969EC5D9F49FC5DAF41D
:103A8400E3C6DFF40001E86BFC9F000E0601E26F61
:103A9400010EE16F55ECA3F0000E0601E26F010E7A
:0E3AA400E16F5CECA3F0FC8F6AECA4F0120062
:103AB400FAC472F5FBC473F518EE5EF3B19E2EC51D
:103AC40019F32DC518F30601445145114611D8B414
:103AD4000CD001D80AD00500FA6E4451FD6E455150
:103AE400FE6E4651FF6EFA50120073C5FBF472C5A8
:103AF400FAF41100E351E411D8B418D0010EE56FC3
:103B040004D0D890E337E437E52BE4AFFAD7E35198
:103B1400E15DE451E259D8A004D0E351E15FE451FE
:103B2400E25BD890E433E333E52FF1D7E1C6E1F665
:103B3400E2C6E2F61200490E1B6F850E196FEE0EF7
:103B4400186F185119C3E4F60601E56BE4C6E5F6EF
:103B5400E46BE4112D6EE5512E6EB19EA18E340EF0
:103B6400E16F490EE26F010EE36FB7ECA3F0900E24
:103B740003011A6F1200570000000000000000004B
:103B840000000000000081000000000000000000B0
:103B940000000000E1FFC1FFE9FFD1FFD9FFC9FF29
:103BA40000060000AFFFA3FFAFFFA3FFAFFFA3FF1B
:053BB400B8FFA3FF04AF
:103BBA00040EE66E000EE66EBC0EE66EFB0EE66EB8
:103BCA00B1EC8FF0040EE66E000EE66EBC0EE66EE9
:103BDA00FB0EE66EB1EC8FF0010E0601166F000EB9
:103BEA00176F000E186F000E196F12000501956B02
:103BFA009551020D000EF324D96E060EF420DA6EEA
:103C0A00DE50DE10D8B40BD09551020D000EF3240D
:103C1A00D96E060EF420DA6EDE06000EDD5A952BFA
:083C2A00070E9565E5D71200B5
:103C3400FAC441F5FBC442F518EE5EF3B0980601F0
:103C44004D514E114F11D8B40CD001D80AD00500F3
:103C5400FA6E4D51FD6E4E51FE6E4F51FF6EFA508D
:103C6400120042C5FBF441C5FAF41100FAC443F54D
:103C7400FBC444F518EE5EF3B09C06014A514B11A7
:103C84004C11D8B40CD001D80AD00500FA6E4A51B0
:103C9400FD6E4B51FE6E4C51FF6EFA50120044C53E
:103CA400FBF443C5FAF41100FAC445F5FBC446F528
:103CB40018EE5EF3AF940601F551F611F711D8B47E
:103CC4000CD001D80AD00500FA6EF551FD6EF651FC
:103CD400FE6EF751FF6EFA50120046C5FBF445C55F
:103CE400FAF41100FAC447F5FBC448F518EE5EF384
:103CF400AF960601EF51F011F111D8B40CD001D8F0
:103D04000AD00500FA6EEF51FD6EF051FE6EF151CE
:103D1400FF6EFA50120048C5FBF447C5FAF41100CF
:103D2400FAC449F5FBC44AF518EE5EF3B0900601F7
:103D3400F251F311F411D8B40CD001D80AD0050013
:103D4400FA6EF251FD6EF351FE6EF451FF6EFA50AD
:103D540012004AC5FBF449C5FAF41100FAC474F51B
:103D6400FBC475F518EE5EF3B49806014151421197
:103D74004311D8B40CD001D80AD00500FA6E4151D1
:103D8400FD6E4251FE6E4351FF6EFA50120075C52E
:103D9400FBF474C5FAF41100FAC476F5FBC477F5A4
:103DA40018EE5EF3B49A06013E513F114011D8B4A7
:103DB4000CD001D80AD00500FA6E3E51FD6E3F5179
:103DC400FE6E4051FF6EFA50120077C5FBF476C5C3
:103DD400FAF41100FAC478F5FBC479F518EE5EF331
:103DE400B49C06013B513C113D11D8B40CD001D810
:103DF4000AD00500FA6E3B51FD6E3C51FE6E3D51FA
:103E0400FF6EFA50120079C5FBF478C5FAF411007C
:103E1400FAC47AF5FBC47BF518EE5EF3B898060194
:103E2400385139113A11D8B40CD001D80AD0050050
:103E3400FA6E3851FD6E3951FE6E3A51FF6EFA50EA
:103E440012007BC5FBF47AC5FAF41100FAC47CF5C0
:103E5400FBC47DF518EE5EF3B89A060135513611B0
:103E64003711D8B40CD001D80AD00500FA6E3551F8
:103E7400FD6E3651FE6E3751FF6EFA5012007DC54D
:103E8400FBF47CC5FAF41100FAC47EF5FBC47FF59B
:103E940018EE5EF3B89C0601325133113411D8B4D4
:103EA4000CD001D80AD00500FA6E3251FD6E3351A0
:103EB400FE6E3451FF6EFA5012007FC5FBF47EC5CE
:103EC400FAF41100FAC439F5FBC43AF518EE5EF3BE
:103ED40006016B516C116D11D8B40CD001D80AD005
:103EE4000500FA6E6B51FD6E6C51FE6E6D51FF6EE6
:0E3EF400FA5012003AC5FBF439C5FAF4110079
:103F0400FAC43BF5FBC43CF518EE5EF306016E51B2
:103F14006F117011D8B40CD001D80AD00500FA6E14
:103F24006E51FD6E6F51FE6E7051FF6EFA501200AD
:0A3F34003CC5FBF43BC5FAF4110094
:103F4000FAC43DF5FBC43EF518EE5EF3060171516F
:103F500072117311D8B40CD001D80AD00500FA6ED2
:103F60007151FD6E7251FE6E7351FF6EFA50120068
:0A3F70003EC5FBF43DC5FAF4110054
:103F7C00FAC43FF5FBC440F518EE5EF3060174512C
:103F8C0075117611D8B40CD001D80AD00500FA6E90
:103F9C007451FD6E7551FE6E7651FF6EFA50120023
:0A3FAC0040C5FBF43FC5FAF4110014
:103FB800FAC460F5FBC461F518EE5EF306016851BA
:103FC80069116A11D8B40CD001D80AD00500FA6E6C
:103FD8006851FD6E6951FE6E6A51FF6EFA5012000B
:0A3FE80061C5FBF460C5FAF4110096
:103FF400FAC470F5FBC471F518EE5EF30601655161
:1040040066116711D8B40CD001D80AD00500FA6E35
:104014006551FD6E6651FE6E6751FF6EFA501200D7
:1040240071C5FBF470C5FAF41100FD0EE3C40BF581
:10403400FE0EE3C40CF5D8900B34096E0C340A6EF2
:10404400FF0EE350020D000EF324D96E060EF42089
:10405400DA6E09C5DEF40AC5DDF4E552E552E5522F
:104064001200916B440E926F070E936F996B966BCF
:10407400C984A384A380300E0601E16F490EE26F68
:10408400010EE36FCCECA3F0320EE16F490EE26F48
:10409400010EE36FC5ECA3F01200BFA402D0010E21
:1040A40001D0000EFF0A0501996F99479947BF5047
:1040B4009919FB0B9919BF6EBF92BF96010E0601A9
:1040C400C76F25EE90F3DE2A000EDE22DE22DE220A
:1040D40012003350D8B4FDD7000E3424D96EDA6AF6
:1040E400090EDA22DF50C56F000E3424D96EDA6A65
:1040F4000C0EDA22DF504B6E342A3428D8B4346ADA
:10410400A2903306A2804B501200000EE56F000E01
:10411400E66F000EE76F000EE86F0400010E060163
:10412400E527000EE623E723E823E551E15DE651A8
:10413400E259E751E359E851E459D8A01200EDD708
:104144004B6E3650D8B4FDD7A2B203D04BC5A3F200
:104154000FD0A292400E3824D96EDA6A080EDA2201
:104164004BC5DFF4382A3F0E386401D0386A36066E
:10417400A2821200FE0EE3C4E6F4E3C4E6F4000EE9
:10418400E66E17ECA0F005D000000000000000006F
:104194000400000EE66E9AECA1F00150D8B4F4D7F6
:1041A400E552E552120019EC95F0C280C282C18634
:1041B40000018785849F030E846F859B858D858F81
:1041C400859985938591030E866F8C6B070E896F95
:1041D400848F8795120019EC95F0C280C282C18643
:1041E40000018785849F030E846F859B858D858F51
:1041F400859985938591030E866F8C6B070E896F65
:10420400848F87951200E1C6E7F6E2C6E8F608D087
:10421400E7C6D9F4E8C6DAF4E3C6DFF4E74BE82BE3
:10422400E507D8A0E607E529F3E1E629D8B41200AA
:10423400EFD7010E3E6F3D6B3F6B7F0E3B6F3A6BCA
:10424400BD96AD86F60E0601E16F3B0EE26F010EE0
:10425400E36FA9ECA3F0C30E03013C6F1200D69EDA
:10426400550EB46FAA0EB46FB491D68E010EBF6F03
:10427400020EB66F070EBE6FD69E550EB46FAA0E11
:10428400B46FB481D68E12000601F851F911FA11F7
:10429400D8B40CD001D80AD00500FA6EF851FD6EDE
:1042A400F951FE6EFA51FF6EFA50120004010F9D8F
:1042B4001200400E366010D0400E3724D96EDA6AF0
:1042C400080EDA22DF500201A36F372A3F0E37644B
:1042D40001D0376A362A1200A2921200400E3160D1
:1042E40010D0000E3224D96EDA6A080EDA22DF50BA
:1042F4000201B66F322A3F0E326401D0326A312A8B
:104304001200A69212002F500501A025D96E000EAE
:10431400A121DA6E80C0DFF42F2A030E2F6401D0AE
:104324002F6A010EAE27000EAF23B023B123120073
:104334000400FF0EE350020D000EF324D96E060EA6
:10434400F420DA6EDE50DE10D8A402D0010E01D0C3
:10435400000E016EE5521200E5C69BF606019C6B49
:10436400E451E76FE66BE6519B13E7519C139A0EF9
:10437400E16F060EE26F030EE36FD3EC95F01200CB
:10438400E8BF05D0E7C6E7F6E8C6E8F61200E7C6D8
:10439400E9F6E8C6EAF6E91FEA1FE94BEA2BE9C6A3
:1043A400E7F6EAC6E8F6120019EC95F0C280C2827C
:1043B4000001849F240E856F020E866F020E8C6F9F
:1043C400040E896F830E846F848F1200D8C496F50F
:1043D400FAC497F5FBC498F51BEE2FF1BD96FAECE1
:1043E400A1F098C5FBF497C5FAF496C5D8F411006A
:1043F4000601505151115211D8B4120001D81200C3
:104404000500FA6E5051FD6E5151FE6E5251FF6E11
:10441400FA5012000601E16F020EE66E9AECA1F06A
:104424000150D8B41200650080FF8EF625EEE0F34B
:10443400E1C6DFF41200475148114911D8B4120003
:1044440001D812000500FA6E4751FD6E4851FE6E08
:104454004951FF6EFA501200FF0E0601E16F0D0E76
:10446400E26F000EE46F000EE36F080EE66F020EBB
:10447400E56F05ECA1F012000601E26FE2C6E1F679
:10448400030E0601E11725EEFFF1DF50E119FC0BE5
:10449400E119DF6E1200E16F550E0001B46FAA0E30
:1044A400B46FB491E1C6B8F0550EB46FAA0EB46FF0
:1044B400B4811200E16F550E0001B46FAA0EB46FFF
:1044C400B491E1C6B7F0550EB46FAA0EB46FB481BF
:1044D4001200E16F550E0001B46FAA0EB46FB491CF
:1044E400E1C6B6F0550EB46FAA0EB46FB4811200D3
:1044F400EB510601E46FE36B0301EA510601E32586
:10450400E16F0301000E0601E421E26F1200000EC8
:10451400E66EE66EE66E000EE66E000EE66E000EC9
:10452400E66E000EE66EBBEC97F01200030136A5B2
:1045340007D03691DDC635F3DCC634F3368112007C
:10454400DDC635F3DCC634F31200000E3024D96E18
:10455400DA6A0D0EDA22B4C2DFF4302A3028D8B475
:10456400306A0501C22B1200000E3524D96EDA6AB6
:104574000C0EDA22A1C2DFF4352A3528D8B4356A04
:10458400332A1200FF0EE125E36FFF0EE221E46FF0
:10459400E3C692F6E4C693F6946B956B1200830E11
:1045A4000001846F240E856F030E866F020E8C6FDC
:1045B400040E896FC8961200010E0001826FFF0E6F
:1045C400E3C481F0B1A0FED780C001F5E55212002A
:1045D400010E0301266F256B276B630E236F226B7D
:1045E400B1968F0E246F1200200E0001AD6FAF6BD9
:1045F400010EB36F080EB16FB06BB2B11200FDD7EC
:10460400380E0001456FE2C644F0E1C643F0F80EEF
:1046140041174081465112000001606B616B626B6F
:10462400636B646B656B666B676B686B1200BF9240
:10463400010E0701C027000EC123C223C3230001BA
:10464400976B12000601E46FFE0E37EC9DF0060135
:10465400E45137EC9DF01200010E0501AA27000E6B
:10466400AB23AC23AD239A9912000601E16FE1C696
:10467400ECF30301F38FF3811200010E0501B2275D
:10468400000EB323B423B523120025EEFFF1DF504F
:10469400030BBBEC8EF012000601E56F0601E55139
:1046A40024ECA3F012000001E86BE1C6F7F0E2C6C7
:1046B400F8F012000001E86BE1C6EEF0E2C6EFF09C
:1046C4001200E1C671F6E2C672F6E3C673F6120092
:1046D400E1C674F6E2C675F6E3C676F61200E1C6E4
:1046E40056F6E2C657F6E3C658F61200E1C659F686
:1046F400E2C65AF6E3C65BF61200E1C653F6E2C61A
:1047040054F6E3C655F61200E1C66BF6E2C66CF643
:10471400E3C66DF61200E1C66EF6E2C66FF6E3C6B6
:1047240070F61200E1C65FF6E2C660F6E3C661F613
:104734001200E1C662F6E2C663F6E3C664F612004E
:10474400E1C65CF6E2C65DF6E3C65EF61200E1C6BB
:1047540050F6E2C651F6E3C652F61200E1C647F639
:10476400E2C648F6E3C649F61200E1C644F6E2C6DC
:1047740045F6E3C646F61200550E0001B46FAA0EC4
:10478400B46FB4811200E1C665F6E2C666F6E3C60C
:1047940067F61200E1C668F6E2C669F6E3C66AF691
:1047A4001200E1C6F8F6E2C6F9F6E3C6FAF612001C
:1047B400E1C638F6E2C639F6E3C63AF61200E1C6B7
:1047C40032F6E2C633F6E3C634F61200E1C635F635
:1047D400E2C636F6E3C637F61200E1C641F6E2C693
:1047E40042F6E3C643F61200E1C63BF6E2C63CF6E7
:1047F400E3C63DF61200E1C63EF6E2C63FF6E3C666
:1048040040F61200E1C64DF6E2C64EF6E3C64FF698
:104814001200E1C64AF6E2C64BF6E3C64CF61200B5
:10482400E1C6F2F6E2C6F3F6E3C6F4F61200E1C618
:10483400EFF6E2C6F0F6E3C6F1F61200E1C6F5F6CD
:10484400E2C6F6F6E3C6F7F612000301F3B102D0AE
:10485400010E1200000E12003650D8B402D0010E20
:104864001200000E12003350D8B402D0010E120010
:10487400000E1200000194AF9451BF92BF96120033
:104884000601E16FE1C6FBF31200010EE86FFC9D27
:10489400FC9B12000001E86BFC9DFC9B1200940E33
:1048A4007F6F400E7D6F12002EC519F32DC518F3CE
:0A48B40012003B0E0301EC6F12002E
:1048C00018EE5EF3BD90110003011A8F120005016E
:1048D0009A8712006DECA4F01200E86BFC8D1200B8
:1048E00088ECA4F0120003013681120079ECA4F0E8
:1048F00012000301248F120018EE5EF31100B6ECD3
:10490000A2F01200A7ECA2F0120005019A97120083
:104910003C8F12000101120012001200120012005E
:1049200012001200120012001200120012001200F7
:0B493000120012001200120012000121
:020000040020DA
:10000000FFFFFFFFFFFFFFFFFFFFFFFFFFFFFFFF00
:10001000FFFFFFFFFFFFFFFFFFFFFFFFFFFFFFFFF0
:10002000FFFFFFFFFFFFFFFFFFFFFFFFFFFFFFFFE0
:10003000FFFFFFFFFFFFFFFFFFFFFFFFFFFFFFFFD0
:020000040030CA
:10000000AFECEFD79FFFFFFFFFFEFFFFFFFFFFFFFC
:10001000FFFFFFFFFFFFFFFFFFFFFFFFFFFFFFFFF0
:03002000FFFFFFE0
:00000001FF
