:0400000085EF00F098
:10000800DA08DA08DA08DA08DA08DA08DA0839077A
:10001800DA08DA08C303D303DA08DA08DA08DA08F0
:10002800E303DA08DA08DA08A303DA08B303DA081C
:10003800DA08DA08DA08DA08F202DA08DA08740301
:1000480080047104DA08DA08DA08DA08DA08DA0863
:10005800427EDA088F04DA087B01DA08DA08DA085F
:10006800DA08DA08DA08DA08F30303041304DA080A
:10007800DA08DA08DA08DA084200DA08DA08DA0808
:10008800DA08DA08DA08DA08E102DA08DA08DA0857
:10009800AD049E04DA08DA084200DA08DA08DA0859
:1000A800DA08DA08DA08DA08230433044304DA0839
:1000B800DA08DA08DA08DA08DA08DA08DA08DA0828
:1000C800DA08DA08DA08DA08DA08DA08DA08DA0818
:1000D800DA08DA08DA08DA08DA08DA08DA08DA0808
:1000E8004200DA08DA08DA08DA08DA08DA08DA0898
:1000F800CB08DA08DA089C07DA08DA08DA08DA0836
:10010800FF001BEE94F356EFD2F09BC5D9F49CC5C3
:10011800DAF49FC5DFF40A0E8E6F9D5135EC0DF0B1
:10012800300F9B07D8A09C079BC5D9F49CC5DAF46F
:10013800DF6E9DC593F5946B966B0A0E956F48EC30
:10014800FDF093519D6F9D51D8B40BD09D51300F48
:100158009B07D8A09C079BC5D9F49CC5DAF4DF6E31
:1001680012009B07D8A09C079BC5D9F49CC5DAF45C
:100178009EC5DFF4120000C041459A99494100002C
:100188000000000096439A99494100000040000091
:100198000000000000000000000000000000000057
:1001A8000000000000000000000000001000000037
:1001B8000000000000000000000000000000000037
:1001C8000000000000000000000000000000011610
:0D01D8000000000000000001000000170002
:1001E60099C58EF59AC58FF535EC05F08E519B6F46
:1001F600C6ECF9F0C2EC11F0C196140E05019B6530
:1002060002D0140E9B6F94C88EF595C88FF599C5CC
:1002160090F59AC591F59BC592F5936BEBEC01F0C1
:100226000001E86BFC9F9BC58EF505018F6B7EEC8C
:1002360010F005018F6B010E8E6F85EC10F0FC8FB0
:10024600C5EC11F012009251931194119511D8B486
:1002560024D0010E966F06D0D890923793379437F4
:100266009537962B95AFF8D792518E5D93518F594E
:100276009451905995519159D8A008D092518E5FBA
:1002860093518F5B9451905B9551915BD8909533C8
:10029600943393339233962FE7D78EC58EF58FC559
:1002A6008FF590C590F591C591F51200D68A000E8E
:1002B600D6BE010E05018E6FD69E550E0401596FEE
:1002C600AA0E596F59915F6B5E6B080E5D6F550EE6
:1002D600596FAA0E596F598105018EB102D0D69E6B
:1002E60001D0D68E0301688B6889688D6785678122
:1002F6006489648D6C8B6C896C8D628F6B836B816A
:1003060066836681658F71876A8967996589120038
:100316008EC594F58FC595F517D09207D8A093078B
:1003260090C5F6F491C5F7F4904B912B000EF86E3C
:1003360094C5D9F495C5DAF4944B952B0800F5C409
:10034600DFF4DF50D8B40CD092519311D8B408D052
:10035600E4D794C5D9F495C5DAF4DF6A944B952BA6
:100366009207D8A093079229F4E19329D8B41200F2
:10037600F0D7966FC6ECF9F0C2EC11F0C19694C8AE
:10038600D9F495C8DAF4FE0EDF6E20EE01F0945132
:10039600D9269551DA22450EDF6E20EE02F09451F1
:1003A600D9269551DA2296C5DFF40001E86BFC9F49
:1003B60005018F6B030E8E6F7EEC10F005018F6BBF
:1003C600010E8E6F85EC10F0FC8FC5EC11F012005B
:1003D60090C596F591C597F58EC594F58FC595F59B
:1003E6001DD096C5F6F497C5F7F4000EF86E3F0ECD
:1003F600F76403D00800F55005D0F6C4E9F4F7C455
:10040600EAF4EF500501986F964B972B94C5D9F4F3
:1004160095C5DAF498C5DFF4944B952B9207D8A0CE
:1004260093079229DEE19329D8B41200DAD70201A4
:10043600B86BB96BBA6BBB6BBC6BBD6BB40EBE6FE6
:10044600800EBF6FC06B820EC16F060EC26FC36B8C
:10045600C46BC56BC66B000E05018E6F000E8F6FE9
:10046600000E906FB6EC10F0000E8E6F000E8F6FC0
:10047600000E906FAFEC10F0000E8E6F000E8F6FB7
:10048600000E906FBDEC10F0F36B120059EC01F00A
:10049600DCEC0FF073ECFBF095ECF2F0D0EC0FF027
:1004A6003FECFEF096ECFFF0C4EC0FF0C8EC06F063
:1004B600CBEC0CF004ECFEF00DEC04F07AEC11F051
:1004C600E6EC03F034EC04F010ECFAF0A0ECFAF0F1
:1004D6001AEC02F09FEC0FF047EC03F009EC0AF07F
:1004E6000AEC11F0120088C68CF689C68DF6466AAB
:1004F600000E456E13D086C666F687C667F68C0E66
:10050600686F060E696F8AC66AF68BC66BF6A3EC31
:10051600A8F0060166514526675146228CC6F6F4B8
:100526008DC6F7F4000EF86E0800F5500009D8A441
:10053600E2D745C586F646C587F61200000E966FC9
:10054600000E976F000E986F000E996F8EA108D05F
:100556009251962793519723945198239551992315
:10056600D8909237933794379537D8909133903304
:100576008F338E338E518F1190119111D8A4E6D7F7
:1005860096C58EF597C58FF598C590F599C591F5E1
:1005960012009A6F9AC591F5030E050191179151B4
:1005A600800DF3C492F5F4C493F58E51030B946F4A
:1005B600956B000E9403F3C496F5F4C497F5950372
:1005C600F3509727020E9403F3509727FA0E9625B9
:1005D600986F1F0E9721996F925198258E6F9351A0
:1005E60099218F6F1200D8C48BF5FAC48CF5FBC421
:1005F6008DF51DEE87F0B398F2C889F5F3C88AF534
:1006060028EC0FF00901665167116811D8B40CD0B7
:1006160001D80AD00500FA6E6651FD6E6751FE6E6E
:100626006851FF6EFA501200E5528DC5FBF48CC579
:10063600FAF48BC5D8F41100936B000E926F9051AB
:100646009111D8B41CD0010E946F04D0D890903775
:100656009137942B91AFFAD7D89092379337905120
:100666008E5D91518F59D8A005D090518E5F9151D2
:100676008F5B9281D89091339033942FEDD792C5AA
:100686008EF593C58FF51200070E0301586F070EFE
:10069600596F5751F30B0809576F566B556B546BCF
:1006A600D50E536FF30E5717566B556B546B536B32
:1006B600526B516B506B4F6B3F0E5F6F5E695D699E
:1006C6005C6B5B6B5A6B616BBD94AD94B69EA69EDC
:1006D600900E576F606B1200BFA402D0010E01D0BE
:1006E600000EFF0A396E39463946BF503918FB0BE2
:1006F6003918BF6EBF92BF962BEE86F1DE2A000E2A
:10070600DE22DE22DE22010E0901876F22EEB1F122
:10071600DFC439F5010EDF26050E3964120082ECBE
:100726000EF00901B16B1200010E0A018F6FC7C2EC
:10073600DFF57F510501DA25D96E0A0180510501E1
:10074600DB21DA6EDFC5DFF4010E0A017F27000E1A
:1007560080238123822382518111801104E1FA0EC4
:100766007F5DD8A01200000E7F6F000E806F000E16
:10077600816F000E826F120099C58EF59AC58FF5AE
:100786009BC590F59CC591F527ECFFF08EC59DF5B0
:100796008FC59EF59B519925D96E9C519A21DA6E8B
:1007A6009EC5DFF49B4B9C2B9B519925D96E9C5182
:1007B6009A21DA6E9DC5DFF49B4B9C2B9BC599F560
:1007C6009CC59AF512000301376B386B010E396F21
:1007D600630E356FC00E346FB698345135C391F53C
:1007E6000501926B91C592F5916B91110801F86F15
:1007F600050192510801F96FA688FC0E05018E6F5E
:10080600230E8F6F000E906FEEEC10F0310E030189
:10081600366F120003012B6B2C6B010E2D6FF00E41
:10082600296F600E286FB398285129C391F50501E9
:10083600926B91C592F5916B91110801F26F0501CA
:1008460092510801F36FA388F00E05018E6F230EF7
:100856008F6F000E906FF5EC10F0330E03012A6FC8
:1008660012001F6B206B050E216F0B0E1D6FDC0E29
:100876001C6FB1981C511DC391F50501926B91C572
:1008860092F5916B91110801F06F050192510801E3
:10089600F16FA188120E05018E6F240E8F6F000E68
:1008A600906FFCEC10F0310E03011E6F12007C0EEF
:1008B6000501996FF70E9A6F040E9B6F7AECFEF0A6
:1008C600926B0A0E916F89EC0DF07C0E996FF70E04
:1008D6009A6F040E9B6F7AECFEF0926B0A0E916F84
:1008E60089EC0DF0000E0B01926F000E936F000E57
:1008F600946F000E956F1200570E0501916F00015F
:10090600919F520E05018E6F730E8F6F010E906FC1
:1009160011EC11F01E0E8E6F200E8F6F000E906F71
:1009260018EC11F002D08DC091F5000194A7FBD709
:1009360091C502FA94979383918F000E86EC11F07D
:10094600120091BF09D08EC58EF58FC58FF590C563
:1009560090F591C591F512008EC592F58FC593F568
:1009660090C594F591C595F5921F931F941F951FF9
:10097600922B000E93239423952392C58EF593C54F
:100986008FF594C590F595C591F5120043E8FD0ED7
:1009960015C5E3F4FE0E17C5E3F4010F18C5E3F41D
:1009A600FE0EE3C41FF5010FE3C420F5D8901F34F3
:1009B6001D6E20341E6EFD0EE350020D740EF324E0
:1009C600D96E0B0EF420DA6E1DC5DEF41EC5DDF4FD
:1009D60043E91200920E9D6F060E9E6F8EC692F62A
:1009E6008FC693F6956B000E946F9C6B000E9B6FF3
:1009F600920E866F060E876F90C688F691C689F6A8
:100A06009D0E8A6F060E8B6F76EC02F094518E2542
:100A1600D96E95518F21DA6EDF6A120062EC10F002
:100A26000009D8B412000901955105019E6F09010C
:100A3600965105019F6F0901954B962B410E0501B5
:100A46009E5D1F0E9F59D8A012009CC599F59DC5A5
:100A56009AF5080E9B6FC7EC0BF00901966B000E1A
:100A6600956F12008EC590F58FC591F503D00501DF
:100A76008E4B8F2B8EC5F6F48FC5F7F4000EF86EED
:100A86003F0EF76403D00800F55005D0F6C4E9F42C
:100A9600F7C4EAF4EF500009D8A4E9D7050190514C
:100AA6008E5D8E6F91518F598F6F1200000ED6BEDC
:100AB600010E916F380E0001456F8FC544F08EC54B
:100AC60043F090C546F04151F80B0309416FD69E9D
:100AD600550E426FAA0E426F408140B1FED7050106
:100AE60091B102D0D69E01D0D68EF80E00014117E4
:100AF6001200000E041B000E051B000E061B800EC6
:100B0600071B00C6BEF501C6BFF502C6C0F503C683
:100B1600C1F504C6C2F505C6C3F506C6C4F507C6C3
:100B2600C5F5DDECD3F0BEC500F6BFC501F6C0C500
:100B360002F6C1C503F612008EC592F58FC593F570
:100B460014D0010E0001826F92C5D9F493C5DAF470
:100B5600DF50816FB1A0FED792C5D9F493C5DAF400
:100B660080C0DFF40501924B932B9007D8A0910724
:0C0B76009029E7E19129D8B41200E3D7E0
:100B8400FAC43BF5FBC43CF51CEE0EF2B698F8C86B
:100B940039F5F9C83AF547EC0FF00801F64BF72B95
:100BA400F75104E1320EF65DD8A006D030EC0EF019
:100BB4000801F76B000EF66FE5523CC5FBF43BC52C
:100BC400FAF41100FAC487F5FBC488F51CEE0EF2A2
:100BD400B198F0C885F5F1C886F565EC0FF0080109
:100BE400EE4BEF2BEF5104E1020EEE5DD8A006D0E0
:100BF4001EEC0EF00801EF6B000EEE6FE55288C597
:100C0400FBF487C5FAF41100A4C58EF5A5C58FF5CC
:100C1400916B0A0E906F27EC06F08EC5A0F58FC578
:100C2400A1F59DEC0DF0A0C5E8F8A1C5E9F8A4C5AF
:100C34008EF5A5C58FF5916B0A0E906F1FEC03F02E
:100C44008EC5EAF88FC5EBF8120090519111D8B413
:100C540018D0010E926F04D0D89090379137922B10
:100C640091AFFAD790518E5D91518F59D8A004D08D
:100C740090518E5F91518F5BD89091339033922F26
:100C8400F1D78EC58EF58FC58FF512000F0E0C01AE
:100C940084154F6E506A030E4F185010D8A405D017
:100CA400010E0901A36F586A0DD0582A5804050192
:100CB4008E6F030E8E6506D00901A36B0701916B3D
:100CC400050E906F010E0701816F12000501926FEE
:100CD40005019251D8B409D0B8CA8EF5B9CA8FF5B6
:100CE400BACA90F5BBCA91F51200ACC8B8FAADC83F
:100CF400B9FAAEC8BAFAAFC8BBFAB8CA8EF5B9CA5F
:100D04008FF5BACA90F5BBCA91F512000501926F2E
:100D140005019251D8B409D0BCCA8EF5BDCA8FF56D
:100D2400BECA90F5BFCA91F51200B0C8BCFAB1C8EA
:100D3400BDFAB2C8BEFAB3C8BFFABCCA8EF5BDCA02
:100D44008FF5BECA90F5BFCA91F512000501966FE2
:100D5400C6ECF9F0C2EC11F0C19694C8D9F495C868
:100D6400DAF496C5DFF40001E86BFC9F05018F6B94
:100D7400010E8E6F7EEC10F005018F6B010E8E6FED
:100D840085EC10F0FC8FC5EC11F012004D0E1B6FBA
:100D94001B0E196F1E0E186F185119C391F505011A
:100DA400926B91C592F5916B9111516E9251526E65
:100DB400B19EA18E080E8E6F240E8F6F000E906F61
:100DC40003EC11F0900E03011A6F1200FAC473F5CC
:100DD400FBC474F51CEE0EF2B19E52C519F351C555
:100DE40018F30801F44BF52BF55104E1040EF45DFE
:100DF400D8A006D00CEC0EF00801F56B000EF46FD1
:100E0400E55274C5FBF473C5FAF411009FC5FEF8EE
:100E14000801FF6B05019E51A16FA06B000EA01588
:100E2400A26FFF0EA115A36FA2510801FE130501C5
:100E3400A3510801FF13FD0E0501996F080E9A6F67
:100E4400030E9B6FB4ECFEF01200C084AA0E0501E1
:100E54008E6F0B0E8F6F030EDA25906F000EDB2161
:100E6400916F936B100E926FEBEC01F00B01B76B6B
:100E7400B8CB8EF5B9CB8FF5FBEC0EF08EC5B8FB75
:100E84008FC5B9FBC0941200FAC435F5FBC436F51E
:100E94001CEE0EF2B0980801C751C811C911D8B49C
:100EA4000CD001D80AD00500FA6EC751FD6EC851A6
:100EB400FE6EC951FF6EFA501200E55236C5FBF4BE
:060EC40035C5FAF411002F
:100ECC00FAC437F5FBC438F51CEE0EF2B09C0801E1
:100EDC00C451C511C611D8B40CD001D80AD0050024
:100EEC00FA6EC451FD6EC551FE6EC651FF6EFA50BE
:0E0EFC001200E55238C5FBF437C5FAF41100B8
:100F0C00FAC43DF5FBC43EF51CEE0EF2AF9408019D
:100F1C00BE51BF11C011D8B40CD001D80AD00500F5
:100F2C00FA6EBE51FD6EBF51FE6EC051FF6EFA508F
:0E0F3C001200E5523EC5FBF43DC5FAF411006B
:100F4C00FAC43FF5FBC440F51CEE0EF2AF96080157
:100F5C00B851B911BA11D8B40CD001D80AD00500C7
:100F6C00FA6EB851FD6EB951FE6EBA51FF6EFA5061
:0E0F7C001200E55240C5FBF43FC5FAF4110027
:100F8C00FAC460F5FBC461F51CEE0EF2B0900801DA
:100F9C00BB51BC11BD11D8B40CD001D80AD005007E
:100FAC00FA6EBB51FD6EBC51FE6EBD51FF6EFA5018
:0E0FBC001200E55261C5FBF460C5FAF41100A5
:100FCC00FAC475F5FBC476F51CEE0EF2B498090163
:100FDC00785179117A11D8B40CD001D80AD0050007
:100FEC00FA6E7851FD6E7951FE6E7A51FF6EFA50A1
:0E0FFC001200E55276C5FBF475C5FAF411003B
:10100C00FAC477F5FBC478F51CEE0EF2B49A09011C
:10101C00755176117711D8B40CD001D80AD00500CF
:10102C00FA6E7551FD6E7651FE6E7751FF6EFA5069
:0E103C001200E55278C5FBF477C5FAF41100F6
:10104C00FAC479F5FBC47AF51CEE0EF2B49C0901D6
:10105C00725173117411D8B40CD001D80AD0050098
:10106C00FA6E7251FD6E7351FE6E7451FF6EFA5032
:0E107C001200E5527AC5FBF479C5FAF41100B2
:10108C00FAC47BF5FBC47CF51CEE0EF2B898090192
:10109C006F5170117111D8B40CD001D80AD0050061
:1010AC00FA6E6F51FD6E7051FE6E7151FF6EFA50FB
:0E10BC001200E5527CC5FBF47BC5FAF411006E
:1010CC00FAC47DF5FBC47EF51CEE0EF2B89A09014C
:1010DC006C516D116E11D8B40CD001D80AD005002A
:1010EC00FA6E6C51FD6E6D51FE6E6E51FF6EFA50C4
:0E10FC001200E5527EC5FBF47DC5FAF411002A
:10110C00FAC47FF5FBC480F51CEE0EF2B89C090105
:10111C0069516A116B11D8B40CD001D80AD00500F2
:10112C00FA6E6951FD6E6A51FE6E6B51FF6EFA508C
:10113C001200E55280C5FBF47FC5FAF41100FC29BE
:10114C00FC270000000000110500800080008000DA
:10115C0057041101200000000000000000000000F6
:10116C0000008080420000000000808042E5612188
:0B117C0040CD0C054300030057194252
:101188005B50D8B4FDD7000E5C24D96EDA6A130E12
:10119800DA22DF500501F46F000E5C24D96EDA6A9A
:1011A800190EDA22DF50056E5C2A5C28D8B45C6A16
:1011B800A2905B06A28005C501F51200FAC423F5CA
:1011C800FBC424F51CEE0EF20801D651D711D81134
:1011D800D8B40CD001D80AD00500FA6ED651FD6EED
:1011E800D751FE6ED851FF6EFA501200E55224C551
:1011F800FBF423C5FAF41100FAC425F5FBC426F55F
:101208001CEE0EF20801D951DA11DB11D8B40CD05A
:1012180001D80AD00500FA6ED951FD6EDA51FE6E7A
:10122800DB51FF6EFA501200E55226C5FBF425C5C6
:10123800FAF41100FAC462F5FBC463F51CEE0EF271
:101248000801D351D411D511D8B40CD001D80AD083
:101258000500FA6ED351FD6ED451FE6ED551FF6E66
:10126800FA501200E55263C5FBF462C5FAF41100A6
:10127800FAC481F5FBC482F51CEE0EF20801DC51BC
:10128800DD11DE11D8B40CD001D80AD00500FA6EF1
:10129800DC51FD6EDD51FE6EDE51FF6EFA5012001C
:1012A800E55282C5FBF481C5FAF41100FAC483F54E
:1012B800FBC484F51CEE0EF20801DF51E011E111C8
:1012C800D8B40CD001D80AD00500FA6EDF51FD6EF3
:1012D800E051FE6EE151FF6EFA501200E55284C5EE
:1012E800FBF483C5FAF411001000000000000000B0
:1012F80000000000000000000000000000000000E6
:1013080000000000001000000000000000000000C5
:1013180000000000000000000000000000000000C5
:1013280000000C01825105018F6F8E6B0C018451F6
:1013380005018E250701706F0C01855105018F216C
:101348000701716F0901A351D8B404D0090E070130
:10135800816F12000B0E0701816F1200C084F70E17
:1013680005018E6F050E8F6F030EDA25906F000E44
:10137800DB21916F936B020E926FEBEC01F0F7C5D6
:101388008EF5F8C58FF5FBEC0EF08EC5F7F58FC519
:10139800F8F5C09412009FC58EF5A0C58FF5A1C5BC
:1013A80090F5A2C591F5A3C592F5A4C593F5EBEC0C
:1013B80001F09FC599F5A0C59AF5A3C59BF5A4C5ED
:1013C8009CF5BFEC03F099C59FF59AC5A0F51200EE
:1013D8008EC593F58FC594F590C595F591C596F58D
:1013E80093C592F594C593F592C594F595C592F574
:1013F80096C595F592C596F593C58EF594C58FF566
:1014080095C590F596C591F512000001916B240ED3
:10141800926F050E936F996B966BC984A384A38012
:10142800040E05018E6F240E8F6F000E906F18EC5E
:1014380011F0060E8E6F240E8F6F000E906F11EC58
:1014480011F01200296A2950020D740EF324D96E86
:101458000B0EF420DA6EDE50DE10D8B40BD0295013
:10146800020D740EF324D96E0B0EF420DA6EDE062C
:10147800000EDD5A292A0C0E2964E5D71200306ABD
:101488003050020D740EF324D96E0B0EF420DA6E70
:10149800DE50DE10D8B40BD03050020D740EF32499
:1014A800D96E0B0EF420DA6EDE06000EDD5A302AF5
:1014B8000C0E3064E5D71200840E05018E6F0F0EF6
:1014C8008F6F620E906FFE0E916F936B200E926F6E
:1014D8008BEC01F0F40E8E6F0F0E8F6FC00E906FB5
:1014E800FF0E916F936B0C0E926F8BEC01F0120054
:1014F800840E05018E6F0F0E8F6F1F0E906FFF0EFB
:10150800916F936B200E926F8BEC01F0F40E8E6F3F
:101518000F0E8F6FB90E906FFF0E916F936B0C0EBD
:10152800926F8BEC01F01200840E05018E6F0F0E86
:101538008F6F5B0E906FFF0E916F936B200E926F03
:101548008BEC01F0F40E8E6F0F0E8F6FD80E906F2C
:10155800FF0E916F936B0C0E926F8BEC01F01200E3
:10156800000E926F000E936F000E946F000E956F31
:1015780000000000010E05019227000E932394231A
:10158800952392518E5D93518F599451905995514D
:101598009159D8A01200ECD705018E6F0501F151C1
:1015A800D8B4FCD7A7B203D08EC5C9F20FD0A79282
:1015B800000EF225D96EDA6A100EDA228EC5DFF433
:1015C800F22B3F0EF26501D0F26BF107A7821200F1
:1015D800EF51D8B4FDD7000EF025D96EDA6A140E93
:1015E800DA22DF50EE6F000EF025D96EDA6A1A0E95
:1015F800DA22DF508E6FF02BF029D8B4F06BA79069
:10160800EF07A7808E51120005019D6B000E9C6F9D
:101618000BD09BC58EF58F6B99C590F59AC591F542
:10162800AEECF7F09C4B9D2B9C519725D96E9D51A4
:101638009821DA6EDF509B6F9B51D8B41200E9D71E
:10164800010E0801AC27000EAD23AE23AF23010E17
:10165800B027000EB123B223B3230501DE2BC70E3A
:10166800DE651200010E0801B427000EB523B6236B
:10167800B7230501DE6B12000501646F0501F55102
:10168800D8B4FCD7A2B203D064C5A3F20FD0A292FB
:10169800400EF625D96EDA6A100EDA2264C5DFF438
:1016A800F62B3F0EF66501D0F66BF507A282120005
:1016B80007018351020DD60EF324D96E090EF420CA
:1016C800DA6E84CCDEF485CCDDF4832B0D01B851C1
:1016D800D8A404D00A0E0701816F1200B86B070E58
:1016E8000701816F1200000ED86F1C0ED96F030E10
:1016F800D8254B6E000ED9214C6E030ED825496EA5
:10170800000ED9214A6E480E8E6F160E8F6F000E8E
:10171800906FF5EC10F0BFEC11F01200986F090112
:10172800A751D8B41200A76BA06B000E9F6F0501DC
:101738009851D8B407D0530EFBEC0FF0020EA8EC6A
:1017480006F01200530EFBEC0FF0080EA8EC06F0A2
:101758001200000E09017E6F1E0E7F6F030E7E259C
:101768000A01F16F000E09017F210A01F26F480E8C
:1017780005018E6F160E8F6F000E906FF5EC10F04E
:10178800BFEC11F012005550D8A41200420E8E6F13
:101798000F0E8F6F99C590F59AC591F5D8909B3526
:1017A800926F936B9337EBEC01F0546A9BC555F538
:1017B800010E0901A46F1200030E4F185010D8B47F
:1017C80008D00901A36B0701916B050E906F816B1F
:1017D800120009018651D8A404D00A0E0701816FAE
:1017E8001200010E0701816F12008EC592F58FC598
:1017F80093F590C5F6F491C5F7F4904B912B000E34
:10180800F86E92C5D9F493C5DAF4924B932B08007D
:10181800F5C4DFF4DF50D8B41200EBD705018E51C0
:101828008F1190119111D8B408D0000E8E1B000EA4
:101838008F1B000E901B800E911B8EC58EF58FC5D9
:101848008FF590C590F591C591F51200C6ECF9F0A9
:10185800C280C282C18600018785849F030E846F7F
:10186800859B859D858F859985938591030E866FC8
:101878008C6B070E896F848F87951200C6ECF9F080
:10188800C280C282C18600018785849F030E846F4F
:10189800859B859D858F859985938591030E866F98
:1018A8008C6B070E896F848F8795120001000000EA
:1018B800010000000100000001000000010000001C
:1018C8000000000000000000000000000000000010
:1018D80000000000000000000000400E0501F56156
:1018E80011D0400E5E24D96EDA6A100EDA22DF506B
:1018F8000201A36F5E2A3F0E5E6401D05E6A050195
:10190800F52B1200A2921200400E0501F16111D0D0
:10191800000E5A24D96EDA6A100EDA22DF5002015C
:10192800C96F5A2A3F0E5A6401D05A6A0501F12B31
:101938001200A7921200E0C59BF59B51D8B40FD0B6
:1019480099C58EF59AC58FF5000E906F0F0E916FA1
:10195800D8909B35926F936B9337EBEC01F0E06B6B
:1019680012008EC594F58FC595F508D094C5D9F4A5
:1019780095C5DAF490C5DFF4944B952B9207D8A05F
:1019880093079229F3E19329D8B41200EFD7010EF7
:101998003E6F3D6B3F6B7F0E3B6F3A6BBD96AD86DE
:1019A8004C0E05018E6F140E8F6F000E906FE7ECD2
:1019B80010F0C30E03013C6F12000C0182510501A7
:1019C800A76FA66B0C0184510501A625A46F0C0115
:1019D80085510501A721A56F06EC06F0050E070144
:1019E800816F12000C0182510501A76FA66B0C01D3
:1019F80084510501A625A46F0C0185510501A72175
:101A0800A56F06EC06F0040E0701816F1200000EA8
:101A1800DA6F1B0EDB6F030EDA254D6E000EDB212D
:101A28004E6E480E8E6F160E8F6F000E906FF5EC8F
:101A380010F0BFEC11F01200000ED66F1D0ED76F1C
:101A4800030ED625476E000ED721486E480E8E6FBE
:101A5800160E8F6F000E906FF5EC10F0BFEC11F0C2
:101A680012008F6F080E0501906F916BD8908F351B
:101A78009135916FD8908F378E51915DD8A002D053
:101A88008E51915F902FF2D791511200D69E550E2C
:101A9800B46FAA0EB46FB491D68E010EBF6F020E4A
:101AA800B66F070EBE6FD69E550EB46FAA0EB46FF2
:101AB800B481D68E12000801CD51CE11CF11D8B401
:101AC8000CD001D80AD00500FA6ECD51FD6ECE516A
:101AD800FE6ECF51FF6EFA50120004010F9D1200E6
:101AE800575008019625D96E000E9721DA6E80C0EE
:101AF800DFF4572A030E576401D0576A010EA42752
:101B0800000EA523A623A7231200000E156E91C56B
:101B180017F592C518F5C9EC04F004D000000000D0
:101B280000000000000EB1EC0DF00009D8A412006E
:101B3800F5D7A1BF05D0A0C5A0F5A1C5A1F5120094
:101B4800A0C5A2F5A1C5A3F5A21FA31FA24BA32B55
:101B5800A2C5A0F5A3C5A1F512000501906F050166
:101B68009051020D740EF324D96E0B0EF420DA6E28
:101B7800DE50DE10D8A402D0010E1200000E1200B2
:101B8800A2FF82FFAAFF92FF9AFF8AFF4F66666C48
:101B9800696E650000000000454D353430000000D6
:101BA800000000008EC579FA8FC57AFA90C577FAD9
:101BB80091C578FA010E0A018327000E8423852334
:101BC8008623754B762B1200C6ECF9F0C280C282D0
:101BD8000001849F240E856F020E866F020E8C6FA3
:101BE800040E896F830E846F848F12000801CA5116
:101BF800CB11CC11D8B4120001D812000500FA6E2E
:101C0800CA51FD6ECB51FE6ECC51FF6EFA501200D8
:101C180009017B517C117D11D8B4120001D8120042
:101C28000500FA6E7B51FD6E7C51FE6E7D51FF6E94
:101C3800FA5012000901635164116511D8B41200F9
:101C480001D812000500FA6E6351FD6E6451FE6EF4
:101C58006551FF6EFA501200C151C211C311D8B4B8
:101C6800120001D812000500FA6EC151FD6EC25172
:101C7800FE6EC351FF6EFA501200000103004000CF
:101C880005000000000000004800000103004000BB
:101C98000400000000000000470023EEC0F001EE41
:101CA8009DF3250EDBC4EBF4E806FCE20701BEA1B8
:101CB800BE81BEB31200BE8312000501916F020EF1
:101CC800B1EC0DF00009D8B412006B0058F77CF79E
:0A1CD8002BEED6F191C5DFF41200E7
:101CE400FAC421F5FBC422F51CEE0EF204010FBD6B
:101CF4005FEC0DF0E55222C5FBF421C5FAF41100A6
:101D04000001919F918F94BF02D094A71200010EFD
:101D140009010C27000E0D230E230F23BF8212008E
:101D240005018F6F8FC58EF5030E05018E1729EE01
:101D3400FAF3DF508E19FC0B8E19DF6E1200840E3D
:101D440005018E6F0F0E8F6F330E906FFF0E916F24
:101D5400936B200E926F8BEC01F01200FA0E0501CA
:101D64008E6F1F0E8F6F916B000E906F080E936F26
:101D7400020E926FB5EC0CF01200A69861003AF6D0
:101D840086FD61003EF687FD610042F688FD610034
:101D940046F689FDA68812008E6F550E0001B46FB9
:101DA400AA0EB46FB4918EC5B8F0550EB46FAA0ED6
:101DB400B46FB48112008E6F550E0001B46FAA0E79
:101DC400B46FB4918EC5B7F0550EB46FAA0EB46F4C
:101DD400B48112008E6F550E0001B46FAA0EB46F59
:101DE400B4918EC5B6F0550EB46FAA0EB46FB4811B
:101DF40012008EC591F58FC592F591C590F592C5E7
:101E040091F590C592F591C58EF592C58FF51200A6
:101E1400C9C5C5F5CAC5C6F5C40EC76F0F0EC86FD0
:101E240088ECFDF0C5C5C9F5C6C5CAF51200EB516D
:101E34000501916F906B0301EA51050190258E6FA6
:101E44000301000E050191218F6F120003012AA5E1
:101E540007D02A918AC529F389C528F32A8112005B
:0A1E64008AC529F389C528F312008E
:101E7000FAC433F5FBC434F51CEE0EF2BD96FAEC51
:101E80000DF0E55234C5FBF433C5FAF4110003013B
:101E900036A507D036913AC535F339C534F33681C6
:101EA00012003AC535F339C534F31200000E592437
:101EB000D96EDA6A1A0EDA22C7C2DFF4592A592813
:101EC000D8B4596A0501EF2B120003011EA507D0F3
:101ED0001E9186C51DF385C51CF31E81120086C5A3
:101EE0001DF385C51CF31200100000000000000067
:101EF00000000000000000000000000000000000E2
:051F00000000000000DC
:101F0600FF0E8E25906FFF0E8F21916F90C5C2FB3D
:101F160091C5C3FB0B01C46BC56B1200000E5D249B
:101F2600D96EDA6A190EDA22A1C2DFF45D2A5D28BB
:101F3600D8B45D6A5B2A1200830E0001846F240EFA
:101F4600856F030E866F020E8C6F040E896FC8961E
:101F56001200380E0001456F8FC544F08EC543F060
:101F6600F80E4117408146511200030157B1120085
:101F760091C552F390C551F38FC550F38EC54FF3FB
:101F86001200010E0301266F256B276B630E236F6C
:101F9600226BB1968F0E246F1200200E0001AD6FDA
:101FA600AF6B010EB36F080EB16FB06BB2B112001A
:101FB600FDD70001606B616B626B636B646B656B75
:101FC600666B676B686B1200000E0801AC6F000E43
:101FD600AD6F000EAE6F000EAF6F1200000E08015F
:101FE600B46F000EB56F000EB66F000EB76F12001D
:101FF6000501976FFE0EA8EC06F005019751A8ECB7
:1020060006F012005650D8B404D0010E07017A6FBC
:10201600BF82CFC4ECF51200010E09014827000E5D
:1020260049234A234B230001976B1200000EB06F21
:10203600000EB16F000EB26F000EB36F1200010EEC
:102046000801A027000EA123A223A3239099120022
:102056000501E051D8A402D0000E1200010E1200B4
:102066005B50D8B403D0016A012A1200016A12003B
:102076000501EF51D8B402D0010E1200000E120075
:1020860005018E6F8EC5ECF30301F38FF381120009
:102096006F6B6C6B6E6B6D6B706B716B726B120032
:1020A600010E0801A827000EA923AA23AB231200BC
:1020B600030157AB02D0010E1200000E120055505C
:1020C600D8A402D0010E1200000E120029EEFAF377
:1020D600DF50030B0BECE6F0120020EE07F0445144
:1020E600D9264551DA2212000501986F050198514B
:1020F600FBEC0FF012000001E86B8EC5F7F08FC500
:10210600F8F012000001E86B8EC5EEF08FC5EFF017
:1021160012008EC5DCF88FC5DDF890C5DEF812001A
:102126008EC5DFF88FC5E0F890C5E1F812008EC5C0
:10213600D7FA8FC5D8FA90C5D9FA12008EC5DAFA41
:102146008FC5DBFA90C5DCFA12008EC5D4FA8FC5AE
:10215600D5FA90C5D6FA12008EC5E0FA8FC5E1FA17
:1021660090C5E2FA12008EC5E3FA8FC5E4FA90C56F
:10217600E5FA12008EC5DDFA8FC5DEFA90C5DFFAE4
:1021860012008EC5D6F88FC5D7F890C5D8F81200BC
:102196008EC5D9F88FC5DAF890C5DBF812008EC562
:1021A600E9FA8FC5EAFA90C5EBFA12008EC5ECFA89
:1021B6008FC5EDFA90C5EEFA12008EC5E6FA8FC508
:1021C600E7FA90C5E8FA12008EC5CAF88FC5CBF8B3
:1021D60090C5CCF812008EC5C1F88FC5C2F890C55F
:1021E600C3F812008EC566F98FC567F990C568F900
:1021F60012008EC563F98FC564F990C565F91200A2
:102206008EC57BF98FC57CF990C57DF91200550EF8
:102216000001B46FAA0EB46FB48112008EC5D0F857
:102226008FC5D1F890C5D2F812008EC5D3F88FC5E8
:10223600D4F890C5D5F812008EC5CDF88FC5CEF866
:1022460090C5CFF812008EC56FF98FC570F990C58D
:1022560071F912008EC569F98FC56AF990C56BF9D7
:1022660012008EC56CF98FC56DF990C56EF9120016
:102276008EC578F98FC579F990C57AF912008EC5A1
:1022860072F98FC573F990C574F912008EC575F988
:102296008FC576F990C577F912008EC5C7F88FC538
:1022A600C8F890C5C9F812008EC5C4F88FC5C5F820
:1022B60090C5C6F812008EC5BBF88FC5BCF890C590
:1022C600BDF812008EC5B8F88FC5B9F890C5BAF832
:1022D60012008EC5BEF88FC5BFF890C5C0F81200B3
:1022E6000301F3B102D0010E1200000E1200940E8B
:1022F60000017F6F400E7D6F1200276EB6A2FED7DB
:1023060027C5B6F2120005018E6F8EC5FBF31200CB
:10231600010EE86FFC9DFC9B12000001E86BFC9D22
:04232600FC9B12000A
:10232C001CEE0EF2BD90E552110052C519F351C5C9
:10233C0018F312000A0E0701816F1200080E070134
:10234C00816F1200030E0701816F1200E0C58EF53C
:10235C008E5112003B0E0301EC6F12001CEE0EF2BC
:0B236C00E5521100B107A9070757193F
:102378000701816B120003012A811200080190876E
:102388001200C8EC11F01200E86BFC8D1200EDECA5
:1023980011F01200030136811200D4EC11F0120082
:1023A8000301248F120003011E81120003011A8FFA
:1023B800120091EC0FF0120008019097120056ECF1
:1023C8000FF01200010E866F1200578D1200000EDA
:1023D80012003C8F1200C19E1200BF821200BF8201
:1023E8001200BF8212001200120012001200120026
:1023F8001200120012001200120012001200120045
:0D240800120012001200120012001200015A
:10CB8E000000C0C101C30302C2C60607C705C5C463
:10CB9E0004CC0C0DCD0FCFCE0E0ACACB0BC9090893
:10CBAE00C8D81819D91BDBDA1A1EDEDF1FDD1D1CD3
:10CBBE00DC14D4D515D71716D6D21213D311D1D063
:10CBCE0010F03031F133F3F23236F6F737F5353403
:10CBDE00F43CFCFD3DFF3F3EFEFA3A3BFB39F9F8D3
:10CBEE003828E8E929EB2B2AEAEE2E2FEF2DEDEC73
:10CBFE002CE42425E527E7E62622E2E323E12120A3
:10CC0E00E0A06061A163A3A26266A6A767A56564A2
:10CC1E00A46CACAD6DAF6F6EAEAA6A6BAB69A9A812
:10CC2E006878B8B979BB7B7ABABE7E7FBF7DBDBC52
:10CC3E007CB47475B577B7B67672B2B373B17170E2
:10CC4E00B050909151935352929656579755959442
:10CC5E00549C5C5D9D5F9F9E5E5A9A9B5B99595852
:10CC6E0098884849894B8B8A4A4E8E8F4F8D4D4CF2
:10CC7E008C44848545874746868242438341818022
:10CC8E004000C1814001C0804101C0804100C1818E
:10CC9E004001C0804100C1814000C1814001C0807F
:10CCAE004101C0804100C1814000C1814001C0806E
:10CCBE004100C1814001C0804101C0804100C1815D
:10CCCE004001C0804100C1814000C1814001C0804F
:10CCDE004100C1814001C0804101C0804100C1813D
:10CCEE004000C1814001C0804101C0804100C1812E
:10CCFE004001C0804100C1814000C1814001C0801F
:10CD0E004101C0804100C1814000C1814001C0800D
:10CD1E004100C1814001C0804101C0804100C181FC
:10CD2E004000C1814001C0804101C0804100C181ED
:10CD3E004001C0804100C1814000C1814001C080DE
:10CD4E004100C1814001C0804101C0804100C181CC
:10CD5E004001C0804100C1814000C1814001C080BE
:10CD6E004101C0804100C1814000C1814001C080AD
:10CD7E004100C1814001C0804101C0804100C1819C
:10CD8E004000C0C101C30302C2C60607C705C5C421
:10CD9E0004CC0C0DCD0FCFCE0E0ACACB0BC9090891
:10CDAE00C8D81819D91BDBDA1A1EDEDF1FDD1D1CD1
:10CDBE00DC14D4D515D71716D6D21213D311D1D061
:10CDCE0010F03031F133F3F23236F6F737F5353401
:10CDDE00F43CFCFD3DFF3F3EFEFA3A3BFB39F9F8D1
:10CDEE003828E8E929EB2B2AEAEE2E2FEF2DEDEC71
:10CDFE002CE42425E527E7E62622E2E323E12120A1
:10CE0E00E0A06061A163A3A26266A6A767A56564A0
:10CE1E00A46CACAD6DAF6F6EAEAA6A6BAB69A9A810
:10CE2E006878B8B979BB7B7ABABE7E7FBF7DBDBC50
:10CE3E007CB47475B577B7B67672B2B373B17170E0
:10CE4E00B050909151935352929656579755959440
:10CE5E00549C5C5D9D5F9F9E5E5A9A9B5B99595850
:10CE6E0098884849894B8B8A4A4E8E8F4F8D4D4CF0
:10CE7E008C44848545874746868242438341818020
:10CE8E004000C1814001C0804101C0804100C1818C
:10CE9E004001C0804100C1814000C1814001C0807D
:10CEAE004101C0804100C1814000C1814001C0806C
:10CEBE004100C1814001C0804101C0804100C1815B
:10CECE004001C0804100C1814000C1814001C0804D
:10CEDE004100C1814001C0804101C0804100C1813B
:10CEEE004000C1814001C0804101C0804100C1812C
:10CEFE004001C0804100C1814000C1814001C0801D
:10CF0E004101C0804100C1814000C1814001C0800B
:10CF1E004100C1814001C0804101C0804100C181FA
:10CF2E004000C1814001C0804101C0804100C181EB
:10CF3E004001C0804100C1814000C1814001C080DC
:10CF4E004100C1814001C0804101C0804100C181CA
:10CF5E004001C0804100C1814000C1814001C080BC
:10CF6E004101C0804100C1814000C1814001C080AB
:10CF7E004100C1814001C0804101C0804100C1819A
:10CF8E004000C0C101C30302C2C60607C705C5C41F
:10CF9E0004CC0C0DCD0FCFCE0E0ACACB0BC909088F
:10CFAE00C8D81819D91BDBDA1A1EDEDF1FDD1D1CCF
:10CFBE00DC14D4D515D71716D6D21213D311D1D05F
:10CFCE0010F03031F133F3F23236F6F737F53534FF
:10CFDE00F43CFCFD3DFF3F3EFEFA3A3BFB39F9F8CF
:10CFEE003828E8E929EB2B2AEAEE2E2FEF2DEDEC6F
:10CFFE002CE42425E527E7E62622E2E323E121209F
:10D00E00E0A06061A163A3A26266A6A767A565649E
:10D01E00A46CACAD6DAF6F6EAEAA6A6BAB69A9A80E
:10D02E006878B8B979BB7B7ABABE7E7FBF7DBDBC4E
:10D03E007CB47475B577B7B67672B2B373B17170DE
:10D04E00B05090915193535292965657975595943E
:10D05E00549C5C5D9D5F9F9E5E5A9A9B5B9959584E
:10D06E0098884849894B8B8A4A4E8E8F4F8D4D4CEE
:10D07E008C4484854587474686824243834181801E
:10D08E004000C1814001C0804101C0804100C1818A
:10D09E004001C0804100C1814000C1814001C0807B
:10D0AE004101C0804100C1814000C1814001C0806A
:10D0BE004100C1814001C0804101C0804100C18159
:10D0CE004001C0804100C1814000C1814001C0804B
:10D0DE004100C1814001C0804101C0804100C18139
:10D0EE004000C1814001C0804101C0804100C1812A
:10D0FE004001C0804100C1814000C1814001C0801B
:10D10E004101C0804100C1814000C1814001C08009
:10D11E004100C1814001C0804101C0804100C181F8
:10D12E004000C1814001C0804101C0804100C181E9
:10D13E004001C0804100C1814000C1814001C080DA
:10D14E004100C1814001C0804101C0804100C181C8
:10D15E004001C0804100C1814000C1814001C080BA
:10D16E004101C0804100C1814000C1814001C080A9
:10D17E004100C1814001C0804101C0804100C18198
:10D18E004000C0C101C30302C2C60607C705C5C41D
:10D19E0004CC0C0DCD0FCFCE0E0ACACB0BC909088D
:10D1AE00C8D81819D91BDBDA1A1EDEDF1FDD1D1CCD
:10D1BE00DC14D4D515D71716D6D21213D311D1D05D
:10D1CE0010F03031F133F3F23236F6F737F53534FD
:10D1DE00F43CFCFD3DFF3F3EFEFA3A3BFB39F9F8CD
:10D1EE003828E8E929EB2B2AEAEE2E2FEF2DEDEC6D
:10D1FE002CE42425E527E7E62622E2E323E121209D
:10D20E00E0A06061A163A3A26266A6A767A565649C
:10D21E00A46CACAD6DAF6F6EAEAA6A6BAB69A9A80C
:10D22E006878B8B979BB7B7ABABE7E7FBF7DBDBC4C
:10D23E007CB47475B577B7B67672B2B373B17170DC
:10D24E00B05090915193535292965657975595943C
:10D25E00549C5C5D9D5F9F9E5E5A9A9B5B9959584C
:10D26E0098884849894B8B8A4A4E8E8F4F8D4D4CEC
:10D27E008C4484854587474686824243834181801C
:10D28E004000C1814001C0804101C0804100C18188
:10D29E004001C0804100C1814000C1814001C08079
:10D2AE004101C0804100C1814000C1814001C08068
:10D2BE004100C1814001C0804101C0804100C18157
:10D2CE004001C0804100C1814000C1814001C08049
:10D2DE004100C1814001C0804101C0804100C18137
:10D2EE004000C1814001C0804101C0804100C18128
:10D2FE004001C0804100C1814000C1814001C08019
:10D30E004101C0804100C1814000C1814001C08007
:10D31E004100C1814001C0804101C0804100C181F6
:10D32E004000C1814001C0804101C0804100C181E7
:10D33E004001C0804100C1814000C1814001C080D8
:10D34E004100C1814001C0804101C0804100C181C6
:10D35E004001C0804100C1814000C1814001C080B8
:10D36E004101C0804100C1814000C1814001C080A7
:10D37E004100C1814001C0804101C0804100C18196
:10D38E004000C0C101C30302C2C60607C705C5C41B
:10D39E0004CC0C0DCD0FCFCE0E0ACACB0BC909088B
:10D3AE00C8D81819D91BDBDA1A1EDEDF1FDD1D1CCB
:10D3BE00DC14D4D515D71716D6D21213D311D1D05B
:10D3CE0010F03031F133F3F23236F6F737F53534FB
:10D3DE00F43CFCFD3DFF3F3EFEFA3A3BFB39F9F8CB
:10D3EE003828E8E929EB2B2AEAEE2E2FEF2DEDEC6B
:10D3FE002CE42425E527E7E62622E2E323E121209B
:10D40E00E0A06061A163A3A26266A6A767A565649A
:10D41E00A46CACAD6DAF6F6EAEAA6A6BAB69A9A80A
:10D42E006878B8B979BB7B7ABABE7E7FBF7DBDBC4A
:10D43E007CB47475B577B7B67672B2B373B17170DA
:10D44E00B05090915193535292965657975595943A
:10D45E00549C5C5D9D5F9F9E5E5A9A9B5B9959584A
:10D46E0098884849894B8B8A4A4E8E8F4F8D4D4CEA
:10D47E008C4484854587474686824243834181801A
:10D48E004000C1814001C0804101C0804100C18186
:10D49E004001C0804100C1814000C1814001C08077
:10D4AE004101C0804100C1814000C1814001C08066
:10D4BE004100C1814001C0804101C0804100C18155
:10D4CE004001C0804100C1814000C1814001C08047
:10D4DE004100C1814001C0804101C0804100C18135
:10D4EE004000C1814001C0804101C0804100C18126
:10D4FE004001C0804100C1814000C1814001C08017
:10D50E004101C0804100C1814000C1814001C08005
:10D51E004100C1814001C0804101C0804100C181F4
:10D52E004000C1814001C0804101C0804100C181E5
:10D53E004001C0804100C1814000C1814001C080D6
:10D54E004100C1814001C0804101C0804100C181C4
:10D55E004001C0804100C1814000C1814001C080B6
:10D56E004101C0804100C1814000C1814001C080A5
:10D57E004100C1814001C0804101C0804100C18194
:10D58E004000C0C101C30302C2C60607C705C5C419
:10D59E0004CC0C0DCD0FCFCE0E0ACACB0BC9090889
:10D5AE00C8D81819D91BDBDA1A1EDEDF1FDD1D1CC9
:10D5BE00DC14D4D515D71716D6D21213D311D1D059
:10D5CE0010F03031F133F3F23236F6F737F53534F9
:10D5DE00F43CFCFD3DFF3F3EFEFA3A3BFB39F9F8C9
:10D5EE003828E8E929EB2B2AEAEE2E2FEF2DEDEC69
:10D5FE002CE42425E527E7E62622E2E323E1212099
:10D60E00E0A06061A163A3A26266A6A767A5656498
:10D61E00A46CACAD6DAF6F6EAEAA6A6BAB69A9A808
:10D62E006878B8B979BB7B7ABABE7E7FBF7DBDBC48
:10D63E007CB47475B577B7B67672B2B373B17170D8
:10D64E00B050909151935352929656579755959438
:10D65E00549C5C5D9D5F9F9E5E5A9A9B5B99595848
:10D66E0098884849894B8B8A4A4E8E8F4F8D4D4CE8
:10D67E008C44848545874746868242438341818018
:10D68E004000C1814001C0804101C0804100C18184
:10D69E004001C0804100C1814000C1814001C08075
:10D6AE004101C0804100C1814000C1814001C08064
:10D6BE004100C1814001C0804101C0804100C18153
:10D6CE004001C0804100C1814000C1814001C08045
:10D6DE004100C1814001C0804101C0804100C18133
:10D6EE004000C1814001C0804101C0804100C18124
:10D6FE004001C0804100C1814000C1814001C08015
:10D70E004101C0804100C1814000C1814001C08003
:10D71E004100C1814001C0804101C0804100C181F2
:10D72E004000C1814001C0804101C0804100C181E3
:10D73E004001C0804100C1814000C1814001C080D4
:10D74E004100C1814001C0804101C0804100C181C2
:10D75E004001C0804100C1814000C1814001C080B4
:10D76E004101C0804100C1814000C1814001C080A3
:10D77E004100C1814001C0804101C0804100C18192
:10D78E004000C0C101C30302C2C60607C705C5C417
:10D79E0004CC0C0DCD0FCFCE0E0ACACB0BC9090887
:10D7AE00C8D81819D91BDBDA1A1EDEDF1FDD1D1CC7
:10D7BE00DC14D4D515D71716D6D21213D311D1D057
:10D7CE0010F03031F133F3F23236F6F737F53534F7
:10D7DE00F43CFCFD3DFF3F3EFEFA3A3BFB39F9F8C7
:10D7EE003828E8E929EB2B2AEAEE2E2FEF2DEDEC67
:10D7FE002CE42425E527E7E62622E2E323E1212097
:10D80E00E0A06061A163A3A26266A6A767A5656496
:10D81E00A46CACAD6DAF6F6EAEAA6A6BAB69A9A806
:10D82E006878B8B979BB7B7ABABE7E7FBF7DBDBC46
:10D83E007CB47475B577B7B67672B2B373B17170D6
:10D84E00B050909151935352929656579755959436
:10D85E00549C5C5D9D5F9F9E5E5A9A9B5B99595846
:10D86E0098884849894B8B8A4A4E8E8F4F8D4D4CE6
:10D87E008C44848545874746868242438341818016
:10D88E004000C1814001C0804101C0804100C18182
:10D89E004001C0804100C1814000C1814001C08073
:10D8AE004101C0804100C1814000C1814001C08062
:10D8BE004100C1814001C0804101C0804100C18151
:10D8CE004001C0804100C1814000C1814001C08043
:10D8DE004100C1814001C0804101C0804100C18131
:10D8EE004000C1814001C0804101C0804100C18122
:10D8FE004001C0804100C1814000C1814001C08013
:10D90E004101C0804100C1814000C1814001C08001
:10D91E004100C1814001C0804101C0804100C181F0
:10D92E004000C1814001C0804101C0804100C181E1
:10D93E004001C0804100C1814000C1814001C080D2
:10D94E004100C1814001C0804101C0804100C181C0
:10D95E004001C0804100C1814000C1814001C080B2
:10D96E004101C0804100C1814000C1814001C080A1
:10D97E004100C1814001C0804101C0804100C18190
:10D98E004000C0C101C30302C2C60607C705C5C415
:10D99E0004CC0C0DCD0FCFCE0E0ACACB0BC9090885
:10D9AE00C8D81819D91BDBDA1A1EDEDF1FDD1D1CC5
:10D9BE00DC14D4D515D71716D6D21213D311D1D055
:10D9CE0010F03031F133F3F23236F6F737F53534F5
:10D9DE00F43CFCFD3DFF3F3EFEFA3A3BFB39F9F8C5
:10D9EE003828E8E929EB2B2AEAEE2E2FEF2DEDEC65
:10D9FE002CE42425E527E7E62622E2E323E1212095
:10DA0E00E0A06061A163A3A26266A6A767A5656494
:10DA1E00A46CACAD6DAF6F6EAEAA6A6BAB69A9A804
:10DA2E006878B8B979BB7B7ABABE7E7FBF7DBDBC44
:10DA3E007CB47475B577B7B67672B2B373B17170D4
:10DA4E00B050909151935352929656579755959434
:10DA5E00549C5C5D9D5F9F9E5E5A9A9B5B99595844
:10DA6E0098884849894B8B8A4A4E8E8F4F8D4D4CE4
:10DA7E008C44848545874746868242438341818014
:10DA8E004000C1814001C0804101C0804100C18180
:10DA9E004001C0804100C1814000C1814001C08071
:10DAAE004101C0804100C1814000C1814001C08060
:10DABE004100C1814001C0804101C0804100C1814F
:10DACE004001C0804100C1814000C1814001C08041
:10DADE004100C1814001C0804101C0804100C1812F
:10DAEE004000C1814001C0804101C0804100C18120
:10DAFE004001C0804100C1814000C1814001C08011
:10DB0E004101C0804100C1814000C1814001C080FF
:10DB1E004100C1814001C0804101C0804100C181EE
:10DB2E004000C1814001C0804101C0804100C181DF
:10DB3E004001C0804100C1814000C1814001C080D0
:10DB4E004100C1814001C0804101C0804100C181BE
:10DB5E004001C0804100C1814000C1814001C080B0
:10DB6E004101C0804100C1814000C1814001C0809F
:10DB7E004100C1814001C0804101C0804100C1818E
:10DB8E004000C0C101C30302C2C60607C705C5C413
:10DB9E0004CC0C0DCD0FCFCE0E0ACACB0BC9090883
:10DBAE00C8D81819D91BDBDA1A1EDEDF1FDD1D1CC3
:10DBBE00DC14D4D515D71716D6D21213D311D1D053
:10DBCE0010F03031F133F3F23236F6F737F53534F3
:10DBDE00F43CFCFD3DFF3F3EFEFA3A3BFB39F9F8C3
:10DBEE003828E8E929EB2B2AEAEE2E2FEF2DEDEC63
:10DBFE002CE42425E527E7E62622E2E323E1212093
:10DC0E00E0A06061A163A3A26266A6A767A5656492
:10DC1E00A46CACAD6DAF6F6EAEAA6A6BAB69A9A802
:10DC2E006878B8B979BB7B7ABABE7E7FBF7DBDBC42
:10DC3E007CB47475B577B7B67672B2B373B17170D2
:10DC4E00B050909151935352929656579755959432
:10DC5E00549C5C5D9D5F9F9E5E5A9A9B5B99595842
:10DC6E0098884849894B8B8A4A4E8E8F4F8D4D4CE2
:10DC7E008C44848545874746868242438341818012
:10DC8E004000C1814001C0804101C0804100C1817E
:10DC9E004001C0804100C1814000C1814001C0806F
:10DCAE004101C0804100C1814000C1814001C0805E
:10DCBE004100C1814001C0804101C0804100C1814D
:10DCCE004001C0804100C1814000C1814001C0803F
:10DCDE004100C1814001C0804101C0804100C1812D
:10DCEE004000C1814001C0804101C0804100C1811E
:10DCFE004001C0804100C1814000C1814001C0800F
:10DD0E004101C0804100C1814000C1814001C080FD
:10DD1E004100C1814001C0804101C0804100C181EC
:10DD2E004000C1814001C0804101C0804100C181DD
:10DD3E004001C0804100C1814000C1814001C080CE
:10DD4E004100C1814001C0804101C0804100C181BC
:10DD5E004001C0804100C1814000C1814001C080AE
:10DD6E004101C0804100C1814000C1814001C0809D
:10DD7E004100C1814001C0804101C0804100C1818C
:10DD8E004000C0C101C30302C2C60607C705C5C411
:10DD9E0004CC0C0DCD0FCFCE0E0ACACB0BC9090881
:10DDAE00C8D81819D91BDBDA1A1EDEDF1FDD1D1CC1
:10DDBE00DC14D4D515D71716D6D21213D311D1D051
:10DDCE0010F03031F133F3F23236F6F737F53534F1
:10DDDE00F43CFCFD3DFF3F3EFEFA3A3BFB39F9F8C1
:10DDEE003828E8E929EB2B2AEAEE2E2FEF2DEDEC61
:10DDFE002CE42425E527E7E62622E2E323E1212091
:10DE0E00E0A06061A163A3A26266A6A767A5656490
:10DE1E00A46CACAD6DAF6F6EAEAA6A6BAB69A9A800
:10DE2E006878B8B979BB7B7ABABE7E7FBF7DBDBC40
:10DE3E007CB47475B577B7B67672B2B373B17170D0
:10DE4E00B050909151935352929656579755959430
:10DE5E00549C5C5D9D5F9F9E5E5A9A9B5B99595840
:10DE6E0098884849894B8B8A4A4E8E8F4F8D4D4CE0
:10DE7E008C44848545874746868242438341818010
:10DE8E004000C1814001C0804101C0804100C1817C
:10DE9E004001C0804100C1814000C1814001C0806D
:10DEAE004101C0804100C1814000C1814001C0805C
:10DEBE004100C1814001C0804101C0804100C1814B
:10DECE004001C0804100C1814000C1814001C0803D
:10DEDE004100C1814001C0804101C0804100C1812B
:10DEEE004000C1814001C0804101C0804100C1811C
:10DEFE004001C0804100C1814000C1814001C0800D
:10DF0E004101C0804100C1814000C1814001C080FB
:10DF1E004100C1814001C0804101C0804100C181EA
:10DF2E004000C1814001C0804101C0804100C181DB
:10DF3E004001C0804100C1814000C1814001C080CC
:10DF4E004100C1814001C0804101C0804100C181BA
:10DF5E004001C0804100C1814000C1814001C080AC
:10DF6E004101C0804100C1814000C1814001C0809B
:10DF7E004100C1814001C0804101C0804100C1818A
:10DF8E004000C0C101C30302C2C60607C705C5C40F
:10DF9E0004CC0C0DCD0FCFCE0E0ACACB0BC909087F
:10DFAE00C8D81819D91BDBDA1A1EDEDF1FDD1D1CBF
:10DFBE00DC14D4D515D71716D6D21213D311D1D04F
:10DFCE0010F03031F133F3F23236F6F737F53534EF
:10DFDE00F43CFCFD3DFF3F3EFEFA3A3BFB39F9F8BF
:10DFEE003828E8E929EB2B2AEAEE2E2FEF2DEDEC5F
:10DFFE002CE42425E527E7E62622E2E323E121208F
:10E00E00E0A06061A163A3A26266A6A767A565648E
:10E01E00A46CACAD6DAF6F6EAEAA6A6BAB69A9A8FE
:10E02E006878B8B979BB7B7ABABE7E7FBF7DBDBC3E
:10E03E007CB47475B577B7B67672B2B373B17170CE
:10E04E00B05090915193535292965657975595942E
:10E05E00549C5C5D9D5F9F9E5E5A9A9B5B9959583E
:10E06E0098884849894B8B8A4A4E8E8F4F8D4D4CDE
:10E07E008C4484854587474686824243834181800E
:10E08E004000C1814001C0804101C0804100C1817A
:10E09E004001C0804100C1814000C1814001C0806B
:10E0AE004101C0804100C1814000C1814001C0805A
:10E0BE004100C1814001C0804101C0804100C18149
:10E0CE004001C0804100C1814000C1814001C0803B
:10E0DE004100C1814001C0804101C0804100C18129
:10E0EE004000C1814001C0804101C0804100C1811A
:10E0FE004001C0804100C1814000C1814001C0800B
:10E10E004101C0804100C1814000C1814001C080F9
:10E11E004100C1814001C0804101C0804100C181E8
:10E12E004000C1814001C0804101C0804100C181D9
:10E13E004001C0804100C1814000C1814001C080CA
:10E14E004100C1814001C0804101C0804100C181B8
:10E15E004001C0804100C1814000C1814001C080AA
:10E16E004101C0804100C1814000C1814001C08099
:10E17E004100C1814001C0804101C0804100C18188
:10E18E004000C0C101C30302C2C60607C705C5C40D
:10E19E0004CC0C0DCD0FCFCE0E0ACACB0BC909087D
:10E1AE00C8D81819D91BDBDA1A1EDEDF1FDD1D1CBD
:10E1BE00DC14D4D515D71716D6D21213D311D1D04D
:10E1CE0010F03031F133F3F23236F6F737F53534ED
:10E1DE00F43CFCFD3DFF3F3EFEFA3A3BFB39F9F8BD
:10E1EE003828E8E929EB2B2AEAEE2E2FEF2DEDEC5D
:10E1FE002CE42425E527E7E62622E2E323E121208D
:10E20E00E0A06061A163A3A26266A6A767A565648C
:10E21E00A46CACAD6DAF6F6EAEAA6A6BAB69A9A8FC
:10E22E006878B8B979BB7B7ABABE7E7FBF7DBDBC3C
:10E23E007CB47475B577B7B67672B2B373B17170CC
:10E24E00B05090915193535292965657975595942C
:10E25E00549C5C5D9D5F9F9E5E5A9A9B5B9959583C
:10E26E0098884849894B8B8A4A4E8E8F4F8D4D4CDC
:10E27E008C4484854587474686824243834181800C
:10E28E004000C1814001C0804101C0804100C18178
:10E29E004001C0804100C1814000C1814001C08069
:10E2AE004101C0804100C1814000C1814001C08058
:10E2BE004100C1814001C0804101C0804100C18147
:10E2CE004001C0804100C1814000C1814001C08039
:10E2DE004100C1814001C0804101C0804100C18127
:10E2EE004000C1814001C0804101C0804100C18118
:10E2FE004001C0804100C1814000C1814001C08009
:10E30E004101C0804100C1814000C1814001C080F7
:10E31E004100C1814001C0804101C0804100C181E6
:10E32E004000C1814001C0804101C0804100C181D7
:10E33E004001C0804100C1814000C1814001C080C8
:10E34E004100C1814001C0804101C0804100C181B6
:10E35E004001C0804100C1814000C1814001C080A8
:10E36E004101C0804100C1814000C1814001C08097
:10E37E004100C1814001C0804101C0804100C18186
:10E38E004000C0C101C30302C2C60607C705C5C40B
:10E39E0004CC0C0DCD0FCFCE0E0ACACB0BC909087B
:10E3AE00C8D81819D91BDBDA1A1EDEDF1FDD1D1CBB
:10E3BE00DC14D4D515D71716D6D21213D311D1D04B
:10E3CE0010F03031F133F3F23236F6F737F53534EB
:10E3DE00F43CFCFD3DFF3F3EFEFA3A3BFB39F9F8BB
:10E3EE003828E8E929EB2B2AEAEE2E2FEF2DEDEC5B
:10E3FE002CE42425E527E7E62622E2E323E121208B
:10E40E00E0A06061A163A3A26266A6A767A565648A
:10E41E00A46CACAD6DAF6F6EAEAA6A6BAB69A9A8FA
:10E42E006878B8B979BB7B7ABABE7E7FBF7DBDBC3A
:10E43E007CB47475B577B7B67672B2B373B17170CA
:10E44E00B05090915193535292965657975595942A
:10E45E00549C5C5D9D5F9F9E5E5A9A9B5B9959583A
:10E46E0098884849894B8B8A4A4E8E8F4F8D4D4CDA
:10E47E008C4484854587474686824243834181800A
:10E48E004000C1814001C0804101C0804100C18176
:10E49E004001C0804100C1814000C1814001C08067
:10E4AE004101C0804100C1814000C1814001C08056
:10E4BE004100C1814001C0804101C0804100C18145
:10E4CE004001C0804100C1814000C1814001C08037
:10E4DE004100C1814001C0804101C0804100C18125
:10E4EE004000C1814001C0804101C0804100C18116
:10E4FE004001C0804100C1814000C1814001C08007
:10E50E004101C0804100C1814000C1814001C080F5
:10E51E004100C1814001C0804101C0804100C181E4
:10E52E004000C1814001C0804101C0804100C181D5
:10E53E004001C0804100C1814000C1814001C080C6
:10E54E004100C1814001C0804101C0804100C181B4
:10E55E004001C0804100C1814000C1814001C080A6
:10E56E004101C0804100C1814000C1814001C08095
:10E57E004100C1814001C0804101C0804100C18184
:10E58E004000C0C101C30302C2C60607C705C5C409
:10E59E0004CC0C0DCD0FCFCE0E0ACACB0BC9090879
:10E5AE00C8D81819D91BDBDA1A1EDEDF1FDD1D1CB9
:10E5BE00DC14D4D515D71716D6D21213D311D1D049
:10E5CE0010F03031F133F3F23236F6F737F53534E9
:10E5DE00F43CFCFD3DFF3F3EFEFA3A3BFB39F9F8B9
:10E5EE003828E8E929EB2B2AEAEE2E2FEF2DEDEC59
:10E5FE002CE42425E527E7E62622E2E323E1212089
:10E60E00E0A06061A163A3A26266A6A767A5656488
:10E61E00A46CACAD6DAF6F6EAEAA6A6BAB69A9A8F8
:10E62E006878B8B979BB7B7ABABE7E7FBF7DBDBC38
:10E63E007CB47475B577B7B67672B2B373B17170C8
:10E64E00B050909151935352929656579755959428
:10E65E00549C5C5D9D5F9F9E5E5A9A9B5B99595838
:10E66E0098884849894B8B8A4A4E8E8F4F8D4D4CD8
:10E67E008C44848545874746868242438341818008
:10E68E004000C1814001C0804101C0804100C18174
:10E69E004001C0804100C1814000C1814001C08065
:10E6AE004101C0804100C1814000C1814001C08054
:10E6BE004100C1814001C0804101C0804100C18143
:10E6CE004001C0804100C1814000C1814001C08035
:10E6DE004100C1814001C0804101C0804100C18123
:10E6EE004000C1814001C0804101C0804100C18114
:10E6FE004001C0804100C1814000C1814001C08005
:10E70E004101C0804100C1814000C1814001C080F3
:10E71E004100C1814001C0804101C0804100C181E2
:10E72E004000C1814001C0804101C0804100C181D3
:10E73E004001C0804100C1814000C1814001C080C4
:10E74E004100C1814001C0804101C0804100C181B2
:10E75E004001C0804100C1814000C1814001C080A4
:10E76E004101C0804100C1814000C1814001C08093
:10E77E004100C1814001C0804101C0804100C18182
:10E78E004000C0C101C30302C2C60607C705C5C407
:10E79E0004CC0C0DCD0FCFCE0E0ACACB0BC9090877
:10E7AE00C8D81819D91BDBDA1A1EDEDF1FDD1D1CB7
:10E7BE00DC14D4D515D71716D6D21213D311D1D047
:10E7CE0010F03031F133F3F23236F6F737F53534E7
:10E7DE00F43CFCFD3DFF3F3EFEFA3A3BFB39F9F8B7
:10E7EE003828E8E929EB2B2AEAEE2E2FEF2DEDEC57
:10E7FE002CE42425E527E7E62622E2E323E1212087
:10E80E00E0A06061A163A3A26266A6A767A5656486
:10E81E00A46CACAD6DAF6F6EAEAA6A6BAB69A9A8F6
:10E82E006878B8B979BB7B7ABABE7E7FBF7DBDBC36
:10E83E007CB47475B577B7B67672B2B373B17170C6
:10E84E00B050909151935352929656579755959426
:10E85E00549C5C5D9D5F9F9E5E5A9A9B5B99595836
:10E86E0098884849894B8B8A4A4E8E8F4F8D4D4CD6
:10E87E008C44848545874746868242438341818006
:10E88E004000C1814001C0804101C0804100C18172
:10E89E004001C0804100C1814000C1814001C08063
:10E8AE004101C0804100C1814000C1814001C08052
:10E8BE004100C1814001C0804101C0804100C18141
:10E8CE004001C0804100C1814000C1814001C08033
:10E8DE004100C1814001C0804101C0804100C18121
:10E8EE004000C1814001C0804101C0804100C18112
:10E8FE004001C0804100C1814000C1814001C08003
:10E90E004101C0804100C1814000C1814001C080F1
:10E91E004100C1814001C0804101C0804100C181E0
:10E92E004000C1814001C0804101C0804100C181D1
:10E93E004001C0804100C1814000C1814001C080C2
:10E94E004100C1814001C0804101C0804100C181B0
:10E95E004001C0804100C1814000C1814001C080A2
:10E96E004101C0804100C1814000C1814001C08091
:10E97E004100C1814001C0804101C0804100C18180
:10E98E004001030000000000000000000000000035
:10E99E000000000000000000000000000000000069
:10E9AE000000000000000000000000000000000059
:10E9BE000000000000000000000000000000000049
:10E9CE000000000000000000000000000000000039
:10E9DE000000000000000000000000000000000029
:10E9EE000000000000000000000000000000000019
:10E9FE000000000000000000000000000000000009
:10EA0E0000000000000000000000000000000000F8
:10EA1E0000000000000000000000020400000000E2
:10EA2E0000000000000000000000000000000000D8
:10EA3E0000000000000000000000000000000000C8
:10EA4E0000000000000000000000000000000000B8
:10EA5E0000000000000000000000000000000000A8
:10EA6E000000000000000000000000000000000098
:10EA7E000000000000000000000000000000000088
:10EA8E000000000000000000000000000000000078
:10EA9E000000000000000000000000000000000167
:10EAAE000300000000000000000000000000000055
:10EABE000000000000000000000000000000000048
:10EACE000000000000000000000000000000000038
:10EADE000000000000000000000000000000000028
:10EAEE000000000000000000000000000000000018
:10EAFE000000000000000000000000000000000008
:10EB0E0000000000000000000000000000000000F7
:10EB1E0000000000000000000000000000000000E7
:10EB2E0000000000010300000000000000000000D3
:10EB3E0000000000000000000000000000000000C7
:10EB4E0000000000000000000000000000000000B7
:10EB5E0000000000000000000000000000000000A7
:10EB6E000000000000000000000000000000000097
:10EB7E000000000000000000000000000000000087
:10EB8E000000000000000000000000000000000077
:10EB9E00000AD7233CCDCCCC3DCDCC4C3E9A999996
:10EBAE003E0000003F9A99193F6666263F33333385
:10EBBE003F6666663FA4707D3F0000803F00008088
:10EBCE003F0000A0410000C841CDCCC8416666CAD6
:10EBDE00410000CC416666CE410000D0419A99D1E9
:10EBEE0041CDCCD4416666D6419A99D94100000CEC
:10EBFE0042257320256420257320202020202020EC
:10EC0E0020202020202020202020202020202020F6
:10EC1E002020202020202020202020202020200006
:10EC2E004F4E4C494E45204125642C2052256420E0
:10EC3E00524625642C2054256420544625642C20ED
:10EC4E0043256420256420257320202020200048A1
:10EC5E006F7374204125642C205225642052462562
:10EC6E00642C2054256420544625642C20432564AE
:10EC7E002025642025732020202020202000554EA2
:10EC8E004B20464F524D4154204125642C20522595
:10EC9E006420524625642C20542564205446256455
:10ECAE002C20432564202573202020002573202549
:10ECBE0073202020202020202020202020202020F3
:10ECCE002020202020202020202020202020202036
:10ECDE002020202020200025732025732020202096
:10ECEE002020202020202020202020202020202016
:10ECFE002020202020202020202020202020000145
:10ED0E0003000000000000000000000000000000F2
:10ED1E0000000000000000000000000000000000E5
:10ED2E0056332E303120464D783020696E74657220
:10ED3E006661636520513834004F66666C696E6596
:10ED4E00000000000043414E4255530000000000F9
:10ED5E0000010300000000000000000000000000A1
:10ED6E00000000000000000103000000D6000000BB
:10ED7E0001000000DA00000103000000D6000000D0
:10ED8E0000000000D9001F1E1F1E1F1F1E1F1E1F6A
:10ED9E001F1D0210000100020402000000021000FC
:10EDAE000100020402010000021000010002040230
:10EDBE000101000210000200010200000210000218
:10EDCE00000102010002100000000000000003001C
:10EDDE00040001C41A010600000000000001060034
:10EDEE00000000000001060000000000000103000A
:10EDFE000000000001030000000000832003040057
:10EE0E000024050001832403040000008841CD0C7A
:10EE1E000543E56121400000000000008045000030
:10EE2E008841CD0C0543E561214000808042008081
:10EE3E008042000000000000804500008841CD0C9B
:10EE4E000543E56121400080804200808042000041
:10EE5E0000000000804500008841CD0C0543E561AF
:10EE6E0021400080804200808042000000000000AF
:10EE7E008045BC000000BA7FFFFEC8008000340051
:10EE8E00000000008841CD0C0543E5612140008063
:10EE9E00804200808042000000000000804500009B
:10EEAE008841CD0C0543E561214000808042008001
:10EEBE008042000000000000804500008841CD0C1B
:10EECE000543E561214000808042008080420000C1
:10EEDE0000000000804500008841CD0C0543E5612F
:10EEEE00214000808042008080420000000000002F
:10EEFE00804500008841CD0C0543E561214000802E
:10EF0E00804200808042000000000000804500002A
:10EF1E008841CD0C0543E561214000808042008090
:10EF2E008042000000000000804500008841000083
:10EF3E00804518000002008813040002002800B06B
:10EF4E0004020002000300020088130400020028DD
:10EF5E0000B004020002000300B004DC05F40164FA
:10EF6E0000400660091027B80B3075059904990307
:10EF7E0099B004DC05F4016400400660091027B85E
:10EF8E000B059904990399B004DC05F40164004063
:10EF9E000660091027B80B059904990399B004DC93
:10EFAE0005F4016400400660091027B80B059904AA
:10EFBE00990399B004DC05F4016400400660091061
:10EFCE0027B80B059904990399B004DC05F4016484
:10EFDE0000400660091027B80BB004DC05F401648C
:10EFEE0000400660091027B80B059904990399B0E3
:10EFFE0004DC05F4016400400660091027B80BB06C
:10F00E0004DC05F4016400400660091027B80B30DB
:10F01E0075059904990399B004DC05F40164004068
:10F02E000660091027B80B3075E8FF3C0023000579
:10F03E009904990399B004DC05F40164004006605C
:10F04E00091027B80BFF00C80228040228C80102C5
:10F05E00FF00C80228040228C80102FF00C80228C7
:10F06E00040228C8010206465A2D01204601FF005F
:10F07E00C80228040228C80102FF00C802280402A0
:10F08E0028C801028003C801070707070707070DF5
:10F09E00050440400FF001050F67FF4010F0E0D06F
:10F0AE00C0B0A090800006465A2D01204601FF00F8
:10F0BE00C80228040228C801020707070707070726
:10F0CE000D050440400FF001050F67FF4010F0E002
:10F0DE00D0C0B0A090800006465A2D01204601FFF8
:10F0EE0000C80228040228C80102070707070707FD
:10F0FE00070D050440400FF001050F67FF4010F0AB
:10F10E00E0D0C0B0A090800006465A2D01204601E6
:10F11E00FF00C80228040228C801020707070707D4
:10F12E0007070D050440400FF001050F67FF401063
:10F13E00F0E0D0C0B0A090800006465A2D012046C7
:10F14E0001FF00C80228040228C8010207070707AA
:10F15E000707070D050440400FF001050F67FF403C
:10F16E0010F0E0D0C0B0A090800006465A2D0120CD
:10F17E004601FF00C80228040228C8010206465AAA
:10F18E002D01204601FF00C80228040228C80102F2
:10F19E00070707070707070D050440400FF0010595
:10F1AE000F67FF4010F0E0D0C0B0A0908000064680
:10F1BE005A2D01204601FF00C80228040228C8016A
:10F1CE000206465A2D01204601FF00C802280402FD
:10F1DE0028C801028003C801070707070707070DA4
:10F1EE00050440400FF001050F67FF4010F0E0D01E
:10F1FE00C0B0A090800006465A2D01204601FF00A7
:10F20E00C80228040228C801028003C801070707A4
:10F21E00070707070D050440400FF001050F67FFB4
:10F22E004010F0E0D0C0B0A090800006465A2D01EC
:10F23E00204601FF00C80228040228C801025E2CE5
:10F24E0025642C25332E32662C25332E32662C2542
:10F25E00332E32662C25332E32662C25332E326613
:10F26E002C25332E32662C25332E32662C25332E4A
:10F27E0032662C25642E253031642C25642E2530E3
:10F28E0031642C25642E253031642C25642C2564A4
:10F29E002C25642C25642C25642C256C6C752C2552
:10F2AE00372E34662C25372E34662C25362E3466B2
:10F2BE002C25372E34662C313935372C7E454F545C
:10F2CE002020202020202020202020202020202030
:10F2DE002020202020202020202020202020202020
:10F2EE002020202020202020202020202020202010
:10F2FE0020200D0A005E2C25642C25332E32662C20
:10F30E0025332E32662C25332E32662C25332E32A3
:10F31E00662C25332E32662C25332E32662C253361
:10F32E002E32662C25332E32662C25642E25303156
:10F33E00642C25642E253031642C25642E25303125
:10F34E00642C25642C25642C25642C25642C2564C2
:10F35E002C256C6C752C25372E34662C25372E34C7
:10F36E00662C25362E34662C25372E34662C3139F4
:10F37E0035372C7E454F5420202020202020202061
:10F38E00202020202020202020202020202020206F
:10F39E00202020202020202020202020202020205F
:10F3AE002020202020202020200D0A005E2C256405
:10F3BE002C25332E32662C25332E32662C25332EF9
:10F3CE0032662C25332E32662C25332E32662C25B2
:10F3DE00332E32662C25332E32662C25332E326692
:10F3EE002C25642E253031642C25642E2530316475
:10F3FE002C25642E253031642C25642C25642C2577
:10F40E00642C25642C25642C256C6C752C25362ECD
:10F41E0034662C25362E34662C25362E34662C2555
:10F42E00362E34662C313935372C7E454F542020FC
:10F43E0020202020202020202020202020202020BE
:10F44E0020202020202020202020202020202020AE
:10F45E00202020202020202020202020202020209E
:10F46E000D0A005E2C25642C25332E32662C253396
:10F47E002E32662C25332E32662C25332E32662CF8
:10F48E0025332E32662C25332E32662C25332E3222
:10F49E00662C25332E32662C25642E253031642CB5
:10F4AE0025642E253031642C25642E253031642CB4
:10F4BE0025642C25642C25642C25642C25642C2590
:10F4CE006C6C752C25362E33662C25362E33662C19
:10F4DE0025362E33662C25362E33662C31393537AC
:10F4EE002C7E454F5420202020202020202020201C
:10F4FE0020202020202020202020202020202020FE
:10F50E0020202020202020202020202020202020ED
:10F51E00202020202020200D0A007C7C2F2F2D2D36
:10F52E0000000000000000000000000000007C7CD5
:10F53E002F2F2D2D5C5C000000000000000000004D
:10F54E0000004F4F4F4F4F4F2D2D5F5F2D0000008E
:10F55E0000000000000076763C3C5E5E3E3E000001
:10F56E00000000000000000000002E2E2A2A782342
:10F57E00782358587C7C2D2D0000000000002E2E84
:10F58E006F6F4F4F6F6F0000000000000000000013
:10F59E000000536C65657000000000000000466CB2
:10F5AE006F61740000000000000042756C6B00007B
:10F5BE000000000000004162736F726200000000E4
:10F5CE000000457175616C697A65000000004E2F70
:10F5DE00412000000000000000004F66666C696E5E
:10F5EE00650000000000464D78300000000000006D
:10F5FE0000000001030040000200000001000000B6
:10F60E00460000010200000004000000000000009F
:10F61E0006000001020000000300000000000000D0
:10F62E0005000001020000000200000000000000C2
:10F63E0004000001020000000000000000000000B5
:10F64E0002000001020001006A000000000000003C
:10F65E006D00000102000100C70000000000000064
:10F66E00CA000001020000000800000000000000B7
:10F67E000A00000102000100C600000000000000A8
:10F68E00C90000010400000001000000000000009D
:10F69E000500000102000100C8000000000000008B
:10F6AE00CB0000010200000000000000000000007E
:10F6BE000200011000660002040000000075AD019A
:10F6CE0010006300020400000000B5920110000C4F
:10F6DE0000020400000000F3FA0210000100020410
:10F6EE000200010002040000004001030078000E39
:10F6FE0001030048004A0106160400050106100029
:10F70E000000010610020000010350000008010372
:10F71E000500004001030000003401030302000154
:10F72E000103000B0001000054420000544200800F
:10F73E008042008080422DB2804239B480421FC583
:10F74E008042CFB780429A995E4266665E42E590ED
:10F75E00584289C1584273488042C5608042FC8934
:10F76E008042FC8980420080804200808042B4004A
:10F77E00000204000000020000010A000001C77F21
:10F78E00FFFFC57FFFFFB4001000B77FFFFFB8007B
:10F79E000001C2000000E4000001CD0C0543E5614C
:10F7AE002140008080420080804200000000040062
:10F7BE00000CFFFF0B000010FFFF40F725342E3228
:10F7CE0066487A2025332E3166522025332E326636
:10F7DE0050662020202020202020202020202020A5
:10F7EE002020202020202020200025342E32664884
:10F7FE007A2025332E3266522025332E32665066FD
:10F80E0020202020202020202020202020202020EA
:10F81E002020202020202000424D4320256C7520E2
:10F82E00203058252E325820202020202020202025
:10F83E0020202020202020202020202020202020BA
:10F84E00202020200025322E31664B576820666C12
:10F85E006F61742025332E316668202020202020F1
:10F86E00202020202020202020202020202020208A
:10F87E0020000D2D2D2D20544943313234303020AF
:10F88E004472697665722056657273696F6E2025B3
:10F89E0073202573202573202D2D2D0D0A000D2D7F
:10F8AE002D2D204D43333339393620447269766518
:10F8BE00722056657273696F6E2025732025732032
:10F8CE002573202D2D2D0D0A004241542025642E26
:10F8DE0025303164562050562025642E2530316453
:10F8EE0056202020202020202020202020202020D4
:10F8FE0020200025342E30662025342E306620251B
:10F90E00342E306650682025322E30665720202047
:10F91E0020202020202020202020202000342025E0
:10F92E00362E3366562C352025362E33665620203D
:10F93E0020202020202020202020202020202020B9
:10F94E002020202000426D61782025755620426DC2
:10F95E00696E202575562020202020202020202072
:10F96E002020202020202020202020200025342E82
:10F97E0030662025342E30662025342E3066202524
:10F98E00342E3066572020202020202020202020BA
:10F99E00202020200025342E30662025342E30667F
:10F9AE002025342E306656612025322E3066487A58
:10F9BE0020202020202020202020202000424D43E7
:10F9CE0020256C7520202020202020202020202083
:10F9DE002020202020202020202020202020202019
:10F9EE00202020004F4620256C75204552522025A0
:10F9FE006C75202020202020202020202020202058
:10FA0E00202020202020202020200020256C6C5833
:10FA1E002052756E20446973706C617920305825C0
:10FA2E002E32582020202020202020202020202070
:10FA3E00004A616E4665624D61724170724D617928
:10FA4E004A756E4A756C4175675365704F63744E97
:10FA5E006F764465630025332E32662025332E32B1
:10FA6E00662025332E32665066202020202020204E
:10FA7E002020202020202020200025342E306657E4
:10FA8E002025342E306656612025332E3266506680
:10FA9E002020202020202020202020202000253360
:10FAAE002E3266572025332E326656612025332E90
:10FABE00326650662020202020202020202020206A
:10FACE0020002573205665722025732020202020CB
:10FADE002020202020202020202020202020202018
:10FAEE0020200025732025732025642E25303164B7
:10FAFE00412025644120202020202020202020206D
:10FB0E0020202000204D65736720256420537461EA
:10FB1E00636B202564202020202020202020202000
:10FB2E00202020004D554920256C6C58205049430B
:10FB3E00202558202020202020202020202020207A
:10FB4E0020202000205465726D696E616C20496E14
:10FB5E00666F202020202020202020202020202002
:10FB6E0020002048454C502053637265656E3A2044
:10FB7E0025642020202020202020202020002573F6
:10FB8E002020202020202020202020202020202067
:10FB9E002020202020202020200025732025342EF8
:10FBAE003166562025342E3266412020202020201A
:10FBBE0020202020200025732025342E316656204B
:10FBCE0025342E3166572020202020202020202072
:10FBDE00200020506F7274204C6F636B20232564BD
:10FBEE0020202020202020202020202000205465AE
:10FBFE00726D696E616C20256420202020202020EB
:10FC0E002020202020200020434D44202563202545
:10FC1E0063204C656E20256420202020202020208B
:10FC2E00002025635049204441515F424D43202519
:10FC3E007320202020202020200048454C502025D5
:10FC4E007320202020202020202020202020202053
:10FC5E002000204F70656E204C4C2020202020204C
:10FC6E00202020202020202020002050756D702084
:10FC7E004C4C20202020202020202020202020201E
:10FC8E002000205265616479204C4C2020202020D9
:10FC9E0020202020202020202000205332463431E6
:10FCAE0020232563202020202020202020202020FB
:10FCBE002000444953504C415920257320202020C8
:10FCCE00202020202020202020002053746F7265D9
:10FCDE006420232564202020202020202020202086
:10FCEE002000767465726D2025783A2578202020C4
:10FCFE002020202020202020200020534551554533
:10FD0E004E43452025642020202020202020202026
:10FD1E00200020446973706C6179206E756D20250A
:10FD2E0064202020202020202000205325644625FA
:10FD3E0064206C6F67202020202564202020202046
:10FD4E002000204C6F61642D6C6F636B206E756D9F
:10FD5E002025642020202020200020257320202014
:10FD6E002020202020202020202020202020202085
:10FD7E000020494E464F20202020202020202020E9
:10FD8E00202020202020200020565445524D20496E
:10FD9E004E464F20202020202020202020200020F2
:10FDAE00565445524D2048454C50202020202020AE
:10FDBE002020202020002056657273696F6E20254A
:10FDCE00732020202020202020202020002025739A
:10FDDE0020416C6C2044657620202020202020209D
:10FDEE00202020002048454C50204275696C64202C
:10FDFE002573202020202020202000202573204144
:10FE0E006E616C6F672044657620202020202020B4
:10FE1E00200053756E4D6F6E54756557656454684A
:10FE2E00754672695361740048454C502025732005
:10FE3E002020202020202020202020202000436170
:10FE4E006C6962726174696F6E20436F6D706C6560
:10FE5E007465200057454D33303830204472697632
:10FE6E0065722020202020200025732020202020B5
:10FE7E00202020202020202020202020200025733C
:10FE8E00202573202020202020202020202020200C
:10FE9E00202000506F7274202573202020202020F7
:10FEAE002020202020202000424D43426F617264AA
:10FEBE0020447269766572202020202000526561F0
:10FECE006420454550524F4D20444154412020203E
:10FEDE002000577269746520454550524F4D20449D
:10FEEE0041544120202000557064617465204545C1
:10FEFE0050524F4D2044415441202000496E7661AE
:10FF0E006C696420454550524F4D20444154412068
:10FF1E0000504F5745524D2044726976657220202D
:10FF2E002020202000454D353430204472697665FE
:10FF3E007220202020202020002573202020202029
:10FF4E0020202020202020202020202000505A4534
:10FF5E004D204472697665722020202020200041B9
:10FF6E00707220323220323032360031313A33382C
:10FF7E003A353200434F4D4D202020004552524F0E
:10FF8E00522020004F4E4C494E45200052454D4FB9
:10FF9E005445200044495341424C45004F46464C7F
:10FFAE00494E4500286E756C6C2900504F574552CE
:10FFBE004D0057454D333000343751383400353706
:10FFCE005138340056302E363500505A454D0056B5
:10FFDE00302E370056302E3800494E46004E414ED8
:10FFEE0000696E66006E616E00474D540025730009
:01FFFE000002
:020000040001F9
:1000000000019451D8BC05D0010E0701806F210E6C
:100010009C6F49EC02F09F94F7EC11F0D68ED68CD1
:10002000BF82BF84BF864AEC0DF0B0EC0EF0000E2C
:100030006100A2F3FDFB22EEF2F1070EDE6AE80694
:10004000FDE20701FB6BFB51020DF3C4FAF6F4C4A9
:10005000FBF6000E0601FBBFFF0EFC6FFD6F000EEE
:10006000FA2505018E6F000E0601FB2105018F6F39
:100070002C0E0601FC210501906FE7ECF8F007015A
:10008000FB51020DC20EF324D96E090EF420DA6E74
:1000900005018EC5DEF48FC5DDF40701FB51020DAD
:1000A000C20EF324D96E090EF420DA6EDEC4FAF61D
:1000B000DDC4FBF60601FA510901F2270601FB51E6
:1000C0000901F323000EF423000EF523000EF6239E
:1000D000000EF723000EF823000EF9230701FB2B77
:1000E000080EFB65B0D7F2C957F9F3C958F9F4C93E
:1000F00059F9F5C95AF9F6C95BF9F7C95CF9F8C9B4
:100100005DF9F9C95EF9FC0E05018E6FFF0E8F6F68
:100110003F0E906FE7ECF8F08EC555F98FC556F994
:10012000FE0E8E6FFF0E8F6F3F0E906FE7ECF8F0B4
:100130008EC553F98FC554F9050E0901531904E111
:10014000990E5419D8B42DD0040E531906E1990E06
:100150005419D8A402D0508524D05069000E566F8F
:100160005569FF0E576F000E586F000E596F000E45
:100170005A6F000E5B6F000E5C6F000E5D6F000E1D
:100180005E6FFF0EF26FFF0EF36FFF0EF46FFF0E48
:10019000F56F000EF66F000EF76F000EF86F000E91
:1001A000F96F57C9B3F558C9B4F559C9B5F55AC966
:1001B000B6F55BC9B7F55CC9B8F55DC9B9F55EC9F7
:1001C000BAF537ECE0F00701BF6F74D0400E610064
:1001D000A2F30BFE1A0E6100A2F30CFE000E6100EA
:1001E000A2F30DFEC80E6100A2F311FE910E610094
:1001F000A2F312FE010E6100A2F313FE300E6100A5
:10020000A2F30EFE150E6100A2F30FFE000E43D006
:100210005A0E6100A2F30BFE170E6100A2F30CFE52
:10022000000E6100A2F30DFEE00E6100A2F311FECC
:10023000200E6100A2F312FE000E6100A2F313FE75
:10024000F80E6100A2F30EFE140E6100A2F30FFE81
:10025000000E21D0EE0E6100A2F30BFE160E61001F
