:0400000085EF00F098
:10000800C27CC27CC27CC27CC27CC27CC27C817B3A
:10001800C27CC27C6A787878C27CC27CC27CC27C92
:100028008678C27CC27CC27C4E78C27C5C78C27CFA
:10003800C27CC27CC27CC27C8477C27CC27CF977D9
:100048001F791179C27CC27CC27CC27CC27CC27C12
:100058004879C27C3A79C27CFB75C27CC27CC27C7E
:10006800C27CC27CC27CC27C9478A278B078C27C04
:10007800C27CC27CC27CC27C4200C27CC27CC27C84
:10008800C27CC27CC27CC27C7477C27CC27CC27CCB
:1000980064795679C27CC27C4200C27CC27CC27C34
:1000A800C27CC27CC27CC27CBE78CC78DA78C27C46
:1000B800C27CC27CC27C5477C27CC27CC27CC27CBB
:1000C800C27CC27CC27CC27CC27CC27CC27CC27C38
:1000D800C27CC27CC27CC27CC27CC27CC27CC27C28
:1000E8004200C27CC27CC27CC27CC27CC27CC27C14
:1000F800BA7CC27CC27C9A7BC27CC27CC27CC27C39
:06010800FF00E8EFC0F06B
:10D1D0000000C0C101C30302C2C60607C705C5C41B
:10D1E00004CC0C0DCD0FCFCE0E0ACACB0BC909084B
:10D1F000C8D81819D91BDBDA1A1EDEDF1FDD1D1C8B
:10D20000DC14D4D515D71716D6D21213D311D1D01A
:10D2100010F03031F133F3F23236F6F737F53534BA
:10D22000F43CFCFD3DFF3F3EFEFA3A3BFB39F9F88A
:10D230003828E8E929EB2B2AEAEE2E2FEF2DEDEC2A
:10D240002CE42425E527E7E62622E2E323E121205A
:10D25000E0A06061A163A3A26266A6A767A565645A
:10D26000A46CACAD6DAF6F6EAEAA6A6BAB69A9A8CA
:10D270006878B8B979BB7B7ABABE7E7FBF7DBDBC0A
:10D280007CB47475B577B7B67672B2B373B171709A
:10D29000B0509091519353529296565797559594FA
:10D2A000549C5C5D9D5F9F9E5E5A9A9B5B9959580A
:10D2B00098884849894B8B8A4A4E8E8F4F8D4D4CAA
:10D2C0008C448485458747468682424383418180DA
:10D2D0004000C1814001C0804101C0804100C18146
:10D2E0004001C0804100C1814000C1814001C08037
:10D2F0004101C0804100C1814000C1814001C08026
:10D300004100C1814001C0804101C0804100C18114
:10D310004001C0804100C1814000C1814001C08006
:10D320004100C1814001C0804101C0804100C181F4
:10D330004000C1814001C0804101C0804100C181E5
:10D340004001C0804100C1814000C1814001C080D6
:10D350004101C0804100C1814000C1814001C080C5
:10D360004100C1814001C0804101C0804100C181B4
:10D370004000C1814001C0804101C0804100C181A5
:10D380004001C0804100C1814000C1814001C08096
:10D390004100C1814001C0804101C0804100C18184
:10D3A0004001C0804100C1814000C1814001C08076
:10D3B0004101C0804100C1814000C1814001C08065
:10D3C0004100C1814001C0804101C0804100C18154
:10D3D0004000C0C101C30302C2C60607C705C5C4D9
:10D3E00004CC0C0DCD0FCFCE0E0ACACB0BC9090849
:10D3F000C8D81819D91BDBDA1A1EDEDF1FDD1D1C89
:10D40000DC14D4D515D71716D6D21213D311D1D018
:10D4100010F03031F133F3F23236F6F737F53534B8
:10D42000F43CFCFD3DFF3F3EFEFA3A3BFB39F9F888
:10D430003828E8E929EB2B2AEAEE2E2FEF2DEDEC28
:10D440002CE42425E527E7E62622E2E323E1212058
:10D45000E0A06061A163A3A26266A6A767A5656458
:10D46000A46CACAD6DAF6F6EAEAA6A6BAB69A9A8C8
:10D470006878B8B979BB7B7ABABE7E7FBF7DBDBC08
:10D480007CB47475B577B7B67672B2B373B1717098
:10D49000B0509091519353529296565797559594F8
:10D4A000549C5C5D9D5F9F9E5E5A9A9B5B99595808
:10D4B00098884849894B8B8A4A4E8E8F4F8D4D4CA8
:10D4C0008C448485458747468682424383418180D8
:10D4D0004000C1814001C0804101C0804100C18144
:10D4E0004001C0804100C1814000C1814001C08035
:10D4F0004101C0804100C1814000C1814001C08024
:10D500004100C1814001C0804101C0804100C18112
:10D510004001C0804100C1814000C1814001C08004
:10D520004100C1814001C0804101C0804100C181F2
:10D530004000C1814001C0804101C0804100C181E3
:10D540004001C0804100C1814000C1814001C080D4
:10D550004101C0804100C1814000C1814001C080C3
:10D560004100C1814001C0804101C0804100C181B2
:10D570004000C1814001C0804101C0804100C181A3
:10D580004001C0804100C1814000C1814001C08094
:10D590004100C1814001C0804101C0804100C18182
:10D5A0004001C0804100C1814000C1814001C08074
:10D5B0004101C0804100C1814000C1814001C08063
:10D5C0004100C1814001C0804101C0804100C18152
:10D5D0004000C0C101C30302C2C60607C705C5C4D7
:10D5E00004CC0C0DCD0FCFCE0E0ACACB0BC9090847
:10D5F000C8D81819D91BDBDA1A1EDEDF1FDD1D1C87
:10D60000DC14D4D515D71716D6D21213D311D1D016
:10D6100010F03031F133F3F23236F6F737F53534B6
:10D62000F43CFCFD3DFF3F3EFEFA3A3BFB39F9F886
:10D630003828E8E929EB2B2AEAEE2E2FEF2DEDEC26
:10D640002CE42425E527E7E62622E2E323E1212056
:10D65000E0A06061A163A3A26266A6A767A5656456
:10D66000A46CACAD6DAF6F6EAEAA6A6BAB69A9A8C6
:10D670006878B8B979BB7B7ABABE7E7FBF7DBDBC06
:10D680007CB47475B577B7B67672B2B373B1717096
:10D69000B0509091519353529296565797559594F6
:10D6A000549C5C5D9D5F9F9E5E5A9A9B5B99595806
:10D6B00098884849894B8B8A4A4E8E8F4F8D4D4CA6
:10D6C0008C448485458747468682424383418180D6
:10D6D0004000C1814001C0804101C0804100C18142
:10D6E0004001C0804100C1814000C1814001C08033
:10D6F0004101C0804100C1814000C1814001C08022
:10D700004100C1814001C0804101C0804100C18110
:10D710004001C0804100C1814000C1814001C08002
:10D720004100C1814001C0804101C0804100C181F0
:10D730004000C1814001C0804101C0804100C181E1
:10D740004001C0804100C1814000C1814001C080D2
:10D750004101C0804100C1814000C1814001C080C1
:10D760004100C1814001C0804101C0804100C181B0
:10D770004000C1814001C0804101C0804100C181A1
:10D780004001C0804100C1814000C1814001C08092
:10D790004100C1814001C0804101C0804100C18180
:10D7A0004001C0804100C1814000C1814001C08072
:10D7B0004101C0804100C1814000C1814001C08061
:10D7C0004100C1814001C0804101C0804100C18150
:10D7D0004000C0C101C30302C2C60607C705C5C4D5
:10D7E00004CC0C0DCD0FCFCE0E0ACACB0BC9090845
:10D7F000C8D81819D91BDBDA1A1EDEDF1FDD1D1C85
:10D80000DC14D4D515D71716D6D21213D311D1D014
:10D8100010F03031F133F3F23236F6F737F53534B4
:10D82000F43CFCFD3DFF3F3EFEFA3A3BFB39F9F884
:10D830003828E8E929EB2B2AEAEE2E2FEF2DEDEC24
:10D840002CE42425E527E7E62622E2E323E1212054
:10D85000E0A06061A163A3A26266A6A767A5656454
:10D86000A46CACAD6DAF6F6EAEAA6A6BAB69A9A8C4
:10D870006878B8B979BB7B7ABABE7E7FBF7DBDBC04
:10D880007CB47475B577B7B67672B2B373B1717094
:10D89000B0509091519353529296565797559594F4
:10D8A000549C5C5D9D5F9F9E5E5A9A9B5B99595804
:10D8B00098884849894B8B8A4A4E8E8F4F8D4D4CA4
:10D8C0008C448485458747468682424383418180D4
:10D8D0004000C1814001C0804101C0804100C18140
:10D8E0004001C0804100C1814000C1814001C08031
:10D8F0004101C0804100C1814000C1814001C08020
:10D900004100C1814001C0804101C0804100C1810E
:10D910004001C0804100C1814000C1814001C08000
:10D920004100C1814001C0804101C0804100C181EE
:10D930004000C1814001C0804101C0804100C181DF
:10D940004001C0804100C1814000C1814001C080D0
:10D950004101C0804100C1814000C1814001C080BF
:10D960004100C1814001C0804101C0804100C181AE
:10D970004000C1814001C0804101C0804100C1819F
:10D980004001C0804100C1814000C1814001C08090
:10D990004100C1814001C0804101C0804100C1817E
:10D9A0004001C0804100C1814000C1814001C08070
:10D9B0004101C0804100C1814000C1814001C0805F
:10D9C0004100C1814001C0804101C0804100C1814E
:10D9D0004000C0C101C30302C2C60607C705C5C4D3
:10D9E00004CC0C0DCD0FCFCE0E0ACACB0BC9090843
:10D9F000C8D81819D91BDBDA1A1EDEDF1FDD1D1C83
:10DA0000DC14D4D515D71716D6D21213D311D1D012
:10DA100010F03031F133F3F23236F6F737F53534B2
:10DA2000F43CFCFD3DFF3F3EFEFA3A3BFB39F9F882
:10DA30003828E8E929EB2B2AEAEE2E2FEF2DEDEC22
:10DA40002CE42425E527E7E62622E2E323E1212052
:10DA5000E0A06061A163A3A26266A6A767A5656452
:10DA6000A46CACAD6DAF6F6EAEAA6A6BAB69A9A8C2
:10DA70006878B8B979BB7B7ABABE7E7FBF7DBDBC02
:10DA80007CB47475B577B7B67672B2B373B1717092
:10DA9000B0509091519353529296565797559594F2
:10DAA000549C5C5D9D5F9F9E5E5A9A9B5B99595802
:10DAB00098884849894B8B8A4A4E8E8F4F8D4D4CA2
:10DAC0008C448485458747468682424383418180D2
:10DAD0004000C1814001C0804101C0804100C1813E
:10DAE0004001C0804100C1814000C1814001C0802F
:10DAF0004101C0804100C1814000C1814001C0801E
:10DB00004100C1814001C0804101C0804100C1810C
:10DB10004001C0804100C1814000C1814001C080FE
:10DB20004100C1814001C0804101C0804100C181EC
:10DB30004000C1814001C0804101C0804100C181DD
:10DB40004001C0804100C1814000C1814001C080CE
:10DB50004101C0804100C1814000C1814001C080BD
:10DB60004100C1814001C0804101C0804100C181AC
:10DB70004000C1814001C0804101C0804100C1819D
:10DB80004001C0804100C1814000C1814001C0808E
:10DB90004100C1814001C0804101C0804100C1817C
:10DBA0004001C0804100C1814000C1814001C0806E
:10DBB0004101C0804100C1814000C1814001C0805D
:10DBC0004100C1814001C0804101C0804100C1814C
:10DBD0004000C0C101C30302C2C60607C705C5C4D1
:10DBE00004CC0C0DCD0FCFCE0E0ACACB0BC9090841
:10DBF000C8D81819D91BDBDA1A1EDEDF1FDD1D1C81
:10DC0000DC14D4D515D71716D6D21213D311D1D010
:10DC100010F03031F133F3F23236F6F737F53534B0
:10DC2000F43CFCFD3DFF3F3EFEFA3A3BFB39F9F880
:10DC30003828E8E929EB2B2AEAEE2E2FEF2DEDEC20
:10DC40002CE42425E527E7E62622E2E323E1212050
:10DC5000E0A06061A163A3A26266A6A767A5656450
:10DC6000A46CACAD6DAF6F6EAEAA6A6BAB69A9A8C0
:10DC70006878B8B979BB7B7ABABE7E7FBF7DBDBC00
:10DC80007CB47475B577B7B67672B2B373B1717090
:10DC9000B0509091519353529296565797559594F0
:10DCA000549C5C5D9D5F9F9E5E5A9A9B5B99595800
:10DCB00098884849894B8B8A4A4E8E8F4F8D4D4CA0
:10DCC0008C448485458747468682424383418180D0
:10DCD0004000C1814001C0804101C0804100C1813C
:10DCE0004001C0804100C1814000C1814001C0802D
:10DCF0004101C0804100C1814000C1814001C0801C
:10DD00004100C1814001C0804101C0804100C1810A
:10DD10004001C0804100C1814000C1814001C080FC
:10DD20004100C1814001C0804101C0804100C181EA
:10DD30004000C1814001C0804101C0804100C181DB
:10DD40004001C0804100C1814000C1814001C080CC
:10DD50004101C0804100C1814000C1814001C080BB
:10DD60004100C1814001C0804101C0804100C181AA
:10DD70004000C1814001C0804101C0804100C1819B
:10DD80004001C0804100C1814000C1814001C0808C
:10DD90004100C1814001C0804101C0804100C1817A
:10DDA0004001C0804100C1814000C1814001C0806C
:10DDB0004101C0804100C1814000C1814001C0805B
:10DDC0004100C1814001C0804101C0804100C1814A
:10DDD0004000C0C101C30302C2C60607C705C5C4CF
:10DDE00004CC0C0DCD0FCFCE0E0ACACB0BC909083F
:10DDF000C8D81819D91BDBDA1A1EDEDF1FDD1D1C7F
:10DE0000DC14D4D515D71716D6D21213D311D1D00E
:10DE100010F03031F133F3F23236F6F737F53534AE
:10DE2000F43CFCFD3DFF3F3EFEFA3A3BFB39F9F87E
:10DE30003828E8E929EB2B2AEAEE2E2FEF2DEDEC1E
:10DE40002CE42425E527E7E62622E2E323E121204E
:10DE5000E0A06061A163A3A26266A6A767A565644E
:10DE6000A46CACAD6DAF6F6EAEAA6A6BAB69A9A8BE
:10DE70006878B8B979BB7B7ABABE7E7FBF7DBDBCFE
:10DE80007CB47475B577B7B67672B2B373B171708E
:10DE9000B0509091519353529296565797559594EE
:10DEA000549C5C5D9D5F9F9E5E5A9A9B5B995958FE
:10DEB00098884849894B8B8A4A4E8E8F4F8D4D4C9E
:10DEC0008C448485458747468682424383418180CE
:10DED0004000C1814001C0804101C0804100C1813A
:10DEE0004001C0804100C1814000C1814001C0802B
:10DEF0004101C0804100C1814000C1814001C0801A
:10DF00004100C1814001C0804101C0804100C18108
:10DF10004001C0804100C1814000C1814001C080FA
:10DF20004100C1814001C0804101C0804100C181E8
:10DF30004000C1814001C0804101C0804100C181D9
:10DF40004001C0804100C1814000C1814001C080CA
:10DF50004101C0804100C1814000C1814001C080B9
:10DF60004100C1814001C0804101C0804100C181A8
:10DF70004000C1814001C0804101C0804100C18199
:10DF80004001C0804100C1814000C1814001C0808A
:10DF90004100C1814001C0804101C0804100C18178
:10DFA0004001C0804100C1814000C1814001C0806A
:10DFB0004101C0804100C1814000C1814001C08059
:10DFC0004100C1814001C0804101C0804100C18148
:10DFD0004000C0C101C30302C2C60607C705C5C4CD
:10DFE00004CC0C0DCD0FCFCE0E0ACACB0BC909083D
:10DFF000C8D81819D91BDBDA1A1EDEDF1FDD1D1C7D
:10E00000DC14D4D515D71716D6D21213D311D1D00C
:10E0100010F03031F133F3F23236F6F737F53534AC
:10E02000F43CFCFD3DFF3F3EFEFA3A3BFB39F9F87C
:10E030003828E8E929EB2B2AEAEE2E2FEF2DEDEC1C
:10E040002CE42425E527E7E62622E2E323E121204C
:10E05000E0A06061A163A3A26266A6A767A565644C
:10E06000A46CACAD6DAF6F6EAEAA6A6BAB69A9A8BC
:10E070006878B8B979BB7B7ABABE7E7FBF7DBDBCFC
:10E080007CB47475B577B7B67672B2B373B171708C
:10E09000B0509091519353529296565797559594EC
:10E0A000549C5C5D9D5F9F9E5E5A9A9B5B995958FC
:10E0B00098884849894B8B8A4A4E8E8F4F8D4D4C9C
:10E0C0008C448485458747468682424383418180CC
:10E0D0004000C1814001C0804101C0804100C18138
:10E0E0004001C0804100C1814000C1814001C08029
:10E0F0004101C0804100C1814000C1814001C08018
:10E100004100C1814001C0804101C0804100C18106
:10E110004001C0804100C1814000C1814001C080F8
:10E120004100C1814001C0804101C0804100C181E6
:10E130004000C1814001C0804101C0804100C181D7
:10E140004001C0804100C1814000C1814001C080C8
:10E150004101C0804100C1814000C1814001C080B7
:10E160004100C1814001C0804101C0804100C181A6
:10E170004000C1814001C0804101C0804100C18197
:10E180004001C0804100C1814000C1814001C08088
:10E190004100C1814001C0804101C0804100C18176
:10E1A0004001C0804100C1814000C1814001C08068
:10E1B0004101C0804100C1814000C1814001C08057
:10E1C0004100C1814001C0804101C0804100C18146
:10E1D0004000C0C101C30302C2C60607C705C5C4CB
:10E1E00004CC0C0DCD0FCFCE0E0ACACB0BC909083B
:10E1F000C8D81819D91BDBDA1A1EDEDF1FDD1D1C7B
:10E20000DC14D4D515D71716D6D21213D311D1D00A
:10E2100010F03031F133F3F23236F6F737F53534AA
:10E22000F43CFCFD3DFF3F3EFEFA3A3BFB39F9F87A
:10E230003828E8E929EB2B2AEAEE2E2FEF2DEDEC1A
:10E240002CE42425E527E7E62622E2E323E121204A
:10E25000E0A06061A163A3A26266A6A767A565644A
:10E26000A46CACAD6DAF6F6EAEAA6A6BAB69A9A8BA
:10E270006878B8B979BB7B7ABABE7E7FBF7DBDBCFA
:10E280007CB47475B577B7B67672B2B373B171708A
:10E29000B0509091519353529296565797559594EA
:10E2A000549C5C5D9D5F9F9E5E5A9A9B5B995958FA
:10E2B00098884849894B8B8A4A4E8E8F4F8D4D4C9A
:10E2C0008C448485458747468682424383418180CA
:10E2D0004000C1814001C0804101C0804100C18136
:10E2E0004001C0804100C1814000C1814001C08027
:10E2F0004101C0804100C1814000C1814001C08016
:10E300004100C1814001C0804101C0804100C18104
:10E310004001C0804100C1814000C1814001C080F6
:10E320004100C1814001C0804101C0804100C181E4
:10E330004000C1814001C0804101C0804100C181D5
:10E340004001C0804100C1814000C1814001C080C6
:10E350004101C0804100C1814000C1814001C080B5
:10E360004100C1814001C0804101C0804100C181A4
:10E370004000C1814001C0804101C0804100C18195
:10E380004001C0804100C1814000C1814001C08086
:10E390004100C1814001C0804101C0804100C18174
:10E3A0004001C0804100C1814000C1814001C08066
:10E3B0004101C0804100C1814000C1814001C08055
:10E3C0004100C1814001C0804101C0804100C18144
:10E3D0004000C0C101C30302C2C60607C705C5C4C9
:10E3E00004CC0C0DCD0FCFCE0E0ACACB0BC9090839
:10E3F000C8D81819D91BDBDA1A1EDEDF1FDD1D1C79
:10E40000DC14D4D515D71716D6D21213D311D1D008
:10E4100010F03031F133F3F23236F6F737F53534A8
:10E42000F43CFCFD3DFF3F3EFEFA3A3BFB39F9F878
:10E430003828E8E929EB2B2AEAEE2E2FEF2DEDEC18
:10E440002CE42425E527E7E62622E2E323E1212048
:10E45000E0A06061A163A3A26266A6A767A5656448
:10E46000A46CACAD6DAF6F6EAEAA6A6BAB69A9A8B8
:10E470006878B8B979BB7B7ABABE7E7FBF7DBDBCF8
:10E480007CB47475B577B7B67672B2B373B1717088
:10E49000B0509091519353529296565797559594E8
:10E4A000549C5C5D9D5F9F9E5E5A9A9B5B995958F8
:10E4B00098884849894B8B8A4A4E8E8F4F8D4D4C98
:10E4C0008C448485458747468682424383418180C8
:10E4D0004000C1814001C0804101C0804100C18134
:10E4E0004001C0804100C1814000C1814001C08025
:10E4F0004101C0804100C1814000C1814001C08014
:10E500004100C1814001C0804101C0804100C18102
:10E510004001C0804100C1814000C1814001C080F4
:10E520004100C1814001C0804101C0804100C181E2
:10E530004000C1814001C0804101C0804100C181D3
:10E540004001C0804100C1814000C1814001C080C4
:10E550004101C0804100C1814000C1814001C080B3
:10E560004100C1814001C0804101C0804100C181A2
:10E570004000C1814001C0804101C0804100C18193
:10E580004001C0804100C1814000C1814001C08084
:10E590004100C1814001C0804101C0804100C18172
:10E5A0004001C0804100C1814000C1814001C08064
:10E5B0004101C0804100C1814000C1814001C08053
:10E5C0004100C1814001C0804101C0804100C18142
:10E5D0004000C0C101C30302C2C60607C705C5C4C7
:10E5E00004CC0C0DCD0FCFCE0E0ACACB0BC9090837
:10E5F000C8D81819D91BDBDA1A1EDEDF1FDD1D1C77
:10E60000DC14D4D515D71716D6D21213D311D1D006
:10E6100010F03031F133F3F23236F6F737F53534A6
:10E62000F43CFCFD3DFF3F3EFEFA3A3BFB39F9F876
:10E630003828E8E929EB2B2AEAEE2E2FEF2DEDEC16
:10E640002CE42425E527E7E62622E2E323E1212046
:10E65000E0A06061A163A3A26266A6A767A5656446
:10E66000A46CACAD6DAF6F6EAEAA6A6BAB69A9A8B6
:10E670006878B8B979BB7B7ABABE7E7FBF7DBDBCF6
:10E680007CB47475B577B7B67672B2B373B1717086
:10E69000B0509091519353529296565797559594E6
:10E6A000549C5C5D9D5F9F9E5E5A9A9B5B995958F6
:10E6B00098884849894B8B8A4A4E8E8F4F8D4D4C96
:10E6C0008C448485458747468682424383418180C6
:10E6D0004000C1814001C0804101C0804100C18132
:10E6E0004001C0804100C1814000C1814001C08023
:10E6F0004101C0804100C1814000C1814001C08012
:10E700004100C1814001C0804101C0804100C18100
:10E710004001C0804100C1814000C1814001C080F2
:10E720004100C1814001C0804101C0804100C181E0
:10E730004000C1814001C0804101C0804100C181D1
:10E740004001C0804100C1814000C1814001C080C2
:10E750004101C0804100C1814000C1814001C080B1
:10E760004100C1814001C0804101C0804100C181A0
:10E770004000C1814001C0804101C0804100C18191
:10E780004001C0804100C1814000C1814001C08082
:10E790004100C1814001C0804101C0804100C18170
:10E7A0004001C0804100C1814000C1814001C08062
:10E7B0004101C0804100C1814000C1814001C08051
:10E7C0004100C1814001C0804101C0804100C18140
:10E7D0004000C0C101C30302C2C60607C705C5C4C5
:10E7E00004CC0C0DCD0FCFCE0E0ACACB0BC9090835
:10E7F000C8D81819D91BDBDA1A1EDEDF1FDD1D1C75
:10E80000DC14D4D515D71716D6D21213D311D1D004
:10E8100010F03031F133F3F23236F6F737F53534A4
:10E82000F43CFCFD3DFF3F3EFEFA3A3BFB39F9F874
:10E830003828E8E929EB2B2AEAEE2E2FEF2DEDEC14
:10E840002CE42425E527E7E62622E2E323E1212044
:10E85000E0A06061A163A3A26266A6A767A5656444
:10E86000A46CACAD6DAF6F6EAEAA6A6BAB69A9A8B4
:10E870006878B8B979BB7B7ABABE7E7FBF7DBDBCF4
:10E880007CB47475B577B7B67672B2B373B1717084
:10E89000B0509091519353529296565797559594E4
:10E8A000549C5C5D9D5F9F9E5E5A9A9B5B995958F4
:10E8B00098884849894B8B8A4A4E8E8F4F8D4D4C94
:10E8C0008C448485458747468682424383418180C4
:10E8D0004000C1814001C0804101C0804100C18130
:10E8E0004001C0804100C1814000C1814001C08021
:10E8F0004101C0804100C1814000C1814001C08010
:10E900004100C1814001C0804101C0804100C181FE
:10E910004001C0804100C1814000C1814001C080F0
:10E920004100C1814001C0804101C0804100C181DE
:10E930004000C1814001C0804101C0804100C181CF
:10E940004001C0804100C1814000C1814001C080C0
:10E950004101C0804100C1814000C1814001C080AF
:10E960004100C1814001C0804101C0804100C1819E
:10E970004000C1814001C0804101C0804100C1818F
:10E980004001C0804100C1814000C1814001C08080
:10E990004100C1814001C0804101C0804100C1816E
:10E9A0004001C0804100C1814000C1814001C08060
:10E9B0004101C0804100C1814000C1814001C0804F
:10E9C0004100C1814001C0804101C0804100C1813E
:10E9D0004000C0C101C30302C2C60607C705C5C4C3
:10E9E00004CC0C0DCD0FCFCE0E0ACACB0BC9090833
:10E9F000C8D81819D91BDBDA1A1EDEDF1FDD1D1C73
:10EA0000DC14D4D515D71716D6D21213D311D1D002
:10EA100010F03031F133F3F23236F6F737F53534A2
:10EA2000F43CFCFD3DFF3F3EFEFA3A3BFB39F9F872
:10EA30003828E8E929EB2B2AEAEE2E2FEF2DEDEC12
:10EA40002CE42425E527E7E62622E2E323E1212042
:10EA5000E0A06061A163A3A26266A6A767A5656442
:10EA6000A46CACAD6DAF6F6EAEAA6A6BAB69A9A8B2
:10EA70006878B8B979BB7B7ABABE7E7FBF7DBDBCF2
:10EA80007CB47475B577B7B67672B2B373B1717082
:10EA9000B0509091519353529296565797559594E2
:10EAA000549C5C5D9D5F9F9E5E5A9A9B5B995958F2
:10EAB00098884849894B8B8A4A4E8E8F4F8D4D4C92
:10EAC0008C448485458747468682424383418180C2
:10EAD0004000C1814001C0804101C0804100C1812E
:10EAE0004001C0804100C1814000C1814001C0801F
:10EAF0004101C0804100C1814000C1814001C0800E
:10EB00004100C1814001C0804101C0804100C181FC
:10EB10004001C0804100C1814000C1814001C080EE
:10EB20004100C1814001C0804101C0804100C181DC
:10EB30004000C1814001C0804101C0804100C181CD
:10EB40004001C0804100C1814000C1814001C080BE
:10EB50004101C0804100C1814000C1814001C080AD
:10EB60004100C1814001C0804101C0804100C1819C
:10EB70004000C1814001C0804101C0804100C1818D
:10EB80004001C0804100C1814000C1814001C0807E
:10EB90004100C1814001C0804101C0804100C1816C
:10EBA0004001C0804100C1814000C1814001C0805E
:10EBB0004101C0804100C1814000C1814001C0804D
:10EBC0004100C1814001C0804101C0804100C1813C
:10EBD00040010300000000000000000000000000F1
:10EBE0000000000000000000000000000000000025
:10EBF0000000000000000000000000000000000015
:10EC00000000000000000000000000000000000004
:10EC100000000000000000000000000000000000F4
:10EC200000000000000000000000000000000000E4
:10EC300000000000000000000000000000000000D4
:10EC400000000000000000000000000000000000C4
:10EC500000000000000000000000000000000000B4
:10EC600000000000000000000000010300000000A0
:10EC70000000000000000000000000000000000094
:10EC80000000000000000000000000000000000084
:10EC90000000000000000000000000000000000074
:10ECA0000000000000000000000000000000000064
:10ECB0000000000000000000000000000000000054
:10ECC0000000000000000000000000000000000044
:10ECD0000000000000000000000000000000000034
:10ECE0000000000000000000000000000000000123
:10ECF0000300000000000000000000000000000011
:10ED00000000000000000000000000000000000003
:10ED100000000000000000000000000000000000F3
:10ED200000000000000000000000000000000000E3
:10ED300000000000000000000000000000000000D3
:10ED400000000000000000000000000000000000C3
:10ED50000000000000000000000000000AD7233C73
:10ED6000CDCCCC3DCDCC4C3E9A99993E0000003F95
:10ED70009A99193F6666263F3333333F6666663F8E
:10ED8000A4707D3F0000803F0000803F0000A04154
:10ED90000000C841CDCCC8416666CA410000CC41E4
:10EDA0006666CE410000D0419A99D141CDCCD44184
:10EDB0006666D6419A99D94100000C4225732025F8
:10EDC00064202573202020202020202020202020A7
:10EDD0002020202020202020202020202020202033
:10EDE00020202020202020202020004F4E4C494E63
:10EDF00045204125642C2052256420524625642C50
:10EE00002054256420544625642C20432564202565
:10EE100064202573202020202000486F7374204137
:10EE200025642C2052256420524625642C2054252C
:10EE30006420544625642C20432564202564202525
:10EE4000732020202020202000554E4B20464F527A
:10EE50004D4154204125642C2052256420524625E2
:10EE6000642C2054256420544625642C20432564BA
:10EE700020257320202000257320257320202020AA
:10EE80002020202020202020202020202020202082
:10EE90002020202020202020202020202020202072
:10EEA00020002573202573202020202020202020D2
:10EEB0002020202020202020202020202020202052
:10EEC0002020202020202020200056332E303120EA
:10EED000464D783020696E746572666163652051B5
:10EEE0003834004F66666C696E65000000000043B0
:10EEF000414E425553000000000000010300000095
:10EF00000000000000000000000000000000000001
:10EF1000000103000000D600000001000000DA003C
:10EF2000000103000000D600000000000000D9002E
:10EF30001F1E1F1E1F1F1E1F1E1F1F1D000300045C
:10EF40000001C41A010600000000000001060000D4
:10EF500000000000010600000000000001030000A6
:10EF600000000001030000000000832003040000F3
:10EF700024050001832403040000008841CD0C0512
:10EF800043E561214000000000000080450000884A
:10EF900041CD0C0543E56121400080804200808026
:10EFA00042000000000000804500008841CD0C05B3
:10EFB00043E56121400080804200808042000000E3
:10EFC000000000804500008841CD0C0543E561212B
:10EFD00040008080420080804200000000000080ED
:10EFE00045BC000000BA7FFFFEC80080003400006E
:10EFF0000000008841CD0C0543E561214000808080
:10F00000420080804200000000000080450000882F
:10F0100041CD0C0543E561214000808042008080A5
:10F0200042000000000000804500008841CD0C0532
:10F0300043E5612140008080420080804200000062
:10F04000000000804500008841CD0C0543E56121AA
:10F05000400080804200808042000000000000806C
:10F060004500008841CD0C0543E5612140008080CA
:10F0700042008080420000000000008045000088BF
:10F0800041CD0C0543E56121400080804200808035
:10F090004200000000000080450000884100008020
:10F0A0004518000002008813040002002800B00484
:10F0B000020002000300B004DC05F4016400400615
:10F0C00060091027B80B3075059904990399B004AD
:10F0D000DC05F4016400400660091027B80B0599AF
:10F0E00004990399B004DC05F4016400400660094A
:10F0F0001027B80B059904990399B004DC05F401B5
:10F100006400400660091027B80B0599049903991B
:10F11000B004DC05F4016400400660091027B80B58
:10F12000059904990399B004DC05F40164004006D4
:10F1300060091027B80BB004DC05F4016400400638
:10F1400060091027B80B059904990399B004DC05F0
:10F15000F4016400400660091027B80BB004DC0518
:10F16000F4016400400660091027B80B307505995A
:10F1700004990399B004DC05F401640040066009B9
:10F180001027B80B02008813040002002800B00406
:10F190000200020003003075E8FF3C0023000599DF
:10F1A00004990399B004DC05F40164004006600989
:10F1B0001027B80BFF000228040228C80102465A93
:10F1C0002D01204601FF000228040228C80102FF89
:10F1D000000228040228C801028003C801070707AB
:10F1E000070707070D050440400FF001050F67FFF3
:10F1F0004010F0E0D0C0B0A0908000465A2D012011
:10F200004601FF000228040228C801020707070779
:10F210000707070D050440400FF001050F67FF4089
:10F2200010F0E0D0C0B0A0908000465A2D012046DA
:10F2300001FF000228040228C80102070707070788
:10F2400007070D050440400FF001050F67FF401050
:10F25000F0E0D0C0B0A0908000465A2D01204601B9
:10F26000FF000228040228C8010207070707070752
:10F27000070D050440400FF001050F67FF4010F037
:10F28000E0D0C0B0A0908000465A2D01204601FF7A
:10F29000000228040228C80102070707070707071A
:10F2A0000D050440400FF001050F67FF4010F0E02E
:10F2B000D0C0B0A0908000465A2D01204601FF002A
:10F2C0000228040228C80102465A2D01204601FFE7
:10F2D000000228040228C8010207070707070707DA
:10F2E0000D050440400FF001050F67FF4010F0E0EE
:10F2F000D0C0B0A0908000465A2D01204601FF00EA
:10F300000228040228C80102465A2D01204601FFA6
:10F31000000228040228C801028003C80107070769
:10F32000070707070D050440400FF001050F67FFB1
:10F330004010F0E0D0C0B0A0908000465A2D0120CF
:10F340004601FF000228040228C801028003C80108
:10F35000070707070707070D050440400FF00105E1
:10F360000F67FF4010F0E0D0C0B0A0908000465A78
:10F370002D01204601FF000228040228C801025E78
:10F380002C25642C25332E32662C25332E32662C08
:10F3900025332E32662C25332E32662C25332E3221
:10F3A000662C25332E32662C25332E32662C2533DF
:10F3B0002E32662C25642E253031642C25642E25B2
:10F3C0003031642C25642E253031642C25642C25A5
:10F3D000642C25642C25642C25642C256C6C752CE0
:10F3E00025372E34662C25372E34662C25362E34C0
:10F3F000662C25372E34662C313935372C7E454F17
:10F4000054202020202020202020202020202020C8
:10F4100020202020202020202020202020202020EC
:10F4200020202020202020202020202020202020DC
:10F430002020200D0A005E2C25642C25332E3266F8
:10F440002C25332E32662C25332E32662C25332E76
:10F4500032662C25332E32662C25332E32662C252F
:10F46000332E32662C25332E32662C25642E253021
:10F4700031642C25642E253031642C25642E2530F2
:10F4800031642C25642C25642C25642C25642C25C2
:10F49000642C256C6C752C25372E34662C25372E64
:10F4A00034662C25362E34662C25372E34662C31C6
:10F4B0003935372C7E454F54202020202020202015
:10F4C000202020202020202020202020202020203C
:10F4D000202020202020202020202020202020202C
:10F4E000202020202020202020200D0A005E2C2516
:10F4F000642C25332E32662C25332E32662C253390
:10F500002E32662C25332E32662C25332E32662C75
:10F5100025332E32662C25332E32662C25332E329F
:10F52000662C25642E253031642C25642E2530313F
:10F53000642C25642E253031642C25642C25642C04
:10F5400025642C25642C25642C256C6C752C2536A3
:10F550002E34662C25362E34662C25362E34662C19
:10F5600025362E34662C313935372C7E454F5420C4
:10F57000202020202020202020202020202020208B
:10F58000202020202020202020202020202020207B
:10F59000202020202020202020202020202020206B
:10F5A000200D0A005E2C25642C25332E32662C2576
:10F5B000332E32662C25332E32662C25332E3266BE
:10F5C0002C25332E32662C25332E32662C25332EF5
:10F5D00032662C25332E32662C25642E253031647C
:10F5E0002C25642E253031642C25642E2530316481
:10F5F0002C25642C25642C25642C25642C25642C56
:10F60000256C6C752C25362E33662C25362E3366EC
:10F610002C25362E33662C25362E33662C31393583
:10F62000372C7E454F5420202020202020202020D1
:10F6300020202020202020202020202020202020CA
:10F6400020202020202020202020202020202020BA
:10F6500020202020202020200D0A007C7C2F2F2D10
:10F660002D00000000000000000000000000007CF1
:10F670007C2F2F2D2D5C5C0000000000000000009E
:10F680000000004F4F4F4F4F4F2D2D5F5F2D00005B
:10F690000000000000000076763C3C5E5E3E3E00CE
:10F6A00000000000000000000000002E2E2A2A7832
:10F6B00023782358587C7C2D2D0000000000002E5C
:10F6C0002E6F6F4F4F6F6F000000000000000000B2
:10F6D000000000536C6565700000000000000046EB
:10F6E0006C6F61740000000000000042756C6B00DC
:10F6F000000000000000004162736F7262000000B1
:10F70000000000457175616C697A65000000004E6B
:10F710002F412000000000000000004F66666C6969
:10F720006E65000000000045204D45544552000024
:10F730000000004F66666C696E65000000000046C0
:10F740004D78300000000000000000000103004080
:10F75000000200000001000000460000010200005D
:10F76000000400000000000000060000010200008C
:10F77000000300000000000000050000010200007E
:10F780000002000000000000000400000102000070
:10F790000000000000000000000200000102000163
:10F7A000006A000000000000006D0000010200017E
:10F7B00000C700000000000000CA000001020000B5
:10F7C0000008000000000000000A00000102000123
:10F7D00000C600000000000000C900000104000095
:10F7E000000100000000000000050000010200010F
:10F7F00000C800000000000000CB00000102000073
:10F80000000000000000000000020001100066007F
:10F8100002040000000075AD011000630002040046
:10F82000000000B5920110000C000204000000006E
:10F83000F3FA01030048004A010616040005010618
:10F840001000000001061002000001035000000833
:10F85000010305000040010300000034010303021E
:10F8600000010103000B0001008080420080804203
:10F870002DB2804239B480421FC58042CFB780424A
:10F880009A995E4266665E42E590584289C1584246
:10F8900073488042C5608042FC898042FC89804276
:10F8A0000080804200808042B4000002040000001A
:10F8B000020000010A000001C77FFFFFC57FFFFFB4
:10F8C000B4001000B77FFFFFB8000001C2000000C5
:10F8D000E4000001CD0C0543E56121400080804239
:10F8E00000808042000000000400000CFFFF0B00BD
:10F8F0000010FFFF40F7424D4320256C752020305B
:10F9000058252E3258202020202020202020202062
:10F9100020202020202020202020202020202020E7
:10F9200020200025322E31664B576820666C6F61AF
:10F93000742025332E3166682020202020202020AE
:10F9400020202020202020202020202020202000D7
:10F950000D2D2D2D20544943313234303020447246
:10F96000697665722056657273696F6E2025732003
:10F970002573202573202D2D2D0D0A000D2D2D2DE5
:10F98000204D43333339393620447269766572200D
:10F9900056657273696F6E20257320257320257359
:10F9A000202D2D2D0D0A004241542025642E253096
:10F9B0003164562050562025642E2530316456205F
:10F9C0002020202020202020202020202020202037
:10F9D0000025342E3266487A2025332E32664120A7
:10F9E00025642020202020202020202020202020CE
:10F9F00020202020202020202000342025362E33D7
:10FA000066562C352025362E3366562020202020A1
:10FA100020202020202020202020202020202020E6
:10FA20002000426D61782025755620426D696E2058
:10FA30002575562020202020202020202020202036
:10FA400020202020202020202000424D4320256C13
:10FA50007520202020202020202020202020202051
:10FA60002020202020202020202020202020202096
:10FA7000004F4620256C752045525220256C75207C
:10FA80002020202020202020202020202020202076
:10FA9000202020202020200020256C6C582052752A
:10FAA0006E20446973706C6179203058252E32586D
:10FAB00020202020202020202020202020004A61FB
:10FAC0006E4665624D61724170724D61794A756E24
:10FAD0004A756C4175675365704F63744E6F764419
:10FAE00065630025342E3166572025342E31665645
:10FAF000412025332E316650462020202020202012
:10FB00002020202020200025732056657220257398
:10FB100020202020202020202020202020202020E5
:10FB200020202020202020002573202573202564FC
:10FB30002E253031644120256441202020202020C2
:10FB4000202020202020202000204D6573672025C4
:10FB50006420537461636B202564202020202020C2
:10FB60002020202020202020004D554920256C6C8D
:10FB70005820504943202558202020202020202094
:10FB8000202020202020202000205465726D696EE6
:10FB9000616C20496E666F202020202020202020CC
:10FBA00020202020202000257320257320202020C5
:10FBB0002020202020202020202020202020202045
:10FBC000202020002048454C502053637265656E0C
:10FBD0003A202564202020202020202020202000E2
:10FBE00025732020202020202020202020202020BD
:10FBF00020202020202020202020200025732025C8
:10FC00006C645641432025332E326641202020204B
:10FC1000202020202020200020506F7274204C6F64
:10FC2000636B2023256420202020202020202020FA
:10FC3000202000205465726D696E616C202564205F
:10FC40002020202020202020202020200020434D84
:10FC500044202563202563204C656E2025642020E8
:10FC6000202020202020002025635049204441519D
:10FC70005F424D432025732020202020202020009B
:10FC800048454C5020257320202020202020202073
:10FC90002020202020202000204F70656E204C4C1A
:10FCA0002020202020202020202020202020200074
:10FCB0002050756D70204C4C2020202020202020CA
:10FCC0002020202020202000205265616479204CD3
:10FCD0004C20202020202020202020202020200018
:10FCE0002053324634312023256320202020202039
:10FCF0002020202020202000444953504C415920EE
:10FD000025732020202020202020202020202000BB
:10FD10002053746F726564202325642020202020E6
:10FD20002020202020202000767465726D20257808
:10FD30003A2578202020202020202020202020006C
:10FD40002053455155454E43452025642020202011
:10FD5000202020202020200020446973706C6179CD
:10FD6000206E756D2025642020202020202020007A
:10FD700020532564462564206C6F672020202025B1
:10FD80006420202020202000204C6F61642D6C6FA7
:10FD9000636B206E756D20256420202020202000BC
:10FDA00020257320202020202020202020202020FB
:10FDB0002020202020200020494E464F20202020B7
:10FDC000202020202020202020202020200020561D
:10FDD0005445524D20494E464F20202020202020BF
:10FDE000202020200020565445524D2048454C509C
:10FDF0002020202020202020202020002056657256
:10FE000073696F6E20257320202020202020202061
:10FE100020200020257320416C6C20446576202032
:10FE2000202020202020202020002048454C502049
:10FE30004275696C6420257320202020202020201A
:10FE40000020257320416E616C6F67204465762029
:10FE5000202020202020200053756E4D6F6E547599
:10FE60006557656454687546726953617400484506
:10FE70004C502025732020202020202020202020CE
:10FE80002020200043616C6962726174696F6E208A
:10FE9000436F6D706C657465200057454D33303885
:10FEA00030204472697665722020202020200025B1
:10FEB00073202020202020202020202020202020EF
:10FEC00020202000257320257320202020202020A2
:10FED000202020202020202000506F7274202573C5
:10FEE0002020202020202020202020202000424DE3
:10FEF00043426F61726420447269766572202020EB
:10FF00002020005265616420454550524F4D2044E9
:10FF100041544120202020005772697465204545D6
:10FF200050524F4D204441544120202000557064D0
:10FF300061746520454550524F4D20444154412045
:10FF40002000496E76616C696420454550524F4DE2
:10FF500020444154412000454D35343020447269DD
:10FF6000766572202020202020200025732020206C
:10FF70002020202020202020202020202020004D74
:10FF8000617220313020323032360031373A33322C
:10FF90003A313400434F4D4D202020004552524FFE
:10FFA000522020004F4E4C494E45200052454D4FA7
:10FFB0005445200044495341424C45004F46464C6D
:10FFC000494E4500286E756C6C2900343751383421
:10FFD0000035375138340056302E35370056302E24
:10FFE000370056302E3800494E46004E414E0069CB
:0FFFF0006E66006E616E00474D54002573000071
:020000040001F9
:1000000000019451D8BC05D0010E0701C86F210E24
:10001000FF6FA5ECE9F09F9480ECF9F0D68ED68CBA
:10002000BF82BF84BF8686ECF4F0FBECF5F0000ED7
:100030006100A2F3FDF822EE6BF1070EDE6AE8061E
:10004000FDE20701E86BE851020DF3C4F7F6F4C4D2
:10005000F8F6000E0601F8BFFF0EF96FFA6F000EFA
:10006000F72505017E6F000E0601F82105017F6F5F
:100070002C0E0601F9210501806FE5ECE1F0070186
:10008000E851020D3B0EF324D96E090EF420DA6E0E
:1000900005017EC5DEF47FC5DDF40701E851020DE0
:1000A0003B0EF324D96E090EF420DA6EDEC4F7F6A7
:1000B000DDC4F8F60601F75109016B270601F85176
:1000C00009016C23000E6D23000E6E23000E6F23BA
:1000D000000E7023000E7123000E72230701E82B1F
:1000E000080EE865B0D76BC953F86CC954F86DC9F0
:1000F00055F86EC956F86FC957F870C958F871C9E4
:1001000059F872C95AF8FC0E05017E6FFF0E7F6F19
:100110003F0E806FE5ECE1F07EC551F87FC552F8E7
:10012000FE0E7E6FFF0E7F6F3F0E806FE5ECE1F0FD
:100130007EC54FF87FC550F8050E08014F1904E140
:10014000990E5019D8B42ED0040E4F1906E1990E0D
:100150005019D8A402D04C8525D04C69000E526F9E
:100160005169FF0E536F000E546F000E556F000E55
:10017000566F000E576F000E586F000E596F000E2D
:100180005A6FFF0E09016B6FFF0E6C6FFF0E6D6FE4
:10019000FF0E6E6F000E6F6F000E706F000E716FAE
:1001A000000E726F53C87EF554C87FF555C880F5B0
:1001B00056C881F557C882F558C883F559C884F5E3
:1001C0005AC885F5E8ECCBF08A0E6100A2F30BFB70
:1001D000DB0E6100A2F30CFB010E6100A2F30DFB2C
:1001E000CE0E6100A2F311FB700E6100A2F312FBB0
:1001F000010E6100A2F313FB960E6100A2F30EFB49
:10020000ED0E6100A2F30FFB010E6100A2F310FBE3
:100210002AEE0BF301D80AD00500FA6EDE50FD6E0F
:10022000DE50FE6EDE50FF6EFA50120005017F6B4D
:10023000140E7E6F090ED9ECF3F04E0E7F6F200E78
:100240007E6F0C0ED9ECF3F02AEE0EF301D80AD033
:100250000500FA6EDE50FD6EDE50FE6EDE50FF6E63
:10026000FA50120022EE6BF1FF0EDE1409016B6FE3
:10027000FF0EDE146C6FFF0EDE146D6FFF0EDE14CA
:100280006E6F000EDE146F6F000EDE14706F000EC6
:10029000DE14716F000EDE14726F59ECF9F0B20EBD
:1002A00005017E6FE40E7F6F010E806F68ECF8F041
:1002B00056ECF9F053ECF9F0520E05017E6FB20ED8
:1002C0007F6F010E806F61ECF8F0EC0E7E6FF20E26
:1002D0007F6F010E806F84ECF8F062ECF9F06C0E29
:1002E00005017E6FF20E7F6F010E806F7DECF8F0DE
:1002F0005FECF9F0800E0701D46F0F0ED56F05018A
:10030000846B640E836F18ECF5F0BF94BF92BF96B8
:100310005BECC2F00801FBA56ED0FB9529ECDAF08E
:100320000009D8B438D0000E05017E6F000EB9EC7C
:10033000EAF07EC56DF67FC56EF6030E06016F6F9F
:10034000FF0E706F8BECECF0CCECF5F0000E0501BD
:100350007E6F010EB9ECEAF07EC56DF67FC56EF6D4
:100360002D0E06016F6FFF0E706F8BECECF0B4EC8E
:10037000DEF0000E05017E6F010EB9ECEAF07EC5DD
:100380006DF67FC56EF6180E06016F6FFF0E706F6B
:100390008BECECF011D0000E05017E6F000EB9EC75
:1003A000EAF07EC56DF67FC56EF6420E06016F6FF0
:1003B000FF0E706F8BECECF0000E05017E6F030EEC
:1003C000B9ECEAF07EC56DF67FC56EF6840E0601C7
:1003D0006F6FFE0E706F8BECECF02AEEE1F2DF50E7
:1003E000ECECF5F0DCECF7F0060E0501846F400E46
:1003F000836F18ECF5F008014CB5DFEF86F0A80E1E
:100400000601136F0C0E146F2AEE11F301D82ED1D2
:100410000500FA6EDE50FD6EDE50FE6EDE50FF6EA1
:10042000FA501200FB0E05018C6FF70E8D6FAFECCA
:10043000ECF00E0E0601146FDC0E156F010E166F38
:10044000050E176FA3ECD8F040D109012351D8A4B1
:1004500013D0EB0E05018C6FF70E8D6FAFECECF047
:100460003E0E0601146FB50E156F010E166F050EC8
:10047000176FA3ECD8F029D14B0E05018C6FF70E46
:100480008D6FAFECECF07C0E0601146FF20E156F61
:10049000010E166F050E176FA3ECD8F016D1CB0E18
:1004A00005018C6FF70E8D6FAFECECF0540E06016A
:1004B000146FF20E156F010E166F050E176FA3EC79
:1004C000D8F003D1BB0E05018C6FF70E8D6FAFEC2A
:1004D000ECF0B80E0601146FE80E156F010E166FE2
:1004E000050E176FA3ECD8F0F0D0AB0E05018C6FA2
:1004F000F70E8D6FAFECECF08E0E0601146FE80E68
:10050000156F010E166F050E176FA3ECD8F0DDD036
:100510009B0E05018C6FF70E8D6FAFECECF0D60ED5
:100520000601146FE30E156F010E166F050E176F9F
:10053000A3ECD8F0CAD0DB0E05018C6FF70E8D6FDF
:10054000AFECECF0220E0601146F910E156F010E48
:10055000166F100E176FA3ECD8F0B7D07B0E050105
:100560008C6FF70E8D6FAFECECF0A00E0601146FE0
:10057000E30E156F010E166F050E176FA3ECD8F082
:10058000A4D06B0E05018C6FF70E8D6FAFECECF005
:10059000ECD75B0E05018C6FF70E8D6FAFECECF0B6
:1005A000A00E0601146FE30E156F010E166F050EF7
:1005B000176FA3ECD8F00701CA6B87D00701CA51A7
:1005C000000AD8B4CBD7010AD8B4DBD7030AD8B411
:1005D000E0D7F1D7E70E05018C6F0C0E8D6FAFECF5
:1005E000ECF0DC0E0601146F890E156F010E166F0C
:1005F000110E176FA3ECD8F068D0EC0E05018C6FCC
:100600000E0E8D6FAFECECF04C0E0601146FF20E77
:10061000156F010E166F050E176FA3ECD8F055D0AD
:10062000DC0E05018C6F0E0E8D6FAFECECF0440EFE
:100630000601146FF20E156F010E166F050E176F7F
:10064000A3ECD8F042D08B0E05018C6FF70E8D6FA6
:10065000AFECECF0C60E0601146FE50E156F010E3F
:10066000166F050E176FA3ECD8F02FD00701C951F4
:100670000601F76FF86BF851000AD8A4D3D6F751EA
:10068000000AD8B4CFD6010AD8B4DFD6030AD8B44A
:1006900006D7010AD8B416D7070AD8B426D7010A54
:1006A000D8B436D7030AD8B489D7010AD8B4A5D7A5
:1006B0000F0AD8B4B5D7010AD8B48CD7030AD8B476
:1006C000C2D7010AD8B437D7ADD60C0E2BECF5F053
:1006D0000009D8B474D3750E7F6F300E7E6F0C0E88
:1006E000D9ECF3F00901236B6AD39EECD3F00C0E26
:1006F000F1ECF7F02AEEE1F2DF50ECECF5F029EC4A
:10070000DAF00009D8B414D0CCECF5F0000E0501F5
:100710007E6F000EB9ECEAF07EC56DF67FC56EF611
:10072000030E06016F6FFF0E706F8BECECF016D0AE
:10073000000E05017E6F000EB9ECEAF07EC56DF685
:100740007FC56EF6420E06016F6FFF0E706F8BEC69
:10075000ECF0B4ECDEF0010E0701C86F000E0501ED
:100760007E6F010EB9ECEAF07EC56DF67FC56EF6C0
:100770000601706B150E6F6FAF0E716FFE0E726F0C
:10078000EE0E736FFE0E746F9AECDDF0000E050135
:100790007E6F020EB9ECEAF07EC56DF67FC56EF68F
:1007A0000601706B150E6F6FD90E716FFE0E726FB2
:1007B000D4C773F6D5C774F69AECDDF0000E0501C8
:1007C0007E6F030EB9ECEAF07EC56DF67FC56EF65E
:1007D0000601706B150E6F6FC40E716FFE0E726F97
:1007E0007F0E736FFF0E746FD70E756FFF0E766FEF
:1007F0009AECDDF0DCECF7F00701C851D8B408D072
:10080000060E0501846F400E836F18ECF5F007D0DB
:10081000090E0501846F600E836F18ECF5F07BEC18
:10082000F3F01CECECF005ECBCF00009D8A415D0FA
:10083000010E6100A2F303FB000E6100A2F304FBB2
:10084000000E6100A2F305FB000E6100A2F306FB9F
:10085000010E0701CB6F08014C8193ECF3F098EC8B
:10086000E1F00009D8A415D0010E6100A2F307FB46
:10087000000E6100A2F308FB000E6100A2F309FB69
:10088000000E6100A2F30AFB010E0701CB6F080105
:100890004C8341ECECF062ECF5F0010E6100A2F348
:1008A000FDF8070E05017F6FA50E7E6FAFECF6F029
:1008B0002AEEE1F2DF50ECECF5F01E0E06016D6F52
:1008C0002A0E6E6F706B3F0E6F6F890E716FFB0E8D
:1008D000726F9AECDDF0000E05017E6F000EB9EC30
:1008E000EAF07EC56DF67FC56EF60601706B150EDB
:1008F0006F6F670E716FFC0E726FFFC773F6746BCC
:10090000D70E756FFF0E766F9AECDDF0000E0501C5
:100910007E6F010EB9ECEAF07EC56DF67FC56EF60E
:100920000601706B150E6F6F980E716FFA0E726F75
:1009300053C873F654C874F655C875F656C876F69B
:1009400057C877F658C878F659C879F65AC87AF66B
:100950004CC87BF67C6B9AECDDF02AEE03F3DE509C
:10096000DE10DE10DE10D8A408D02AEE07F3DE5029
:10097000DE10DE10DE10D8B42ED0050E08014F199F
:1009800004E1990E5019D8B405D0CB0E0701DA6FE7
:10099000FF0E04D0D10E0701DA6FFF0EDB6F000EE1
:1009A00005017E6F020EB9ECEAF07EC56DF67FC5DB
:1009B0006EF60601706B150E6F6F410E716FFE0EB5
:1009C000726FDAC773F6DBC774F69AECDDF0030ECC
:1009D00008014C6F2CD0050E08014F1904E1990E47
:1009E0005019D8B405D0CB0E0701DC6FFF0E04D030
:1009F000D10E0701DC6FFF0EDD6F000E05017E6F6B
:100A0000020EB9ECEAF07EC56DF67FC56EF6060102
:100A1000706B150E6F6F130E716FFE0E726FDCC769
:100A200073F6DDC774F69AECDDF008014C6B000E2E
:100A300005017E6F030EB9ECEAF07EC56DF67FC549
:100A40006EF60601706B150E6F6FA00E716FFD0EC6
:100A5000726F7F0E736FFF0E746F9AECDDF0010EF4
:100A600005017E6F000EB9ECEAF07EC56DF67FC51C
:100A70006EF60601706B150E6F6FB70E716FFD0E7F
:100A8000726F9AECDDF0010E05017E6F010EB9EC7C
:100A9000EAF07EC56DF67FC56EF60601706B150E29
:100AA0006F6FFC0E716FFD0E726FD70E736FFF0EBE
:100AB000746F9AECDDF0010E05017E6F020EB9EC49
:100AC000EAF07EC56DF67FC56EF60601706B150EF9
:100AD0006F6FCE0E716FFD0E726F9AECDDF0010E2E
:100AE00005017E6F030EB9ECEAF07EC56DF67FC599
:100AF0006EF60601706B150E6F6FA00E716FFD0E16
:100B0000726F7F0E736FFF0E746F9AECDDF0030E41
:100B100005017E6F000EB9ECEAF07EC56DF67FC56B
:100B20006EF60601706B150E6F6F2A0E716FFE0E5A
:100B3000726FD70E736FFF0E746F9AECDDF0030EB9
:100B400005017E6F010EB9ECEAF07EC56DF67FC53A
:100B50006EF60601706B150E6F6FFC0E716FFD0E59
:100B6000726FD70E736FFF0E746F9AECDDF0030E89
:100B700005017E6F020EB9ECEAF07EC56DF67FC509
:100B80006EF60601706B150E6F6FE50E716FFD0E40
:100B9000726F9AECDDF0030E05017E6F030EB9EC67
:100BA000EAF07EC56DF67FC56EF60601706B150E18
:100BB0006F6FA00E716FFD0E726F7F0E736FFF0E61
:100BC000746F9AECDDF0020E05017E6F000EB9EC39
:100BD000EAF07EC56DF67FC56EF60601706B150EE8
:100BE0006F6F690E716FFB0E726F53C873F654C846
:100BF00074F655C875F656C876F657C877F658C8CD
:100C000078F659C879F65AC87AF64FC87BF650C8B4
:100C10007CF69AECDDF0020E05017E6F010EB9EC58
:100C2000EAF07EC56DF67FC56EF60601706B150E97
:100C30006F6F710E716FFA0E726F24C873F625C84C
:100C400074F626C875F627C876F644C877F645C800
:100C500078F646C879F647C87AF69AECDDF0020EC7
:100C600005017E6F020EB9ECEAF07EC56DF67FC518
:100C70006EF60601706B150E6F6F4A0E716FFA0EED
:100C8000726F08C873F609C874F60AC875F60BC8FF
:100C900076F69AECDDF0020E05017E6F030EB9ECDC
:100CA000EAF07EC56DF67FC56EF60601706B150E17
:100CB0006F6F070E716FFB0E726F7F0E736FFF0EFB
:100CC000746FD70E756FFF0E766F9AECDDF0DCEC6B
:100CD000F7F00B0E0501846FB80E836F18ECF5F07A
:100CE0000701CB51D8B407D0270E0501846F100E31
:100CF000836F18ECF5F0010E05017F6FF40E7E6F27
:100D0000050ED9ECF3F00B0E7F6FB80E7E6F020E5E
:100D1000D9ECF3F0050E7F6FDC0E7E6F070ED9EC79
:100D2000F3F00B0E7F6FB80E7E6F040ED9ECF3F06C
:100D3000270E7F6F100E7E6F060ED9ECF3F00B0EB0
:100D40007F6FB80E7E6F030ED9ECF3F07F6B010E50
:100D50007E6F010ED9ECF3F044D0000EDCECF5F020
:100D6000000E7E6F000EB9ECEAF07EC5DEF77FC59F
:100D7000DFF7070120EE15F0DE51D926DF51DA2228
:100D8000DF6A000E0501826F030E5CECE0F00601E5
:100D9000F76F070120EE13F0DE51D926DF51DA227A
:100DA000F7C6DFF41ED0000E6100A2F3FDF80B0EB3
:100DB0000501846FB80E836F18ECF5F012D02AEE9F
:100DC000FDF0DF500601F76FF86BF851000AD8A468
:100DD000EAD7F751000AD8B488D4010AD8B4BDD7ED
:100DE000E2D7010E2BECF5F00009D8B472D17F6B7D
:100DF000010E7E6F010ED9ECF3F02AEE07F3DE5000
:100E0000DE10DE10DE10D8A414D093ECF3F0D69EE2
:100E10000A01F051D8A406D06A00F8F9ACF76A00CC
:100E2000FCF9ADF7D68EACC78EF5ADC78FF5C8EC23
:100E3000EEF062ECF5F0010E08010027000E012330
:100E40000223032332ECF9F0000EB5ECF7F0F4ECDA
:100E5000F8F00009D8B4FBD7F4ECF8F00009D8B4E6
:100E600006D064ECF6F07EC500FD7FC501FD32ECD6
:100E7000F9F0010EB5ECF7F0F4ECF8F00009D8B495
:100E8000FBD7F4ECF8F00009D8B40ED064ECF6F01F
:100E90006100FAF5F1FA6100FEF5F2FA6A00C4FBAE
:100EA00002FD6A00C8FB03FD32ECF9F0020EB5EC5E
:100EB000F7F0F4ECF8F00009D8B4FBD7F4ECF8F054
:100EC0000009D8B40ED064ECF6F06100FAF5F3FA3C
:100ED0006100FEF5F4FA6A00CCFB04FD6A00D0FB69
:100EE00005FD32ECF9F0040EB5ECF7F0F4ECF8F097
:100EF0000009D8B4FBD7F4ECF8F00009D8B406D058
:100F000064ECF6F07EC508FD7FC509FD32ECF9F012
:100F1000050EB5ECF7F0F4ECF8F00009D8B4FBD707
:100F2000F4ECF8F00009D8B406D064ECF6F07EC515
:100F30000AFD7FC50BFD32ECF9F0160EB5ECF7F0AB
:100F4000F4ECF8F00009D8B4FBD7F4ECF8F00009A1
:100F5000D8B406D064ECF6F07EC52CFD7FC52DFD1F
:100F600032ECF9F0170EB5ECF7F0F4ECF8F00009FC
:100F7000D8B4FBD7F4ECF8F00009D8B406D064EC90
:100F8000F6F07EC52EFD7FC52FFD32ECF9F01D0E6B
:100F9000B5ECF7F0F4ECF8F00009D8B4FBD7F4ECBA
:100FA000F8F00009D8B406D064ECF6F07EC53AFD3E
:100FB0007FC53BFD32ECF9F03B0EB5ECF7F0F4ECFD
:100FC000F8F00009D8B4FBD7F4ECF8F00009D8B475
:100FD00006D064ECF6F07EC576FD7FC577FD32EC79
:100FE000F9F03C0EB5ECF7F0F4ECF8F00009D8B4E9
:100FF000FBD7F4ECF8F00009D8B406D064ECF6F0B6
:101000007EC578FD7FC579FD32ECF9F03D0EB5EC7B
:10101000F7F0F4ECF8F00009D8B4FBD7F4ECF8F0F2
:101020000009D8B406D064ECF6F07EC57AFD7FC521
:101030007BFD32ECF9F03E0EB5ECF7F0F4ECF8F095
:101040000009D8B4FBD7F4ECF8F00009D8B406D006
:1010500064ECF6F07EC57CFD7FC57DFD32ECF9F0D9
:101060003F0EB5ECF7F0F4ECF8F00009D8B4FBD77C
:10107000F4ECF8F00009D8B406D064ECF6F07EC5C4
:101080007EFD7FC57FFD6A00ACFA7DF004002AEE8C
:1010900003F3DE50DE10DE10DE10D8A41AD07BEC95
:1010A000F3F0000E05019D6F000E9E6F000E9F6F06
:1010B000000EA06F000EA16F000EA26F000EA36FB6
:1010C0007AECE2F06EC7D9F46FC7DAF4DFBE05EC54
:1010D000BCF0050E2BECF5F00009D8B49DD362EC02
:1010E000F5F0010E05017F6FF40E7E6F050ED9EC51
:1010F000F3F0040E2BECF5F00009D8B403D0000E89
:10110000DCECF5F0000E06ECF2F00701CC51D8B49F
:1011100049D348EC8CF0000E7E6F000EB9ECEAF07B
:101120007EC56DF67FC56EF60601706B150E6F6F8E
:10113000E00E716FFB0E726F020E0701EB250601C8
:10114000736F000E0701EC210601746F9AECDDF05D
:1011500018C77EF519C77FF51AC780F51BC781F53B
:10116000010E3BECD6F07EC58CF57FC58DF580C5B4
:101170008EF581C58FF5000E906F000E916F7A0E7F
:10118000926F440E936FABECC3F08CC5E4F78DC542
:10119000E5F78EC5E6F78FC5E7F7000E7E6F010E07
:1011A000B9ECEAF07EC56DF67FC56EF60601706B90
:1011B000150E6F6FFC0E716FFB0E726F0C01B1514B
:1011C0000C0D1B0EF3240601736FF70EF420746FE1
:1011D00014C787F515C788F516C789F517C78AF5A7
:1011E0000A0E05018B6F000E8C6F000E8D6F000EC6
:1011F0008E6FD1ECDCF087C575F688C576F689C5AB
:1012000077F68AC578F6E4C779F6E5C77AF6E6C7D1
:101210007BF6E7C77CF69AECDDF0000E05017E6FE9
:10122000020EB9ECEAF07EC56DF67FC56EF60601DA
:10123000706B150E6F6F280E716FFB0E726F0901C8
:101240001D510C0D330EF3240601736FF70EF420BD
:10125000746F0C0E0701F303F3C4F7F6F4C4F8F649
:10126000F403F3500601F827D30EF725756FF60E39
:10127000F821766F800E0701F9250601776FFF0EC2
:101280000701FA210601786F800E0701F725060194
:10129000796FFF0E0701F82106017A6F800E0701B2
:1012A000F52506017B6FFF0E0701F62106017C6F15
:1012B0009AECDDF0000E05017E6F030EB9ECEAF04A
:1012C0007EC56DF67FC56EF60601706B150E6F6FED
:1012D000A70E716FF90E726FA4C773F6A5C774F6E7
:1012E000A6C775F6A7C776F6A0C777F6A1C778F6A2
:1012F000A2C779F6A3C77AF69AECDDF022EE5AF18E
:10130000DEC47EF5DDC47FF50501000E7FBFFF0E54
:10131000806F816F010E3BECD6F07EC58CF57FC5EA
:101320008DF580C58EF581C58FF5000E906F000E8E
:10133000916F200E926F410E936FABECC3F08CC592
:10134000E4F78DC5E5F78EC5E6F78FC5E7F722EE22
:1013500068F1DEC47EF5DDC47FF5000E7FBFFF0EB1
:10136000806F816F010E3BECD6F07EC58CF57FC59A
:101370008DF580C58EF581C58FF5000E906F000E3E
:10138000916F700E926F420E936FABECC3F08CC5F1
:10139000E0F78DC5E1F78EC5E2F78FC5E3F7010EE3
:1013A0007E6F000EB9ECEAF07EC56DF67FC56EF675
:1013B0000601706B150E6F6F230E716FF90E726F51
:1013C000E4C773F6E5C774F6E6C775F6E7C776F6C1
:1013D000E0C777F6E1C778F6E2C779F6E3C77AF6B1
:1013E0009AECDDF064C97EF565C97FF50501816B76
:1013F0000A0E806FF7ECE5F07EC5D6F77FC5D7F70C
:1014000062C97EF563C97FF5816B0A0E806FF7ECC8
:10141000E5F07EC5D8F77FC5D9F7010E7E6F010EC6
:10142000B9ECEAF07EC56DF67FC56EF60601706B0D
:10143000150E6F6F220E716FFA0E726FD6C773F6AC
:10144000D7C774F6D8C775F6D9C776F69AECDDF02B
:1014500078CB7EF579CB7FF57ACB80F57BCB81F5A8
:10146000010E3BECD6F07EC58CF57FC58DF580C5B1
:101470008EF581C58FF5000E906F000E916F7A0E7C
:10148000926F440E936FABECC3F08CC5E4F78DC53F
:10149000E5F78EC5E6F78FC5E7F718C77EF519C7DC
:1014A0007FF51AC780F51BC781F5010E3BECD6F01E
:1014B0007EC58CF57FC58DF580C58EF581C58FF510
:1014C000000E906F000E916F7A0E926F440E936F24
:1014D000ABECC3F08CC5E0F78DC5E1F78EC5E2F744
:1014E0008FC5E3F7010E7E6F020EB9ECEAF07EC500
:1014F0006DF67FC56EF60601706B150E6F6FD10E1F
:10150000716FF90E726FE4C773F6E5C774F6E6C73C
:1015100075F6E7C776F6E0C777F6E1C778F6E2C773
:1015200079F6E3C77AF61BC97BF61CC97CF69AEC00
:10153000DDF024C77EF525C77FF526C780F527C7D0
:1015400081F5010E3BECD6F07EC58CF57FC58DF59F
:1015500080C58EF581C58FF5000E906F000E916FDE
:10156000200E926F410E936FABECC3F08CC5E4F785
:101570008DC5E5F78EC5E6F78FC5E7F730C77EF571
:1015800031C77FF532C780F533C781F5010E3BECDB
:10159000D6F07EC58CF57FC58DF580C58EF581C5ED
:1015A0008FF5000E906F000E916F200E926F410E1E
:1015B000936FABECC3F08CC5E0F78DC5E1F78EC53A
:1015C000E2F78FC5E3F721EE62F3DEC47EF5DDC4FA
:1015D0007FF5000E7FBFFF0E806F816F010E3BEC29
:1015E000D6F07EC58CF57FC58DF580C58EF581C59D
:1015F0008FF5000E906F000E916F200E926F410ECE
:10160000936FABECC3F08CC5D0F78DC5D1F78EC509
:10161000D2F78FC5D3F7010E7E6F030EB9ECEAF057
:101620007EC56DF67FC56EF60601706B150E6F6F89
:10163000E30E716FFA0E726FE4C773F6E5C774F6C6
:10164000E6C775F6E7C776F6E0C777F6E1C778F63E
:10165000E2C779F6E3C77AF6D0C77BF6D1C77CF646
:10166000D2C77DF6D3C77EF69AECDDF0020E0501F7
:101670007E6F000EB9ECEAF07EC56DF67FC56EF6A2
:101680000601706B150E6F6F690E716FFB0E726F36
:1016900053C873F654C874F655C875F656C876F62E
:1016A00057C877F658C878F659C879F65AC87AF6FE
:1016B0004FC87BF650C87CF69AECDDF0020E0501AF
:1016C0007E6F010EB9ECEAF07EC56DF67FC56EF651
:1016D0000601706B150E6F6FFA0E716FF90E726F57
:1016E00008CDD6F509CDD7F56BECE4F0D6C573F689
:1016F000D7C574F6D8C575F6D9C576F60ACDD6F530
:101700000BCDD7F5F2ECE4F0D6C577F6D7C578F671
:10171000D8C579F6D9C57AF69AECDDF0020E050146
:101720007E6F020EB9ECEAF07EC56DF67FC56EF6EF
:101730000601706B150E6F6FF60E716FF80E726FFB
:1017400008C873F609C874F60AC875F60BC876F6A9
:101750004CC877F6786B9AECDDF0020E05017E6FCF
:10176000030EB9ECEAF07EC56DF67FC56EF6060194
:10177000706B150E6F6FA70E716FFB0E726F7F0E81
:10178000736FFF0E746FD70E756FFF0E766F9AEC46
:10179000DDF0DCECF7F00A01EA6B0701CC6B000E20
:1017A00035ECE5F02AEEE2F2DFC4F7F6010EDF26B3
:1017B000460E0601F7652BD00701FE51ECECF5F063
:1017C0002AEEE2F2DF500601F76FF86B2AEEE4F240
:1017D000DF50F96FFA6B660EF927000EFA23F75106
:1017E000F95DFA51800AFB6FF851800AFB59D8B0B5
:1017F00013D00701FE2BFE51030B030AD8A402D01D
:10180000010EFE6F000E6100A2F3E2FA05D02AEE8F
:10181000E1F2DF50ECECF5F02AEEEDF2DF50D8B457
:1018200013D0030E2BECF5F00009D8B40AD0000E4B
:101830006100A2F3EDFA2AEEE1F2DF50ECECF5F0F4
:1018400003D0030EECECF5F02AEEE8F2DF50D8B44A
:1018500088EF81F0060E2BECF5F00009D8B488EF84
:1018600081F0270E7F6F100E7E6F060ED9ECF3F01D
:101870000B0E7F6FB80E7E6F030ED9ECF3F0010EE6
:101880006100A2F3EDFA000EF5ECD4F088EF81F0E0
:10189000860E0601046F2A0E056F55ECF6F004C69D
:1018A000B7F805C6B8F8FC0E6D6F260E6E6F706B3C
:1018B000190E6F6FFB0E716FFF0E726FB7C88BF54D
:1018C000B8C88CF5BBECC9F08BC573F68CC574F643
:1018D0009AECDDF0000E6100A2F3FFF687EF95F0C1
:1018E0005FC5F2F714C77EF515C77FF516C780F5FB
:1018F00017C781F5010E3BECD6F07EC58CF57FC590
:101900008DF580C58EF581C58FF5000E906F000EA8
:10191000916F200E926F410E936FABECC3F08CC5AC
:10192000DFF68DC5E0F68EC5E1F68FC5E2F624C779
:101930007EF525C77FF526C780F527C781F5010EFF
:101940003BECD6F07EC58CF57FC58DF580C58EF558
:1019500081C58FF5000E906F000E916F200E926F73
:10196000410E936FABECC3F08CC5E3F68DC5E4F686
:101970008EC5E5F68FC5E6F628C77EF529C77FF543
:101980002AC780F52BC781F5010E3BECD6F07EC54A
:101990008CF57FC58DF580C58EF581C58FF5000E60
:1019A000906F000E916F200E926F410E936FABEC13
:1019B000C3F08CC5E7F68DC5E8F68EC5E9F68FC590
:1019C000EAF630C77EF531C77FF532C780F533C7F9
:1019D00081F5010E3BECD6F07EC58CF57FC58DF50B
:1019E00080C58EF581C58FF5000E906F000E916F4A
:1019F000200E926F410E936FABECC3F08CC5EBF6EB
:101A00008DC5ECF68EC5EDF68FC5EEF63CC77EF5BE
:101A10003DC77FF53EC780F53FC781F5010E3BEC22
:101A2000D6F07EC58CF57FC58DF580C58EF581C558
:101A30008FF5000E906F000E916F200E926F410E89
:101A4000936FABECC3F08CC5EFF68DC5F0F68EC589
:101A5000F1F68FC5F2F621EE62F3DEC47EF5DDC449
:101A60007FF5000E7FBFFF0E806F816F010E3BEC94
:101A7000D6F07EC58CF57FC58DF580C58EF581C508
:101A80008FF5000E906F000E916F200E926F410E39
:101A9000936FABECC3F08CC5F3F68DC5F4F68EC531
:101AA000F5F68FC5F6F6FC0E06016D6F240E6E6F0F
:101AB000020E706F000E6F6FA40E716FF50E726FD5
:101AC000F2C773F6746BDFC675F6E0C676F6E1C64C
:101AD00077F6E2C678F698CD79F699CD7AF69ACD72
:101AE0007BF69BCD7CF6E3C67DF6E4C67EF6E5C6C6
:101AF0007FF6E6C680F6E7C681F6E8C682F6E9C656
:101B000083F6EAC684F6EBC685F6ECC686F6EDC625
:101B100087F6EEC688F6EFC689F6F0C68AF6F1C6F5
:101B20008BF6F2C68CF6F3C68DF6F4C68EF6F5C6C5
:101B30008FF6F6C690F6F0CD91F6F1CD92F6F2CD95
:101B400093F6F3CD94F6A4C795F6A5C796F6A6C767
:101B500097F6A7C798F6A0C799F6A1C79AF6A2C7A5
:101B60009BF6A3C79CF6800E0701F92506019D6F21
:101B7000FF0E0701FA2106019E6F800E0701F7256F
:101B800006019F6FFF0E0701F8210601A06F800E6E
:101B90000701F5250601A16FFF0E0701F6210601D9
:101BA000A26F42C5A3F643C5A4F61DC9A5F6A66B50
:101BB000F3C7A7F6F4C7A8F6B4CCA9F6AA6B6BC90D
:101BC000ABF66CC9ACF66DC9ADF66EC9AEF66FC9B1
:101BD000AFF670C9B0F671C9B1F672C9B2F6E6C80F
:101BE000B3F6E7C8B4F6E8C8B5F6E9C8B6F6EEC885
:101BF000B7F6EFC8B8F6F0C8B9F6F1C8BAF6F2C849
:101C0000BBF6F3C8BCF6F4C8BDF6F5C8BEF6F6C818
:101C1000BFF6F7C8C0F6F8C8C1F6F9C8C2F69AEC24
:101C2000DDF0120EE0EF93F05FC5F2F700C77EF52E
:101C300001C77FF502C780F503C781F5010E3BECB4
:101C4000D6F07EC58CF57FC58DF580C58EF581C536
:101C50008FF5000E906F000E916F200E926F410E67
:101C6000936FABECC3F08CC5DFF68DC5E0F68EC587
:101C7000E1F68FC5E2F604C77EF505C77FF506C716
:101C800080F507C781F5010E3BECD6F07EC58CF5DB
:101C90007FC58DF580C58EF581C58FF5000E906FDF
:101CA000000E916F200E926F410E936FABECC3F05C
:101CB0008CC5E3F68DC5E4F68EC5E5F68FC5E6F670
:101CC00008C77EF509C77FF50AC780F50BC781F500
:101CD000010E3BECD6F07EC58CF57FC58DF580C539
:101CE0008EF581C58FF5000E906F000E916F200E5E
:101CF000926F410E936FABECC3F08CC5E7F68DC5C8
:101D0000E8F68EC5E9F68FC5EAF61CC77EF51DC755
:101D10007FF51EC780F51FC781F5010E3BECD6F09D
:101D20007EC58CF57FC58DF580C58EF581C58FF597
:101D3000000E906F000E916F7A0E926F440E936FAB
:101D4000ABECC3F08CC5EBF68DC5ECF68EC5EDF6AD
:101D50008FC5EEF62CC77EF52DC77FF52EC780F513
:101D60002FC781F5010E3BECD6F07EC58CF57FC503
:101D70008DF580C58EF581C58FF5000E906F000E34
:101D8000916F200E926F410E936FABECC3F08CC538
:101D9000EFF68DC5F0F68EC5F1F68FC5F2F650C799
:101DA0007EF551C77FF552C780F553C781F5010E07
:101DB0003BECD6F07EC58CF57FC58DF580C58EF5E4
:101DC00081C58FF5000E906F000E916F200E926FFF
:101DD000410E936FABECC3F08CC5F3F68DC5F4F6F2
:101DE0008EC5F5F68FC5F6F621EE5CF3DEC47EF502
:101DF000DDC47FF5000E7FBFFF0E806F816F010E87
:101E00003BECD6F07EC58CF57FC58DF580C58EF593
:101E100081C58FF5000E906F000E916F200E926FAE
:101E2000410E936FABECC3F08CC5D7F68DC5D8F6D9
:101E30008EC5D9F68FC5DAF621EE5EF3DEC47EF5E7
:101E4000DDC47FF5000E7FBFFF0E806F816F010E36
:101E50003BECD6F07EC58CF57FC58DF580C58EF543
:101E600081C58FF5000E906F000E916F200E926F5E
:101E7000410E936FABECC3F08CC5DBF68DC5DCF681
:101E80008EC5DDF68FC5DEF6FC0E06016D6F240EE5
:101E90006E6F020E706F000E6F6FED0E716FF40EAD
:101EA000726FF2C773F6746BDFC675F6E0C676F62E
:101EB000E1C677F6E2C678F6E3C679F6E4C67AF6C6
:101EC000E5C67BF6E6C67CF6E7C67DF6E8C67EF696
:101ED000E9C67FF6EAC680F6EBC681F6ECC682F666
:101EE000EDC683F6EEC684F6EFC685F6F0C686F636
:101EF000F1C687F6F2C688F6F3C689F6F4C68AF606
:101F0000F5C68BF6F6C68CF6D7C68DF6D8C68EF615
:101F1000D9C68FF6DAC690F6DBC691F6DCC692F625
:101F2000DDC693F6DEC694F6A4C795F6A5C796F669
:101F3000A6C797F6A7C798F6A0C799F6A1C79AF6BD
:101F4000A2C79BF6A3C79CF6800E0701F9250601E0
:101F50009D6FFF0E0701FA2106019E6F800E07019B
:101F6000F72506019F6FFF0E0701F8210601A06FFC
:101F7000800E0701F5250601A16FFF0E0701F6216E
:101F80000601A26F1BC9A3F61CC9A4F61DC9A5F6BC
:101F9000A66BF3C7A7F6F4C7A8F6B4CCA9F6AA6B4C
:101FA0006BC9ABF66CC9ACF66DC9ADF66EC9AEF6D1
:101FB0006FC9AFF670C9B0F671C9B1F672C9B2F6A1
:101FC000E6C8B3F6E7C8B4F6E8C8B5F6E9C8B6F6A9
:101FD000EEC8B7F6EFC8B8F6F0C8B9F6F1C8BAF669
:101FE000F2C8BBF6F3C8BCF6F4C8BDF6F5C8BEF639
:101FF000F6C8BFF6F7C8C0F6F8C8C1F6F9C8C2F609
:102000009AECDDF0110E5F6E04009CEF95F05FC559
:10201000F2F714C77EF515C77FF516C780F517C709
:1020200081F5010E3BECD6F07EC58CF57FC58DF5B4
:1020300080C58EF581C58FF5000E906F000E916FF3
:10204000200E926F410E936FABECC3F08CC5DFF6A0
:102050008DC5E0F68EC5E1F68FC5E2F618C77EF5B0
:1020600019C77FF51AC780F51BC781F5010E3BEC38
:10207000D6F07EC58CF57FC58DF580C58EF581C502
:102080008FF5000E906F000E916F7A0E926F440ED6
:10209000936FABECC3F08CC5E3F68DC5E4F68EC54B
:1020A000E5F68FC5E6F624C77EF525C77FF526C77A
:1020B00080F527C781F5010E3BECD6F07EC58CF587
:1020C0007FC58DF580C58EF581C58FF5000E906FAB
:1020D000000E916F200E926F410E936FABECC3F028
:1020E0008CC5E7F68DC5E8F68EC5E9F68FC5EAF62C
:1020F00028C77EF529C77FF52AC780F52BC781F54C
:10210000010E3BECD6F07EC58CF57FC58DF580C504
:102110008EF581C58FF5000E906F000E916F200E29
:10212000926F410E936FABECC3F08CC5EBF68DC58F
:10213000ECF68EC5EDF68FC5EEF630C77EF531C7ED
:102140007FF532C780F533C781F5010E3BECD6F041
:102150007EC58CF57FC58DF580C58EF581C58FF563
:10216000000E906F000E916F200E926F410E936FD4
:10217000ABECC3F08CC5EFF68DC5F0F68EC5F1F66D
:102180008FC5F2F63CC77EF53DC77FF53EC780F5AB
:102190003FC781F5010E3BECD6F07EC58CF57FC5BF
:1021A0008DF580C58EF581C58FF5000E906F000E00
:1021B000916F200E926F410E936FABECC3F08CC504
:1021C000F3F68DC5F4F68EC5F5F68FC5F6F621EE5D
:1021D00062F3DEC47EF5DDC47FF5000E7FBFFF0E27
:1021E000806F816F010E3BECD6F07EC58CF57FC50C
:1021F0008DF580C58EF581C58FF5000E906F000EB0
:10220000916F200E926F410E936FABECC3F08CC5B3
:10221000D7F68DC5D8F68EC5D9F68FC5DAF678CB48
:102220007EF579CB7FF57ACB80F57BCB81F5010EFE
:102230003BECD6F07EC58CF57FC58DF580C58EF55F
:1022400081C58FF5000E906F000E916F7A0E926F20
:10225000440E936FABECC3F08CC5DBF68DC5DCF69A
:102260008EC5DDF68FC5DEF6FC0E06016D6F240E01
:102270006E6F020E706F000E6F6F360E716FF40E80
:10228000726FF2C773F6746BDFC675F6E0C676F64A
:10229000E1C677F6E2C678F6E3C679F6E4C67AF6E2
:1022A000E5C67BF6E6C67CF6E7C67DF6E8C67EF6B2
:1022B000E9C67FF6EAC680F6EBC681F6ECC682F682
:1022C000EDC683F6EEC684F6EFC685F6F0C686F652
:1022D000F1C687F6F2C688F6F3C689F6F4C68AF622
:1022E000F5C68BF6F6C68CF6D7C68DF6D8C68EF632
:1022F000D9C68FF6DAC690F6DBC691F6DCC692F642
:10230000DDC693F6DEC694F6A4C795F6A5C796F685
:10231000A6C797F6A7C798F6A0C799F6A1C79AF6D9
:10232000A2C79BF6A3C79CF6800E0701F9250601FC
:102330009D6FFF0E0701FA2106019E6F800E0701B7
:10234000F72506019F6FFF0E0701F8210601A06F18
:10235000800E0701F5250601A16FFF0E0701F6218A
:102360000601A26F42C5A3F643C5A4F61DC9A5F692
:10237000A66BF3C7A7F6F4C7A8F6B4CCA9F6AA6B68
:102380006BC9ABF66CC9ACF66DC9ADF66EC9AEF6ED
:102390006FC9AFF670C9B0F671C9B1F672C9B2F6BD
:1023A000E6C8B3F6E7C8B4F6E8C8B5F6E9C8B6F6C5
:1023B000EEC8B7F6EFC8B8F6F0C8B9F6F1C8BAF685
:1023C000F2C8BBF6F3C8BCF6F4C8BDF6F5C8BEF655
:1023D000F6C8BFF6F7C8C0F6F8C8C1F6F9C8C2F625
:1023E0009AECDDF0140EECD15FC5F2F714C77EF560
:1023F00015C77FF516C780F517C781F5010E3BECB1
:10240000D6F07EC58CF57FC58DF580C58EF581C56E
:102410008FF5000E906F000E916F200E926F410E9F
:10242000936FABECC3F08CC5DFF68DC5E0F68EC5BF
:10243000E1F68FC5E2F618C77EF519C77FF51AC712
:1024400080F51BC781F5010E3BECD6F07EC58CF5FF
:102450007FC58DF580C58EF581C58FF5000E906F17
:10246000000E916F7A0E926F440E936FABECC3F037
:102470008CC5E3F68DC5E4F68EC5E5F68FC5E6F6A8
:1024800024C77EF525C77FF526C780F527C781F5C8
:10249000010E3BECD6F07EC58CF57FC58DF580C571
:1024A0008EF581C58FF5000E906F000E916F200E96
:1024B000926F410E936FABECC3F08CC5E7F68DC500
:1024C000E8F68EC5E9F68FC5EAF628C77EF529C776
:1024D0007FF52AC780F52BC781F5010E3BECD6F0BE
:1024E0007EC58CF57FC58DF580C58EF581C58FF5D0
:1024F000000E906F000E916F200E926F410E936F41
:10250000ABECC3F08CC5EBF68DC5ECF68EC5EDF6E5
:102510008FC5EEF630C77EF531C77FF532C780F53F
:1025200033C781F5010E3BECD6F07EC58CF57FC537
:102530008DF580C58EF581C58FF5000E906F000E6C
:10254000916F200E926F410E936FABECC3F08CC570
:10255000EFF68DC5F0F68EC5F1F68FC5F2F63CC7E5
:102560007EF53DC77FF53EC780F53FC781F5010E7B
:102570003BECD6F07EC58CF57FC58DF580C58EF51C
:1025800081C58FF5000E906F000E916F200E926F37
:10259000410E936FABECC3F08CC5F3F68DC5F4F62A
:1025A0008EC5F5F68FC5F6F621EE62F3DEC47EF534
:1025B000DDC47FF5000E7FBFFF0E806F816F010EBF
:1025C0003BECD6F07EC58CF57FC58DF580C58EF5CC
:1025D00081C58FF5000E906F000E916F200E926FE7
:1025E000410E936FABECC3F08CC5D7F68DC5D8F612
:1025F0008EC5D9F68FC5DAF678CB7EF579CB7FF527
:102600007ACB80F57BCB81F5010E3BECD6F07EC515
:102610008CF57FC58DF580C58EF581C58FF5000ED3
:10262000906F000E916F7A0E926F440E936FABEC29
:10263000C3F08CC5DBF68DC5DCF68EC5DDF68FC527
:10264000DEF6FC0E06016D6F240E6E6F020E706FCB
:10265000000E6F6F7F0E716FF30E726FF2C773F61D
:10266000746BDFC675F6E0C676F6E1C677F6E2C6AD
:1026700078F6E3C679F6E4C67AF6E5C67BF6E6C6F2
:102680007CF6E7C67DF6E8C67EF6E9C67FF6EAC6C2
:1026900080F6EBC681F6ECC682F6EDC683F6EEC692
:1026A00084F6EFC685F6F0C686F6F1C687F6F2C662
:1026B00088F6F3C689F6F4C68AF6F5C68BF6F6C632
:1026C0008CF6D7C68DF6D8C68EF6D9C68FF6DAC682
:1026D00090F6DBC691F6DCC692F6DDC693F6DEC652
:1026E00094F6A4C795F6A5C796F6A6C797F6A7C70A
:1026F00098F6A0C799F6A1C79AF6A2C79BF6A3C7FA
:102700009CF6800E0701F92506019D6FFF0E07015B
:10271000FA2106019E6F800E0701F72506019F6FC3
:10272000FF0E0701F8210601A06F800E0701F525B5
:102730000601A16FFF0E0701F6210601A26F42C537
:10274000A3F643C5A4F61DC9A5F6A66BF3C7A7F665
:10275000F4C7A8F6B4CCA9F6AA6B6BC9ABF66CC9E2
:10276000ACF66DC9ADF66EC9AEF66FC9AFF670C9FD
:10277000B0F671C9B1F672C9B2F6E6C8B3F6E7C8E9
:10278000B4F6E8C8B5F6E9C8B6F6EEC8B7F6EFC8CD
:10279000B8F6F0C8B9F6F1C8BAF6F2C8BBF6F3C895
:1027A000BCF6F4C8BDF6F5C8BEF6F6C8BFF6F7C865
:1027B000C0F6F8C8C1F6F9C8C2F69AECDDF0110E01
:1027C0005F6EBAD1110E5F6E110E0701F26F14C762
:1027D0007EF515C77FF516C780F517C781F5010E81
:1027E0003BECD6F07EC58CF57FC58DF580C58EF5AA
:1027F00081C58FF5000E906F000E916F200E926FC5
:10280000410E936FABECC3F08CC5DFF68DC5E0F6DF
:102810008EC5E1F68FC5E2F624C77EF525C77FF5A4
:1028200026C780F527C781F5010E3BECD6F07EC5A3
:102830008CF57FC58DF580C58EF581C58FF5000EB1
:10284000906F000E916F200E926F410E936FABEC64
:10285000C3F08CC5E3F68DC5E4F68EC5E5F68FC5ED
:10286000E6F628C77EF529C77FF52AC780F52BC76E
:1028700081F5010E3BECD6F07EC58CF57FC58DF55C
:1028800080C58EF581C58FF5000E906F000E916F9B
:10289000200E926F410E936FABECC3F08CC5E7F640
:1028A0008DC5E8F68EC5E9F68FC5EAF630C77EF528
:1028B00031C77FF532C780F533C781F5010E3BEC98
:1028C000D6F07EC58CF57FC58DF580C58EF581C5AA
:1028D0008FF5000E906F000E916F200E926F410EDB
:1028E000936FABECC3F08CC5EBF68DC5ECF68EC5E3
:1028F000EDF68FC5EEF63CC77EF53DC77FF53EC7CA
:1029000080F53FC781F5010E3BECD6F07EC58CF516
:102910007FC58DF580C58EF581C58FF5000E906F52
:10292000000E916F200E926F410E936FABECC3F0CF
:102930008CC5EFF68DC5F0F68EC5F1F68FC5F2F6B3
:1029400021EE62F3DEC47EF5DDC47FF5000E7FBFAD
:10295000FF0E806F816F010E3BECD6F07EC58CF5CB
:102960007FC58DF580C58EF581C58FF5000E906F02
:10297000000E916F200E926F410E936FABECC3F07F
:102980008CC5F3F68DC5F4F68EC5F5F68FC5F6F653
:10299000FC0E06016D6F240E6E6F020E706F000E3E
:1029A0006F6FA40E716FF50E726FF2C773F6746BD2
:1029B000DFC675F6E0C676F6E1C677F6E2C678F6CB
:1029C00098CD79F699CD7AF69ACD7BF69BCD7CF6AB
:1029D000E3C67DF6E4C67EF6E5C67FF6E6C680F67B
:1029E000E7C681F6E8C682F6E9C683F6EAC684F64B
:1029F000EBC685F6ECC686F6EDC687F6EEC688F61B
:102A0000EFC689F6F0C68AF6F1C68BF6F2C68CF6EA
:102A1000F3C68DF6F4C68EF6F5C68FF6F6C690F6BA
:102A2000F0CD91F6F1CD92F6F2CD93F6F3CD94F68A
:102A3000A4C795F6A5C796F6A6C797F6A7C798F6B2
:102A4000A0C799F6A1C79AF6A2C79BF6A3C79CF6A2
:102A5000800E0701F92506019D6FFF0E0701FA217F
:102A600006019E6F800E0701F72506019F6FFF0E7E
:102A70000701F8210601A06F800E0701F525060168
:102A8000A16FFF0E0701F6210601A26F42C5A3F652
:102A900043C5A4F61DC9A5F6A66BF3C7A7F6F4C7F0
:102AA000A8F6B4CCA9F6AA6B6BC9ABF66CC9ACF6A8
:102AB0006DC9ADF66EC9AEF66FC9AFF670C9B0F6A6
:102AC00071C9B1F672C9B2F6E6C8B3F6E7C8B4F692
:102AD000E8C8B5F6E9C8B6F6EEC8B7F6EFC8B8F676
:102AE000F0C8B9F6F1C8BAF6F2C8BBF6F3C8BCF63E
:102AF000F4C8BDF6F5C8BEF6F6C8BFF6F7C8C0F60E
:102B0000F8C8C1F6F9C8C2F69AECDDF015D05F50EE
:102B1000020AD8B470EF8CF0130AD8B470EF8CF0BE
:102B2000030AD8B414EF8EF0010AD8B407EF90F07E
:102B3000070AD8B459D446D6FC0E0701EB6F240E11
:102B4000EC6F020EEE6F000EED6FF06B000EEF6F8C
:102B5000010EF16F010E0501F46F120047C6D9F4A2
:102B600048C6DAF4DEC4F6F4DDC4F7F4000EF86EFD
:102B70000800F550250AD8A4DBEF9BF047C6D9F42E
:102B800048C6DAF4DE2A000EDD220501E36B000EF2
:102B9000E26FE2C5FEF60601FC69FD69596B30D0B3
