:0400000085EF00F098
:10000800F16EF16EF16EF16EF16EF16EF16E726D70
:10001800F16EF16E5C6A6C6AF16EF16EF16EF16E02
:100028007C6AF16EF16EF16E3C6AF16E4C6AF16EAB
:10003800F16EF16EF16EF16E7C69F16EF16EEE6942
:10004800FB6AEC6AF16EF16EF16EF16EF16EF16EB3
:100058000B66F16E0A6BF16E4268F16EF16EF16E2D
:10006800F16EF16EF16EF16E8C6A9C6AAC6AF16E9B
:10007800F16EF16EF16EF16E4200F16EF16EF16E9D
:10008800F16EF16EF16EF16E6B69F16EF16EF16EFB
:10009800286B196BF16EF16E4200F16EF16EF16E24
:1000A800F16EF16EF16EF16EBC6ACC6ADC6AF16ECB
:1000B800F16EF16EF16E3769F16EF16EF16EF16EFF
:1000C800F16EF16EF16EF16EF16EF16EF16EF16E30
:1000D800F16EF16EF16EF16EF16EF16EF16EF16E20
:1000E8004200F16EF16EF16EF16EF16EF16EF16E2D
:1000F800E26EF16EF16EC56DF16EF16EF16EF16E3C
:0A010800FF0019EE86F04CEFB0F096
:10EFE8000000C0C101C30302C2C60607C705C5C4E5
:10EFF80004CC0C0DCD0FCFCE0E0ACACB0BC9090815
:10F00800C8D81819D91BDBDA1A1EDEDF1FDD1D1C54
:10F01800DC14D4D515D71716D6D21213D311D1D0E4
:10F0280010F03031F133F3F23236F6F737F5353484
:10F03800F43CFCFD3DFF3F3EFEFA3A3BFB39F9F854
:10F048003828E8E929EB2B2AEAEE2E2FEF2DEDECF4
:10F058002CE42425E527E7E62622E2E323E1212024
:10F06800E0A06061A163A3A26266A6A767A5656424
:10F07800A46CACAD6DAF6F6EAEAA6A6BAB69A9A894
:10F088006878B8B979BB7B7ABABE7E7FBF7DBDBCD4
:10F098007CB47475B577B7B67672B2B373B1717064
:10F0A800B0509091519353529296565797559594C4
:10F0B800549C5C5D9D5F9F9E5E5A9A9B5B995958D4
:10F0C80098884849894B8B8A4A4E8E8F4F8D4D4C74
:10F0D8008C448485458747468682424383418180A4
:10F0E8004000C1814001C0804101C0804100C18110
:10F0F8004001C0804100C1814000C1814001C08001
:10F108004101C0804100C1814000C1814001C080EF
:10F118004100C1814001C0804101C0804100C181DE
:10F128004001C0804100C1814000C1814001C080D0
:10F138004100C1814001C0804101C0804100C181BE
:10F148004000C1814001C0804101C0804100C181AF
:10F158004001C0804100C1814000C1814001C080A0
:10F168004101C0804100C1814000C1814001C0808F
:10F178004100C1814001C0804101C0804100C1817E
:10F188004000C1814001C0804101C0804100C1816F
:10F198004001C0804100C1814000C1814001C08060
:10F1A8004100C1814001C0804101C0804100C1814E
:10F1B8004001C0804100C1814000C1814001C08040
:10F1C8004101C0804100C1814000C1814001C0802F
:10F1D8004100C1814001C0804101C0804100C1811E
:10F1E8004000C0C101C30302C2C60607C705C5C4A3
:10F1F80004CC0C0DCD0FCFCE0E0ACACB0BC9090813
:10F20800C8D81819D91BDBDA1A1EDEDF1FDD1D1C52
:10F21800DC14D4D515D71716D6D21213D311D1D0E2
:10F2280010F03031F133F3F23236F6F737F5353482
:10F23800F43CFCFD3DFF3F3EFEFA3A3BFB39F9F852
:10F248003828E8E929EB2B2AEAEE2E2FEF2DEDECF2
:10F258002CE42425E527E7E62622E2E323E1212022
:10F26800E0A06061A163A3A26266A6A767A5656422
:10F27800A46CACAD6DAF6F6EAEAA6A6BAB69A9A892
:10F288006878B8B979BB7B7ABABE7E7FBF7DBDBCD2
:10F298007CB47475B577B7B67672B2B373B1717062
:10F2A800B0509091519353529296565797559594C2
:10F2B800549C5C5D9D5F9F9E5E5A9A9B5B995958D2
:10F2C80098884849894B8B8A4A4E8E8F4F8D4D4C72
:10F2D8008C448485458747468682424383418180A2
:10F2E8004000C1814001C0804101C0804100C1810E
:10F2F8004001C0804100C1814000C1814001C080FF
:10F308004101C0804100C1814000C1814001C080ED
:10F318004100C1814001C0804101C0804100C181DC
:10F328004001C0804100C1814000C1814001C080CE
:10F338004100C1814001C0804101C0804100C181BC
:10F348004000C1814001C0804101C0804100C181AD
:10F358004001C0804100C1814000C1814001C0809E
:10F368004101C0804100C1814000C1814001C0808D
:10F378004100C1814001C0804101C0804100C1817C
:10F388004000C1814001C0804101C0804100C1816D
:10F398004001C0804100C1814000C1814001C0805E
:10F3A8004100C1814001C0804101C0804100C1814C
:10F3B8004001C0804100C1814000C1814001C0803E
:10F3C8004101C0804100C1814000C1814001C0802D
:10F3D8004100C1814001C0804101C0804100C1811C
:10F3E80040010300000000000000000000000000D1
:10F3F8000000000000000000000000000000000005
:10F4080000000000000000000000000000000000F4
:10F4180000000000000000000000000000000000E4
:10F4280000000000000000000000000000000000D4
:10F4380000000000000000000000000000000000C4
:10F4480000000000000000000000000000000000B4
:10F4580000000000000000000000000000000000A4
:10F468000000000000000103000000000000000090
:10F478000000000000000000000000000000000084
:10F488000000000000000000000000000000000074
:10F498000000000000000000000000000000000064
:10F4A8000000000000000000000000000000000054
:10F4B8000000000000000000000000000000000044
:10F4C8000000000000000000000000000000000034
:10F4D80000000074686520717569636B2062726F43
:10F4E800776E20666F78206A756D7073206F766509
:10F4F8007220746865206C617A7920646F67732064
:10F508006261636B00257320256420257320202009
:10F5180020202020202020202020202020202020E3
:10F5280020202020202020202020202020202020D3
:10F53800202020004F4E4C494E45204125642C2068
:10F5480052256420524625642C20542564205446B4
:10F5580025642C2043256420256420257320202041
:10F56800202000486F7374204125642C20522564A4
:10F5780020524625642C2054256420544625642CAA
:10F588002043256420256420257320202020202066
:10F598002000554E4B20464F524D41542041256482
:10F5A8002C2052256420524625642C2054256420A2
:10F5B800544625642C2043256420257320202000F0
:10F5C8002573202573202020202020202020202083
:10F5D8002020202020202020202020202020202023
:10F5E8002020202020202020202000257320257383
:10F5F8002020202020202020202020202020202003
:10F6080020202020202020202020202020202020F2
:10F61800202000486F737420434D44533A204D20F6
:10F628004320522050204F204C2053204420452076
:10F6380048204600506F72742062617564207261C0
:10F64800746520756E6C6F636B65642020202020C4
:10F6580020202000571900000000000000000000D2
:10F6680000000000001F858042000000001F858008
:10F6780042486F737420434D44533A20454E4142EB
:10F688004C45442052454D4F54450056332E30309A
:10F6980020464D383020696E746572666163652056
:10F6A800513834004F66666C696E650000000000D2
:10F6B80043414E4255530000000000000103000082
:10F6C8000000000000000000000000000000000032
:10F6D80000000103000000D600000001000000DA6D
:10F6E80000000103000000D600000000000000D95F
:10F6F800001F1E1F1E1F1F1E1F1E1F1F1D0106008D
:10F7080000000000000106000000000000010600E3
:10F7180000000000000103000000000001030000D9
:10F728000000008320030400002401000183240357
:10F738000400BC000000BA7FFFFEC800800034004F
:10F748000000180000E8FF3C0023005E2C25332E43
:10F7580031662C25332E32662C25332E32662C2525
:10F76800332E32662C25332E32662C25332E326604
:10F778002C25332E32662C25642E253031642C2519
:10F78800642E253031642C25642E253031642C25D7
:10F79800642C25642C25642C256C6C752C3139352A
:10F7A800372C7E454F542020202020202020202048
:10F7B8002020202020202020202020202020202041
:10F7C8002020202020202020202020202020202031
:10F7D8002020202020202020202020202020202021
:10F7E8002020202020202020202020202020202011
:10F7F8002020202020202020202020202020202001
:10F8080020202020202020202020202020200D0A19
:10F81800007C7C2F2F2D2D00000000000000000030
:10F8280000000000007C7C2F2F2D2D5C5C00000068
:10F838000000000000000000004F4F4F4F4F4F2DB9
:10F848002D5F5F2D00000000000000000076763C70
:10F858003C5E5E3E3E00000000000000000000002C
:10F86800002E2E2A2A7823782358587C7C2D2D00A8
:10F8780000000000002E2E6F6F4F4F6F6F000000CA
:10F88800000000000000000000536C656570000077
:10F898000000000000466C6F61740000000000006A
:10F8A8000042756C6B0000000000000000416273AC
:10F8B8006F7262000000000000457175616C697A22
:10F8C8006500000000204C61737400000000000017
:10F8D800004F66666C696E650000000000454D3596
:10F8E8003430000000000000004F66666C696E65E9
:10F8F8000000000000464D38300000000000000005
:10F908000000010300400002000000010000004662
:10F9180000000102000000040000000000000006D2
:10F9280000000102000000030000000000000005C4
:10F9380000000102000000020000000000000004B6
:10F9480000000102000000000000000000000002AA
:10F95800000001020001006A000000000000006DC4
:10F9680000000102000100C700000000000000CAFA
:10F978000000010200000008000000000000000A6A
:10F9880000000102000100C600000000000000C9DC
:10F998000000010400000001000000000000000554
:10F9A80000000102000100C800000000000000CBB8
:10F9B800000001020000000000000000000000023A
:10F9C80000010616040005010610000000010610DB
:10F9D8000200020103500000080103050000400175
:10F9E80003000000340103030200010103000B00BF
:10F9F80001B400000204000000020000010A000037
:10FA080001C77FFFFFC57FFFFFB4001000B77FFF6E
:10FA1800FFB8000001C2000000E40000010400007B
:10FA28000CFFFF0B000010FFFF40F70D2D2D2D20C0
:10FA3800544943313234303020447269766572203B
:10FA480056657273696F6E202573202573202573A0
:10FA5800202D2D2D0D0A000D2D2D2D204D43333336
:10FA68003939362044726976657220566572736931
:10FA78006F6E202573202573202573202D2D2D0DC5
:10FA88000A00424154205625642E25303164205006
:10FA980056205625642E2530316420202020202031
:10FAA800202020202020202020202000424D4320FC
:10FAB800256C752020202020202020202020202098
:10FAC800202020202020202020202020202020202E
:10FAD8002020004F4620256C752045525220256C69
:10FAE80075202020202020202020202020202020B9
:10FAF800202020202020202020006B7768202575DA
:10FB080020666C6F6174202575202020202020201D
:10FB180020202020202020202020202020202020DD
:10FB280000426D617820257520426D696E2025752B
:10FB380020202020202020202020202020202020BD
:10FB4800202020202020004A616E4665624D6172A7
:10FB58004170724D61794A756E4A756C417567538B
:10FB680065704F63744E6F764465630056256C6408
:10FB7800204125332E3266202020202020202020DE
:10FB8800202020202020202020202020202020008D
:10FB980025732056657220257320202020202020E0
:10FBA800202020202020202020202020202020204D
:10FBB800002573202573204125642E2530316420CB
:10FBC80041256420202020202020202020202020C3
:10FBD80020002052554E2053746174696320446993
:10FBE80073706C6179202020202020202020202084
:10FBF800202000204D6573672025642053746163BD
:10FC08006B20256420202020202020202020202058
:10FC18002020004D554920256C6C58205049432020
:10FC2800255820202020202020202020202020208F
:10FC3800202000205465726D696E616C20496E66E3
:10FC48006F2020202020202020202020202020205D
:10FC5800002573202573202020202020202020200C
:10FC68002020202020202020202020202000204884
:10FC7800454C502053637265656E3A2025642020F8
:10FC88002020202020202020200025732020202034
:10FC9800202020202020202020202020202020205C
:10FCA80020202020200057256C64205641256C64B4
:10FCB80020502564202020202020202020202020C3
:10FCC8002000257320566163256C64204125332E5E
:10FCD80032662020202020202020202020002050B4
:10FCE8006F7274204C6F636B2023256420202020C2
:10FCF800202020202020202000205465726D696E6D
:10FD0800616C202564202020202020202020202015
:10FD180020200020434D44202563202563204C6586
:10FD28006E20256420202020202020200048454CDB
:10FD38005020257320202020202020202020202033
:10FD48002020202000204F70656E204C4C20202061
:10FD58002020202020202020202020200020507536
:10FD68006D70204C4C202020202020202020202096
:10FD78002020202000205265616479204C4C2020EE
:10FD88002020202020202020202020200020533246
:10FD980046343120232563202020202020202020C5
:10FDA8002020202000444953504C415920257320DD
:10FDB80020202020202020202020202000205374D4
:10FDC8006F726564202325642020202020202020B5
:10FDD8002020202000767465726D2025783A2578D9
:10FDE80020202020202020202020202000205345D3
:10FDF8005155454E434520256420202020202020B1
:10FE0800202020200020446973706C6179206E7571
:10FE18006D2025642020202020202020002053252C
:10FE280064462564206C6F672020202025642020EC
:10FE38002020202000204C6F61642D6C6F636B20A4
:10FE48006E756D20256420202020202000204F5032
:10FE580049204441515F424D4320257320202020F2
:10FE68002020202000202573202020202020202052
:10FE780020202020202020202020200020494E461D
:10FE88004F2020202020202020202020202020203B
:10FE980020200020565445524D20494E464F2020E0
:10FEA8002020202020202020200020565445524D7C
:10FEB8002048454C50202020202020202020202091
:10FEC800002056657273696F6E20257320202020EC
:10FED80020202020202020002048454C502042751A
:10FEE800696C6420257320202020202020200020F9
:10FEF8004E534153504F4F4B20416C6C2044657614
:10FF0800202020202000204E534153504F4F4B209B
:10FF1800416E616C6F672044657620200053756ED2
:10FF28004D6F6E54756557656454687546726953AC
:10FF380061740048454C5020257320202020202043
:10FF4800202020202020202000506F72742025734C
:10FF58002020202020202020202020202000257361
:10FF68002020202020202020202020202020202089
:10FF780020004C6F636B656420313135323030625C
:10FF880070730053657020203920323032350030CC
:10FF9800383A31363A313900434F4D4D2020200050
:10FFA8004552524F522020004F4E4C494E4520009A
:10FFB80052454D4F5445200044495341424C450059
:10FFC8004F46464C494E4500286E756C6C290056C4
:10FFD800302E33380056302E370056302E38004930
:10FFE8004E46004E414E00696E66006E616E0047D7
:07FFF8004D540025730000C9
:020000040001F9
:1000000000019451A6ECCFF09F942CECDEF0D68E3C
:10001000D68CBF82BF84BF86DDECD9F003ECDBF069
:10002000000E6100A2F3F3F022EEF3F0070EDE6A99
:10003000E806FDE20601DE6BDE51020DF3C4D1F6E7
:10004000F4C4D2F6000ED2BFFF0ED36FD46F000EF1
:10005000D1250501916F000E0601D2210501926F95
:100060002C0E0601D3210501936F5DECC8F006014B
:10007000DE51020DC30EF324D96E080EF420DA6EA1
:10008000050191C5DEF492C5DDF40601DE51020DD5
:10009000C30EF324D96E080EF420DA6EDEC4D1F656
:1000A000DDC4D2F6D1510801F3270601D25108016F
:1000B000F423000EF523000EF623000EF723000EA6
:1000C000F823000EF923000EFA230601DE2B080E9A
:1000D000DE65B2D7F3C853F8F4C854F8F5C855F83C
:1000E000F6C856F8F7C857F8F8C858F8F9C859F8D4
:1000F000FAC85AF8FE0E0501916FFF0E926F3F0E7F
:10010000936F5DECC8F091C54FF892C550F8FC0EA6
:10011000916FFF0E926F3F0E936F5DECC8F091C52B
:1001200051F892C552F8E60E916FB20E926F010E21
:10013000936FB3ECDCF07CECD3F0090E156E186A0B
:10014000140E176EDFECD1F00C0E156E4E0E186EFD
:10015000200E176EDFECD1F022EEF3F0FF0EDE146E
:100160000801F36FFF0EDE14F46FFF0EDE14F56F5F
:10017000FF0EDE14F66F000EDE14F76F000EDE14B5
:10018000F86F000EDE14F96F000EDE14FA6F05EC46
:10019000DEF0EE0E0501916FAF0E926F010E936FC0
:1001A0000EECDDF002ECDEF0FFECDDF06C0E050194
:1001B000916F810E926F010E936F07ECDDF0400E90
:1001C000916FBC0E926F010E936F2AECDDF00EEC76
:1001D000DEF0CC0E0501916FBB0E926F010E936F96
:1001E00023ECDDF00BECDEF07A0E0601DC6FFF0E87
:1001F000DD6F3BECC9F0010E956FF40E946F89EC46
:10020000D9F0BF94BF92BF96C0842AECDEF0C094B0
:10021000CF0E0501B16F0B0EB26F7AEC9EF0C08469
:1002200023D1B90E05019F6FF90EA06F03ECD2F038
:10023000B80E0501CA6FA60ECB6F010ECC6F050E6E
:10024000CD6F3DECC1F03ED10801B451D8A413D01C
:10025000A90E05019F6FF90EA06F03ECD2F08C0E72
:100260000501CA6F840ECB6F010ECC6F050ECD6FEA
:100270003DECC1F027D1090E05019F6FF90EA06F6B
:1002800003ECD2F0D40E0501CA6FBB0ECB6F010E8A
:10029000CC6F050ECD6F3DECC1F014D1890E050178
:1002A0009F6FF90EA06F03ECD2F0AC0E0501CA6F80
:1002B000BB0ECB6F010ECC6F050ECD6F3DECC1F0C8
:1002C00001D1790E05019F6FF90EA06F03ECD2F0FA
:1002D000660E0501CA6FB30ECB6F010ECC6F050E13
:1002E000CD6F3DECC1F0EED0690E05019F6FF90EA8
:1002F000A06F03ECD2F03C0E0501CA6FB30ECB6FBA
:10030000010ECC6F050ECD6F3DECC1F0DBD0590E68
:1003100005019F6FF90EA06F03ECD2F0DC0E050112
:10032000CA6FAC0ECB6F010ECC6F050ECD6F3DECDE
:10033000C1F0C8D0990E05019F6FF90EA06F03ECB4
:10034000D2F0840E0501CA6F830ECB6F010ECC6F05
:10035000100ECD6F3DECC1F0B5D0390E05019F6F89
:10036000F90EA06F03ECD2F0160E0501CA6FAF0EA6
:10037000CB6F010ECC6F050ECD6F3DECC1F0A2D05E
:10038000290E05019F6FF90EA06F03ECD2F0ECD798
:10039000190E05019F6FF90EA06F03ECD2F0160E37
:1003A0000501CA6FAF0ECB6F010ECC6F050ECD6F7E
:1003B0003DECC1F00601F76B85D0F751000AD8B4C7
:1003C000CCD7010AD8B4DCD7030AD8B4E1D7F2D726
:1003D000F00E05019F6F0A0EA06F03ECD2F0160E0F
:1003E0000501CA6F5E0ECB6F010ECC6F110ECD6F83
:1003F0003DECC1F067D0EA0E05019F6F0C0EA06FB7
:1004000003ECD2F0A40E0501CA6FBB0ECB6F010E38
:10041000CC6F050ECD6F3DECC1F054D0DA0E050166
:100420009F6F0C0EA06F03ECD2F09C0E0501CA6FFB
:10043000BB0ECB6F010ECC6F050ECD6F3DECC1F046
:1004400041D0490E05019F6FF90EA06F03ECD2F069
:100450008A0E0501CA6FB00ECB6F010ECC6F050E70
:10046000CD6F3DECC1F02ED00601F651D16FD26BAD
:10047000D251000AD8A4D5D6D151000AD8B4D1D6C9
:10048000010AD8B4E1D6030AD8B408D7010AD8B40F
:1004900018D7070AD8B428D7010AD8B438D7030A1E
:1004A000D8B48BD7010AD8B4A6D70F0AD8B4B6D718
:1004B000010AD8B48DD7030AD8B4C3D7010AD8B477
:1004C00039D7AFD60C0E31ECDAF00009D8B4FFD230
:1004D0000C0E156E750E186E300E176EDFECD1F027
:1004E0000801B46BF4D29AECBBF00C0E97ECDCF084
:1004F00028EEDCF2DF50F4ECDAF0000E916F000E23
:100500005AECD0F091C565F692C566F60601686BA7
:10051000150E676F510E696FFF0E6A6FDCC66BF6C2
:10052000DDC66CF6BBECC4F0000E0501916F010E48
:100530005AECD0F091C565F692C566F60601686B77
:10054000150E676F510E696FFF0E6A6FDCC66BF692
:10055000DDC66CF6BBECC4F0000E0501916F020E17
:100560005AECD0F091C565F692C566F60601686B47
:10057000150E676F510E696FFF0E6A6FDCC66BF662
:10058000DDC66CF6BBECC4F0000E0501916F030EE6
:100590005AECD0F091C565F692C566F60601686B17
:1005A000150E676F510E696FFF0E6A6FDCC66BF632
:1005B000DDC66CF6BBECC4F089ECDCF0030E050183
:1005C000956FE80E946F89ECD9F08FECD8F070EC51
:1005D000D1F0E5ECA8F00009D8A415D0010E610017
:1005E000A2F3FEF2000E6100A2F3FFF2000E610022
:1005F000A2F300F3000E6100A2F301F3010E060165
:10060000F86F08014E81A7ECD8F010ECC8F0000993
:10061000D8A415D0010E6100A2F302F3000E610010
:10062000A2F303F3000E6100A2F304F3000E6100D5
:10063000A2F305F3010E0601F86F08014E8395EC55
:10064000D1F06BECDAF0010E6100A2F3F3F0070ECB
:100650000501926FA50E916FD4ECDBF028EEDCF271
:10066000DF50F4ECDAF0190E0601656F220E666FAA
:10067000686B3F0E676F3B0E696FFC0E6A6FBBECD9
:10068000C4F0000E0501916F000E5AECD0F091C538
:1006900065F692C566F60601686B150E676F550E16
:1006A000696FFE0E6A6FD70E6B6FFF0E6C6FBBEC3F
:1006B000C4F0000E0501916F010E5AECD0F091C507
:1006C00065F692C566F60601686B150E676FDA0E61
:1006D000696FFB0E6A6FBBECC4F00601F851D8B429
:1006E00015D0000E0501916F020E5AECD0F091C5A5
:1006F00065F692C566F60601686B150E676F0E0EFD
:10070000696FFF0E6A6FBBECC4F014D0000E0501D8
:10071000916F020E5AECD0F091C565F692C566F65F
:100720000601686B150E676FF70E696FFE0E6A6F34
:10073000BBECC4F0000E0501916F030E5AECD0F033
:1007400091C565F692C566F60601686B150E676F72
:100750006D0E696FFE0E6A6F8B0E6B6FFF0E6C6F06
:10076000BBECC4F0010E0501916F000E5AECD0F005
:1007700091C565F692C566F60601686B150E676F42
:10078000840E696FFE0E6A6FBBECC4F0010E0501AA
:10079000916F010E5AECD0F091C565F692C566F6E0
:1007A0000601686B150E676FC90E696FFE0E6A6FE2
:1007B000D70E6B6FFF0E6C6FBBECC4F0010E050122
:1007C000916F020E5AECD0F091C565F692C566F6AF
:1007D0000601686B150E676F9B0E696FFE0E6A6FE0
:1007E000BBECC4F0010E0501916F030E5AECD0F082
:1007F00091C565F692C566F60601686B150E676FC2
:100800006D0E696FFE0E6A6F8B0E6B6FFF0E6C6F55
:10081000BBECC4F0030E0501916F000E5AECD0F052
:1008200091C565F692C566F60601686B150E676F91
:10083000E00E696FFE0E6A6FD70E6B6FFF0E6C6F66
:10084000BBECC4F0030E0501916F010E5AECD0F021
:1008500091C565F692C566F60601686B150E676F61
:10086000C90E696FFE0E6A6FD70E6B6FFF0E6C6F4D
:10087000BBECC4F0030E0501916F020E5AECD0F0F0
:1008800091C565F692C566F60601686B150E676F31
:10089000B20E696FFE0E6A6FBBECC4F0030E050169
:1008A000916F030E5AECD0F091C565F692C566F6CD
:1008B0000601686B150E676F6D0E696FFE0E6A6F2D
:1008C0008B0E6B6FFF0E6C6FBBECC4F0020E05015C
:1008D000916F000E5AECD0F091C565F692C566F6A0
:1008E0000601686B150E676F1B0E696FFC0E6A6F51
:1008F00053C86BF654C86CF655C86DF656C86EF6FC
:1009000057C86FF658C870F659C871F65AC872F6CB
:100910004FC873F650C874F6BBECC4F0020E050164
:10092000916F010E5AECD0F091C565F692C566F64E
:100930000601686B150E676FDB0E696FFA0E6A6F42
:1009400024C86BF625C86CF626C86DF627C86EF667
:1009500044C86FF645C870F646C871F647C872F6C7
:10096000BBECC4F0020E0501916F020E5AECD0F000
:1009700091C565F692C566F60601686B150E676F40
:10098000B40E696FFA0E6A6F08C86BF609C86CF688
:100990000AC86DF60BC86EF6BBECC4F0020E05017A
:1009A000916F030E5AECD0F091C565F692C566F6CC
:1009B0000601686B150E676F980E696FFB0E6A6F04
:1009C0008B0E6B6FFF0E6C6FD70E6D6FFF0E6E6F21
:1009D000BBECC4F089ECDCF00B0E0501956FB80E92
:1009E000946F89ECD9F00601F851D8B407D0270EDE
:1009F0000501956F100E946F89ECD9F0050E156EF8
:100A0000010E186EF40E176EDFECD1F0020E156EAB
:100A10000B0E186EB80E176EDFECD1F0070E156EC8
:100A2000050E186EDC0E176EDFECD1F0040E156E9D
:100A30000B0E186EB80E176EDFECD1F0060E156EA9
:100A4000270E186E100E176EDFECD1F0030E156E28
:100A50000B0E186EB80E176EDFECD1F0010E156E8E
:100A6000186A010E176EDFECD1F043D0000ED3EC04
:100A7000DAF0000E916F000E5AECD0F091C5D6F668
:100A800092C5D7F6060120EE15F0D651D926D751DA
:100A9000DA22DF6A000E0501956F030ED4ECC6F072
:100AA0000601D16F20EE13F0D651D926D751DA22A4
:100AB000D1C6DFF41ED0000E6100A2F3F3F00B0EDE
:100AC0000501956FB80E946F89ECD9F012D028EE1D
:100AD000F3F0DF500601D16FD26BD251000AD8A4D7
:100AE000EAD7D151000AD8B4FED4010AD8B4BED78F
:100AF000E2D7010E31ECDAF00009D8B472D1010E60
:100B0000156E186A010E176EDFECD1F028EE02F3B5
:100B1000DE50DE10DE10DE10D8A414D0A7ECD8F022
:100B2000D69E0901F651D8A406D06800E4F9A3F7CF
:100B30006800E8F9A4F7D68EA3C7A1F5A4C7A2F56B
:100B40001BECD4F06BECDAF0010E08010027000E6C
:100B5000012302230323DEECDDF0000E62ECDCF067
:100B60009AECDDF00009D8B4FBD79AECDDF000096F
:100B7000D8B406D05DECDBF091C500FC92C501FC59
:100B8000DEECDDF0010E62ECDCF09AECDDF0000949
:100B9000D8B4FBD79AECDDF00009D8B40ED05DECE8
:100BA000DBF0610046F6ECF261004AF6EDF2680017
:100BB000B0FB02FC6800B4FB03FCDEECDDF0020ECF
:100BC00062ECDCF09AECDDF00009D8B4FBD79AECCB
:100BD000DDF00009D8B40ED05DECDBF0610046F624
:100BE000EEF261004AF6EFF26800B8FB04FC680020
:100BF000BCFB05FCDEECDDF0040E62ECDCF09AECF4
:100C0000DDF00009D8B4FBD79AECDDF00009D8B4C8
:100C100006D05DECDBF091C508FC92C509FCDEEC6A
:100C2000DDF0050E62ECDCF09AECDDF00009D8B4E2
:100C3000FBD79AECDDF00009D8B406D05DECDBF010
:100C400091C50AFC92C50BFCDEECDDF0160E62ECE1
:100C5000DCF09AECDDF00009D8B4FBD79AECDDF0BB
:100C60000009D8B406D05DECDBF091C52CFC92C530
:100C70002DFCDEECDDF0170E62ECDCF09AECDDF022
:100C80000009D8B4FBD79AECDDF00009D8B406D03F
:100C90005DECDBF091C52EFC92C52FFCDEECDDF0A7
:100CA0001D0E62ECDCF09AECDDF00009D8B4FBD745
:100CB0009AECDDF00009D8B406D05DECDBF091C50C
:100CC0003AFC92C53BFCDEECDDF03B0E62ECDCF066
:100CD0009AECDDF00009D8B4FBD79AECDDF00009FE
:100CE000D8B406D05DECDBF091C576FC92C577FCFC
:100CF000DEECDDF03C0E62ECDCF09AECDDF000099D
:100D0000D8B4FBD79AECDDF00009D8B406D05DEC7E
:100D1000DBF091C578FC92C579FCDEECDDF03D0E90
:100D200062ECDCF09AECDDF00009D8B4FBD79AEC69
:100D3000DDF00009D8B406D05DECDBF091C57AFC9B
:100D400092C57BFCDEECDDF03E0E62ECDCF09AEC52
:100D5000DDF00009D8B4FBD79AECDDF00009D8B477
:100D600006D05DECDBF091C57CFC92C57DFCDEEC31
:100D7000DDF03F0E62ECDCF09AECDDF00009D8B457
:100D8000FBD79AECDDF00009D8B406D05DECDBF0BF
:100D900091C57EFC92C57FFC680098FA7DF028EE34
:100DA000FEF2DE50DE10DE10DE10D8A41AD08FEC7A
:100DB000D8F0000E0501B06F000EB16F000EB26FDB
:100DC000000EB36F000EB46F000EB56F000EB66F5D
:100DD000F2ECC8F0D5C5D9F4D6C5DAF4DFBEE5EC3F
:100DE000A8F0050E31ECDAF00009D8B47BD26BEC38
:100DF000DAF0050E156E010E186EF40E176EDFECAC
:100E0000D1F0040E31ECDAF00009D8B403D0000EB2
:100E1000D3ECDAF0000EDCECD7F00601FA51D8B4CE
:100E200029D21BECA7F0000E0501916F000E5AECC1
:100E3000D0F091C565F692C566F60601686B150E91
:100E4000676F920E696FFC0E6A6F020E0701CF2565
:100E500006016B6F000E0701D02106016C6FBBEC21
:100E6000C4F018C991F519C992F51AC993F51BC9AF
:100E700094F5010EE7ECBEF091C59FF592C5A0F583
:100E800093C5A1F594C5A2F5000EA36F000EA46F43
:100E90007A0EA56F440EA66FC8ECADF09FC5D8F6CC
:100EA000A0C5D9F6A1C5DAF6A2C5DBF6000E916F92
:100EB000010E5AECD0F091C565F692C566F60601B2
:100EC000686B150E676FCA0E696FFC0E6A6F0B01B7
:100ED000D5510C0DD90EF32406016B6FF80EF420DA
:100EE0006C6F0CC991F50DC992F50EC993F50FC938
:100EF00094F50A0E0501956F000E966F000E976F20
:100F0000000E986FF2ECC3F091C56DF692C56EF6C7
:100F100093C56FF694C570F6D8C671F6D9C672F649
:100F2000DAC673F6DBC674F6BBECC4F0000E05013E
:100F3000916F020E5AECD0F091C565F692C566F637
:100F40000601686B150E676FB90E696FFB0E6A6F4D
:100F50000801AE510C0DF10EF32406016B6FF80E73
:100F6000F4206C6F0C0EFB03F3C4D1F6F4C4D2F67C
:100F7000FC03F350D227910ED1256D6FF80ED221CC
:100F80006E6F800E0701EE2506016F6FFF0E0701E1
:100F9000EF210601706F800E0701EC250601716FCD
:100FA000FF0E0701ED210601726F800E0701EA2591
:100FB0000601736FFF0E0701EB210601746FBBEC96
:100FC000C4F0000E0501916F030E5AECD0F091C5EC
:100FD00065F692C566F60601686B150E676F8A0E98
:100FE000696FFA0E6A6F99C76BF69AC76CF69BC762
:100FF0006DF69CC76EF695C76FF696C770F697C7E5
:1010000071F698C772F6BBECC4F0010E0501916F42
:10101000000E5AECD0F091C565F692C566F6060151
:10102000686B150E676F020E696FFB0E6A6FE2C880
:101030006BF6E3C86CF6F0C86DF6F1C86EF6BBEC63
:10104000C4F0010E0501916F010E5AECD0F091C56C
:1010500065F692C566F60601686B150E676F290E78
:10106000696FFB0E6A6FECC86BF6EDC86CF6EAC8E8
:101070006DF6EBC86EF6BBECC4F018C991F519C952
:1010800092F51AC993F51BC994F5010EE7ECBEF071
:1010900091C59FF592C5A0F593C5A1F594C5A2F59C
:1010A000000EA36F000EA46F7A0EA56F440EA66FFC
:1010B000C8ECADF09FC5D8F6A0C5D9F6A1C5DAF643
:1010C000A2C5DBF6010E916F020E5AECD0F091C56D
:1010D00065F692C566F60601686B150E676F740EAD
:1010E000696FFB0E6A6F0CC96BF60DC96CF60EC901
:1010F0006DF60FC96EF6D8C66FF6D9C670F6DAC6A9
:1011000071F6DBC672F6BBECC4F0010E0501916FFF
:10111000030E5AECD0F091C565F692C566F606014D
:10112000686B150E676FAE0E696FFC0E6A6F24C98F
:101130006BF625C96CF626C96DF627C96EF630C95F
:101140006FF631C970F632C971F633C972F662C9E9
:1011500073F663C974F6BBECC4F0020E0501916F1F
:10116000000E5AECD0F091C565F692C566F6060100
:10117000686B150E676F1B0E696FFC0E6A6F53C8A4
:101180006BF654C86CF655C86DF656C86EF657C85F
:101190006FF658C870F659C871F65AC872F64FC83B
:1011A00073F650C874F6BBECC4F0020E0501916FE3
:1011B000010E5AECD0F091C565F692C566F60601AF
:1011C000686B150E676FDB0E696FFA0E6A6F24C8C5
:1011D0006BF625C86CF626C86DF627C86EF644C8AF
:1011E0006FF645C870F646C871F647C872F6BBEC94
:1011F000C4F0020E0501916F020E5AECD0F091C5B9
:1012000065F692C566F60601686B150E676FB40E3B
:10121000696FFA0E6A6F08C86BF609C86CF60AC8DF
:101220006DF60BC86EF6BBECC4F0020E0501916FB3
:10123000030E5AECD0F091C565F692C566F606012C
:10124000686B150E676F590E696FFC0E6A6F8B0E17
:101250006B6FFF0E6C6FD70E6D6FFF0E6E6FBBEC7A
:10126000C4F089ECDCF00901F06B0601FA6B000EAA
:1012700035ECCDF028EEDDF2DFC4D1F6010EDF262D
:10128000460E0601D16529D0FE51F4ECDAF028EEC5
:10129000DDF2DF500601D16FD26B28EEDFF2DF50B6
:1012A000D36FD46B660ED327000ED423D151D35DF8
:1012B000D451800AD56FD251800AD559D8B012D0F6
:1012C000FE2BFE51030B030AD8A402D0010EFE6FC1
:1012D000000E6100A2F3DDF205D028EEDCF2DF5053
:1012E000F4ECDAF028EEE8F2DF50D8B413D0030EB5
:1012F00031ECDAF00009D8B40AD0000E6100A2F394
:10130000E8F228EEDCF2DF50F4ECDAF003D0030E62
:10131000F4ECDAF028EEE3F2DF50D8B41DD0060E7C
:1013200031ECDAF00009D8B417D0060E156E270E8E
:10133000186E100E176EDFECD1F0030E156E0B0E4B
:10134000186EB80E176EDFECD1F0010E6100A2F33B
:10135000E8F2000E45ECBCF0C09404EF81F03FC60B
:10136000D9F440C6DAF4DEC4F6F4DDC4F7F4000EB6
:10137000F86E0800F550250AD8A4D9EF8FF03FC6C3
:10138000D9F440C6DAF4DE2A000EDD22E26B000E4C
:10139000E16FE1C6E9F6E369E469516B30D0E981B8
:1013A0003FC6D9F440C6DAF4DE2A000EDD2227D08B
:1013B000E983F6D7E985F4D7E987F2D7E989F0D749
:1013C000010E516F1CD03FC6D9F440C6DAF4DEC41A
:1013D000F6F4DDC4F7F4000EF86E0800F550200AAC
:1013E000D8B4EAD7030AD8B4E9D7080AD8B4E2D700
:1013F000060AD8B4D4D71D0AD8B4DAD7E1D75151E8
:10140000D8B4E1D7E9B1E9933FC691F540C692F56A
:1014100041C693F542C694F57AECC5F091C5E1F664
:1014200092C5E2F60601E2AF05D0E981E16DE21F67
:10143000D8B0E22B3FC6D9F440C6DAF4DEC4F6F4E5
:10144000DDC4F7F4000EF86E0800F5502E0AD8A49B
:1014500015D03FC6D9F440C6DAF4DE2A000EDD22EC
:101460003FC691F540C692F541C693F542C694F544
:101470007AECC5F091C5E3F692C5E4F63FC6D9F41F
:1014800040C6DAF4DEC4F6F4DDC4F7F4000EF86EFC
:101490000800F550630AD8A427D03FC6D9F440C647
:1014A000DAF4DE2A000EDD2241C6D9F442C6DAF4AF
:1014B000DFC443F6020EDE26DFC444F6000EDD2252
:1014C00043C6D9F444C6DAF4DF500601526F3DC674
:1014D0009AF53EC69BF552C69CF581ECC6F09AC5BE
:1014E0003DF69BC53EF612003FC6D9F440C6DAF47D
:1014F000DEC45BF6DDC45CF65BC6F6F45CC6F7F4EE
:10150000000EF86E0800F5C452F626D05B4B5C2B3B
:101510005BC6F6F45CC6F7F4000EF86E0800F550F2
:10152000680AD8A440D0480E526F5B4B5C2B3BD06E
:101530005B4B5C2B5BC6F6F45CC6F7F4000EF86EF2
:101540000800F5506C0AD8A42ED04C0EEDD7690EC9
:10155000526F29D0526B27D006015251580AD8B485
:10156000F6D73C0AD8B4F3D70C0AD8B4CFD7010ABF
:10157000D8B4EDD7030AD8B4D8D7060AD8B4D8D788
:10158000020AD8B4E4D7010AD8B4E1D71B0AD8B408
:10159000CCD7010AD8B4DBD70D0AD8B4D8D7020A01
:1015A000D8B4C3D7D7D75BC6F6F45CC6F7F4000E41
:1015B000F86E0800F550640AD8B4CBD05BC6F6F4D8
:1015C0005CC6F7F4000EF86E0800F550690AD8B44E
:1015D000C0D001D141C6D9F442C6DAF4DFC443F623
:1015E000020EDE26DFC444F6000EDD2243C6D9F427
:1015F00044C6DAF4DF50536F000E53BFFF0E546F32
:1016000051D041C6D9F442C6DAF4DFC443F6040E21
:10161000DE26DFC444F6000EDD2243C6D9F444C6FC
:10162000DAF4DEC445F6DEC446F6DEC447F6DEC4B0
:1016300048F645C649F646C64AF647C64BF648C67A
:101640004CF64D6B4CBF4D694DC64EF64DC64FF630
:101650004DC650F649C653F64AC654F64BC655F623
:101660004CC656F64DC657F64EC658F64FC659F6F6
:1016700050C65AF687D041C6D9F442C6DAF4DFC460
:1016800043F6020EDE26DFC444F6000EDD2243C61A
:10169000D9F444C6DAF4DEC453F6DDC454F6000EC1
:1016A00054BFFF0E556F566F576F586F596F5A6F73
:1016B00069D041C6D9F442C6DAF4DFC443F6080E55
:1016C000DE26DFC444F6000EDD2243C6D9F444C64C
:1016D000DAF4DEC445F6DEC446F6DEC447F6DEC400
:1016E00048F6DEC449F6DEC44AF6DEC44BF6DEC474
:1016F0004CF645C653F646C654F647C655F648C698
:1017000056F649C657F64AC658F64BC659F64CC661
:101710005AF638D041C6D9F442C6DAF4DFC443F6EB
:10172000020EDE26DFC444F6000EDD2243C6D9F4E5
:1017300044C6DAF4DEC445F6DDC446F645C653F6C3
:1017400046C654F6556B566B576B586B596B5A6BB4
:1017500019D05251480AD8B43DD7040AD8B4A9D7F1
:10176000240AD8B488D7010AD8B485D7030AD8B4D4
:10177000A0D7060AD8B445D7180AD8B47CD70E0A21
:10178000D8B4C8D7010E5B25436F000E5C21446FAF
:101790003FC6D9F440C6DAF443C6DEF444C6DDF4ED
:1017A0003DC6ABF53EC6ACF553C6ADF554C6AEF579
:1017B00055C6AFF556C6B0F557C6B1F558C6B2F521
:1017C00059C6B3F55AC6B4F5BDECB4F0ABC53DF699
:1017D000ACC53EF612005BC6F6F45CC6F7F4000E2C
:1017E000F86E0800F550780AD8B4C7D05BC6F6F496
:1017F0005CC6F7F4000EF86E0800F550580AD8B42D
:10180000BCD05BC6F6F45CC6F7F4000EF86E0800B8
:10181000F5506F0AD8B4B1D05BC6F6F45CC6F7F4E5
:10182000000EF86E0800F550750AD8B4A6D03BD16A
:1018300041C6D9F442C6DAF4DFC443F6020EDE260E
:10184000DFC444F6000EDD2243C6D9F444C6DAF400
:10185000DF50456F4551536F546B88D041C6D9F462
:1018600042C6DAF4DFC443F6040EDE26DFC444F6D3
:10187000000EDD2243C6D9F444C6DAF4DEC445F6D0
:10188000DEC446F6DEC447F6DEC448F64551536F63
:101890004651546F4751556F4851566F69D041C6F4
:1018A000D9F442C6DAF4DFC443F6020EDE26DFC402
:1018B00044F6000EDD2243C6D9F444C6DAF4DEC491
:1018C00053F6DDC454F6000E54BFFF0E556F566F2D
:1018D000576F586F596F5A6F69D041C6D9F442C6D5
:1018E000DAF4DFC443F6080EDE26DFC444F6000E49
:1018F000DD2243C6D9F444C6DAF4DEC445F6DEC4BC
:1019000046F6DEC447F6DEC448F6DEC449F6DEC459
:101910004AF6DEC44BF6DEC44CF645C653F646C660
:1019200054F647C655F648C656F649C657F64AC64F
:1019300058F64BC659F64CC65AF638D041C6D9F4BB
:1019400042C6DAF4DFC443F6020EDE26DFC444F6F4
:10195000000EDD2243C6D9F444C6DAF4DEC445F6EF
:10196000DDC446F645C653F646C654F6556B566B6F
:10197000576B586B596B5A6B19D05251480AD8B4EF
:1019800057D7040AD8B4A9D7240AD8B4D7D7010A9C
:10199000D8B4D4D7030AD8B4A0D7060AD8B45ED72F
:1019A000180AD8B47CD70E0AD8B4C8D7010E5B2564
:1019B000436F000E5C21446F3FC6D9F440C6DAF491
:1019C00043C6DEF444C6DDF45AD03DC6AAF53EC691
:1019D000ABF553C6ACF554C6ADF555C6AEF556C617
:1019E000AFF557C6B0F558C6B1F559C6B2F55AC6E7
:1019F000B3F5EAECBAF0AAC53DF6ABC53EF6120067
:101A00003DC6AAF53EC6ABF553C6ACF554C6ADF51A
:101A100055C6AEF556C6AFF557C6B0F558C6B1F5C2
:101A200059C6B2F55AC6B3F525ECBAF0AAC53DF6CB
:101A3000ABC53EF612003DC6AAF53EC6ABF553C691
:101A4000ACF554C6ADF555C6AEF556C6AFF557C69E
:101A5000B0F558C6B1F559C6B2F55AC6B3F55BC66E
:101A6000F6F45CC6F7F4000EF86E0800F5C4B4F5A1
:101A7000B7ECB6F0AAC53DF6ABC53EF612005BC6A4
:101A8000F6F45CC6F7F4000EF86E0800F550580A3C
:101A9000D8B4D1D7370AD8B498D71A0AD8B4B0D79F
:101AA0000D0AD8B4C8D75BC6F6F45CC6F7F4000ECE
:101AB000F86E0800F5506E0AD8B489D0B3D041C68C
:101AC000D9F442C6DAF4DFC443F6020EDE26DFC4E0
:101AD00044F6000EDD2243C6D9F444C6DAF4DEC46F
:101AE000E9F4DEC4EAF4DFC6EFF48AD0DFC643F6D9
:101AF000E0C644F6000E44BFFF0E456F466F41C678
:101B0000D9F442C6DAF4DFC447F6020EDE26DFC49B
:101B100048F6000EDD2247C6D9F448C6DAF4DEC422
:101B2000E9F4DEC4EAF443C6EEF444C6EEF445C676
:101B3000EEF446C6EFF464D0DFC643F6E0C644F6E2
:101B4000000E44BFFF0E456F466F476F486F496FE9
:101B50004A6F41C6D9F442C6DAF4DFC44BF6020E2E
:101B6000DE26DFC44CF6000EDD224BC6D9F44CC68F
:101B7000DAF4DEC4E9F4DEC4EAF443C6EEF444C6A3
:101B8000EEF445C6EEF446C6EEF447C6EEF448C69B
:101B9000EEF449C6EEF44AC6EFF432D041C6D9F4A9
:101BA00042C6DAF4DFC443F6020EDE26DFC444F692
:101BB000000EDD2243C6D9F444C6DAF4DEC4E9F4EB
:101BC000DEC4EAF4DFC6EEF4E0C6EFF419D05251F9
:101BD000480AD8B474D7040AD8B4AED7240AD8B403
:101BE000DDD7010AD8B4DAD7030AD8B4A5D7060AD4
:101BF000D8B47CD7180AD8B4D1D70E0AD8B4CED767
:101C0000010E5B25436F000E5C21446F3FC6D9F483
:101C100040C6DAF443C6DEF444C6DDF43E6B000E83
:101C20003D6F1200516B3FC6D9F440C6DAF4DEC4F2
:101C3000F6F4DDC4F7F4000EF86E0800F550730AF0
:101C4000D8A40AD03FC6D9F440C6DAF4DE2A000E82
:101C5000DD22010E516F44D03FC6D9F440C6DAF4FC
:101C6000DEC4F6F4DDC4F7F4000EF86E0800F5509B
:101C70006C0AD8A435D03FC6D9F440C6DAF4DEC425
:101C800043F6DDC444F6010E4327000E442343C649
:101C9000F6F444C6F7F4000EF86E0800F5506C0A2E
:101CA000D8A41ED03FC6D9F440C6DAF4DEC443F649
:101CB000DDC444F6020E4327000E442343C6F6F467
:101CC00044C6F7F4000EF86E0800F550730AD8A465
:101CD00007D0030E3FC6D9F440C6DAF4DE26B7D7E4
:101CE0005151D8B41FD03DC69AF53EC69BF541C6AA
:101CF000D9F442C6DAF4DFC443F6020EDE26DFC4AE
:101D000044F6000EDD2243C6D9F444C6DAF4DEC43C
:101D10009CF5DDC49DF5F0ECBCF09AC53DF69BC585
:101D20003EF612003FC6D9F440C6DAF4DEC45BF6D4
:101D3000DDC45CF65BC6F6F45CC6F7F4000EF86E24
:101D40000800F5C452F608D05B4B5C2B25D06C0E16
:101D5000526F22D0526B20D05251410AD8B4F7D7DB
:101D6000040AD8B4F4D7030AD8B4F1D7010AD8B416
:101D7000EED70B0AD8B4E8D72D0AD8B4E8D7040AAE
:101D8000D8B4E5D7030AD8B4E2D7010AD8B4DFD76C
:101D90000B0AD8B4D9D7DED75BC6F6F45CC6F7F425
:101DA000000EF86E0800F550610AD8B467D05BC623
:101DB000F6F45CC6F7F4000EF86E0800F550410A20
:101DC000D8B45CD05BC6F6F45CC6F7F4000EF86ECF
:101DD0000800F550650AD8B451D05BC6F6F45CC66D
:101DE000F7F4000EF86E0800F550450AD8B446D056
:101DF0005BC6F6F45CC6F7F4000EF86E0800F5500A
:101E0000660AD8B43BD05BC6F6F45CC6F7F4000EA5
:101E1000F86E0800F550460AD8B430D05BC6F6F428
:101E20005CC6F7F4000EF86E0800F550670AD8B4E7
:101E300025D05BC6F6F45CC6F7F4000EF86E080019
:101E4000F550470AD8B41AD087D041C6D9F442C653
:101E5000DAF4DFC443F6040EDE26DFC444F6000ED7
:101E6000DD2243C6D9F444C6DAF4DEC453F6DEC438
:101E700054F6DEC455F6DEC456F607D052514C0A6D
:101E8000D8B4E3D7200AD8B4E0D7010E5B25436F5E
:101E9000000E5C21446F3FC6D9F440C6DAF443C655
:101EA000DEF444C6DDF438D03DC600F63EC601F689
:101EB00053C602F654C603F655C604F656C605F6D2
:101EC0005BC6F6F45CC6F7F4000EF86E0800F5C4C5
:101ED00006F6A1EC95F000C63DF601C63EF61200EE
:101EE0003DC600F63EC601F653C602F654C603F6DA
:101EF00055C604F656C605F65BC6F6F45CC6F7F49E
:101F0000000EF86E0800F5C406F6F6EC8FF000C679
:101F10003DF601C63EF612005BC6F6F45CC6F7F469
:101F2000000EF86E0800F550410AD8B4BDD7040A77
:101F3000D8B4D6D7030AD8B4D3D7010AD8B4D0D7E7
:101F4000260AD8B4B1D7040AD8B4CAD7030AD8B479
:101F5000C7D7010AD8B4C4D73FC6D9F440C6DAF40B
:101F6000DEC4F6F4DDC4F7F4000EF86E0800F55098
:101F7000250AD8A416D03FC6D9F440C6DAF4DE2A22
:101F8000000EDD220501926B250E916F3DC693F583
:101F90003EC694F524ECC7F006013E6B010E3D6F82
:101FA00012003FC6D9F440C6DAF4DE2A000EDD2264
:101FB00035D63FC6D9F440C6DAF4DEC4F6F4DDC443
:101FC000F7F4000EF86E0800F5500501916F926B62
:101FD0003DC693F53EC694F524ECC7F03FC6D9F450
:101FE00040C6DAF4DE2A000EDD22D6D72E6B02C6FA
:101FF00031F603C632F604C633F605C634F634AFFE
:1020000014D0010E2E6F31C691F532C692F533C64B
:1020100093F534C694F577ECD8F091C531F692C5B6
:1020200032F693C533F694C534F606013C6B000EC8
:102030003B6FE1C624F6E2C625F62E51D8A402D0A5
:10204000E9A50CD02E51D8A403D00B6B2B0E02D0D7
:102050000B6B2D0E0A6F0AC62EF604D0E9A702D02C
:10206000200E2E6F31C691F532C692F533C693F528
:1020700034C694F557ECC4F091059211D8A44BD016
:1020800006012E51D8B408D02EC600FA2407D8A0D5
:1020900025073C6B010E3B6F06C607F6BF0E0727F0
:1020A0001A0E076110D0000E3B250501916F0A0E34
:1020B00006013C210501926FE70E936FFF0E946FAE
:1020C0005EECD8F00FD0000E3B250501916F0A0E93
:1020D00006013C210501926FEF0E936FFF0E946F86
:1020E0005EECD8F00601FD0E2427FF0E252300C666
:1020F000A1F501C6A2F5000E0501A36F0A0EA46F9B
:1021000024C6A5F525C6A6F5CBECC9F0A1C500F6F9
:10211000A2C501F6120031C691F532C692F533C65A
:1021200093F534C694F557ECC4F091519211D8A4AC
:1021300033D006012E51D8B408D02EC600FA240799
:10214000D8A025073C6B010E3B6F06C607F6BF0EF5
:1021500007271A0E076110D0000E3B250501916F6D
:102160000A0E06013C210501926FEB0E936FFF0EE4
:10217000946F5EECD8F0B6D7000E3B250501916F49
:102180000A0E06013C210501926FF30E936FFF0EBC
:10219000946F5EECD8F0A6D7000E0601376F000EE4
:1021A000386F800E396F3F0E3A6F306B000E2F6F15
:1021B00031C691F532C692F533C693F534C694F51F
:1021C000000E0501956F000E966F000E976F000EC2
:1021D000986F57ECCAF0D8A00CD0D4D020C637F6F0
:1021E00021C638F622C639F623C63AF606012F4B29
:1021F000302B37C6A9F538C6AAF539C6ABF53AC6AD
:10220000ACF5000E0501AD6F000EAE6F200EAF6F86
:10221000410EB06FAEECAAF0A9C520F6AAC521F612
:10222000ABC522F6ACC523F606012051315D050190
:10223000916F0601215132590501926F0601225119
:1022400033590501936F0601235134590501946FE9
:10225000BAECD1F094BFC2D794519311921104E11A
:10226000020E915DD8A0BAD720C6C2F521C6C3F52B
:1022700022C6C4F523C6C5F531C6C6F532C6C7F5B4
:1022800033C6C8F534C6C9F522ECC3F0D8A0A6D72A
:1022900006013751315D0501916F06013851325900
:1022A0000501926F0601395133590501936F0601FB
:1022B0003A5134590501946FBAECD1F094BF08D06B
:1022C0009451931192114AE1020E915DD8B046D01B
:1022D00037C631F638C632F639C633F63AC634F662
:1022E00051D037C69FF538C6A0F539C6A1F53AC614
:1022F000A2F5000EA36F000EA46F200EA56F410E75
:10230000A66FC8ECADF09FC537F6A0C538F6A1C5DD
:1023100039F6A2C53AF606012F07D8A03007375183
:10232000315D0501916F0601385132590501926FF7
:102330000601395133590501936F06013A51345959
:102340000501946FBAECD1F094BFC2D794519311A8
:10235000921104E1020E915DD8A0BAD731C6C2F540
:1023600032C6C3F533C6C4F534C6C5F537C6C6F59F
:1023700038C6C7F539C6C8F53AC6C9F522ECC3F068
:10238000D8A0AFD706C607F6BF0E06010727190E5D
:10239000076504D006C60CF60D6B08D0200E06C6E5
:1023A00007F6086B07110C6F08510D6F0CC61FF66E
:1023B0001FC61EF6670E1F19D8A417D0E351E411EB
:1023C000D8A403D0E46B010EE36FE4BF05D0E45161
:1023D00007E1E305D8B004D01D6B060E1C6F08D0D2
:1023E000E3C61CF6E4C61DF603D0E4AFF9D7F4D774
:1023F000670E1F19D8A41CD030AF06D0FC0E2F5D7D
:10240000FF0E3059D8A012D0FF0E1C25076FFF0E0B
:102410001D21086F2F51075D0851800A096F305147
:10242000800A0959D8A002D0660E01D0650E1E6F31
:102430001CC618F61DC619F6670E1F19D8A405D0BC
:10244000660E1E19D8B430AF02D0184B192B660E89
:102450001E19D8A415D030AF0BD0000E376F000E68
:10246000386F800E396F3F0E3A6F306B000E2F6F52
:10247000670E1F19D8B404D02F51182730511923D3
:10248000366B000E356F31C626F632C627F633C6D8
:1024900028F634C629F637C620F638C621F639C6DE
:1024A00022F63AC623F67BD026C69FF527C6A0F5AE
:1024B00028C6A1F529C6A2F537C6A3F538C6A4F5E6
:1024C00039C6A5F53AC6A6F5C8ECADF09FC5B8F576
:1024D000A0C5B9F5A1C5BAF5A2C5BBF550ECB9F0D8
:1024E000B8C52AF6B9C52BF6BAC52CF6BBC52DF66C
:1024F0002AC691F52BC692F52CC693F52DC694F5F8
:102500001DECC5F091C51AF692C51BF626C6A1F5BD
:1025100027C6A2F528C6A3F529C6A4F52AC6ADF597
:102520002BC6AEF52CC6AFF52DC6B0F537C6A9F54E
:1025300038C6AAF539C6ABF53AC6ACF5AEECAAF08A
:10254000A9C5A5F5AAC5A6F5ABC5A7F5ACC5A8F55F
:102550004BECD2F0A1C526F6A2C527F6A3C528F6F6
:10256000A4C529F637C69FF538C6A0F539C6A1F52A
:102570003AC6A2F5000EA36F000EA46F200EA56F41
:10258000410EA66FC8ECADF09FC537F6A0C538F672
:10259000A1C539F6A2C53AF60601354B362B1851BE
:1025A000355D3651800A076F1951800A0759D8A046
:1025B0007BD737C6A9F538C6AAF539C6ABF53AC6F2
:1025C000ACF5000E0501AD6F000EAE6FA00EAF6F43
:1025D000400EB06FAEECAAF0A9C52AF6AAC52BF63C
:1025E000ABC52CF6ACC52DF626C6C2F527C6C3F57D
:1025F00028C6C4F529C6C5F52AC6C6F52BC6C7F533
:102600002CC6C8F52DC6C9F522ECC3F0D8B003D04E
:10261000000E060118D026C691F527C692F528C6E9
:1026200093F529C694F52AC695F52BC696F52CC6C2
:1026300097F52DC698F557ECCAF0D8A00BD0060137
:102640001AB108D0000E2A6F000E2B6F000E2C6FEF
:10265000000E2D6F31C691F532C692F533C693F553
:1026600034C694F52AC695F52BC696F52CC697F573
:102670002DC698F543ECACF091C526F692C527F629
:1026800093C528F694C529F626C6C2F527C6C3F514
:1026900028C6C4F529C6C5F5000EAD6F000EAE6F95
:1026A000200EAF6F410EB06F20C6A9F521C6AAF566
:1026B00022C6ABF523C6ACF5AEECAAF0A9C5C6F5AB
:1026C000AAC5C7F5ABC5C8F5ACC5C9F522ECC3F0C2
:1026D000D8A025D006012F4B302B20C6A9F521C646
:1026E000AAF522C6ABF523C6ACF5000E0501AD6F09
:1026F000000EAE6F200EAF6F410EB06FAEECAAF0C1
:10270000A9C520F6AAC521F6ABC522F6ACC523F6AD
:10271000660E06011E19D8A402D0184B192B20C62C
:1027200037F621C638F622C639F623C63AF6650EC4
:1027300006011E19D8B405D02FC615F630C616F6F8
:1027400003D0166B000E156F176B136B000E126F14
:10275000366B000E356FDAD026C69FF527C6A0F57A
:1027600028C6A1F529C6A2F537C6A3F538C6A4F533
:1027700039C6A5F53AC6A6F5C8ECADF09FC5B8F5C3
:10278000A0C5B9F5A1C5BAF5A2C5BBF550ECB9F025
:10279000B8C52AF6B9C52BF6BAC52CF6BBC52DF6B9
:1027A0002AC691F52BC692F52CC693F52DC694F545
:1027B0001DECC5F092BF06D0925113E10A0E915D57
:1027C000D8B00FD02AC691F52BC692F52CC693F53A
:1027D0002DC694F51DECC5F091C51AF692C51BF6F1
:1027E00004D006011B6B090E1A6F06011A511B114A
:1027F000D8A40AD0670E1F19D8B416AF05D0E9B90E
:1028000003D0124B132B36D01751D8B416AF20D0AB
:10281000000E3B25D96E0A0E3C21DA6E2E0EDF6EBD
:102820003B4B3C2B2407D8A02507010E176F10D077
:10283000000E3B25D96E0A0E3C21DA6E300EDF6E9B
:102840003B4B3C2B2407D8A025071207D8A0130721
:1028500012511311D8A4ECD7000E3B25D96E0A0EE5
:102860003C21DA6E1A51300FDF6E3B4B3C2B2407B4
:10287000D8A0250726C6A1F527C6A2F528C6A3F528
:1028800029C6A4F52AC6ADF52BC6AEF52CC6AFF504
:102890002DC6B0F537C6A9F538C6AAF539C6ABF5C9
:1028A0003AC6ACF5AEECAAF0A9C5A5F5AAC5A6F541
:1028B000ABC5A7F5ACC5A8F54BECD2F0A1C526F683
:1028C000A2C527F6A3C528F6A4C529F637C69FF5E5
:1028D00038C6A0F539C6A1F53AC6A2F5000EA36F19
:1028E000000EA46F200EA56F410EA66FC8ECADF0D0
:1028F0009FC537F6A0C538F6A1C539F6A2C53AF688
:1029000006011507D8A01607354B362B1851355D33
:102910003651800A076F1951800A0759D8B008D07C
:102920003CBF1AD73C5104E14B0E3B5DD8A014D7F5
:102930001751D8B4E9A90AD0000E3B25D96E0A0E6A
:102940003C21DA6E2E0EDF6E3B4B3C2B366B4F0E6E
:10295000356F000E3525D96E0A0E3621DA6EDF6A24
:10296000650E1E19D8A474D0146B30AF06D0010EBA
:10297000146F2F6D301FD8B0302B1D6B020E1C6FE3
:102980002AD03507D8A03607000E3525D96E0A0E95
:102990003621DA6E2FC691F530C692F50501946B9B
:1029A0000A0E936FA5ECCDF09151300FDF6E2FC65C
:1029B00091F530C692F5946B0A0E936F22ECCBF032
:1029C00091C52FF692C530F606011C07D8A01D0749
:1029D0002407D8A025072F513011D8A4D2D71DBF66
:1029E00005D01D51CEE11C05D8B0CBD73507D8A0F6
:1029F00036071451D8A403D00F6B2B0E02D00F6BE7
:102A00002D0E0E6F000E3525D96E0A0E3621DA6EA8
:102A10000EC6DFF42407D8A025073507D8A036074F
:102A200006C607F6BF0E0727190E076503D0116B00
:102A3000650E02D0116B450E106F000E3525D96E54
:102A40000A0E3621DA6E10C6DFF42407D8A0250757
:102A5000000E076F0A0E086F3B51075F3C51085B81
:102A6000355107250501916F0601365108210501F1
:102A7000926F000E936F0A0E946F3BC695F53CC69D
:102A800096F577ECCFF006013B51355D3B6F3C513D
:102A900036593C6F2E51D8B402D0010E01D0000E31
:102AA000356F366BE9B30FD022D03B07D8A03C0777
:102AB000000E3B25D96E0A0E3C21DA6E300EDF6E19
:102AC0002407D8A025072451355D3651800A076FA9
:102AD0002551800A0759D8B00AD03B51355D36518F
:102AE000800A076F3C51800A0759D8A0DED72E51C3
:102AF000D8B40BD03B07D8A03C07000E3B25D96EBD
:102B00000A0E3C21DA6E2EC6DFF43551245F3651B1
:102B1000255B00C6A1F501C6A2F5000E3B25050107
:102B2000A36F0A0E06013C210501A46F24C6A5F57A
:102B300025C6A6F5CBECC9F0A1C500F6A2C501F6E5
:102B4000120006C607F6BF0E0727190E076501D04B
:102B500002D0010E01D0000E066F316B02C62BF6BB
:102B600003C62CF604C62DF605C62EF62EAF14D0DD
:102B7000010E316F2BC691F52CC692F52DC693F53B
:102B80002EC694F577ECD8F091C52BF692C52CF6AD
:102B900093C52DF694C52EF60601396B000E386FDD
:102BA000E1C621F6E2C622F63151D8A402D0E9A549
:102BB0000CD03151D8A403D00E6B2B0E02D00E6B6B
:102BC0002D0E0D6F0DC631F604D0E9A702D0200EF0
:102BD000316F2BC691F52CC692F52DC693F52EC6F6
:102BE00094F557ECC4F091059211D8A447D0060192
:102BF0003151D8B408D031C600FA396B010E386FA4
:102C00002107D8A022070651D8B410D0000E3825CD
:102C10000501916F0A0E060139210501926FE70E39
:102C2000936FFF0E946F5EECD8F00FD0000E382536
:102C30000501916F0A0E060139210501926FEF0E11
:102C4000936FFF0E946F5EECD8F00601FD0E212706
:102C5000FF0E222300C6A1F501C6A2F5000E050154
:102C6000A36F0A0EA46F21C6A5F522C6A6F5CBEC6C
:102C7000C9F0A1C500F6A2C501F612002BC691F558
:102C80002CC692F52DC693F52EC694F557ECC4F0DC
:102C900091519211D8A42FD006013151D8B408D047
:102CA00031C600FA396B010E386F2107D8A0220710
:102CB0000651D8B410D0000E38250501916F0A0EC8
:102CC000060139210501926FEB0E936FFF0E946F91
:102CD0005EECD8F0BAD7000E38250501916F0A0EC8
:102CE000060139210501926FF30E936FFF0E946F69
:102CF0005EECD8F0AAD7000E0601326F000E336FDB
:102D0000800E346F3F0E356F206B000E1F6F2BC689
:102D100091F52CC692F52DC693F52EC694F5000EAE
:102D20000501956F000E966F000E976F000E986F5D
:102D300057ECCAF0D8A01ED077D032C6A9F533C65A
:102D4000AAF534C6ABF535C6ACF5000EAD6F000E76
:102D5000AE6F000EAF6F400EB06FAEECAAF0A9C51B
:102D600032F6AAC533F6ABC534F6ACC535F6060166
:102D70001F4B202B2BC6C2F52CC6C3F52DC6C4F5A0
:102D80002EC6C5F5000E0501AD6F000EAE6F000E2C
:102D9000AF6F400EB06F32C6A9F533C6AAF534C680
:102DA000ABF535C6ACF5AEECAAF0A9C5C6F5AAC51B
:102DB000C7F5ABC5C8F5ACC5C9F522ECC3F0D8A0C2
:102DC0001FD0BBD732C69FF533C6A0F534C6A1F5D8
:102DD00035C6A2F5000EA36F000EA46F000EA56FFE
:102DE000400EA66FC8ECADF09FC532F6A0C533F615
:102DF000A1C534F6A2C535F606011F07D8A02007E5
:102E00002BC6C2F52CC6C3F52DC6C4F52EC6C5F516
:102E100032C6C6F533C6C7F534C6C8F535C6C9F5DA
:102E200022ECC3F0D8A0CED70601E4BF05D0E3C69C
:102E30001AF6E4C61BF603D01B6B4A0E1A6F010E7E
:102E40001A25166F000E1B21176F376B000E366F99
:102E50002BC623F62CC624F62DC625F62EC626F63E
:102E600032C609F633C60AF634C60BF635C60CF67A
:102E70007BD023C69FF524C6A0F525C6A1F526C69E
:102E8000A2F532C6A3F533C6A4F534C6A5F535C6FA
:102E9000A6F5C8ECADF09FC5B8F5A0C5B9F5A1C5BC
:102EA000BAF5A2C5BBF550ECB9F0B8C527F6B9C55F
:102EB00028F6BAC529F6BBC52AF627C691F528C655
:102EC00092F529C693F52AC694F51DECC5F091C577
:102ED0002FF692C530F623C6A1F524C6A2F525C665
:102EE000A3F526C6A4F532C6ADF533C6AEF534C695
:102EF000AFF535C6B0F527C6A9F528C6AAF529C687
:102F0000ABF52AC6ACF5AEECAAF0A9C5A5F5AAC5E5
:102F1000A6F5ABC5A7F5ACC5A8F54BECD2F0A1C59D
:102F200023F6A2C524F6A3C525F6A4C526F632C607
:102F30009FF533C6A0F534C6A1F535C6A2F5000E3F
:102F4000A36F000EA46F800EA56F410EA66FC8EC94
:102F5000ADF09FC532F6A0C533F6A1C534F6A2C5C3
:102F600035F60601364B372B1651365D3751800A40
:102F7000076F1751800A0759D8A07BD732C6A9F529
:102F800033C6AAF534C6ABF535C6ACF5000E05015F
:102F9000AD6F000EAE6F000EAF6F410EB06FAEECB6
:102FA000AAF0A9C527F6AAC528F6ABC529F6ACC56F
:102FB0002AF623C6C2F524C6C3F525C6C4F526C61F
:102FC000C5F527C6C6F528C6C7F529C6C8F52AC659
:102FD000C9F522ECC3F0D8B003D0000E060118D01A
:102FE00023C691F524C692F525C693F526C694F519
:102FF00027C695F528C696F529C697F52AC698F5E9
:1030000057ECCAF0D8A00BD006012FB108D0000EA3
:10301000276F000E286F000E296F000E2A6F2BC637
:1030200091F52CC692F52DC693F52EC694F527C6BC
:1030300095F528C696F529C697F52AC698F543EC66
:10304000ACF091C523F692C524F693C525F694C538
:1030500026F609C632F60AC633F60BC634F60CC697
:1030600035F60601196B000E186F1E6B1D6B000EF6
:103070001C6F376B000E366FFDD023C69FF524C63C
:10308000A0F525C6A1F526C6A2F532C6A3F533C61E
:10309000A4F534C6A5F535C6A6F5C8ECADF09FC5B8
:1030A000B8F5A0C5B9F5A1C5BAF5A2C5BBF550ECF8
:1030B000B9F0B8C527F6B9C528F6BAC529F6BBC513
:1030C0002AF627C691F528C692F529C693F52AC691
:1030D00094F51DECC5F091C52FF692C530F60601AA
:1030E0002F513011D8B419AF05D0E9B903D01C4B1A
:1030F0001D2B5DD01E51D8B419AF20D0000E38253D
:10310000D96E0A0E3921DA6E2E0EDF6E384B392B4E
:103110002107D8A02207010E1E6F10D0000E3825FF
:10312000D96E0A0E3921DA6E300EDF6E384B392B2C
:103130002107D8A022071C07D8A01D071C511D116C
:10314000D8A4ECD730BF08D0305104E10A0E2F5D6F
:10315000D8A002D0570E01D0300E2F252F6F000EB1
:103160003021306F0651D8B415D02FC607F6200E87
:1031700007139F0E07271A0E07610CD02FC607F6FC
:103180009F0E0727190E076501D004D05F0E2F157B
:103190002F6F306B000E3825D96E0A0E3921DA6E8A
:1031A0002FC6DFF4384B392B2107D8A0220723C6BE
:1031B000A1F524C6A2F525C6A3F526C6A4F532C6F8
:1031C000ADF533C6AEF534C6AFF535C6B0F527C696
:1031D000A9F528C6AAF529C6ABF52AC6ACF5AEEC0A
:1031E000AAF0A9C5A5F5AAC5A6F5ABC5A7F5ACC5B6
:1031F000A8F54BECD2F0A1C523F6A2C524F6A3C5D1
:1032000025F6A4C526F632C69FF533C6A0F534C60A
:10321000A1F535C6A2F5000EA36F000EA46F800EB7
:10322000A56F410EA66FC8ECADF09FC532F6A0C5E4
:1032300033F6A1C534F6A2C535F606011807D8A0A5
:103240001907364B372BE4AF15D023C691F524C6AA
:1032500092F525C693F526C694F5000E0501956FE7
:10326000000E966F000E976F000E986F57ECCAF025
:10327000D8B013D006011651365D3751800A076F5A
:103280001751800A0759D8B008D039BFF6D639513E
:1032900004E14B0E385DD8A0F0D606011E51D8A42B
:1032A00032D01C511D11D8A4E4BF2DD0E45103E14C
:1032B000E305D8A028D039BF06D0395124E14B0E00
:1032C000385DD8B020D0010E1E6F000E3825D96EA3
:1032D0000A0E3921DA6E2E0EDF6E384B392B21079C
:1032E000D8A0220710D0000E3825D96E0A0E392139
:1032F000DA6E300EDF6E384B392B2107D8A022074B
:103300001C07D8A01D071C511D11D8B408D039BF07
:10331000EAD7395104E14B0E385DD8A0E4D71E51ED
:10332000D8B4E9A90AD0000E3825D96E0A0E392181
:10333000DA6E2E0EDF6E384B392B000E3825D96E23
:103340000A0E3921DA6EDF6A376B4F0E366F000EC8
:103350003625D96E0A0E3721DA6EDF6A156B20AF7B
:1033600006D0010E156F1F6D201FD8B0202B1B6BD0
:10337000010E1A6F2AD03607D8A03707000E36255F
:10338000D96E0A0E3721DA6E1FC691F520C692F566
:103390000501946B0A0E936FA5ECCDF09151300F9F
:1033A000DF6E1FC691F520C692F5946B0A0E936FDF
:1033B00022ECCBF091C51FF692C520F606011A0744
:1033C000D8A01B072107D8A022071F512011D8A47D
:1033D000D2D71BBF05D01B51CEE11A05D8B0CBD731
:1033E0003607D8A037071551D8A403D0106B2B0E81
:1033F00002D0106B2D0E0F6F000E3625D96E0A0EFF
:103400003721DA6E0FC6DFF42107D8A0220736076E
:10341000D8A037070651D8A403D0126B700E02D083
:10342000126B500E116F000E3625D96E0A0E372121
:10343000DA6E11C6DFF42107D8A02207000E076F4D
:103440000A0E086F3851075F3951085B365107255E
:103450000501916F0601375108210501926F000E99
:10346000936F0A0E946F38C695F539C696F577ECCA
:10347000CFF006013851365D386F39513759396F01
:103480003151D8A403D0376B020E02D0376B030E34
:10349000366FE9B30FD022D03807D8A03907000E15
:1034A0003825D96E0A0E3921DA6E300EDF6E21070B
:1034B000D8A022072151365D3751800A076F22516B
:1034C000800A0759D8B00AD03851365D3751800A82
:1034D000076F3951800A0759D8A0DED70651D8A402
:1034E00003D0146B780E02D0146B580E136F38078C
:1034F000D8A03907000E3825D96E0A0E3921DA6EA8
:1035000013C6DFF43807D8A03907000E3825D96E66
:103510000A0E3921DA6E300EDF6E3151D8B40BD07D
:103520003807D8A03907000E3825D96E0A0E392180
:10353000DA6E31C6DFF43651215F3751225B00C6A7
:10354000A1F501C6A2F5000E38250501A36F0A0EEC
:10355000060139210501A46F21C6A5F522C6A6F5ED
:10356000CBECC9F0A1C500F6A2C501F61200800E91
:10357000A9250601136FA20E0501AA210601146FE9
:10358000430E0501AB210601156FC70E0501AC21E5
:103590000601166F810E0501A95D5D0EAA59BC0ECC
:1035A000AB59380EAC59D8A035D013C691F514C616
:1035B00092F515C693F516C694F5800E956F510ECB
:1035C000966F010E976F000E986FE1ECCAF091C5EF
:1035D0000FF692C510F693C511F694C512F613C6F0
:1035E00091F514C692F515C693F516C694F5800E9E
:1035F000956F510E966F010E976F000E986FB0EC9D
:10360000CEF091C523F692C524F693C525F694C550
:1036100026F634D013C691F514C692F515C693F567
:1036200016C694F5800E956F510E966F010E976F2A
:10363000000E986FF2ECC3F091C50FF692C510F62C
:1036400093C511F694C512F613C69FF514C6A0F5DE
:1036500015C6A1F516C6A2F5800EA36F510EA46F74
:10366000010EA56F000EA66F2CECC6F09FC523F6C9
:10367000A0C524F6A1C525F6A2C526F6060126AFEB
:1036800010D0800E2327510E2423010E2523000E77
:103690002623FF0E0F27FF0E1023FF0E1123FF0E10
:1036A0001223030E0F2505019F6F000E0601102146
:1036B0000501A06F000E060111210501A16F000E8A
:1036C000060112210501A26F070EA36F000EA46F61
:1036D000000EA56F000EA66F2CECC6F09FC509F674
:1036E000A0C50AF606010AAF04D0070E0927000E8E
:1036F0000A230FC691F510C692F511C693F512C6AE
:1037000094F5B10E0501956F3A0E966F020E976F04
:10371000000E986FF2ECC3F091C504F692C505F661
:1037200093C506F694C507F60FC69FF510C6A0F51B
:1037300011C6A1F512C6A2F5B10EA36F3A0EA46F81
:10374000020EA56F000EA66F2CECC6F09FC529F6E1
:10375000A0C52AF6A1C52BF6A2C52CF606012CAFF2
:1037600010D0B10E29273A0E2A23020E2B23000E69
:103770002C23FF0E0427FF0E0523FF0E0623FF0E4A
:10378000072329C691F52AC692F52BC693F52CC6B8
:1037900094F5AC0E0501956F8E0E966F000E976F27
:1037A000000E986FF2ECC3F091C51BF692C51CF6A3
:1037B00093C51DF694C51EF6040E06011B191C11B7
:1037C0001D111E11D8A408D0FF0E1B27FF0E1C23AD
:1037D000FF0E1D23FF0E1E231BC691F51CC692F57E
:1037E0001DC693F51EC694F5AC0E0501956F8E0EA1
:1037F000966F000E976F000E986F2FECD0F09151DE
:103800000601295F0501925106012A5B05019351CA
:1038100006012B5B0501945106012C5B29C691F52D
:103820002AC692F52BC693F52CC694F5B50E050164
:10383000956F050E966F000E976F000E986FF2EC65
:10384000C3F091C51FF692C520F693C521F694C525
:1038500022F6190E06011F19201121112211D8A4D8
:1038600008D0FF0E1F27FF0E2023FF0E2123FF0E7F
:1038700022231FC691F520C692F521C693F522C6D4
:1038800094F5B50E0501956F050E966F000E976FB6
:10389000000E986F2FECD0F091510601295F0501C1
:1038A000925106012A5B0501935106012B5B05012C
:1038B000945106012C5B29C691F52AC692F52BC6B8
:1038C00093F52CC694F56D0E0501956F010E966F5C
:1038D000000E976F000E986FF2ECC3F091C517F6CB
:1038E00092C518F693C519F694C51AF6040E06018A
:1038F0001719181119111A11D8A408D0FF0E17277B
:10390000FF0E1823FF0E1923FF0E1A2317C691F579
:1039100018C692F519C693F51AC694F56D0E0501F1
:10392000956F010E966F000E976F000E986F2FEC3B
:10393000D0F091510601295F0501925106012A5BE1
:103940000501935106012B5B0501945106012C5B87
:10395000086B1751181119111A11D8A40ED01F5144
:10396000201121112211D8A406D01B511C111D11A8
:103970001E11D8A402D0010E086F08C60DF60E6BFA
:1039800029510D250501AF6F06012A510E210501B0
:10399000B06F3B0EAF2506010B6F000E0501B02185
:1039A00006010C6F6D0E0D250501AF6F010E0601AE
:1039B0000E210501B06FAF5106010B5D0C51800A5D
:1039C0000501B16FB051800AB159D8A011D06D0E68
:1039D00006010D250501AF6F010E06010E2105013F
:1039E000B06FAF5106010B5F0501B05106010C5BD2
:1039F0001FC6AFF520C6B0F521C6B1F522C6B2F597
:103A0000020ED8900501AF37B037B137B237E82E84
:103A1000F8D704C691F505C692F506C693F507C614
:103A200094F5900E956F010E966F000E976F000E35
:103A3000986F2FECD0F091C5B3F592C5B4F593C54E
:103A4000B5F594C5B6F51BC691F51CC692F51DC615
:103A500093F51EC694F5640E956F000E966F000EDA
:103A6000976F000E986F2FECD0F09151B325B76F80
:103A70009251B421B86F9351B521B96F9451B621C9
:103A8000BA6FAF51B725BB6FB051B821BC6FB15100
:103A9000B921BD6FB251BA21BE6F060117510501A0
:103AA000BB250601006F18510501BC210601016FFD
:103AB00019510501BD210601026F1A510501BE21F0
:103AC0000601036F286B000E276F24D0F90E060144
:103AD0002725F66EF60E2821F76EF86A000EF822FA
:103AE0000800F5C4AFF5AFC5B0F50501B16BB26B19
:103AF000B36BB0510601295F0501B15106012A5B84
:103B00000501B25106012B5B0501B35106012C5B87
:103B1000274B282BF90E2725F66EF60E2821F76E77
:103B2000F86A000EF8220800F5C4AFF5AFC5B0F58D
:103B30000501B16BB26BB36BB0510601295D050194
:103B4000B15106012A590501B25106012B592C51D8
:103B5000800A0501B46FB351800AB459D8B0B6D702
:103B6000060128BF10D0285104E10A0E275DD8A015
:103B70000AD0F40E2727FF0E2823010E0027000E7F
:103B8000012302230323640E00250501AF6F000EFD
:103B9000060101210501B06F20EE0AF0AD51D926D2
:103BA000AE51DA22AFC5DEF4B0C5DDF4020E060177
:103BB00027250501AF6F000E060128210501B06F12
:103BC00020EE08F0AD51D926AE51DA22AFC5DEF4B1
:103BD000B0C5DDF4010E060129250501AF6F000E09
:103BE00006012A210501B06F20EE06F0AD51D9265D
:103BF000AE51DA22AFC5DEF4B0C5DDF420EE0CF034
:103C0000AD51D926AE51DA2209C6DEF40AC6DDF47A
:103C100020EE0EF0AD51D926AE51DA220BC6DEF4FD
:103C20000CC6DDF423C691F524C692F525C693F59E
:103C300026C694F5100E956F0E0E966F000E976FB8
:103C4000000E986FF2ECC3F020EE04F0AD51D926CF
:103C5000AE51DA2291C5DEF492C5DDF43C0E956FCB
:103C6000000E966F000E976F000E986F23C691F5A9
:103C700024C692F525C693F526C694F5F2ECC3F05A
:103C800091C59FF592C5A0F593C5A1F594C5A2F580
:103C90003C0EA36F000EA46F000EA56F000EA66F62
:103CA0002CECC6F020EE02F0AD51D926AE51DA224E
:103CB0009FC5DEF4A0C5DDF423C69FF524C6A0F59C
:103CC00025C6A1F526C6A2F53C0EA36F000EA46F73
:103CD000000EA56F000EA66F2CECC6F0ADC5D9F492
:103CE000AEC5DAF49FC5DEF4A0C5DDF4AA6B000E04
:103CF000A96F120022C7B3F523C7B4F524C7B5F5E1
:103D000025C7B6F50701222B000E232324232523E4
:103D10000501B651B511B41108E1280EB35DD8B054
:103D200004D00701CC51D8B41200C38E000E070195
:103D3000226F000E236F000E246F000E256F050109
:103D400020EE05F0B151D926B251DA22010EDF6E14
:103D50002AD320EE05F0B151D926B251DA22020E53
:103D6000DF6E28ECDCF050ECDCF0050120EE01F019
:103D7000B151D926B251DA22010EDF6EB1C5D9F4A4
:103D8000B2C5DAF400EE02F0B151E926B251EA22EE
:103D9000DFC4EFF4B1C5D9F4B2C5DAF4DF2A20EEFE
:103DA00002F0B151D926B251DA22030EDE18D8A49E
:103DB0001AD020EE08F0B151D926B251DA22DF50E4
:103DC000D8B411D0B1C5D9F4B2C5DAF400EE02F01E
:103DD000B151E926B251EA22DFC4EFF4B1C5D9F4FA
:103DE000B2C5DAF4DF2A20EE02F0B151D926B25181
:103DF000DA22040EDE18D8A41AD020EE07F0B15152
:103E0000D926B251DA22DF50D8B411D0B1C5D9F4D5
:103E1000B2C5DAF400EE02F0B151E926B251EA225D
:103E2000DFC4EFF4B1C5D9F4B2C5DAF4DF2A20EE6D
:103E300002F0B151D926B251DA22050EDE18D8A40B
:103E40001AD020EE0AF0B151D926B251DA22DF5051
:103E5000D8B411D0B1C5D9F4B2C5DAF400EE02F08D
:103E6000B151E926B251EA22DFC4EFF4B1C5D9F469
:103E7000B2C5DAF4DF2A20EE02F0B151D926B251F0
:103E8000DA22060EDE18D8A41AD020EE0CF0B151BA
:103E9000D926B251DA22DF50D8B411D0B1C5D9F445
:103EA000B2C5DAF400EE02F0B151E926B251EA22CD
:103EB000DFC4EFF4B1C5D9F4B2C5DAF4DF2A20EEDD
:103EC00002F0B151D926B251DA22070EDE18D8A479
:103ED0001AD020EE0BF0B151D926B251DA22DF50C0
:103EE000D8B411D0B1C5D9F4B2C5DAF400EE02F0FD
:103EF000B151E926B251EA22DFC4EFF4B1C5D9F4D9
:103F0000B2C5DAF4DF2AB1C5D9F4B2C5DAF4080EC5
:103F1000DF64CDD0B1C5D9F4B2C5DAF4DF6AC7D059
:103F200020EE05F0B151D926B251DA22080EDF6E2B
:103F3000000EA26F0F0EA36FED0EA46FF90EA56F0A
:103F4000A76B060EA66F8BECD6F0A6D020EE05F080
:103F5000B151D926B251DA22070EDF6E000EA26FE0
:103F60000F0EA36FDB0EA46FF90EA56FA76B060EE5
:103F7000A66F8BECD6F090D020EE05F0B151D9268B
:103F8000B251DA22130EDF6E000EA26F0F0EA36F76
:103F9000C90EA46FF90EA56FA76B060EA66F8BEC6A
:103FA000D6F07AD020EE05F0B151D926B251DA22FE
:103FB000030EDF6E000EA26F0F0EA36FCF0EA46F65
:103FC000F90EA56FA76B060EA66F8BECD6F064D02A
:103FD00020EE05F0B151D926B251DA22040EDF6E7F
:103FE000000EA26F0F0EA36FD50EA46FF90EA56F72
:103FF000A76B060EA66F8BECD6F04ED020EE05F028
:10400000B151D926B251DA22050EDF6E000EA26F31
:104010000F0EA36FE70EA46FF90EA56FA76B060E28
:10402000A66F8BECD6F038D020EE05F0B151D92632
:10403000B251DA22050EDF6E000EA26F0F0EA36FD3
:10404000E10EA46FF90EA56FA76B060EA66F8BECA1
:10405000D6F022D020EE01F0B151D926B251DA22A9
:10406000DF6AB1C5D9F4B2C5DAF4DF6AB6D120EEA1
:1040700005F0B151D926B251DA22060EDF6E000EDC
:10408000A26F0F0EA36FF30EA46FF90EA56FA76BAF
:10409000060EA66F8BECD6F020EE03F0B151D926B8
:1040A000B251DA22A2C5DEF4A3C5DDF496D120EE2A
:1040B00002F0B151D926B251DA22DF50B36FB46B9E
:1040C000B451000AD8A4DBD7B351000AD8B4CFD773
:1040D000010AD8B493D7030AD8B4A6D7010AD8B432
:1040E00077D7070AD8B45ED7010AD8B445D7030AF0
:1040F000D8B416D7010AD8B429D70F0AD8B4AAD78A
:10410000BED720EE05F0B151D926B251DA22090E00
:10411000DF6E000E59ECD4F094519311921104E12A
:10412000280E915DD8A059D10701B86B050120EE8A
:1041300001F0B151D926B251DA22020EDF6E1EEC27
:10414000DCF0050120EE05F0B151D926B251DA229A
:104150000A0EDF6E42D120EE05F0B151D926B251E0
:10416000DA220B0EDF6E000E3AECD4F09151921170
:1041700093119411D8B431D1B76B0AD0000EB72582
:10418000D96EDA6A0F0EDA22DF50A6ECD7F0B72B21
:1041900020EE03F0B151D926B251DA22B751B56FF2
:1041A000B66BDE50B55DDE50B659D8A0E7D720EE2D
:1041B00001F0B151D926B251DA22030EDF6E1EECA6
:1041C000DCF0050120EE05F0B151D926B251DA221A
:1041D0000C0EDF6E010E0701C827000EC923CA238B
:1041E000CB23CC6B1CECDEF00009D8B4F6D01EEC6F
:1041F000DCF0F3D020EE05F0B151D926B251DA222D
:104200000D0EDF6E000E3AECD4F091519211931125
:104210009411D8B4E2D020EE05F0B151D926B251B4
:10422000DA220E0EDF6E98D0B1C5A0F5B2C5A1F5A9
:104230000A0EB125A26F000EB221A36FA56B080E66
:10424000A46F9BECBDF0C9D0B1C5A0F5B2C5A1F576
:10425000070EB125A26F000EB221A36FA56B080E49
:10426000A46F9BECBDF0B9D0B1C5A0F5B2C5A1F566
:10427000080EB125A26F000EB221A36FA56B080E28
:10428000A46F9BECBDF0A9D0B1C5A0F5B2C5A1F556
:10429000090EB125A26F000EB221A36FA56B6D0EA2
:1042A000A46F800EA66F6B0EA76F010EA86F7BEC3C
:1042B000B8F093D0B1C5A0F5B2C5A1F5090EB125EE
:1042C000A26F000EB221A36FA56B850EA46F660EC0
:1042D000A66FA50EA76F010EA86F7BECB8F07DD07E
:1042E000B1C5A0F5B2C5A1F50C0EB125A26F000EA7
:1042F000B221A36FA56B070EA46F240EA66FB00E9C
:10430000A76F010EA86F7BECB8F067D0B1C5A0F520
:10431000B2C5A1F50B0EB125A26F000EB221A36F9D
:10432000A56B150EA46FFE0EA66FAD0EA76F010E46
:10433000A86F7BECB8F051D0B1C5A0F5B2C5A1F51E
:10434000060EB125A26F000EB221A36FA56B070E5A
:10435000A46F9CECB2F041D020EE02F0B151D9260E
:10436000B251DA22DF50B36FB46BB451000AD8A453
:10437000E3D7B351000AD8B4DFD7010AD8B484D741
:10438000030AD8B497D7010AD8B46ED7070AD8B4AD
:104390005BD7010AD8B448D7030AD8B4A1D7010A19
:1043A000D8B4B4D7C9D720EE01F0B151D926B25153
:1043B000DA22DF50B36FB46BB451000AD8A40DD029
:1043C000B351000AD8B4C5D4010AD8B49AD6030AA6
:1043D000D8B4C1D6010AD8B40DD7C39E050120EECA
:1043E00005F0B151D926B251DA221200C38ABF8634
:1043F000000197A507D0010E08012427000E2523F0
:1044000026232723000194518DC0F2F58A0E09015D
:10441000EF25D96EDA6A090EDA22F2C5DFF4FB5114
:10442000D8B46AD0070EEF19D8A464D08CC965F54A
:10443000070E05016517040E656131D009018B5126
:1044400053ECD7F00601FA51D8A44AD0020E090164
:104450008B19D8A409D0F06B9A0EF025D96EDA6AC0
:10446000090EDA22DF6A3CD09A0EF025D96EDA6A9C
:10447000090EDA228BC9DFF4F02B8C51030BF16F9C
:10448000130EF0652DD09A0EF025D96EDA6A090E5A
:10449000DA22DF6AF06B010E0601FA6F21D0020EFC
:1044A00009018B19D8A40FD0F06B9A0EF025D96EA4
:1044B000DA6A090EDA22DF6A010E0501EE6F010EDB
:1044C0000601F96FE8D78B51110AD8B409D0030A55
:1044D000D8B406D0010AD8B403D0070AD8A4E4D7C8
:1044E0000901FB6BEF6B010E08012827000E292341
:1044F0002A232B230501F26B0901F651D8B447D0CA
:10450000070EEF19D8A441D08BC965F50501666B7C
:10451000676B686B610096F579F261009AF57AF243
:1045200061009EF57BF26100A2F57CF209018C51DD
:104530000501666F656B65C567F566C568F5000EB4
:1045400068BFFF0E696F6A6F000E67156B6FFF0E15
:1045500068156C6F000E69156D6F000E6A156E6F31
:1045600028EE79F26B51DE266C51DE226D51DE228F
:104570006E51DE22F26B0901F66BEF6B010E080142
:104580002827000E29232A232B230501F26B09017A
:10459000F851D8B41AD0070EEF19D8A414D08B5103
:1045A0000501656F666B610096F5A6F261009AF5EC
:1045B000A7F20901F86BEF6B010E08012827000E26
:1045C00029232A232B230501F26B0901FC51D8B4BE
:1045D0006ED0070EEF19D8A445D08CC965F5070E2B
:1045E00005016517040E656112D072ECDCF000095C
:1045F000D8B404D06FECD7F0706F01D0706B0000AE
:104600000000000193BFFCD770C58EF020D0570E7C
:10461000706FEE05D8A40DD0F20E0701D325D96E28
:104620001C0ED421DA6EDF500501706F0701D34BE9
:10463000D42B00000000000193BFFCD770C58EF0A2
:10464000010E08010827000E09230A230B23090184
:10465000FC6BEF6B010E08012827000E29232A238B
:104660002B2323D08CC965F5070E05016517040EB1
:1046700065610AD00901EF05D8A403D00501706B6C
:104680000DD072ECDCF009D0F20E0701D325D96E03
:104690001C0ED421DA6EDF500501706F000000009F
:1046A000000193BFFCD770C58EF00501F26B0901C4
:1046B000F751D8B42BD0070EEF19D8A414D0FDC5EC
:1046C00070F500000000000193BFFCD770C58EF0AC
:1046D0000901F76BEF6B010E08012827000E292353
:1046E0002A232B2311D0EF05D8A405D00501FF51B3
:1046F0000109706F02D0FEC570F5000000000001D6
:1047000093BFFCD770C58EF00501F26B0901F9511A
:10471000D8B45BD0070EEF19D8A42BD028EEFEF248
:10472000DE50DE10DE10DE10D8A408D028EE02F332
:10473000DE50DE10DE10DE10D8B408D0000000001D
:10474000000193BFFCD7240E8E6F06D0000000003E
:10475000000193BFFCD78E6B0901F96BEF6B010E63
:1047600008012827000E29232A232B230501F26B99
:104770002CD0EF05D8A410D000000000000193BF9A
:10478000FCD70501F151020D000EF324D96E0C0E79
:10479000F420DA6EDF5016D000000000000193BF55
:1047A000FCD70501F151020D000EF324D96E0C0E59
:1047B000F420DA6EDEC465F5DDC466F566C565F520
:1047C000666B655100018E6FD1D70901FA51D8B4DB
:1047D00041D0070EEF19D8A431D00000000000012D
:1047E00093BFFCD7570E8E6F0901FA6BEF6B010E6A
:1047F00008012827000E29232A232B230501F26B09
:1048000029D000000000000193AF05D0FBD7570E60
:1048100000018E6FF3D70901EF51010AF8D70000AC
:104820000000000193AF04D0FBD74EC88EF0E6D74E
:104830000901EF51010AD8B4EAD7F7D70501F151C0
:10484000000AD8B4ECD7040AD8B4DBD7010AD8B42C
:10485000D5D7E5D70901EF2B090EEF6508D0EF6B2F
:10486000010E08012C27000E2D232E232F230501D6
:10487000F251F00B6F6F0901F851D8A40FD1F75125
:10488000D8A40CD1F651D8A409D1F851D8A406D196
:10489000FA51D8A403D1FC51D8A400D1FB51D8A41B
:1048A000FDD0900E05016F19D8A40CD0F39FF3959D
:1048B000F397010E0901EF6F010EF86F0501F389FF
:1048C000C9ECDDF0800E6F19D8A44ED0F39FF3959C
:1048D000F397F2510F0BF16F050EF1653CD01ED02E
:1048E000160E0DD0170E0BD01D0E09D03B0E07D0A3
:1048F0003C0E05D03D0E03D03E0E01D03F0EF16FB1
:104900002AD00001849FBF820901EF6B6AECDCF0C2
:10491000BF920001848F0501F16B1DD0F151060A91
:10492000D8B4DED7010AD8B4DDD70F0AD8B4DCD7A3
:10493000010AD8B4DBD7030AD8B4DAD7010AD8B44D
:10494000D9D7070AD8B4D8D7010AD8B4D7D7020A1A
:10495000D8B4D7D7E0D7010E0901EF6F010EF96F78
:104960000501F389C9ECDDF028EEFEF2DE50DE1021
:10497000DE10DE10D8A410D0F00E6F19D8A40CD021
:10498000F39FF385F397010E0901EF6F010EF76FA7
:104990000501F389C9ECDDF028EE02F3DE50DE10EC
:1049A000DE10DE10D8A410D0A00E6F19D8A40CD041
