:0400000085EF00F098
:100008000E7F0E7F0E7F0E7F0E7F0E7F0E7FD27DBE
:100018000E7F0E7FC37AD17A0E7F0E7F0E7F0E7F02
:10002800DF7A0E7F0E7F0E7FA77A0E7FB57A0E7F5E
:100038000E7F0E7F0E7F0E7FCC790E7F0E7F607A4B
:10004800787B6A7B0E7F0E7F0E7F0E7F0E7F0E7F82
:10005800947B0E7F867B0E7F66780E7F0E7F0E7FE9
:100068000E7F0E7F0E7F0E7FED7AFB7A097B0E7F67
:100078000E7F0E7F0E7F0E7F42000E7F0E7F0E7F5B
:100088000E7F0E7F0E7F0E7FBC790E7F0E7F0E7F58
:10009800B07BA27B0E7F0E7F42000E7F0E7F0E7F0D
:1000A8000E7F0E7F0E7F0E7F177B257B337B0E7FA7
:1000B8000E7F0E7F0E7F9C790E7F0E7F0E7F0E7F48
:1000C8000E7F0E7F0E7F0E7F0E7F0E7F0E7F0E7FC0
:1000D8000E7F0E7F0E7F0E7F0E7F0E7F0E7F0E7FB0
:1000E80042000E7F0E7F0E7F0E7F0E7F0E7F0E7FEB
:1000F800077F0E7F0E7FEB7D0E7F0E7F0E7F0E7FBC
:06010800FF00A9EFC4F0A6
:10D178000000C0C101C30302C2C60607C705C5C473
:10D1880004CC0C0DCD0FCFCE0E0ACACB0BC90908A3
:10D19800C8D81819D91BDBDA1A1EDEDF1FDD1D1CE3
:10D1A800DC14D4D515D71716D6D21213D311D1D073
:10D1B80010F03031F133F3F23236F6F737F5353413
:10D1C800F43CFCFD3DFF3F3EFEFA3A3BFB39F9F8E3
:10D1D8003828E8E929EB2B2AEAEE2E2FEF2DEDEC83
:10D1E8002CE42425E527E7E62622E2E323E12120B3
:10D1F800E0A06061A163A3A26266A6A767A56564B3
:10D20800A46CACAD6DAF6F6EAEAA6A6BAB69A9A822
:10D218006878B8B979BB7B7ABABE7E7FBF7DBDBC62
:10D228007CB47475B577B7B67672B2B373B17170F2
:10D23800B050909151935352929656579755959452
:10D24800549C5C5D9D5F9F9E5E5A9A9B5B99595862
:10D2580098884849894B8B8A4A4E8E8F4F8D4D4C02
:10D268008C44848545874746868242438341818032
:10D278004000C1814001C0804101C0804100C1819E
:10D288004001C0804100C1814000C1814001C0808F
:10D298004101C0804100C1814000C1814001C0807E
:10D2A8004100C1814001C0804101C0804100C1816D
:10D2B8004001C0804100C1814000C1814001C0805F
:10D2C8004100C1814001C0804101C0804100C1814D
:10D2D8004000C1814001C0804101C0804100C1813E
:10D2E8004001C0804100C1814000C1814001C0802F
:10D2F8004101C0804100C1814000C1814001C0801E
:10D308004100C1814001C0804101C0804100C1810C
:10D318004000C1814001C0804101C0804100C181FD
:10D328004001C0804100C1814000C1814001C080EE
:10D338004100C1814001C0804101C0804100C181DC
:10D348004001C0804100C1814000C1814001C080CE
:10D358004101C0804100C1814000C1814001C080BD
:10D368004100C1814001C0804101C0804100C181AC
:10D378004000C0C101C30302C2C60607C705C5C431
:10D3880004CC0C0DCD0FCFCE0E0ACACB0BC90908A1
:10D39800C8D81819D91BDBDA1A1EDEDF1FDD1D1CE1
:10D3A800DC14D4D515D71716D6D21213D311D1D071
:10D3B80010F03031F133F3F23236F6F737F5353411
:10D3C800F43CFCFD3DFF3F3EFEFA3A3BFB39F9F8E1
:10D3D8003828E8E929EB2B2AEAEE2E2FEF2DEDEC81
:10D3E8002CE42425E527E7E62622E2E323E12120B1
:10D3F800E0A06061A163A3A26266A6A767A56564B1
:10D40800A46CACAD6DAF6F6EAEAA6A6BAB69A9A820
:10D418006878B8B979BB7B7ABABE7E7FBF7DBDBC60
:10D428007CB47475B577B7B67672B2B373B17170F0
:10D43800B050909151935352929656579755959450
:10D44800549C5C5D9D5F9F9E5E5A9A9B5B99595860
:10D4580098884849894B8B8A4A4E8E8F4F8D4D4C00
:10D468008C44848545874746868242438341818030
:10D478004000C1814001C0804101C0804100C1819C
:10D488004001C0804100C1814000C1814001C0808D
:10D498004101C0804100C1814000C1814001C0807C
:10D4A8004100C1814001C0804101C0804100C1816B
:10D4B8004001C0804100C1814000C1814001C0805D
:10D4C8004100C1814001C0804101C0804100C1814B
:10D4D8004000C1814001C0804101C0804100C1813C
:10D4E8004001C0804100C1814000C1814001C0802D
:10D4F8004101C0804100C1814000C1814001C0801C
:10D508004100C1814001C0804101C0804100C1810A
:10D518004000C1814001C0804101C0804100C181FB
:10D528004001C0804100C1814000C1814001C080EC
:10D538004100C1814001C0804101C0804100C181DA
:10D548004001C0804100C1814000C1814001C080CC
:10D558004101C0804100C1814000C1814001C080BB
:10D568004100C1814001C0804101C0804100C181AA
:10D578004000C0C101C30302C2C60607C705C5C42F
:10D5880004CC0C0DCD0FCFCE0E0ACACB0BC909089F
:10D59800C8D81819D91BDBDA1A1EDEDF1FDD1D1CDF
:10D5A800DC14D4D515D71716D6D21213D311D1D06F
:10D5B80010F03031F133F3F23236F6F737F535340F
:10D5C800F43CFCFD3DFF3F3EFEFA3A3BFB39F9F8DF
:10D5D8003828E8E929EB2B2AEAEE2E2FEF2DEDEC7F
:10D5E8002CE42425E527E7E62622E2E323E12120AF
:10D5F800E0A06061A163A3A26266A6A767A56564AF
:10D60800A46CACAD6DAF6F6EAEAA6A6BAB69A9A81E
:10D618006878B8B979BB7B7ABABE7E7FBF7DBDBC5E
:10D628007CB47475B577B7B67672B2B373B17170EE
:10D63800B05090915193535292965657975595944E
:10D64800549C5C5D9D5F9F9E5E5A9A9B5B9959585E
:10D6580098884849894B8B8A4A4E8E8F4F8D4D4CFE
:10D668008C4484854587474686824243834181802E
:10D678004000C1814001C0804101C0804100C1819A
:10D688004001C0804100C1814000C1814001C0808B
:10D698004101C0804100C1814000C1814001C0807A
:10D6A8004100C1814001C0804101C0804100C18169
:10D6B8004001C0804100C1814000C1814001C0805B
:10D6C8004100C1814001C0804101C0804100C18149
:10D6D8004000C1814001C0804101C0804100C1813A
:10D6E8004001C0804100C1814000C1814001C0802B
:10D6F8004101C0804100C1814000C1814001C0801A
:10D708004100C1814001C0804101C0804100C18108
:10D718004000C1814001C0804101C0804100C181F9
:10D728004001C0804100C1814000C1814001C080EA
:10D738004100C1814001C0804101C0804100C181D8
:10D748004001C0804100C1814000C1814001C080CA
:10D758004101C0804100C1814000C1814001C080B9
:10D768004100C1814001C0804101C0804100C181A8
:10D778004000C0C101C30302C2C60607C705C5C42D
:10D7880004CC0C0DCD0FCFCE0E0ACACB0BC909089D
:10D79800C8D81819D91BDBDA1A1EDEDF1FDD1D1CDD
:10D7A800DC14D4D515D71716D6D21213D311D1D06D
:10D7B80010F03031F133F3F23236F6F737F535340D
:10D7C800F43CFCFD3DFF3F3EFEFA3A3BFB39F9F8DD
:10D7D8003828E8E929EB2B2AEAEE2E2FEF2DEDEC7D
:10D7E8002CE42425E527E7E62622E2E323E12120AD
:10D7F800E0A06061A163A3A26266A6A767A56564AD
:10D80800A46CACAD6DAF6F6EAEAA6A6BAB69A9A81C
:10D818006878B8B979BB7B7ABABE7E7FBF7DBDBC5C
:10D828007CB47475B577B7B67672B2B373B17170EC
:10D83800B05090915193535292965657975595944C
:10D84800549C5C5D9D5F9F9E5E5A9A9B5B9959585C
:10D8580098884849894B8B8A4A4E8E8F4F8D4D4CFC
:10D868008C4484854587474686824243834181802C
:10D878004000C1814001C0804101C0804100C18198
:10D888004001C0804100C1814000C1814001C08089
:10D898004101C0804100C1814000C1814001C08078
:10D8A8004100C1814001C0804101C0804100C18167
:10D8B8004001C0804100C1814000C1814001C08059
:10D8C8004100C1814001C0804101C0804100C18147
:10D8D8004000C1814001C0804101C0804100C18138
:10D8E8004001C0804100C1814000C1814001C08029
:10D8F8004101C0804100C1814000C1814001C08018
:10D908004100C1814001C0804101C0804100C18106
:10D918004000C1814001C0804101C0804100C181F7
:10D928004001C0804100C1814000C1814001C080E8
:10D938004100C1814001C0804101C0804100C181D6
:10D948004001C0804100C1814000C1814001C080C8
:10D958004101C0804100C1814000C1814001C080B7
:10D968004100C1814001C0804101C0804100C181A6
:10D978004000C0C101C30302C2C60607C705C5C42B
:10D9880004CC0C0DCD0FCFCE0E0ACACB0BC909089B
:10D99800C8D81819D91BDBDA1A1EDEDF1FDD1D1CDB
:10D9A800DC14D4D515D71716D6D21213D311D1D06B
:10D9B80010F03031F133F3F23236F6F737F535340B
:10D9C800F43CFCFD3DFF3F3EFEFA3A3BFB39F9F8DB
:10D9D8003828E8E929EB2B2AEAEE2E2FEF2DEDEC7B
:10D9E8002CE42425E527E7E62622E2E323E12120AB
:10D9F800E0A06061A163A3A26266A6A767A56564AB
:10DA0800A46CACAD6DAF6F6EAEAA6A6BAB69A9A81A
:10DA18006878B8B979BB7B7ABABE7E7FBF7DBDBC5A
:10DA28007CB47475B577B7B67672B2B373B17170EA
:10DA3800B05090915193535292965657975595944A
:10DA4800549C5C5D9D5F9F9E5E5A9A9B5B9959585A
:10DA580098884849894B8B8A4A4E8E8F4F8D4D4CFA
:10DA68008C4484854587474686824243834181802A
:10DA78004000C1814001C0804101C0804100C18196
:10DA88004001C0804100C1814000C1814001C08087
:10DA98004101C0804100C1814000C1814001C08076
:10DAA8004100C1814001C0804101C0804100C18165
:10DAB8004001C0804100C1814000C1814001C08057
:10DAC8004100C1814001C0804101C0804100C18145
:10DAD8004000C1814001C0804101C0804100C18136
:10DAE8004001C0804100C1814000C1814001C08027
:10DAF8004101C0804100C1814000C1814001C08016
:10DB08004100C1814001C0804101C0804100C18104
:10DB18004000C1814001C0804101C0804100C181F5
:10DB28004001C0804100C1814000C1814001C080E6
:10DB38004100C1814001C0804101C0804100C181D4
:10DB48004001C0804100C1814000C1814001C080C6
:10DB58004101C0804100C1814000C1814001C080B5
:10DB68004100C1814001C0804101C0804100C181A4
:10DB78004000C0C101C30302C2C60607C705C5C429
:10DB880004CC0C0DCD0FCFCE0E0ACACB0BC9090899
:10DB9800C8D81819D91BDBDA1A1EDEDF1FDD1D1CD9
:10DBA800DC14D4D515D71716D6D21213D311D1D069
:10DBB80010F03031F133F3F23236F6F737F5353409
:10DBC800F43CFCFD3DFF3F3EFEFA3A3BFB39F9F8D9
:10DBD8003828E8E929EB2B2AEAEE2E2FEF2DEDEC79
:10DBE8002CE42425E527E7E62622E2E323E12120A9
:10DBF800E0A06061A163A3A26266A6A767A56564A9
:10DC0800A46CACAD6DAF6F6EAEAA6A6BAB69A9A818
:10DC18006878B8B979BB7B7ABABE7E7FBF7DBDBC58
:10DC28007CB47475B577B7B67672B2B373B17170E8
:10DC3800B050909151935352929656579755959448
:10DC4800549C5C5D9D5F9F9E5E5A9A9B5B99595858
:10DC580098884849894B8B8A4A4E8E8F4F8D4D4CF8
:10DC68008C44848545874746868242438341818028
:10DC78004000C1814001C0804101C0804100C18194
:10DC88004001C0804100C1814000C1814001C08085
:10DC98004101C0804100C1814000C1814001C08074
:10DCA8004100C1814001C0804101C0804100C18163
:10DCB8004001C0804100C1814000C1814001C08055
:10DCC8004100C1814001C0804101C0804100C18143
:10DCD8004000C1814001C0804101C0804100C18134
:10DCE8004001C0804100C1814000C1814001C08025
:10DCF8004101C0804100C1814000C1814001C08014
:10DD08004100C1814001C0804101C0804100C18102
:10DD18004000C1814001C0804101C0804100C181F3
:10DD28004001C0804100C1814000C1814001C080E4
:10DD38004100C1814001C0804101C0804100C181D2
:10DD48004001C0804100C1814000C1814001C080C4
:10DD58004101C0804100C1814000C1814001C080B3
:10DD68004100C1814001C0804101C0804100C181A2
:10DD78004000C0C101C30302C2C60607C705C5C427
:10DD880004CC0C0DCD0FCFCE0E0ACACB0BC9090897
:10DD9800C8D81819D91BDBDA1A1EDEDF1FDD1D1CD7
:10DDA800DC14D4D515D71716D6D21213D311D1D067
:10DDB80010F03031F133F3F23236F6F737F5353407
:10DDC800F43CFCFD3DFF3F3EFEFA3A3BFB39F9F8D7
:10DDD8003828E8E929EB2B2AEAEE2E2FEF2DEDEC77
:10DDE8002CE42425E527E7E62622E2E323E12120A7
:10DDF800E0A06061A163A3A26266A6A767A56564A7
:10DE0800A46CACAD6DAF6F6EAEAA6A6BAB69A9A816
:10DE18006878B8B979BB7B7ABABE7E7FBF7DBDBC56
:10DE28007CB47475B577B7B67672B2B373B17170E6
:10DE3800B050909151935352929656579755959446
:10DE4800549C5C5D9D5F9F9E5E5A9A9B5B99595856
:10DE580098884849894B8B8A4A4E8E8F4F8D4D4CF6
:10DE68008C44848545874746868242438341818026
:10DE78004000C1814001C0804101C0804100C18192
:10DE88004001C0804100C1814000C1814001C08083
:10DE98004101C0804100C1814000C1814001C08072
:10DEA8004100C1814001C0804101C0804100C18161
:10DEB8004001C0804100C1814000C1814001C08053
:10DEC8004100C1814001C0804101C0804100C18141
:10DED8004000C1814001C0804101C0804100C18132
:10DEE8004001C0804100C1814000C1814001C08023
:10DEF8004101C0804100C1814000C1814001C08012
:10DF08004100C1814001C0804101C0804100C18100
:10DF18004000C1814001C0804101C0804100C181F1
:10DF28004001C0804100C1814000C1814001C080E2
:10DF38004100C1814001C0804101C0804100C181D0
:10DF48004001C0804100C1814000C1814001C080C2
:10DF58004101C0804100C1814000C1814001C080B1
:10DF68004100C1814001C0804101C0804100C181A0
:10DF78004000C0C101C30302C2C60607C705C5C425
:10DF880004CC0C0DCD0FCFCE0E0ACACB0BC9090895
:10DF9800C8D81819D91BDBDA1A1EDEDF1FDD1D1CD5
:10DFA800DC14D4D515D71716D6D21213D311D1D065
:10DFB80010F03031F133F3F23236F6F737F5353405
:10DFC800F43CFCFD3DFF3F3EFEFA3A3BFB39F9F8D5
:10DFD8003828E8E929EB2B2AEAEE2E2FEF2DEDEC75
:10DFE8002CE42425E527E7E62622E2E323E12120A5
:10DFF800E0A06061A163A3A26266A6A767A56564A5
:10E00800A46CACAD6DAF6F6EAEAA6A6BAB69A9A814
:10E018006878B8B979BB7B7ABABE7E7FBF7DBDBC54
:10E028007CB47475B577B7B67672B2B373B17170E4
:10E03800B050909151935352929656579755959444
:10E04800549C5C5D9D5F9F9E5E5A9A9B5B99595854
:10E0580098884849894B8B8A4A4E8E8F4F8D4D4CF4
:10E068008C44848545874746868242438341818024
:10E078004000C1814001C0804101C0804100C18190
:10E088004001C0804100C1814000C1814001C08081
:10E098004101C0804100C1814000C1814001C08070
:10E0A8004100C1814001C0804101C0804100C1815F
:10E0B8004001C0804100C1814000C1814001C08051
:10E0C8004100C1814001C0804101C0804100C1813F
:10E0D8004000C1814001C0804101C0804100C18130
:10E0E8004001C0804100C1814000C1814001C08021
:10E0F8004101C0804100C1814000C1814001C08010
:10E108004100C1814001C0804101C0804100C181FE
:10E118004000C1814001C0804101C0804100C181EF
:10E128004001C0804100C1814000C1814001C080E0
:10E138004100C1814001C0804101C0804100C181CE
:10E148004001C0804100C1814000C1814001C080C0
:10E158004101C0804100C1814000C1814001C080AF
:10E168004100C1814001C0804101C0804100C1819E
:10E178004000C0C101C30302C2C60607C705C5C423
:10E1880004CC0C0DCD0FCFCE0E0ACACB0BC9090893
:10E19800C8D81819D91BDBDA1A1EDEDF1FDD1D1CD3
:10E1A800DC14D4D515D71716D6D21213D311D1D063
:10E1B80010F03031F133F3F23236F6F737F5353403
:10E1C800F43CFCFD3DFF3F3EFEFA3A3BFB39F9F8D3
:10E1D8003828E8E929EB2B2AEAEE2E2FEF2DEDEC73
:10E1E8002CE42425E527E7E62622E2E323E12120A3
:10E1F800E0A06061A163A3A26266A6A767A56564A3
:10E20800A46CACAD6DAF6F6EAEAA6A6BAB69A9A812
:10E218006878B8B979BB7B7ABABE7E7FBF7DBDBC52
:10E228007CB47475B577B7B67672B2B373B17170E2
:10E23800B050909151935352929656579755959442
:10E24800549C5C5D9D5F9F9E5E5A9A9B5B99595852
:10E2580098884849894B8B8A4A4E8E8F4F8D4D4CF2
:10E268008C44848545874746868242438341818022
:10E278004000C1814001C0804101C0804100C1818E
:10E288004001C0804100C1814000C1814001C0807F
:10E298004101C0804100C1814000C1814001C0806E
:10E2A8004100C1814001C0804101C0804100C1815D
:10E2B8004001C0804100C1814000C1814001C0804F
:10E2C8004100C1814001C0804101C0804100C1813D
:10E2D8004000C1814001C0804101C0804100C1812E
:10E2E8004001C0804100C1814000C1814001C0801F
:10E2F8004101C0804100C1814000C1814001C0800E
:10E308004100C1814001C0804101C0804100C181FC
:10E318004000C1814001C0804101C0804100C181ED
:10E328004001C0804100C1814000C1814001C080DE
:10E338004100C1814001C0804101C0804100C181CC
:10E348004001C0804100C1814000C1814001C080BE
:10E358004101C0804100C1814000C1814001C080AD
:10E368004100C1814001C0804101C0804100C1819C
:10E378004000C0C101C30302C2C60607C705C5C421
:10E3880004CC0C0DCD0FCFCE0E0ACACB0BC9090891
:10E39800C8D81819D91BDBDA1A1EDEDF1FDD1D1CD1
:10E3A800DC14D4D515D71716D6D21213D311D1D061
:10E3B80010F03031F133F3F23236F6F737F5353401
:10E3C800F43CFCFD3DFF3F3EFEFA3A3BFB39F9F8D1
:10E3D8003828E8E929EB2B2AEAEE2E2FEF2DEDEC71
:10E3E8002CE42425E527E7E62622E2E323E12120A1
:10E3F800E0A06061A163A3A26266A6A767A56564A1
:10E40800A46CACAD6DAF6F6EAEAA6A6BAB69A9A810
:10E418006878B8B979BB7B7ABABE7E7FBF7DBDBC50
:10E428007CB47475B577B7B67672B2B373B17170E0
:10E43800B050909151935352929656579755959440
:10E44800549C5C5D9D5F9F9E5E5A9A9B5B99595850
:10E4580098884849894B8B8A4A4E8E8F4F8D4D4CF0
:10E468008C44848545874746868242438341818020
:10E478004000C1814001C0804101C0804100C1818C
:10E488004001C0804100C1814000C1814001C0807D
:10E498004101C0804100C1814000C1814001C0806C
:10E4A8004100C1814001C0804101C0804100C1815B
:10E4B8004001C0804100C1814000C1814001C0804D
:10E4C8004100C1814001C0804101C0804100C1813B
:10E4D8004000C1814001C0804101C0804100C1812C
:10E4E8004001C0804100C1814000C1814001C0801D
:10E4F8004101C0804100C1814000C1814001C0800C
:10E508004100C1814001C0804101C0804100C181FA
:10E518004000C1814001C0804101C0804100C181EB
:10E528004001C0804100C1814000C1814001C080DC
:10E538004100C1814001C0804101C0804100C181CA
:10E548004001C0804100C1814000C1814001C080BC
:10E558004101C0804100C1814000C1814001C080AB
:10E568004100C1814001C0804101C0804100C1819A
:10E578004000C0C101C30302C2C60607C705C5C41F
:10E5880004CC0C0DCD0FCFCE0E0ACACB0BC909088F
:10E59800C8D81819D91BDBDA1A1EDEDF1FDD1D1CCF
:10E5A800DC14D4D515D71716D6D21213D311D1D05F
:10E5B80010F03031F133F3F23236F6F737F53534FF
:10E5C800F43CFCFD3DFF3F3EFEFA3A3BFB39F9F8CF
:10E5D8003828E8E929EB2B2AEAEE2E2FEF2DEDEC6F
:10E5E8002CE42425E527E7E62622E2E323E121209F
:10E5F800E0A06061A163A3A26266A6A767A565649F
:10E60800A46CACAD6DAF6F6EAEAA6A6BAB69A9A80E
:10E618006878B8B979BB7B7ABABE7E7FBF7DBDBC4E
:10E628007CB47475B577B7B67672B2B373B17170DE
:10E63800B05090915193535292965657975595943E
:10E64800549C5C5D9D5F9F9E5E5A9A9B5B9959584E
:10E6580098884849894B8B8A4A4E8E8F4F8D4D4CEE
:10E668008C4484854587474686824243834181801E
:10E678004000C1814001C0804101C0804100C1818A
:10E688004001C0804100C1814000C1814001C0807B
:10E698004101C0804100C1814000C1814001C0806A
:10E6A8004100C1814001C0804101C0804100C18159
:10E6B8004001C0804100C1814000C1814001C0804B
:10E6C8004100C1814001C0804101C0804100C18139
:10E6D8004000C1814001C0804101C0804100C1812A
:10E6E8004001C0804100C1814000C1814001C0801B
:10E6F8004101C0804100C1814000C1814001C0800A
:10E708004100C1814001C0804101C0804100C181F8
:10E718004000C1814001C0804101C0804100C181E9
:10E728004001C0804100C1814000C1814001C080DA
:10E738004100C1814001C0804101C0804100C181C8
:10E748004001C0804100C1814000C1814001C080BA
:10E758004101C0804100C1814000C1814001C080A9
:10E768004100C1814001C0804101C0804100C18198
:10E778004000C0C101C30302C2C60607C705C5C41D
:10E7880004CC0C0DCD0FCFCE0E0ACACB0BC909088D
:10E79800C8D81819D91BDBDA1A1EDEDF1FDD1D1CCD
:10E7A800DC14D4D515D71716D6D21213D311D1D05D
:10E7B80010F03031F133F3F23236F6F737F53534FD
:10E7C800F43CFCFD3DFF3F3EFEFA3A3BFB39F9F8CD
:10E7D8003828E8E929EB2B2AEAEE2E2FEF2DEDEC6D
:10E7E8002CE42425E527E7E62622E2E323E121209D
:10E7F800E0A06061A163A3A26266A6A767A565649D
:10E80800A46CACAD6DAF6F6EAEAA6A6BAB69A9A80C
:10E818006878B8B979BB7B7ABABE7E7FBF7DBDBC4C
:10E828007CB47475B577B7B67672B2B373B17170DC
:10E83800B05090915193535292965657975595943C
:10E84800549C5C5D9D5F9F9E5E5A9A9B5B9959584C
:10E8580098884849894B8B8A4A4E8E8F4F8D4D4CEC
:10E868008C4484854587474686824243834181801C
:10E878004000C1814001C0804101C0804100C18188
:10E888004001C0804100C1814000C1814001C08079
:10E898004101C0804100C1814000C1814001C08068
:10E8A8004100C1814001C0804101C0804100C18157
:10E8B8004001C0804100C1814000C1814001C08049
:10E8C8004100C1814001C0804101C0804100C18137
:10E8D8004000C1814001C0804101C0804100C18128
:10E8E8004001C0804100C1814000C1814001C08019
:10E8F8004101C0804100C1814000C1814001C08008
:10E908004100C1814001C0804101C0804100C181F6
:10E918004000C1814001C0804101C0804100C181E7
:10E928004001C0804100C1814000C1814001C080D8
:10E938004100C1814001C0804101C0804100C181C6
:10E948004001C0804100C1814000C1814001C080B8
:10E958004101C0804100C1814000C1814001C080A7
:10E968004100C1814001C0804101C0804100C18196
:10E978004000C0C101C30302C2C60607C705C5C41B
:10E9880004CC0C0DCD0FCFCE0E0ACACB0BC909088B
:10E99800C8D81819D91BDBDA1A1EDEDF1FDD1D1CCB
:10E9A800DC14D4D515D71716D6D21213D311D1D05B
:10E9B80010F03031F133F3F23236F6F737F53534FB
:10E9C800F43CFCFD3DFF3F3EFEFA3A3BFB39F9F8CB
:10E9D8003828E8E929EB2B2AEAEE2E2FEF2DEDEC6B
:10E9E8002CE42425E527E7E62622E2E323E121209B
:10E9F800E0A06061A163A3A26266A6A767A565649B
:10EA0800A46CACAD6DAF6F6EAEAA6A6BAB69A9A80A
:10EA18006878B8B979BB7B7ABABE7E7FBF7DBDBC4A
:10EA28007CB47475B577B7B67672B2B373B17170DA
:10EA3800B05090915193535292965657975595943A
:10EA4800549C5C5D9D5F9F9E5E5A9A9B5B9959584A
:10EA580098884849894B8B8A4A4E8E8F4F8D4D4CEA
:10EA68008C4484854587474686824243834181801A
:10EA78004000C1814001C0804101C0804100C18186
:10EA88004001C0804100C1814000C1814001C08077
:10EA98004101C0804100C1814000C1814001C08066
:10EAA8004100C1814001C0804101C0804100C18155
:10EAB8004001C0804100C1814000C1814001C08047
:10EAC8004100C1814001C0804101C0804100C18135
:10EAD8004000C1814001C0804101C0804100C18126
:10EAE8004001C0804100C1814000C1814001C08017
:10EAF8004101C0804100C1814000C1814001C08006
:10EB08004100C1814001C0804101C0804100C181F4
:10EB18004000C1814001C0804101C0804100C181E5
:10EB28004001C0804100C1814000C1814001C080D6
:10EB38004100C1814001C0804101C0804100C181C4
:10EB48004001C0804100C1814000C1814001C080B6
:10EB58004101C0804100C1814000C1814001C080A5
:10EB68004100C1814001C0804101C0804100C18194
:10EB78004001030000000000000000000000000049
:10EB8800000000000000000000000000000000007D
:10EB9800000000000000000000000000000000006D
:10EBA800000000000000000000000000000000005D
:10EBB800000000000000000000000000000000004D
:10EBC800000000000000000000000000000000003D
:10EBD800000000000000000000000000000000002D
:10EBE800000000000000000000000000000000001D
:10EBF800000000000000000000000000000000000D
:10EC080000000000000000000000010300000000F8
:10EC180000000000000000000000000000000000EC
:10EC280000000000000000000000000000000000DC
:10EC380000000000000000000000000000000000CC
:10EC480000000000000000000000000000000000BC
:10EC580000000000000000000000000000000000AC
:10EC6800000000000000000000000000000000009C
:10EC7800000000000000000000000000000000008C
:10EC8800000000000000000000000000000000017B
:10EC98000300000000000000000000000000000069
:10ECA800000000000000000000000000000000005C
:10ECB800000000000000000000000000000000004C
:10ECC800000000000000000000000000000000003C
:10ECD800000000000000000000000000000000002C
:10ECE800000000000000000000000000000000001C
:10ECF8000000000000000000000000000AD7233CCC
:10ED0800CDCCCC3DCDCC4C3E9A99993E0000003FED
:10ED18009A99193F6666263F3333333F6666663FE6
:10ED2800A4707D3F0000803F0000803F0000A041AC
:10ED38000000C841CDCCC8416666CA410000CC413C
:10ED48006666CE410000D0419A99D141CDCCD441DC
:10ED58006666D6419A99D94100000C422573202550
:10ED680064202573202020202020202020202020FF
:10ED7800202020202020202020202020202020208B
:10ED880020202020202020202020004F4E4C494EBB
:10ED980045204125642C2052256420524625642CA8
:10EDA8002054256420544625642C204325642025BE
:10EDB80064202573202020202000486F7374204190
:10EDC80025642C2052256420524625642C20542585
:10EDD8006420544625642C2043256420256420257E
:10EDE800732020202020202000554E4B20464F52D3
:10EDF8004D4154204125642C20522564205246253B
:10EE0800642C2054256420544625642C2043256412
:10EE18002025732020200025732025732020202002
:10EE280020202020202020202020202020202020DA
:10EE380020202020202020202020202020202020CA
:10EE4800200025732025732020202020202020202A
:10EE580020202020202020202020202020202020AA
:10EE68002020202020202020200001030000000076
:10EE7800000000000000000000000000000000008A
:10EE8800000000000000000000000056332E303162
:10EE980020464D783020696E74657266616365201E
:10EEA800513834004F66666C696E650000000000DA
:10EEB80043414E425553000000000000010300008A
:10EEC800000000000000000000000000000000003A
:10EED80000000103000000D600000001000000DA75
:10EEE80000000103000000D600000000000000D967
:10EEF800001F1E1F1E1F1F1E1F1E1F1F1D00030099
:10EF0800040001C41A010600000000000001060008
:10EF180000000000000106000000000000010300DE
:10EF2800000000000103000000000083200304002B
:10EF38000024050001832403040000008841CD0C4F
:10EF48000543E56121400000000000008045000005
:10EF58008841CD0C0543E561214000808042008056
:10EF68008042000000000000804500008841CD0C70
:10EF78000543E56121400080804200808042000016
:10EF880000000000804500008841CD0C0543E56184
:10EF98002140008080420080804200000000000084
:10EFA8008045BC000000BA7FFFFEC8008000340026
:10EFB800000000008841CD0C0543E5612140008038
:10EFC8008042008080420000000000008045000070
:10EFD8008841CD0C0543E5612140008080420080D6
:10EFE8008042000000000000804500008841CD0CF0
:10EFF8000543E56121400080804200808042000096
:10F0080000000000804500008841CD0C0543E56103
:10F018002140008080420080804200000000000003
:10F02800804500008841CD0C0543E5612140008002
:10F0380080420080804200000000000080450000FF
:10F048008841CD0C0543E561214000808042008065
:10F058008042000000000000804500008841000058
:10F06800804518000002008813040002002800B040
:10F0780004020002000300B004DC05F4016400404F
:10F088000660091027B80B3075059904990399B0E3
:10F0980004DC05F4016400400660091027B80B057C
:10F0A8009904990399B004DC05F4016400400660F2
:10F0B800091027B80B059904990399B004DC05F4E5
:10F0C800016400400660091027B80B0599049903EC
:10F0D80099B004DC05F4016400400660091027B803
:10F0E8000B059904990399B004DC05F40164004008
:10F0F8000660091027B80BB004DC05F40164004071
:10F108000660091027B80B059904990399B004DC27
:10F1180005F4016400400660091027B80BB004DC50
:10F1280005F4016400400660091027B80B30750526
:10F138009904990399B004DC05F401640040066061
:10F14800091027B80B02008813040002002800B039
:10F15800040200020003003075E8FF3C00230005AC
:10F168009904990399B004DC05F401640040066031
:10F17800091027B80BFF000228040228C80102065C
:10F18800465A2D01204601FF000228040228C80122
:10F1980002FF000228040228C801028003C80107F0
:10F1A8000707070707070D050440400FF001050F83
:10F1B80067FF4010F0E0D0C0B0A090800006465A2B
:10F1C8002D01204601FF000228040228C801020779
:10F1D8000707070707070D050440400FF001050F53
:10F1E80067FF4010F0E0D0C0B0A090800006465AFB
:10F1F8002D01204601FF000228040228C801020749
:10F208000707070707070D050440400FF001050F22
:10F2180067FF4010F0E0D0C0B0A090800006465ACA
:10F228002D01204601FF000228040228C801020718
:10F238000707070707070D050440400FF001050FF2
:10F2480067FF4010F0E0D0C0B0A090800006465A9A
:10F258002D01204601FF000228040228C8010207E8
:10F268000707070707070D050440400FF001050FC2
:10F2780067FF4010F0E0D0C0B0A090800006465A6A
:10F288002D01204601FF000228040228C8010206B9
:10F29800465A2D01204601FF000228040228C80111
:10F2A80002070707070707070D050440400FF0018D
:10F2B800050F67FF4010F0E0D0C0B0A090800006B6
:10F2C800465A2D01204601FF000228040228C801E1
:10F2D8000206465A2D01204601FF00022804022892
:10F2E800C801028003C801070707070707070D05BC
:10F2F8000440400FF001050F67FF4010F0E0D0C058
:10F30800B0A090800006465A2D01204601FF000259
:10F3180028040228C801028003C801070707070755
:10F3280007070D050440400FF001050F67FF401067
:10F33800F0E0D0C0B0A090800006465A2D012046CB
:10F3480001FF000228040228C801025E2C25642C53
:10F3580025332E32662C25332E32662C25332E3259
:10F36800662C25332E32662C25332E32662C253317
:10F378002E32662C25332E32662C25332E32662CFF
:10F3880025642E253031642C25642E253031642CDB
:10F3980025642E253031642C25642C25642C2564A5
:10F3A8002C25642C25642C256C6C752C25372E3463
:10F3B800662C25372E34662C25362E34662C2537B8
:10F3C8002E34662C313935372C7E454F5420202079
:10F3D8002020202020202020202020202020202025
:10F3E8002020202020202020202020202020202015
:10F3F8002020202020202020202020202020200D18
:10F408000A005E2C25642C25332E32662C25332EDB
:10F4180032662C25332E32662C25332E32662C2567
:10F42800332E32662C25332E32662C25332E326647
:10F438002C25332E32662C25642E253031642C255C
:10F44800642E253031642C25642E253031642C251A
:10F45800642C25642C25642C25642C25642C256CAF
:10F468006C752C25372E34662C25372E34662C25C2
:10F47800362E34662C25372E34662C313935372C08
:10F488007E454F542020202020202020202020208E
:10F498002020202020202020202020202020202064
:10F4A8002020202020202020202020202020202054
:10F4B8002020202020200D0A005E2C25642C2533D6
:10F4C8002E32662C25332E32662C25332E32662CAE
:10F4D80025332E32662C25332E32662C25332E32D8
:10F4E800662C25332E32662C25332E32662C256465
:10F4F8002E253031642C25642E253031642C25646A
:10F508002E253031642C25642C25642C25642C256B
:10F51800642C25642C256C6C752C25362E34662CB1
:10F5280025362E34662C25362E34662C25362E3478
:10F53800662C313935372C7E454F54202020202029
:10F5480020202020202020202020202020202020B3
:10F5580020202020202020202020202020202020A3
:10F56800202020202020202020202020200D0A00DC
:10F578005E2C25642C25332E32662C25332E3266DC
:10F588002C25332E32662C25332E32662C25332E2D
:10F5980032662C25332E32662C25332E32662C25E6
:10F5A800332E32662C25642E253031642C25642EAA
:10F5B800253031642C25642E253031642C25642CAB
:10F5C80025642C25642C25642C25642C256C6C75ED
:10F5D8002C25362E33662C25362E33662C25362ED2
:10F5E80033662C25362E33662C313935372C7E453B
:10F5F8004F542020202020202020202020202020A0
:10F6080020202020202020202020202020202020F2
:10F6180020202020202020202020202020202020E2
:10F62800202020200D0A007C7C2F2F2D2D0000008B
:10F6380000000000000000000000007C7C2F2F2D3F
:10F648002D5C5C0000000000000000000000004F7E
:10F658004F4F4F4F4F2D2D5F5F2D000000000000D2
:10F6680000000076763C3C5E5E3E3E0000000000F6
:10F67800000000000000002E2E2A2A782378235844
:10F68800587C7C2D2D0000000000002E2E6F6F4F3F
:10F698004F6F6F00000000000000000000000053E2
:10F6A8006C65657000000000000000466C6F6174B6
:10F6B8000000000000000042756C6B0000000000B4
:10F6C8000000004162736F72620000000000004594
:10F6D8007175616C697A65000000004E2F41200049
:10F6E800000000000000004F66666C696E6500004F
:10F6F800000000464D7830000000000000000000C7
:10F708000103004000020000000100000046000064
:10F7180001020000000400000000000000060000D4
:10F7280001020000000300000000000000050000C6
:10F7380001020000000200000000000000040000B8
:10F7480001020000000000000000000000020000AC
:10F7580001020001006A000000000000006D0000C6
:10F768000102000100C700000000000000CA0000FC
:10F77800010200000008000000000000000A00006C
:10F788000102000100C600000000000000C90000DE
:10F798000104000000010000000000000005000056
:10F7A8000102000100C800000000000000CB0000BA
:10F7B800010200000000000000000000000200013B
:10F7C8001000660002040000000075AD011000631F
:10F7D80000020400000000B5920110000C000204B1
:10F7E80000000000F3FA01030078000E010300484E
:10F7F800004A010616040005010610000000010673
:10F808001002000001035000000801030500004039
:10F818000103000000340103030200010103000B8F
:10F82800000100808042008080422DB2804239B4BD
:10F8380080421FC58042CFB780429A995E42666671
:10F848005E42E590584289C1584273488042C5607B
:10F858008042FC898042FC8980420080804200808E
:10F868008042B400000204000000020000010A0007
:10F878000001C77FFFFFC57FFFFFB4001000B77FFF
:10F88800FFFFB8000001C2000000E4000001CD0C39
:10F898000543E561214000808042008080420000ED
:10F8A80000000400000CFFFF0B000010FFFF40F7F2
:10F8B800424D4320256C7520203058252E32582083
:10F8C8002020202020202020202020202020202030
:10F8D8002020202020202020202020200025342E19
:10F8E8003266487A2025332E3266412025332E3061
:10F8F8006657202020202020202020202020202083
:10F908002020202020202020200025322E31664B68
:10F91800576820666C6F61742025332E3166682025
:10F9280020202020202020202020202020202020CF
:10F93800202020202020000D2D2D2D20544943313A
:10F94800323430302044726976657220566572739D
:10F95800696F6E202573202573202573202D2D2D8A
:10F968000D0A000D2D2D2D204D4333333939362006
:10F978004472697665722056657273696F6E2025C8
:10F9880073202573202573202D2D2D0D0A0042414B
:10F99800542025642E253031645620505620256485
:10F9A8002E253031645620202020202020202020A1
:10F9B8002020202020202000342025362E33665693
:10F9C8002C352025362E3366562020202020202056
:10F9D800202020202020202020202020202020003F
:10F9E800426D61782025755620426D696E20257517
:10F9F80056202020202020202020202020202020C9
:10FA08002020202020202000424D4320256C7520F6
:10FA180020202020202020202020202020202020DE
:10FA28002020202020202020202020202020004FBF
:10FA38004620256C752045525220256C75202020C3
:10FA480020202020202020202020202020202020AE
:10FA580020202020200020256C6C582052756E2014
:10FA6800446973706C6179203058252E32582020F3
:10FA78002020202020202020202020004A616E46BF
:10FA880065624D61724170724D61794A756E4A7551
:10FA98006C4175675365704F63744E6F7644656348
:10FAA8000025342E31662025342E31662025342E4B
:10FAB80031662025342E3166572020202020202032
:10FAC80020202020200025342E31662025342E3198
:10FAD800662025342E3166725720202020202020D1
:10FAE8002020202020202020200025342E31665779
:10FAF8002025342E316656412025332E3266504655
:10FB080020202020202020202020202020002573B5
:10FB180020566572202573202020202020202020B8
:10FB280020202020202020202020202020200025E8
:10FB3800732025732025642E2530316441202564E7
:10FB480041202020202020202020202020202000AC
:10FB5800204D65736720256420537461636B2025ED
:10FB68006420202020202020202020202020200069
:10FB78004D554920256C6C58205049432025582064
:10FB8800202020202020202020202020202020008D
:10FB9800205465726D696E616C20496E666F202015
:10FBA8002020202020202020202020202000204845
:10FBB800454C502053637265656E3A2025642020B9
:10FBC80020202020202020202000257320202020F5
:10FBD800202020202020202020202020202020201D
:10FBE800202020202000257320256C6456414320C6
:10FBF80025332E306657202020202020202020204A
:10FC0800200020506F7274204C6F636B2023256492
:10FC18002020202020202020202020200020546583
:10FC2800726D696E616C20256420202020202020C0
:10FC38002020202020200020434D4420256320251B
:10FC480063204C656E202564202020202020202061
:10FC5800002025635049204441515F424D432025EF
:10FC68007320202020202020200048454C502025AB
:10FC78007320202020202020202020202020202029
:10FC88002000204F70656E204C4C20202020202022
:10FC9800202020202020202020002050756D70205A
:10FCA8004C4C2020202020202020202020202020F4
:10FCB8002000205265616479204C4C2020202020AF
:10FCC80020202020202020202000205332463431BC
:10FCD80020232563202020202020202020202020D1
:10FCE8002000444953504C4159202573202020209E
:10FCF800202020202020202020002053746F7265AF
:10FD0800642023256420202020202020202020205B
:10FD18002000767465726D2025783A257820202099
:10FD28002020202020202020200020534551554508
:10FD38004E434520256420202020202020202020FC
:10FD4800200020446973706C6179206E756D2025E0
:10FD580064202020202020202000205325644625D0
:10FD680064206C6F6720202020256420202020201C
:10FD78002000204C6F61642D6C6F636B206E756D75
:10FD880020256420202020202000202573202020EA
:10FD9800202020202020202020202020202020205B
:10FDA8000020494E464F20202020202020202020BF
:10FDB800202020202020200020565445524D204944
:10FDC8004E464F20202020202020202020200020C8
:10FDD800565445524D2048454C5020202020202084
:10FDE8002020202020002056657273696F6E202520
:10FDF8007320202020202020202020200020257370
:10FE080020416C6C20446576202020202020202072
:10FE1800202020002048454C50204275696C642001
:10FE28002573202020202020202000202573204119
:10FE38006E616C6F6720446576202020202020208A
:10FE4800200053756E4D6F6E547565576564546820
:10FE5800754672695361740048454C5020257320DB
:10FE68002020202020202020202020202000436146
:10FE78006C6962726174696F6E20436F6D706C6536
:10FE88007465200057454D33303830204472697608
:10FE9800657220202020202000257320202020208B
:10FEA8002020202020202020202020202000257312
:10FEB80020257320202020202020202020202020E2
:10FEC800202000506F7274202573202020202020CD
:10FED8002020202020202000424D43426F61726480
:10FEE80020447269766572202020202000526561C6
:10FEF8006420454550524F4D204441544120202014
:10FF08002000577269746520454550524F4D204472
:10FF18004154412020200055706461746520454596
:10FF280050524F4D2044415441202000496E766183
:10FF38006C696420454550524F4D2044415441203E
:10FF480000454D3534302044726976657220202092
:10FF58002020202000257320202020202020202061
:10FF68002020202020202020004D617220323220C5
:10FF7800323032360030393A33343A32350030399B
:10FF88003A34343A313600434F4D4D202020004555
:10FF980052524F522020004F4E4C494E452000529D
:10FFA800454D4F5445200044495341424C45004F6C
:10FFB80046464C494E4500286E756C6C29005745DD
:10FFC8004D33300056302E36300034375138340037
:10FFD80035375138340056302E370056302E380019
:10FFE800494E46004E414E00696E66006E616E00D5
:08FFF800474D54002573000081
:020000040001F9
:1000000000019451D8BC04D0010E4B6E210E5F6EDE
:10001000FFECEDF09F9419ECFEF0D68ED68CBF82EB
:10002000BF84BF8623ECF9F0ABECFAF0000E610060
:10003000A2F3FDF622EE6CF1070EDE6AE806FDE2A1
:100040000701F76BF751020DF3C4FBF6F4C4FCF69D
:10005000000E0601FCBFFF0EFD6FFE6F000EFB25BC
:1000600005017E6F000E0601FC2105017F6F2C0E3D
:100070000601FD210501806F24ECE6F00701F75130
:10008000020D3C0EF324D96E090EF420DA6E050140
:100090007EC5DEF47FC5DDF40701F751020D3C0E8D
:1000A000F324D96E090EF420DA6EDEC4FBF6DDC44B
:1000B000FCF60601FB5109016C270601FC51090100
:1000C0006D23000E6E23000E6F23000E7023000EB2
:1000D0007123000E7223000E73230701F72B080E05
:1000E000F765B0D76CC957F86DC958F86EC959F89B
:1000F0006FC95AF870C95BF871C95CF872C95DF8CC
:1001000073C95EF8FC0E05017E6FFF0E7F6F3F0E18
:10011000806F24ECE6F07EC555F87FC556F8FE0EDC
:100120007E6FFF0E7F6F3F0E806F24ECE6F07EC582
:1001300053F87FC554F8050E0801531904E1990ED0
:100140005419D8B42ED0040E531906E1990E54193F
:10015000D8A402D0508525D05069000E566F55693D
:10016000FF0E576F000E586F000E596F000E5A6F3A
:10017000000E5B6F000E5C6F000E5D6F000E5E6F19
:10018000FF0E09016C6FFF0E6D6FFF0E6E6FFF0E9D
:100190006F6F000E706F000E716F000E726F000EA9
:1001A000736F57C8A3F558C8A4F559C8A5F55AC820
:1001B000A6F55BC8A7F55CC8A8F55DC8A9F55EC83B
:1001C000AAF540ECD2F00701DF6F30D0FE0E6100DF
:1001D000A2F30BF9E00E6100A2F30CF9010E61002D
:1001E000A2F30DF9EE0E6100A2F311F9740E610095
:1001F000A2F312F9010E6100A2F313F9620E61007D
:10020000A2F30EF9EA0E6100A2F30FF9010E6100EC
:10021000A2F310F91BD096ECE7F0C40E7E6FDF0E50
:100220007F6F010E806F9BECFCF010D0DF51060158
:10023000FB6FFC6BFC51000AD8A4EDD7FB51000A00
:10024000D8B4E9D7010AD8B4C1D7E5D72AEE0EF160
:1002500001D80AD00500FA6EDE50FD6EDE50FE6E4B
:10026000DE50FF6EFA5012002AEE0BF101D80AD0D0
:100270000500FA6EDE50FD6EDE50FE6EDE50FF6E43
:10028000FA50120005017F6B140E7E6F090EA0EC70
:10029000F8F04E0E7F6F200E7E6F0C0EA0ECF8F083
:1002A0002AEE0EF101D80AD00500FA6EDE50FD6E7E
:1002B000DE50FE6EDE50FF6EFA50120022EE6CF140
:1002C000FF0EDE1409016C6FFF0EDE146D6FFF0E62
:1002D000DE146E6FFF0EDE146F6F000EDE14706F93
:1002E000000EDE14716F000EDE14726F000EDE144D
:1002F000736FEDECFDF0740E05017E6FDF0E7F6F06
:10030000010E806FF6ECFCF0EAECFDF0E7ECFDF09E
:10031000B80E05017E6FB90E7F6F010E806FEFEC96
:10032000FCF0200E7E6FFC0E7F6F010E806F12ECD2
:10033000FDF0F6ECFDF08A0E05017E6FFB0E7F6F7F
:10034000010E806F0BECFDF0F3ECFDF09E0E07014B
:10035000E36F0F0EE46F0501846B640E836FDDECB9
:10036000F9F0BF94BF92BF9603ECC6F00701DEA57B
:100370006ED0DE95E9ECDDF00009D8B438D0000E7F
:1003800005017E6F000E40ECEFF07EC571F67FC573
:1003900072F6F50E0601736FFE0E746F61ECF1F0EC
:1003A0006CECFAF0000E05017E6F010E40ECEFF0F0
:1003B0007EC571F67FC572F61F0E0601736FFF0EC4
:1003C000746F61ECF1F0F0ECE2F0000E05017E6F6D
:1003D000010E40ECEFF07EC571F67FC572F60A0E95
:1003E0000601736FFF0E746F61ECF1F011D0000E17
:1003F00005017E6F000E40ECEFF07EC571F67FC503
:1004000072F6340E0601736FFF0E746F61ECF1F03B
:10041000000E05017E6F030E40ECEFF07EC571F615
:100420007FC572F6760E0601736FFE0E746F61EC77
:10043000F1F02AEEE1F0DF509CECFAF071ECFCF008
:10044000060E0501846F400E836FDDECF9F00801A4
:1004500050B500EF87F0B80E06011D6F0C0E1E6F31
:100460002AEE11F101D82CD10500FA6EDE50FD6E96
:10047000DE50FE6EDE50FF6EFA501200B70E050120
:100480008C6FF70E8D6F85ECF1F0F00E06011A6F90
:10049000E40E1B6F010E1C6F050E1D6F63ECDDF08B
:1004A0003DD109012351D8A413D0A70E05018C6FAB
:1004B000F70E8D6F85ECF1F0BE0E06011A6FBC0EC3
:1004C0001B6F010E1C6F050E1D6F63ECDDF026D156
:1004D000070E05018C6FF70E8D6F85ECF1F0100E95
:1004E00006011A6FFC0E1B6F010E1C6F050E1D6FAF
:1004F00063ECDDF013D1870E05018C6FF70E8D6F65
:1005000085ECF1F0A40E06011A6FFB0E1B6F010EB5
:100510001C6F050E1D6F63ECDDF000D1770E050139
:100520008C6FF70E8D6F85ECF1F06A0E06011A6F75
:10053000F30E1B6F010E1C6F050E1D6F63ECDDF0DB
:10054000EDD0670E05018C6FF70E8D6F85ECF1F025
:10055000420E06011A6FF30E1B6F010E1C6F050E83
:100560001D6F63ECDDF0DAD0570E05018C6FF70ECE
:100570008D6F85ECF1F0900E06011A6FEF0E1B6F78
:10058000010E1C6F050E1D6F63ECDDF0C7D0970EDA
:1005900005018C6FF70E8D6F85ECF1F0120E0601E0
:1005A0001A6F960E1B6F010E1C6F100E1D6F63EC01
:1005B000DDF0B4D0370E05018C6FF70E8D6F85EC32
:1005C000F1F0240E06011A6FF00E1B6F010E1C6F66
:1005D000050E1D6F63ECDDF0A1D0270E05018C6FB9
:1005E000F70E8D6F85ECF1F0ECD7170E05018C6FCF
:1005F000F70E8D6F85ECF1F0240E06011A6FF00EE8
:100600001B6F010E1C6F050E1D6F63ECDDF04D6A54
:1006100085D04D50000AD8B4CDD7010AD8B4DDD763
:10062000030AD8B4E2D7F3D7730E05018C6F0A0E14
:100630008D6F85ECF1F02C0E06011A6F910E1B6F79
:10064000010E1C6F110E1D6F63ECDDF067D0DD0E27
:1006500005018C6F0D0E8D6F85ECF1F09E0E06017D
:100660001A6FFB0E1B6F010E1C6F050E1D6F63ECE6
:10067000DDF054D0CD0E05018C6F0D0E8D6F85EC25
:10068000F1F0980E06011A6FFB0E1B6F010E1C6F26
:10069000050E1D6F63ECDDF041D0470E05018C6F38
:1006A000F70E8D6F85ECF1F0F40E06011A6FEF0E68
:1006B0001B6F010E1C6F050E1D6F63ECDDF02ED05D
:1006C0004C500601FB6FFC6BFC51000AD8A4D6D637
:1006D000FB51000AD8B4D2D6010AD8B4E2D6030A34
:1006E000D8B409D7010AD8B419D7070AD8B429D77A
:1006F000010AD8B439D7030AD8B48BD7010AD8B4C1
:10070000A6D70F0AD8B4B6D7010AD8B48DD7030A32
:10071000D8B4C3D7010AD8B43AD7B0D60C0EF0EC8F
:10072000F9F00009D8B46CD3750E7F6F300E7E6F70
:100730000C0EA0ECF8F00901236B62D332ECD7F079
:100740000C0E7FECFCF02AEEE1F0DF509CECFAF0AE
:10075000E9ECDDF00009D8B414D06CECFAF0000E2E
:1007600005017E6F000E40ECEFF07EC571F67FC58F
:1007700072F6F50E0601736FFE0E746F61ECF1F008
:1007800015D0000E05017E6F000E40ECEFF07EC527
:1007900071F67FC572F6340E0601736FFF0E746F2B
:1007A00061ECF1F0F0ECE2F0010E4B6E000E050191
:1007B0007E6F010E40ECEFF07EC571F67FC572F6DC
:1007C0000601746B150E736FA10E756FFE0E766FBA
:1007D000E00E776FFE0E786F2DECE2F0000E050153
:1007E0007E6F020E40ECEFF07EC571F67FC572F6AB
:1007F0000601746B150E736FCB0E756FFE0E766F60
:10080000E3C777F6E4C778F62DECE2F0000E0501B9
:100810007E6F030E40ECEFF07EC571F67FC572F679
:100820000601746B150E736FB60E756FFE0E766F44
:10083000710E776FFF0E786FCC0E796FFF0E7A6FA7
:100840002DECE2F071ECFCF04B50D8B408D0060E61
:100850000501846F400E836FDDECF9F007D0090EBF
:100860000501846F600E836FDDECF9F042ECF8F067
:10087000F2ECF0F04EECBEF00009D8A413D0010E5B
:100880006100A2F303F9000E6100A2F304F9000E67
:100890006100A2F305F9000E6100A2F306F9010E52
:1008A000506E50815AECF8F08CECE5F00009D8A4B9
:1008B00014D0010E6100A2F307F9000E6100A2F34B
:1008C00008F9000E6100A2F309F9000E6100A2F31D
:1008D0000AF9010E506E0801508317ECF1F015EC87
:1008E000FAF0010E6100A2F3FDF6070E05017F6F1D
:1008F000A50E7E6F6EECFBF02AEEE1F0DF509CEC73
:10090000FAF01E0E0601716F280E726F746B3F0EA7
:10091000736F980E756FFB0E766F2DECE2F0000E84
:1009200005017E6F000E40ECEFF07EC571F67FC5CD
:1009300072F60601746B150E736F590E756FFC0E0F
:10094000766F5FC577F6786BCC0E796FFF0E7A6F96
:100950002DECE2F0000E05017E6F010E40ECEFF091
:100960007EC571F67FC572F60601746B150E736F46
:100970005E0E756FFA0E766F57C877F658C878F620
:1009800059C879F65AC87AF65BC87BF65CC87CF61B
:100990005DC87DF65EC87EF650C87FF6806B2DEC94
:1009A000E2F02AEE03F1DE50DE10DE10DE10D8A4F5
:1009B00008D02AEE07F1DE50DE10DE10DE10D8B4CB
:1009C0002ED0050E0801531904E1990E5419D8B41C
:1009D00005D0D20E0701E96FFF0E04D0D80E070133
:1009E000E96FFF0EEA6F000E05017E6F020E40EC0C
:1009F000EFF07EC571F67FC572F60601746B150EB9
:100A0000736F330E756FFE0E766FE9C777F6EAC720
:100A100078F62DECE2F0030E0801506F2CD0050E95
:100A20000801531904E1990E5419D8B405D0D20E17
:100A30000701EB6FFF0E04D0D80E0701EB6FFF0E1E
:100A4000EC6F000E05017E6F020E40ECEFF07EC5EC
:100A500071F67FC572F60601746B150E736F050E85
:100A6000756FFE0E766FEBC777F6ECC778F62DEC58
:100A7000E2F00801506B000E05017E6F030E40ECA2
:100A8000EFF07EC571F67FC572F60601746B150E28
:100A9000736F920E756FFD0E766F710E776FFF0E8E
:100AA000786F2DECE2F0010E05017E6F000E40EC38
:100AB000EFF07EC571F67FC572F60601746B150EF8
:100AC000736FA90E756FFD0E766F2DECE2F0010EBF
:100AD00005017E6F010E40ECEFF07EC571F67FC51B
:100AE00072F60601746B150E736FEE0E756FFD0EC8
:100AF000766FCC0E776FFF0E786F2DECE2F0010E63
:100B000005017E6F020E40ECEFF07EC571F67FC5E9
:100B100072F60601746B150E736FC00E756FFD0EC5
:100B2000766F2DECE2F0010E05017E6F030E40ECB6
:100B3000EFF07EC571F67FC572F60601746B150E77
:100B4000736F920E756FFD0E766F710E776FFF0EDD
:100B5000786F2DECE2F0030E05017E6F000E40EC85
:100B6000EFF07EC571F67FC572F60601746B150E47
:100B7000736F1C0E756FFE0E766FCC0E776FFF0EC7
:100B8000786F2DECE2F0030E05017E6F010E40EC54
:100B9000EFF07EC571F67FC572F60601746B150E17
:100BA000736FEE0E756FFD0E766FCC0E776FFF0EC6
:100BB000786F2DECE2F0030E05017E6F020E40EC23
:100BC000EFF07EC571F67FC572F60601746B150EE7
:100BD000736FD70E756FFD0E766F2DECE2F0030E7E
:100BE00005017E6F030E40ECEFF07EC571F67FC508
:100BF00072F60601746B150E736F920E756FFD0E13
:100C0000766F710E776FFF0E786F2DECE2F0020EAB
:100C100005017E6F000E40ECEFF07EC571F67FC5DA
:100C200072F60601746B150E736F780E756FFB0EFE
:100C3000766F57C877F658C878F659C879F65AC803
:100C40007AF65BC87BF65CC87CF65DC87DF65EC84C
:100C50007EF653C87FF654C880F62DECE2F0020E03
:100C600005017E6F010E40ECEFF07EC571F67FC589
:100C700072F60601746B150E736F370E756FFA0EF0
:100C8000766F28C877F629C878F62AC879F62BC86F
:100C90007AF60CC87BF60DC87CF60EC87DF60FC838
:100CA0007EF62DECE2F0020E05017E6F020E40ECA6
:100CB000EFF07EC571F67FC572F60601746B150EF6
:100CC000736F100E756FFA0E766F08C877F609C845
:100CD00078F60AC879F60BC87AF62DECE2F0020E27
:100CE00005017E6F030E40ECEFF07EC571F67FC507
:100CF00072F60601746B150E736F160E756FFB0E90
:100D0000766F710E776FFF0E786FCC0E796FFF0ED6
:100D10007A6F2DECE2F071ECFCF00B0E0501846FA4
:100D2000B80E836FDDECF9F05050D8B406D0270E22
:100D3000846F100E836FDDECF9F0010E7F6FF40EFF
:100D40007E6F050EA0ECF8F00B0E7F6FB80E7E6F75
:100D5000020EA0ECF8F0050E7F6FDC0E7E6F070E22
:100D6000A0ECF8F00B0E7F6FB80E7E6F040EA0ECB7
:100D7000F8F0270E7F6F100E7E6F060EA0ECF8F0D5
:100D80000B0E7F6FB80E7E6F030EA0ECF8F07F6B3A
:100D9000010E7E6F010EA0ECF8F044D0000E7CEC4A
:100DA000FAF0000E7E6F000E40ECEFF07EC5EDF71E
:100DB0007FC5EEF7070120EE15F0ED51D926EE5173
:100DC000DA22DF6A000E0501826F030E50ECE4F0B8
:100DD0000601FB6F070120EE13F0ED51D926EE510D
:100DE000DA22FBC6DFF41ED0000E6100A2F3FDF68E
:100DF0000B0E0501846FB80E836FDDECF9F012D095
:100E000029EEFDF2DF500601FB6FFC6BFC51000A7E
:100E1000D8A4EAD7FB51000AD8B490D4010AD8B4B8
:100E2000BDD7E2D7010EF0ECF9F00009D8B472D1C9
:100E30007F6B010E7E6F010EA0ECF8F02AEE07F139
:100E4000DE50DE10DE10DE10D8A414D05AECF8F01C
:100E5000D69E0A016C51D8A406D06A00F8F1EDF8CC
:100E60006A00FCF1EEF8D68EEDC88EF5EEC88FF56F
:100E700058ECF3F015ECFAF0010E08010027000E13
:100E8000012302230323C1ECFDF0000E4BECFCF028
:100E900082ECFDF00009D8B4FBD782ECFDF000092C
:100EA000D8B406D023ECFBF07EC500FE7FC501FE62
:100EB000C1ECFDF0010E4BECFCF082ECFDF0000902
:100EC000D8B4FBD782ECFDF00009D8B40ED023ECE7
:100ED000FBF06100FAF5F1F86100FEF5F2F86A0046
:100EE000C4F302FE6A00C8F303FEC1ECFDF0020E7B
:100EF0004BECFCF082ECFDF00009D8B4FBD782EC9F
:100F0000FDF00009D8B40ED023ECFBF06100FAF537
:100F1000F3F86100FEF5F4F86A00CCF304FE6A0011
:100F2000D0F305FEC1ECFDF0040E4BECFCF082ECBE
:100F3000FDF00009D8B4FBD782ECFDF00009D8B46D
:100F400006D023ECFBF07EC508FE7FC509FEC1EC90
:100F5000FDF0050E4BECFCF082ECFDF00009D8B47E
:100F6000FBD782ECFDF00009D8B406D023ECFBF0EF
:100F70007EC50AFE7FC50BFEC1ECFDF0160E4BECE4
:100F8000FCF082ECFDF00009D8B4FBD782ECFDF058
:100F90000009D8B406D023ECFBF07EC52CFE7FC53B
:100FA0002DFEC1ECFDF0170E4BECFCF082ECFDF0D9
:100FB0000009D8B4FBD782ECFDF00009D8B406D004
:100FC00023ECFBF07EC52EFE7FC52FFEC1ECFDF0AD
:100FD0001D0E4BECFCF082ECFDF00009D8B4FBD701
:100FE00082ECFDF00009D8B406D023ECFBF07EC5FE
:100FF0003AFE7FC53BFEC1ECFDF03B0E4BECFCF036
:1010000082ECFDF00009D8B4FBD782ECFDF00009BA
:10101000D8B406D023ECFBF07EC576FE7FC577FE04
:10102000C1ECFDF03C0E4BECFCF082ECFDF0000955
:10103000D8B4FBD782ECFDF00009D8B406D023EC7D
:10104000FBF07EC578FE7FC579FEC1ECFDF03D0E5C
:101050004BECFCF082ECFDF00009D8B4FBD782EC3D
:10106000FDF00009D8B406D023ECFBF07EC57AFE73
:101070007FC57BFEC1ECFDF03E0E4BECFCF082EC3C
:10108000FDF00009D8B4FBD782ECFDF00009D8B41C
:1010900006D023ECFBF07EC57CFE7FC57DFEC1EC57
:1010A000FDF03F0E4BECFCF082ECFDF00009D8B4F3
:1010B000FBD782ECFDF00009D8B406D023ECFBF09E
:1010C0007EC57EFE7FC57FFE6A00ACF27DF0040027
:1010D0002AEE03F1DE50DE10DE10DE10D8A41AD0A6
:1010E00042ECF8F0000E05019D6F000E9E6F000EA1
:1010F0009F6F000EA06F000EA16F000EA26F000E7A
:10110000A36F4DECE7F06EC7D9F46FC7DAF4DFBE1A
:101110004EECBEF0050EF0ECF9F00009D8B4B2EFD9
:101120008DF015ECFAF0010E05017F6FF40E7E6F65
:10113000050EA0ECF8F0040EF0ECF9F00009D8B4BC
:1011400003D0000E7CECFAF0000E9DECF6F051504E
:10115000D8B47AEF8DF0EEEC8DF0000E05017E6FC5
:10116000000E40ECEFF07EC571F67FC572F6060109
:10117000746B150E736FD20E756FFB0E766F020EC9
:101180000701AA250601776F000E0701AB210601B2
:10119000786F2DECE2F0B50E080157190CE11D0E29
:1011A000581909E1060E59195A115B115C115D11AC
:1011B0005E11D8B45CD024CB95F525CB96F526CB23
:1011C00097F527CB98F5000E0501996F000E9A6FE1
:1011D000C80E9B6F420E9C6F53ECC7F095C5F8F795
:1011E00096C5F9F797C5FAF798C5FBF7000E7E6F1D
:1011F000010E40ECEFF07EC571F67FC572F6060178
:10120000746B150E736FEE0E756FFB0E766F0C011F
:10121000C1510C0DB50EF3240601776F0D0EF420AD
:10122000786F14C787F515C788F516C789F517C7EE
:101230008AF50A0E05018B6F000E8C6F000E8D6F04
:10124000000E8E6F64ECE1F087C579F688C57AF6FA
:1012500089C57BF68AC57CF6F8C77DF6F9C77EF6A8
:10126000FAC77FF6FBC780F62DECE2F05BD02CCB03
:1012700095F52DCB96F52ECB97F52FCB98F5000E47
:101280000501996F000E9A6FC80E9B6F420E9C6FFE
:1012900053ECC7F095C5F8F796C5F9F797C5FAF777
:1012A00098C5FBF7000E7E6F010E40ECEFF07EC597
:1012B00071F67FC572F60601746B150E736FEE0E34
:1012C000756FFB0E766F0C01C1510C0DB50EF3243A
:1012D0000601776F0D0EF420786F14C787F515C7D8
:1012E00088F516C789F517C78AF50A0E05018B6FB1
:1012F000000E8C6F000E8D6F000E8E6F64ECE1F0AF
:1013000087C579F688C57AF689C57BF68AC57CF6E5
:10131000F8C77DF6F9C77EF6FAC77FF6FBC780F6F9
:101320002DECE2F009011D51D8B472D0000E050178
:101330007E6F020E40ECEFF07EC571F67FC572F64F
:101340000601746B150E736F370E756FFB0E766F9B
:1013500009011D510C0DEF0EF3240601776FF60EF7
:10136000F420786F0C0E0701B203F3C4FBF6F4C44B
:10137000FCF6B303F3500601FC27A70EFB25796F9B
:10138000F60EFC217A6F800E0701B82506017B6FEF
:10139000FF0E0701B92106017C6F800E0701B625FB
:1013A00006017D6FFF0E0701B72106017E6F800EDB
:1013B0000701B42506017F6FFF0E0701B521060165
:1013C000806F2DECE2F0000E05017E6F030E40EC05
:1013D000EFF07EC571F67FC572F60601746B150ECF
:1013E000736F960E756FF90E766F88C777F689C79B
:1013F00078F68AC779F68BC77AF684C77BF685C7F5
:101400007CF686C77DF687C77EF62DECE2F060D0CD
:10141000000E05017E6F020E40ECEFF07EC571F606
:101420007FC572F60601746B150E736FA90E756F8A
:10143000FA0E766F63C877F664C878F665C879F6F1
:1014400066C87AF667C87BF668C87CF669C87DF618
:101450006AC87EF66BC87FF66CC880F66DC881F6E8
:101460006EC882F65FC883F660C884F661C885F6E8
:1014700062C886F62DECE2F0000E05017E6F030EC9
:1014800040ECEFF07EC571F67FC572F60601746B15
:10149000150E736FCE0E756FFA0E766F6FC877F6F6
:1014A00070C878F671C879F672C87AF673C87BF698
:1014B00074C87CF675C87DF676C87EF677C87FF668
:1014C00078C880F679C881F67AC882F62DECE2F009
:1014D00022EE5BF1DEC487F5DDC488F50501000E60
:1014E00088BFFF0E896F8A6F010E77ECDAF087C52F
:1014F00095F588C596F589C597F58AC598F5000EC6
:10150000996F000E9A6F200E9B6F410E9C6F53ECEB
:10151000C7F095C5F8F796C5F9F797C5FAF798C5D6
:10152000FBF722EE69F1DEC487F5DDC488F5000E15
:1015300088BFFF0E896F8A6F010E77ECDAF087C5DE
:1015400095F588C596F589C597F58AC598F5000E75
:10155000996F000E9A6F700E9B6F420E9C6F53EC4A
:10156000C7F095C5F3F796C5F4F797C5F5F798C595
:10157000F6F7010E7E6F000E40ECEFF07EC571F6BF
:101580007FC572F60601746B150E736F120E756FC0
:10159000F90E766FF8C777F6F9C778F6FAC779F6D5
:1015A000FBC77AF6F3C77BF6F4C77CF6F5C77DF682
:1015B000F6C77EF62DECE2F065C97EF566C97FF5CB
:1015C0000501816B0A0E806FC4ECEAF07EC5E5F779
:1015D0007FC5E6F763C97EF564C97FF5816B0A0EA6
:1015E000806FC4ECEAF07EC5E7F77FC5E8F7010E2F
:1015F0007E6F010E40ECEFF07EC571F67FC572F68E
:101600000601746B150E736FE80E756FF90E766F29
:10161000E5C777F6E6C778F6E7C779F6E8C77AF65A
:101620002DECE2F0ECCB87F5EDCB88F5EECB89F530
:10163000EFCB8AF5010E77ECDAF087C595F588C512
:1016400096F589C597F58AC598F5000E996F000E35
:101650009A6F7A0E9B6F440E9C6F53ECC7F095C542
:10166000F8F796C5F9F797C5FAF798C5FBF71CC7C1
:1016700087F51DC788F51EC789F51FC78AF5010EB6
:1016800077ECDAF087C595F588C596F589C597F5A5
:101690008AC598F5000E996F000E9A6F7A0E9B6FAF
:1016A000440E9C6F53ECC7F095C5F3F796C5F4F75D
:1016B00097C5F5F798C5F6F728CB95F529CB96F59C
:1016C0002ACB97F52BCB98F5000E996F000E9A6FE9
:1016D000C80E9B6F420E9C6F53ECC7F095C5EFF799
:1016E00096C5F0F797C5F1F798C5F2F7010E7E6F32
:1016F000020E40ECEFF07EC571F67FC572F6060172
:10170000746B150E736FE50E756FF80E766FF8C774
:1017100077F6F9C778F6FAC779F6FBC77AF6F3C712
:101720007BF6F4C77CF6F5C77DF6F6C77EF6EFC705
:101730007FF6F0C780F6F1C781F6F2C782F62DEC8E
:10174000E2F0B50E080157190CE11D0E581909E118
:10175000060E59195A115B115C115D115E11D8B456
:101760009ED024C787F525C788F526C789F527C7E2
:101770008AF5010E77ECDAF087C595F588C596F500
:1017800089C597F58AC598F5000E996F000E9A6F76
:10179000200E9B6F410E9C6F53ECC7F095C5F8F778
:1017A00096C5F9F797C5FAF798C5FBF730C787F5DF
:1017B00031C788F532C789F533C78AF5010E77EC52
:1017C000DAF087C595F588C596F589C597F58AC578
:1017D00098F5000E996F000E9A6F200E9B6F410EC8
:1017E0009C6F53ECC7F095C5F3F796C5F4F797C512
:1017F000F5F798C5F6F721EE5CF3DEC487F5DDC496
:1018000088F5000E88BFFF0E896F8A6F010E77EC96
:10181000DAF087C595F588C596F589C597F58AC527
:1018200098F5000E996F000E9A6F7A0E9B6F440E1A
:101830009C6F53ECC7F095C5EFF796C5F0F797C5C9
:10184000F1F798C5F2F7010E7E6F030E40ECEFF052
:101850007EC571F67FC572F60601746B150E736F47
:10186000F20E756FFA0E766FF8C777F6F9C778F64D
:10187000FAC779F6FBC77AF6F3C77BF6F4C77CF6AE
:10188000F5C77DF6F6C77EF6EFC77FF6F0C780F6A0
:10189000F1C781F6F2C782F62DECE2F088D063C87A
:1018A00095F564C896F565C897F566C898F5000E75
:1018B0000501996F000E9A6F200E9B6F410E9C6F71
:1018C00053ECC7F095C5F8F796C5F9F797C5FAF741
:1018D00098C5FBF76FC895F570C896F571C897F570
:1018E00072C898F5000E996F000E9A6F200E9B6FCC
:1018F000410E9C6F53ECC7F095C5F3F796C5F4F70E
:1019000097C5F5F798C5F6F721EE5CF3DEC487F5C9
:10191000DDC488F5000E88BFFF0E896F8A6F010E47
:1019200077ECDAF087C595F588C596F589C597F502
:101930008AC598F5000E996F000E9A6F7A0E9B6F0C
:10194000440E9C6F53ECC7F095C5EFF796C5F0F7C2
:1019500097C5F1F798C5F2F7010E7E6F030E40ECC4
:10196000EFF07EC571F67FC572F60601746B150E39
:10197000736FF20E756FFA0E766FF8C777F6F9C7C8
:1019800078F6FAC779F6FBC77AF6F3C77BF6F4C7A1
:101990007CF6F5C77DF6F6C77EF6EFC77FF6F0C793
:1019A00080F6F1C781F6F2C782F62DECE2F0020E66
:1019B00005017E6F000E40ECEFF07EC571F67FC52D
:1019C00072F60601746B150E736F780E756FFB0E51
:1019D000766F57C877F658C878F659C879F65AC856
:1019E0007AF65BC87BF65CC87CF65DC87DF65EC89F
:1019F0007EF653C87FF654C880F62DECE2F0020E56
:101A000005017E6F010E40ECEFF07EC571F67FC5DB
:101A100072F60601746B150E736FC00E756FF90EBA
:101A2000766F08CE00F609CE01F6F6ECE8F000C6B7
:101A300077F601C678F602C679F603C67AF60ACEBC
:101A400000F60BCE01F66CECE8F000C67BF601C6A2
:101A50007CF602C67DF603C67EF62DECE2F0020EA1
:101A600005017E6F020E40ECEFF07EC571F67FC57A
:101A700072F60601746B150E736FB80E756FF80E63
:101A8000766F08C877F609C878F60AC879F60BC8E1
:101A90007AF650C87BF67C6B2DECE2F0020E050165
:101AA0007E6F030E40ECEFF07EC571F67FC572F6D7
:101AB0000601746B150E736F370E756FFA0E766F25
:101AC00028C877F629C878F62AC879F62BC87AF696
:101AD0000CC87BF60DC87CF60EC87DF60FC87EF6E6
:101AE0002DECE2F071ECFCF00A01666B516A000E1D
:101AF00002ECEAF02AEEE2F0DFC4FBF6010EDF268C
:101B0000460E0601FB6529D05E509CECFAF02AEEE9
:101B1000E2F0DF500601FB6FFC6B2AEEE4F0DF50D1
:101B2000FD6FFE6B660EFD27000EFE23FB51FD5D73
:101B3000FE51800AFF6FFC51800AFF59D8B012D0C5
:101B40005E2A5E50030B030AD8A402D0010E5E6E1B
:101B5000000E6100A2F3E2F805D02AEEE1F0DF50BA
:101B60009CECFAF02AEEEDF0DF50D8B413D0030E5F
:101B7000F0ECF9F00009D8B40AD0000E6100A2F32D
:101B8000EDF82AEEE1F0DF509CECFAF003D0030E02
:101B90009CECFAF02AEEE8F0DF50D8B4B4EF81F014
:101BA000060EF0ECF9F00009D8B4B4EF81F0270E7E
:101BB0007F6F100E7E6F060EA0ECF8F00B0E7F6F9D
:101BC000B80E7E6F030EA0ECF8F0010E6100A2F3D8
:101BD000EDF8000EDEECD7F0B4EF81F0860E0601D2
:101BE000046F280E056F14ECFBF004C6E7F805C679
:101BF000E8F8FC0E716F240E726F746B190E736F20
:101C0000FC0E756FFF0E766FE7C88BF5E8C88CF594
:101C100037ECCCF08BC577F68CC578F62DECE2F07E
:101C2000000E6100A2F3FFF42EEF97F0BCC7B1F7EE
:101C300014C787F515C788F516C789F517C78AF53C
:101C4000010E77ECDAF087C595F588C596F589C55C
:101C500097F58AC598F5000E996F000E9A6F200EC1
:101C60009B6F410E9C6F53ECC7F095C5E3F696C58C
:101C7000E4F697C5E5F698C5E6F624C787F525C7C7
:101C800088F526C789F527C78AF5010E77ECDAF0C3
:101C900087C595F588C596F589C597F58AC598F5E0
:101CA000000E996F000E9A6F200E9B6F410E9C6F75
:101CB00053ECC7F095C5E7F696C5E8F697C5E9F683
:101CC00098C5EAF628C787F529C788F52AC789F590
:101CD0002BC78AF5010E77ECDAF087C595F588C534
:101CE00096F589C597F58AC598F5000E996F000E8F
:101CF0009A6F200E9B6F410E9C6F53ECC7F095C5F9
:101D0000EBF696C5ECF697C5EDF698C5EEF630C73E
:101D100087F531C788F532C789F533C78AF5010ED3
:101D200077ECDAF087C595F588C596F589C597F5FE
:101D30008AC598F5000E996F000E9A6F200E9B6F62
:101D4000410E9C6F53ECC7F095C5EFF696C5F0F6C3
:101D500097C5F1F698C5F2F63CC787F53DC788F5FB
:101D60003EC789F53FC78AF5010E77ECDAF087C5E3
:101D700095F588C596F589C597F58AC598F5000E3D
:101D8000996F000E9A6F200E9B6F410E9C6F53EC63
:101D9000C7F095C5F3F696C5F4F697C5F5F698C560
:101DA000F6F621EE62F3DEC487F5DDC488F5000E99
:101DB00088BFFF0E896F8A6F010E77ECDAF087C556
:101DC00095F588C596F589C597F58AC598F5000EED
:101DD000996F000E9A6F200E9B6F410E9C6F53EC13
:101DE000C7F095C5F7F696C5F8F697C5F9F698C504
:101DF000FAF6FC0E0601716F220E726F020E746FFE
:101E0000000E736F780E756FF50E766FB1C777F6AB
:101E1000786BE3C679F6E4C67AF6E5C67BF6E6C6E5
:101E20007CF618CB7DF619CB7EF61ACB7FF61BCB52
:101E300080F6E7C681F6E8C682F6E9C683F6EAC60A
:101E400084F6EBC685F6ECC686F6EDC687F6EEC6DA
:101E500088F6EFC689F6F0C68AF6F1C68BF6F2C6AA
:101E60008CF6F3C68DF6F4C68EF6F5C68FF6F6C67A
:101E700090F6F7C691F6F8C692F6F9C693F6FAC64A
:101E800094F670CB95F671CB96F672CB97F673CB32
:101E900098F688C799F689C79AF68AC79BF68BC7C2
:101EA0009CF684C79DF685C79EF686C79FF687C7B2
:101EB000A0F6800E0701B8250601A16FFF0E0701ED
:101EC000B9210601A26F800E0701B6250601A36F96
:101ED000FF0E0701B7210601A46F800E0701B4258C
:101EE0000601A56FFF0E0701B5210601A66FECC51F
:101EF000A7F6EDC5A8F61DC9A9F6AA6BB2C7ABF641
:101F0000B3C7ACF6C4CCADF6AE6B6CC9AFF66DC959
:101F1000B0F66EC9B1F66FC9B2F670C9B3F671C941
:101F2000B4F672C9B5F673C9B6F6C9C7B7F6CAC76B
:101F3000B8F6CBC7B9F6CCC7BAF6D1C7BBF6D2C78D
:101F4000BCF6D3C7BDF6D4C7BEF6D5C7BFF6D6C755
:101F5000C0F6D7C7C1F6D8C7C2F6D9C7C3F6DAC725
:101F6000C4F6DBC7C5F6DCC7C6F62DECE2F0120EF0
:101F700087EF95F0BCC7B1F700C787F501C788F5B3
:101F800002C789F503C78AF5010E77ECDAF087C539
:101F900095F588C596F589C597F58AC598F5000E1B
:101FA000996F000E9A6F200E9B6F410E9C6F53EC41
:101FB000C7F095C5E3F696C5E4F697C5E5F698C56E
:101FC000E6F604C787F505C788F506C789F507C78C
:101FD0008AF5010E77ECDAF087C595F588C596F598
:101FE00089C597F58AC598F5000E996F000E9A6F0E
:101FF000200E9B6F410E9C6F53ECC7F095C5E7F622
:1020000096C5E8F697C5E9F698C5EAF608C787F5D4
:1020100009C788F50AC789F50BC78AF5010E77EC61
:10202000DAF087C595F588C596F589C597F58AC50F
:1020300098F5000E996F000E9A6F200E9B6F410E5F
:102040009C6F53ECC7F095C5EBF696C5ECF697C5BB
:10205000EDF698C5EEF61CC787F51DC788F51EC7B7
:1020600089F51FC78AF5010E77ECDAF087C595F57B
:1020700088C596F589C597F58AC598F5000E996FBC
:10208000000E9A6F7A0E9B6F440E9C6F53ECC7F054
:1020900095C5EFF696C5F0F697C5F1F698C5F2F638
:1020A0002CC787F52DC788F52EC789F52FC78AF568
:1020B000010E77ECDAF087C595F588C596F589C5E8
:1020C00097F58AC598F5000E996F000E9A6F200E4D
:1020D0009B6F410E9C6F53ECC7F095C5F3F696C508
:1020E000F4F697C5F5F698C5F6F650C787F551C7CB
:1020F00088F552C789F553C78AF5010E77ECDAF0F7
:1021000087C595F588C596F589C597F58AC598F56B
:10211000000E996F000E9A6F200E9B6F410E9C6F00
:1021200053ECC7F095C5F7F696C5F8F697C5F9F6DE
:1021300098C5FAF621EE5CF3DEC487F5DDC488F5B8
:10214000000E88BFFF0E896F8A6F010E77ECDAF000
:1021500087C595F588C596F589C597F58AC598F51B
:10216000000E996F000E9A6F200E9B6F410E9C6FB0
:1021700053ECC7F095C5DBF696C5DCF697C5DDF6E2
:1021800098C5DEF621EE5EF3DEC487F5DDC488F582
:10219000000E88BFFF0E896F8A6F010E77ECDAF0B0
:1021A00087C595F588C596F589C597F58AC598F5CB
:1021B000000E996F000E9A6F200E9B6F410E9C6F60
:1021C00053ECC7F095C5DFF696C5E0F697C5E1F686
:1021D00098C5E2F6FC0E0601716F220E726F020EB8
:1021E000746F000E736FC10E756FF40E766FB1C70A
:1021F00077F6786BE3C679F6E4C67AF6E5C67BF641
:10220000E6C67CF6E7C67DF6E8C67EF6E9C67FF64A
:10221000EAC680F6EBC681F6ECC682F6EDC683F61A
:10222000EEC684F6EFC685F6F0C686F6F1C687F6EA
:10223000F2C688F6F3C689F6F4C68AF6F5C68BF6BA
:10224000F6C68CF6F7C68DF6F8C68EF6F9C68FF68A
:10225000FAC690F6DBC691F6DCC692F6DDC693F6BA
:10226000DEC694F6DFC695F6E0C696F6E1C697F6AA
:10227000E2C698F688C799F689C79AF68AC79BF688
:102280008BC79CF684C79DF685C79EF686C79FF6CA
:1022900087C7A0F6800E0701B8250601A16FFF0EC3
:1022A0000701B9210601A26F800E0701B6250601BC
:1022B000A36FFF0E0701B7210601A46F800E07016F
:1022C000B4250601A56FFF0E0701B5210601A66F13
:1022D0001BC9A7F61CC9A8F61DC9A9F6AA6BB2C7E7
:1022E000ABF6B3C7ACF6C4CCADF6AE6B6CC9AFF60B
:1022F0006DC9B0F66EC9B1F66FC9B2F670C9B3F662
:1023000071C9B4F672C9B5F673C9B6F6C9C7B7F6DE
:10231000CAC7B8F6CBC7B9F6CCC7BAF6D1C7BBF6B1
:10232000D2C7BCF6D3C7BDF6D4C7BEF6D5C7BFF675
:10233000D6C7C0F6D7C7C1F6D8C7C2F6D9C7C3F645
:10234000DAC7C4F6DBC7C5F6DCC7C6F62DECE2F08B
:10235000110E0701BC6F040044EF97F0BCC7B1F742
:1023600014C787F515C788F516C789F517C78AF505
:10237000010E77ECDAF087C595F588C596F589C525
:1023800097F58AC598F5000E996F000E9A6F200E8A
:102390009B6F410E9C6F53ECC7F095C5E3F696C555
:1023A000E4F697C5E5F698C5E6F618C787F519C7A8
:1023B00088F51AC789F51BC78AF5010E77ECDAF0A4
:1023C00087C595F588C596F589C597F58AC598F5A9
:1023D000000E996F000E9A6F7A0E9B6F440E9C6FE1
:1023E00053ECC7F095C5E7F696C5E8F697C5E9F64C
:1023F00098C5EAF624C787F525C788F526C789F565
:1024000027C78AF5010E77ECDAF087C595F588C500
:1024100096F589C597F58AC598F5000E996F000E57
:102420009A6F200E9B6F410E9C6F53ECC7F095C5C1
:10243000EBF696C5ECF697C5EDF698C5EEF628C70F
:1024400087F529C788F52AC789F52BC78AF5010EB4
:1024500077ECDAF087C595F588C596F589C597F5C7
:102460008AC598F5000E996F000E9A6F200E9B6F2B
:10247000410E9C6F53ECC7F095C5EFF696C5F0F68C
:1024800097C5F1F698C5F2F630C787F531C788F5DC
:1024900032C789F533C78AF5010E77ECDAF087C5C4
:1024A00095F588C596F589C597F58AC598F5000E06
:1024B000996F000E9A6F200E9B6F410E9C6F53EC2C
:1024C000C7F095C5F3F696C5F4F697C5F5F698C529
:1024D000F6F63CC787F53DC788F53EC789F53FC787
:1024E0008AF5010E77ECDAF087C595F588C596F583
:1024F00089C597F58AC598F5000E996F000E9A6FF9
:10250000200E9B6F410E9C6F53ECC7F095C5F7F6FC
:1025100096C5F8F697C5F9F698C5FAF621EE62F376
:10252000DEC487F5DDC488F5000E88BFFF0E896F15
:102530008A6F010E77ECDAF087C595F588C596F5B8
:1025400089C597F58AC598F5000E996F000E9A6FA8
:10255000200E9B6F410E9C6F53ECC7F095C5DBF6C8
:1025600096C5DCF697C5DDF698C5DEF6ECCB87F5AB
:10257000EDCB88F5EECB89F5EFCB8AF5010E77EC44
:10258000DAF087C595F588C596F589C597F58AC5AA
:1025900098F5000E996F000E9A6F7A0E9B6F440E9D
:1025A0009C6F53ECC7F095C5DFF696C5E0F697C56E
:1025B000E1F698C5E2F6FC0E0601716F220E726F0D
:1025C000020E746F000E736F0A0E756FF40E766F45
:1025D000B1C777F6786BE3C679F6E4C67AF6E5C656
:1025E0007BF6E6C67CF6E7C67DF6E8C67EF6E9C66B
:1025F0007FF6EAC680F6EBC681F6ECC682F6EDC63B
:1026000083F6EEC684F6EFC685F6F0C686F6F1C60A
:1026100087F6F2C688F6F3C689F6F4C68AF6F5C6DA
:102620008BF6F6C68CF6F7C68DF6F8C68EF6F9C6AA
:102630008FF6FAC690F6DBC691F6DCC692F6DDC6DA
:1026400093F6DEC694F6DFC695F6E0C696F6E1C6CA
:1026500097F6E2C698F688C799F689C79AF68AC7A8
:102660009BF68BC79CF684C79DF685C79EF686C7EA
:102670009FF687C7A0F6800E0701B8250601A16F57
:10268000FF0E0701B9210601A26F800E0701B625D2
:102690000601A36FFF0E0701B7210601A46F800E8C
:1026A0000701B4250601A56FFF0E0701B52106013C
:1026B000A66FECC5A7F6EDC5A8F61DC9A9F6AA6BCD
:1026C000B2C7ABF6B3C7ACF6C4CCADF6AE6B6CC953
:1026D000AFF66DC9B0F66EC9B1F66FC9B2F670C982
:1026E000B3F671C9B4F672C9B5F673C9B6F6C9C7FF
:1026F000B7F6CAC7B8F6CBC7B9F6CCC7BAF6D1C7D2
:10270000BBF6D2C7BCF6D3C7BDF6D4C7BEF6D5C795
:10271000BFF6D6C7C0F6D7C7C1F6D8C7C2F6D9C765
:10272000C3F6DAC7C4F6DBC7C5F6DCC7C6F62DECC0
:10273000E2F0140EECD1BCC7B1F714C787F515C78A
:1027400088F516C789F517C78AF5010E77ECDAF018
:1027500087C595F588C596F589C597F58AC598F515
:10276000000E996F000E9A6F200E9B6F410E9C6FAA
:1027700053ECC7F095C5E3F696C5E4F697C5E5F6C4
:1027800098C5E6F618C787F519C788F51AC789F5F9
:102790001BC78AF5010E77ECDAF087C595F588C579
:1027A00096F589C597F58AC598F5000E996F000EC4
:1027B0009A6F7A0E9B6F440E9C6F53ECC7F095C5D1
:1027C000E7F696C5E8F697C5E9F698C5EAF624C790
:1027D00087F525C788F526C789F527C78AF5010E2D
:1027E00077ECDAF087C595F588C596F589C597F534
:1027F0008AC598F5000E996F000E9A6F200E9B6F98
:10280000410E9C6F53ECC7F095C5EBF696C5ECF600
:1028100097C5EDF698C5EEF628C787F529C788F560
:102820002AC789F52BC78AF5010E77ECDAF087C540
:1028300095F588C596F589C597F58AC598F5000E72
:10284000996F000E9A6F200E9B6F410E9C6F53EC98
:10285000C7F095C5EFF696C5F0F697C5F1F698C5A1
:10286000F2F630C787F531C788F532C789F533C727
:102870008AF5010E77ECDAF087C595F588C596F5EF
:1028800089C597F58AC598F5000E996F000E9A6F65
:10289000200E9B6F410E9C6F53ECC7F095C5F3F66D
:1028A00096C5F4F697C5F5F698C5F6F63CC787F5D4
:1028B0003DC788F53EC789F53FC78AF5010E77EC1D
:1028C000DAF087C595F588C596F589C597F58AC567
:1028D00098F5000E996F000E9A6F200E9B6F410EB7
:1028E0009C6F53ECC7F095C5F7F696C5F8F697C5FB
:1028F000F9F698C5FAF621EE62F3DEC487F5DDC479
:1029000088F5000E88BFFF0E896F8A6F010E77EC85
:10291000DAF087C595F588C596F589C597F58AC516
:1029200098F5000E996F000E9A6F200E9B6F410E66
:102930009C6F53ECC7F095C5DBF696C5DCF697C5E2
:10294000DDF698C5DEF6ECCB87F5EDCB88F5EECB62
:1029500089F5EFCB8AF5010E77ECDAF087C595F5AE
:1029600088C596F589C597F58AC598F5000E996FC3
:10297000000E9A6F7A0E9B6F440E9C6F53ECC7F05B
:1029800095C5DFF696C5E0F697C5E1F698C5E2F67F
:10299000FC0E0601716F220E726F020E746F000E34
:1029A000736F530E756FF30E766FB1C777F6786B52
:1029B000E3C679F6E4C67AF6E5C67BF6E6C67CF6AB
:1029C000E7C67DF6E8C67EF6E9C67FF6EAC680F67B
:1029D000EBC681F6ECC682F6EDC683F6EEC684F64B
:1029E000EFC685F6F0C686F6F1C687F6F2C688F61B
:1029F000F3C689F6F4C68AF6F5C68BF6F6C68CF6EB
:102A0000F7C68DF6F8C68EF6F9C68FF6FAC690F6BA
:102A1000DBC691F6DCC692F6DDC693F6DEC694F60A
:102A2000DFC695F6E0C696F6E1C697F6E2C698F6DA
:102A300088C799F689C79AF68AC79BF68BC79CF612
:102A400084C79DF685C79EF686C79FF687C7A0F602
:102A5000800E0701B8250601A16FFF0E0701B921FD
:102A60000601A26F800E0701B6250601A36FFF0EB7
:102A70000701B7210601A46F800E0701B4250601E6
:102A8000A56FFF0E0701B5210601A66FECC5A7F6DD
:102A9000EDC5A8F61DC9A9F6AA6BB2C7ABF6B3C7B8
:102AA000ACF6C4CCADF6AE6B6CC9AFF66DC9B0F682
:102AB0006EC9B1F66FC9B2F670C9B3F671C9B4F692
:102AC00072C9B5F673C9B6F6C9C7B7F6CAC7B8F6BC
:102AD000CBC7B9F6CCC7BAF6D1C7BBF6D2C7BCF6DE
:102AE000D3C7BDF6D4C7BEF6D5C7BFF6D6C7C0F6A6
:102AF000D7C7C1F6D8C7C2F6D9C7C3F6DAC7C4F676
:102B0000DBC7C5F6DCC7C6F62DECE2F0110E0701F7
:102B1000BC6FBAD1110EBC6F110EB16F14C787F51F
:102B200015C788F516C789F517C78AF5010E77EC22
:102B3000DAF087C595F588C596F589C597F58AC5F4
