:0400000085EF00F098
:100008000112011201120112011201120112231030
:10001800011201123A0D4A0D0112011201120112C8
:100028005A0D0112011201121A0D01122A0D0112A4
:1000380001120112011201128E0A011201126A0D37
:10004800160E070E011201120112011201120112FD
:10005800A5040112340E0112C00901120112011285
:1000680001120112011201127A0D8A0D9A0D011264
:1000780001120112011201124200011201120112B1
:1000880001120112011201124C0A0112011201128D
:10009800520E430E01120112420001120112011206
:1000A8000112011201120112AA0DBA0DCA0D011294
:1000B800011201120112020C0112011201120112A5
:1000C8000112011201120112011201120112011290
:1000D8000112011201120112011201120112011280
:1000E8004200011201120112011201120112011241
:1000F800F211011201120A0D01120112011201126C
:10010800FF001AEE94F344EFFAF044E89AC835F584
:100118009BC836F59CC837F59DC838F5FC0E35C523
:10012800E3F4010F36C5E3F4010F37C5E3F4010F1B
:1001380038C5E3F4F80EE3C435F5010FE3C436F52A
:10014800010FE3C437F5010FE3C438F5FC0E35C5DC
:10015800E3F4010F36C5E3F4010F37C5E3F4010FEB
:1001680038C5E3F4FC0EE3C435F5010FE3C436F5F6
:10017800010FE3C437F5010FE3C438F537343834D9
:10018800356E366A376A386A363635C533F536C558
:1001980034F53350056E066A05500610D8A41FD0F2
:1001A800FC0EE3C435F5010FE3C436F5010FE3C4D3
:1001B80037F5010FE3C438F5D8903534316E36344D
:1001C800326E3734336E3834346E31503210331067
:1001D8003410D8A402D0020E27D0030E25D005284B
:1001E8000610D8A420D0FC0EE3C435F5010FE3C4F3
:1001F80036F5010FE3C437F5010FE3C438F5090EEE
:10020800D8903536363637363836E82EF9D7355061
:10021800361037103810D8A402D0010E01D0000EC5
:10022800016E026A04D0040E016E000E026E48E9E7
:100238001200F00EE3C409F5010FE3C40AF5010F3B
:10024800E3C40BF5010FE3C40CF5010FE3C40DF58E
:10025800010FE3C40EF5010FE3C40FF5010FE3C46A
:1002680010F5F80EE3C419F5010FE3C41AF5010FF0
:10027800E3C41BF5010FE3C41CF5010FE3C41DF52E
:10028800010FE3C41EF5010FE3C41FF5010FE3C41A
:1002980020F5116A126A136A146A156A166A176ACF
:1002A800186A09500A100B100C100D100E100F10C0
:1002B8001010D8B446D0010E056E0AD0D890093671
:1002C8000A360B360C360D360E360F361036052A22
:1002D80010AEF4D7D89011361236133614361536B8
:1002E8001636173618360950195C0A501A580B502A
:1002F8001B580C501C580D501D580E501E580F50AE
:100308001F5810502058D8A011D00950195E0A5013
:100318001A5A0B501B5A0C501C5A0D501D5A0E508D
:100328001E5A0F501F5A1050205A1180D890103260
:100338000F320E320D320C320B320A320932052ED0
:10034800C9D721EE11F1080E016EF80EDEC4E3F4F0
:10035800E828012EFBD7120044E8F30E03015717D3
:100368005351056E066A076A086A54C335F5366A3A
:10037800376A386A080ED890353636363736383602
:10038800E82EF9D7355005123650061237500712A5
:100398003850081255C335F5366A376A386A36C593
:1003A80038F535C537F5366A356A35500512365091
:1003B8000612375007123850081256C335F5366AF8
:1003C800376A386A35C538F5376A366A356A355056
:1003D8000512365006123750071238500812FC0E14
:1003E80005C5E3F4010F06C5E3F4010F07C5E3F4FF
:1003F800010F08C5E3F4FB0EE350D8B417D0FC0E88
:10040800E3C4E6F4E3C4E6F4E3C4E6F4E3C4E6F4E0
:10041800A5EC0CF0FC0E01C5E3F4010F02C5E3F4F2
:10042800010F03C5E3F4010F04C5E3F4FC0EE3C4B4
:1004380005F5010FE3C406F5010FE3C407F5010F45
:10044800E3C408F5F70EE124D96EFF0EE220DA6E58
:10045800DE50051ADE50061ADE50071ADD50081A5B
:10046800FF0E0514016E000E0614026E000E07142E
:10047800036E000E0814046E49E9120041E8FF0EED
:100488000DC5E3F444EC23F00150D8B449D0D9ECBD
:1004980023F0FF0EE350015CD8A02BD00601C16BFE
:1004A800C26BFF0EE3C401F5110E0118D8A407D0E2
:1004B800A40E156E0C0E166EB3EC1BF006D0500E83
:1004C800156E0B0E166EB3EC1BF00701A66BFC0E37
:1004D800E124D96EFF0EE220DA6E01D821D00500A2
:1004E800FA6EDE50FD6EDE50FE6EDE50FF6EFA5084
:1004F80012000601C151376EC251386EC14BC22B72
:10050800310E375C750E3858D8A00AD0C16BC26B53
:100518000701A56BA66B0501AE6B050EAD6F986B59
:100528000701A551D8A42DD00601C151376EC2517B
:10053800386EC14BC22B310E375C750E3858D8A0B7
:1005480020D0C16BC26B0701A56BA66B0501AE6B12
:10055800050EAD6F050E986F0601C56BC66BFC0ED8
:10056800E124D96EFF0EE220DA6E01D80AD0050028
:10057800FA6EDE50FD6EDE50FE6EDE50FF6EFA50F3
:10058800120044E91200F00EE3C409F5010FE3C4B8
:100598000AF5010FE3C40BF5010FE3C40CF5010FD5
:1005A800E3C40DF5010FE3C40EF5010FE3C40FF525
:1005B800010FE3C410F5F80EE3C411F5010FE3C40D
:1005C80012F5010FE3C413F5010FE3C414F5010F8D
:1005D800E3C415F5010FE3C416F5010FE3C417F5DD
:1005E800010FE3C418F509500A100B100C100D1078
:1005F8000E100F101010D8B43CD0010E056E0AD0A2
:10060800D89009360A360B360C360D360E360F36AC
:100618001036052A10AEF4D70950115C0A5012584A
:100628000B5013580C5014580D5015580E5016589E
:100638000F50175810501858D8A010D00950115EF4
:100648000A50125A0B50135A0C50145A0D50155A7E
:100658000E50165A0F50175A1050185AD890103278
:100668000F320E320D320C320B320A320932052E9D
:10067800D3D721EE11F1080E016EF80EDEC4E3F4B3
:10068800E828012EFBD712000501902B9005386E43
:10069800010E386430D092079229D8B429D09151EC
:1006A800020D5A0EF324D96E0D0EF420DA6E000EE8
:1006B800DE5C010EDE58D8A00CD09151020D5A0E06
:1006C800F324D96E0D0EF420DA6EDF500201B86FF4
:1006D8000CD09151020D5A0EF324D96E0D0EF42050
:1006E800DA6EDF501D6E25EC23F00501912B02D048
:1006F800916B926B906B0201C5A307D0B4C218FD31
:100708000D01196B0201C593556AB6A02CD0C551CD
:100718001F0E556401D0556AC5AD0ED0556A5550A7
:10072800020D180EF324D96E0D0EF420DA6E000EA9
:10073800DE6E010EDD6E0AD05550020D180EF32440
:10074800D96E0D0EF420DA6EDE6ADD6A5550020DA0
:10075800180EF324D96E0D0EF420DA6EB451DE268D
:10076800000EDD22552A000EE66EE66EE66E000EDD
:10077800E66E000EE66E000EE66E000EE66E4AECC1
:100788001CF01200FC0EE3C409F5010FE3C40AF5DE
:10079800010FE3C40BF5010FE3C40CF5F80EE3C435
:1007A80005F5010FE3C406F5010FE3C407F5010FD2
:1007B800E3C408F5000E0914356E000E0A14366EEF
:1007C800800E0B14376E7F0E0C14386E35503610B1
:1007D80037103810D8A404D0096A0A6A0B6A0C6A60
:1007E800000E0514356E000E0614366E800E0714C2
:1007F800376E7F0E0814386E3550361037103810A3
:10080800D8A404D0056A066A076A086A0CAE09D03B
:10081800096C0A1ED8B00A2A0B1ED8B00B2A800E03
:100828000C5608AE09D0056C061ED8B0062A071E5D
:10083800D8B0072A800E0856000E091A000E0A1AA8
:10084800000E0B1A800E0C1A000E051A000E061A5E
:10085800000E071A800E081A0550095C06500A583F
:1008680007500B5808500C58D8B002D0019001D04E
:10087800018048E9120041E8FF0EE36AFB0EE3C479
:1008880009F5010FE3C40AF5010FE3C40BF5010FE5
:10089800E3C40CF5F70EE3C405F5010FE3C406F550
:1008A800010FE3C407F5010FE3C408F50CAE0BD044
:1008B8000C1E0B1E0A1E096C000E0A220B220C22AB
:1008C800FF0EE36AE32A08AE08D0081E071E061EBC
:1008D800056C000E06220722082205500610071094
:1008E8000810D8B424D0010E0D6E06D0D890053665
:1008F8000636073608360D2A08AEF8D70550095CC3
:1009080006500A5807500B5808500C58D8A008D061
:100918000550095E06500A5A07500B5A08500C5ADF
:10092800D89008320732063205320D2EE7D7FF0E6F
:10093800E350D8B408D00C1E0B1E0A1E096C000E1A
:100948000A220B220C2209C501F50AC502F50BC5BE
:1009580003F50CC504F549E91200FE0EE3C4D9F409
:10096800010FE3C4DAF4FB0EE3C4DFF4FE0EE3C4C4
:1009780001F5010E015EFE0E01C5E3F4FF0EE3C4AE
:1009880001F5000E015AFF0E01C5E3F4FE0EE3C4A3
:10099800D9F4010FE3C4DAF40A0EE66EFC0EE35054
:1009A800E66E33EC16F00150300FDF6E0A0EE66E7D
:1009B800000EE66EFB0EE350E66E000EE66EE3EC0C
:1009C80007F0FD0E01C5E3F4FD0EE350D8B41BD0CB
:1009D800FE0EE3C401F5010E015EFE0E01C5E3F44F
:1009E800FF0EE3C401F5000E015AFF0E01C5E3F442
:1009F800FE0EE3C4D9F4010FE3C4DAF4FD0EE350AC
:100A0800300FDF6E19D0FE0EE3C401F5010E015E52
:100A1800FE0E01C5E3F4FF0EE3C401F5000E015A12
:100A2800FF0E01C5E3F4FE0EE3C4D9F4010FE3C4DD
:100A3800DAF4FC0EE3C4DFF445E9120007019F5124
:100A4800376EA051386E9F4BA02BB10E375C040E49
:100A58003858D8A003D09F6BA06B8D6B0B015451F5
:100A68005511D8B420D00601BF4BC02BC05104E1AA
:100A78002E0EBF5DD8A03DD0BF6BC06B07018D5156
:100A8800D8A40ED09D519E11D8A40AD09F6BA06BFC
:100A9800010E8C6F54CB9DF755CB9EF7010E8D6FD1
:100AA800010E8B6F26D00601BF4BC02BC05104E14D
:100AB8005B0EBF5DD8A01DD0050189511AE1460E15
:100AC800885DD8B016D00601BF6BC06B07018D5189
:100AD800D8A40ED09D519E11D8B40AD09F6BA06B9C
:100AE800010E8C6F54CB9DF755CB9EF7010E8D6F81
:100AF8008B6B0701A551D8B405D054CBADF555CBB8
:100B0800AEF504D00501AE6B050EAD6F050E0501FF
:100B1800986F1200070EC26EDE0EC16EBE6A020E1C
:100B2800C36E410EBF6E2A0EC06ECA6AF10ECB6E3E
:100B3800C668E00EC76ED10EC86E270EC96E200EAD
:100B48000401186FC00E106F800E086F206B286BA1
:100B580000698F0E196FF10E296F070E216F710E44
:100B6800096F016B310E116F226B2A6B026B010E3C
:100B78000A6F126B800E1A6F03690B6913691B6980
:100B8800070E236F2B6904690C6914691C690F0E21
:100B9800246F2C690F9D0E8D0D9DB00EE66E480ECC
:100BA800E66E000EE66E02EC22F09E8E180E020132
:100BB800746F0D0E6E6F310E146F200E126F350E9E
:100BC8000D6F260E2A6F100E726F280E766F230E89
:100BD8001F6F270E2B6F1A0E6D6F130E6A6F190E8B
:100BE8006F6F320E166F140E6B6F120043E8FE0E15
:100BF8000EC5E3F4050E0D6401D00D6AFE0EE35038
:100C0800D8B407D0900E0D24D96EDA6A080EDA220D
:100C1800DF6A900E0D24D96EDA6A080EDA22DF50E8
:100C2800386E0D50140D3D0EF324356EF50EF4207C
:100C3800366E38503524336E000E3620346E33C588
:100C4800F6F434C5F7F4000EF86E0800FF0EF5C48C
:100C5800E3F4FD0E0DC5E3F4FD0EE350140D3D0E57
:100C6800F3240D6EF50EF4200E6E30EC17F0FD0E29
:100C7800E350376E386A900E3724D96E080E382044
:100C8800DA6EDF2ADF50376E386A0150375C02505F
:100C98003858D8A00BD0FD0EE350376E386A900E46
:100CA8003724D96E080E3820DA6EDF6AFF0EE3C4E7
:100CB80001F543E91200FC0EE3C405F5010FE3C496
:100CC80006F5010FE3C407F5010FE3C408F507347F
:100CD8000834096E0950D8A406D0000E016E026AC5
:100CE800036A046A4AD005C535F506C536F507C551
:100CF80037F508C538F5356A38363536386A376A0B
:100D0800366A35500A6E078EFF0E0516FF0E061658
:100D1800FF0E0716000E0816960E095E09AE0DD0D6
:100D28000950800A970FD8A0D8D7D8900832073230
:100D380006320532093EF9D70DD01F0E096407D0D7
:100D4800CCD7D89005360636073608360906095036
:100D5800D8A4F7D70A50D8B408D0081E071E061E14
:100D6800056C000E06220722082205C501F506C5F6
:100D780002F507C503F508C504F544E9120044E87F
:100D8800F80EE3C409F5010FE3C40AF5010FE3C443
:100D98000BF5010FE3C40CF5FC0EE36A010FE36ADF
:100DA800010FE36A010FE36AF40EE3C405F5010FCE
:100DB800E3C406F5010FE3C407F5010FE3C408F522
:100DC8000550061007100810D8B42FD0010E0D6E6C
:100DD80006D0D89005360636073608360D2A08AEEE
:100DE800F8D7D890FC0EE336FD0EE336FE0EE33658
:100DF800FF0EE3360550095C06500A5807500B5899
:100E080008500C58D8A00AD00550095E06500A5A56
:100E180007500B5A08500C5AFC0EE380D890083241
:100E28000732063205320D2EDCD7FC0EE3C401F57D
:100E3800010FE3C402F5010FE3C403F5010FE3C496
:100E480004F54CE9120045E8F70EE3C435F5010F47
:100E5800E3C436F5010FE3C437F5010FE3C438F5F1
:100E6800FB0E35C5E3F4010F36C5E3F4010F37C5B2
:100E7800E3F4010F38C5E3F4FB0EE3C405F5FC0EFB
:100E8800E124D96EFF0EE220DA6EDF50386EFB0ED9
:100E980038C5E3F4FC0EE124D96EFF0EE220DA6EC9
:100EA80005C5DFF4FD0EE124D96EFF0EE220DA6EEF
:100EB800DF50386EFF0E38C5E3F4FE0EE124D96E1C
:100EC800FF0EE220DA6EFD0EE124E96EFF0EE2204D
:100ED800EA6EDFC4EFF4FE0EE124D96EFF0EE220C5
:100EE800DA6EFF0EE3C4DFF4FB0EE3C401F5010F75
:100EF800E3C402F5010FE3C403F5010FE3C404F5ED
:100F080049E91200056A066A2DC5D9F42EC5DAF436
:100F1800DEC4F6F4DDC4F7F4000EF86E0800F550F0
:100F28002A0AD8A436D02DC5D9F42EC5DAF4DE2A7B
:100F3800000EDD22020E2FC5D9F430C5DAF4DE5ECC
:100F4800000EDD5ADEC437F5DDC438F537C5D9F4EF
:100F580038C5DAF4DEC405F5DDC406F52BD005C5C1
:100F680037F506C538F50A0E3702F3C435F5F4C46B
:100F780036F53802F350362607503524056E000E34
:100F88003620066E2DC5D9F42EC5DAF4DE2A000EF9
:100F9800DD222DC5D9F42EC5DAF4DEC4F6F4DDC49D
:100FA800F7F4000EF86E0800F550D00F076E090E22
:100FB8000764D5D705C501F506C502F5120041E855
:100FC800FF0EE36AFB0EE3C405F5010FE3C406F563
:100FD800FD0EE3C407F5010FE3C408F506AE07D01C
:100FE800056C061ED8B0062AFF0EE36AE32A08AE8F
:100FF8000CD0076C081ED8B0082AFF0EE370FD0E4F
:1010080007C5E3F4010F08C5E3F4076A086AFD0E93
:10101800E3C40BF5010FE3C40CF505500610D8B472
:101028001CD0010E096E04D0D89005360636092A60
:1010380006AEFAD7D8900736083605500B5C06502E
:101048000C58D8A005D005500B5E06500C5A0780E6
:10105800D89006320532092EEDD7FF0EE350D8B4EA
:1010680004D0076C081ED8B0082A07C501F508C5C2
:1010780002F545E9120042E8FE0E15C5E3F4010F3A
:1010880016C5E3F417501810D8B404D01750181028
:10109800D8A406D0FE0EE3C415F525EC24F044D000
:1010A80020EE09F01750D9261850DA22DE50DE104B
:1010B800D8B416D020EE09F01750D9261850DA22E5
:1010C80000EE02F01750E9261850EA22DE50EE5CD6
:1010D800EE50800A016EDE50800A0158D8B024D044
:1010E80020EE02F01750D9261850DA22DEC437F560
:1010F800DDC438F517C5D9F418C5DAF4DEC435F5FA
:10110800DDC436F537503524D96E38503620DA6EBE
:10111800FE0EE3C4DFF420EE02F01750D926185073
:10112800DA22DE2A000EDD2242E91200F7C435F584
:10113800366A376A386A080ED89035363636373602
:101148003836E82EF9D7F8C431F5326A336A346A8A
:1011580032C534F531C533F5326A316A355031104C
:101168002D6E365032102E6E375033102F6E385089
:101178003410306EF6502D10056E2E50066E2F501E
:10118800076E3050086EFD0EE124D96EFF0EE22086
:10119800DA6EDEC409F5DEC40AF5DDC40BF50BC54D
:1011A800F8F40AC5F7F409C5F6F40900F5C409F519
:1011B8000A6A0800F550376E386A37C538F5376A55
:1011C8003750091238500A1207C5F8F406C5F7F463
:1011D80005C5F6F409C501F50AC502F543E912008B
:1011E800FC0EE3C409F5010FE3C40AF5010FE3C4DB
:1011F8000BF5010FE3C40CF5F80EE3C405F5010F78
:10120800E3C406F5010FE3C407F5010FE3C408F5CD
:10121800000E0914356E000E0A14366E800E0B147B
:10122800376E7F0E0C14386E355036103710381064
:10123800D8A404D0096A0A6A0B6A0C6A000E05145D
:10124800356E000E0614366E800E0714376E7F0E4C
:101258000814386E3550361037103810D8A404D01A
:10126800056A066A076A086A055009180AE10650FD
:101278000A1807E107500B1804E108500C18D8B4F5
:1012880002D0019001D0018048E91200FAC4E4F5C7
:10129800FBC4E5F51BEE64F301C5E6F405C5E6F409
:1012A80015C5E6F417C5E6F418C5E6F431C5E6F445
:1012B80032C5E6F433C5E6F434C5E6F435C5E6F4DC
:1012C80036C5E6F437C5E6F438C5E6F40601A75195
:1012D800A811A911D8B40CD001D80AD00500FA6E0B
:1012E800A751FD6EA851FE6EA951FF6EFA5012006B
:1012F800E552E5C438F5E5C437F5E5C436F5E5C487
:1013080035F5E5C434F5E5C433F5E5C432F5E5C48F
:1013180031F5E5C418F5E5C417F5E5C415F5E5C4D8
:1013280005F5E5C401F5E5C5FBF4E4C5FAF41100DB
:10133800FE0EE3C401F5010FE3500110D8B43DD00F
:10134800D0C5E6F4D1C5E6F4D2C5E6F4D3C5E6F4D3
:10135800000EE66E000EE66E800EE66E450EE66E38
:10136800F60EE3C437F5010FE3C438F53750316E94
:101378003850326E336A346A31C5E6F432C5E6F461
:1013880033C5E6F434C5E6F4000EE66E8EECF9F0EB
:1013980001C5E6F402C5E6F403C5E6F404C5E6F4BF
:1013A800C2ECD9F001C5E6F402C5E6F403C5E6F4DB
:1013B80004C5E6F4C1ECCDF008D0AC0E016EC50E44
:1013C800026E270E036E370E046E42E91200FE0EFF
:1013D800E3C401F5010FE3500110D8B43DD0C8C5EE
:1013E800E6F4C9C5E6F4CAC5E6F4CBC5E6F4000ED2
:1013F800E66E000EE66E800EE66E450EE66EF60EA2
:10140800E3C437F5010FE3C438F53750316E38506F
:10141800326E336A346A31C5E6F432C5E6F433C550
:10142800E6F434C5E6F4000EE66E8EECF9F001C57C
:10143800E6F402C5E6F403C5E6F404C5E6F4C2EC36
:10144800D9F001C5E6F402C5E6F403C5E6F404C51F
:10145800E6F4C1ECCDF008D0AC0E016EC50E026EFC
:10146800270E036E370E046E42E9120042E8FF0EA3
:1014780006C5E3F4FE0E05C5E3F40601DBA10CD0B6
:1014880007C50DF508C50EF5FE0EE3C40FF5010FEF
:10149800E3C410F56AEC14F00AAE02D0096A0A6ACD
:1014A8000B6A0C6A0DD0166A200E156EFE0EE3C488
:1014B80017F5010FE3C418F53FEC08F00B4A0C2AA6
:1014C80009500B5C0C50800A016E0A50800A0158C2
:1014D800D8A0E9D70601DBB10CD007C50DF508C5C2
:1014E8000EF5FE0EE3C40FF5010FE3C410F56AEC28
:1014F80014F007C50DF508C50EF530EC17F00950C6
:1015080001260A50022242E91200C084740E056EB8
:101518000A0E066E51C537F552C538F5030E372445
:10152800076E000E3820086E0A6A800E096EAEEC4F
:101538000FF0ECCAE6F4EDCAE6F4EECAE6F4EFCA38
:10154800E6F427EC07F001C5ECFA02C5EDFA03C58D
:10155800EEFA04C5EFFA000EE66E000EE66E7A0E9D
:10156800E66E440EE66EECCAE6F4EDCAE6F4EECAA0
:10157800E6F4EFCAE6F4010EE66E8EECF9F001C56A
:10158800E6F402C5E6F403C5E6F404C5E6F4C2ECE5
:10159800D9F001C570FA02C571FA03C572FA04C51B
:1015A80073FAC09412000601BB51BC11D8A405D02F
:1015B800BBC605F5BCC606F50AD0BBC637F5BCC622
:1015C80038F5FF0E3724056EFF0E3820066EDBA1B6
:1015D80009D02FC515F5166A2DC517F52EC518F5AE
:1015E8003FEC08F006AE02D0056A066A076A086A88
:1015F8000BD0166A200E156E2DC517F52EC518F5D9
:101608003FEC08F0074A082A0550075C0850800A92
:10161800016E0650800A0158D8A0EBD70601DBB14D
:1016280009D02FC515F5166A2DC517F52EC518F55D
:101638003FEC08F0010E0724016E000E0820026E30
:101648001200000E5C24D96EDA6A120EDA22DF6A02
:101658000201B2A714D0000E5C24D96EDA6A120E09
:10166800DA22DF8201D80BD00500FA6E07017D511E
:10167800FD6E7E51FE6E7F51FF6EFA501200020120
:10168800B2A314D0000E5C24D96EDA6A120EDA22E4
:10169800DF8401D80BD00500FA6E07017A51FD6E80
:1016A8007B51FE6E7C51FF6EFA501200000E5C24D6
:1016B800D96EDA6A120EDA22DF50D8B40DD001D80A
:1016C80012000500FA6E07017751FD6E7851FE6E23
:1016D8007951FF6EFA501200B8EC22F01200000E99
:1016E8005824D96EDA6A130EDA22DF6A0201D8A703
:1016F80014D0000E5824D96EDA6A130EDA22DF826B
:1017080001D80BD00500FA6E07017451FD6E7551B2
:10171800FE6E7651FF6EFA5012000201D8A314D063
:10172800000E5824D96EDA6A130EDA22DF8401D843
:101738000BD00500FA6E07017151FD6E7251FE6EF5
:101748007351FF6EFA501200000E5824D96EDA6AEF
:10175800130EDA22DF50D8B40DD001D812000500DC
:10176800FA6E07016E51FD6E6F51FE6E7051FF6E7D
:10177800FA501200A2EC20F01200180E0B01906F24
:10178800190E916F570E926F936B94699569060EB7
:10179800176E900E156E0B0E166E56EC0EF0180E98
:1017A8000B019319D8A408D0190E9419D8A404D001
:1017B800570E9519D8B403D0000E016E1200030E0F
:1017C800176EDA0E156EF70E166E56EC0EF0030E47
:1017D800176EF70E156E060E166E56EC0EF0030E0B
:1017E800176ED70E156EF70E166E56EC0EF0030E2A
:1017F800176ED40E156EF70E166E56EC0EF0030E1D
:10180800176ED10E156EF70E166E56EC0EF0010E11
:10181800016E1200F80EE3C405F5010FE3C406F5E6
:10182800010FE3C407F5010FE3C408F5FC0EE3C498
:1018380009F5010FE3C40AF5010FE3C40BF5010F25
:10184800E3C40CF50550061007100810D8B424D0CE
:10185800010E0D6E06D0D8900536063607360836C6
:101868000D2A08AEF8D70550095C06500A580750EB
:101878000B5808500C58D8A008D00550095E0650DF
:101888000A5A07500B5A08500C5AD8900832073297
:10189800063205320D2EE7D709C501F50AC502F54E
:1018A8000BC503F50CC504F548E9120044E8056AC0
:1018B800066A076A086A16D005C535F506C536F5FD
:1018C80007C537F508C538F5052A000E0622072290
:1018D80008223850371033E1100E355C270E365881
:1018E800D8B02DD0050160B7E7D7FC0EE36A010F29
:1018F800E36A010FE36A010FE36A1DD0FC0EE124DD
:10190800D96EFF0EE220DA6EDFC435F5DE2ADEC4BA
:1019180036F5DEC437F5DDC438F5DD52000EDE22BB
:10192800DE22DF22385037100AE1100E355C270E10
:101938003658D8B004D0000187ABE0D7BF9644E949
:101948001200FC0EE3C40DF5010FE3C40EF5010F00
:10195800E3C40FF5010FE3C410F5010E056E000E88
:10196800066E000E076E000E086E030158511F0B1D
:10197800386E382805D0D89005360636073608362A
:10198800E82EF9D7096A0A6A0B6A0C6A14D00DA006
:1019980008D00550091206500A1207500B120850B9
:1019A8000C12D8900832073206320532D89010321D
:1019B8000F320E320D320D500E100F101010D8A429
:1019C800E6D709C501F50AC502F50BC503F50CC52F
:1019D80004F544E912005700000000000057000019
:1019E80000000000000000000000000000000000EF
:1019F80000000000000000000000000000000000DF
:101A080000000000000000000000000000000000CE
:101A180000000000000000000000000000000000BE
:101A280000000000000000000000000000000000AE
:101A3800000000000000000000000000000300009B
:101A4800000000000000000000100000000000007E
:101A5800000000000000000000000000000000007E
:101A680000000000000043E8FD0E1DC5E3F4FE0E73
:101A78001EC5E3F405019551D8A43BD012D0FF0E42
:101A8800E36AE38C1DD0FF0EE36AE384E38818D091
:101A9800540E386EFF0E38C5E3F412D0FF0EE36A19
:101AA8000FD0FD0EE350000AD8B4F8D7010AD8B415
:101AB800E6D7030AD8B4E7D7010AD8B4E9D7EED7EE
:101AC800FE0EE3C438F5FF0EE3503824256EB9EC5A
:101AD80012F0900EE66E010EE66E000EE66E000E37
:101AE800E66EE8EC16F01FC525F520C526F59DEC39
:101AF80011F043E91200A790E60EE66E160EE66EA8
:101B0800000EE66E14EC21F0A792620EE66E3D0E12
:101B1800E66E000EE66E06EC21F00201CB6BCD6B93
:101B2800CF6BB00ED16F800ED26F020ED36F820EC4
:101B3800D46F060ED56FD66BD76BD86BD96BCE0E1C
:101B4800E66E480EE66E000EE66E30EC21F0CC0E26
:101B5800E66E480EE66E000EE66E22EC21F0860E6A
:101B6800E66E480EE66E000EE66E3EEC21F00601CB
:101B7800F46B596A0501A06B400E9F6F586A576A4B
:101B88009E6BA7801200A2904A0EE66E160EE66EB5
:101B9800000EE66E5AEC21F0A292940EE66E3E0E0E
:101BA800E66E000EE66E4CEC21F00201A56BA66B0A
:101BB800A76BA86BA96BAA6BB00EAB6F800EAC6F4E
:101BC800AD6B8A0EAE6FAF6BB06BB16BB26BB36BB4
:101BD800B40EE66E480EE66E000EE66E76EC21F068
:101BE800B20EE66E480EE66E000EE66E68EC21F068
:101BF8007A0EE66E480EE66E000EE66E84EC21F074
:101C08000601F66B5F6A5E6A400E5D6E5C6A5B6A2F
:101C18005A6AA280120043E8FD0E1FC5E3F4FF0EC6
:101C28001EC5E3F4FE0E1DC5E3F45AEC0CF0C186A4
:101C3800C292010E05017027000E712372237323CF
:101C4800FD0EE3C401F5080E016401D028D0B70EDB
:101C5800056E0D0E066EFE0EE3C407F5010FE3C414
:101C680008F5FD0EE350096E0A6AAEEC0FF0B70EE8
:101C78001D6E0D0E1E6EFD0EE3501F6E206AF1ECF8
:101C880018F066C505F567C506F5B70E076E0D0EA3
:101C9800086EFD0EE350096E0A6AAEEC0FF0C282C0
:101CA80043E9120043E8FD0E17C5E3F4FF0E16C51D
:101CB800E3F4FE0E15C5E3F45AEC0CF0C186C290AD
:101CC800010E05017027000E712372237323FD0E88
:101CD800E3C401F5080E016401D028D0EC0E056EAE
:101CE800090E066EFE0EE3C407F5010FE3C408F5FE
:101CF800FD0EE350096E0A6AAEEC0FF0EC0E1D6E95
:101D0800090E1E6EFD0EE3501F6E206AF1EC18F0EE
:101D1800900E056E0B0E066EEC0E076E090E086E21
:101D2800FD0EE350096E0A6AAEEC0FF0C28043E97B
:101D38001200A790E60EE66E160EE66E000EE66E30
:101D480014EC21F0A792620EE66E3D0EE66E000ED0
:101D5800E66E06EC21F00201CB6BCD6BCF6BB00EBB
:101D6800D16F800ED26F020ED36F8A0ED46FD56BEF
:101D7800D66BD76BD86BD96BCE0EE66E480EE66E77
:101D8800000EE66E30EC21F0CC0EE66E480EE66EE4
:101D9800000EE66E22EC21F0860EE66E480EE66E28
:101DA800000EE66E3EEC21F00601F46B596A05015F
:101DB800A06B400E9F6F586A576A9E6BA7801200EF
:101DC8000301F96B170EFA6FD86BFB6BD96BDA6BE3
:101DD800DB6BDC6BDF6BE06BE36BE46BE56BE66B9B
:101DE800E76BEA6BEB6BEC6B140EEE6FEF6B1F0E91
:101DF800F06FF16BF26BF36B010EF46F100EF56F71
:101E0800F66BF76B020EF86FFC6BAF94AF96B09061
:101E1800BC0EE66E480EE66E000EE66E9CEC22F0F6
:101E2800C00EE66E480EE66E000EE66E80EC22F0FE
:101E3800BE0EE66E480EE66E000EE66E8EEC22F0E2
:101E4800840E0301F36F12009D0E156EF70E166EC9
:101E5800186A000E176E04ECECF001C5FCF702C519
:101E6800FDF703C5FEF704C5FFF766C5D9F467C5D6
:101E7800DAF4DFA60AD0010E0601E66F010E0901A9
:101E8800BE27000EBF23C023C123FCC735F5FDC7FD
:101E980036F5FEC737F5FFC738F5D89038323732F0
:101EA80036323532FF0E35140901B26FFF0E361483
:101EB800B36FFF0E3714B46F000E3814B56F010EF0
:101EC800C227000EC323C423C52347E9120044E8F0
:101ED800FD0E1EC5E3F4FC0E1DC5E3F4FF0E20C580
:101EE800E3F4FE0E1FC5E3F40601B96BBA6B1BD011
:101EF800FC0EE3C425F5010FE3C426F5FE0EE1242C
:101F0800376EFF0EE220386E37C527F538C528F53D
:101F180021C529F522C52AF56AECB9F00150060158
:101F2800B9270250BA23FE0EE124D96EFF0EE22033
:101F3800DA6EDEC4F6F4DDC4F7F4000EF86E0800BD
:101F4800F5500009D8A4D4D7B9C601F5BAC602F528
:101F580044E9120042E8FF0E08C5E3F4FE0E07C587
:101F6800E3F405C50BF506C50CF52BD0FE0EE3C44E
:101F7800F6F4010FE3C4F7F4000EF86E3F0EF764B1
:101F880003D00800F55005D0F6C4E9F4F7C4EAF424
:101F9800EF500D6EFE0EE350010F016EFE0E01C5EF
:101FA800E3F4016AFF0EE3500120016EFF0E01C544
:101FB800E3F40BC5D9F40CC5DAF40DC5DFF40B4A0C
:101FC8000C2A0906D8A00A060928D0E10A28D8A4AC
:101FD800CDD742E91200FC0EE3C409F5010FE3C4B2
:101FE8000AF5010FE3C40BF5010FE3C40CF5F80E75
:101FF800E3C40DF5010FE3C40EF5010FE3C40FF5BB
:10200800010FE3C410F5056A066A076A086A09A0A1
:1020180008D00D5005260E5006220F5007221050EA
:102028000822D8900D360E360F361036D8900C325E
:102038000B320A32093209500A100B100C10D8A4BE
:10204800E6D705C501F506C502F507C503F508C5B8
:1020580004F548E912000701A951D8B418D0A96BB2
:10206800A16BA26BFF0EE350D8B409D0530E156EC6
:1020780066EC20F0020E1D6E8DEC18F008D0530EA1
:10208800156E66EC20F0080E1D6E8DEC18F0070139
:10209800A151376EA251386EA14BA22B385004E1E2
:1020A800100E375CD8A014D0A16BA26B530E156E1E
:1020B80066EC20F00501AD51AE11D8A405D0010E93
:1020C8001D6E8DEC18F004D0020E1D6E8DEC18F00C
:1020D80041E9120041E8096A06AE06D0056C061E01
:1020E800D8B0062A010E096E08AE04D0076C081E87
:1020F800D8B0082AFF0E09C5E3F407500810D8B471
:1021080018D0010E096E04D0D89007360836092A6F
:1021180008AEFAD70750055C08500658D8A004D076
:102128000750055E0850065AD89008320732092E23
:10213800F1D7FF0EE3C409F50950D8B404D0056CF3
:10214800061ED8B0062A05C501F506C502F541E9FF
:1021580012000668056822D025C5D9F426C5DAF428
:10216800DF500618076E254A262AF50E0724F66E54
:10217800F76AF00EF722F86A000EF8220800F55008
:102188000518066EF50E0724F66EF76AEF0EF722AD
:10219800F86A000EF8220800F5C405F52706D8A04D
:1021A80028062728D9E12828D8A4D6D7055006C557
:1021B80001F5026A01C502F5016A0110076E0250B5
:1021C800086E07C501F508C502F5120000000000F9
:1021D80000000000000000000000000000000000F7
:1021E80000000000001000000000000000000100D6
:1021F80001000000000000000000000000000000D6
:1022080000000000000000000000000000000000C6
:1022180000000000000000000000000000000000B6
:1022280000000100000000000000000000000000A5
:102238000000000000000001000000000000000095
:10224800A507000020EE03F01D50D9261E50DA2203
:10225800DEC437F5DDC438F537501F24356E3850E5
:102268002020366EFE0E3524D96EFF0E3620DA6E2B
:10227800DF50376E386A37C538F5376A20EE03F015
:102288001D50D9261E50DA22DEC435F5DDC436F5D8
:1022980035501F24336E36502020346EFF0E332401
:1022A800D96EFF0E3420DA6EDF503710056E3850C5
:1022B800066E05C501F506C502F51200010E0001FE
:1022C800E86F800EF96F000EFA6F000EFB6F0E0EAE
:1022D800F16F7C0EF06F400EFD6FF86B010EF76F1B
:1022E800EF6B080EEE6FFF6BFE6BB49AB498B49E5A
:1022F800B49CA48ACA0EE66E480EE66E000EE66E20
:1023080056EC22F0A488CA0EE66E480EE66E000E61
:10231800E66E3AEC22F0A49EA48CCA0EE66E480E35
:10232800E66E000EE66E48EC22F0800E0001FC6FAF
:10233800120041E825C50DF526C50EF530EC17F05D
:10234800FF0E01C5E3F45AEC0CF01FEC24F0C19623
:10235800FF0EE3C401F5140E016404D0FF0EE36A16
:10236800E384E38864C505F565C506F525C507F565
:1023780026C508F5FF0EE350096E0A6AAEEC0FF0A9
:102388000001E86BFC9FFF0EE3502D6E2E6AA0EC57
:1023980023F02E6A010E2D6EA7EC23F0FC8F22ECA1
:1023A80024F041E912001DC5D9F41EC5DAF4DEC4D3
:1023B800E6F4DEC4E6F4DEC4E6F4DEC4E6F41FC5E3
:1023C80025F520C526F54CECC5F002AE05D0000E6B
:1023D800016E000E026E120020EE10F01F50D9267A
:1023E8002050DA22DE6ADD6A20EE12F01F50D9266C
:1023F8002050DA22DE6ADE6ADE6ADD6A20EE16F036
:102408001F50D9262050DA22F70EDE6EFF0EDD6E41
:102418001FC501F520C502F51200020E0001E86F84
:10242800800EF96F000EFA6F000EFB6F0E0EF16F43
:102438009C0EF06FFD6BF86B010EF76FEF6B030EE0
:10244800EE6FFF6BFE6BB89AB898B89EB89CA88AD6
:10245800C80EE66E480EE66E000EE66E2CEC22F014
:10246800A888C80EE66E480EE66E000EE66E10EC02
:1024780022F0A89EA88CC80EE66E480EE66E000EE6
:10248800E66E1EEC22F0800E0001FC6F120041E89F
:10249800D68AD6AE03D0386A382A01D0386AFF0EF9
:1024A80038C5E3F4D69E550E0401596FAA0E596F2C
:1024B80059915F6B5E6B080E5D6F550E596FAA0ED2
:1024C800596F5981FF0EE3B002D0D69E01D0D68E47
:1024D8000301688B6889688D678567816489648D65
:1024E8006C8B6C896C8D628F6B836B816683668164
:1024F800658F71876A896D976799658941E91200C7
:102508000001E86BBC0E376E0E0E386E37C5F9F059
:1025180038C5FAF0FB6BF16B810EF06F020EFD6FA0
:10252800F86B010EF76FEF6B010EEE6F190EFF6F70
:10253800FE6BB09AB098B09EB09CA09AA088B80ED6
:10254800E66E480EE66E000EE66E64EC22F0A09E83
:10255800A08CB80EE66E480EE66E000EE66E72ECC3
:1025680022F0C00E0001FC6F120041E8FF0E25C5E5
:10257800E3F45AEC0CF01FEC24F0C19664C5D9F4CE
:1025880065C5DAF4FE0EDF6E20EE01F06451D9263F
:102598006551DA22450EDF6E20EE02F06451D9262D
:1025A8006551DA22FF0EE3C4DFF40001E86BFC9FFB
:1025B8002E6A030E2D6EA0EC23F02E6A010E2D6EEE
:1025C800A7EC23F0FC8F22EC24F041E9120042E84A
:1025D800FE0E0DC5E3F4010F0EC5E3F4FF0EE12472
:1025E800D96EFF0EE220DA6EDF500601F86FF96B44
:1025F800FE0EE3C437F5010FE3C438F5FF0E3714B8
:10260800356E366A35C536F5356A000E3514376EBF
:10261800FF0E3614386E3750F8133850F913030E7E
:10262800176EF70E156E060E166E56EC0EF042E992
:10263800120044E8FC0E25C5E3F4010F26C5E3F4B7
:10264800FC0EE3C401F5FE0E01C5E3F4FD0EE3C480
:1026580001F5FF0E01C5E3F4FE0EE3C405F5FF0E18
:10266800E124D96EFF0EE220DA6EDF50386EFE0EDE
:1026780038C5E3F4FF0EE124D96EFF0EE220DA6ECE
:1026880005C5DFF4FE0EE3C401F5010FE3C402F54E
:1026980044E9120015C505F516C506F517D0190643
:1026A800D8A01A0617C5F6F418C5F7F4174A182A59
:1026B800000EF86E05C5D9F406C5DAF4054A062AEF
:1026C8000800F5C4DFF4DF50D8B40CD019501A1044
:1026D800D8B408D0E4D705C5D9F406C5DAF4DF6A5A
:1026E800054A062A1906D8A01A061928F4E11A2854
:0626F800D8B41200F0D777
:10270000D8C4FAF5FAC4FBF5FBC4FCF51CEE32F3B1
:102710000DC5E6F40EC5E6F4B398D3C60DF5D4C6E0
:102720000EF584EC20F00601775178117911D8B4B8
:102730000CD001D80AD00500FA6E7751FD6E7851A1
:10274000FE6E7951FF6EFA501200E552E5C40EF5A7
:10275000E5C40DF5FCC5FBF4FBC5FAF4FAC5D8F4E5
:1027600011004BEC12F00FEC23F0E4EC0EF08EECC9
:1027700005F0ECEC22F062EC11F084EC12F020ECAD
:102780001FF0E0EC22F0B4EC19F00AEC1FF011ECB1
:1027900012F0BEEC17F0CDEC23F09BEC17F0E1EC5F
:1027A00017F0C7EC0DF07FEC0DF0E0EC13F0D3EC7C
:1027B00022F095EC15F050EC1DF0AEEC23F0120079
:1027C0000201B86BB96BBA6BBB6BBC6BBD6BB40E63
:1027D000BE6F800EBF6FC06B820EC16F060EC26FE0
:1027E000C36BC46BC56BC66B000EE66E000EE66E67
:1027F000000EE66E48EC24F0000EE66E000EE66E6B
:10280000000EE66E46EC24F0000EE66E000EE66E5C
:10281000000EE66E4AEC24F00601F56B1200000E85
:102820000501846F1A0E856F84C537F585C538F5A7
:10283000030E3724826F000E3820836F84C537F56E
:1028400085C538F5030E3724806F000E3820816F60
:10285000200EE66E470EE66E000EE66EAEEC21F040
:1028600013EC24F0540EE66E450EE66E000EE66E96
:10287000BCEC21F019EC24F0120042E8FE0E1DC55C
:10288000E3F4010F1EC5E3F4FE0EE3C425F5010FCA
:10289000E3C426F5286A0A0E276ED0EC18F001C5AD
:1028A00005F502C506F535EC20F001C5C7F602C5F1
:1028B000C8F6FE0EE3C425F5010FE3C426F5286A29
:1028C0000A0E276EE5EC15F001C5CBF602C5CCF675
:1028D00042E9120043E8056A066A12D0FF0EE3508F
:1028E000156E166A0FC517F510C518F53FEC08F000
:1028F000FD0EE3C405F5010FE3C406F5054A062AFB
:10290000FD0E05C5E3F4010F06C5E3F405500D24E3
:10291000D96E06500E20DA6EDF50386EFF0E38C5C5
:0E292000E3F4FF0EE350D8A4D9D743E9120028
:10293000FAC445F5FBC446F51BEE64F30DC5E6F499
:102940000EC5E6F438C5E6F4B698D9C60DF5DAC674
:102950000EF593EC20F00601D74BD82BD85104E1AB
:10296000320ED75DD8A005D0CFEC1FF00601D76B93
:10297000D86BE552E5C438F5E5C40EF5E5C40DF5B0
:1029800046C5FBF445C5FAF4110000C041459A99CB
:10299000494100000000000096439A994941000017
:1029A00000400000000000000000000000000000E7
:1029B0000000000000000000000000000000000017
:1029C00010000000000000000000000000000000F7
:1029D00000000000000000000000000000000000F7
:0129E00000F6
:1029E200FC0EE3C405F5010FE3C406F5010FE3C4D1
:1029F20007F5010FE3C408F508BE09D005C501F5C6
:102A020006C502F507C503F508C504F511D005C5CD
:102A120001F506C502F507C503F508C504F5011E53
:102A2200021E031E041E012A000E02220322042299
:042A320044E9120061
:102A3800FAC4F8F5FBC4F9F51BEE64F30DC5E6F42A
:102A48000EC5E6F4B198D1C60DF5D2C60EF5B1ECB7
:102A580020F00601CF4BD02BD05104E1020ECF5D00
:102A6800D8A005D0F3EC1FF00601CF6BD06BE55270
:102A7800E5C40EF5E5C40DF5F9C5FBF4F8C5FAF49F
:102A8800110042E8FF0E0EC5E3F4FE0E0DC5E3F497
:102A980030EC23F00150D8B41AD007019751376EA3
:102AA8009851386E974B982B410E375C1F0E38584B
:102AB800D8A00DD0080E176EFE0EE3C415F5010F51
:102AC800E3C416F57CEC16F00701976B986B42E9A6
:102AD8001200FF0EE350030B800DF3C437F5F4C466
:102AE80038F5000E356E020E366EFE0EE3C434F570
:102AF800030E341634503502F3C431F5F4C432F5FC
:102B08003602F3503226FA0E3124356E1B0E32206F
:102B1800366E37503524016E38503620026E42E941
:102B28001200070E0301586F070E596F5751F30B28
:102B38000809576F566B556B546BD50E536FF30ED0
:102B48005717566B556B546B536B526B516B506BDD
:102B58004F6B3F0E5F6F5E695D695C6B5B6B5A6BB9
:102B6800616BBD94AD94B69EA69E900E576F606B38
:102B78001200BFA402D0010E01D0000EFF0A386E69
:102B880038463846BF503818FB0B3818BF6EBF920E
:102B9800BF962AEE86F1DE2A000EDE22DE22DE2233
:102BA800010E0701896F21EEB3F3DFC438F5010E7A
:102BB800DF26050E3864120056EC20F00701B36BCF
:102BC8001200056A066A27502810D8B41CD0010ED6
:102BD800076E04D0D89027362836072A28AEFAD7A9
:102BE800D890053606362750255C28502658D8A098
:102BF80005D02750255E2850265A0580D8902832BF
:102C08002732072EEDD705C501F506C502F51200D6
:102C18001DC525F51EC526F51FC527F520C528F5B0
:102C2800ADEC10F001C509F502C50AF51F501D24C9
:102C3800D96E20501E20DA6E0AC5DFF41F4A202AFA
:102C48001F501D24D96E20501E20DA6E09C5DFF4EE
:102C58001F4A202A1FC501F520C502F5120041E8C8
:102C6800FD0EE3C406F5FF0EE36AE386FE0EE3C439
:102C780007F5056AD89007340534056ED8900736ED
:102C88000650055CD8A002D00650055EFF0EE35042
:102C9800016E010E015EFF0E01C5E3F4D8A4EAD768
:102CA80005C501F543E9120043E8FD0E15C5E3F437
:102CB800FE0E17C5E3F4010F18C5E3F4FE0EE3C4D6
:102CC80037F5010FE3C438F5D8903734356E38340A
:102CD800366EFD0EE350020D900EF324D96E090EE8
:102CE800F420DA6E35C5DEF436C5DDF443E91200AA
:102CF80041E8FF0E17C5E3F405019251D8A41AD094
:102D08005A0E056E0D0E066E15C507F516C508F5A3
:102D1800FF0EE3C438F5D8903834096E0A6A0A36CB
:102D2800AEEC0FF00501916BFF0EE3C492F5010EB6
:102D38000701A66F41E91200570E056E0001919F29
:102D4800540EE66E930EE66E010EE66EE6EC21F08A
:102D5800740EE66E460EE66E000EE66EF4EC21F09A
:102D680002D08DC005F5000194A7FBD705C502F96F
:102D780094979383918F000E156E10EC24F0120037
:102D8800000E516E190E526E51C537F552C538F501
:102D9800030E37240501866F000E3820876F200E3A
:102DA800E66E470EE66E000EE66EAEEC21F013EC12
:102DB80024F0540EE66E450EE66E000EE66EBCEC90
:102DC80021F019EC24F01200056A066A076A086AFD
:102DD80000000000010E0526000E06220722082228
:102DE800FC0EE3C401F50550015CFD0EE3C401F5DA
:102DF80006500158FE0EE3C401F507500158FF0EB6
:102E0800E3C401F508500158D8B0E2D744E91200EC
:102E180044E8FC0E1DC5E3F4010F1EC5E3F4FE0EE5
:102E28001FC5E3F4010F20C5E3F4FC0EE3C4E9F881
:102E3800010FE3C4EAF8FE0EE3C4E7F8010FE3C4A8
:102E4800E8F8010E0801F327000EF423F523F62312
:102E5800E54BE62B44E912000DC505F50EC506F550
:102E680002D00D4A0E2A0DC5F6F40EC5F7F4000E71
:102E7800F86E3F0EF76403D00800F55005D0F6C48D
:102E8800E9F4F7C4EAF4EF500009D8A4EAD70DC56D
:102E980001F50EC502F50550015E0650025A1200F2
:102EA800FC0EE3C405F5010FE3C406F5010FE3C406
:102EB80007F5010FE3C408F50550061007100810C0
:102EC800D8B408D0000E051A000E061A000E071A0C
:102ED800800E081A05C501F506C502F507C503F5F4
:102EE80008C504F544E91200000E4F6E1B0E506E23
:102EF8004FC537F550C538F5030E37244D6E000E13
:102F080038204E6E200EE66E470EE66E000EE66E18
:102F1800AEEC21F013EC24F0540EE66E450EE66E8E
:102F2800000EE66EBCEC21F019EC24F0120003014F
:102F3800376B386B010E396F630E356FC00E346F07
:102F4800B698345135C301F5026A01C502F5016A24
:102F580001100601D96F0250DA6FA688BA0EE66E24
:102F6800480EE66E000EE66EA0EC21F0310E03016D
:102F7800366F120003012B6B2C6B010E2D6FF00EB8
:102F8800296F600E286FB398285129C301F5026A8A
:102F980001C502F5016A01100601D36F0250D46F12
:102FA800A388AC0EE66E480EE66E000EE66EBCEC2C
:102FB80021F0330E03012A6F120003011F6B206BEF
:102FC800050E216F0B0E1D6FDC0E1C6FB1981C5186
:102FD8001DC301F5026A01C502F5016A0110060167
:102FE800D16F0250D26FA188D00EE66E480EE66E01
:102FF800000EE66ECAEC21F0310E03011E6F1200BE
:10300800D8C4FDF5FAC4FEF5FBC4FFF51CEE32F397
:10301800B9960601745175117611D8B40CD001D83F
:103028000AD00500FA6E7451FD6E7551FE6E765128
:10303800FF6EFA501200E552FFC5FBF4FEC5FAF424
:10304800FDC5D8F41100000ED6BE010E056E380E6F
:103058000001456F16C544F015C543F017C546F085
:103068004151F80B0309416FD69E550E426FAA0EC7
:10307800426F408140B1FED705B002D0D69E01D044
:10308800D68EF80E000141171200C084B60E056EE8
:10309800080E066E51C537F552C538F5030E3724AC
:1030A800076E000E3820086E0A6A100E096EAEEC24
:1030B8000FF00801C36BC4C825F5C5C826F51DEC7B
:1030C80013F001C5C4F802C5C5F8C094120041E860
:1030D800FF0E15C5E3F405019F51D8B4FCD7FF0EC8
:1030E800E3C415F5A7B203D015C5C9F20FD0A7924E
:1030F800000E5924D96EDA6A0F0EDA2215C5DFF4EC
:10310800592A3F0E596401D0596A9F07A78241E99D
:10311800120041E8FF0E1DC5E3F45AEC0CF01FEC59
:1031280024F0C19664C5D9F465C5DAF4FF0EE3C48A
:10313800DFF40001E86BFC9F2E6A010E2D6EA0ECF7
:1031480023F02E6A010E2D6EA7EC23F0FC8F22ECE3
:1031580024F041E912000F0E0B0154150601C56F4A
:10316800C66B030EC519C611D8A406D0010E0701F7
:10317800A56F0601EB6B0CD0EB2BEB05386E030E3D
:10318800386406D00701A56B0501AE6B050EAD6F5F
:10319800010E0501986F120027502810D8B418D0D6
:1031A800010E056E04D0D89027362836052A28AE99
:1031B800FAD72750255C28502658D8A004D0275085
:1031C800255E2850265AD89028322732052EF1D766
:1031D80025C501F526C502F512001DC505F51EC554
:1031E80006F513D0010E0001826F05C5D9F406C596
:1031F800DAF4DF50816FB1A0FED705C5D9F406C552
:10320800DAF480C0DFF4054A062A1F06D8A0200693
:103218001F28E8E12028D8B41200E4D741E8FF0EBF
:1032280015C5E3F45D50D8B4FDD7FF0EE3C415F51A
:10323800A2B203D015C5A3F20FD0A292000E5F244C
:10324800D96EDA6A0E0EDA2215C5DFF45F2A3F0E50
:103258005F6401D05F6A5D06A28241E91200FC2525
:10326800FC23000000000011D0050500800080004C
:10327800800007571901110120000000000000001C
:1032880000000000000080804200000000008080F4
:0F32980042E5612140CD0C054300030057194268
:1032A800040E1F6E910E1D6EF70E1E6E0FEC0EF0C3
:1032B8001E6A0A0E1D6EF4EC19F0040E1F6E910EB4
:1032C8001D6EF70E1E6E0FEC0EF01E6A0A0E1D6EB6
:1032D800F4EC19F00901AA6BAB6BAC6BAD6B120087
:1032E800C084FA0E056E060E066E51C537F552C536
:1032F80038F5030E3724076E000E3820086E0A6A68
:10330800020E096EAEEC0FF0FAC625F5FBC626F5DF
:103318001DEC13F001C5FAF602C5FBF6C0941200C5
:1033280005019E51D8B4FCD7000E5724D96EDA6A2D
:10333800130EDA22DF500601F46F000E5724D96EFF
:10334800DA6A180EDA22DF50056E572A5728D8B4E1
:10335800576AA79005019E07A78005C501F51200C9
:103368004D0E03011B6F1B0E196F1E0E186F18519F
:1033780019C301F5026A01C502F5016A0110536E0D
:103388000250546EB19EA18EC60EE66E480EE66ED1
:10339800000EE66ED8EC21F0900E03011A6F1200B1
:1033A800010E0801FF6FC7C2E0F6EF515124D96E34
:1033B800F0515220DA6EE0C6DFF4010EEF27000E5E
:1033C800F023F123F223F251F111F01104E1FA0E86
:1033D800EF5DD8A01200EF6BF06BF16BF26B12008F
:1033E80042E8FE0E1DC5E3F4010F1EC5E3F4000E0E
:1033F800156EFE0EE3C417F5010FE3C418F558EC7B
:1034080016F004D00000000000000000000E156E49
:0E3418009AEC1EF00150D8B4F5D742E912002C
:10342800FAC43FF5FBC440F51BEE64F301C5E6F4AE
:1034380005C5E6F41DC5E6F438C5E6F4BD96BDEC51
:103448001FF0E552E5C438F5E5C41DF5E5C405F5FA
:0E345800E5C401F540C5FBF43FC5FAF41100D0
:10346800FAC441F5FBC442F51BEE64F3B0980601BB
:103478009E519F11A011D8B40CD001D80AD00500D4
:10348800FA6E9E51FD6E9F51FE6EA051FF6EFA506E
:0E3498001200E55242C5FBF441C5FAF41100E2
:1034A800FAC443F5FBC444F51BEE64F3B09C060173
:1034B8009B519C119D11D8B40CD001D80AD005009D
:1034C800FA6E9B51FD6E9C51FE6E9D51FF6EFA5037
:0E34D8001200E55244C5FBF443C5FAF411009E
:1034E800FAC447F5FBC448F51BEE64F3AF94060134
:1034F800955196119711D8B40CD001D80AD005006F
:10350800FA6E9551FD6E9651FE6E9751FF6EFA5008
:0E3518001200E55248C5FBF447C5FAF4110055
:10352800FAC449F5FBC44AF51BEE64F3AF960601ED
:103538008F5190119111D8B40CD001D80AD0050040
:10354800FA6E8F51FD6E9051FE6E9151FF6EFA50DA
:0E3558001200E5524AC5FBF449C5FAF4110011
:10356800FAC44BF5FBC44CF51BEE64F3B0900601AE
:10357800925193119411D8B40CD001D80AD00500F7
:10358800FA6E9251FD6E9351FE6E9451FF6EFA5091
:0E3598001200E5524CC5FBF44BC5FAF41100CD
:1035A800FAC4E6F5FBC4E7F51BEE64F3B19E54C517
:1035B80019F353C518F30601D54BD62BD65104E1A0
:1035C800040ED55DD8A005D0E1EC1FF00601D56B3F
:0E35D800D66BE552E7C5FBF4E6C5FAF4110028
:1035E800FAC4E8F5FBC4E9F51BEE64F3B4980601E8
:1035F80089518A118B11D8B40CD001D80AD0050092
:10360800FA6E8951FD6E8A51FE6E8B51FF6EFA502B
:0E3618001200E552E9C5FBF4E8C5FAF4110012
:10362800FAC4EAF5FBC4EBF51BEE64F3B49A0601A1
:10363800865187118811D8B40CD001D80AD005005A
:10364800FA6E8651FD6E8751FE6E8851FF6EFA50F4
:0E3658001200E552EBC5FBF4EAC5FAF41100CE
:10366800FAC4ECF5FBC4EDF51BEE64F3B49C06015B
:10367800835184118511D8B40CD001D80AD0050023
:10368800FA6E8351FD6E8451FE6E8551FF6EFA50BD
:0E3698001200E552EDC5FBF4ECC5FAF411008A
:1036A800FAC4EEF5FBC4EFF51BEE64F3B898060117
:1036B800805181118211D8B40CD001D80AD00500EC
:1036C800FA6E8051FD6E8151FE6E8251FF6EFA5086
:0E36D8001200E552EFC5FBF4EEC5FAF4110046
:1036E800FAC4F0F5FBC4F1F51BEE64F3B89A0601D1
:1036F8007D517E117F11D8B40CD001D80AD00500B5
:10370800FA6E7D51FD6E7E51FE6E7F51FF6EFA504E
:0E3718001200E552F1C5FBF4F0C5FAF4110001
:10372800FAC4F2F5FBC4F3F51BEE64F3B89C06018A
:103738007A517B117C11D8B40CD001D80AD005007D
:10374800FA6E7A51FD6E7B51FE6E7C51FF6EFA5017
:103758001200E552F3C5FBF4F2C5FAF4110041E892
:1037680055C505F5FF0E05C5E3F40550D8B412D0CC
:1037780015C505F516C506F5180E076E0D0E086E6B
:10378800FF0EE3C438F5D8903834096E0A6A0A3651
:10379800AEEC0FF0556A41E912005A50D8B4FDD783
:1037A800000E5B24D96EDA6A120EDA22DF500601A7
:1037B800F66F000E5B24D96EDA6A170EDA22DF5034
:1037C800056E5B2A5B28D8B45B6AA2905A06A28071
:1037D80005C501F512000701A951D8B418D0A96B85
:1037E800A16BA26BFF0EE350D8B409D0530E156E2F
:1037F80066EC20F0020E1D6E8DEC18F008D0530E0A
:10380800156E66EC20F0080E1D6E8DEC18F041E97F
:0238180012009C
:10381C00FAC43BF5FBC43CF51BEE64F30601AD5159
:10382C00AE11AF11D8B40CD001D80AD00500FA6E85
:10383C00AD51FD6EAE51FE6EAF51FF6EFA501200DF
:10384C00E5523CC5FBF43BC5FAF41100FAC43DF556
:10385C00FBC43EF51BEE64F30601B051B111B2117D
:10386C00D8B40CD001D80AD00500FA6EB051FD6E58
:10387C00B151FE6EB251FF6EFA501200E5523EC5C8
:10388C00FBF43DC5FAF41100056A0550020D900ECB
:10389C00F324D96E090EF420DA6EDE50DE10D8B4A3
:1038AC000BD00550020D900EF324D96E090EF420A6
:1038BC00DA6EDE06000EDD5A052A0C0E0564E5D71D
:1038CC0047E91200FAC4E2F5FBC4E3F51BEE64F31E
:1038DC000601AA51AB11AC11D8B40CD001D80AD046
:1038EC000500FA6EAA51FD6EAB51FE6EAC51FF6E27
:1038FC00FA501200E552E3C5FBF4E2C5FAF41100EC
:10390C00FAC4F4F5FBC4F5F51BEE64F30601B351F0
:10391C00B411B511D8B40CD001D80AD00500FA6E88
:10392C00B351FD6EB451FE6EB551FF6EFA501200DC
:10393C00E552F5C5FBF4F4C5FAF41100FAC4F6F53A
:10394C00FBC4F7F51BEE64F30601B651B711B811C1
:10395C00D8B40CD001D80AD00500FA6EB651FD6E61
:10396C00B751FE6EB851FF6EFA501200E552F7C512
:10397C00FBF4F6C5FAF41100100000000000000082
:10398C00000000000000000000000000000000002B
:10399C00000000000010000000000000000000000B
:1039AC00000000000000000000000000000000000B
:1039BC000000056A0550020D900EF324D96E090E15
:1039CC00F420DA6EDE50DE10D8B40BD00550020DA8
:1039DC00900EF324D96E090EF420DA6EDE06000E7A
:1039EC00DD5A052A0C0E0564E5D712004F66666C8D
:1039FC00696E650000000000454D35343000000054
:103A0C000000000000010300400005000000000061
:103A1C00000048000001030040000400000000000A
:103A2C000000470041E8FF0E1DC5E3F4FF0EE35014
:103A3C00D8B409D05FC701F560C702F561C703F5BB
:103A4C0062C704F509D068C65FF769C660F76AC635
:103A5C0061F76BC662F7EED741E9120041E8FF0E41
:103A6C0015C5E3F4FF0EE350D8B409D063C701F5D4
:103A7C0064C702F565C703F566C704F509D06CC6C3
:103A8C0063F76DC664F76EC665F76FC666F7EED75B
:103A9C0041E912000001916B240E926F050E936F99
:103AAC00996B966BC984A384A380C20EE66E480EF4
:103ABC00E66E000EE66EF4EC21F0C40EE66E480ED7
:103ACC00E66E000EE66EE6EC21F01200050199514F
:103ADC00020DD80EF324D96E070EF420DA6E54CBF7
:103AEC00DEF455CBDDF4992B0B01C951D8A404D0CD
:103AFC000A0E0501986F1200C96B070E0501986F2D
:103B0C0012005C0E156E0E0E166E680E176EFE0E03
:103B1C00186E1A6A200E196E4EEC13F0D30E156E39
:103B2C000D0E166EC00E176EFF0E186E1A6A0C0E66
:103B3C00196E4EEC13F012005C0E156E0E0E166E16
:103B4C004D0E176EFF0E186E1A6A200E196E4EEC83
:103B5C0013F0D30E156E0D0E166ED80E176EFF0EDB
:103B6C00186E1A6A0C0E196E4EEC13F01200030E3E
:103B7C000601C519C611D8B408D00701A56B0501FB
:103B8C00AE6B050EAD6F986B120007018851D8A46F
:103B9C0004D00A0E0501986F1200010E0501986FF2
:103BAC001200FC0EE3C405F5010FE3C406F5010F8A
:103BBC00E3C407F5010FE3C408F5030157B108D0BE
:103BCC0008C552F307C551F306C550F305C54FF3AD
:103BDC0044E912000B015251386E376A54513724A4
:103BEC000601C96F0B01555138200601CA6F070138
:103BFC00A551D8B404D0090E0501986F12000B0E14
:103C0C000501986F120015C505F516C506F517C503
:103C1C0007F518C508F519C509F51AC50AF5AEEC6E
:103C2C000FF015C51DF516C51EF519C51FF51AC5DE
:103C3C0020F50CEC16F0120005C509F506C50AF5C1
:103C4C0007C5F6F408C5F7F4074A082A000EF86E03
:103C5C0009C5D9F40AC5DAF4094A0A2A0800F5C4D8
:103C6C00DFF4DF50D8B41200EBD7FB0EE37EF80E76
:103C7C00E3C4E6F4E3C4E6F4E3C4E6F4E3C4E6F434
:103C8C00F80EE3C4E6F4E3C4E6F4E3C4E6F4E3C4F8
:103C9C00E6F4F0ECD7F048E912005AEC0CF0C280D4
:103CAC00C282C18600018785849F030E846F859B29
:103CBC00859D858F859985938591030E866F8C6B79
:103CCC00070E896F848F879512005AEC0CF0C28016
:103CDC00C282C18600018785849F030E846F859BF9
:103CEC00859D858F859985938591030E866F8C6B49
:103CFC00070E896F848F8795120001000000010068
:103D0C0000000100000001000000010000000000A4
:103D1C000000000000000000000000000000000097
:103D2C00000000000000000041E8FF0E15C5E3F4A0
:103D3C00FF0EE350020D900EF324D96E090EF42001
:103D4C00DA6EDE50DE10D8A402D0010E01D0000EC7
:103D5C00016E41E91200400E05019F6111D0000E69
:103D6C00A025D96EDA6A0F0EDA22DF500201C96F74
:103D7C000501A02B3F0EA06501D0A06B9F2B12005C
:103D8C00A7921200A698FC0EE124D96EFF0EE22039
:103D9C00DA6E61007AF386F961007AF387F96100D3
:103DAC007AF388F9610076F389F9A68844E9120060
:103DBC0015C505F516C506F508D005C5D9F406C513
:103DCC00DAF417C5DFF4054A062A1906D8A01A0634
:103DDC001928F3E11A28D8B41200EFD7D69E550E45
:103DEC000001B46FAA0EB46FB491D68E010EBF6FE2
:103DFC00020EB66F070EBE6FD69E550EB46FAA0E8E
:103E0C00B46FB481D68E1200010E03013E6F3D6B70
:103E1C003F6B7F0E3B6F3A6BBD96AD86BE0EE66E6A
:103E2C00390EE66E000EE66E92EC21F0C30E030125
:103E3C003C6F1200050E0301326F316B336B790E40
:103E4C002F6F2E6BB996A986AE0EE66E480EE66EF7
:103E5C00000EE66EAEEC21F0030130691200060193
:103E6C00A451A511A611D8B40CD001D80AD00500C4
:103E7C00FA6EA451FD6EA551FE6EA651FF6EFA505E
:103E8C00120004010F9D1200400E5D6010D0000E58
:103E9C005E24D96EDA6A0E0EDA22DF500201A36FAD
:103EAC005E2A3F0E5E6401D05E6A5D2A1200A29209
:103EBC001200050196516625D96E000E6721DA6E47
:103ECC0080C0DFF4962B030E966501D0966B010E25
:103EDC007427000E752376237723120041E8FF0E1A
:103EEC000DC5E3F4020E156E9AEC1EF00150D8B419
:103EFC0006D0FF0EE3C438F56100E2F4D6F941E9CF
:103F0C0012000DC537F50EC538F5FF0E3724356E8A
:103F1C00FF0E3820366E35C5F4F936C5F5F90901B2
:103F2C00F66BF76B120041E8FF0E0DC5E3F4FF0EC4
:103F3C00E3C438F5030E381628EEFAF3DF503818C0
:103F4C00FC0B3818DF6E41E912005AEC0CF0C28001
:103F5C00C2820001849F240E856F020E866F020EB2
:103F6C008C6F040E896F830E846F848F1200060190
:103F7C00A151A211A311D8B4120001D8120005004E
:103F8C00FA6EA151FD6EA251FE6EA351FF6EFA5056
:103F9C0012000601985199119A11D8B4120001D847
:103FAC0012000500FA6E9851FD6E9951FE6E9A51F1
:103FBC00FF6EFA50120006018C518D118E11D8B47F
:103FCC00120001D812000500FA6E8C51FD6E8D5155
:103FDC00FE6E8E51FF6EFA50120007016B516C1180
:103FEC006D11D8B4120001D812000500FA6E6B5195
:103FFC00FD6E6C51FE6E6D51FF6EFA50120022EE8A
:10400C00C6F101EEBCF1250EDBC4EBF4E806FCE2D4
:10401C000501DDA1DD81DDB31200DD8312000B0192
:10402C005251386E376A545137241D6E5551382011
:10403C001E6E3DEC14F0050E0501986F12000B017D
:10404C005251386E376A545137241D6E55513820F1
:10405C001E6E3DEC14F0040E0501986F120006BEA6
:10406C0005D005C501F506C502F5120005C501F51B
:0E407C0006C502F5011E021E014A022A1200AC
:10408C00FAC439F5FBC43AF51BEE64F304010FBD19
:10409C0035EC1FF0E5523AC5FBF439C5FAF41100C2
:1040AC000001919F918F94BF02D094A71200010E32
:1040BC0007010C27000E0D230E230F23BF821200C5
:1040CC0041E8FF0E15C5E3F4FE0E1D6E8DEC18F0E5
:1040DC00FF0EE3C41DF58DEC18F041E9120015C577
:1040EC0021F516C522F521C51DF522C51EF5DC0EE0
:1040FC001F6E0E0E206ED7EC11F0120003012AA5D4
:10410C0007D02A910EC529F30DC528F32A81120078
:10411C000EC529F30DC528F31200030136A507D0EF
:10412C0036910EC535F30DC534F3368112000EC52C
:10413C0035F30DC534F31200000E5824D96EDA6A2B
:10414C00180EDA22C7C2DFF4582A5828D8B4586A95
:10415C0005019E2B120003011EA507D01E910EC552
:10416C001DF30DC51CF31E8112000EC51DF30DC5EC
:10417C001CF312005C0E156E0E0E166E250E176ECD
:10418C00FF0E186E1A6A200E196E4EEC13F0120008
:10419C00FA0E156E1B0E166E186A000E176E080EB0
:1041AC001A6E020E196EDEEC1EF01200550E000196
:1041BC00B46FAA0EB46FB49115C5B8F0550EB46FA8
:1041CC00AA0EB46FB4811200550E0001B46FAA0E82
:1041DC00B46FB49115C5B7F0550EB46FAA0EB46F89
:1041EC00B4811200550E0001B46FAA0EB46FB491D5
:1041FC0015C5B6F0550EB46FAA0EB46FB48112008B
:10420C00FD0EE124D96EFF0EE220DA6EDEC4B3F6A9
:10421C00DEC4B4F6DDC4B5F643E91200FD0EE124AC
:10422C00D96EFF0EE220DA6EDEC4B6F6DEC4B7F647
:10423C00DDC4B8F643E91200FD0EE124D96EFF0E81
:10424C00E220DA6EDEC471F7DEC472F7DDC473F7F8
:10425C0043E91200FD0EE124D96EFF0EE220DA6E66
:10426C00DEC474F7DEC475F7DDC476F743E91200DB
:10427C00FD0EE124D96EFF0EE220DA6EDEC46EF77D
:10428C00DEC46FF7DDC470F743E91200FD0EE124C4
:10429C00D96EFF0EE220DA6EDEC4ADF6DEC4AEF6E9
:1042AC00DDC4AFF643E91200FD0EE124D96EFF0E1A
:1042BC00E220DA6EDEC4B0F6DEC4B1F6DDC4B2F6CE
:1042CC0043E91200FD0EE124D96EFF0EE220DA6EF6
:1042DC00DEC47AF7DEC47BF7DDC47CF743E9120059
:1042EC00FD0EE124D96EFF0EE220DA6EDEC47DF7FE
:1042FC00DEC47EF7DDC47FF743E91200FD0EE12436
:10430C00D96EFF0EE220DA6EDEC477F7DEC478F7E2
:10431C00DDC479F743E91200FD0EE124D96EFF0EDE
:10432C00E220DA6EDEC4A1F6DEC4A2F6DDC4A3F68A
:10433C0043E91200FD0EE124D96EFF0EE220DA6E85
:10434C00DEC498F6DEC499F6DDC49AF643E9120091
:10435C00FD0EE124D96EFF0EE220DA6EDEC474F697
:10436C00DEC475F6DDC476F643E91200FD0EE124D9
:10437C00D96EFF0EE220DA6EDEC477F6DEC478F674
:10438C00DDC479F643E91200FD0EE124D96EFF0E6F
:10439C00E220DA6EDEC46BF7DEC46CF7DDC46DF7B9
:1043AC0043E91200FD0EE124D96EFF0EE220DA6E15
:1043BC00DEC48CF6DEC48DF6DDC48EF643E9120045
:1043CC00FD0EE124D96EFF0EE220DA6EDEC4A7F6F4
:1043DC00DEC4A8F6DDC4A9F643E91200FD0EE12403
:1043EC00D96EFF0EE220DA6EDEC4AAF6DEC4ABF69E
:1043FC00DDC4ACF643E91200FD0EE124D96EFF0ECC
:10440C00E220DA6EDEC4A4F6DEC4A5F6DDC4A6F6A0
:10441C0043E91200FD0EE124D96EFF0EE220DA6EA4
:10442C00DEC480F6DEC481F6DDC482F643E91200F8
:10443C00FD0EE124D96EFF0EE220DA6EDEC47AF6B0
:10444C00DEC47BF6DDC47CF643E91200FD0EE124EC
:10445C00D96EFF0EE220DA6EDEC47DF6DEC47EF687
:10446C00DDC47FF643E91200FD0EE124D96EFF0E88
:10447C00E220DA6EDEC489F6DEC48AF6DDC48BF681
:10448C0043E91200FD0EE124D96EFF0EE220DA6E34
:10449C00DEC483F6DEC484F6DDC485F643E912007F
:1044AC00FD0EE124D96EFF0EE220DA6EDEC486F634
:1044BC00DEC487F6DDC488F643E91200FD0EE12464
:1044CC00D96EFF0EE220DA6EDEC49EF6DEC49FF6D5
:1044DC00DDC4A0F643E91200FD0EE124D96EFF0EF7
:1044EC00E220DA6EDEC49BF6DEC49CF6DDC49DF6DB
:1044FC0043E91200FD0EE124D96EFF0EE220DA6EC4
:10450C00DEC492F6DEC493F6DDC494F643E91200E1
:10451C00FD0EE124D96EFF0EE220DA6EDEC48FF6BA
:10452C00DEC490F6DDC491F643E91200FD0EE124E1
:10453C00D96EFF0EE220DA6EDEC495F6DEC496F676
:10454C00DDC497F643E91200010E06016827000E40
:10455C0069236A236B23010E6C27000E6D236E23D7
:10456C006F231200000E5C24D96EDA6A170EDA2261
:10457C00A1C2DFF45C2A5C28D8B45C6A5A2A120007
:10458C00380E0001456F16C544F015C543F0F80E02
:10459C004117408146C001F51200830E0001846F63
:1045AC00240E856F030E866F020E8C6F040E896FBE
:1045BC00C8961200010E0301266F256B276B630E44
:1045CC00236F226BB1968F0E246F1200200E000108
:1045DC00AD6FAF6B010EB36F080EB16FB06BB2B1B4
:1045EC001200FDD70301EA51EBC301F5026A01C5C4
:1045FC0002F5016A0126000E0222120041E8FF0EAC
:10460C000DC5E3F4FF0EE3C415F566EC20F041E9AB
:10461C0012000001606B616B626B636B646B656BAA
:10462C00666B676B686B120005019351D8B404D0AC
:10463C00010E0601E66FBF82CFC4F2F6120041E80C
:10464C00FF0E1DC5E3F4B6A2FED7FF0EE3C4B6F20F
:10465C0041E9120005019251D8A403D0010E016E5C
:10466C001200000E016E1200010E07014827000E09
:10467C0049234A234B230001976B12005550D8A4B1
:10468C0003D0000E016E1200010E016E1200050126
:10469C009E51D8B403D0016A012A1200016A12009B
:1046AC0009016F6B6C6B6E6B6D6B706B716B726BFE
:1046BC001200010E05017027000E71237223732363
:1046CC0060991200000116000000000000000100BB
:1046DC0000001700030157AB03D0016A012A120036
:1046EC00016A120028EEFAF3DF50030B156EE6ECAC
:1046FC00F4F012005A50D8B403D0016A012A120007
:10470C00016A12000301F3B103D0016A012A1200FD
:10471C00016A1200010E06017027000E712372232C
:10472C0073231200010E05017827000E79237A23DA
:10473C007B2312000001E86B2DC5F7F02EC5F8F0B5
:10474C0012000001E86B2DC5EEF02EC5EFF0120043
:10475C00550E0001B46FAA0EB46FB4811200010E95
:10476C000001E86FFC9DFC9B12000601686B696BF5
:10477C006A6B6B6B120006016C6B6D6B6E6B6F6B07
:10478C0012000601706B716B726B736B1200940EDE
:10479C0000017F6F400E7D6F12000DC5ECF303011D
:1047AC00F38FF381120055C505F505C501F512000F
:0A47BC000001E86BFC9DFC9B12005D
:1047C8001BEE64F3BD90E552110054C519F353C5AF
:1047D80018F312000A0E0501986F1200080E050161
:1047E800986F1200030E0501986F12000001E86B24
:1047F800FC8D12003B0E0301EC6F12001BEE64F3FC
:10480800E5521100010E0701886F12000301578D50
:1048180012000501986B120015C5FBF3120016EC87
:1048280024F012000301308F120003012A811200C4
:10483800000E016E1200050160871200FAEC23F0E9
:10484800120041E841E912002BEC24F012000301A8
:104858003C8F120003013681120034EC24F0120060
:104868000301248F120003011E81120003011A8F15
:104878001200B8EC22F01200050160971200A2ECB9
:1048880020F0120043E9120043E9120043E9120044
:10489800C19E1200BF821200BF821200BF821200A6
:0348A800C805043C
:1048AC00120012001200120012001200120012006C
:1048BC00120012001200120012001200120012005C
:0648CC00120012001200B0
:10EFF4000000C0C101C30302C2C60607C705C5C4D9
:10F0040004CC0C0DCD0FCFCE0E0ACACB0BC9090808
:10F01400C8D81819D91BDBDA1A1EDEDF1FDD1D1C48
:10F02400DC14D4D515D71716D6D21213D311D1D0D8
:10F0340010F03031F133F3F23236F6F737F5353478
:10F04400F43CFCFD3DFF3F3EFEFA3A3BFB39F9F848
:10F054003828E8E929EB2B2AEAEE2E2FEF2DEDECE8
:10F064002CE42425E527E7E62622E2E323E1212018
:10F07400E0A06061A163A3A26266A6A767A5656418
:10F08400A46CACAD6DAF6F6EAEAA6A6BAB69A9A888
:10F094006878B8B979BB7B7ABABE7E7FBF7DBDBCC8
:10F0A4007CB47475B577B7B67672B2B373B1717058
:10F0B400B0509091519353529296565797559594B8
:10F0C400549C5C5D9D5F9F9E5E5A9A9B5B995958C8
:10F0D40098884849894B8B8A4A4E8E8F4F8D4D4C68
:10F0E4008C44848545874746868242438341818098
:10F0F4004000C1814001C0804101C0804100C18104
:10F104004001C0804100C1814000C1814001C080F4
:10F114004101C0804100C1814000C1814001C080E3
:10F124004100C1814001C0804101C0804100C181D2
:10F134004001C0804100C1814000C1814001C080C4
:10F144004100C1814001C0804101C0804100C181B2
:10F154004000C1814001C0804101C0804100C181A3
:10F164004001C0804100C1814000C1814001C08094
:10F174004101C0804100C1814000C1814001C08083
:10F184004100C1814001C0804101C0804100C18172
:10F194004000C1814001C0804101C0804100C18163
:10F1A4004001C0804100C1814000C1814001C08054
:10F1B4004100C1814001C0804101C0804100C18142
:10F1C4004001C0804100C1814000C1814001C08034
:10F1D4004101C0804100C1814000C1814001C08023
:10F1E4004100C1814001C0804101C0804100C18112
:10F1F400400AD7233CCDCCCC3DCDCC4C3E9A9999FA
:10F204003E0000003F9A99193F6666263F33333328
:10F214003F6666663FA4707D3F0000803F0000802B
:10F224003F0000A0410000C841CDCCC8416666CA79
:10F23400410000CC416666CE410000D0419A99D18C
:10F2440041CDCCD4416666D6419A99D94100000C8F
:10F25400421F1E1F1E1F1F1E1F1E1F1F1D5E2C254B
:10F26400642C25332E32662C25332E32662C25331E
:10F274002E32662C25332E32662C25332E32662C04
:10F2840025332E32662C25332E32662C25332E322E
:10F29400662C25642E253031642C25642E253031CE
:10F2A400642C25642E253031642C25642C25642C93
:10F2B40025642C25642C25642C256C6C752C253731
:10F2C4002E34662C25372E34662C25362E34662CA7
:10F2D40025372E34662C313935372C7E454F542052
:10F2E400202020202020202020202020202020201A
:10F2F400202020202020202020202020202020200A
:10F3040020202020202020202020202020202020F9
:10F31400200D0A005E2C25642C25332E32662C2504
:10F32400332E32662C25332E32662C25332E32664C
:10F334002C25332E32662C25332E32662C25332E83
:10F3440032662C25332E32662C25642E253031640A
:10F354002C25642E253031642C25642E253031640F
:10F364002C25642C25642C25642C25642C25642CE4
:10F37400256C6C752C25372E34662C25372E346677
:10F384002C25362E34662C25372E34662C3139350F
:10F39400372C7E454F542020202020202020202060
:10F3A4002020202020202020202020202020202059
:10F3B4002020202020202020202020202020202049
:10F3C40020202020202020200D0A005E2C25642CE3
:10F3D40025332E32662C25332E32662C25332E32DD
:10F3E400662C25332E32662C25332E32662C25339B
:10F3F4002E32662C25332E32662C25332E32662C83
:10F4040025642E253031642C25642E253031642C5E
:10F4140025642E253031642C25642C25642C256428
:10F424002C25642C25642C256C6C752C25362E34E7
:10F43400662C25362E34662C25362E34662C25363D
:10F444002E34662C313935372C7E454F54202020FC
:10F4540020202020202020202020202020202020A8
:10F464002020202020202020202020202020202098
:10F474002020202020202020202020202020200D9B
:10F484000A005E2C25642C25332E32662C25332E5F
:10F4940032662C25332E32662C25332E32662C25EB
:10F4A400332E32662C25332E32662C25332E3266CB
:10F4B4002C25332E32662C25642E253031642C25E0
:10F4C400642E253031642C25642E253031642C259E
:10F4D400642C25642C25642C25642C25642C256C33
:10F4E4006C752C25362E33662C25362E33662C254A
:10F4F400362E33662C25362E33662C313935372C8F
:10F504007E454F5420202020202020202020202011
:10F5140020202020202020202020202020202020E7
:10F5240020202020202020202020202020202020D7
:10F534002020202020200D0A007C7C2F2F2D2D0040
:10F54400000000000000000000000000007C7C2F90
:10F554002F2D2D5C5C000000000000000000000066
:10F56400004F4F4F4F4F4F2D2D5F5F2D0000000078
:10F57400000000000076763C3C5E5E3E3E000000EB
:10F584000000000000000000002E2E2A2A782378B4
:10F594002358587C7C2D2D0000000000002E2E6F77
:10F5A4006F4F4F6F6F00000000000000000000006C
:10F5B40000536C65657000000000000000466C6F2D
:10F5C40061740000000000000042756C6B000000D4
:10F5D40000000000004162736F72620000000000CE
:10F5E40000457175616C697A65000000004E2F4119
:10F5F4002000000000000000004F66666C696E6524
:10F604000000000000464D783000000000000000BB
:10F614000000010300400002000000010000004659
:10F6240000000102000000040000000000000006C9
:10F6340000000102000000030000000000000005BB
:10F6440000000102000000020000000000000004AD
:10F6540000000102000000000000000000000002A1
:10F66400000001020001006A000000000000006DBB
:10F6740000000102000100C700000000000000CAF1
:10F684000000010200000008000000000000000A61
:10F6940000000102000100C600000000000000C9D3
:10F6A400000001040000000100000000000000054B
:10F6B40000000102000100C800000000000000CBAF
:10F6C4000000010200000000000000000000000231
:10F6D40000011000660002040000000075AD011076
:10F6E400006300020400000000B5920110000C0049
:10F6F400020400000000F3FA0210000100020402F8
:10F7040000010002040000004001030078000E0123
:10F71400030048004A010616040005010610000013
:10F724000001061002000001035000000801030557
:10F734000000400103000000340103030200010142
:10F7440003000B000100005442000054420080807A
:10F7540042008080422DB2804239B480421FC5806D
:10F7640042CFB780429A995E4266665E42E59058FF
:10F774004289C1584273488042C5608042FC8980F6
:10F7840042FC8980420080804200808042B40000B4
:10F794000204000000020000010A000001C77FFF0C
:10F7A400FFC57FFFFFB4001000B77FFFFFB8000064
:10F7B40001C2000000E4000001CD0C0543E5612115
:10F7C400400080804200808042000000000400006D
:10F7D4000CFFFF0B000010FFFF40F725342E3266AC
:10F7E400487A2025332E3166522025332E32665036
:10F7F40066202020202020202020202020202020BF
:10F8040020202020202020200025342E3266487A13
:10F814002025332E3266522025332E326650662040
:10F8240020202020202020202020202020202020D4
:10F8340020202020202000424D4320256C752020CC
:10F844003058252E3258202020202020202020200F
:10F8540020202020202020202020202020202020A4
:10F864002020200025322E31664B576820666C6FAD
:10F8740061742025332E316668202020202020202A
:10F884002020202020202020202020202020202074
:10F89400000D2D2D2D205449433132343030204475
:10F8A40072697665722056657273696F6E2025736E
:10F8B400202573202573202D2D2D0D0A000D2D2DAF
:10F8C4002D204D43333339393620447269766572BD
:10F8D4002056657273696F6E202573202573202569
:10F8E40073202D2D2D0D0A004241542025642E2510
:10F8F400303164562050562025642E25303164560C
:10F9040020202020202020202020202020202020F3
:10F914002000342025362E3366562C352025362EED
:10F924003366562020202020202020202020202044
:10F9340020202020202020202000426D61782025D6
:10F94400755620426D696E20257556202020202092
:10F9540020202020202020202020202020202020A3
:10F964002000424D4320256C75202020202020209B
:10F974002020202020202020202020202020202083
:10F984002020202020202020004F4620256C752098
:10F9940045525220256C7520202020202020202034
:10F9A4002020202020202020202020202020200073
:10F9B40020256C6C582052756E20446973706C61FC
:10F9C40079203058252E3258202020202020202035
:10F9D4002020202020004A616E4665624D617241FC
:10F9E40070724D61794A756E4A756C4175675365DD
:10F9F400704F63744E6F764465630025342E316610
:10FA04002025342E31662025342E31662025342ECF
:10FA14003166572020202020202020202020200074
:10FA240025342E31662025342E31662025342E319E
:10FA34006656522020202020202020202020202014
:10FA44002020200025332E32662025332E326620D6
:10FA540025332E32665066202020202020202020AE
:10FA6400202020202020200025342E31662025341B
:10FA74002E31662025342E31665068202020202027
:10FA840020202020202020202020200025342E315A
:10FA940066572025342E316656412025332E326692
:10FAA400504620202020202020202020202020001C
:10FAB40025342E3166572025342E316656522025A2
:10FAC400332E326650662020202020202020202043
:10FAD40020202000257320566572202573202020C5
:10FAE4002020202020202020202020202020202012
:10FAF400202020200025732025732025642E253006
:10FB04003164412025644120202020202020202011
:10FB1400202020202000204D657367202564205379
:10FB24007461636B20256420202020202020202065
:10FB34002020202020004D554920256C6C58205051
:10FB44004943202558202020202020202020202028
:10FB5400202020202000205465726D696E616C2085
:10FB6400496E666F20202020202020202020202085
:10FB7400202020002048454C502053637265656E58
:10FB84003A2025642020202020202020202020002E
:10FB94002573202020202020202020202020202009
:10FBA4002020202020202020202020002573202514
:10FBB400342E3166562025342E32664120202020F2
:10FBC400202020202020200020506F7274204C6FB1
:10FBD400636B202325642020202020202020202047
:10FBE400202000205465726D696E616C20256420AC
:10FBF4002020202020202020202020200020434DD1
:10FC040044202563202563204C656E202564202034
:10FC140020202020202000257320256C64562025D8
:10FC2400332E306657202020202020202020202022
:10FC3400002025635049204441515F424D43202513
:10FC44007320202020202020200048454C502025CF
:10FC5400732020202020202020202020202020204D
:10FC64002000204F70656E204C4C20202020202046
:10FC7400202020202020202020002050756D70207E
:10FC84004C4C202020202020202020202020202018
:10FC94002000205265616479204C4C2020202020D3
:10FCA40020202020202020202000205332463431E0
:10FCB40020232563202020202020202020202020F5
:10FCC4002000444953504C415920257320202020C2
:10FCD400202020202020202020002053746F7265D3
:10FCE4006420232564202020202020202020202080
:10FCF4002000767465726D2025783A2578202020BE
:10FD0400202020202020202020002053455155452C
:10FD14004E43452025642020202020202020202020
:10FD2400200020446973706C6179206E756D202504
:10FD340064202020202020202000205325644625F4
:10FD440064206C6F67202020202564202020202040
:10FD54002000204C6F61642D6C6F636B206E756D99
:10FD6400202564202020202020002025732020200E
:10FD7400202020202020202020202020202020207F
:10FD84000020494E464F20202020202020202020E3
:10FD9400202020202020200020565445524D204968
:10FDA4004E464F20202020202020202020200020EC
:10FDB400565445524D2048454C50202020202020A8
:10FDC4002020202020002056657273696F6E202544
:10FDD4007320202020202020202020200020257394
:10FDE40020416C6C20446576202020202020202097
:10FDF400202020002048454C50204275696C642026
:10FE0400257320202020202020200020257320413D
:10FE14006E616C6F672044657620202020202020AE
:10FE2400200053756E4D6F6E547565576564546844
:10FE3400754672695361740048454C5020257320FF
:10FE4400202020202020202020202020200043616A
:10FE54006C6962726174696F6E20436F6D706C655A
:10FE64007465200057454D3330383020447269762C
:10FE740065722020202020200025732020202020AF
:10FE84002020202020202020202020202000257336
:10FE94002025732020202020202020202020202006
:10FEA400202000506F7274202573202020202020F1
:10FEB4002020202020202000424D43426F617264A4
:10FEC40020447269766572202020202000526561EA
:10FED4006420454550524F4D204441544120202038
:10FEE4002000577269746520454550524F4D204497
:10FEF40041544120202000557064617465204545BB
:10FF040050524F4D2044415441202000496E7661A7
:10FF14006C696420454550524F4D20444154412062
:10FF240000454D35343020447269766572202020B6
:10FF34002020202000257320202020202020202085
:10FF4400202020202020202000505A454D2044729B
:10FF540069766572202020202020004170722020C4
:10FF64003620323032360041707220203720323051
:10FF740032360031333A30343A34300031353A30A5
:10FF8400303A353300434F4D4D2020200045525226
:10FF94004F522020004F4E4C494E45200052454DB3
:10FFA4004F5445200044495341424C45004F464676
:10FFB4004C494E4500286E756C6C290057454D33ED
:10FFC400300056302E36330034375138340035374C
:10FFD40051383400505A454D0056302E37005630B3
:10FFE4002E3800494E46004E414E00696E66006E42
:0BFFF400616E00474D540025730000B3
:020000040001F9
:1000000045E800019451D8BC05D0010E0501976F59
:10001000210EBB6FB1EC13F09F94FFECFFF0D68E76
:10002000D68CBF82BF84BF86F4EC1EF0CEEC20F0ED
:10003000000E6100A2F3FDF70701F46BF56BF66BA0
:10004000F76BF86BF96BFA6BFB6BFF0EE36AFF0E55
:10005000E350020DF3C435F5F4C436F5000E36BE98
:10006000FF0E376E386E000E3524316E000E3620CE
:10007000326E2C0E3720336E31C5E6F432C5E6F40D
:1000800033C5E6F49AEC08F0FF0EE350020DC40EFF
:10009000F324D96E070EF420DA6E01C5DEF402C532
:1000A000DDF4FF0EE350020DC40EF324D96E070EEB
:1000B000F420DA6EDEC437F5DDC438F537500701B9
:1000C000F4273850F523000EF623000EF723000E18
:1000D000F823000EF923000EFA23000EFB23FF0E77
:1000E000E32AFF0EE3C401F5080E0164B0D7F4C79C
:1000F00031F5F5C732F5F6C733F5F7C734F5F8C76C
:1001000035F5F9C736F5FAC737F5FBC738F531C508
:1001100057F732C558F733C559F734C55AF735C5BF
:100120005BF736C55CF737C55DF738C55EF7FC0E83
:10013000E66EFF0EE66E3F0EE66E9AEC08F001C525
:1001400055F702C556F7FE0EE66EFF0EE66E3F0E41
:10015000E66E9AEC08F001C553F702C554F7050E98
:100160000701531904E1990E5419D8B42DD0040E87
:10017000531906E1990E5419D8A402D0508524D001
:100180005069000E566F5569FF0E576F000E586F7D
:10019000000E596F000E5A6F000E5B6F000E5C6F01
:1001A000000E5D6F000E5E6FFF0EF46FFF0EF56FB9
:1001B000FF0EF66FFF0EF76F000EF86F000EF96F6F
:1001C000000EFA6F000EFB6F21EE57F3DEC4E6F46B
:1001D000DEC4E6F4DEC4E6F4DEC4E6F4DEC4E6F42F
:1001E000DEC4E6F4DEC4E6F4DEC4E6F41AECEDF0B8
:1001F00001500501DE6F52D0F00E6100A2F30BFA40
:100200002E0E6100A2F30CFA000E6100A2F30DFAAB
