:0400000085EF00F098
:10000800070907090709070907090709070966070B
:10001800070907092304330407090709070907091A
:100028004304070907090709030407091304070913
:100038000709070907090709320307090709D4034C
:10004800E004D1040709070907090709070907098F
:10005800577E0709EF0407099601070907090709E9
:100068000709070907090709530463047304070903
:1000780007090709070907094200070907090709C6
:1000880007090709070907092103070907090709D4
:100098000D05FE04070907094200070907090709B2
:1000A800070907090709070983049304A304070933
:1000B800070907090709FE020709070907090709C8
:1000C80007090709070907090709070907090709A8
:1000D8000709070907090709070907090709070998
:1000E8004200070907090709070907090709070956
:1000F800F60807090709C9070709070907090709CA
:10010800FF001BEE94F117EFD4F09EC5D9F49FC5FC
:10011800DAF4A2C5DFF40A0E916FA0518FEC0DF04E
:10012800300F9E07D8A09F079EC5D9F49FC5DAF463
:10013800DF6EA0C596F5976B996B0A0E986F72ECF7
:10014800FDF09651A06FA051D8B40BD0A051300F3C
:100158009E07D8A09F079EC5D9F49FC5DAF4DF6E25
:1001680012009E07D8A09F079EC5D9F49FC5DAF450
:10017800A1C5DFF4120000C041459A994941000029
:100188000000000096439A99494100000040000091
:100198000000000000000000000000000000000057
:1001A8000000000000000000000000001000000037
:1001B8000000000000000000000000000000000037
:1001C8000000000000000000000000000000011610
:0D01D8000000000000000001000000170002
:1001E600A26F0501E251D8A4120009D0400E03D037
:1001F600140E01D0540EA36F10D0A36B0ED0A251D3
:10020600000AD8B4FAD7010AD8B4F0D7030AD8B48A
:10021600EFD7010AD8B4EED7F0D7A3519F25F0EC5B
:1002260001F0900E0501916F010E926F000E936F13
:10023600000E946F74EC0BF0A0C59CF5A1C59DF55E
:1002460026EC01F012009CC591F59DC592F591EC46
:1002560005F091519E6FABECF9F01EEC12F0C196D1
:10026600140E05019E6502D0140E9E6F94C891F57A
:1002760095C892F59CC593F59DC594F59EC595F5D3
:10028600966B1FEC02F00001E86BFC9F9EC591F592
:100296000501926BCEEC10F00501926B010E916F89
:1002A600D5EC10F0FC8F21EC12F01200955196114E
:1002B60097119811D8B424D0010E996F06D0D89012
:1002C6009537963797379837992B98AFF8D7955132
:1002D600915D965192599751935998519459D8A036
:1002E60008D09551915F9651925B9751935B9851C7
:1002F600945BD8909833973396339533992FE7D7F5
:1003060091C591F592C592F593C593F594C594F56B
:100316001200D68A000ED6BE010E0501916FD69E3A
:10032600550E0401596FAA0E596F59915F6B5E6B9A
:10033600080E5D6F550E596FAA0E596F598105014A
:1003460091B102D0D69E01D0D68E0301688B688902
:10035600688D678567816489648D6C8B6C896C8D0B
:10036600628F6B836B8166836681658F71876A890D
:100376006D9767996589120091C597F592C598F5AD
:1003860017D09507D8A0960793C5F6F494C5F7F449
:10039600934B942B000EF86E97C5D9F498C5DAF4F2
:1003A600974B982B0800F5C4DFF4DF50D8B40CD077
:1003B60095519611D8B408D0E4D797C5D9F498C505
:1003C600DAF4DF6A974B982B9507D8A096079529FC
:1003D600F4E19629D8B41200F0D7996FABECF9F096
:1003E6001EEC12F0C19694C8D9F495C8DAF4FE0E44
:1003F600DF6E20EE01F09451D9269551DA22450E92
:10040600DF6E20EE02F09451D9269551DA2299C575
:10041600DFF40001E86BFC9F0501926B030E916F00
:10042600CEEC10F00501926B010E916FD5EC10F039
:10043600FC8F21EC12F0120093C599F594C59AF53C
:1004460091C597F592C598F51DD099C5F6F49AC54C
:10045600F7F4000EF86E3F0EF76403D00800F5506F
:1004660005D0F6C4E9F4F7C4EAF4EF5005019B6F32
:10047600994B9A2B97C5D9F498C5DAF49BC5DFF446
:10048600974B982B9507D8A096079529DEE19629D4
:10049600D8B41200DAD78CEC01F034EC10F05BEC37
:1004A600FBF0C0ECF2F01DEC10F069ECFEF0C0ECD5
:1004B600FFF04FEC0DF029EC10F088EC07F039EC6A
:1004C6000DF02EECFEF043EC04F0D1EC11F01CEC38
:1004D60004F090EC04F03EECFAF0CEECFAF07DEC91
:1004E60002F0F8EC0FF07DEC03F0C9EC0AF061ECD9
:1004F60011F012000201B86BB96BBA6BBB6BBC6B27
:10050600BD6BB40EBE6F800EBF6FC06B820EC16F27
:10051600060EC26FC36BC46BC56BC66B000E0501BE
:10052600916F000E926F000E936F06EC11F0000EA5
:10053600916F000E926F000E936FFFEC10F0000E9D
:10054600916F000E926F000E936F0DEC11F0F26B2F
:10055600120090C694F691C695F6466A000E456E50
:1005660013D08EC66EF68FC66FF6940E706F060E9B
:10057600716F92C672F693C673F68EECA8F00601FA
:100586006E5145266F51462294C6F6F495C6F7F489
:10059600000EF86E0800F5500009D8A4E2D745C54C
:1005A6008EF646C58FF61200000E996F000E9A6FF2
:1005B600000E9B6F000E9C6F91A108D09551992754
:1005C60096519A2397519B2398519C23D8909537FF
:1005D600963797379837D89094339333923391332D
:1005E6009151921193119411D8A4E6D799C591F51A
:1005F6009AC592F59BC593F59CC594F512009D6F1F
:100606009DC594F5030E050194179451800DF3C40E
:1006160095F5F4C496F59151030B976F986B000E00
:100626009703F3C499F5F4C49AF59803F3509A27FF
:10063600020E9703F3509A27FA0E99259B6F1D0E0B
:100646009A219C6F95519B25916F96519C21926F93
:100656001200D8C48BF5FAC48CF5FBC48DF51CEEDC
:10066600DCF3B398EFC889F5F0C88AF582EC0FF091
:100676000901655166116711D8B40CD001D80AD0AA
:100686000500FA6E6551FD6E6651FE6E6751FF6E8E
:10069600FA501200E5528DC5FBF48CC5FAF48BC5F1
:1006A600D8F41100966B000E956F93519411D8B43F
:1006B6001CD0010E976F04D0D89093379437972BA0
:1006C60094AFFAD7D890953796379351915D945158
:1006D6009259D8A005D09351915F9451925B958120
:1006E600D89094339333972FEDD795C591F596C54A
:1006F60092F51200070E0301586F070E596F5751F6
:10070600F30B0809576F566B556B546BD50E536F29
:10071600F30E5717566B556B546B536B526B516BED
:10072600506B4F6B3F0E5F6F5E695D695C6B5B6B19
:100736005A6B616BBD94AD94B69EA69E900E576F94
:10074600606B1200BFA402D0010E01D0000EFF0A9A
:10075600396E39463946BF503918FB0B3918BF6E0A
:10076600BF92BF962AEE86F3DE2A000EDE22DE2236
:10077600DE22010E0901876F22EEB1F1DFC439F5E1
:10078600010EDF26050E39641200DCEC0EF00901BD
:10079600B16B1200010E0A018F6FC7C2DCF57F51E3
:1007A6000501D725D96E0A0180510501D821DA6ED7
:1007B600DCC5DFF4010E0A017F27000E80238123AA
:1007C600822382518111801104E1FA0E7F5DD8A047
:1007D6001200000E7F6F000E806F000E816F000EFC
:1007E600826F12009CC591F59DC592F59EC593F545
:1007F6009FC594F551ECFFF091C5A0F592C5A1F502
:100806009E519C25D96E9F519D21DA6EA1C5DFF4BC
:100816009E4B9F2B9E519C25D96E9F519D21DA6E32
:10082600A0C5DFF49E4B9F2B9EC59CF59FC59DF5ED
:1008360012000301376B386B010E396F630E356F8B
:10084600C00E346FB698345135C394F50501956BD7
:1008560094C595F5946B94110801F56F05019551B2
:100866000801F66FA688B80E0501916F240E926FE7
:10087600000E936F3EEC11F0310E0301366F12003D
:1008860003012B6B2C6B010E2D6FF00E296F600E82
:10089600286FB398285129C394F50501956B94C523
:1008A60095F5946B94110801EF6F050195510801B8
:1008B600F06FA388AA0E0501916F240E926F000EA9
:1008C600936F4CEC11F0330E03012A6F1200000EE9
:1008D600D56F1C0ED66F030ED5254B6E000ED62196
:1008E6004C6E030ED525496E000ED6214A6E340E87
:1008F600916F210E926F000E936F45EC11F015EC7F
:1009060012F0B80E0501916F1F0E926F000E936FD5
:100916004CEC11F01BEC12F012001F6B206B050E55
:10092600216F0B0E1D6FDC0E1C6FB1981C511DC381
:1009360094F50501956B94C595F5946B9411080192
:10094600ED6F050195510801EE6FA188CE0E0501E8
:10095600916F240E926F000E936F53EC11F0310ECF
:1009660003011E6F1200730E05019C6FF70E9D6F3B
:10097600040E9E6FA4ECFEF0956B0A0E946FE3ECEA
:100986000DF0730E9C6FF70E9D6F040E9E6FA4EC18
:10099600FEF0956B0A0E946FE3EC0DF0000E0B0162
:1009A600926F000E936F000E946F000E956F1200FB
:1009B600570E0501946F0001919F740E0501916F0A
:1009C600730E926F010E936F68EC11F0CE0E916F5D
:1009D600200E926F000E936F6FEC11F002D08DC057
:1009E60094F5000194A7FBD794C502FA94979383D4
:1009F600918F000EDDEC11F0120094BF09D091C565
:100A060091F592C592F593C593F594C594F51200A8
:100A160091C595F592C596F593C597F594C598F544
:100A2600951F961F971F981F952B000E96239723A9
:100A3600982395C591F596C592F597C593F598C5F2
:100A460094F5120043E8FD0E15C5E3F4FE0E17C536
:100A5600E3F4010F18C5E3F4FE0EE3C41FF5010F1E
:100A6600E3C420F5D8901F341D6E20341E6EFD0E93
:100A7600E350020D740EF324D96E0B0EF420DA6ED9
:100A86001DC5DEF41EC5DDF443E912009A0EA56FFE
:100A9600060EA66F96C69AF697C69BF69D6B000E37
:100AA6009C6FA46B000EA36F9A0E8E6F060E8F6F4F
:100AB60098C690F699C691F6A50E926F060E936F9C
:100AC600ACEC02F09C519625D96E9D519721DA6EB9
:100AD600DF6A1200B9EC10F00009D8B4120009015F
:100AE60095510501A16F090196510501A26F0901F2
:100AF600954B962B410E0501A15D1F0EA259D8A05C
:100B060012009FC59CF5A0C59DF5080E9E6F35EC9D
:100B16000CF00901966B000E956F120091C593F5C6
:100B260092C594F503D00501914B922B91C5F6F42D
:100B360092C5F7F4000EF86E3F0EF76403D0080076
:100B4600F55005D0F6C4E9F4F7C4EAF4EF5000090D
:100B5600D8A4E9D705019351915D916F94519259AB
:100B6600926F1200000ED6BE010E946F380E000171
:100B7600456F92C544F091C543F093C546F0415187
:100B8600F80B0309416FD69E550E426FAA0E426FAF
:100B9600408140B1FED7050194B102D0D69E01D066
:100BA600D68EF80E000141171200000E081B000E2B
:100BB600091B000E0A1B800E0B1B04C6C1F505C6D9
:100BC600C2F506C6C3F507C6C4F508C6C5F509C607
:100BD600C6F50AC6C7F50BC6C8F5BBECD0F0C1C54D
:100BE60004F6C2C505F6C3C506F6C4C507F6120067
:100BF800D8C48EF5FAC48FF5FBC490F51CEEDCF36F
:100C0800B9960901625163116411D8B40CD001D8A6
:100C18000AD00500FA6E6251FD6E6351FE6E645192
:100C2800FF6EFA501200E55290C5FBF48FC5FAF436
:100C38008EC5D8F4110091C595F592C596F514D0D6
:100C4800010E0001826F95C5D9F496C5DAF4DF501C
:100C5800816FB1A0FED795C5D9F496C5DAF480C0E6
:100C6800DFF40501954B962B9307D8A09407932999
:0A0C7800E7E19429D8B41200E3D795
:100C8400FAC43BF5FBC43CF51CEEB8F0B698F5C8C5
:100C940039F5F6C83AF5A1EC0FF00801F34BF42B43
:100CA400F45104E1320EF35DD8A006D08AEC0EF0C4
:100CB4000801F46B000EF36FE5523CC5FBF43BC531
:100CC400FAF41100FAC487F5FBC488F51CEEB8F0F9
:100CD400B198EDC885F5EEC886F5BFEC0FF00801B4
:100CE400EB4BEC2BEC5104E1020EEB5DD8A006D0EB
:100CF40078EC0EF00801EC6B000EEB6FE55288C542
:100D0400FBF487C5FAF41100A7C591F5A8C592F5BF
:100D1400946B0A0E936FA7EC06F091C5A3F592C5E8
:100D2400A4F5F7EC0DF0A3C5E5F8A4C5E6F8A7C54E
:100D340091F5A8C592F5946B0A0E936F55EC03F0E8
:100D440091C5E7F892C5E8F8120093519411D8B40C
:100D540018D0010E956F04D0D89093379437952B03
:100D640094AFFAD79351915D94519259D8A004D07D
:100D74009351915F9451925BD89094339333952F10
:100D8400F1D791C591F592C592F512000F0E0C01A1
:100D940084154F6E506A030E4F185010D8A405D016
:100DA400010E0901A36F586A0DD0582A5804050191
:100DB400916F030E916506D00901A36B0701CE6BF9
:100DC400050ECD6F010E07017D6F1200000ED76F67
:100DD4001B0ED86F030ED7254D6E000ED8214E6E14
:100DE400340E916F210E926F000E936F45EC11F04B
:100DF40015EC12F0B80E0501916F1F0E926F000EE4
:100E0400936F4CEC11F01BEC12F01200000ED36F38
:100E14001D0ED46F030ED325476E000ED421486EE9
:100E2400340E916F210E926F000E936F45EC11F00A
:100E340015EC12F0B80E0501916F1F0E926F000EA3
:100E4400936F4CEC11F01BEC12F012000501956F3E
:100E540005019551D8B409D0B8CA91F5B9CA92F52B
:100E6400BACA93F5BBCA94F51200ACC8B8FAADC8B7
:100E7400B9FAAEC8BAFAAFC8BBFAB8CA91F5B9CADA
:100E840092F5BACA93F5BBCA94F512000501956FA1
:100E940005019551D8B409D0BCCA91F5BDCA92F5E3
:100EA400BECA93F5BFCA94F51200B0C8BCFAB1C863
:100EB400BDFAB2C8BEFAB3C8BFFABCCA91F5BDCA7E
:100EC40092F5BECA93F5BFCA94F512000501996F55
:100ED400ABECF9F01EEC12F0C19694C8D9F495C8A5
:100EE400DAF499C5DFF40001E86BFC9F0501926B0D
:100EF400010E916FCEEC10F00501926B010E916F13
:100F0400D5EC10F0FC8F21EC12F012004D0E1B6F8B
:100F14001B0E196F1E0E186F185119C394F5050195
:100F2400956B94C595F5946B9411516E9551526ED1
:100F3400B19EA18EC40E916F240E926F000E936F1A
:100F44005AEC11F0900E03011A6F1200FAC473F5F3
:100F5400FBC474F51CEEB8F0B19E52C519F351C52B
:100F640018F30801F14BF22BF25104E1040EF15D88
:100F7400D8A006D066EC0EF00801F26B000EF16FFB
:100F8400E55274C5FBF473C5FAF41100A2C5FDF86B
:100F94000801FE6B0501A151A46FA36B000EA315FC
:100FA400A56FFF0EA415A66FA5510801FD13050139
:100FB400A6510801FE13FC0E05019C6F080E9D6FDF
:100FC400030E9E6FDEECFEF01200C084AE0E05012F
:100FD400916F0B0E926F030ED725936F000ED821DD
:100FE400946F966B100E956F1FEC02F00B01BB6BA8
:100FF400BCCB91F5BDCB92F555EC0FF091C5BCFB84
:1010040092C5BDFBC0941200FAC435F5FBC436F595
:101014001CEEB8F0B0980801C451C511C611D8B47B
:101024000CD001D80AD00500FA6EC451FD6EC5512A
:10103400FE6EC651FF6EFA501200E55236C5FBF43F
:0610440035C5FAF41100AD
:10104C00FAC437F5FBC438F51CEEB8F0B09C0801B7
:10105C00C151C211C311D8B40CD001D80AD00500AB
:10106C00FA6EC151FD6EC251FE6EC351FF6EFA5045
:0E107C001200E55238C5FBF437C5FAF4110036
:10108C00FAC43DF5FBC43EF51CEEB8F0AF94080174
:10109C00BB51BC11BD11D8B40CD001D80AD005007D
:1010AC00FA6EBB51FD6EBC51FE6EBD51FF6EFA5017
:0E10BC001200E5523EC5FBF43DC5FAF41100EA
:1010CC00FAC43FF5FBC440F51CEEB8F0AF9609012D
:1010DC007D517E117F11D8B40CD001D80AD00500F7
:1010EC00FA6E7D51FD6E7E51FE6E7F51FF6EFA5091
:0E10FC001200E55240C5FBF43FC5FAF41100A6
:10110C00FAC460F5FBC461F51CEEB8F0B0900801B0
:10111C00B851B911BA11D8B40CD001D80AD0050005
:10112C00FA6EB851FD6EB951FE6EBA51FF6EFA509F
:0E113C001200E55261C5FBF460C5FAF4110023
:10114C00FAC475F5FBC476F51CEEB8F0B498090139
:10115C00775178117911D8B40CD001D80AD0050088
:10116C00FA6E7751FD6E7851FE6E7951FF6EFA5022
:0E117C001200E55276C5FBF475C5FAF41100B9
:10118C00FAC477F5FBC478F51CEEB8F0B49A0901F3
:10119C00745175117611D8B40CD001D80AD0050051
:1011AC00FA6E7451FD6E7551FE6E7651FF6EFA50EB
:0E11BC001200E55278C5FBF477C5FAF4110075
:1011CC00FAC479F5FBC47AF51CEEB8F0B49C0901AD
:1011DC00715172117311D8B40CD001D80AD005001A
:1011EC00FA6E7151FD6E7251FE6E7351FF6EFA50B4
:0E11FC001200E5527AC5FBF479C5FAF4110031
:10120C00FAC47BF5FBC47CF51CEEB8F0B898090168
:10121C006E516F117011D8B40CD001D80AD00500E2
:10122C00FA6E6E51FD6E6F51FE6E7051FF6EFA507C
:0E123C001200E5527CC5FBF47BC5FAF41100EC
:10124C00FAC47DF5FBC47EF51CEEB8F0B89A090122
:10125C006B516C116D11D8B40CD001D80AD00500AB
:10126C00FA6E6B51FD6E6C51FE6E6D51FF6EFA5045
:0E127C001200E5527EC5FBF47DC5FAF41100A8
:10128C00FAC47FF5FBC480F51CEEB8F0B89C0901DC
:10129C00685169116A11D8B40CD001D80AD0050074
:1012AC00FA6E6851FD6E6951FE6E6A51FF6EFA500E
:1012BC001200E55280C5FBF47FC5FAF41100FC273F
:1012CC00FC2500000000001105008000800080005B
:1012DC005711012000000000000000000000000079
:1012EC00008080420000000000808042E5612140C7
:1012FC00CD0C05430003005719425B50D8B4FDD701
:10130C00000E5C24D96EDA6A130EDA22DF50050166
:10131C00F36F000E5C24D96EDA6A190EDA22DF50F4
:10132C00056E5C2A5C28D8B45C6AA2905B06A2802D
:06133C0005C501F51200D9
:10134400FAC423F5FBC424F51CEEB8F00801D3510C
:10135400D411D511D8B40CD001D80AD00500FA6E36
:10136400D351FD6ED451FE6ED551FF6EFA5012006A
:10137400E55224C5FBF423C5FAF41100FAC425F59B
:10138400FBC426F51CEEB8F00801D651D711D811CC
:10139400D8B40CD001D80AD00500FA6ED651FD6E2F
:1013A400D751FE6ED851FF6EFA501200E55226C591
:1013B400FBF425C5FAF41100FAC462F5FBC463F525
:1013C4001CEEB8F00801D051D111D211D8B40CD010
:1013D40001D80AD00500FA6ED051FD6ED151FE6ECF
:1013E400D251FF6EFA501200E55263C5FBF462C598
:1013F400FAF41100FAC481F5FBC482F51CEEB8F0CE
:101404000801D951DA11DB11D8B40CD001D80AD0B3
:101414000500FA6ED951FD6EDA51FE6EDB51FF6E96
:10142400FA501200E55282C5FBF481C5FAF41100AA
:10143400FAC483F5FBC484F51CEEB8F00801DC5152
:10144400DD11DE11D8B40CD001D80AD00500FA6E33
:10145400DC51FD6EDD51FE6EDE51FF6EFA5012005E
:10146400E55284C5FBF483C5FAF4110010000000B2
:101474000000000000000000000000000000000068
:101484000000000000000000001000000000000048
:101494000000000000000000000000000000000048
:1014A4000000000000000C0182510501926F916B55
:1014B4000C018451050191250701706F0C018551C0
:1014C400050192210701716F0901A351D8B404D019
:1014D400090E07017D6F12000B0E07017D6F1200CC
:1014E400C084F60E0501916F050E926F030ED72589
:1014F400936F000ED821946F966B020E956F1FECBC
:1015040002F0F6C591F5F7C592F555EC0FF091C5CB
:10151400F6F592C5F7F5C0941200A2C591F5A3C5DE
:1015240092F5A4C593F5A5C594F5A6C595F5A7C5EB
:1015340096F51FEC02F0A2C59CF5A3C59DF5A6C5C2
:101544009EF5A7C59FF5F5EC03F09CC5A2F59DC5D6
:10155400A3F5120091C596F592C597F593C598F534
:1015640094C599F596C595F597C596F595C597F5DE
:1015740098C595F599C598F595C599F596C591F5CC
:1015840097C592F598C593F599C594F51200000195
:10159400916B240E926F050E936F996B966BC984B1
:1015A400A384A380C00E0501916F240E926F000ED8
:1015B400936F6FEC11F0C20E916F240E926F000EB8
:1015C400936F68EC11F01200296A2950020D740E11
:1015D400F324D96E0B0EF420DA6EDE50DE10D8B48C
:1015E4000BD02950020D740EF324D96E0B0EF42087
:1015F400DA6EDE06000EDD5A292A0C0E2964E5D7C0
:101604001200306A3050020D740EF324D96E0B0EA2
:10161400F420DA6EDE50DE10D8B40BD03050020D58
:10162400740EF324D96E0B0EF420DA6EDE06000E6F
:10163400DD5A302A0C0E3064E5D712009C0E0501E9
:10164400916F0F0E926F590E936FFE0E946F966BFF
:10165400200E956FBFEC01F0EC0E916F0F0E926FA0
:10166400C00E936FFF0E946F966B0C0E956FBFECCC
:1016740001F012009C0E0501916F0F0E926F160E71
:10168400936FFF0E946F966B200E956FBFEC01F075
:10169400EC0E916F0F0E926FB90E936FFF0E946F55
:1016A400966B0C0E956FBFEC01F012009C0E0501B9
:1016B400916F0F0E926F520E936FFF0E946F966B95
:1016C400200E956FBFEC01F0EC0E916F0F0E926F30
:1016D400D80E936FFF0E946F966B0C0E956FBFEC44
:1016E40001F01200000E956F000E966F000E976FBA
:1016F400000E986F00000000010E05019527000EF2
:101704009623972398239551915D96519259975119
:10171400935998519459D8A01200ECD70501916FB0
:101724000501F051D8B4FCD7A7B203D091C5C9F2D2
:101734000FD0A792000EF125D96EDA6A100EDA22C4
:1017440091C5DFF4F12B3F0EF16501D0F16BF00789
:10175400A7821200EE51D8B4FDD7000EEF25D96E42
:10176400DA6A140EDA22DF50ED6F000EEF25D96E1F
:10177400DA6A1A0EDA22DF50916FEF2BEF29D8B410
:10178400EF6BA790EE07A780915112000501646FDB
:101794000501F451D8B4FCD7A2B203D064C5A3F2B6
:1017A4000FD0A292400EF525D96EDA6A100EDA2215
:1017B40064C5DFF4F52B3F0EF56501D0F56BF40736
:1017C400A282120007017E51020DD60EF324D96EB7
:1017D400090EF420DA6E84CCDEF485CCDDF47E2BA5
:1017E4000D01B851D8A404D00A0E07017D6F120070
:1017F400B86B070E07017D6F12009B6F0901A7519B
:10180400D8B41200A76BA06B000E9F6F05019B510B
:10181400D8B407D0530E53EC10F0020E68EC07F066
:101824001200530E53EC10F0080E68EC07F012008F
:10183400A06B000E9F6F0BD09EC591F5926B9CC55B
:1018440093F59DC594F592ECF7F09F4BA02B9F5117
:101854009A25D96EA0519B21DA6EDF509E6F9E515E
:10186400D8B41200E9D75550D8A412005A0E916F7B
:101874000F0E926F9CC593F59DC594F5D8909E3537
:10188400956F966B96371FEC02F0546A9EC555F51A
:10189400010E0901A46F1200030E4F185010D8B4A2
:1018A40008D00901A36B0701CE6B050ECD6F7D6BCC
:1018B400120009018651D8A404D00A0E07017D6FD5
:1018C4001200010E07017D6F120091C595F592C5B6
:1018D40096F593C5F6F494C5F7F4934B942B000E48
:1018E400F86E95C5D9F496C5DAF4954B962B080095
:1018F400F5C4DFF4DF50D8B41200EBD705019151E1
:10190400921193119411D8B408D0000E911B000EBB
:10191400921B000E931B800E941B91C591F592C5EA
:1019240092F593C593F594C594F51200ABECF9F0D8
:10193400C280C282C18600018785849F030E846FA2
:10194400859B859D858F859985938591030E866FEB
:101954008C6B070E896F848F87951200ABECF9F0BE
:10196400C280C282C18600018785849F030E846F72
:10197400859B859D858F859985938591030E866FBB
:101984008C6B070E896F848F87951200010000000D
:10199400010000000100000001000000010000003F
:1019A4000000000000000000000000000000000033
:1019B40000000000000000000000400E0501F4617A
:1019C40011D0400E5E24D96EDA6A100EDA22DF508E
:1019D4000201A36F5E2A3F0E5E6401D05E6A0501B8
:1019E400F42B1200A2921200400E0501F06111D0F6
:1019F400000E5A24D96EDA6A100EDA22DF50020180
:101A0400C96F5A2A3F0E5A6401D05A6A0501F02B55
:101A14001200A7921200DDC59EF59E51D8B40FD0D6
:101A24009CC591F59DC592F5180E936F0F0E946F9A
:101A3400D8909E35956F966B96371FEC02F0DD6B50
:101A4400120091C597F592C598F508D097C5D9F4B9
:101A540098C5DAF493C5DFF4974B982B9507D8A073
:101A640096079529F3E19629D8B41200EFD7010E11
:101A74003E6F3D6B3F6B7F0E3B6F3A6BBD96AD8601
:101A8400CC0E0501916F150E926F000E936F37EC1B
:101A940011F0C30E03013C6F1200050E0301326FF7
:101AA400316B336B790E2F6F2E6BB996A986AC0E02
:101AB4000501916F240E926F000E936F45EC11F0A7
:101AC4000301306912000C0182510501AA6FA96B50
:101AD4000C0184510501A925A76F0C01855105014D
:101AE400AA21A86F86EC06F0050E07017D6F12008F
:101AF4000C0182510501AA6FA96B0C0184510501E7
:101B0400A925A76F0C0185510501AA21A86F86ECB0
:101B140006F0040E07017D6F1200926F080E050196
:101B2400936F946BD89092359435946FD890923784
:101B34009151945DD8A002D09151945F932FF2D724
:101B440094511200D69E550EB46FAA0EB46FB49180
:101B5400D68E010EBF6F020EB66F070EBE6FD69EF5
:101B6400550EB46FAA0EB46FB481D68E120008015C
:101B7400CA51CB11CC11D8B40CD001D80AD005006D
:101B8400FA6ECA51FD6ECB51FE6ECC51FF6EFA5007
:101B9400120004010F9D1200575008019625D96EBA
:101BA400000E9721DA6E80C0DFF4572A030E5764C3
:101BB40001D0576A010EA427000EA523A623A7234C
:101BC4001200000E156E94C517F595C518F525EC91
:101BD40005F004D00000000000000000000E0BEC33
:101BE4000EF00009D8A41200F5D7A4BF05D0A3C5F0
:101BF400A3F5A4C5A4F51200A3C5A5F5A4C5A6F52F
:101C0400A51FA61FA54BA62BA5C5A3F5A6C5A4F580
:101C140012000501936F05019351020D740EF32414
:101C2400D96E0B0EF420DA6EDE50DE10D8A402D08A
:101C3400010E1200000E1200A2FF82FFAAFF92FF03
:101C44009AFF8AFF4F66666C696E650000000000AB
:101C5400454D3534300000000000000091C579FA8C
:101C640092C57AFA93C577FA94C578FA010E0A01F7
:101C74008327000E842385238623754B762B12003D
:101C8400ABECF9F0C280C2820001849F240E856F00
:101C9400020E866F020E8C6F040E896F830E846FA2
:101CA400848F12000801C751C811C911D8B4120099
:101CB40001D812000500FA6EC751FD6EC851FE6EC0
:101CC400C951FF6EFA50120009017A517B117C113F
:101CD400D8B4120001D812000500FA6E7A51FD6ED4
:101CE4007B51FE6E7C51FF6EFA50120009015F5168
:101CF40060116111D8B4120001D812000500FA6E07
:101D04005F51FD6E6051FE6E6151FF6EFA5012001C
:101D1400BE51BF11C011D8B4120001D81200050081
:101D2400FA6EBE51FD6EBF51FE6EC051FF6EFA5089
:101D34001200000103004000050000000000000044
:101D440048000001030040000400000000000000FF
:101D5400470023EEC0F001EED9F3250EDBC4EBF40B
:101D6400E806FCE20701FAA1FA81FAB31200FA8349
:101D740012000501946F020E0BEC0EF00009D8B4AA
:101D840012006A0058FF79F72AEED6F394C5DFF4FF
:021D940012003B
:101D9800FAC421F5FBC422F51CEEB8F004010FBD0E
:101DA800B9EC0DF0E55222C5FBF421C5FAF4110097
:101DB8000001919F918F94BF02D094A71200010E49
:101DC80009010C27000E0D230E230F23BF821200DA
:101DD8000501926F92C591F5030E0501911729EE41
:101DE800FAF1DF509119FC0B9119DF6E12009C0E6D
:101DF8000501916F0F0E926F2A0E936FFF0E946F6D
:101E0800966B200E956FBFEC01F01200FA0E0501DB
:101E1800916F1D0E926F946B000E936F080E966F64
:101E2800020E956F23EC0DF01200A698610046F69D
:101E380086FB61004AF687FB61004EF688FB61006D
:101E480052F689FBA6881200916F550E0001B46FF7
:101E5800AA0EB46FB49191C5B8F0550EB46FAA0E1E
:101E6800B46FB4811200916F550E0001B46FAA0EC1
:101E7800B46FB49191C5B7F0550EB46FAA0EB46F94
:101E8800B4811200916F550E0001B46FAA0EB46FA1
:101E9800B49191C5B6F0550EB46FAA0EB46FB48163
:101EA800120091C594F592C595F594C593F595C51D
:101EB80094F593C595F594C591F595C592F51200DD
:101EC800CCC5C8F5CDC5C9F5BC0ECA6F0F0ECB6F12
:101ED800B2ECFDF0C8C5CCF5C9C5CDF51200EB5183
:101EE8000501946F936B0301EA5105019325916FE6
:101EF8000301000E05019421926F120003012AA527
:101F080007D02A918AC529F389C528F32A811200A6
:0A1F18008AC529F389C528F31200D9
:101F2400FAC433F5FBC434F51CEEB8F0BD9654EC9A
:101F34000EF0E55234C5FBF433C5FAF41100030185
:101F440036A507D036913AC535F339C534F3368111
:101F540012003AC535F339C534F31200000E592482
:101F6400D96EDA6A1A0EDA22C7C2DFF4592A59285E
:101F7400D8B4596A0501EE2B120003011EA507D03F
:101F84001E9186C51DF385C51CF31E81120086C5EE
:101F94001DF385C51CF31200FF0E9125936FFF0EF0
:101FA4009221946F93C5BEFB94C5BFFB0B01C06B1C
:101FB400C16B1200010E0801AC27000EAD23AE2345
:101FC400AF23010EB027000EB123B223B3231200B6
:101FD400000E5D24D96EDA6A190EDA22A1C2DFF48A
:101FE4005D2A5D28D8B45D6A5B2A1200830E000165
:101FF400846F240E856F030E866F020E8C6F040EA1
:10200400896FC8961200380E0001456F92C544F0DE
:1020140091C543F0F80E4117408146511200030167
:1020240057B1120094C552F393C551F392C550F3BE
:1020340091C54FF31200200E0001AD6FAF6B010E7E
:10204400B36F080EB16FB06BB2B11200FDD7010EC1
:10205400266F256B276B630E236F226BB1968F0E51
:10206400246F12000001606B616B626B636B646BC5
:10207400656B666B676B686B1200000E0801AC6FD2
:10208400000EAD6F000EAE6F000EAF6F1200000EAB
:102094000801B46F000EB56F000EB66F000EB76F77
:1020A400120005019A6FFE0E68EC07F005019A51C3
:1020B40068EC07F012005650D8B404D0010E0701A2
:1020C400776FBF82CFC4EBF51200010E09014827D8
:1020D400000E49234A234B230001976B1200010E83
:1020E4000801A027000EA123A223A3239099120084
:1020F4000501DD51D8A402D0000E1200010E120019
:102104005B50D8B403D0016A012A1200016A12009C
:102114000501EE51D8B402D0010E1200000E1200D7
:102124000501916F91C5ECF30301F38FF381120064
:10213400010E0801B427000EB523B623B7231200FD
:102144006F6B6C6B6E6B6D6B706B716B726B120083
:10215400010E0801A827000EA923AA23AB2312000D
:10216400030157AB02D0010E1200000E12005550AD
:10217400D8A402D0010E1200000E120029EEFAF1CA
:10218400DF50030B3AECE6F0120005019B6F0501EA
:102194009B5153EC10F012000001E86B91C5F7F06D
:1021A40092C5F8F012000001E86B91C5EEF092C5FB
:1021B400EFF0120091C5D9F892C5DAF893C5DBF8AF
:1021C400120091C5DCF892C5DDF893C5DEF8120063
:1021D40091C5D7FA92C5D8FA93C5D9FA120091C518
:1021E400DAFA92C5DBFA93C5DCFA120091C5D4FA87
:1021F40092C5D5FA93C5D6FA120091C5E0FA92C5F4
:10220400E1FA93C5E2FA120091C5E3FA92C5E4FA41
:1022140093C5E5FA120091C5DDFA92C5DEFA93C5BD
:10222400DFFA120091C5D3F892C5D4F893C5D5F856
:10223400120091C5D6F892C5D7F893C5D8F8120004
:1022440091C5E9FA92C5EAFA93C5EBFA120091C571
:10225400ECFA92C5EDFA93C5EEFA120091C5E6FACE
:1022640092C5E7FA93C5E8FA120091C5C7F892C57A
:10227400C8F893C5C9F8120091C5BEF892C5BFF855
:1022840093C5C0F8120091C562F992C563F993C56C
:1022940064F9120091C565F992C566F993C567F9A9
:1022A400120091C55FF992C560F993C561F91200F6
:1022B40091C57AF992C57BF993C57CF91200550E44
:1022C4000001B46FAA0EB46FB481120091C5CDF8A9
:1022D40092C5CEF893C5CFF8120091C5D0F892C537
:1022E400D1F893C5D2F8120091C5CAF892C5CBF8BB
:1022F40093C5CCF8120091C56EF992C56FF993C5D8
:1023040070F9120091C568F992C569F993C56AF923
:10231400120091C56BF992C56CF993C56DF9120061
:1023240091C577F992C578F993C579F9120091C5E9
:1023340071F992C572F993C573F9120091C574F9D4
:1023440092C575F993C576F9120091C5C4F892C582
:10235400C5F893C5C6F8120091C5C1F892C5C2F874
:1023640093C5C3F8120091C5B8F892C5B9F893C5DE
:10237400BAF8120091C57DF992C57EF993C57FF92B
:10238400120091C5BBF892C5BCF893C5BDF8120004
:102394000301F3B102D0010E1200000E1200940EDC
:1023A40000017F6F400E7D6F1200276EB6A2FED72C
:1023B40027C5B6F212000501916F91C5FBF3120017
:1023C400010EE86FFC9DFC9B12000001E86BFC9D74
:1023D400FC9B12001CEEB8F0BD90E552110052C5F2
:1023E40019F351C518F31200ED07E507075719044F
:1023F4000A0E07017D6F1200080E07017D6F12009F
:10240400030E07017D6F1200DDC591F59151120095
:102414003B0E0301EC6F12001CEEB8F0E552110004
:1024240007017D6B120018EC12F012000301308FCB
:10243400120003012A81120008019087120024EC83
:1024440012F01200E86BFC8D120049EC12F012003D
:1024540003013681120030EC12F012000301248FC4
:10246400120003011E81120003011A8F1200EAEC0C
:102474000FF01200080190971200B0EC0FF0120058
:10248400010E866F1200578D1200000E12003C8F51
:102494001200C19E1200BF821200BF821200BF82CE
:1024A4001200120012001200120012001200120098
:1024B4001200120012001200120012001200120088
:0D24C400120012001200120012001200019E
:10CB94000000C0C101C30302C2C60607C705C5C45D
:10CBA40004CC0C0DCD0FCFCE0E0ACACB0BC909088D
:10CBB400C8D81819D91BDBDA1A1EDEDF1FDD1D1CCD
:10CBC400DC14D4D515D71716D6D21213D311D1D05D
:10CBD40010F03031F133F3F23236F6F737F53534FD
:10CBE400F43CFCFD3DFF3F3EFEFA3A3BFB39F9F8CD
:10CBF4003828E8E929EB2B2AEAEE2E2FEF2DEDEC6D
:10CC04002CE42425E527E7E62622E2E323E121209C
:10CC1400E0A06061A163A3A26266A6A767A565649C
:10CC2400A46CACAD6DAF6F6EAEAA6A6BAB69A9A80C
:10CC34006878B8B979BB7B7ABABE7E7FBF7DBDBC4C
:10CC44007CB47475B577B7B67672B2B373B17170DC
:10CC5400B05090915193535292965657975595943C
:10CC6400549C5C5D9D5F9F9E5E5A9A9B5B9959584C
:10CC740098884849894B8B8A4A4E8E8F4F8D4D4CEC
:10CC84008C4484854587474686824243834181801C
:10CC94004000C1814001C0804101C0804100C18188
:10CCA4004001C0804100C1814000C1814001C08079
:10CCB4004101C0804100C1814000C1814001C08068
:10CCC4004100C1814001C0804101C0804100C18157
:10CCD4004001C0804100C1814000C1814001C08049
:10CCE4004100C1814001C0804101C0804100C18137
:10CCF4004000C1814001C0804101C0804100C18128
:10CD04004001C0804100C1814000C1814001C08018
:10CD14004101C0804100C1814000C1814001C08007
:10CD24004100C1814001C0804101C0804100C181F6
:10CD34004000C1814001C0804101C0804100C181E7
:10CD44004001C0804100C1814000C1814001C080D8
:10CD54004100C1814001C0804101C0804100C181C6
:10CD64004001C0804100C1814000C1814001C080B8
:10CD74004101C0804100C1814000C1814001C080A7
:10CD84004100C1814001C0804101C0804100C18196
:10CD94004000C0C101C30302C2C60607C705C5C41B
:10CDA40004CC0C0DCD0FCFCE0E0ACACB0BC909088B
:10CDB400C8D81819D91BDBDA1A1EDEDF1FDD1D1CCB
:10CDC400DC14D4D515D71716D6D21213D311D1D05B
:10CDD40010F03031F133F3F23236F6F737F53534FB
:10CDE400F43CFCFD3DFF3F3EFEFA3A3BFB39F9F8CB
:10CDF4003828E8E929EB2B2AEAEE2E2FEF2DEDEC6B
:10CE04002CE42425E527E7E62622E2E323E121209A
:10CE1400E0A06061A163A3A26266A6A767A565649A
:10CE2400A46CACAD6DAF6F6EAEAA6A6BAB69A9A80A
:10CE34006878B8B979BB7B7ABABE7E7FBF7DBDBC4A
:10CE44007CB47475B577B7B67672B2B373B17170DA
:10CE5400B05090915193535292965657975595943A
:10CE6400549C5C5D9D5F9F9E5E5A9A9B5B9959584A
:10CE740098884849894B8B8A4A4E8E8F4F8D4D4CEA
:10CE84008C4484854587474686824243834181801A
:10CE94004000C1814001C0804101C0804100C18186
:10CEA4004001C0804100C1814000C1814001C08077
:10CEB4004101C0804100C1814000C1814001C08066
:10CEC4004100C1814001C0804101C0804100C18155
:10CED4004001C0804100C1814000C1814001C08047
:10CEE4004100C1814001C0804101C0804100C18135
:10CEF4004000C1814001C0804101C0804100C18126
:10CF04004001C0804100C1814000C1814001C08016
:10CF14004101C0804100C1814000C1814001C08005
:10CF24004100C1814001C0804101C0804100C181F4
:10CF34004000C1814001C0804101C0804100C181E5
:10CF44004001C0804100C1814000C1814001C080D6
:10CF54004100C1814001C0804101C0804100C181C4
:10CF64004001C0804100C1814000C1814001C080B6
:10CF74004101C0804100C1814000C1814001C080A5
:10CF84004100C1814001C0804101C0804100C18194
:10CF94004000C0C101C30302C2C60607C705C5C419
:10CFA40004CC0C0DCD0FCFCE0E0ACACB0BC9090889
:10CFB400C8D81819D91BDBDA1A1EDEDF1FDD1D1CC9
:10CFC400DC14D4D515D71716D6D21213D311D1D059
:10CFD40010F03031F133F3F23236F6F737F53534F9
:10CFE400F43CFCFD3DFF3F3EFEFA3A3BFB39F9F8C9
:10CFF4003828E8E929EB2B2AEAEE2E2FEF2DEDEC69
:10D004002CE42425E527E7E62622E2E323E1212098
:10D01400E0A06061A163A3A26266A6A767A5656498
:10D02400A46CACAD6DAF6F6EAEAA6A6BAB69A9A808
:10D034006878B8B979BB7B7ABABE7E7FBF7DBDBC48
:10D044007CB47475B577B7B67672B2B373B17170D8
:10D05400B050909151935352929656579755959438
:10D06400549C5C5D9D5F9F9E5E5A9A9B5B99595848
:10D0740098884849894B8B8A4A4E8E8F4F8D4D4CE8
:10D084008C44848545874746868242438341818018
:10D094004000C1814001C0804101C0804100C18184
:10D0A4004001C0804100C1814000C1814001C08075
:10D0B4004101C0804100C1814000C1814001C08064
:10D0C4004100C1814001C0804101C0804100C18153
:10D0D4004001C0804100C1814000C1814001C08045
:10D0E4004100C1814001C0804101C0804100C18133
:10D0F4004000C1814001C0804101C0804100C18124
:10D104004001C0804100C1814000C1814001C08014
:10D114004101C0804100C1814000C1814001C08003
:10D124004100C1814001C0804101C0804100C181F2
:10D134004000C1814001C0804101C0804100C181E3
:10D144004001C0804100C1814000C1814001C080D4
:10D154004100C1814001C0804101C0804100C181C2
:10D164004001C0804100C1814000C1814001C080B4
:10D174004101C0804100C1814000C1814001C080A3
:10D184004100C1814001C0804101C0804100C18192
:10D194004000C0C101C30302C2C60607C705C5C417
:10D1A40004CC0C0DCD0FCFCE0E0ACACB0BC9090887
:10D1B400C8D81819D91BDBDA1A1EDEDF1FDD1D1CC7
:10D1C400DC14D4D515D71716D6D21213D311D1D057
:10D1D40010F03031F133F3F23236F6F737F53534F7
:10D1E400F43CFCFD3DFF3F3EFEFA3A3BFB39F9F8C7
:10D1F4003828E8E929EB2B2AEAEE2E2FEF2DEDEC67
:10D204002CE42425E527E7E62622E2E323E1212096
:10D21400E0A06061A163A3A26266A6A767A5656496
:10D22400A46CACAD6DAF6F6EAEAA6A6BAB69A9A806
:10D234006878B8B979BB7B7ABABE7E7FBF7DBDBC46
:10D244007CB47475B577B7B67672B2B373B17170D6
:10D25400B050909151935352929656579755959436
:10D26400549C5C5D9D5F9F9E5E5A9A9B5B99595846
:10D2740098884849894B8B8A4A4E8E8F4F8D4D4CE6
:10D284008C44848545874746868242438341818016
:10D294004000C1814001C0804101C0804100C18182
:10D2A4004001C0804100C1814000C1814001C08073
:10D2B4004101C0804100C1814000C1814001C08062
:10D2C4004100C1814001C0804101C0804100C18151
:10D2D4004001C0804100C1814000C1814001C08043
:10D2E4004100C1814001C0804101C0804100C18131
:10D2F4004000C1814001C0804101C0804100C18122
:10D304004001C0804100C1814000C1814001C08012
:10D314004101C0804100C1814000C1814001C08001
:10D324004100C1814001C0804101C0804100C181F0
:10D334004000C1814001C0804101C0804100C181E1
:10D344004001C0804100C1814000C1814001C080D2
:10D354004100C1814001C0804101C0804100C181C0
:10D364004001C0804100C1814000C1814001C080B2
:10D374004101C0804100C1814000C1814001C080A1
:10D384004100C1814001C0804101C0804100C18190
:10D394004000C0C101C30302C2C60607C705C5C415
:10D3A40004CC0C0DCD0FCFCE0E0ACACB0BC9090885
:10D3B400C8D81819D91BDBDA1A1EDEDF1FDD1D1CC5
:10D3C400DC14D4D515D71716D6D21213D311D1D055
:10D3D40010F03031F133F3F23236F6F737F53534F5
:10D3E400F43CFCFD3DFF3F3EFEFA3A3BFB39F9F8C5
:10D3F4003828E8E929EB2B2AEAEE2E2FEF2DEDEC65
:10D404002CE42425E527E7E62622E2E323E1212094
:10D41400E0A06061A163A3A26266A6A767A5656494
:10D42400A46CACAD6DAF6F6EAEAA6A6BAB69A9A804
:10D434006878B8B979BB7B7ABABE7E7FBF7DBDBC44
:10D444007CB47475B577B7B67672B2B373B17170D4
:10D45400B050909151935352929656579755959434
:10D46400549C5C5D9D5F9F9E5E5A9A9B5B99595844
:10D4740098884849894B8B8A4A4E8E8F4F8D4D4CE4
:10D484008C44848545874746868242438341818014
:10D494004000C1814001C0804101C0804100C18180
:10D4A4004001C0804100C1814000C1814001C08071
:10D4B4004101C0804100C1814000C1814001C08060
:10D4C4004100C1814001C0804101C0804100C1814F
:10D4D4004001C0804100C1814000C1814001C08041
:10D4E4004100C1814001C0804101C0804100C1812F
:10D4F4004000C1814001C0804101C0804100C18120
:10D504004001C0804100C1814000C1814001C08010
:10D514004101C0804100C1814000C1814001C080FF
:10D524004100C1814001C0804101C0804100C181EE
:10D534004000C1814001C0804101C0804100C181DF
:10D544004001C0804100C1814000C1814001C080D0
:10D554004100C1814001C0804101C0804100C181BE
:10D564004001C0804100C1814000C1814001C080B0
:10D574004101C0804100C1814000C1814001C0809F
:10D584004100C1814001C0804101C0804100C1818E
:10D594004000C0C101C30302C2C60607C705C5C413
:10D5A40004CC0C0DCD0FCFCE0E0ACACB0BC9090883
:10D5B400C8D81819D91BDBDA1A1EDEDF1FDD1D1CC3
:10D5C400DC14D4D515D71716D6D21213D311D1D053
:10D5D40010F03031F133F3F23236F6F737F53534F3
:10D5E400F43CFCFD3DFF3F3EFEFA3A3BFB39F9F8C3
:10D5F4003828E8E929EB2B2AEAEE2E2FEF2DEDEC63
:10D604002CE42425E527E7E62622E2E323E1212092
:10D61400E0A06061A163A3A26266A6A767A5656492
:10D62400A46CACAD6DAF6F6EAEAA6A6BAB69A9A802
:10D634006878B8B979BB7B7ABABE7E7FBF7DBDBC42
:10D644007CB47475B577B7B67672B2B373B17170D2
:10D65400B050909151935352929656579755959432
:10D66400549C5C5D9D5F9F9E5E5A9A9B5B99595842
:10D6740098884849894B8B8A4A4E8E8F4F8D4D4CE2
:10D684008C44848545874746868242438341818012
:10D694004000C1814001C0804101C0804100C1817E
:10D6A4004001C0804100C1814000C1814001C0806F
:10D6B4004101C0804100C1814000C1814001C0805E
:10D6C4004100C1814001C0804101C0804100C1814D
:10D6D4004001C0804100C1814000C1814001C0803F
:10D6E4004100C1814001C0804101C0804100C1812D
:10D6F4004000C1814001C0804101C0804100C1811E
:10D704004001C0804100C1814000C1814001C0800E
:10D714004101C0804100C1814000C1814001C080FD
:10D724004100C1814001C0804101C0804100C181EC
:10D734004000C1814001C0804101C0804100C181DD
:10D744004001C0804100C1814000C1814001C080CE
:10D754004100C1814001C0804101C0804100C181BC
:10D764004001C0804100C1814000C1814001C080AE
:10D774004101C0804100C1814000C1814001C0809D
:10D784004100C1814001C0804101C0804100C1818C
:10D794004000C0C101C30302C2C60607C705C5C411
:10D7A40004CC0C0DCD0FCFCE0E0ACACB0BC9090881
:10D7B400C8D81819D91BDBDA1A1EDEDF1FDD1D1CC1
:10D7C400DC14D4D515D71716D6D21213D311D1D051
:10D7D40010F03031F133F3F23236F6F737F53534F1
:10D7E400F43CFCFD3DFF3F3EFEFA3A3BFB39F9F8C1
:10D7F4003828E8E929EB2B2AEAEE2E2FEF2DEDEC61
:10D804002CE42425E527E7E62622E2E323E1212090
:10D81400E0A06061A163A3A26266A6A767A5656490
:10D82400A46CACAD6DAF6F6EAEAA6A6BAB69A9A800
:10D834006878B8B979BB7B7ABABE7E7FBF7DBDBC40
:10D844007CB47475B577B7B67672B2B373B17170D0
:10D85400B050909151935352929656579755959430
:10D86400549C5C5D9D5F9F9E5E5A9A9B5B99595840
:10D8740098884849894B8B8A4A4E8E8F4F8D4D4CE0
:10D884008C44848545874746868242438341818010
:10D894004000C1814001C0804101C0804100C1817C
:10D8A4004001C0804100C1814000C1814001C0806D
:10D8B4004101C0804100C1814000C1814001C0805C
:10D8C4004100C1814001C0804101C0804100C1814B
:10D8D4004001C0804100C1814000C1814001C0803D
:10D8E4004100C1814001C0804101C0804100C1812B
:10D8F4004000C1814001C0804101C0804100C1811C
:10D904004001C0804100C1814000C1814001C0800C
:10D914004101C0804100C1814000C1814001C080FB
:10D924004100C1814001C0804101C0804100C181EA
:10D934004000C1814001C0804101C0804100C181DB
:10D944004001C0804100C1814000C1814001C080CC
:10D954004100C1814001C0804101C0804100C181BA
:10D964004001C0804100C1814000C1814001C080AC
:10D974004101C0804100C1814000C1814001C0809B
:10D984004100C1814001C0804101C0804100C1818A
:10D994004000C0C101C30302C2C60607C705C5C40F
:10D9A40004CC0C0DCD0FCFCE0E0ACACB0BC909087F
:10D9B400C8D81819D91BDBDA1A1EDEDF1FDD1D1CBF
:10D9C400DC14D4D515D71716D6D21213D311D1D04F
:10D9D40010F03031F133F3F23236F6F737F53534EF
:10D9E400F43CFCFD3DFF3F3EFEFA3A3BFB39F9F8BF
:10D9F4003828E8E929EB2B2AEAEE2E2FEF2DEDEC5F
:10DA04002CE42425E527E7E62622E2E323E121208E
:10DA1400E0A06061A163A3A26266A6A767A565648E
:10DA2400A46CACAD6DAF6F6EAEAA6A6BAB69A9A8FE
:10DA34006878B8B979BB7B7ABABE7E7FBF7DBDBC3E
:10DA44007CB47475B577B7B67672B2B373B17170CE
:10DA5400B05090915193535292965657975595942E
:10DA6400549C5C5D9D5F9F9E5E5A9A9B5B9959583E
:10DA740098884849894B8B8A4A4E8E8F4F8D4D4CDE
:10DA84008C4484854587474686824243834181800E
:10DA94004000C1814001C0804101C0804100C1817A
:10DAA4004001C0804100C1814000C1814001C0806B
:10DAB4004101C0804100C1814000C1814001C0805A
:10DAC4004100C1814001C0804101C0804100C18149
:10DAD4004001C0804100C1814000C1814001C0803B
:10DAE4004100C1814001C0804101C0804100C18129
:10DAF4004000C1814001C0804101C0804100C1811A
:10DB04004001C0804100C1814000C1814001C0800A
:10DB14004101C0804100C1814000C1814001C080F9
:10DB24004100C1814001C0804101C0804100C181E8
:10DB34004000C1814001C0804101C0804100C181D9
:10DB44004001C0804100C1814000C1814001C080CA
:10DB54004100C1814001C0804101C0804100C181B8
:10DB64004001C0804100C1814000C1814001C080AA
:10DB74004101C0804100C1814000C1814001C08099
:10DB84004100C1814001C0804101C0804100C18188
:10DB94004000C0C101C30302C2C60607C705C5C40D
:10DBA40004CC0C0DCD0FCFCE0E0ACACB0BC909087D
:10DBB400C8D81819D91BDBDA1A1EDEDF1FDD1D1CBD
:10DBC400DC14D4D515D71716D6D21213D311D1D04D
:10DBD40010F03031F133F3F23236F6F737F53534ED
:10DBE400F43CFCFD3DFF3F3EFEFA3A3BFB39F9F8BD
:10DBF4003828E8E929EB2B2AEAEE2E2FEF2DEDEC5D
:10DC04002CE42425E527E7E62622E2E323E121208C
:10DC1400E0A06061A163A3A26266A6A767A565648C
:10DC2400A46CACAD6DAF6F6EAEAA6A6BAB69A9A8FC
:10DC34006878B8B979BB7B7ABABE7E7FBF7DBDBC3C
:10DC44007CB47475B577B7B67672B2B373B17170CC
:10DC5400B05090915193535292965657975595942C
:10DC6400549C5C5D9D5F9F9E5E5A9A9B5B9959583C
:10DC740098884849894B8B8A4A4E8E8F4F8D4D4CDC
:10DC84008C4484854587474686824243834181800C
:10DC94004000C1814001C0804101C0804100C18178
:10DCA4004001C0804100C1814000C1814001C08069
:10DCB4004101C0804100C1814000C1814001C08058
:10DCC4004100C1814001C0804101C0804100C18147
:10DCD4004001C0804100C1814000C1814001C08039
:10DCE4004100C1814001C0804101C0804100C18127
:10DCF4004000C1814001C0804101C0804100C18118
:10DD04004001C0804100C1814000C1814001C08008
:10DD14004101C0804100C1814000C1814001C080F7
:10DD24004100C1814001C0804101C0804100C181E6
:10DD34004000C1814001C0804101C0804100C181D7
:10DD44004001C0804100C1814000C1814001C080C8
:10DD54004100C1814001C0804101C0804100C181B6
:10DD64004001C0804100C1814000C1814001C080A8
:10DD74004101C0804100C1814000C1814001C08097
:10DD84004100C1814001C0804101C0804100C18186
:10DD94004000C0C101C30302C2C60607C705C5C40B
:10DDA40004CC0C0DCD0FCFCE0E0ACACB0BC909087B
:10DDB400C8D81819D91BDBDA1A1EDEDF1FDD1D1CBB
:10DDC400DC14D4D515D71716D6D21213D311D1D04B
:10DDD40010F03031F133F3F23236F6F737F53534EB
:10DDE400F43CFCFD3DFF3F3EFEFA3A3BFB39F9F8BB
:10DDF4003828E8E929EB2B2AEAEE2E2FEF2DEDEC5B
:10DE04002CE42425E527E7E62622E2E323E121208A
:10DE1400E0A06061A163A3A26266A6A767A565648A
:10DE2400A46CACAD6DAF6F6EAEAA6A6BAB69A9A8FA
:10DE34006878B8B979BB7B7ABABE7E7FBF7DBDBC3A
:10DE44007CB47475B577B7B67672B2B373B17170CA
:10DE5400B05090915193535292965657975595942A
:10DE6400549C5C5D9D5F9F9E5E5A9A9B5B9959583A
:10DE740098884849894B8B8A4A4E8E8F4F8D4D4CDA
:10DE84008C4484854587474686824243834181800A
:10DE94004000C1814001C0804101C0804100C18176
:10DEA4004001C0804100C1814000C1814001C08067
:10DEB4004101C0804100C1814000C1814001C08056
:10DEC4004100C1814001C0804101C0804100C18145
:10DED4004001C0804100C1814000C1814001C08037
:10DEE4004100C1814001C0804101C0804100C18125
:10DEF4004000C1814001C0804101C0804100C18116
:10DF04004001C0804100C1814000C1814001C08006
:10DF14004101C0804100C1814000C1814001C080F5
:10DF24004100C1814001C0804101C0804100C181E4
:10DF34004000C1814001C0804101C0804100C181D5
:10DF44004001C0804100C1814000C1814001C080C6
:10DF54004100C1814001C0804101C0804100C181B4
:10DF64004001C0804100C1814000C1814001C080A6
:10DF74004101C0804100C1814000C1814001C08095
:10DF84004100C1814001C0804101C0804100C18184
:10DF94004000C0C101C30302C2C60607C705C5C409
:10DFA40004CC0C0DCD0FCFCE0E0ACACB0BC9090879
:10DFB400C8D81819D91BDBDA1A1EDEDF1FDD1D1CB9
:10DFC400DC14D4D515D71716D6D21213D311D1D049
:10DFD40010F03031F133F3F23236F6F737F53534E9
:10DFE400F43CFCFD3DFF3F3EFEFA3A3BFB39F9F8B9
:10DFF4003828E8E929EB2B2AEAEE2E2FEF2DEDEC59
:10E004002CE42425E527E7E62622E2E323E1212088
:10E01400E0A06061A163A3A26266A6A767A5656488
:10E02400A46CACAD6DAF6F6EAEAA6A6BAB69A9A8F8
:10E034006878B8B979BB7B7ABABE7E7FBF7DBDBC38
:10E044007CB47475B577B7B67672B2B373B17170C8
:10E05400B050909151935352929656579755959428
:10E06400549C5C5D9D5F9F9E5E5A9A9B5B99595838
:10E0740098884849894B8B8A4A4E8E8F4F8D4D4CD8
:10E084008C44848545874746868242438341818008
:10E094004000C1814001C0804101C0804100C18174
:10E0A4004001C0804100C1814000C1814001C08065
:10E0B4004101C0804100C1814000C1814001C08054
:10E0C4004100C1814001C0804101C0804100C18143
:10E0D4004001C0804100C1814000C1814001C08035
:10E0E4004100C1814001C0804101C0804100C18123
:10E0F4004000C1814001C0804101C0804100C18114
:10E104004001C0804100C1814000C1814001C08004
:10E114004101C0804100C1814000C1814001C080F3
:10E124004100C1814001C0804101C0804100C181E2
:10E134004000C1814001C0804101C0804100C181D3
:10E144004001C0804100C1814000C1814001C080C4
:10E154004100C1814001C0804101C0804100C181B2
:10E164004001C0804100C1814000C1814001C080A4
:10E174004101C0804100C1814000C1814001C08093
:10E184004100C1814001C0804101C0804100C18182
:10E194004000C0C101C30302C2C60607C705C5C407
:10E1A40004CC0C0DCD0FCFCE0E0ACACB0BC9090877
:10E1B400C8D81819D91BDBDA1A1EDEDF1FDD1D1CB7
:10E1C400DC14D4D515D71716D6D21213D311D1D047
:10E1D40010F03031F133F3F23236F6F737F53534E7
:10E1E400F43CFCFD3DFF3F3EFEFA3A3BFB39F9F8B7
:10E1F4003828E8E929EB2B2AEAEE2E2FEF2DEDEC57
:10E204002CE42425E527E7E62622E2E323E1212086
:10E21400E0A06061A163A3A26266A6A767A5656486
:10E22400A46CACAD6DAF6F6EAEAA6A6BAB69A9A8F6
:10E234006878B8B979BB7B7ABABE7E7FBF7DBDBC36
:10E244007CB47475B577B7B67672B2B373B17170C6
:10E25400B050909151935352929656579755959426
:10E26400549C5C5D9D5F9F9E5E5A9A9B5B99595836
:10E2740098884849894B8B8A4A4E8E8F4F8D4D4CD6
:10E284008C44848545874746868242438341818006
:10E294004000C1814001C0804101C0804100C18172
:10E2A4004001C0804100C1814000C1814001C08063
:10E2B4004101C0804100C1814000C1814001C08052
:10E2C4004100C1814001C0804101C0804100C18141
:10E2D4004001C0804100C1814000C1814001C08033
:10E2E4004100C1814001C0804101C0804100C18121
:10E2F4004000C1814001C0804101C0804100C18112
:10E304004001C0804100C1814000C1814001C08002
:10E314004101C0804100C1814000C1814001C080F1
:10E324004100C1814001C0804101C0804100C181E0
:10E334004000C1814001C0804101C0804100C181D1
:10E344004001C0804100C1814000C1814001C080C2
:10E354004100C1814001C0804101C0804100C181B0
:10E364004001C0804100C1814000C1814001C080A2
:10E374004101C0804100C1814000C1814001C08091
:10E384004100C1814001C0804101C0804100C18180
:10E394004000C0C101C30302C2C60607C705C5C405
:10E3A40004CC0C0DCD0FCFCE0E0ACACB0BC9090875
:10E3B400C8D81819D91BDBDA1A1EDEDF1FDD1D1CB5
:10E3C400DC14D4D515D71716D6D21213D311D1D045
:10E3D40010F03031F133F3F23236F6F737F53534E5
:10E3E400F43CFCFD3DFF3F3EFEFA3A3BFB39F9F8B5
:10E3F4003828E8E929EB2B2AEAEE2E2FEF2DEDEC55
:10E404002CE42425E527E7E62622E2E323E1212084
:10E41400E0A06061A163A3A26266A6A767A5656484
:10E42400A46CACAD6DAF6F6EAEAA6A6BAB69A9A8F4
:10E434006878B8B979BB7B7ABABE7E7FBF7DBDBC34
:10E444007CB47475B577B7B67672B2B373B17170C4
:10E45400B050909151935352929656579755959424
:10E46400549C5C5D9D5F9F9E5E5A9A9B5B99595834
:10E4740098884849894B8B8A4A4E8E8F4F8D4D4CD4
:10E484008C44848545874746868242438341818004
:10E494004000C1814001C0804101C0804100C18170
:10E4A4004001C0804100C1814000C1814001C08061
:10E4B4004101C0804100C1814000C1814001C08050
:10E4C4004100C1814001C0804101C0804100C1813F
:10E4D4004001C0804100C1814000C1814001C08031
:10E4E4004100C1814001C0804101C0804100C1811F
:10E4F4004000C1814001C0804101C0804100C18110
:10E504004001C0804100C1814000C1814001C08000
:10E514004101C0804100C1814000C1814001C080EF
:10E524004100C1814001C0804101C0804100C181DE
:10E534004000C1814001C0804101C0804100C181CF
:10E544004001C0804100C1814000C1814001C080C0
:10E554004100C1814001C0804101C0804100C181AE
:10E564004001C0804100C1814000C1814001C080A0
:10E574004101C0804100C1814000C1814001C0808F
:10E584004100C1814001C0804101C0804100C1817E
:10E594004000C0C101C30302C2C60607C705C5C403
:10E5A40004CC0C0DCD0FCFCE0E0ACACB0BC9090873
:10E5B400C8D81819D91BDBDA1A1EDEDF1FDD1D1CB3
:10E5C400DC14D4D515D71716D6D21213D311D1D043
:10E5D40010F03031F133F3F23236F6F737F53534E3
:10E5E400F43CFCFD3DFF3F3EFEFA3A3BFB39F9F8B3
:10E5F4003828E8E929EB2B2AEAEE2E2FEF2DEDEC53
:10E604002CE42425E527E7E62622E2E323E1212082
:10E61400E0A06061A163A3A26266A6A767A5656482
:10E62400A46CACAD6DAF6F6EAEAA6A6BAB69A9A8F2
:10E634006878B8B979BB7B7ABABE7E7FBF7DBDBC32
:10E644007CB47475B577B7B67672B2B373B17170C2
:10E65400B050909151935352929656579755959422
:10E66400549C5C5D9D5F9F9E5E5A9A9B5B99595832
:10E6740098884849894B8B8A4A4E8E8F4F8D4D4CD2
:10E684008C44848545874746868242438341818002
:10E694004000C1814001C0804101C0804100C1816E
:10E6A4004001C0804100C1814000C1814001C0805F
:10E6B4004101C0804100C1814000C1814001C0804E
:10E6C4004100C1814001C0804101C0804100C1813D
:10E6D4004001C0804100C1814000C1814001C0802F
:10E6E4004100C1814001C0804101C0804100C1811D
:10E6F4004000C1814001C0804101C0804100C1810E
:10E704004001C0804100C1814000C1814001C080FE
:10E714004101C0804100C1814000C1814001C080ED
:10E724004100C1814001C0804101C0804100C181DC
:10E734004000C1814001C0804101C0804100C181CD
:10E744004001C0804100C1814000C1814001C080BE
:10E754004100C1814001C0804101C0804100C181AC
:10E764004001C0804100C1814000C1814001C0809E
:10E774004101C0804100C1814000C1814001C0808D
:10E784004100C1814001C0804101C0804100C1817C
:10E794004000C0C101C30302C2C60607C705C5C401
:10E7A40004CC0C0DCD0FCFCE0E0ACACB0BC9090871
:10E7B400C8D81819D91BDBDA1A1EDEDF1FDD1D1CB1
:10E7C400DC14D4D515D71716D6D21213D311D1D041
:10E7D40010F03031F133F3F23236F6F737F53534E1
:10E7E400F43CFCFD3DFF3F3EFEFA3A3BFB39F9F8B1
:10E7F4003828E8E929EB2B2AEAEE2E2FEF2DEDEC51
:10E804002CE42425E527E7E62622E2E323E1212080
:10E81400E0A06061A163A3A26266A6A767A5656480
:10E82400A46CACAD6DAF6F6EAEAA6A6BAB69A9A8F0
:10E834006878B8B979BB7B7ABABE7E7FBF7DBDBC30
:10E844007CB47475B577B7B67672B2B373B17170C0
:10E85400B050909151935352929656579755959420
:10E86400549C5C5D9D5F9F9E5E5A9A9B5B99595830
:10E8740098884849894B8B8A4A4E8E8F4F8D4D4CD0
:10E884008C44848545874746868242438341818000
:10E894004000C1814001C0804101C0804100C1816C
:10E8A4004001C0804100C1814000C1814001C0805D
:10E8B4004101C0804100C1814000C1814001C0804C
:10E8C4004100C1814001C0804101C0804100C1813B
:10E8D4004001C0804100C1814000C1814001C0802D
:10E8E4004100C1814001C0804101C0804100C1811B
:10E8F4004000C1814001C0804101C0804100C1810C
:10E904004001C0804100C1814000C1814001C080FC
:10E914004101C0804100C1814000C1814001C080EB
:10E924004100C1814001C0804101C0804100C181DA
:10E934004000C1814001C0804101C0804100C181CB
:10E944004001C0804100C1814000C1814001C080BC
:10E954004100C1814001C0804101C0804100C181AA
:10E964004001C0804100C1814000C1814001C0809C
:10E974004101C0804100C1814000C1814001C0808B
:10E984004100C1814001C0804101C0804100C1817A
:10E99400400103000000000000000000000000002F
:10E9A4000000000000000000000000000000000063
:10E9B4000000000000000000000000000000000053
:10E9C4000000000000000000000000000000000043
:10E9D4000000000000000000000000000000000033
:10E9E4000000000000000000000000000000000023
:10E9F4000000000000000000000000000000000013
:10EA04000000000000000000000000000000000002
:10EA140000000000000000000000000000000000F2
:10EA240000000000000000000000020400000000DC
:10EA340000000000000000000000000000000000D2
:10EA440000000000000000000000000000000000C2
:10EA540000000000000000000000000000000000B2
:10EA640000000000000000000000000000000000A2
:10EA74000000000000000000000000000000000092
:10EA84000000000000000000000000000000000082
:10EA94000000000000000000000000000000000072
:10EAA4000000000000000000000000000000000161
:10EAB400030000000000000000000000000000004F
:10EAC4000000000000000000000000000000000042
:10EAD4000000000000000000000000000000000032
:10EAE4000000000000000000000000000000000022
:10EAF4000000000000000000000000000000000012
:10EB04000000000000000000000000000000000001
:10EB140000000000000000000000000000000000F1
:10EB240000000000000000000000000000000000E1
:10EB340000000000010300000000000000000000CD
:10EB440000000000000000000000000000000000C1
:10EB540000000000000000000000000000000000B1
:10EB640000000000000000000000000000000000A1
:10EB74000000000000000000000000000000000091
:10EB84000000000000000000000000000000000081
:10EB94000000000000000000000000000000000071
:10EBA400000AD7233CCDCCCC3DCDCC4C3E9A999990
:10EBB4003E0000003F9A99193F6666263F3333337F
:10EBC4003F6666663FA4707D3F0000803F00008082
:10EBD4003F0000A0410000C841CDCCC8416666CAD0
:10EBE400410000CC416666CE410000D0419A99D1E3
:10EBF40041CDCCD4416666D6419A99D94100000CE6
:10EC040042257320256420257320202020202020E5
:10EC140020202020202020202020202020202020F0
:10EC24002020202020202020202020202020200000
:10EC34004F4E4C494E45204125642C2052256420DA
:10EC4400524625642C2054256420544625642C20E7
:10EC5400432564202564202573202020202000489B
:10EC64006F7374204125642C20522564205246255C
:10EC7400642C2054256420544625642C20432564A8
:10EC84002025642025732020202020202000554E9C
:10EC94004B20464F524D4154204125642C2052258F
:10ECA4006420524625642C2054256420544625644F
:10ECB4002C20432564202573202020002573202543
:10ECC40073202020202020202020202020202020ED
:10ECD4002020202020202020202020202020202030
:10ECE4002020202020200025732025732020202090
:10ECF4002020202020202020202020202020202010
:10ED0400202020202020202020202020202000013E
:10ED140003000000000000000000000000000000EC
:10ED240000000000000000000000000000000000DF
:10ED340056332E303120464D783020696E7465721A
:10ED44006661636520513834004F66666C696E6590
:10ED5400000000000043414E4255530000000000F3
:10ED6400000103000000000000000000000000009B
:10ED7400000000000000000103000000D6000000B5
:10ED840001000000DA00000103000000D6000000CA
:10ED940000000000D9001F1E1F1E1F1F1E1F1E1F64
:10EDA4001F1D0210000100020402000000021000F6
:10EDB400010002040201000002100001000204022A
:10EDC4000101000210000200010200000210000212
:10EDD4000001020100021000000000000000030016
:10EDE400040001C41A01060000000000000106002E
:10EDF4000000000000010600000000000001030004
:10EE04000000000001030000000000832003040050
:10EE14000024050001832403040000008841CD0C74
:10EE24000543E5612140000000000000804500002A
:10EE34008841CD0C0543E56121400080804200807B
:10EE44008042000000000000804500008841CD0C95
:10EE54000543E5612140008080420080804200003B
:10EE640000000000804500008841CD0C0543E561A9
:10EE740021400080804200808042000000000000A9
:10EE84008045BC000000BA7FFFFEC800800034004B
:10EE9400000000008841CD0C0543E561214000805D
:10EEA4008042008080420000000000008045000095
:10EEB4008841CD0C0543E5612140008080420080FB
:10EEC4008042000000000000804500008841CD0C15
:10EED4000543E561214000808042008080420000BB
:10EEE40000000000804500008841CD0C0543E56129
:10EEF4002140008080420080804200000000000029
:10EF0400804500008841CD0C0543E5612140008027
:10EF14008042008080420000000000008045000024
:10EF24008841CD0C0543E56121400080804200808A
:10EF3400804200000000000080450000884100007D
:10EF4400804518000002008813040002002800B065
:10EF540004020002000300020088130400020028D7
:10EF640000B004020002000300B004DC05F40164F4
:10EF740000400660091027B80B3075059904990301
:10EF840099B004DC05F4016400400660091027B858
:10EF94000B059904990399B004DC05F4016400405D
:10EFA4000660091027B80B059904990399B004DC8D
:10EFB40005F4016400400660091027B80B059904A4
:10EFC400990399B004DC05F401640040066009105B
:10EFD40027B80B059904990399B004DC05F401647E
:10EFE40000400660091027B80BB004DC05F4016486
:10EFF40000400660091027B80B059904990399B0DD
:10F0040004DC05F4016400400660091027B80BB065
:10F0140004DC05F4016400400660091027B80B30D5
:10F0240075059904990399B004DC05F40164004062
:10F034000660091027B80B3075E8FF3C0023000573
:10F044009904990399B004DC05F401640040066056
:10F05400091027B80BFF000228040228C80102FF88
:10F06400000228040228C80102FF00022804022822
:10F07400C8010206465A2D01204601FF0002280459
:10F084000228C80102FF000228040228C8010280E5
:10F0940003C801070707070707070D050440400FCA
:10F0A400F001050F67FF4010F0E0D0C0B0A09080E1
:10F0B4000006465A2D01204601FF000228040228BA
:10F0C400C80102070707070707070D050440400F9B
:10F0D400F001050F67FF4010F0E0D0C0B0A09080B1
:10F0E4000006465A2D01204601FF0002280402288A
:10F0F400C80102070707070707070D050440400F6B
:10F10400F001050F67FF4010F0E0D0C0B0A0908080
:10F114000006465A2D01204601FF00022804022859
:10F12400C80102070707070707070D050440400F3A
:10F13400F001050F67FF4010F0E0D0C0B0A0908050
:10F144000006465A2D01204601FF00022804022829
:10F15400C80102070707070707070D050440400F0A
:10F16400F001050F67FF4010F0E0D0C0B0A0908020
:10F174000006465A2D01204601FF000228040228F9
:10F18400C8010206465A2D01204601FF0002280448
:10F194000228C80102070707070707070D050440EF
:10F1A400400FF001050F67FF4010F0E0D0C0B0A0A1
:10F1B40090800006465A2D01204601FF00022804D3
:10F1C4000228C8010206465A2D01204601FF00020A
:10F1D40028040228C801028003C80107070707079B
:10F1E40007070D050440400FF001050F67FF4010AD
:10F1F400F0E0D0C0B0A090800006465A2D01204611
:10F2040001FF000228040228C801028003C8010784
:10F214000707070707070D050440400FF001050F16
:10F2240067FF4010F0E0D0C0B0A090800006465ABE
:10F234002D01204601FF000228040228C801025EB5
:10F244002C25642C25332E32662C25332E32662C45
:10F2540025332E32662C25332E32662C25332E325E
:10F26400662C25332E32662C25332E32662C25331C
:10F274002E32662C25642E253031642C25642E25EF
:10F284003031642C25642E253031642C25642C25E2
:10F29400642C25642C25642C25642C256C6C752C1D
:10F2A40025372E34662C25372E34662C25362E34FD
:10F2B400662C25372E34662C313935372C7E454F54
:10F2C4005420202020202020202020202020202006
:10F2D400202020202020202020202020202020202A
:10F2E400202020202020202020202020202020201A
:10F2F4002020200D0A005E2C25642C25332E326636
:10F304002C25332E32662C25332E32662C25332EB3
:10F3140032662C25332E32662C25332E32662C256C
:10F32400332E32662C25332E32662C25642E25305E
:10F3340031642C25642E253031642C25642E25302F
:10F3440031642C25642C25642C25642C25642C25FF
:10F35400642C256C6C752C25372E34662C25372EA1
:10F3640034662C25362E34662C25372E34662C3103
:10F374003935372C7E454F54202020202020202052
:10F384002020202020202020202020202020202079
:10F394002020202020202020202020202020202069
:10F3A400202020202020202020200D0A005E2C2553
:10F3B400642C25332E32662C25332E32662C2533CD
:10F3C4002E32662C25332E32662C25332E32662CB3
:10F3D40025332E32662C25332E32662C25332E32DD
:10F3E400662C25642E253031642C25642E2530317D
:10F3F400642C25642E253031642C25642C25642C42
:10F4040025642C25642C25642C256C6C752C2536E0
:10F414002E34662C25362E34662C25362E34662C56
:10F4240025362E34662C313935372C7E454F542001
:10F4340020202020202020202020202020202020C8
:10F4440020202020202020202020202020202020B8
:10F4540020202020202020202020202020202020A8
:10F46400200D0A005E2C25642C25332E32662C25B3
:10F47400332E32662C25332E32662C25332E3266FB
:10F484002C25332E32662C25332E32662C25332E32
:10F4940032662C25332E32662C25642E25303164B9
:10F4A4002C25642E253031642C25642E25303164BE
:10F4B4002C25642C25642C25642C25642C25642C93
:10F4C400256C6C752C25362E33662C25362E33662A
:10F4D4002C25362E33662C25362E33662C313935C1
:10F4E400372C7E454F54202020202020202020200F
:10F4F4002020202020202020202020202020202008
:10F5040020202020202020202020202020202020F7
:10F5140020202020202020200D0A007C7C2F2F2D4D
:10F524002D00000000000000000000000000007C2E
:10F534007C2F2F2D2D5C5C000000000000000000DB
:10F544000000004F4F4F4F4F4F2D2D5F5F2D000098
:10F554000000000000000076763C3C5E5E3E3E000B
:10F5640000000000000000000000002E2E2A2A786F
:10F5740023782358587C7C2D2D0000000000002E99
:10F584002E6F6F4F4F6F6F000000000000000000EF
:10F59400000000536C656570000000000000004628
:10F5A4006C6F61740000000000000042756C6B0019
:10F5B400000000000000004162736F7262000000EE
:10F5C400000000457175616C697A65000000004EA9
:10F5D4002F412000000000000000004F66666C69A7
:10F5E4006E650000000000464D7830000000000009
:10F5F40000000000010300400002000000010000C0
:10F6040000460000010200000004000000000000A9
:10F6140000060000010200000003000000000000DA
:10F6240000050000010200000002000000000000CC
:10F6340000040000010200000000000000000000BF
:10F644000002000001020001006A00000000000046
:10F65400006D00000102000100C70000000000006E
:10F6640000CA0000010200000008000000000000C1
:10F67400000A00000102000100C6000000000000B2
:10F6840000C90000010400000001000000000000A7
:10F69400000500000102000100C800000000000095
:10F6A40000CB000001020000000000000000000088
:10F6B400000200011000660002040000000075ADA5
:10F6C4000110006300020400000000B59201100064
:10F6D4000C00020400000000F3FA02100001000212
:10F6E400040200010002040000004001030078004D
:10F6F4000E01030048004A01061604000501061025
:10F70400000000010610020000010350000008017F
:10F71400030500004001030000003401030302005C
:10F72400010103000B000100005442000054420098
:10F73400808042008080422DB2804239B480421FD2
:10F74400C58042CFB780429A995E4266665E42E5C2
:10F7540090584289C1584273488042C5608042FC37
:10F76400898042FC8980420080804200808042B4CB
:10F7740000000204000000020000010A000001C7AA
:10F784007FFFFFC57FFFFFB4001000B77FFFFFB806
:10F79400000001C2000000E4000001CD0C0543E5B7
:10F7A400612140008080420080804200000000040B
:10F7B40000000CFFFF0B000010FFFF40F725342E64
:10F7C4003266487A2025332E3166522025332E3274
:10F7D4006650662020202020202020202020202069
:10F7E400202020202020202020200025342E3266B6
:10F7F400487A2025332E3266522025332E32665025
:10F8040066202020202020202020202020202020AE
:10F81400202020202020202000424D4320256C75EC
:10F8240020203058252E325820202020202020202F
:10F8340020202020202020202020202020202020C4
:10F8440020202020200025322E31664B5768206668
:10F854006C6F61742025332E3166682020202020AF
:10F864002020202020202020202020202020202094
:10F874002020000D2D2D2D205449433132343030B9
:10F88400204472697665722056657273696F6E20C2
:10F894002573202573202573202D2D2D0D0A000D91
:10F8A4002D2D2D204D43333339393620447269765A
:10F8B40065722056657273696F6E202573202573F7
:10F8C400202573202D2D2D0D0A004241542025643E
:10F8D4002E25303164562050562025642E25303193
:10F8E400645620202020202020202020202020209A
:10F8F4002020200025342E30662025342E3066202A
:10F9040025342E306650682025322E30665720204C
:10F9140020202020202020202020202020003420EF
:10F9240025362E3366562C352025362E3366562042
:10F9340020202020202020202020202020202020C3
:10F94400202020202000426D617820257556204219
:10F954006D696E202575562020202020202020202F
:10F96400202020202020202020202020200025349A
:10F974002E30662025342E30662025342E30662025
:10F9840025342E30665720202020202020202020BF
:10F9940020202020200025342E30662025342E30CF
:10F9A400662025342E306656612025322E30664876
:10F9B4007A20202020202020202020202000424DBA
:10F9C4004320256C7520202020202020202020206A
:10F9D4002020202020202020202020202020202023
:10F9E40020202020004F4620256C752045525220AF
:10F9F400256C75202020202020202020202020205D
:10FA040020202020202020202020200020256C6C75
:10FA1400582052756E20446973706C617920305897
:10FA2400252E325820202020202020202020202075
:10FA340020004A616E4665624D61724170724D618B
:10FA4400794A756E4A756C4175675365704F637476
:10FA54004E6F764465630025332E32662025332E9F
:10FA640032662025332E3266506620202020202046
:10FA7400202020202020202020200025342E306625
:10FA8400572025342E306656612025332E32665099
:10FA94006620202020202020202020202020002537
:10FAA400332E3266572025332E3266566120253395
:10FAB4002E32665066202020202020202020202066
:10FAC40020200025732056657220257320202020D5
:10FAD4002020202020202020202020202020202022
:10FAE4002020200025732025732025642E25303105
:10FAF4006441202564412020202020202020202033
:10FB04002020202000204D65736720256420537435
:10FB140061636B20256420202020202020202020C9
:10FB240020202020004D554920256C6C5820504938
:10FB34004320255820202020202020202020202061
:10FB44002020202000205465726D696E616C20496C
:10FB54006E666F20202020202020202020202020BE
:10FB64002020002048454C502053637265656E3A4E
:10FB74002025642020202020202020202020002553
:10FB8400732020202020202020202020202020201E
:10FB94002020202020202020202000257320253410
:10FBA4002E3166562025342E326641202020202016
:10FBB4002020202020200025732025342E31665655
:10FBC4002025342E3166572020202020202020207C
:10FBD40020200020506F7274204C6F636B2023250B
:10FBE40064202020202020202020202020002054B9
:10FBF40065726D696E616C202564202020202020B0
:10FC0400202020202020200020434D442025632054
:10FC14002563204C656E2025642020202020202090
:10FC240020002025635049204441515F424D432028
:10FC3400257320202020202020200048454C5020DF
:10FC44002573202020202020202020202020202058
:10FC5400202000204F70656E204C4C202020202056
:10FC640020202020202020202020002050756D708E
:10FC7400204C4C2020202020202020202020202028
:10FC8400202000205265616479204C4C20202020E3
:10FC94002020202020202020202000205332463401
:10FCA40031202325632020202020202020202020F4
:10FCB400202000444953504C4159202573202020D2
:10FCC40020202020202020202020002053746F7228
:10FCD400656420232564202020202020202020204B
:10FCE400202000767465726D2025783A25782020CE
:10FCF4002020202020202020202000205345515562
:10FD0400454E43452025642020202020202020200B
:10FD140020200020446973706C6179206E756D2019
:10FD24002564202020202020202000205325644604
:10FD34002564206C6F67202020202564202020204B
:10FD4400202000204C6F61642D6C6F636B206E75F6
:10FD54006D202564202020202020002025732020D1
:10FD6400202020202020202020202020202020208F
:10FD7400200020494E464F202020202020202020F3
:10FD840020202020202020200020565445524D20A1
:10FD9400494E464F202020202020202020202000D3
:10FDA40020565445524D2048454C502020202020B8
:10FDB400202020202020002056657273696F6E2059
:10FDC40025732020202020202020202020002025F2
:10FDD4007320416C6C204465762020202020202054
:10FDE40020202020002048454C50204275696C6436
:10FDF400202573202020202020202000202573206F
:10FE0400416E616C6F67204465762020202020209D
:10FE140020200053756E4D6F6E547565576564549C
:10FE240068754672695361740048454C50202573C7
:10FE340020202020202020202020202020200043BB
:10FE4400616C6962726174696F6E20436F6D706C6E
:10FE5400657465200057454D33303830204472694D
:10FE64007665722020202020200025732020202069
:10FE74002020202020202020202020202020002599
:10FE840073202573202020202020202020202020C3
:10FE940020202000506F7274202573202020202001
:10FEA400202020202020202000424D43426F6172F8
:10FEB40064204472697665722020202020005265F7
:10FEC400616420454550524F4D2044415441202007
:10FED400202000577269746520454550524F4D20CB
:10FEE40044415441202020005570646174652045CC
:10FEF4004550524F4D2044415441202000496E76D4
:10FF0400616C696420454550524F4D204441544131
:10FF14002000504F5745524D204472697665722037
:10FF2400202020202000454D35343020447269764D
:10FF340065722020202020202000257320202020EE
:10FF44002020202020202020202020202000505A63
:10FF5400454D2044726976657220202020202000BF
:10FF640041707220313720323032360030383A3125
:10FF7400333A33310030383A31343A313400434F74
:10FF84004D4D202020004552524F522020004F4E0C
:10FF94004C494E45200052454D4F5445200044499C
:10FFA4005341424C45004F46464C494E4500286E4D
:10FFB400756C6C2900504F5745524D0057454D33D1
:10FFC4003000343751383400353751383400563026
:10FFD4002E363500505A454D0056302E37005630D7
:10FFE4002E3800494E46004E414E00696E66006E42
:0BFFF400616E00474D540025730000B3
:020000040001F9
:1000000000019451D8BC05D0010E07017C6F210E70
:10001000D86F4EEC02F09F9454EC12F0D68ED68C32
:10002000BF82BF84BF86A4EC0DF00AEC0FF0000E77
:100030006100A2F3FDF922EEF2F1070EDE6AE80696
:10004000FDE20701BE6BBE51020DF3C4A1F7F4C47B
:10005000A2F7000EA2BFFF0EA36FA46F000EA12592
:100060000501916F000E0701A2210501926F2C0E70
:100070000701A3210501936F16ECF9F00701BE51AA
:10008000020DC20EF324D96E090EF420DA6E0501BA
:1000900091C5DEF492C5DDF40701BE51020DC20E1A
:1000A000F324D96E090EF420DA6EDEC4A1F7DDC4A4
:1000B000A2F7A1510901F2270701A2510901F32377
:1000C000000EF423000EF523000EF623000EF72396
:1000D000000EF823000EF9230701BE2B080EBE65A3
:1000E000B2D7F2C957F9F3C958F9F4C959F9F5C9A2
:1000F0005AF9F6C95BF9F7C95CF9F8C95DF9F9C9AC
:100100005EF9FC0E0501916FFF0E926F3F0E936F2B
:1001100016ECF9F091C555F992C556F9FE0E916F9E
:10012000FF0E926F3F0E936F16ECF9F091C553F9E5
:1001300092C554F9050E0901531904E1990E541999
:10014000D8B42DD0040E531906E1990E5419D8A431
:1001500002D0508524D05069000E566F5569FF0EAD
:10016000576F000E586F000E596F000E5A6F000E39
:100170005B6F000E5C6F000E5D6F000E5E6FFF0E1A
:10018000F26FFF0EF36FFF0EF46FFF0EF56F000EB0
:10019000F66F000EF76F000EF86F000EF96F57C97B
:1001A000B6F558C9B7F559C9B8F55AC9B9F55BC913
