:0400000085EF00F098
:10000800E76CE76CE76CE76CE76CE76CE76C9B6B9D
:10001800E76CE76C4F685E68E76CE76CE76CE76C69
:100028006D68E76CE76CE76C3168E76C4068E76C13
:10003800E76CE76CE76CE76CA067E76CE76CF26766
:100048002E691F69E76CE76CE76CE76CE76CE76C97
:10005800FA65E76C6869E76C6666E76CE76CE76CFD
:10006800E76CE76CE76CE76C7C688B689A68E76C10
:10007800E76CE76CE76CE76C4200E76CE76CE76CF1
:10008800E76CE76CE76CE76C8F67E76CE76CE76C2D
:1000980086697769E76CE76C4200E76CE76CE76CA8
:1000A800E76CE76CE76CE76CA968B868C768E76C49
:1000B800E76CE76CE76C7E67E76CE76CE76CE76C0E
:1000C800E76CE76CE76CE76CE76CE76CE76CE76C90
:1000D800E76CE76CE76CE76CE76CE76CE76CE76C80
:1000E8004200E76CE76CE76CE76CE76CE76CE76C81
:1000F800CC6CE76CE76CC86BE76CE76CE76CE76C9B
:0A010800FF0019EE86F0E5EFAFF0FE
:10F132000000C0C101C30302C2C60607C705C5C499
:10F1420004CC0C0DCD0FCFCE0E0ACACB0BC90908C9
:10F15200C8D81819D91BDBDA1A1EDEDF1FDD1D1C09
:10F16200DC14D4D515D71716D6D21213D311D1D099
:10F1720010F03031F133F3F23236F6F737F5353439
:10F18200F43CFCFD3DFF3F3EFEFA3A3BFB39F9F809
:10F192003828E8E929EB2B2AEAEE2E2FEF2DEDECA9
:10F1A2002CE42425E527E7E62622E2E323E12120D9
:10F1B200E0A06061A163A3A26266A6A767A56564D9
:10F1C200A46CACAD6DAF6F6EAEAA6A6BAB69A9A849
:10F1D2006878B8B979BB7B7ABABE7E7FBF7DBDBC89
:10F1E2007CB47475B577B7B67672B2B373B1717019
:10F1F200B050909151935352929656579755959479
:10F20200549C5C5D9D5F9F9E5E5A9A9B5B99595888
:10F2120098884849894B8B8A4A4E8E8F4F8D4D4C28
:10F222008C44848545874746868242438341818058
:10F232004000C1814001C0804101C0804100C181C4
:10F242004001C0804100C1814000C1814001C080B5
:10F252004101C0804100C1814000C1814001C080A4
:10F262004100C1814001C0804101C0804100C18193
:10F272004001C0804100C1814000C1814001C08085
:10F282004100C1814001C0804101C0804100C18173
:10F292004000C1814001C0804101C0804100C18164
:10F2A2004001C0804100C1814000C1814001C08055
:10F2B2004101C0804100C1814000C1814001C08044
:10F2C2004100C1814001C0804101C0804100C18133
:10F2D2004000C1814001C0804101C0804100C18124
:10F2E2004001C0804100C1814000C1814001C08015
:10F2F2004100C1814001C0804101C0804100C18103
:10F302004001C0804100C1814000C1814001C080F4
:10F312004101C0804100C1814000C1814001C080E3
:10F322004100C1814001C0804101C0804100C181D2
:10F332004000C0C101C30302C2C60607C705C5C457
:10F3420004CC0C0DCD0FCFCE0E0ACACB0BC90908C7
:10F35200C8D81819D91BDBDA1A1EDEDF1FDD1D1C07
:10F36200DC14D4D515D71716D6D21213D311D1D097
:10F3720010F03031F133F3F23236F6F737F5353437
:10F38200F43CFCFD3DFF3F3EFEFA3A3BFB39F9F807
:10F392003828E8E929EB2B2AEAEE2E2FEF2DEDECA7
:10F3A2002CE42425E527E7E62622E2E323E12120D7
:10F3B200E0A06061A163A3A26266A6A767A56564D7
:10F3C200A46CACAD6DAF6F6EAEAA6A6BAB69A9A847
:10F3D2006878B8B979BB7B7ABABE7E7FBF7DBDBC87
:10F3E2007CB47475B577B7B67672B2B373B1717017
:10F3F200B050909151935352929656579755959477
:10F40200549C5C5D9D5F9F9E5E5A9A9B5B99595886
:10F4120098884849894B8B8A4A4E8E8F4F8D4D4C26
:10F422008C44848545874746868242438341818056
:10F432004000C1814001C0804101C0804100C181C2
:10F442004001C0804100C1814000C1814001C080B3
:10F452004101C0804100C1814000C1814001C080A2
:10F462004100C1814001C0804101C0804100C18191
:10F472004001C0804100C1814000C1814001C08083
:10F482004100C1814001C0804101C0804100C18171
:10F492004000C1814001C0804101C0804100C18162
:10F4A2004001C0804100C1814000C1814001C08053
:10F4B2004101C0804100C1814000C1814001C08042
:10F4C2004100C1814001C0804101C0804100C18131
:10F4D2004000C1814001C0804101C0804100C18122
:10F4E2004001C0804100C1814000C1814001C08013
:10F4F2004100C1814001C0804101C0804100C18101
:10F502004001C0804100C1814000C1814001C080F2
:10F512004101C0804100C1814000C1814001C080E1
:10F522004100C1814001C0804101C0804100C181D0
:10F532004001030000000000000000000000000085
:10F5420000000000000000000000000000000000B9
:10F5520000000000000000000000000000000000A9
:10F562000000000000000000000000000000000099
:10F572000000000000000000000000000000000089
:10F582000000000000000000000000000000000079
:10F592000000000000000000000000000000000069
:10F5A2000000000000000000000000000000000059
:10F5B2000000000000000103000000000000000045
:10F5C2000000000000000000000000000000000039
:10F5D2000000000000000000000000000000000029
:10F5E2000000000000000000000000000000000019
:10F5F2000000000000000000000000000000000009
:10F6020000000000000000000000000000000000F8
:10F6120000000000000000000000000000000000E8
:10F6220000000074686520717569636B2062726FF7
:10F63200776E20666F78206A756D7073206F7665BD
:10F642007220746865206C617A7920646F67732018
:10F652006261636B002573202564202573202020BE
:10F662002020202020202020202020202020202098
:10F672002020202020202020202020202020202088
:10F68200202020004F4E4C494E45204125642C201D
:10F6920052256420524625642C2054256420544669
:10F6A20025642C20432564202564202573202020F6
:10F6B200202000486F7374204125642C2052256459
:10F6C20020524625642C2054256420544625642C5F
:10F6D200204325642025642025732020202020201B
:10F6E2002000554E4B20464F524D41542041256437
:10F6F2002C2052256420524625642C205425642057
:10F70200544625642C2043256420257320202000A4
:10F712002573202573202020202020202020202037
:10F7220020202020202020202020202020202020D7
:10F732002020202020202020202000257320257337
:10F7420020202020202020202020202020202020B7
:10F7520020202020202020202020202020202020A7
:10F76200202000486F737420434D44533A204D20AB
:10F772004320522050204F204C205320442045202B
:10F7820048204600506F7274206261756420726175
:10F79200746520756E6C6F636B6564202020202079
:10F7A20020202000486F737420434D44533A204573
:10F7B2004E41424C45442052454D4F54450056332C
:10F7C2002E303020464D383020696E746572666185
:10F7D200636520513834004F66666C696E650000BF
:10F7E20000000043414E425553000000000000015A
:10F7F2000300000000000000000000000000000004
:10F8020000000000000103000000D600000001001B
:10F812000000DA00000103000000D6000000000032
:10F822000000D9001F1E1F1E1F1F1E1F1E1F1F1D8F
:10F8320001060000000000000106000000000000B8
:10F8420001060000000000000103000000000001AA
:10F8520003000000000083200304000024010001D3
:10F862008324030400BC000000BA7FFFFEC80080AE
:10F872000034000000180000E8FF3C0023007C7CFC
:10F882002F2F2D2D000000000000000000000000BE
:10F8920000007C7C2F2F2D2D5C5C000000000000FE
:10F8A2000000000000004F4F4F4F4F4F2D2D5F5F64
:10F8B2002D00000000000000000076763C3C5E5EF9
:10F8C2003E3E0000000000000000000000002E2E5E
:10F8D2002A2A7823782358587C7C2D2D000000009A
:10F8E20000002E2E6F6F4F4F6F6F00000000000060
:10F8F200000000000000536C65657000000000000D
:10F902000000466C6F617400000000000000427548
:10F912006C6B00000000000000004162736F7262B5
:10F92200000000000000457175616C697A65000095
:10F932000000204C617374000000000000005E2C87
:10F9420025332E31662C25332E32662C25332E326A
:10F95200662C25332E32662C25332E32662C253327
:10F962002E32662C25332E32662C534E3A202573C6
:10F972002025752046573A20305825582C25732CBF
:10F982007E0D0A004F66666C696E6500000000001D
:10F99200454D353430000000000000004F66666CB3
:10F9A200696E650000000000464D3830000000001E
:10F9B20000000000000103004000020000000100FE
:10F9C20000004600000102000000040000000000E8
:10F9D2000000060000010200000003000000000019
:10F9E200000005000001020000000200000000000B
:10F9F20000000400000102000000000000000000FE
:10FA0200000002000001020001006A000000000084
:10FA120000006D00000102000100C70000000000AC
:10FA22000000CA00000102000000080000000000FF
:10FA320000000A00000102000100C60000000000F0
:10FA42000000C900000104000000010000000000E5
:10FA520000000500000102000100C80000000000D3
:10FA62000000CB00000102000000000000000000C6
:10FA72000000020001061604000501061000000045
:10FA820001061002000201035000000801030500F4
:10FA920000400103000000340103030200010103DE
:10FAA200000B0001B400000204000000020000018B
:10FAB2000A000001C77FFFFFC57FFFFFB4001000EF
:10FAC200B77FFFFFB8000001C2000000E4000001A0
:10FAD2000400000CFFFF0B000010FFFF40F70D2D8C
:10FAE2002D2D20544943313234303020447269760E
:10FAF20065722056657273696F6E202573202573B7
:10FB0200202573202D2D2D0D0A000D2D2D2D204D7C
:10FB1200433333393936204472697665722056652B
:10FB22007273696F6E202573202573202573202D33
:10FB32002D2D0D0A00424154205625642E253031C8
:10FB420064205056205625642E2530316420202012
:10FB52002020202020202020202020202020004A99
:10FB6200616E4665624D61724170724D61794A758E
:10FB72006E4A756C4175675365704F63744E6F764C
:10FB82004465630056256C64204125332E3266207D
:10FB92002020202020202020202020202020202063
:10FBA20020202020202020002052554E2053746116
:10FBB20074696320446973706C617920202020206D
:10FBC200202020202020202000204D657367202542
:10FBD2006420537461636B20256420202020202040
:10FBE200202020202020202000205465726D696E84
:10FBF200616C20496E666F2020202020202020206A
:10FC0200202020202020002048454C5020536372A1
:10FC120065656E3A202564202020202020202020A7
:10FC2200202000257320202020202020202020209A
:10FC320020202020202020202020202020200025DD
:10FC42007320257320412564204125642020202033
:10FC5200202020202020202020200057256C6420F6
:10FC62005641256C6420502564202020202020202D
:10FC720020202020202000257320566163256C64FB
:10FC8200204125332E3266202020202020202020D3
:10FC920020200020506F7274204C6F636B2023254C
:10FCA20064202020202020202020202020002054FA
:10FCB20065726D696E616C202564202020202020F1
:10FCC200202020202020200020434D442025632096
:10FCD2002563204C656E20256420202020202020D2
:10FCE20020002573202020202020202020202020DA
:10FCF20020202020202020202020200048454C5079
:10FD02002025732020202020202020202020202099
:10FD120020202000204F70656E204C4C2020202097
:10FD22002020202020202020202020002050756D1F
:10FD320070204C4C20202020202020202020202019
:10FD420020202000205265616479204C4C20202024
:10FD52002020202020202020202020002053324656
:10FD62003431202325632020202020202020202021
:10FD720020202000444953504C4159202573202013
:10FD82002020202020202020202020002053746FBB
:10FD9200726564202325642020202020202020203A
:10FDA20020202000767465726D2025783A2578200F
:10FDB20020202020202020202020200020534551D8
:10FDC20055454E4345202564202020202020202018
:10FDD2002020200020446973706C6179206E756D5B
:10FDE200202564202020202020202000205325646C
:10FDF200462564206C6F6720202020256420202067
:10FE020020202000204C6F61642D6C6F636B206E8C
:10FE1200756D20256420202020202000204F50498D
:10FE2200204441515F424D43202573202020202051
:10FE32002020200020257320202020202020202088
:10FE4200202020202020202020200020494E464F24
:10FE520020202020202020202020202020202020A0
:10FE620020002044454255472020202020202020E9
:10FE720020202020202020200020565445524D20B2
:10FE8200494E464F202020202020202020202000E4
:10FE920020565445524D2048454C502020202020C9
:10FEA200202020202020002056657273696F6E206A
:10FEB20025732020202020202020202020002056D2
:10FEC2005445524D204445425547202020202020B1
:10FED20020202020002048454C50204275696C6447
:10FEE200202573202020202020202000204E534156
:10FEF20053504F4F4B20416C6C204465762020209C
:10FF0200202000204E534153504F4F4B20416E61F1
:10FF12006C6F672044657620200053756E4D6F6EBE
:10FF22005475655765645468754672695361740007
:10FF320048454C50202573202020202020202020BE
:10FF4200202020202000506F727420257320202052
:10FF52002020202020202020202000257320202067
:10FF62002020202020202020202020202020004C83
:10FF72006F636B65642031313532303062707300EB
:10FF820041756720323420323032350031323A3016
:10FF9200313A33390031393A31393A343200434F48
:10FFA2004D4D202020004552524F522020004F4EEE
:10FFB2004C494E45200052454D4F5445200044497E
:10FFC2005341424C45004F46464C494E4500286E2F
:10FFD200756C6C290056302E33320056302E3700A5
:10FFE20056302E3800494E46004E414E00696E662C
:0DFFF200006E616E00474D54002573000045
:020000040001F9
:100000000001945195ECCBF09F94EEECD9F0D68E94
:10001000D68CBF82BF84BF86A0ECD5F0ADECD6F005
:10002000000E6100A2F3F3F06C0E956FAA0E966FAE
:10003000010E976F6FECD8F0A4ECCFF0140EE66EC3
:10004000000EE66E090EE66E29ECD3F0200EE66E89
:100050004E0EE66E0C0EE66E29ECD3F0000E080193
:10006000996F000E986F0601D26BD251020DF3C446
:10007000BDF6F4C4BEF6000EBEBFFF0EBF6FC06F6C
:10008000000EBD250501956F000E0601BE2105017C
:10009000966F2C0E0601BF210501976F9EECC4F0F0
:1000A0000601D251020DB10EF324D96E080EF420D0
:1000B000DA6E050195C5DEF496C5DDF40601D25170
:1000C000020DB10EF324D96E080EF420DA6EDE5064
:1000D00008019827DD5099230601D22B080ED2651E
:1000E000C4D70F0E08019815986F996BC1ECD9F021
:1000F000660E0501956FA50E966F010E976FCAECFF
:10010000D8F0BEECD9F0BBECD9F02C0E0501956F00
:100110007D0E966F010E976FC3ECD8F0C00E956FF1
:10012000B30E966F010E976FE6ECD8F0CAECD9F0DB
:10013000380E0501956FB30E966F010E976FDFECC9
:10014000D8F0C7ECD9F0710E0601D06FFF0ED16F59
:10015000C5ECC5F0010E996FF40E986F4CECD5F01C
:10016000BF94BF92BF96C084ECECD9F0C094AB0EA4
:100170000501B56F0B0EB66FE2EC9CF0C08423D185
:10018000660E0501A36FFA0EA46FDDECCDF0C40E70
:1001900006010E6F9E0E0F6F010E106F050E116F90
:1001A0007EECBDF03ED10801A251D8A413D0560E6A
:1001B0000501A36FFA0EA46FDDECCDF0300E060141
:1001C0000E6F7F0E0F6F010E106F050E116F7EEC1C
:1001D000BDF027D1B60E0501A36FF90EA46FDDECBB
:1001E000CDF0B40E06010E6FB30E0F6F010E106F3F
:1001F000050E116F7EECBDF014D1360E0501A36F14
:10020000FA0EA46FDDECCDF04C0E06010E6FB30EAE
:100210000F6F010E106F050E116F7EECBDF001D156
:10022000260E0501A36FFA0EA46FDDECCDF0EC0EE7
:1002300006010E6FAA0E0F6F010E106F050E116FE3
:100240007EECBDF0EED0160E0501A36FFA0EA46F82
:10025000DDECCDF0C20E06010E6FAA0E0F6F010E7F
:10026000106F050E116F7EECBDF0DBD0060E0501A0
:10027000A36FFA0EA46FDDECCDF0580E06010E6FE1
:10028000A30E0F6F010E106F050E116F7EECBDF007
:10029000C8D0460E0501A36FFA0EA46FDDECCDF0B9
:1002A000DE0E06010E6F790E0F6F010E106F100E2D
:1002B000116F7EECBDF0B5D0E60E0501A36FF90E0F
:1002C000A46FDDECCDF00A0E06010E6FA80E0F6FC5
:1002D000010E106F050E116F7EECBDF0A2D0D60E90
:1002E0000501A36FF90EA46FDDECCDF0ECD7C60EBF
:1002F0000501A36FF90EA46FDDECCDF00A0E060127
:100300000E6FA80E0F6F010E106F050E116F7EECB1
:10031000BDF00601EC6B85D0EC51000AD8B4CCD707
:10032000010AD8B4DCD7030AD8B4E1D7F2D7730EE8
:100330000501A36F090EA46FDDECCDF0FC0E0601E4
:100340000E6F5A0E0F6F010E106F110E116F7EECB3
:10035000BDF067D0E80E0501A36F0B0EA46FDDECB6
:10036000CDF0460E06010E6FB30E0F6F010E106F2B
:10037000050E116F7EECBDF054D0D80E0501A36FB1
:100380000B0EA46FDDECCDF0400E06010E6FB30E28
:100390000F6F010E106F050E116F7EECBDF041D096
:1003A000F60E0501A36FF90EA46FDDECCDF0320E51
:1003B00006010E6FA70E0F6F010E106F050E116F65
:1003C0007EECBDF02ED00601EB51BD6FBE6BBE5171
:1003D000000AD8A4D5D6BD51000AD8B4D1D6010A96
:1003E000D8B4E1D6030AD8B408D7010AD8B418D7CC
:1003F000070AD8B428D7010AD8B438D7030AD8B422
:100400008BD7010AD8B4A6D70F0AD8B4B6D7010A39
:10041000D8B48DD7030AD8B4C3D7010AD8B439D712
:10042000AFD60C0E09ECD6F00009D8B4E6D2300EE7
:10043000E66E750EE66E0C0EE66E29ECD3F0080142
:10044000A26BDBD2C0ECB9F00C0E53ECD8F028EE66
:10045000DCF2DF50BDECD6F0000E956F000E78ECAC
:10046000CCF095C563F696C564F6000E0601666F7E
:10047000150E656F480E676FFF0E686FD0C669F680
:10048000D1C66AF6E1ECC0F0000E0501956F010ED1
:1004900078ECCCF095C563F696C564F6000E0601BF
:1004A000666F150E656F480E676FFF0E686FD0C6DA
:1004B00069F6D1C66AF6E1ECC0F0000E0501956F51
:1004C000020E78ECCCF095C563F696C564F6000E86
:1004D0000601666F150E656F480E676FFF0E686F39
:1004E000D0C669F6D1C66AF6E1ECC0F0000E05018F
:1004F000956F030E78ECCCF095C563F696C564F65F
:10050000000E0601666F150E656F480E676FFF0ED1
:10051000686FD0C669F6D1C66AF6E1ECC0F04CEC63
:10052000D8F0030E0501996FE80E986F4CECD5F0EA
:1005300069ECD4F0F4ECCCF0F2ECA3F00009D8A410
:1005400013D0010E6100A2F3FEF2000E6100A2F3CF
:10055000FFF2000E6100A2F300F3000E6100A2F3AF
:1005600001F3010E0601ED6F81ECD4F051ECC4F003
:100570000009D8A413D0010E6100A2F302F3000E0B
:100580006100A2F303F3000E6100A2F304F3000E76
:100590006100A2F305F3010E0601ED6F02ECCEF04F
:1005A00043ECD6F0010E6100A2F3F3F0070E050153
:1005B000966FA50E956F81ECD7F028EEDCF2DF5038
:1005C000BDECD6F0190E0601636F220E646F000EAB
:1005D000666F3F0E656FEB0E676FFB0E686FE1ECA9
:1005E000C0F0000E0501956F000E78ECCCF095C5BB
:1005F00063F696C564F6000E0601666F150E656F0C
:100600001E0E676FFE0E686FD70E696FFF0E6A6F62
:10061000E1ECC0F0000E0501956F010E78ECCCF016
:1006200095C563F696C564F6000E0601666F150E55
:10063000656FAA0E676FFB0E686FE1ECC0F00601F4
:10064000ED51D8B416D0000E0501956F020E78EC6E
:10065000CCF095C563F696C564F6000E0601666F8C
:10066000150E656F050E676FFF0E686FE1ECC0F049
:1006700015D0000E0501956F020E78ECCCF095C5F3
:1006800063F696C564F6000E0601666F150E656F7B
:10069000EE0E676FFE0E686FE1ECC0F0000E050114
:1006A000956F030E78ECCCF095C563F696C564F6AD
:1006B000000E0601666F150E656F360E676FFE0E33
:1006C000686F820E696FFF0E6A6FE1ECC0F0010E79
:1006D0000501956F000E78ECCCF095C563F696C5D4
:1006E00064F6000E0601666F150E656F4D0E676F9E
:1006F000FE0E686FE1ECC0F0010E0501956F010E72
:1007000078ECCCF095C563F696C564F6000E06014C
:10071000666F150E656FA90E676FFE0E686FD70EB8
:10072000696FFF0E6A6FE1ECC0F0010E0501956F75
:10073000020E78ECCCF095C563F696C564F6000E13
:100740000601666F150E656F7B0E676FFE0E686F94
:10075000E1ECC0F0010E0501956F030E78ECCCF0D2
:1007600095C563F696C564F6000E0601666F150E14
:10077000656F360E676FFE0E686F820E696FFF0E33
:100780006A6FE1ECC0F0030E0501956F000E78EC86
:10079000CCF095C563F696C564F6000E0601666F4B
:1007A000150E656FD70E676FFE0E686FD70E696FF7
:1007B000FF0E6A6FE1ECC0F0030E0501956F010EAC
:1007C00078ECCCF095C563F696C564F6000E06018C
:1007D000666F150E656FA90E676FFE0E686FD70EF8
:1007E000696FFF0E6A6FE1ECC0F0030E0501956FB3
:1007F000020E78ECCCF095C563F696C564F6000E53
:100800000601666F150E656F920E676FFE0E686FBC
:10081000E1ECC0F0030E0501956F030E78ECCCF00F
:1008200095C563F696C564F6000E0601666F150E53
:10083000656F360E676FFE0E686F820E696FFF0E72
:100840006A6FE1ECC0F0020E0501956F000E78ECC6
:10085000CCF095C563F696C564F6000E0601666F8A
:10086000150E656F640E676FFE0E686FE1ECC0F0E9
:10087000020E0501956F010E78ECCCF095C563F67C
:1008800096C564F6000E0601666F150E656FA90E1B
:10089000676FFE0E686FD70E696FFF0E6A6FE1EC2F
:1008A000C0F0020E0501956F020E78ECCCF095C5F4
:1008B00063F696C564F6000E0601666F150E656F49
:1008C000C00E676FFE0E686FE1ECC0F0020E05010E
:1008D000956F030E78ECCCF095C563F696C564F67B
:1008E000000E0601666F150E656F360E676FFE0E01
:1008F000686F820E696FFF0E6A6FE1ECC0F04CEC1E
:10090000D8F00B0E0501996FB80E986F4CECD5F02E
:100910000601ED51D8B407D0270E0501996F100ECE
:10092000986F4CECD5F0F40EE66E010EE66E050EF7
:10093000E66E29ECD3F0B80EE66E0B0EE66E020EF4
:10094000E66E29ECD3F0DC0EE66E050EE66E070EC1
:10095000E66E29ECD3F0B80EE66E0B0EE66E040ED2
:10096000E66E29ECD3F0100EE66E270EE66E060E4C
:10097000E66E29ECD3F0B80EE66E0B0EE66E030EB3
:10098000E66E29ECD3F0010EE66E000EE66E010E67
:10099000E66E29ECD3F043D0000E9DECD6F0000EAD
:1009A000956F000E78ECCCF095C5CEF696C5CFF6D7
:1009B000060120EE15F0CE51D926CF51DA22DF6A9A
:1009C000000E0501996F030E11ECC3F00601BD6F17
:1009D00020EE13F0CE51D926CF51DA22BDC6DFF476
:1009E0001ED0000E6100A2F3F3F00B0E0501996F0B
:1009F000B80E986F4CECD5F012D028EEF3F0DF5023
:100A00000601BD6FBE6BBE51000AD8A4EAD7BD5126
:100A1000000AD8B417D5010AD8B4BED7E2D7010E60
:100A200009ECD6F00009D8B474D1010EE66E000EC0
:100A3000E66E010EE66E29ECD3F028EE02F3DE50EE
:100A4000DE10DE10DE10D8A414D081ECD4F0D69ED7
:100A500009016C51D8A406D06800E4F9D9F6680001
:100A6000E8F9DAF6D68ED9C6A5F5DAC6A6F504EC0D
:100A7000D0F043ECD6F0010E07010027000E012351
:100A80000223032393ECD9F0000E25ECD8F056ECAA
:100A9000D9F00009D8B4FBD756ECD9F00009D8B486
:100AA00006D017ECD7F095C500FB96C501FB93EC7B
:100AB000D9F0010E25ECD8F056ECD9F00009D8B4E5
:100AC000FBD756ECD9F00009D8B40ED017ECD7F00C
:100AD000610056F6ECF261005AF6EDF26800B0FBE8
:100AE00002FB6800B4FB03FB93ECD9F0020E25EC8B
:100AF000D8F056ECD9F00009D8B4FBD756ECD9F0B1
:100B00000009D8B40ED017ECD7F0610056F6EEF21B
:100B100061005AF6EFF26800B8FB04FB6800BCFB0A
:100B200005FB93ECD9F0040E25ECD8F056ECD9F087
:100B30000009D8B4FBD756ECD9F00009D8B406D0D8
:100B400017ECD7F095C508FB96C509FB93ECD9F0D7
:100B5000050E25ECD8F056ECD9F00009D8B4FBD737
:100B600056ECD9F00009D8B406D017ECD7F095C5EB
:100B70000AFB96C50BFB93ECD9F0160E25ECD8F0CA
:100B800056ECD9F00009D8B4FBD756ECD9F00009DF
:100B9000D8B406D017ECD7F095C52CFB96C52DFB25
:100BA00093ECD9F0170E25ECD8F056ECD9F00009EB
:100BB000D8B4FBD756ECD9F00009D8B406D017EC5E
:100BC000D7F095C52EFB96C52FFB93ECD9F01D0EE3
:100BD00025ECD8F056ECD9F00009D8B4FBD756EC88
:100BE000D9F00009D8B406D017ECD7F095C53AFB78
:100BF00096C53BFB93ECD9F03B0E25ECD8F056ECB8
:100C0000D9F00009D8B4FBD756ECD9F00009D8B414
:100C100006D017ECD7F095C576FB96C577FB93EC1D
:100C2000D9F03C0E25ECD8F056ECD9F00009D8B438
:100C3000FBD756ECD9F00009D8B406D017ECD7F0A2
:100C400095C578FB96C579FB93ECD9F03D0E25EC64
:100C5000D8F056ECD9F00009D8B4FBD756ECD9F04F
:100C60000009D8B406D017ECD7F095C57AFB96C525
:100C70007BFB93ECD9F03E0E25ECD8F056ECD9F086
:100C80000009D8B4FBD756ECD9F00009D8B406D087
:100C900017ECD7F095C57CFB96C57DFB93ECD9F09E
:100CA0003F0E25ECD8F056ECD9F00009D8B4FBD7AC
:100CB00056ECD9F00009D8B406D017ECD7F095C59A
:100CC0007EFB96C57FFB680098FA7DF028EEFEF269
:100CD000DE50DE10DE10DE10D8A41BD069ECD4F09C
:100CE000000E0501B46F000EB56F000EB66F000E5A
:100CF000B76F000EB86F000EB96F000EBA6F33EC0D
:100D0000C5F0D1C5D9F4D2C5DAF40501DFBEF2ECE5
:100D1000A3F0050E09ECD6F00009D8B4F0D143ECED
:100D2000D6F0F40EE66E010EE66E050EE66E29ECC8
:100D3000D3F0040E09ECD6F00009D8B403D0000EAD
:100D40009DECD6F00601EF51D8B4A2D188ECA7F003
:100D5000000E0501956F000E78ECCCF095C563F69A
:100D600096C564F6000E0601666F150E656F250EBA
:100D7000676FFC0E686F020EF425696F000EF52197
:100D80006A6FE1ECC0F00CC895F50DC896F50EC879
:100D900097F50FC898F50A0E0501996F000E9A6F26
:100DA000000E9B6F000E9C6F47ECC1F095C5C2F61C
:100DB00096C5C3F697C5C4F698C5C5F618C895F587
:100DC00019C896F51AC897F51BC898F5010E16ECC8
:100DD000BBF095C5A3F596C5A4F597C5A5F598C52F
:100DE000A6F5000EA76F000EA86F7A0EA96F440E2D
:100DF000AA6F3AECACF0A3C5C6F6A4C5C7F6A5C564
:100E0000C8F6A6C5C9F6000E956F010E78ECCCF0B9
:100E100095C563F696C564F6000E0601666F150E5D
:100E2000656F790E676FFC0E686F0B01B1510C0D89
:100E3000860EF3240601696FF90EF4206A6FC2C6AC
:100E40006BF6C3C66CF6C4C66DF6C5C66EF6C6C6EE
:100E50006FF6C7C670F6C8C671F6C9C672F6E1EC81
:100E6000C0F0000E0501956F020E78ECCCF095C530
:100E700063F696C564F6000E0601666F150E656F83
:100E8000410E676FFC0E686F08019C510C0D9E0EA1
:100E9000F3240601696FF90EF4206A6F0C0E070146
:100EA000F303F3C4BDF6F4C4BEF6F403F350060135
:100EB000BE27F80EBD256B6FF80EBE216C6F800E3D
:100EC0000701F92506016D6FFF0E0701FA210601E2
:100ED0006E6F800E0701F52506016F6FFF0E07018B
:100EE000F6210601706FE1ECC0F0000E0501956F70
:100EF000030E78ECCCF095C563F696C564F6000E4B
:100F00000601666F150E656F370E676FFB0E686F13
:100F1000C7C769F6C8C76AF6C9C76BF6CAC76CF611
:100F2000C3C76DF6C4C76EF6C5C76FF6C6C770F601
:100F3000E1ECC0F0010E0501956F000E78ECCCF0ED
:100F400095C563F696C564F6000E0601666F150E2C
:100F5000656FE40E676FFC0E686F020EF425696F13
:100F6000000EF5216A6FE1ECC0F0010E0501956FEE
:100F7000010E78ECCCF095C563F696C564F6000ECC
:100F80000601666F150E656FE40E676FFC0E686FE5
:100F9000100EF425696F000EF5216A6FE1ECC0F0C8
:100FA00018C895F519C896F51AC897F51BC898F58D
:100FB000010E16ECBBF095C5A3F596C5A4F597C533
:100FC000A5F598C5A6F5000EA76F000EA86F7A0EBE
:100FD000A96F440EAA6F3AECACF0A3C5CAF6A4C53B
:100FE000CBF6A5C5CCF6A6C5CDF6010E956F020EC3
:100FF00078ECCCF095C563F696C564F6000E060154
:10100000666F150E656F860E676FFB0E686F0CC8F6
:1010100069F60DC86AF60EC86BF60FC86CF6CAC63C
:101020006DF6CBC66EF6CCC66FF6CDC670F6E1ECAB
:10103000C0F0010E0501956F030E78ECCCF095C55C
:1010400063F696C564F6000E0601666F150E656FB1
:101050005D0E676FFC0E686F24C869F625C86AF6D6
:1010600026C86BF627C86CF630C86DF631C86EF628
:1010700032C86FF633C870F662C871F663C872F68C
:10108000E1ECC0F04CECD8F00901666B0601EF6BA7
:1010900028EEDDF2DFC4BDF6010EDF26460EBD658B
:1010A00029D0FB51BDECD6F028EEDDF2DF50060171
:1010B000BD6FBE6B28EEDFF2DF50BF6FC06B660EF8
:1010C000BF27000EC023BD51BF5DC051800AC16F54
:1010D000BE51800AC159D8B012D0FB2BFB51030B73
:1010E000030AD8A402D0010EFB6F000E6100A2F328
:1010F000DDF205D028EEDCF2DF50BDECD6F028EEB4
:10110000E8F2DF50D8B413D0030E09ECD6F0000992
:10111000D8B40AD0000E6100A2F3E8F228EEDCF2A7
:10112000DF50BDECD6F003D0030EBDECD6F028EEB8
:10113000E3F2DF50D8B41DD0060E09ECD6F000095A
:10114000D8B417D0100EE66E270EE66E060EE66EC9
:1011500029ECD3F0B80EE66E0B0EE66E030EE66ECB
:1011600029ECD3F0010E6100A2F3E8F2000E62EC6C
:10117000B8F0C094B3EF80F0386B0CC639F60DC6EA
:101180003AF60EC63BF60FC63CF63CAF14D0010E45
:10119000386F39C695F53AC696F53BC697F53CC605
:1011A00098F551ECD4F095C539F696C53AF697C541
:1011B0003BF698C53CF6000E0601466F000E456FE3
:1011C000D5C62EF6D6C62FF63851D8A402D0E7A53C
:1011D0000ED03851D8A404D0000E156F2B0E03D0BA
:1011E000000E156F2D0E146F14C638F604D0E7A745
:1011F00002D0200E386F39C695F53AC696F53BC633
:1012000097F53CC698F57AECC0F095059611D8A4F0
:101210004CD006013851D8B409D038C624FA2E076C
:10122000D8A02F07000E466F010E456F10C611F6AD
:10123000BF0E11271A0E116110D0240E452505018D
:10124000956F0A0E060146210501966FE70E976F0E
:10125000FF0E986F38ECD4F00FD0240E4525050111
:10126000956F0A0E060146210501966FEF0E976FE6
:10127000FF0E986F38ECD4F00601FD0E2E27FF0EFE
:101280002F230AC6A5F50BC6A6F5240E0501A76FE8
:101290000A0EA86F2EC6A9F52FC6AAF57CECC5F0DC
:1012A000A5C50AF6A6C50BF6120039C695F53AC6CD
:1012B00096F53BC697F53CC698F57AECC0F095518B
:1012C0009611D8A434D006013851D8B409D038C604
:1012D00024FA2E07D8A02F07000E466F010E456F87
:1012E00010C611F6BF0E11271A0E116110D0240E70
:1012F00045250501956F0A0E060146210501966FE9
:10130000EB0E976FFF0E986F38ECD4F0B5D7240E24
:1013100045250501956F0A0E060146210501966FC8
:10132000F30E976FFF0E986F38ECD4F0A5D7000E30
:101330000601416F000E426F800E436F3F0E446FF7
:10134000000E3E6F000E3D6F39C695F53AC696F514
:101350003BC697F53CC698F5000E0501996F000E47
:101360009A6F000E9B6F000E9C6F55ECC6F0D8A0D4
:101370000CD0D4D02AC641F62BC642F62CC643F672
:101380002DC644F606013D4B3E2B41C6ADF542C687
:10139000AEF543C6AFF544C6B0F5000E0501B16F1A
:1013A000000EB26F200EB36F410EB46F20ECA9F0A7
:1013B000ADC52AF6AEC52BF6AFC52CF6B0C52DF6D9
:1013C00006012A51395D0501956F06012B513A59E5
:1013D0000501966F06012C513B590501976F0601D7
:1013E0002D513C590501986F27ECCEF098BFC2D71C
:1013F00098519711961104E1020E955DD8A0BAD7C5
:101400002AC600F62BC601F62CC602F62DC603F638
:1014100039C604F63AC605F63BC606F63CC607F6DC
:101420001DECBFF0D8A0A6D74151395D0501956FDD
:10143000060142513A590501966F060143513B5945
:101440000501976F060144513C590501986F27EC3F
:10145000CEF098BF08D09851971196114BE1020E2B
:10146000955DD8B047D041C639F642C63AF643C674
:101470003BF644C63CF652D041C6A3F542C6A4F59D
:1014800043C6A5F544C6A6F5000E0501A76F000EDC
:10149000A86F200EA96F410EAA6F3AECACF0A3C55D
:1014A00041F6A4C542F6A5C543F6A6C544F6060115
:1014B0003D07D8A03E074151395D0501956F0601F2
:1014C00042513A590501966F060143513B590501B6
:1014D000976F060144513C590501986F27ECCEF0F7
:1014E00098BFC1D798519711961104E1020E955DEE
:1014F000D8A0B9D739C600F63AC601F63BC602F6FF
:101500003CC603F641C604F642C605F643C606F6D7
:1015100044C607F61DECBFF0D8A0AED710C611F632
:10152000BF0E06011127190E116504D010C616F65C
:10153000176B08D0200E10C611F6126B1111166F22
:101540001251176F16C629F629C628F6670E2919F3
:10155000D8A419D0D751D811D8A404D0000ED86F70
:10156000010ED76FD8BF05D0D85108E1D705D8B044
:1015700005D0000E276F060E266F08D0D7C626F6B8
:10158000D8C627F603D0D8AFF9D7F3D7670E2919F5
:10159000D8A41CD03EAF06D0FC0E3D5DFF0E3E59D8
:1015A000D8A012D0FF0E2625116FFF0E2721126F33
:1015B0003D51115D1251800A136F3E51800A13593B
:1015C000D8A002D0660E01D0650E286F26C622F67E
:1015D00027C623F6670E2919D8A405D0660E281948
:1015E000D8B43EAF02D0224B232B660E2819D8A4C4
:1015F00016D03EAF0CD0000E416F000E426F800E31
:10160000436F3F0E446F000E3E6F000E3D6F670E3E
:101610002919D8B404D03D5122273E512323000E6E
:10162000406F000E3F6F39C630F63AC631F63BC602
:1016300032F63CC633F641C62AF642C62BF643C6FE
:101640002CF644C62DF67BD030C6A3F531C6A4F5E2
:1016500032C6A5F533C6A6F541C6A7F542C6A8F51C
:1016600043C6A9F544C6AAF53AECACF0A3C5BCF54F
:10167000A4C5BDF5A5C5BEF5A6C5BFF523ECB3F061
:10168000BCC534F6BDC535F6BEC536F6BFC537F6A2
:1016900034C695F535C696F536C697F537C698F52E
:1016A000ACECC1F095C524F696C525F630C6A5F577
:1016B00031C6A6F532C6A7F533C6A8F534C6B1F5CE
:1016C00035C6B2F536C6B3F537C6B4F541C6ADF585
:1016D00042C6AEF543C6AFF544C6B0F520ECA9F05E
:1016E000ADC5A9F5AEC5AAF5AFC5ABF5B0C5ACF5AE
:1016F00070ECCEF0A5C530F6A6C531F6A7C532F61A
:10170000A8C533F641C6A3F542C6A4F543C6A5F560
:1017100044C6A6F5000EA76F000EA86F200EA96F95
:10172000410EAA6F3AECACF0A3C541F6A4C542F64F
:10173000A5C543F6A6C544F606013F4B402B2251F2
:101740003F5D4051800A116F2351800A1159D8A082
:101750007BD741C6ADF542C6AEF543C6AFF544C62C
:10176000B0F5000E0501B16F000EB26FA00EB36FA1
:10177000400EB46F20ECA9F0ADC534F6AEC535F619
:10178000AFC536F6B0C537F630C600F631C601F63D
:1017900032C602F633C603F634C604F635C605F67D
:1017A00036C606F637C607F61DECBFF0D8A017D030
:1017B00030C695F531C696F532C697F533C698F51D
:1017C00034C699F535C69AF536C69BF537C69CF5ED
:1017D00055ECC6F0D8A00BD0060124B108D0000EFD
:1017E000346F000E356F000E366F000E376F39C63E
:1017F00095F53AC696F53BC697F53CC698F534C6BE
:1018000099F535C69AF536C69BF537C69CF5B5EC05
:10181000AAF095C530F696C531F697C532F698C54B
:1018200033F630C600F631C601F632C602F633C6CC
:1018300003F6000EB16F000EB26F200EB36F410EB3
:10184000B46F2AC6ADF52BC6AEF52CC6AFF52DC6C6
:10185000B0F520ECA9F0ADC504F6AEC505F6AFC5F0
:1018600006F6B0C507F61DECBFF0D8A024D03D4B5E
:101870003E2B2AC6ADF52BC6AEF52CC6AFF52DC650
:10188000B0F5000E0501B16F000EB26F200EB36F00
:10189000410EB46F20ECA9F0ADC52AF6AEC52BF60B
:1018A000AFC52CF6B0C52DF6660E06012819D8A4D2
:1018B00002D0224B232B2AC641F62BC642F62CC659
:1018C00043F62DC644F6650E2819D8B405D03DC69A
:1018D00020F63EC621F604D0000E216F000E206FC8
:1018E0001F6B000E1E6F000E1D6F000E406F000E6E
:1018F0003F6FDBD030C6A3F531C6A4F532C6A5F5DF
:1019000033C6A6F541C6A7F542C6A8F543C6A9F554
:1019100044C6AAF53AECACF0A3C5BCF5A4C5BDF528
:10192000A5C5BEF5A6C5BFF523ECB3F0BCC534F61E
:10193000BDC535F6BEC536F6BFC537F634C695F516
:1019400035C696F536C697F537C698F5ACECC1F0B6
:1019500096BF06D0965113E10A0E955DD8B00FD010
:1019600034C695F535C696F536C697F537C698F55B
:10197000ACECC1F095C524F696C525F605D0000E51
:101980000601256F090E246F060124512511D8A4E4
:101990000AD0670E2919D8B421AF05D0E7B903D012
:1019A0001D4B1E2B36D01F51D8B421AF20D0240E92
:1019B0004525D96E0A0E4621DA6E2E0EDF6E454B96
:1019C000462B2E07D8A02F07010E1F6F10D0240E14
:1019D0004525D96E0A0E4621DA6E300EDF6E454B74
:1019E000462B2E07D8A02F071D07D8A01E071D5174
:1019F0001E11D8A4ECD7240E4525D96E0A0E462117
:101A0000DA6E2451300FDF6E454B462B2E07D8A0DF
:101A10002F0730C6A5F531C6A6F532C6A7F533C6E1
:101A2000A8F534C6B1F535C6B2F536C6B3F537C636
:101A3000B4F541C6ADF542C6AEF543C6AFF544C6F2
:101A4000B0F520ECA9F0ADC5A9F5AEC5AAF5AFC5B6
:101A5000ABF5B0C5ACF570ECCEF0A5C530F6A6C5BB
:101A600031F6A7C532F6A8C533F641C6A3F542C67E
:101A7000A4F543C6A5F544C6A6F5000EA76F000E53
:101A8000A86F200EA96F410EAA6F3AECACF0A3C567
:101A900041F6A4C542F6A5C543F6A6C544F606011F
:101AA0002007D8A021073F4B402B22513F5D4051DA
:101AB000800A116F2351800A1159D8B008D046BF4F
:101AC00019D7465104E14B0E455DD8A013D71F51DD
:101AD000D8B4E7A90AD0240E4525D96E0A0E4621AE
:101AE000DA6E2E0EDF6E454B462B000E406F4F0E0A
:101AF0003F6F240E3F25D96E0A0E4021DA6EDF6A51
:101B0000650E2819D8A47BD01C6B3EAF06D0010E01
:101B10001C6F3D6D3E1FD8B03E2B000E276F020E8E
:101B2000266F2CD03F07D8A04007240E3F25D96E42
:101B30000A0E4021DA6E3DC695F53EC696F5000EBA
:101B40000501986F0A0E976FFBECC9F09551300FA5
:101B5000DF6E3DC695F53EC696F5000E986F0A0EEF
:101B6000976FEAECC7F095C53DF696C53EF60601BF
:101B70002607D8A027072E07D8A02F073D513E11D2
:101B8000D8A4D0D727BF05D02751CCE12605D8B09F
:101B9000C9D73F07D8A040071C51D8A404D0000ED5
:101BA000196F2B0E03D0000E196F2D0E186F240E17
:101BB0003F25D96E0A0E4021DA6E18C6DFF42E07D3
:101BC000D8A02F073F07D8A0400710C611F6BF0EB8
:101BD0001127190E116504D0000E1B6F650E03D07E
:101BE000000E1B6F450E1A6F240E3F25D96E0A0E8C
:101BF0004021DA6E1AC6DFF42E07D8A02F07240E74
:101C0000116F0A0E126F4551115F4651125B3F5121
:101C100011250501956F0601405112210501966FAE
:101C2000240E976F0A0E986F45C699F546C69AF529
:101C300066ECCBF0060145513F5D456F465140597A
:101C4000466F3851D8B402D0010E01D0000E3F6F5C
:101C5000406BE7B30FD022D04507D8A04607240E2B
:101C60004525D96E0A0E4621DA6E300EDF6E2E073C
:101C7000D8A02F072E513F5D4051800A116F2F5180
:101C8000800A1159D8B00AD045513F5D4051800AB1
:101C9000116F4651800A1159D8A0DED73851D8B4F7
:101CA0000BD04507D8A04607240E4525D96E0A0E4D
:101CB0004621DA6E38C6DFF43F512E5F40512F5B6C
:101CC0000AC6A5F50BC6A6F5240E45250501A76F86
:101CD0000A0E060146210501A86F2EC6A9F52FC6DA
:101CE000AAF57CECC5F0A5C50AF6A6C50BF6120050
:101CF00049C6D9F44AC6DAF4DEC4F6F4DDC4F7F412
:101D0000000EF86E0800F550250AD8A4D3EF93F022
:101D100049C6D9F44AC6DAF4DE2A000EDD22000EE6
:101D2000D66F000ED56FD5C6E7F6D769D869536B65
:101D300030D0E78149C6D9F44AC6DAF4DE2A000E6B
:101D4000DD2227D0E783F6D7E785F4D7E787F2D7F8
:101D5000E789F0D7010E536F1CD049C6D9F44AC6A3
:101D6000DAF4DEC4F6F4DDC4F7F4000EF86E080011
:101D7000F550200AD8B4EAD7030AD8B4E9D7080A3C
:101D8000D8B4E2D7060AD8B4D4D71D0AD8B4DAD763
:101D9000E1D75351D8B4E1D7E7B1E79349C695F5F8
:101DA0004AC696F54BC697F54CC698F50AECC2F0B4
:101DB00095C5D5F696C5D6F60601D6AF05D0E7810E
:101DC000D56DD61FD8B0D62B49C6D9F44AC6DAF499
:101DD000DEC4F6F4DDC4F7F4000EF86E0800F5502A
:101DE0002E0AD8A415D049C6D9F44AC6DAF4DE2A98
:101DF000000EDD2249C695F54AC696F54BC697F505
:101E00004CC698F50AECC2F095C5D7F696C5D8F63B
:101E100049C6D9F44AC6DAF4DEC4F6F4DDC4F7F4F0
:101E2000000EF86E0800F550630AD8A427D049C602
:101E3000D9F44AC6DAF4DE2A000EDD224BC6D9F404
:101E40004CC6DAF4DFC44DF6020EDE26DFC44EF6D1
:101E5000000EDD224DC6D9F44EC6DAF4DF5006017D
:101E6000546F47C69EF548C69FF554C6A0F566EC6C
:101E7000C2F09EC547F69FC548F6120049C6D9F480
:101E80004AC6DAF4DEC459F6DDC45AF659C6F6F489
:101E90005AC6F7F4000EF86E0800F5C454F617D0D1
:101EA000594B5A2B59C6F6F45AC6F7F4000EF86E81
:101EB0000800F550680AD8A42ED0480E546F594B2C
:101EC0005A2B29D0690E546F26D0546B24D00601AA
:101ED0005451580AD8B4F6D73C0AD8B4F3D70C0AF0
:101EE000D8B4DED7010AD8B4EDD7050AD8B4E7D7FD
:101EF000020AD8B4E7D7010AD8B4E4D71B0AD8B489
:101F0000DED7010AD8B4DED70D0AD8B4DBD7020A6F
:101F1000D8B4D5D7DAD759C6F6F45AC6F7F4000EB6
:101F2000F86E0800F550640AD8B471D059C6F6F4BA
:101F30005AC6F7F4000EF86E0800F550690AD8B4D6
:101F400066D099D04BC6D9F44CC6DAF4DFC44DF64E
:101F5000020EDE26DFC44EF6000EDD224DC6D9F499
:101F60004EC6DAF4DF50556F000E55BFFF0E566FA8
:101F700030D04BC6D9F44CC6DAF4DFC44DF6040EAB
:101F8000DE26DFC44EF6000EDD224DC6D9F44EC665
:101F9000DAF4DEC455F6DEC456F6DEC457F6DEC407
:101FA00058F648D04BC6D9F44CC6DAF4DFC44DF627
:101FB000020EDE26DFC44EF6000EDD224DC6D9F439
:101FC0004EC6DAF4DEC455F6DDC456F6000E56BF32
:101FD000FF0E576F586F2ED04BC6D9F44CC6DAF4AB
:101FE000DFC44DF6020EDE26DFC44EF6000EDD2203
:101FF0004DC6D9F44EC6DAF4DEC44FF6DDC450F651
:102000004FC655F650C656F6576B586B13D0545101
:10201000480AD8B497D7200AD8B4C4D7010AD8B48C
:10202000C1D7050AD8B4A5D7180AD8B4BBD70E0AA9
:10203000D8B4D2D7010E59254D6F000E5A214E6FDC
:1020400049C6D9F44AC6DAF44DC6DEF44EC6DDF40C
:1020500047C6B1F548C6B2F555C6B3F556C6B4F590
:1020600057C6B5F558C6B6F597ECB7F0B1C547F603
:10207000B2C548F6120059C6F6F45AC6F7F4000E77
:10208000F86E0800F550780AD8B486D059C6F6F430
:102090005AC6F7F4000EF86E0800F550580AD8B486
:1020A0007BD059C6F6F45AC6F7F4000EF86E080055
:1020B000F5506F0AD8B470D059C6F6F45AC6F7F482
:1020C000000EF86E0800F550750AD8B465D0DCD063
:1020D0004BC6D9F44CC6DAF4DFC44DF6020EDE2648
:1020E000DFC44EF6000EDD224DC6D9F44EC6DAF43A
:1020F000DF504F6F4F51556F566B4BD04BC6D9F4D5
:102100004CC6DAF4DFC44DF6040EDE26DFC44EF60C
:10211000000EDD224DC6D9F44EC6DAF4DEC455F603
:10212000DEC456F6DEC457F6DEC458F648D04BC6B9
:10213000D9F44CC6DAF4DFC44DF6020EDE26DFC455
:102140004EF6000EDD224DC6D9F44EC6DAF4DEC4DA
:1021500055F6DDC456F6000E56BFFF0E576F586F8A
:102160002ED04BC6D9F44CC6DAF4DFC44DF6020EBD
:10217000DE26DFC44EF6000EDD224DC6D9F44EC673
:10218000DAF4DEC44FF6DDC450F64FC655F650C63D
:1021900056F6576B586B13D05451480AD8B498D799
:1021A000200AD8B4DED7010AD8B4DBD7050AD8B4E0
:1021B000A5D7180AD8B4BBD70E0AD8B4D2D7010E07
:1021C00059254D6F000E5A214E6F49C6D9F44AC6A3
:1021D000DAF44DC6DEF44EC6DDF442D047C6AEF5A5
:1021E00048C6AFF555C6B0F556C6B1F557C6B2F5F7
:1021F00058C6B3F555ECBCF0AEC547F6AFC548F6CA
:10220000120047C6AEF548C6AFF555C6B0F556C67E
:10221000B1F557C6B2F558C6B3F50BECBEF0AEC576
:1022200047F6AFC548F6120047C6AEF548C6AFF54B
:1022300055C6B0F556C6B1F557C6B2F558C6B3F592
:1022400059C6F6F45AC6F7F4000EF86E0800F5C445
:10225000B4F5C9ECB6F0AEC547F6AFC548F6120006
:1022600059C6F6F45AC6F7F4000EF86E0800F55099
:10227000580AD8B4D9D7370AD8B4B0D71A0AD8B4BC
:10228000C0D70D0AD8B4D0D759C6F6F45AC6F7F459
:10229000000EF86E0800F5506E0AD8B457D07CD006
:1022A0004BC6D9F44CC6DAF4DFC44DF6020EDE2676
:1022B000DFC44EF6000EDD224DC6D9F44EC6DAF468
:1022C000DEC4E9F4DEC4EAF4D3C6EFF452D0D3C6D8
:1022D0004DF6D4C64EF6000E4EBFFF0E4F6F506F38
:1022E0004BC6D9F44CC6DAF4DFC451F6020EDE2632
:1022F000DFC452F6000EDD2251C6D9F452C6DAF41C
:10230000DEC4E9F4DEC4EAF44DC6EEF44EC6EEF4E3
:102310004FC6EEF450C6EFF42CD04BC6D9F44CC6E1
:10232000DAF4DFC44DF6020EDE26DFC44EF6000EF0
:10233000DD224DC6D9F44EC6DAF4DEC4E9F4DEC4BB
:10234000EAF4D3C6EEF4D4C6EFF413D05451480ADD
:10235000D8B4A6D7200AD8B4E0D7010AD8B4DDD7BC
:10236000050AD8B4B4D7180AD8B4D7D70E0AD8B447
:10237000D4D7010E59254D6F000E5A214E6F49C614
:10238000D9F44AC6DAF44DC6DEF44EC6DDF4000ECA
:10239000486F000E476F120049C6D9F44AC6DAF4F6
:1023A000DEC4F6F4DDC4F7F4000EF86E0800F55054
:1023B000700AD8A42FD049C6D9F44AC6DAF4DE2A66
:1023C000000EDD2247C6AEF548C6AFF54BC6D9F4C0
:1023D0004CC6DAF4DFC44DF6020EDE26DFC44EF63C
:1023E000000EDD224DC6D9F44EC6DAF4DEC44FF637
:1023F000DDC450F64FC6B0F550C6B1F50501B26B5D
:10240000B36B780EB46FC9ECB6F0AEC547F6AFC586
:1024100048F61200536B49C6D9F44AC6DAF4DEC452
:10242000F6F4DDC4F7F4000EF86E0800F550730AF8
:10243000D8A40AD049C6D9F44AC6DAF4DE2A000E76
:10244000DD22010E536F44D049C6D9F44AC6DAF4EE
:10245000DEC4F6F4DDC4F7F4000EF86E0800F550A3
:102460006C0AD8A435D049C6D9F44AC6DAF4DEC419
:102470004DF6DDC44EF6010E4D27000E4E234DC61F
:10248000F6F44EC6F7F4000EF86E0800F5506C0A2C
:10249000D8A41ED049C6D9F44AC6DAF4DEC44DF633
:1024A000DDC44EF6020E4D27000E4E234DC6F6F447
:1024B0004EC6F7F4000EF86E0800F550730AD8A463
:1024C00007D0030E49C6D9F44AC6DAF4DE26B7D7D8
:1024D0005351D8B41FD047C69EF548C69FF54BC68A
:1024E000D9F44CC6DAF4DFC44DF6020EDE26DFC4A2
:1024F0004EF6000EDD224DC6D9F44EC6DAF4DEC427
:10250000A0F5DDC4A1F512ECB9F09EC547F69FC554
:1025100048F6120049C6D9F44AC6DAF4DEC459F6C0
:10252000DDC45AF659C6F6F45AC6F7F4000EF86E32
:102530000800F5C454F608D0594B5A2B25D06C0E20
:10254000546F22D0546B20D05451410AD8B4F7D7DD
:10255000040AD8B4F4D7030AD8B4F1D7010AD8B41E
:10256000EED70B0AD8B4E8D72D0AD8B4E8D7040AB6
:10257000D8B4E5D7030AD8B4E2D7010AD8B4DFD774
:102580000B0AD8B4D9D7DED759C6F6F45AC6F7F431
:10259000000EF86E0800F550610AD8B467D059C62D
:1025A000F6F45AC6F7F4000EF86E0800F550410A2A
:1025B000D8B45CD059C6F6F45AC6F7F4000EF86EDB
:1025C0000800F550650AD8B451D059C6F6F45AC679
:1025D000F7F4000EF86E0800F550450AD8B446D05E
:1025E00059C6F6F45AC6F7F4000EF86E0800F55016
:1025F000660AD8B43BD059C6F6F45AC6F7F4000EB2
:10260000F86E0800F550460AD8B430D059C6F6F432
:102610005AC6F7F4000EF86E0800F550670AD8B4F1
:1026200025D059C6F6F45AC6F7F4000EF86E080025
:10263000F550470AD8B41AD087D04BC6D9F44CC647
:10264000DAF4DFC44DF6040EDE26DFC44EF6000ECB
:10265000DD224DC6D9F44EC6DAF4DEC455F6DEC42A
:1026600056F6DEC457F6DEC458F607D054514C0A6D
:10267000D8B4E3D7200AD8B4E0D7010E59254D6F5E
:10268000000E5A214E6F49C6D9F44AC6DAF44DC637
:10269000DEF44EC6DDF438D047C60AF648C60BF65F
:1026A00055C60CF656C60DF657C60EF658C60FF6AA
:1026B00059C6F6F45AC6F7F4000EF86E0800F5C4D1
:1026C00010F6F0EC93F00AC647F60BC648F6120077
:1026D00047C60AF648C60BF655C60CF656C60DF6A2
:1026E00057C60EF658C60FF659C6F6F45AC6F7F492
:1026F000000EF86E0800F5C410F6BCEC88F00AC6AF
:1027000047F60BC648F6120059C6F6F45AC6F7F457
:10271000000EF86E0800F550410AD8B4BDD7040A7F
:10272000D8B4D6D7030AD8B4D3D7010AD8B4D0D7EF
:10273000260AD8B4B1D7040AD8B4CAD7030AD8B481
:10274000C7D7010AD8B4C4D749C6D9F44AC6DAF4FF
:10275000DEC4F6F4DDC4F7F4000EF86E0800F550A0
:10276000250AD8A418D049C6D9F44AC6DAF4DE2A14
:10277000000EDD22000E0501966F250E956F47C6EF
:1027800097F548C698F561ECC3F0000E0601486F56
:10279000010E476F120049C6D9F44AC6DAF4DE2AA0
:1027A000000EDD22F4D549C6D9F44AC6DAF4DEC4F7
:1027B000F6F4DDC4F7F4000EF86E0800F5500501DC
:1027C000956F966B47C697F548C698F561ECC3F0D0
:1027D00049C6D9F44AC6DAF4DE2A000EDD22D5D77E
:1027E00010C611F6BF0E1127190E116501D002D0C7
:1027F000010E01D0000E106F396B0CC635F60DC6F8
:1028000036F60EC637F60FC638F638AF14D0010EBE
:10281000396F35C695F536C696F537C697F538C67D
:1028200098F551ECD4F095C535F696C536F697C5B2
:1028300037F698C538F6000E0601436F000E426F5A
:10284000D5C633F6D6C634F63951D8A402D0E7A59A
:102850000ED03951D8A404D0000E186F2B0E03D01F
:10286000000E186F2D0E176F17C639F604D0E7A7A4
:1028700002D0200E396F35C695F536C696F537C6A7
:1028800097F538C698F57AECC0F095059611D8A45E
:1028900048D006013951D8B409D039C624FA000EFF
:1028A000436F010E426F3307D8A034071051D8B4DC
:1028B00010D0240E42250501956F0A0E0601432112
:1028C0000501966FE70E976FFF0E986F38ECD4F006
:1028D0000FD0240E42250501956F0A0E06014321F3
:1028E0000501966FEF0E976FFF0E986F38ECD4F0DE
:1028F0000601FD0E3327FF0E34230AC6A5F50BC6CD
:10290000A6F5240E0501A76F0A0EA86F33C6A9F518
:1029100034C6AAF57CECC5F0A5C50AF6A6C50BF62B
:10292000120035C695F536C696F537C697F538C602
:1029300098F57AECC0F095519611D8A430D00601E4
:102940003951D8B409D039C624FA000E436F010EAC
:10295000426F3307D8A034071051D8B410D0240EDA
:1029600042250501956F0A0E060143210501966F68
:10297000EB0E976FFF0E986F38ECD4F0B9D7240E9A
:1029800042250501956F0A0E060143210501966F48
:10299000F30E976FFF0E986F38ECD4F0A9D7000EA6
:1029A00006013C6F000E3D6F800E3E6F3F0E3F6F85
:1029B000000E2A6F000E296F35C695F536C696F5BE
:1029C00037C697F538C698F5000E0501996F000EC9
:1029D0009A6F000E9B6F000E9C6F55ECC6F0D8A04E
:1029E0001FD079D03CC6ADF53DC6AEF53EC6AFF5BD
:1029F0003FC6B0F5000E0501B16F000EB26F000EBC
:102A0000B36F400EB46F20ECA9F0ADC53CF6AEC577
:102A10003DF6AFC53EF6B0C53FF60601294B2A2B61
:102A200035C600F636C601F637C602F638C603F6D6
:102A3000000E0501B16F000EB26F000EB36F400EB5
:102A4000B46F3CC6ADF53DC6AEF53EC6AFF53FC66C
:102A5000B0F520ECA9F0ADC504F6AEC505F6AFC5DE
:102A600006F6B0C507F61DECBFF0D8A020D0BAD747
:102A70003CC6A3F53DC6A4F53EC6A5F53FC6A6F5E2
:102A8000000E0501A76F000EA86F000EA96F400E83
:102A9000AA6F3AECACF0A3C53CF6A4C53DF6A5C5BB
:102AA0003EF6A6C53FF606012907D8A02A0735C677
:102AB00000F636C601F637C602F638C603F63CC63F
:102AC00004F63DC605F63EC606F63FC607F61DEC03
:102AD000BFF0D8A0CDD70601D8BF05D0D7C624F601
:102AE000D8C625F604D0000E256F4A0E246F010EBD
:102AF0002425206F000E2521216F000E416F000E4E
:102B0000406F35C62BF636C62CF637C62DF638C6BE
:102B10002EF63CC613F63DC614F63EC615F63FC665
:102B200016F67BD02BC6A3F52CC6A4F52DC6A5F5AD
:102B30002EC6A6F53CC6A7F53DC6A8F53EC6A9F526
:102B40003FC6AAF53AECACF0A3C5BCF5A4C5BDF5EB
:102B5000A5C5BEF5A6C5BFF523ECB3F0BCC52FF6E1
:102B6000BDC530F6BEC531F6BFC532F62FC695F5E8
:102B700030C696F531C697F532C698F5ACECC1F083
:102B800095C53AF696C53BF62BC6A5F52CC6A6F517
:102B90002DC6A7F52EC6A8F53CC6B1F53DC6B2F5C3
:102BA0003EC6B3F53FC6B4F52FC6ADF530C6AEF59B
:102BB00031C6AFF532C6B0F520ECA9F0ADC5A9F528
:102BC000AEC5AAF5AFC5ABF5B0C5ACF570ECCEF0AF
:102BD000A5C52BF6A6C52CF6A7C52DF6A8C52EF6BD
:102BE0003CC6A3F53DC6A4F53EC6A5F53FC6A6F571
:102BF000000EA76F000EA86F800EA96F410EAA6F7E
:102C00003AECACF0A3C53CF6A4C53DF6A5C53EF62E
:102C1000A6C53FF60601404B412B2051405D415176
:102C2000800A116F2151800A1159D8A07BD73CC668
:102C3000ADF53DC6AEF53EC6AFF53FC6B0F5000EEC
:102C40000501B16F000EB26F000EB36F410EB46F8D
:102C500020ECA9F0ADC52FF6AEC530F6AFC531F604
:102C6000B0C532F62BC600F62CC601F62DC602F60C
:102C70002EC603F62FC604F630C605F631C606F694
:102C800032C607F61DECBFF0D8A017D02BC695F5BD
:102C90002CC696F52DC697F52EC698F52FC699F534
:102CA00030C69AF531C69BF532C69CF555ECC6F098
:102CB000D8A00BD006013AB108D0000E2F6F000E3D
:102CC000306F000E316F000E326F35C695F536C687
:102CD00096F537C697F538C698F52FC699F530C6DC
:102CE0009AF531C69BF532C69CF5B5ECAAF095C5B0
:102CF0002BF696C52CF697C52DF698C52EF613C65D
:102D00003CF614C63DF615C63EF616C63FF6000E56
:102D10000601236F000E226F266B000E286F000E37
:102D2000276F000E416F000E406FFDD02BC6A3F53C
:102D30002CC6A4F52DC6A5F52EC6A6F53CC6A7F54E
:102D40003DC6A8F53EC6A9F53FC6AAF53AECACF0DB
:102D5000A3C5BCF5A4C5BDF5A5C5BEF5A6C5BFF503
:102D600023ECB3F0BCC52FF6BDC530F6BEC531F6B9
:102D7000BFC532F62FC695F530C696F531C697F524
:102D800032C698F5ACECC1F095C53AF696C53BF65F
:102D900006013A513B11D8B423AF05D0E7B903D0AF
:102DA000274B282B5DD02651D8B423AF20D0240E3A
:102DB0004225D96E0A0E4321DA6E2E0EDF6E424B8B
:102DC000432B3307D8A03407010E266F10D0240EF2
:102DD0004225D96E0A0E4321DA6E300EDF6E424B69
:102DE000432B3307D8A034072707D8A0280727513B
:102DF0002811D8A4ECD73BBF08D03B5104E10A0E00
:102E00003A5DD8A002D0570E01D0300E3A253A6F65
:102E1000000E3B213B6F1051D8B415D03AC611F6C5
:102E2000200E11139F0E11271A0E11610CD03AC6F5
:102E300011F69F0E1127190E116501D004D05F0EF7
:102E40003A153A6F3B6B240E4225D96E0A0E432188
:102E5000DA6E3AC6DFF4424B432B3307D8A034076F
:102E60002BC6A5F52CC6A6F52DC6A7F52EC6A8F52A
:102E70003CC6B1F53DC6B2F53EC6B3F53FC6B4F5A6
:102E80002FC6ADF530C6AEF531C6AFF532C6B0F5DA
:102E900020ECA9F0ADC5A9F5AEC5AAF5AFC5ABF557
:102EA000B0C5ACF570ECCEF0A5C52BF6A6C52CF6DA
:102EB000A7C52DF6A8C52EF63CC6A3F53DC6A4F5BC
:102EC0003EC6A5F53FC6A6F5000EA76F000EA86F7B
:102ED000800EA96F410EAA6F3AECACF0A3C53CF688
:102EE000A4C53DF6A5C53EF6A6C53FF606012207D8
:102EF000D8A02307404B412BD8AF15D02BC695F552
:102F00002CC696F52DC697F52EC698F5000E050130
:102F1000996F000E9A6F000E9B6F000E9C6F55EC20
:102F2000C6F0D8B013D006012051405D4151800A4F
:102F3000116F2151800A1159D8B008D043BFF6D67D
:102F4000435104E14B0E425DD8A0F0D60601265154
:102F5000D8A432D027512811D8A4D8BF2DD0D85109
:102F600003E1D705D8A028D043BF06D0435124E1C0
:102F70004B0E425DD8B020D0010E266F240E4225A4
:102F8000D96E0A0E4321DA6E2E0EDF6E424B432BB2
:102F90003307D8A0340710D0240E4225D96E0A0E6C
:102FA0004321DA6E300EDF6E424B432B3307D8A03D
:102FB00034072707D8A0280727512811D8B408D0EC
:102FC00043BFEAD7435104E14B0E425DD8A0E4D79A
:102FD0002651D8B4E7A90AD0240E4225D96E0A0E8C
:102FE0004321DA6E2E0EDF6E424B432B240E422518
:102FF000D96E0A0E4321DA6EDF6A000E416F4F0E62
:10300000406F240E4025D96E0A0E4121DA6EDF6A28
:103010001F6B2AAF06D0010E1F6F296D2A1FD8B073
:103020002A2B000E256F010E246F2CD04007D8A04C
:103030004107240E4025D96E0A0E4121DA6E29C6B9
:1030400095F52AC696F5000E0501986F0A0E976F42
:10305000FBECC9F09551300FDF6E29C695F52AC6F5
:1030600096F5000E986F0A0E976FEAECC7F095C5BB
:1030700029F696C52AF606012407D8A025073307A6
:10308000D8A0340729512A11D8A4D0D725BF05D0FC
:103090002551CCE12405D8B0C9D74007D8A04107B5
:1030A0001F51D8A404D0000E1A6F2B0E03D0000EAF
:1030B0001A6F2D0E196F240E4025D96E0A0E41216C
:1030C000DA6E19C6DFF43307D8A034074007D8A05A
:1030D00041071051D8A404D0000E1C6F700E03D00D
:1030E000000E1C6F500E1B6F240E4025D96E0A0E69
:1030F0004121DA6E1BC6DFF43307D8A03407240E53
:10310000116F0A0E126F4251115F4351125B405111
:1031100011250501956F0601415112210501966F98
:10312000240E976F0A0E986F42C699F543C69AF51A
:1031300066ECCBF006014251405D426F435141596C
:10314000436F3951D8A404D0000E416F020E03D052
:10315000000E416F030E406FE7B30FD022D042073D
:10316000D8A04307240E4225D96E0A0E4321DA6EF9
:10317000300EDF6E3307D8A034073351405D415124
:10318000800A116F3451800A1159D8B00AD04251C7
:10319000405D4151800A116F4351800A1159D8A0F6
:1031A000DED71051D8A404D0000E1E6F780E03D0C5
:1031B000000E1E6F580E1D6F4207D8A04307240E45
:1031C0004225D96E0A0E4321DA6E1DC6DFF442078E
:1031D000D8A04307240E4225D96E0A0E4321DA6E89
:1031E000300EDF6E3951D8B40BD04207D8A0430758
:1031F000240E4225D96E0A0E4321DA6E39C6DFF459
:103200004051335F4151345B0AC6A5F50BC6A6F5A4
:10321000240E42250501A76F0A0E06014321050170
:10322000A86F33C6A9F534C6AAF57CECC5F0A5C5D0
:103230000AF6A6C50BF61200800E0501AD250601A3
:10324000136FA20E0501AE210601146F430E050196
:10325000AF210601156FC70E0501B0210601166FDB
:10326000810E0501AD5D5D0EAE59BC0EAF59380E35
:10327000B059D8A035D013C695F514C696F515C625
:1032800097F516C698F5800E996F510E9A6F010E3C
:103290009B6F000E9C6FA9ECC7F095C50FF696C505
:1032A00010F697C511F698C512F613C695F514C613
:1032B00096F515C697F516C698F5800E996F510EBE
:1032C0009A6F010E9B6F000E9C6FCFECCAF095C5F4
:1032D00023F696C524F697C525F698C526F634D06C
:1032E00013C695F514C696F515C697F516C698F546
:1032F000800E996F510E9A6F010E9B6F000E9C6F9E
:1033000047ECC1F095C50FF696C510F697C511F6B6
:1033100098C512F613C6A3F514C6A4F515C6A5F5EF
:1033200016C6A6F5800EA76F510EA86F010EA96FE5
:10333000000EAA6FBCECC2F0A3C523F6A4C524F608
:10334000A5C525F6A6C526F6060126AF10D0800E27
:103350002327510E2423010E2523000E2623FF0EC2
:103360000F27FF0E1023FF0E1123FF0E1223030E53
:103370000F250501A36F000E060110210501A46FA2
:10338000000E060111210501A56F000E0601122194
:103390000501A66F070EA76F000EA86F000EA96F9C
:1033A000000EAA6FBCECC2F0A3C509F6A4C50AF6CC
:1033B00006010AAF04D0070E0927000E0A230FC624
:1033C00095F510C696F511C697F512C698F5B10E8B
:1033D0000501996F3A0E9A6F020E9B6F000E9C6F5B
:1033E00047ECC1F095C504F696C505F697C506F6F7
:1033F00098C507F60FC6A3F510C6A4F511C6A5F526
:1034000012C6A6F5B10EA76F3A0EA86F020EA96FED
:10341000000EAA6FBCECC2F0A3C529F6A4C52AF61B
:10342000A5C52BF6A6C52CF606012CAF10D0B10E03
:1034300029273A0E2A23020E2B23000E2C23FF0EDF
:103440000427FF0E0523FF0E0623FF0E072329C6C0
:1034500095F52AC696F52BC697F52CC698F5AC0EB1
:103460000501996F8E0E9A6F000E9B6F000E9C6F78
:1034700047ECC1F095C51BF696C51CF697C51DF621
:1034800098C51EF6040E06011B191C111D111E11F4
:10349000D8A408D0FF0E1B27FF0E1C23FF0E1D23F0
:1034A000FF0E1E231BC695F51CC696F51DC697F587
:1034B0001EC698F5AC0E0501996F8E0E9A6F000E20
:1034C0009B6F000E9C6F4DECCCF095510601295F6F
:1034D0000501965106012A5B0501975106012B5BF8
:1034E0000501985106012C5B29C695F52AC696F56B
:1034F0002BC697F52CC698F5B50E0501996F050EEC
:103500009A6F000E9B6F000E9C6F47ECC1F095C543
:103510001FF696C520F697C521F698C522F6190E16
:1035200006011F19201121112211D8A408D0FF0E65
:103530001F27FF0E2023FF0E2123FF0E22231FC66D
:1035400095F520C696F521C697F522C698F5B50ED5
:103550000501996F050E9A6F000E9B6F000E9C6F10
:103560004DECCCF095510601295F050196510601FD
:103570002A5B0501975106012B5B05019851060155
:103580002C5B29C695F52AC696F52BC697F52CC651
:1035900098F56D0E0501996F010E9A6F000E9B6FE5
:1035A000000E9C6F47ECC1F095C517F696C518F64E
:1035B00097C519F698C51AF6040E060117191811C1
:1035C00019111A11D8A408D0FF0E1727FF0E1823BF
:1035D000FF0E1923FF0E1A2317C695F518C696F588
:1035E00019C697F51AC698F56D0E0501996F010E6B
:1035F0009A6F000E9B6F000E9C6F4DECCCF09551B6
:103600000601295F0501965106012A5B05019751C4
:1036100006012B5B0501985106012C5B086B1751C5
:10362000181119111A11D8A40ED01F5120112111EF
:103630002211D8A406D01B511C111D111E11D8A493
:1036400002D0010E086F08C60DF60E6B29510D252C
:103650000501B36F06012A510E210501B46F3B0E1F
:10366000B32506010B6F000E0501B42106010C6F96
:103670006D0E0D250501B36F010E06010E2105012A
:10368000B46FB35106010B5D0C51800A0501B56F93
:10369000B451800AB559D8A011D06D0E06010D2580
:1036A0000501B36F010E06010E210501B46FB35180
:1036B00006010B5F0501B45106010C5B1FC6B3F593
:1036C00020C6B4F521C6B5F522C6B6F5020ED890CF
:1036D0000501B337B437B537B637E82EF8D704C687
:1036E00095F505C696F506C697F507C698F5900EAA
:1036F000996F010E9A6F000E9B6F000E9C6F4DEC40
:10370000CCF095C5B7F596C5B8F597C5B9F598C588
:10371000BAF51BC695F51CC696F51DC697F51EC6CF
:1037200098F5640E996F000E9A6F000E9B6F000E55
:103730009C6F4DECCCF09551B725BB6F9651B821DD
:10374000BC6F9751B921BD6F9851BA21BE6FB3516B
:10375000BB25BF6FB451BC21C06FB551BD21C16F36
:10376000B651BE21C26F060117510501BF250601E2
:10377000006F18510501C0210601016F19510501A3
:10378000C1210601026F1A510501C2210601036F12
:10379000000E286F000E276F24D0260E0601272565
:1037A000F66EF80E2821F76EF86A000EF82208006F
:1037B000F5C4B3F5B3C5B4F50501B56BB66BB76B1E
:1037C000B4510601295F0501B55106012A5B0501C7
:1037D000B65106012B5B0501B75106012C5B274B47
:1037E000282B260E2725F66EF80E2821F76EF86A8C
:1037F000000EF8220800F5C4B3F5B3C5B4F5050111
:10380000B56BB66BB76BB4510601295D0501B551B7
:1038100006012A590501B65106012B592C51800A7F
:103820000501B86FB751800AB859D8B0B6D70601AC
:1038300028BF10D0285104E10A0E275DD8A00AD075
:10384000F40E2727FF0E2823010E0027000E012368
:1038500002230323640E00250501B36F000E060149
:1038600001210501B46F20EE0AF0B151D926B25101
:10387000DA22B3C5DEF4B4C5DDF4020E0601272555
:103880000501B36F000E060128210501B46F20EE7B
:1038900008F0B151D926B251DA22B3C5DEF4B4C56D
:1038A000DDF4010E060129250501B36F000E0601A6
:1038B0002A210501B46F20EE06F0B151D926B2518C
:1038C000DA22B3C5DEF4B4C5DDF420EE0CF0B1515C
:1038D000D926B251DA2209C6DEF40AC6DDF420EE9A
:1038E0000EF0B151D926B251DA220BC6DEF40CC665
:1038F000DDF423C695F524C696F525C697F526C6AC
:1039000098F5100E996F0E0E9A6F000E9B6F000EB9
:103910009C6F47ECC1F020EE04F0B151D926B251B2
:10392000DA2295C5DEF496C5DDF43C0E996F000EE3
:103930009A6F000E9B6F000E9C6F23C695F524C6F0
:1039400096F525C697F526C698F547ECC1F095C5BE
:10395000A3F596C5A4F597C5A5F598C5A6F53C0EA3
:10396000A76F000EA86F000EA96F000EAA6FBCEC27
:10397000C2F020EE02F0B151D926B251DA22A3C52D
:10398000DEF4A4C5DDF423C6A3F524C6A4F525C63C
:10399000A5F526C6A6F53C0EA76F000EA86F000E73
:1039A000A96F000EAA6FBCECC2F0B1C5D9F4B2C5C4
:1039B000DAF4A3C5DEF4A4C5DDF4000EAE6F000E8C
:1039C000AD6F120070C8B7F571C8B8F572C8B9F517
:1039D00073C8BAF50801702B000E7123722373238C
:1039E0000501BA51B911B81108E1280EB75DD8B078
:1039F00004D00701EC51D8B41200C38E000E0801A8
:103A0000706F000E716F000E726F000E736F050104
:103A100020EE05F0B551D926B651DA22010EDF6E3F
:103A20003AD320EE05F0B551D926B651DA22020E6E
:103A3000DF6EE4ECD7F002ECD8F0050120EE01F0E7
:103A4000B551D926B651DA22010EDF6EB5C5D9F4CB
:103A5000B6C5DAF400EE02F0B551E926B651EA2215
:103A6000DFC4EFF4B5C5D9F4B6C5DAF4DF2A20EE29
:103A700002F0B551D926B651DA22030EDE18D8A4C9
:103A80001AD020EE08F0B551D926B651DA22DF500F
:103A9000D8B411D0B5C5D9F4B6C5DAF400EE02F049
:103AA000B551E926B651EA22DFC4EFF4B5C5D9F421
:103AB000B6C5DAF4DF2A20EE02F0B551D926B651A8
:103AC000DA22040EDE18D8A41AD020EE07F0B55181
:103AD000D926B651DA22DF50D8B411D0B5C5D9F401
:103AE000B6C5DAF400EE02F0B551E926B651EA2285
:103AF000DFC4EFF4B5C5D9F4B6C5DAF4DF2A20EE99
:103B000002F0B551D926B651DA22050EDE18D8A436
:103B10001AD020EE0AF0B551D926B651DA22DF507C
:103B2000D8B411D0B5C5D9F4B6C5DAF400EE02F0B8
:103B3000B551E926B651EA22DFC4EFF4B5C5D9F490
:103B4000B6C5DAF4DF2A20EE02F0B551D926B65117
:103B5000DA22060EDE18D8A41AD020EE0CF0B551E9
:103B6000D926B651DA22DF50D8B411D0B5C5D9F470
:103B7000B6C5DAF400EE02F0B551E926B651EA22F4
:103B8000DFC4EFF4B5C5D9F4B6C5DAF4DF2A20EE08
:103B900002F0B551D926B651DA22070EDE18D8A4A4
:103BA0001AD020EE0BF0B551D926B651DA22DF50EB
:103BB000D8B411D0B5C5D9F4B6C5DAF400EE02F028
:103BC000B551E926B651EA22DFC4EFF4B5C5D9F400
:103BD000B6C5DAF4DF2AB5C5D9F4B6C5DAF4080EED
:103BE000DF64D5D0B5C5D9F4B6C5DAF4DF6ACFD075
:103BF00020EE05F0B551D926B651DA22080EDF6E57
:103C0000000EA66F0F0EA76F9A0EA86FFA0EA96F7F
:103C1000000EAB6F060EAA6FC9ECD1F0ADD020EE4E
:103C200005F0B551D926B651DA22070EDF6E000E27
:103C3000A66F0F0EA76F880EA86FFA0EA96F000E61
:103C4000AB6F060EAA6FC9ECD1F096D020EE05F04E
:103C5000B551D926B651DA22130EDF6E000EA66FCB
:103C60000F0EA76F760EA86FFA0EA96F000EAB6F3E
:103C7000060EAA6FC9ECD1F07FD020EE05F0B55149
:103C8000D926B651DA22030EDF6E000EA66F0F0E94
:103C9000A76F7C0EA86FFA0EA96F000EAB6F060E11
:103CA000AA6FC9ECD1F068D020EE05F0B551D92645
:103CB000B651DA22040EDF6E000EA66F0F0EA76F4C
:103CC000820EA86FFA0EA96F000EAB6F060EAA6FD8
:103CD000C9ECD1F051D020EE05F0B551D926B6513E
:103CE000DA22050EDF6E000EA66F0F0EA76F940E80
:103CF000A86FFA0EA96F000EAB6F060EAA6FC9EC83
:103D0000D1F03AD020EE05F0B551D926B651DA22DD
:103D1000050EDF6E000EA66F0F0EA76F8E0EA86F3A
:103D2000FA0EA96F000EAB6F060EAA6FC9ECD1F0A8
:103D300023D020EE01F0B551D926B651DA22DF6A40
:103D4000B5C5D9F4B6C5DAF4DF6ABFD120EE05F007
:103D5000B551D926B651DA22060EDF6E000EA66FD7
:103D60000F0EA76FA00EA86FFA0EA96F000EAB6F13
:103D7000060EAA6FC9ECD1F020EE03F0B551D9269A
:103D8000B651DA22A6C5DEF4A7C5DDF49ED120EE39
:103D900002F0B551D926B651DA22DF50B76FB86BB1
:103DA000B851000AD8A4DAD7B751000AD8B4CED790
:103DB000010AD8B490D7030AD8B4A4D7010AD8B45A
:103DC00073D7070AD8B459D7010AD8B43FD7030A22
:103DD000D8B40ED7010AD8B422D70F0AD8B4A9D7BD
:103DE000BDD720EE05F0B551D926B651DA22090E1D
:103DF000DF6E000E42ECD0F098519711961104E15D
:103E0000280E955DD8A061D10701D86B050120EE81
:103E100001F0B551D926B651DA22020EDF6EDAEC86
:103E2000D7F0050120EE05F0B551D926B651DA22BA
:103E30000A0EDF6E4AD120EE05F0B551D926B651F3
:103E4000DA220B0EDF6E000E23ECD0F095519611A6
:103E500097119811D8B439D1BB6B0AD0000EBB258D
:103E6000D96EDA6A0F0EDA22DF50CFECD3F0BB2B1B
:103E700020EE03F0B551D926B651DA22BB51B96F05
:103E8000BA6BDE50B95DDE50BA59D8A0E7D720EE44
:103E900001F0B551D926B651DA22030EDF6EDAEC05
:103EA000D7F0050120EE05F0B551D926B651DA223A
:103EB0000C0EDF6E010E0701E827000EE923EA234E
:103EC000EB23EC6BDCECD9F00009D8B4FED0DAECD3
:103ED000D7F0FBD020EE05F0B551D926B651DA2245
:103EE0000D0EDF6E000E23ECD0F095519611971158
:103EF0009811D8B4EAD020EE05F0B551D926B651C4
:103F0000DA220E0EDF6EA0D0B5C5A4F5B6C5A5F5B4
:103F10000A0EB525A66F000EB621A76F000EA96F79
:103F2000080EA86F6DECBAF0D0D0B5C5A4F5B6C533
:103F3000A5F5070EB525A66F000EB621A76F000EDA
:103F4000A96F080EA86F6DECBAF0BFD0B5C5A4F587
:103F5000B6C5A5F5080EB525A66F000EB621A76F4C
:103F6000000EA96F080EA86F6DECBAF0AED0B5C503
:103F7000A4F5B6C5A5F5090EB525A66F000EB621A8
:103F8000A76F000EA96F6D0EA86F3C0EAA6F680E8A
:103F9000AB6F010EAC6FF4ECB5F097D0B5C5A4F5DE
:103FA000B6C5A5F5090EB525A66F000EB621A76FFB
:103FB000000EA96F850EA86FD60EAA6FB30EAB6F59
:103FC000010EAC6FF4ECB5F080D0B5C5A4F5B6C564
:103FD000A5F50C0EB525A66F000EB621A76F000E35
:103FE000A96F070EA86F680EAA6FA70EAB6F010E20
:103FF000AC6FF4ECB5F069D0B5C5A4F5B6C5A5F5C0
:104000000B0EB525A66F000EB621A76F000EA96F87
:10401000150EA86FCC0EAA6FA30EAB6F010EAC6F7E
:10402000F4ECB5F052D0B5C5A4F5B6C5A5F5060EAD
:10403000B525A66F000EB621A76F000EA96F070E5B
:10404000A86F04ECB1F041D020EE02F0B551D926B2
:10405000B651DA22DF50B76FB86BB851000AD8A456
:10406000E2D7B751000AD8B4DED7010AD8B47FD757
:10407000030AD8B493D7010AD8B468D7070AD8B4CA
:1040800054D7010AD8B440D7030AD8B49ED7010A3E
:10409000D8B4B2D7C8D720EE01F0B551D926B65161
:1040A000DA22DF50B76FB86BB851000AD8A40DD030
:1040B000B751000AD8B4B5D4010AD8B492D6030ACD
:1040C000D8B4B9D6010AD8B405D7C39E050120EEED
:1040D00005F0B551D926B651DA221200C386BF8643
:1040E000000197A507D0010E07012027000E21230C
:1040F00022232323000194B70AD00501F5A507D098
:10410000010E07014427000E4523462347238DC097
:10411000F4F5000E09016525D96EDA6A090EDA2276
:10412000F4C5DFF47151D8B460D0070E6519D8A476
:1041300053D002C965F5070E05016517040E6561C8
:1041400031D00901015161ECD3F00601EF51D8A43F
:1041500039D0020E09010119D8A409D0666B100EDE
:104160006625D96EDA6A090EDA22DF6A2BD0100EC4
:104170006625D96EDA6A090EDA2201C9DFF4662BE8
:104180000251030B676F130E66651CD0100E662577
:10419000D96EDA6A090EDA22DF6A666B010E060151
:1041A000EF6F10D00901666B100E6625D96EDA6AC2
:1041B000090EDA22DF6A010E0501ED6F010E06011C
:1041C000EE6FECD70901716B656B010E07012427B7
:1041D000000E252326232723010E07013427000E76
:1041E0003523362337230501F46B09016C51D8B40C
:1041F0004ED0070E6519D8A441D001C965F5050157
:10420000666B676B686B610096F579F261009AF5F1
:104210007AF261009EF57BF26100A2F57CF2090161
:1042200002510501666F656B65C567F566C568F582
:10423000000E68BFFF0E696F6A6F000E67156B6F27
:10424000FF0E68156C6F000E69156D6F000E6A1514
:104250006E6F28EE79F26B51DE266C51DE226D51C5
:10426000DE226E51DE22F46B09016C6B656B010E70
:1042700007012427000E252326232723010E0701EB
:104280003427000E3523362337230501F46B09014B
:104290006E51D8B421D0070E6519D8A414D001519D
:1042A0000501656F666B610096F5A6F261009AF5EF
:1042B000A7F209016E6B656B010E07012427000E42
:1042C000252326232723010E07013427000E35233B
:1042D000362337230501F46B09017251D8B46FD02E
:1042E000070E6519D8A445D002C965F5070E05016A
:1042F0006517040E65610DD035ECD8F00009D8B40F
:1043000004D07DECD3F0706F01D0706B70C58EF06F
:1043100023D0570E706FED05D8A4F8D7F20E060122
:10432000F825D96E1C0EF921DA6EDF500501706F89
:104330000601F84BF92B05017051D8B407D00601DE
:10434000F851F65DF951F759D8B0E0D7000E0601E3
:10435000F96F000EF86FDAD70901726B656B010E09
:1043600007012427000E2523262327230501F46BAC
:1043700026D0010E07013427000E352336233723BC
:1043800002C965F5070E05016517040E65610AD0BF
:1043900009016505D8A403D00501706B0DD035EC7B
:1043A000D8F009D0F20E0601F825D96E1C0EF921BD
:1043B000DA6EDF500501706F70C58EF0D7D7090136
:1043C0006D51D8B428D0070E6519D8A40ED0FDC5FC
:1043D00070F570C58EF06D6B656B010E07012427BB
:1043E000000E25232623272314D0010E070134278E
:1043F000000E35233623372309016505D8A405D0DF
:104400000501FF510109706F02D0FEC570F570C53E
:104410008EF00501F46B09016F51D8B451D0070E2D
:104420006519D8A423D028EEFEF2DE50DE10DE108F
:10443000DE10D8A408D028EE02F3DE50DE10DE1025
:10444000DE10D8B404D0240E00018E6F02D000011B
:104450008E6B09016F6B656B010E07012427000E3F
:104460002523262327230501F46B2AD0010E0701FB
:104470003427000E35233623372309016505D8A4D8
:104480000BD00501F351020D000EF324D96E0B0E73
:10449000F420DA6EDF5011D00501F351020D000E49
:1044A000F324D96E0B0EF420DA6EDEC465F5DDC49C
:1044B00066F566C565F5666B655100018E6FD3D7ED
:1044C00009017051D8B426D0070E6519D8A410D0B0
:1044D000570E00018E6F0901706B656B010E0701AD
:1044E0002427000E2523262327230501F46B12D051
:1044F000010E07013427000E352336233723090127
:104500006505D8A404D0570E00018E6FEED74AC7B8
:104510008EF0EBD70901652B090E656508D0656B38
:10452000010E07012827000E29232A232B2305012A
:10453000F451F00B6F6F09016E51D8A449D16D5140
:10454000D8A446D16C51D8A443D16E51D8A440D13F
:104550007051D8A43DD17251D8A43AD17151D8A488
:1045600037D1900E05016F19D8A41AD0F59FF59593
:10457000F597010E07010427000E052306230723E4
:10458000010E0901656F010E6E6F010E07013427E0
:10459000000E3523362337230501F5898AECD9F03F
:1045A000800E6F19D8A456D0F59FF595F597010E9A
:1045B00007010027000E0123022303230501F45104
:1045C0000F0BF36F050EF3653CD01ED0160E0DD009
:1045D000170E0BD01D0E09D03B0E07D03C0E05D098
:1045E0003D0E03D03E0E01D03F0EF36F2AD00001E6
:1045F000849FBF820901656B2DECD8F0BF9200014A
:10460000848F0501F36B1DD0F351060AD8B4DED7B1
:10461000010AD8B4DDD70F0AD8B4DCD7010AD8B460
:10462000DBD7030AD8B4DAD7010AD8B4D9D7070A36
:10463000D8B4D8D7010AD8B4D7D7020AD8B4D7D7B4
:10464000E0D7010E0901656F010E6F6F0501F58955
:104650008AECD9F028EEFEF2DE50DE10DE10DE101D
:10466000D8A417D0F00E6F19D8A413D0F59FF585F4
:10467000F597010E07010827000E09230A230B23D3
:10468000010E0901656F010E6D6F0501F5898AEC58
:10469000D9F028EE02F3DE50DE10DE10DE10D8A4D2
:1046A0001ED0A00E6F19D8A41AD0F59FF585F597E6
:1046B000010E07010827000E09230A230B23010E10
:1046C0000901656F010E6C6F010E07013427000EA2
:1046D0003523362337230501F5898AECD9F028EEF6
:1046E00002F3DE50DE10DE10DE10D8A41BD0100E58
:1046F0006F19D8A417D0F59FF595F587010E07011E
:104700001827000E19231A231B230501F4510F0B40
:10471000F36F010E0901656F010E726F0501F589D6
:104720008AECD9F028EE02F3DE50DE10DE10DE1047
:10473000D8A422D0B00E6F19D8A41ED0F59FF5953D
:10474000F587010E07011827000E19231A231B23D2
:104750000501F4510F0BF36F010E0901656F010E96
:10476000716F010E07013427000E352336233723DE
:104770000501F5898AECD9F0400E6F19D8A428D02C
:10478000010E0901656F010E706F6F51D8A414D02E
:104790006E51D8A411D06C51D8A40ED06D51D8A4AC
:1047A0000BD07151D8A408D07251D8A405D0BF82C3
:1047B0002DECD8F0C19EBF920501F5898AECD9F0A5
:1047C000010EE66E000EE66E010EE66E29ECD3F0E9
:1047D000010E07012C27000E2D232E232F23BF9619
:1047E000C3961200AA0E0501A06FFA0EA16F040E67
:1047F000A26F18ECC9F0AA0EA06FFA0EA16F040EFA
:10480000A26F18ECC9F0D1C5D9F4D2C5DAF4DFAA89
:1048100027D0A60EA06FFA0EA16F040EA26F18EC9F
:10482000C9F0000E996F0A0E986F4CECD5F0090193
:10483000A769A869A969AA69010E07015F27000E87
:10484000602361236223D1C5D9F4D2C5DAF4DF50E5
:104850000501B46FB4510901B36FB46BB56BB66B9E
:10486000CE0E0501A06FFA0EA16F040EA26F18EC18
:10487000C9F0D1C5D9F4D2C5DAF4DFAA1DD0010E32
:1048800007015F27000E602361236223FE0E0901EA
:10489000A76FFF0EA86FFF0EA96FFF0EAA6FD1C5FD
:1048A000D9F4D2C5DAF4DF500501B46FB45109016F
:1048B000B36FB46BB56BB66BCA0E0501A06FFA0E81
:1048C000A16F040EA26F18ECC9F0D1C5D9F4D2C5FE
:1048D000DAF4DFAA1DD0010E07015F27000E602366
:1048E00061236223FD0E0901A76FFF0EA86FFF0E63
:1048F000A96FFF0EAA6FD1C5D9F4D2C5DAF4DF5083
:104900000501B46FB4510901B36FB46BB56BB66BED
:10491000C60E0501A06FFA0EA16F040EA26F18EC6F
:10492000C9F0D1C5D9F4D2C5DAF4DFAA1DD0010E81
:1049300007015F27000E602361236223FC0E09013B
:10494000A76FFF0EA86FFF0EA96FFF0EAA6FD1C54C
:10495000D9F4D2C5DAF4DF500501B46FB4510901BE
:10496000B36FB46BB56BB66BC20E0501A06FFA0ED8
:10497000A16F040EA26F18ECC9F0D1C5D9F4D2C54D
:10498000DAF4DFAA1DD0010E07015F27000E6023B5
:1049900061236223FB0E0901A76FFF0EA86FFF0EB4
:1049A000A96FFF0EAA6FD1C5D9F4D2C5DAF4DF50D2
:1049B0000501B46FB4510901B36FB46BB56BB66B3D
:1049C000BA0E0501A06FFA0EA16F040EA26F18ECCB
:1049D000C9F0D1C5D9F4D2C5DAF4DFAA1DD0010ED1
:1049E00007015F27000E602361236223FA0E09018D
:1049F000A76FFF0EA86FFF0EA96FFF0EAA6FD1C59C
:104A0000D9F4D2C5DAF4DF500501B46FB45109010D
:104A1000B36FB46BB56BB66BB60E0501A06FFA0E33
:104A2000A16F040EA26F18ECC9F0D1C5D9F4D2C59C
:104A3000DAF4DFAA1DD0010E07015F27000E602304
:104A400061236223F90E0901A76FFF0EA86FFF0E05
:104A5000A96FFF0EAA6FD1C5D9F4D2C5DAF4DF5021
:104A60000501B46FB4510901B36FB46BB56BB66B8C
:104A7000BE0E0501A06FFA0EA16F040EA26F18EC16
:104A8000C9F0000E996F020E986F4CECD5F0D1C5AD
:104A9000D9F4D2C5DAF4DFAC1DD0F40E0901A76F4A
:104AA000FF0EA86FFF0EA96FFF0EAA6F010E070180
:104AB0005F27000E602361236223D1C5D9F4D2C5DC
:104AC000DAF4DF500501B46FB4510901B36FB46B70
:104AD000B56BB66BAE0E0501A56FFA0EA66F000E94
:104AE000A86F000EA76F21ECB2F0D890A833A733BF
:104AF000A633A533A5C5B7F9A6C5B8F9A7C5B9F9B1
