:0400000085EF00F098
:10000800367D367D367D367D367D367D367DF57B93
:10001800367D367DD678E478367D367D367D367DFC
:10002800F278367D367D367DBA78367DC878367D6D
:10003800367D367D367D367DFD77367D367D737827
:1000480099798B79367D367D367D367D367D367D60
:10005800B579367DA779367D6576367D367D367DF0
:10006800367D367D367D367D0E791C792A79367D4A
:10007800367D367D367D367D4200367D367D367D51
:10008800367D367D367D367DED77367D367D367D1F
:10009800D179C379367D367D4200367D367D367D11
:1000A800367D367D367D367D387946795479367D8C
:1000B800367D367D367DBD77367D367D367D367D1F
:1000C800367D367D367D367D367D367D367D367D90
:1000D800367D367D367D367D367D367D367D367D80
:1000E8004200367D367D367D367D367D367D367DE1
:1000F8002F7D367D367D0E7C367D367D367D367D90
:06010800FF00B8EFC1F09A
:10D1E8000000C0C101C30302C2C60607C705C5C403
:10D1F80004CC0C0DCD0FCFCE0E0ACACB0BC9090833
:10D20800C8D81819D91BDBDA1A1EDEDF1FDD1D1C72
:10D21800DC14D4D515D71716D6D21213D311D1D002
:10D2280010F03031F133F3F23236F6F737F53534A2
:10D23800F43CFCFD3DFF3F3EFEFA3A3BFB39F9F872
:10D248003828E8E929EB2B2AEAEE2E2FEF2DEDEC12
:10D258002CE42425E527E7E62622E2E323E1212042
:10D26800E0A06061A163A3A26266A6A767A5656442
:10D27800A46CACAD6DAF6F6EAEAA6A6BAB69A9A8B2
:10D288006878B8B979BB7B7ABABE7E7FBF7DBDBCF2
:10D298007CB47475B577B7B67672B2B373B1717082
:10D2A800B0509091519353529296565797559594E2
:10D2B800549C5C5D9D5F9F9E5E5A9A9B5B995958F2
:10D2C80098884849894B8B8A4A4E8E8F4F8D4D4C92
:10D2D8008C448485458747468682424383418180C2
:10D2E8004000C1814001C0804101C0804100C1812E
:10D2F8004001C0804100C1814000C1814001C0801F
:10D308004101C0804100C1814000C1814001C0800D
:10D318004100C1814001C0804101C0804100C181FC
:10D328004001C0804100C1814000C1814001C080EE
:10D338004100C1814001C0804101C0804100C181DC
:10D348004000C1814001C0804101C0804100C181CD
:10D358004001C0804100C1814000C1814001C080BE
:10D368004101C0804100C1814000C1814001C080AD
:10D378004100C1814001C0804101C0804100C1819C
:10D388004000C1814001C0804101C0804100C1818D
:10D398004001C0804100C1814000C1814001C0807E
:10D3A8004100C1814001C0804101C0804100C1816C
:10D3B8004001C0804100C1814000C1814001C0805E
:10D3C8004101C0804100C1814000C1814001C0804D
:10D3D8004100C1814001C0804101C0804100C1813C
:10D3E8004000C0C101C30302C2C60607C705C5C4C1
:10D3F80004CC0C0DCD0FCFCE0E0ACACB0BC9090831
:10D40800C8D81819D91BDBDA1A1EDEDF1FDD1D1C70
:10D41800DC14D4D515D71716D6D21213D311D1D000
:10D4280010F03031F133F3F23236F6F737F53534A0
:10D43800F43CFCFD3DFF3F3EFEFA3A3BFB39F9F870
:10D448003828E8E929EB2B2AEAEE2E2FEF2DEDEC10
:10D458002CE42425E527E7E62622E2E323E1212040
:10D46800E0A06061A163A3A26266A6A767A5656440
:10D47800A46CACAD6DAF6F6EAEAA6A6BAB69A9A8B0
:10D488006878B8B979BB7B7ABABE7E7FBF7DBDBCF0
:10D498007CB47475B577B7B67672B2B373B1717080
:10D4A800B0509091519353529296565797559594E0
:10D4B800549C5C5D9D5F9F9E5E5A9A9B5B995958F0
:10D4C80098884849894B8B8A4A4E8E8F4F8D4D4C90
:10D4D8008C448485458747468682424383418180C0
:10D4E8004000C1814001C0804101C0804100C1812C
:10D4F8004001C0804100C1814000C1814001C0801D
:10D508004101C0804100C1814000C1814001C0800B
:10D518004100C1814001C0804101C0804100C181FA
:10D528004001C0804100C1814000C1814001C080EC
:10D538004100C1814001C0804101C0804100C181DA
:10D548004000C1814001C0804101C0804100C181CB
:10D558004001C0804100C1814000C1814001C080BC
:10D568004101C0804100C1814000C1814001C080AB
:10D578004100C1814001C0804101C0804100C1819A
:10D588004000C1814001C0804101C0804100C1818B
:10D598004001C0804100C1814000C1814001C0807C
:10D5A8004100C1814001C0804101C0804100C1816A
:10D5B8004001C0804100C1814000C1814001C0805C
:10D5C8004101C0804100C1814000C1814001C0804B
:10D5D8004100C1814001C0804101C0804100C1813A
:10D5E8004000C0C101C30302C2C60607C705C5C4BF
:10D5F80004CC0C0DCD0FCFCE0E0ACACB0BC909082F
:10D60800C8D81819D91BDBDA1A1EDEDF1FDD1D1C6E
:10D61800DC14D4D515D71716D6D21213D311D1D0FE
:10D6280010F03031F133F3F23236F6F737F535349E
:10D63800F43CFCFD3DFF3F3EFEFA3A3BFB39F9F86E
:10D648003828E8E929EB2B2AEAEE2E2FEF2DEDEC0E
:10D658002CE42425E527E7E62622E2E323E121203E
:10D66800E0A06061A163A3A26266A6A767A565643E
:10D67800A46CACAD6DAF6F6EAEAA6A6BAB69A9A8AE
:10D688006878B8B979BB7B7ABABE7E7FBF7DBDBCEE
:10D698007CB47475B577B7B67672B2B373B171707E
:10D6A800B0509091519353529296565797559594DE
:10D6B800549C5C5D9D5F9F9E5E5A9A9B5B995958EE
:10D6C80098884849894B8B8A4A4E8E8F4F8D4D4C8E
:10D6D8008C448485458747468682424383418180BE
:10D6E8004000C1814001C0804101C0804100C1812A
:10D6F8004001C0804100C1814000C1814001C0801B
:10D708004101C0804100C1814000C1814001C08009
:10D718004100C1814001C0804101C0804100C181F8
:10D728004001C0804100C1814000C1814001C080EA
:10D738004100C1814001C0804101C0804100C181D8
:10D748004000C1814001C0804101C0804100C181C9
:10D758004001C0804100C1814000C1814001C080BA
:10D768004101C0804100C1814000C1814001C080A9
:10D778004100C1814001C0804101C0804100C18198
:10D788004000C1814001C0804101C0804100C18189
:10D798004001C0804100C1814000C1814001C0807A
:10D7A8004100C1814001C0804101C0804100C18168
:10D7B8004001C0804100C1814000C1814001C0805A
:10D7C8004101C0804100C1814000C1814001C08049
:10D7D8004100C1814001C0804101C0804100C18138
:10D7E8004000C0C101C30302C2C60607C705C5C4BD
:10D7F80004CC0C0DCD0FCFCE0E0ACACB0BC909082D
:10D80800C8D81819D91BDBDA1A1EDEDF1FDD1D1C6C
:10D81800DC14D4D515D71716D6D21213D311D1D0FC
:10D8280010F03031F133F3F23236F6F737F535349C
:10D83800F43CFCFD3DFF3F3EFEFA3A3BFB39F9F86C
:10D848003828E8E929EB2B2AEAEE2E2FEF2DEDEC0C
:10D858002CE42425E527E7E62622E2E323E121203C
:10D86800E0A06061A163A3A26266A6A767A565643C
:10D87800A46CACAD6DAF6F6EAEAA6A6BAB69A9A8AC
:10D888006878B8B979BB7B7ABABE7E7FBF7DBDBCEC
:10D898007CB47475B577B7B67672B2B373B171707C
:10D8A800B0509091519353529296565797559594DC
:10D8B800549C5C5D9D5F9F9E5E5A9A9B5B995958EC
:10D8C80098884849894B8B8A4A4E8E8F4F8D4D4C8C
:10D8D8008C448485458747468682424383418180BC
:10D8E8004000C1814001C0804101C0804100C18128
:10D8F8004001C0804100C1814000C1814001C08019
:10D908004101C0804100C1814000C1814001C08007
:10D918004100C1814001C0804101C0804100C181F6
:10D928004001C0804100C1814000C1814001C080E8
:10D938004100C1814001C0804101C0804100C181D6
:10D948004000C1814001C0804101C0804100C181C7
:10D958004001C0804100C1814000C1814001C080B8
:10D968004101C0804100C1814000C1814001C080A7
:10D978004100C1814001C0804101C0804100C18196
:10D988004000C1814001C0804101C0804100C18187
:10D998004001C0804100C1814000C1814001C08078
:10D9A8004100C1814001C0804101C0804100C18166
:10D9B8004001C0804100C1814000C1814001C08058
:10D9C8004101C0804100C1814000C1814001C08047
:10D9D8004100C1814001C0804101C0804100C18136
:10D9E8004000C0C101C30302C2C60607C705C5C4BB
:10D9F80004CC0C0DCD0FCFCE0E0ACACB0BC909082B
:10DA0800C8D81819D91BDBDA1A1EDEDF1FDD1D1C6A
:10DA1800DC14D4D515D71716D6D21213D311D1D0FA
:10DA280010F03031F133F3F23236F6F737F535349A
:10DA3800F43CFCFD3DFF3F3EFEFA3A3BFB39F9F86A
:10DA48003828E8E929EB2B2AEAEE2E2FEF2DEDEC0A
:10DA58002CE42425E527E7E62622E2E323E121203A
:10DA6800E0A06061A163A3A26266A6A767A565643A
:10DA7800A46CACAD6DAF6F6EAEAA6A6BAB69A9A8AA
:10DA88006878B8B979BB7B7ABABE7E7FBF7DBDBCEA
:10DA98007CB47475B577B7B67672B2B373B171707A
:10DAA800B0509091519353529296565797559594DA
:10DAB800549C5C5D9D5F9F9E5E5A9A9B5B995958EA
:10DAC80098884849894B8B8A4A4E8E8F4F8D4D4C8A
:10DAD8008C448485458747468682424383418180BA
:10DAE8004000C1814001C0804101C0804100C18126
:10DAF8004001C0804100C1814000C1814001C08017
:10DB08004101C0804100C1814000C1814001C08005
:10DB18004100C1814001C0804101C0804100C181F4
:10DB28004001C0804100C1814000C1814001C080E6
:10DB38004100C1814001C0804101C0804100C181D4
:10DB48004000C1814001C0804101C0804100C181C5
:10DB58004001C0804100C1814000C1814001C080B6
:10DB68004101C0804100C1814000C1814001C080A5
:10DB78004100C1814001C0804101C0804100C18194
:10DB88004000C1814001C0804101C0804100C18185
:10DB98004001C0804100C1814000C1814001C08076
:10DBA8004100C1814001C0804101C0804100C18164
:10DBB8004001C0804100C1814000C1814001C08056
:10DBC8004101C0804100C1814000C1814001C08045
:10DBD8004100C1814001C0804101C0804100C18134
:10DBE8004000C0C101C30302C2C60607C705C5C4B9
:10DBF80004CC0C0DCD0FCFCE0E0ACACB0BC9090829
:10DC0800C8D81819D91BDBDA1A1EDEDF1FDD1D1C68
:10DC1800DC14D4D515D71716D6D21213D311D1D0F8
:10DC280010F03031F133F3F23236F6F737F5353498
:10DC3800F43CFCFD3DFF3F3EFEFA3A3BFB39F9F868
:10DC48003828E8E929EB2B2AEAEE2E2FEF2DEDEC08
:10DC58002CE42425E527E7E62622E2E323E1212038
:10DC6800E0A06061A163A3A26266A6A767A5656438
:10DC7800A46CACAD6DAF6F6EAEAA6A6BAB69A9A8A8
:10DC88006878B8B979BB7B7ABABE7E7FBF7DBDBCE8
:10DC98007CB47475B577B7B67672B2B373B1717078
:10DCA800B0509091519353529296565797559594D8
:10DCB800549C5C5D9D5F9F9E5E5A9A9B5B995958E8
:10DCC80098884849894B8B8A4A4E8E8F4F8D4D4C88
:10DCD8008C448485458747468682424383418180B8
:10DCE8004000C1814001C0804101C0804100C18124
:10DCF8004001C0804100C1814000C1814001C08015
:10DD08004101C0804100C1814000C1814001C08003
:10DD18004100C1814001C0804101C0804100C181F2
:10DD28004001C0804100C1814000C1814001C080E4
:10DD38004100C1814001C0804101C0804100C181D2
:10DD48004000C1814001C0804101C0804100C181C3
:10DD58004001C0804100C1814000C1814001C080B4
:10DD68004101C0804100C1814000C1814001C080A3
:10DD78004100C1814001C0804101C0804100C18192
:10DD88004000C1814001C0804101C0804100C18183
:10DD98004001C0804100C1814000C1814001C08074
:10DDA8004100C1814001C0804101C0804100C18162
:10DDB8004001C0804100C1814000C1814001C08054
:10DDC8004101C0804100C1814000C1814001C08043
:10DDD8004100C1814001C0804101C0804100C18132
:10DDE8004000C0C101C30302C2C60607C705C5C4B7
:10DDF80004CC0C0DCD0FCFCE0E0ACACB0BC9090827
:10DE0800C8D81819D91BDBDA1A1EDEDF1FDD1D1C66
:10DE1800DC14D4D515D71716D6D21213D311D1D0F6
:10DE280010F03031F133F3F23236F6F737F5353496
:10DE3800F43CFCFD3DFF3F3EFEFA3A3BFB39F9F866
:10DE48003828E8E929EB2B2AEAEE2E2FEF2DEDEC06
:10DE58002CE42425E527E7E62622E2E323E1212036
:10DE6800E0A06061A163A3A26266A6A767A5656436
:10DE7800A46CACAD6DAF6F6EAEAA6A6BAB69A9A8A6
:10DE88006878B8B979BB7B7ABABE7E7FBF7DBDBCE6
:10DE98007CB47475B577B7B67672B2B373B1717076
:10DEA800B0509091519353529296565797559594D6
:10DEB800549C5C5D9D5F9F9E5E5A9A9B5B995958E6
:10DEC80098884849894B8B8A4A4E8E8F4F8D4D4C86
:10DED8008C448485458747468682424383418180B6
:10DEE8004000C1814001C0804101C0804100C18122
:10DEF8004001C0804100C1814000C1814001C08013
:10DF08004101C0804100C1814000C1814001C08001
:10DF18004100C1814001C0804101C0804100C181F0
:10DF28004001C0804100C1814000C1814001C080E2
:10DF38004100C1814001C0804101C0804100C181D0
:10DF48004000C1814001C0804101C0804100C181C1
:10DF58004001C0804100C1814000C1814001C080B2
:10DF68004101C0804100C1814000C1814001C080A1
:10DF78004100C1814001C0804101C0804100C18190
:10DF88004000C1814001C0804101C0804100C18181
:10DF98004001C0804100C1814000C1814001C08072
:10DFA8004100C1814001C0804101C0804100C18160
:10DFB8004001C0804100C1814000C1814001C08052
:10DFC8004101C0804100C1814000C1814001C08041
:10DFD8004100C1814001C0804101C0804100C18130
:10DFE8004000C0C101C30302C2C60607C705C5C4B5
:10DFF80004CC0C0DCD0FCFCE0E0ACACB0BC9090825
:10E00800C8D81819D91BDBDA1A1EDEDF1FDD1D1C64
:10E01800DC14D4D515D71716D6D21213D311D1D0F4
:10E0280010F03031F133F3F23236F6F737F5353494
:10E03800F43CFCFD3DFF3F3EFEFA3A3BFB39F9F864
:10E048003828E8E929EB2B2AEAEE2E2FEF2DEDEC04
:10E058002CE42425E527E7E62622E2E323E1212034
:10E06800E0A06061A163A3A26266A6A767A5656434
:10E07800A46CACAD6DAF6F6EAEAA6A6BAB69A9A8A4
:10E088006878B8B979BB7B7ABABE7E7FBF7DBDBCE4
:10E098007CB47475B577B7B67672B2B373B1717074
:10E0A800B0509091519353529296565797559594D4
:10E0B800549C5C5D9D5F9F9E5E5A9A9B5B995958E4
:10E0C80098884849894B8B8A4A4E8E8F4F8D4D4C84
:10E0D8008C448485458747468682424383418180B4
:10E0E8004000C1814001C0804101C0804100C18120
:10E0F8004001C0804100C1814000C1814001C08011
:10E108004101C0804100C1814000C1814001C080FF
:10E118004100C1814001C0804101C0804100C181EE
:10E128004001C0804100C1814000C1814001C080E0
:10E138004100C1814001C0804101C0804100C181CE
:10E148004000C1814001C0804101C0804100C181BF
:10E158004001C0804100C1814000C1814001C080B0
:10E168004101C0804100C1814000C1814001C0809F
:10E178004100C1814001C0804101C0804100C1818E
:10E188004000C1814001C0804101C0804100C1817F
:10E198004001C0804100C1814000C1814001C08070
:10E1A8004100C1814001C0804101C0804100C1815E
:10E1B8004001C0804100C1814000C1814001C08050
:10E1C8004101C0804100C1814000C1814001C0803F
:10E1D8004100C1814001C0804101C0804100C1812E
:10E1E8004000C0C101C30302C2C60607C705C5C4B3
:10E1F80004CC0C0DCD0FCFCE0E0ACACB0BC9090823
:10E20800C8D81819D91BDBDA1A1EDEDF1FDD1D1C62
:10E21800DC14D4D515D71716D6D21213D311D1D0F2
:10E2280010F03031F133F3F23236F6F737F5353492
:10E23800F43CFCFD3DFF3F3EFEFA3A3BFB39F9F862
:10E248003828E8E929EB2B2AEAEE2E2FEF2DEDEC02
:10E258002CE42425E527E7E62622E2E323E1212032
:10E26800E0A06061A163A3A26266A6A767A5656432
:10E27800A46CACAD6DAF6F6EAEAA6A6BAB69A9A8A2
:10E288006878B8B979BB7B7ABABE7E7FBF7DBDBCE2
:10E298007CB47475B577B7B67672B2B373B1717072
:10E2A800B0509091519353529296565797559594D2
:10E2B800549C5C5D9D5F9F9E5E5A9A9B5B995958E2
:10E2C80098884849894B8B8A4A4E8E8F4F8D4D4C82
:10E2D8008C448485458747468682424383418180B2
:10E2E8004000C1814001C0804101C0804100C1811E
:10E2F8004001C0804100C1814000C1814001C0800F
:10E308004101C0804100C1814000C1814001C080FD
:10E318004100C1814001C0804101C0804100C181EC
:10E328004001C0804100C1814000C1814001C080DE
:10E338004100C1814001C0804101C0804100C181CC
:10E348004000C1814001C0804101C0804100C181BD
:10E358004001C0804100C1814000C1814001C080AE
:10E368004101C0804100C1814000C1814001C0809D
:10E378004100C1814001C0804101C0804100C1818C
:10E388004000C1814001C0804101C0804100C1817D
:10E398004001C0804100C1814000C1814001C0806E
:10E3A8004100C1814001C0804101C0804100C1815C
:10E3B8004001C0804100C1814000C1814001C0804E
:10E3C8004101C0804100C1814000C1814001C0803D
:10E3D8004100C1814001C0804101C0804100C1812C
:10E3E8004000C0C101C30302C2C60607C705C5C4B1
:10E3F80004CC0C0DCD0FCFCE0E0ACACB0BC9090821
:10E40800C8D81819D91BDBDA1A1EDEDF1FDD1D1C60
:10E41800DC14D4D515D71716D6D21213D311D1D0F0
:10E4280010F03031F133F3F23236F6F737F5353490
:10E43800F43CFCFD3DFF3F3EFEFA3A3BFB39F9F860
:10E448003828E8E929EB2B2AEAEE2E2FEF2DEDEC00
:10E458002CE42425E527E7E62622E2E323E1212030
:10E46800E0A06061A163A3A26266A6A767A5656430
:10E47800A46CACAD6DAF6F6EAEAA6A6BAB69A9A8A0
:10E488006878B8B979BB7B7ABABE7E7FBF7DBDBCE0
:10E498007CB47475B577B7B67672B2B373B1717070
:10E4A800B0509091519353529296565797559594D0
:10E4B800549C5C5D9D5F9F9E5E5A9A9B5B995958E0
:10E4C80098884849894B8B8A4A4E8E8F4F8D4D4C80
:10E4D8008C448485458747468682424383418180B0
:10E4E8004000C1814001C0804101C0804100C1811C
:10E4F8004001C0804100C1814000C1814001C0800D
:10E508004101C0804100C1814000C1814001C080FB
:10E518004100C1814001C0804101C0804100C181EA
:10E528004001C0804100C1814000C1814001C080DC
:10E538004100C1814001C0804101C0804100C181CA
:10E548004000C1814001C0804101C0804100C181BB
:10E558004001C0804100C1814000C1814001C080AC
:10E568004101C0804100C1814000C1814001C0809B
:10E578004100C1814001C0804101C0804100C1818A
:10E588004000C1814001C0804101C0804100C1817B
:10E598004001C0804100C1814000C1814001C0806C
:10E5A8004100C1814001C0804101C0804100C1815A
:10E5B8004001C0804100C1814000C1814001C0804C
:10E5C8004101C0804100C1814000C1814001C0803B
:10E5D8004100C1814001C0804101C0804100C1812A
:10E5E8004000C0C101C30302C2C60607C705C5C4AF
:10E5F80004CC0C0DCD0FCFCE0E0ACACB0BC909081F
:10E60800C8D81819D91BDBDA1A1EDEDF1FDD1D1C5E
:10E61800DC14D4D515D71716D6D21213D311D1D0EE
:10E6280010F03031F133F3F23236F6F737F535348E
:10E63800F43CFCFD3DFF3F3EFEFA3A3BFB39F9F85E
:10E648003828E8E929EB2B2AEAEE2E2FEF2DEDECFE
:10E658002CE42425E527E7E62622E2E323E121202E
:10E66800E0A06061A163A3A26266A6A767A565642E
:10E67800A46CACAD6DAF6F6EAEAA6A6BAB69A9A89E
:10E688006878B8B979BB7B7ABABE7E7FBF7DBDBCDE
:10E698007CB47475B577B7B67672B2B373B171706E
:10E6A800B0509091519353529296565797559594CE
:10E6B800549C5C5D9D5F9F9E5E5A9A9B5B995958DE
:10E6C80098884849894B8B8A4A4E8E8F4F8D4D4C7E
:10E6D8008C448485458747468682424383418180AE
:10E6E8004000C1814001C0804101C0804100C1811A
:10E6F8004001C0804100C1814000C1814001C0800B
:10E708004101C0804100C1814000C1814001C080F9
:10E718004100C1814001C0804101C0804100C181E8
:10E728004001C0804100C1814000C1814001C080DA
:10E738004100C1814001C0804101C0804100C181C8
:10E748004000C1814001C0804101C0804100C181B9
:10E758004001C0804100C1814000C1814001C080AA
:10E768004101C0804100C1814000C1814001C08099
:10E778004100C1814001C0804101C0804100C18188
:10E788004000C1814001C0804101C0804100C18179
:10E798004001C0804100C1814000C1814001C0806A
:10E7A8004100C1814001C0804101C0804100C18158
:10E7B8004001C0804100C1814000C1814001C0804A
:10E7C8004101C0804100C1814000C1814001C08039
:10E7D8004100C1814001C0804101C0804100C18128
:10E7E8004000C0C101C30302C2C60607C705C5C4AD
:10E7F80004CC0C0DCD0FCFCE0E0ACACB0BC909081D
:10E80800C8D81819D91BDBDA1A1EDEDF1FDD1D1C5C
:10E81800DC14D4D515D71716D6D21213D311D1D0EC
:10E8280010F03031F133F3F23236F6F737F535348C
:10E83800F43CFCFD3DFF3F3EFEFA3A3BFB39F9F85C
:10E848003828E8E929EB2B2AEAEE2E2FEF2DEDECFC
:10E858002CE42425E527E7E62622E2E323E121202C
:10E86800E0A06061A163A3A26266A6A767A565642C
:10E87800A46CACAD6DAF6F6EAEAA6A6BAB69A9A89C
:10E888006878B8B979BB7B7ABABE7E7FBF7DBDBCDC
:10E898007CB47475B577B7B67672B2B373B171706C
:10E8A800B0509091519353529296565797559594CC
:10E8B800549C5C5D9D5F9F9E5E5A9A9B5B995958DC
:10E8C80098884849894B8B8A4A4E8E8F4F8D4D4C7C
:10E8D8008C448485458747468682424383418180AC
:10E8E8004000C1814001C0804101C0804100C18118
:10E8F8004001C0804100C1814000C1814001C08009
:10E908004101C0804100C1814000C1814001C080F7
:10E918004100C1814001C0804101C0804100C181E6
:10E928004001C0804100C1814000C1814001C080D8
:10E938004100C1814001C0804101C0804100C181C6
:10E948004000C1814001C0804101C0804100C181B7
:10E958004001C0804100C1814000C1814001C080A8
:10E968004101C0804100C1814000C1814001C08097
:10E978004100C1814001C0804101C0804100C18186
:10E988004000C1814001C0804101C0804100C18177
:10E998004001C0804100C1814000C1814001C08068
:10E9A8004100C1814001C0804101C0804100C18156
:10E9B8004001C0804100C1814000C1814001C08048
:10E9C8004101C0804100C1814000C1814001C08037
:10E9D8004100C1814001C0804101C0804100C18126
:10E9E8004000C0C101C30302C2C60607C705C5C4AB
:10E9F80004CC0C0DCD0FCFCE0E0ACACB0BC909081B
:10EA0800C8D81819D91BDBDA1A1EDEDF1FDD1D1C5A
:10EA1800DC14D4D515D71716D6D21213D311D1D0EA
:10EA280010F03031F133F3F23236F6F737F535348A
:10EA3800F43CFCFD3DFF3F3EFEFA3A3BFB39F9F85A
:10EA48003828E8E929EB2B2AEAEE2E2FEF2DEDECFA
:10EA58002CE42425E527E7E62622E2E323E121202A
:10EA6800E0A06061A163A3A26266A6A767A565642A
:10EA7800A46CACAD6DAF6F6EAEAA6A6BAB69A9A89A
:10EA88006878B8B979BB7B7ABABE7E7FBF7DBDBCDA
:10EA98007CB47475B577B7B67672B2B373B171706A
:10EAA800B0509091519353529296565797559594CA
:10EAB800549C5C5D9D5F9F9E5E5A9A9B5B995958DA
:10EAC80098884849894B8B8A4A4E8E8F4F8D4D4C7A
:10EAD8008C448485458747468682424383418180AA
:10EAE8004000C1814001C0804101C0804100C18116
:10EAF8004001C0804100C1814000C1814001C08007
:10EB08004101C0804100C1814000C1814001C080F5
:10EB18004100C1814001C0804101C0804100C181E4
:10EB28004001C0804100C1814000C1814001C080D6
:10EB38004100C1814001C0804101C0804100C181C4
:10EB48004000C1814001C0804101C0804100C181B5
:10EB58004001C0804100C1814000C1814001C080A6
:10EB68004101C0804100C1814000C1814001C08095
:10EB78004100C1814001C0804101C0804100C18184
:10EB88004000C1814001C0804101C0804100C18175
:10EB98004001C0804100C1814000C1814001C08066
:10EBA8004100C1814001C0804101C0804100C18154
:10EBB8004001C0804100C1814000C1814001C08046
:10EBC8004101C0804100C1814000C1814001C08035
:10EBD8004100C1814001C0804101C0804100C18124
:10EBE80040010300000000000000000000000000D9
:10EBF800000000000000000000000000000000000D
:10EC080000000000000000000000000000000000FC
:10EC180000000000000000000000000000000000EC
:10EC280000000000000000000000000000000000DC
:10EC380000000000000000000000000000000000CC
:10EC480000000000000000000000000000000000BC
:10EC580000000000000000000000000000000000AC
:10EC6800000000000000000000000000000000009C
:10EC78000000000000000000000001030000000088
:10EC8800000000000000000000000000000000007C
:10EC9800000000000000000000000000000000006C
:10ECA800000000000000000000000000000000005C
:10ECB800000000000000000000000000000000004C
:10ECC800000000000000000000000000000000003C
:10ECD800000000000000000000000000000000002C
:10ECE800000000000000000000000000000000001C
:10ECF800000000000000000000000000000000010B
:10ED080003000000000000000000000000000000F8
:10ED180000000000000000000000000000000000EB
:10ED280000000000000000000000000000000000DB
:10ED380000000000000000000000000000000000CB
:10ED480000000000000000000000000000000000BB
:10ED580000000000000000000000000000000000AB
:10ED68000000000000000000000000000AD7233C5B
:10ED7800CDCCCC3DCDCC4C3E9A99993E0000003F7D
:10ED88009A99193F6666263F3333333F6666663F76
:10ED9800A4707D3F0000803F0000803F0000A0413C
:10EDA8000000C841CDCCC8416666CA410000CC41CC
:10EDB8006666CE410000D0419A99D141CDCCD4416C
:10EDC8006666D6419A99D94100000C4225732025E0
:10EDD800642025732020202020202020202020208F
:10EDE800202020202020202020202020202020201B
:10EDF80020202020202020202020004F4E4C494E4B
:10EE080045204125642C2052256420524625642C37
:10EE18002054256420544625642C2043256420254D
:10EE280064202573202020202000486F737420411F
:10EE380025642C2052256420524625642C20542514
:10EE48006420544625642C2043256420256420250D
:10EE5800732020202020202000554E4B20464F5262
:10EE68004D4154204125642C2052256420524625CA
:10EE7800642C2054256420544625642C20432564A2
:10EE88002025732020200025732025732020202092
:10EE9800202020202020202020202020202020206A
:10EEA800202020202020202020202020202020205A
:10EEB80020002573202573202020202020202020BA
:10EEC800202020202020202020202020202020203A
:10EED8002020202020202020200056332E303120D2
:10EEE800464D783020696E7465726661636520519D
:10EEF8003834004F66666C696E6500000000004398
:10EF0800414E42555300000000000001030000007C
:10EF180000000000000000000000000000000000E9
:10EF2800000103000000D600000001000000DA0024
:10EF3800000103000000D600000000000000D90016
:10EF48001F1E1F1E1F1F1E1F1E1F1F1D0003000444
:10EF58000001C41A010600000000000001060000BC
:10EF6800000000000106000000000000010300008E
:10EF780000000001030000000000832003040000DB
:10EF880024050001832403040000008841CD0C05FA
:10EF980043E5612140000000000000804500008832
:10EFA80041CD0C0543E5612140008080420080800E
:10EFB80042000000000000804500008841CD0C059B
:10EFC80043E56121400080804200808042000000CB
:10EFD800000000804500008841CD0C0543E5612113
:10EFE80040008080420080804200000000000080D5
:10EFF80045BC000000BA7FFFFEC800800034000056
:10F008000000008841CD0C0543E561214000808067
:10F018004200808042000000000000804500008817
:10F0280041CD0C0543E5612140008080420080808D
:10F0380042000000000000804500008841CD0C051A
:10F0480043E561214000808042008080420000004A
:10F05800000000804500008841CD0C0543E5612192
:10F068004000808042008080420000000000008054
:10F078004500008841CD0C0543E5612140008080B2
:10F0880042008080420000000000008045000088A7
:10F0980041CD0C0543E5612140008080420080801D
:10F0A8004200000000000080450000884100008008
:10F0B8004518000002008813040002002800B0046C
:10F0C800020002000300B004DC05F40164004006FD
:10F0D80060091027B80B3075059904990399B00495
:10F0E800DC05F4016400400660091027B80B059997
:10F0F80004990399B004DC05F40164004006600932
:10F108001027B80B059904990399B004DC05F4019C
:10F118006400400660091027B80B05990499039903
:10F12800B004DC05F4016400400660091027B80B40
:10F13800059904990399B004DC05F40164004006BC
:10F1480060091027B80BB004DC05F4016400400620
:10F1580060091027B80B059904990399B004DC05D8
:10F16800F4016400400660091027B80BB004DC0500
:10F17800F4016400400660091027B80B3075059942
:10F1880004990399B004DC05F401640040066009A1
:10F198001027B80B02008813040002002800B004EE
:10F1A8000200020003003075E8FF3C0023000599C7
:10F1B80004990399B004DC05F40164004006600971
:10F1C8001027B80BFF000228040228C801020646CF
:10F1D8005A2D01204601FF000228040228C8010216
:10F1E800FF000228040228C801028003C80107079B
:10F1F80007070707070D050440400FF001050F67D3
:10F20800FF4010F0E0D0C0B0A090800006465A2D14
:10F2180001204601FF000228040228C8010207074E
:10F2280007070707070D050440400FF001050F67A2
:10F23800FF4010F0E0D0C0B0A090800006465A2DE4
:10F2480001204601FF000228040228C8010207071E
:10F2580007070707070D050440400FF001050F6772
:10F26800FF4010F0E0D0C0B0A090800006465A2DB4
:10F2780001204601FF000228040228C801020707EE
:10F2880007070707070D050440400FF001050F6742
:10F29800FF4010F0E0D0C0B0A090800006465A2D84
:10F2A80001204601FF000228040228C801020707BE
:10F2B80007070707070D050440400FF001050F6712
:10F2C800FF4010F0E0D0C0B0A090800006465A2D54
:10F2D80001204601FF000228040228C80102064650
:10F2E8005A2D01204601FF000228040228C8010205
:10F2F800070707070707070D050440400FF001053A
:10F308000F67FF4010F0E0D0C0B0A0908000064624
:10F318005A2D01204601FF000228040228C80102D4
:10F3280006465A2D01204601FF000228040228C87B
:10F3380001028003C801070707070707070D05042F
:10F3480040400FF001050F67FF4010F0E0D0C0B05B
:10F35800A090800006465A2D01204601FF00022891
:10F36800040228C801028003C80107070707070726
:10F37800070D050440400FF001050F67FF4010F02E
:10F38800E0D0C0B0A090800006465A2D012046016A
:10F39800FF000228040228C801025E2C25642C25DF
:10F3A800332E32662C25332E32662C25332E3266C8
:10F3B8002C25332E32662C25332E32662C25332EFF
:10F3C80032662C25332E32662C25332E32662C25B8
:10F3D800642E253031642C25642E253031642C258B
:10F3E800642E253031642C25642C25642C25642C4E
:10F3F80025642C25642C256C6C752C25372E3466D9
:10F408002C25372E34662C25362E34662C25372E9F
:10F4180034662C313935372C7E454F542020202036
:10F4280020202020202020202020202020202020D4
:10F4380020202020202020202020202020202020C4
:10F4480020202020202020202020202020200D0ADD
:10F45800005E2C25642C25332E32662C25332E3263
:10F46800662C25332E32662C25332E32662C253316
:10F478002E32662C25332E32662C25332E32662CFE
:10F4880025332E32662C25642E253031642C2564D4
:10F498002E253031642C25642E253031642C2564CA
:10F4A8002C25642C25642C25642C25642C256C6C57
:10F4B800752C25372E34662C25372E34662C2536A8
:10F4C8002E34662C25372E34662C313935372C7E70
:10F4D800454F54202020202020202020202020209C
:10F4E8002020202020202020202020202020202014
:10F4F8002020202020202020202020202020202004
:10F5080020202020200D0A005E2C25642C25332E77
:10F5180032662C25332E32662C25332E32662C2566
:10F52800332E32662C25332E32662C25332E326646
:10F538002C25332E32662C25332E32662C25642E4C
:10F54800253031642C25642E253031642C25642E19
:10F55800253031642C25642C25642C25642C2564E5
:10F568002C25642C256C6C752C25362E34662C25A0
:10F57800362E34662C25362E34662C25362E3466E7
:10F588002C313935372C7E454F542020202020201F
:10F598002020202020202020202020202020202063
:10F5A8002020202020202020202020202020202053
:10F5B8002020202020202020202020200D0A005E4E
:10F5C8002C25642C25332E32662C25332E32662CBE
:10F5D80025332E32662C25332E32662C25332E32D7
:10F5E800662C25332E32662C25332E32662C253395
:10F5F8002E32662C25642E253031642C25642E2568
:10F608003031642C25642E253031642C25642C255A
:10F61800642C25642C25642C25642C256C6C752C95
:10F6280025362E33662C25362E33662C25362E337A
:10F63800662C25362E33662C313935372C7E454FCE
:10F64800542020202020202020202020202020207E
:10F6580020202020202020202020202020202020A2
:10F668002020202020202020202020202020202092
:10F678002020200D0A007C7C2F2F2D2D000000005B
:10F68800000000000000000000007C7C2F2F2D2DC2
:10F698005C5C0000000000000000000000004F4F0C
:10F6A8004F4F4F4F2D2D5F5F2D00000000000000D1
:10F6B800000076763C3C5E5E3E3E000000000000A6
:10F6C8000000000000002E2E2A2A7823782358589C
:10F6D8007C7C2D2D0000000000002E2E6F6F4F4FF8
:10F6E8006F6F000000000000000000000000536C75
:10F6F80065657000000000000000466C6F617400D2
:10F7080000000000000042756C6B00000000000063
:10F7180000004162736F72620000000000004571D2
:10F7280075616C697A65000000004E2F4120000069
:10F738000000000000004F66666C696E65000000FE
:10F748000000464D78300000000000000000000175
:10F758000300400002000000010000004600000114
:10F768000200000004000000000000000600000184
:10F778000200000003000000000000000500000176
:10F788000200000002000000000000000400000168
:10F79800020000000000000000000000020000015C
:10F7A800020001006A000000000000006D00000176
:10F7B80002000100C700000000000000CA000001AC
:10F7C8000200000008000000000000000A0000011C
:10F7D80002000100C600000000000000C90000018E
:10F7E8000400000001000000000000000500000106
:10F7F80002000100C800000000000000CB0000016A
:10F8080002000000000000000000000002000110DB
:10F8180000660002040000000075AD0110006300DE
:10F82800020400000000B5920110000C0002040060
:10F83800000000F3FA01030048004A01061604001C
:10F848000501061000000001061002000001035027
:10F858000000080103050000400103000000340116
:10F8680003030200010103000B0001008080420035
:10F878008080422DB2804239B480421FC58042CF79
:10F88800B780429A995E4266665E42E59058428920
:10F89800C1584273488042C5608042FC898042FC5E
:10F8A8008980420080804200808042B400000204C7
:10F8B800000000020000010A000001C77FFFFFC529
:10F8C8007FFFFFB4001000B77FFFFFB8000001C240
:10F8D800000000E4000001CD0C0543E56121400073
:10F8E80080804200808042000000000400000CFF7D
:10F8F800FF0B000010FFFF40F7424D4320256C75B9
:10F9080020203058252E325820202020202020204A
:10F9180020202020202020202020202020202020DF
:10F9280020202020200025342E3266487A202533D6
:10F938002E3266412025332E306657202020202085
:10F9480020202020202020202020202020202020AF
:10F9580020200025322E31664B576820666C6F6177
:10F96800742025332E316668202020202020202076
:10F97800202020202020202020202020202020009F
:10F988000D2D2D2D2054494331323430302044720E
:10F99800697665722056657273696F6E20257320CB
:10F9A8002573202573202D2D2D0D0A000D2D2D2DAD
:10F9B800204D4333333939362044726976657220D5
:10F9C80056657273696F6E20257320257320257321
:10F9D800202D2D2D0D0A004241542025642E25305E
:10F9E8003164562050562025642E25303164562027
:10F9F80020202020202020202020202020202020FF
:10FA080000342025362E3366562C352025362E33E5
:10FA18006656202020202020202020202020202062
:10FA2800202020202020202000426D61782025758C
:10FA38005620426D696E20257556202020202020F2
:10FA480020202020202020202020202020202020AE
:10FA580000424D4320256C752020202020202020A6
:10FA6800202020202020202020202020202020208E
:10FA780020202020202020004F4620256C7520457E
:10FA8800525220256C752020202020202020202064
:10FA9800202020202020202020202020202000207E
:10FAA800256C6C582052756E20446973706C6179AE
:10FAB800203058252E325820202020202020202099
:10FAC80020202020004A616E4665624D61724170B7
:10FAD800724D61794A756E4A756C417567536570E8
:10FAE8004F63744E6F764465630025342E31665734
:10FAF8002025342E316656412025332E3266504655
:10FB080020202020202020202020202020002573B5
:10FB180020566572202573202020202020202020B8
:10FB280020202020202020202020202020200025E8
:10FB3800732025732025642E2530316441202564E7
:10FB480041202020202020202020202020202000AC
:10FB5800204D65736720256420537461636B2025ED
:10FB68006420202020202020202020202020200069
:10FB78004D554920256C6C58205049432025582064
:10FB8800202020202020202020202020202020008D
:10FB9800205465726D696E616C20496E666F202015
:10FBA8002020202020202020202020202000204845
:10FBB800454C502053637265656E3A2025642020B9
:10FBC80020202020202020202000257320202020F5
:10FBD800202020202020202020202020202020201D
:10FBE800202020202000257320256C6456414320C6
:10FBF80025332E306657202020202020202020204A
:10FC0800200020506F7274204C6F636B2023256492
:10FC18002020202020202020202020200020546583
:10FC2800726D696E616C20256420202020202020C0
:10FC38002020202020200020434D4420256320251B
:10FC480063204C656E202564202020202020202061
:10FC5800002025635049204441515F424D432025EF
:10FC68007320202020202020200048454C502025AB
:10FC78007320202020202020202020202020202029
:10FC88002000204F70656E204C4C20202020202022
:10FC9800202020202020202020002050756D70205A
:10FCA8004C4C2020202020202020202020202020F4
:10FCB8002000205265616479204C4C2020202020AF
:10FCC80020202020202020202000205332463431BC
:10FCD80020232563202020202020202020202020D1
:10FCE8002000444953504C4159202573202020209E
:10FCF800202020202020202020002053746F7265AF
:10FD0800642023256420202020202020202020205B
:10FD18002000767465726D2025783A257820202099
:10FD28002020202020202020200020534551554508
:10FD38004E434520256420202020202020202020FC
:10FD4800200020446973706C6179206E756D2025E0
:10FD580064202020202020202000205325644625D0
:10FD680064206C6F6720202020256420202020201C
:10FD78002000204C6F61642D6C6F636B206E756D75
:10FD880020256420202020202000202573202020EA
:10FD9800202020202020202020202020202020205B
:10FDA8000020494E464F20202020202020202020BF
:10FDB800202020202020200020565445524D204944
:10FDC8004E464F20202020202020202020200020C8
:10FDD800565445524D2048454C5020202020202084
:10FDE8002020202020002056657273696F6E202520
:10FDF8007320202020202020202020200020257370
:10FE080020416C6C20446576202020202020202072
:10FE1800202020002048454C50204275696C642001
:10FE28002573202020202020202000202573204119
:10FE38006E616C6F6720446576202020202020208A
:10FE4800200053756E4D6F6E547565576564546820
:10FE5800754672695361740048454C5020257320DB
:10FE68002020202020202020202020202000436146
:10FE78006C6962726174696F6E20436F6D706C6536
:10FE88007465200057454D33303830204472697608
:10FE9800657220202020202000257320202020208B
:10FEA8002020202020202020202020202000257312
:10FEB80020257320202020202020202020202020E2
:10FEC800202000506F7274202573202020202020CD
:10FED8002020202020202000424D43426F61726480
:10FEE80020447269766572202020202000526561C6
:10FEF8006420454550524F4D204441544120202014
:10FF08002000577269746520454550524F4D204472
:10FF18004154412020200055706461746520454596
:10FF280050524F4D2044415441202000496E766183
:10FF38006C696420454550524F4D2044415441203E
:10FF480000454D3534302044726976657220202092
:10FF58002020202000257320202020202020202061
:10FF68002020202020202020004D617220313720C1
:10FF7800323032360031313A30313A3233003131B1
:10FF88003A32373A353800434F4D4D20202000454E
:10FF980052524F522020004F4E4C494E452000529D
:10FFA800454D4F5445200044495341424C45004F6C
:10FFB80046464C494E4500286E756C6C29005745DD
:10FFC8004D33300034375138340035375138340028
:10FFD80056302E35370056302E370056302E380022
:10FFE800494E46004E414E00696E66006E616E00D5
:08FFF800474D54002573000081
:020000040001F9
:1000000000019451D8BC04D0010E4A6E210E5F6EDF
:1000100050ECEAF09F9469ECFAF0D68ED68CBF8251
:10002000BF84BF8665ECF5F0F0ECF6F0000E6100E1
:10003000A2F3FDF622EE6CF1070EDE6AE806FDE2A1
:100040000701E66BE651020DF3C4FBF6F4C4FCF6BF
:10005000000E0601FCBFFF0EFD6FFE6F000EFB25BC
:1000600005017E6F000E0601FC2105017F6F2C0E3D
:100070000601FD210501806FB8ECE2F00701E651B1
:10008000020D3C0EF324D96E090EF420DA6E050140
:100090007EC5DEF47FC5DDF40701E651020D3C0E9E
:1000A000F324D96E090EF420DA6EDEC4FBF6DDC44B
:1000B000FCF60601FB5109016C270601FC51090100
:1000C0006D23000E6E23000E6F23000E7023000EB2
:1000D0007123000E7223000E73230701E62B080E16
:1000E000E665B0D76CC957F86DC958F86EC959F8AC
:1000F0006FC95AF870C95BF871C95CF872C95DF8CC
:1001000073C95EF8FC0E05017E6FFF0E7F6F3F0E18
:10011000806FB8ECE2F07EC555F87FC556F8FE0E4C
:100120007E6FFF0E7F6F3F0E806FB8ECE2F07EC5F2
:1001300053F87FC554F8050E0801531904E1990ED0
:100140005419D8B42ED0040E531906E1990E54193F
:10015000D8A402D0508525D05069000E566F55693D
:10016000FF0E576F000E586F000E596F000E5A6F3A
:10017000000E5B6F000E5C6F000E5D6F000E5E6F19
:10018000FF0E09016C6FFF0E6D6FFF0E6E6FFF0E9D
:100190006F6F000E706F000E716F000E726F000EA9
:1001A000736F57C8A3F558C8A4F559C8A5F55AC820
:1001B000A6F55BC8A7F55CC8A8F55DC8A9F55EC83B
:1001C000AAF594ECCEF00801FB6F30D0740E6100FC
:1001D000A2F30BF9DD0E6100A2F30CF9010E610030
:1001E000A2F30DF9720E6100A2F311F9720E610013
:1001F000A2F312F9010E6100A2F313F9AE0E610031
:10020000A2F30EF9E20E6100A2F30FF9010E6100F4
:10021000A2F310F91BD097ECE3F00E0E7E6FD80E10
:100220007F6F010E806FF4ECF8F010D0FB510601E7
:10023000FB6FFC6BFC51000AD8A4EDD7FB51000A00
:10024000D8B4E9D7010AD8B4C1D7E5D72AEE0EF160
:1002500001D80AD00500FA6EDE50FD6EDE50FE6E4B
:10026000DE50FF6EFA5012002AEE0BF101D80AD0D0
:100270000500FA6EDE50FD6EDE50FE6EDE50FF6E43
:10028000FA50120005017F6B140E7E6F090EE2EC2E
:10029000F4F04E0E7F6F200E7E6F0C0EE2ECF4F049
:1002A0002AEE0EF101D80AD00500FA6EDE50FD6E7E
:1002B000DE50FE6EDE50FF6EFA50120022EE6CF140
:1002C000FF0EDE1409016C6FFF0EDE146D6FFF0E62
:1002D000DE146E6FFF0EDE146F6F000EDE14706F93
:1002E000000EDE14716F000EDE14726F000EDE144D
:1002F000736F3FECFAF0BE0E05017E6FD70E7F6F75
:10030000010E806F4FECF9F03CECFAF039ECFAF0AA
:10031000640E05017E6FB20E7F6F010E806F48EC98
:10032000F9F0C00E7E6FF40E7F6F010E806F6BECE4
:10033000F9F048ECFAF02E0E05017E6FF40E7F6F97
:10034000010E806F64ECF9F045ECFAF0800E0701C5
:10035000CE6F0F0ECF6F0501846B640E836F1FECA1
:10036000F6F0BF94BF92BF9616ECC3F00801FAA551
:100370006ED0FA953FECDAF00009D8B438D0000E10
:1003800005017E6F000E65ECEBF07EC571F67FC552
:1003900072F6F50E0601736FFE0E746F5FECEDF0F2
:1003A000B1ECF6F0000E05017E6F010E65ECEBF08E
:1003B0007EC571F67FC572F61F0E0601736FFF0EC4
:1003C000746F5FECEDF0E3ECDEF0000E05017E6F84
:1003D000010E65ECEBF07EC571F67FC572F60A0E74
:1003E0000601736FFF0E746F5FECEDF011D0000E1D
:1003F00005017E6F000E65ECEBF07EC571F67FC5E2
:1004000072F6340E0601736FFF0E746F5FECEDF041
:10041000000E05017E6F030E65ECEBF07EC571F6F4
:100420007FC572F6760E0601736FFE0E746F5FEC79
:10043000EDF02AEEE1F0DF50E1ECF6F0CAECF8F076
:10044000060E0501846F400E836F1FECF6F0080165
:1004500050B500EF87F0BF0E06011D6F0D0E1E6F29
:100460002AEE11F101D82CD10500FA6EDE50FD6E96
:10047000DE50FE6EDE50FF6EFA501200060E0501D1
:100480008C6FF80E8D6F83ECEDF0340E06011A6F51
:10049000DD0E1B6F010E1C6F050E1D6FB9ECD9F040
:1004A0003DD109012351D8A413D0F60E05018C6F5C
:1004B000F70E8D6F83ECEDF0540E06011A6FB60E39
:1004C0001B6F010E1C6F050E1D6FB9ECD9F026D104
:1004D000560E05018C6FF70E8D6F83ECEDF0B00EAC
:1004E00006011A6FF40E1B6F010E1C6F050E1D6FB7
:1004F000B9ECD9F013D1D60E05018C6FF70E8D6FC4
:1005000083ECEDF0480E06011A6FF40E1B6F010E1E
:100510001C6F050E1D6FB9ECD9F000D1C60E050198
:100520008C6FF70E8D6F83ECEDF0EE0E06011A6FF7
:10053000EB0E1B6F010E1C6F050E1D6FB9ECD9F091
:10054000EDD0B60E05018C6FF70E8D6F83ECEDF0DC
:10055000C60E06011A6FEB0E1B6F010E1C6F050E07
:100560001D6FB9ECD9F0DAD0A60E05018C6FF70E2D
:100570008D6F83ECEDF0140E06011A6FE80E1B6F01
:10058000010E1C6F050E1D6FB9ECD9F0C7D0E60E39
:1005900005018C6FF70E8D6F83ECEDF0A40E060154
:1005A0001A6F920E1B6F010E1C6F100E1D6FB9ECAF
:1005B000D9F0B4D0860E05018C6FF70E8D6F83ECE9
:1005C000EDF0A80E06011A6FE80E1B6F010E1C6FEE
:1005D000050E1D6FB9ECD9F0A1D0760E05018C6F18
:1005E000F70E8D6F83ECEDF0ECD7660E05018C6F86
:1005F000F70E8D6F83ECEDF0A80E06011A6FE80E72
:100600001B6F010E1C6F050E1D6FB9ECD9F04C6A03
:1006100085D04C50000AD8B4CDD7010AD8B4DDD764
:10062000030AD8B4E2D7F3D78B0E05018C6F0A0EFC
:100630008D6F83ECEDF0520E06011A6F8B0E1B6F5F
:10064000010E1C6F110E1D6FB9ECD9F067D0E00ED2
:1006500005018C6F0E0E8D6F83ECEDF0420E0601DE
:100660001A6FF40E1B6F010E1C6F050E1D6FB9EC97
:10067000D9F054D0D00E05018C6F0E0E8D6F83EC27
:10068000EDF03C0E06011A6FF40E1B6F010E1C6F8D
:10069000050E1D6FB9ECD9F041D0960E05018C6F97
:1006A000F70E8D6F83ECEDF0780E06011A6FE80EF1
:1006B0001B6F010E1C6F050E1D6FB9ECD9F02ED00B
:1006C0004B500601FB6FFC6BFC51000AD8A4D6D638
:1006D000FB51000AD8B4D2D6010AD8B4E2D6030A34
:1006E000D8B409D7010AD8B419D7070AD8B429D77A
:1006F000010AD8B439D7030AD8B48BD7010AD8B4C1
:10070000A6D70F0AD8B4B6D7010AD8B48DD7030A32
:10071000D8B4C3D7010AD8B43AD7B0D60C0E32EC4D
:10072000F6F00009D8B46CD3750E7F6F300E7E6F73
:100730000C0EE2ECF4F00901236B62D388ECD3F0E9
:100740000C0ED8ECF8F02AEEE1F0DF50E1ECF6F018
:100750003FECDAF00009D8B414D0B1ECF6F0000E9A
:1007600005017E6F000E65ECEBF07EC571F67FC56E
:1007700072F6F50E0601736FFE0E746F5FECEDF00E
:1007800015D0000E05017E6F000E65ECEBF07EC506
:1007900071F67FC572F6340E0601736FFF0E746F2B
:1007A0005FECEDF0E3ECDEF0010E4A6E000E0501A9
:1007B0007E6F010E65ECEBF07EC571F67FC572F6BB
:1007C0000601746B150E736FA10E756FFE0E766FBA
:1007D000E00E776FFE0E786F81ECDEF0000E050103
:1007E0007E6F020E65ECEBF07EC571F67FC572F68A
:1007F0000601746B150E736FCB0E756FFE0E766F60
:10080000CEC777F6CFC778F681ECDEF0000E050193
:100810007E6F030E65ECEBF07EC571F67FC572F658
:100820000601746B150E736FB60E756FFE0E766F44
:10083000710E776FFF0E786FD80E796FFF0E7A6F9B
:1008400081ECDEF0CAECF8F04A50D8B408D0060EBD
:100850000501846F400E836F1FECF6F007D0090E80
:100860000501846F600E836F1FECF6F084ECF4F0EA
:10087000F0ECECF0D5ECBCF00009D8A413D0010EDC
:100880006100A2F303F9000E6100A2F304F9000E67
:100890006100A2F305F9000E6100A2F306F9010E52
:1008A0004F6E50819CECF4F020ECE2F00009D8A4EB
:1008B00014D0010E6100A2F307F9000E6100A2F34B
:1008C00008F9000E6100A2F309F9000E6100A2F31D
:1008D0000AF9010E4F6E0801508315ECEDF057EC4C
:1008E000F6F0010E6100A2F3FDF6070E05017F6F21
:1008F000A50E7E6FB3ECF7F02AEEE1F0DF50E1ECED
:10090000F6F01E0E0601716F280E726F746B3F0EAB
:10091000736F980E756FFB0E766F81ECDEF0000E34
:1009200005017E6F000E65ECEBF07EC571F67FC5AC
:1009300072F60601746B150E736F590E756FFC0E0F
:10094000766F5FC577F6786BD80E796FFF0E7A6F8A
:1009500081ECDEF0000E05017E6F010E65ECEBF020
:100960007EC571F67FC572F60601746B150E736F46
:10097000A70E756FFA0E766F57C877F658C878F6D7
:1009800059C879F65AC87AF65BC87BF65CC87CF61B
:100990005DC87DF65EC87EF650C87FF6806B81EC40
:1009A000DEF02AEE03F1DE50DE10DE10DE10D8A4F9
:1009B00008D02AEE07F1DE50DE10DE10DE10D8B4CB
:1009C0002ED0050E0801531904E1990E5419D8B41C
:1009D00005D0CC0E0701D46FFF0E04D0D20E070154
:1009E000D46FFF0ED56F000E05017E6F020E65EC11
:1009F000EBF07EC571F67FC572F60601746B150EBD
:100A0000736F330E756FFE0E766FD4C777F6D5C74A
:100A100078F681ECDEF0030E0801506F2CD0050E45
:100A20000801531904E1990E5419D8B405D0CC0E1D
:100A30000701D66FFF0E04D0D20E0701D66FFF0E4E
:100A4000D76F000E05017E6F020E65ECEBF07EC5E0
:100A500071F67FC572F60601746B150E736F050E85
:100A6000756FFE0E766FD6C777F6D7C778F681EC2E
:100A7000DEF00801506B000E05017E6F030E65EC81
:100A8000EBF07EC571F67FC572F60601746B150E2C
:100A9000736F920E756FFD0E766F710E776FFF0E8E
:100AA000786F81ECDEF0010E05017E6F000E65ECC3
:100AB000EBF07EC571F67FC572F60601746B150EFC
:100AC000736FA90E756FFD0E766F81ECDEF0010E6F
:100AD00005017E6F010E65ECEBF07EC571F67FC5FA
:100AE00072F60601746B150E736FEE0E756FFD0EC8
:100AF000766FD80E776FFF0E786F81ECDEF0010E07
:100B000005017E6F020E65ECEBF07EC571F67FC5C8
:100B100072F60601746B150E736FC00E756FFD0EC5
:100B2000766F81ECDEF0010E05017E6F030E65EC41
:100B3000EBF07EC571F67FC572F60601746B150E7B
:100B4000736F920E756FFD0E766F710E776FFF0EDD
:100B5000786F81ECDEF0030E05017E6F000E65EC10
:100B6000EBF07EC571F67FC572F60601746B150E4B
:100B7000736F1C0E756FFE0E766FD80E776FFF0EBB
:100B8000786F81ECDEF0030E05017E6F010E65ECDF
:100B9000EBF07EC571F67FC572F60601746B150E1B
:100BA000736FEE0E756FFD0E766FD80E776FFF0EBA
:100BB000786F81ECDEF0030E05017E6F020E65ECAE
:100BC000EBF07EC571F67FC572F60601746B150EEB
:100BD000736FD70E756FFD0E766F81ECDEF0030E2E
:100BE00005017E6F030E65ECEBF07EC571F67FC5E7
:100BF00072F60601746B150E736F920E756FFD0E13
:100C0000766F710E776FFF0E786F81ECDEF0020E5B
:100C100005017E6F000E65ECEBF07EC571F67FC5B9
:100C200072F60601746B150E736F780E756FFB0EFE
:100C3000766F57C877F658C878F659C879F65AC803
:100C40007AF65BC87BF65CC87CF65DC87DF65EC84C
:100C50007EF653C87FF654C880F681ECDEF0020EB3
:100C600005017E6F010E65ECEBF07EC571F67FC568
:100C700072F60601746B150E736F800E756FFA0EA7
:100C8000766F28C877F629C878F62AC879F62BC86F
:100C90007AF60CC87BF60DC87CF60EC87DF60FC838
:100CA0007EF681ECDEF0020E05017E6F020E65EC31
:100CB000EBF07EC571F67FC572F60601746B150EFA
:100CC000736F590E756FFA0E766F08C877F609C8FC
:100CD00078F60AC879F60BC87AF681ECDEF0020ED7
:100CE00005017E6F030E65ECEBF07EC571F67FC5E6
:100CF00072F60601746B150E736F160E756FFB0E90
:100D0000766F710E776FFF0E786FD80E796FFF0ECA
:100D10007A6F81ECDEF0CAECF8F00B0E0501846FFF
:100D2000B80E836F1FECF6F04F50D8B406D0270EE4
:100D3000846F100E836F1FECF6F0010E7F6FF40EC0
:100D40007E6F050EE2ECF4F00B0E7F6FB80E7E6F37
:100D5000020EE2ECF4F0050E7F6FDC0E7E6F070EE4
:100D6000E2ECF4F00B0E7F6FB80E7E6F040EE2EC37
:100D7000F4F0270E7F6F100E7E6F060EE2ECF4F09B
:100D80000B0E7F6FB80E7E6F030EE2ECF4F07F6BFC
:100D9000010E7E6F010EE2ECF4F044D0000EC1ECC7
:100DA000F6F0000E7E6F000E65ECEBF07EC5D8F716
:100DB0007FC5D9F7070120EE15F0D851D926D951B2
:100DC000DA22DF6A000E0501826F030E96ECE0F076
:100DD0000601FB6F070120EE13F0D851D926D95137
:100DE000DA22FBC6DFF41ED0000E6100A2F3FDF68E
:100DF0000B0E0501846FB80E836F1FECF6F012D056
:100E000029EEFDF2DF500601FB6FFC6BFC51000A7E
:100E1000D8A4EAD7FB51000AD8B490D4010AD8B4B8
:100E2000BDD7E2D7010E32ECF6F00009D8B472D18A
:100E30007F6B010E7E6F010EE2ECF4F02AEE07F1FB
:100E4000DE50DE10DE10DE10D8A414D09CECF4F0DE
:100E5000D69E0A016C51D8A406D06A00F8F1A5F715
:100E60006A00FCF1A6F7D68EA5C78EF5A6C78FF54A
:100E7000BAECEFF057ECF6F0010E08010027000E77
:100E800001230223032313ECFAF0000E9CECF8F08C
:100E9000DBECF9F00009D8B4FBD7DBECF9F0000982
:100EA000D8B406D068ECF7F07EC500FD7FC501FD23
:100EB00013ECFAF0010E9CECF8F0DBECF9F0000911
:100EC000D8B4FBD7DBECF9F00009D8B40ED068EC4D
:100ED000F7F06100FAF5F1F86100FEF5F2F86A004A
:100EE000C4F302FD6A00C8F303FD13ECFAF0020E2E
:100EF0009CECF8F0DBECF9F00009D8B4FBD7DBECA4
:100F0000F9F00009D8B40ED068ECF7F06100FAF5FA
:100F1000F3F86100FEF5F4F86A00CCF304FD6A0012
:100F2000D0F305FD13ECFAF0040E9CECF8F0DBECCA
:100F3000F9F00009D8B4FBD7DBECF9F00009D8B41C
:100F400006D068ECF7F07EC508FD7FC509FD13ECFF
:100F5000FAF0050E9CECF8F0DBECF9F00009D8B4DF
:100F6000FBD7DBECF9F00009D8B406D068ECF7F059
:100F70007EC50AFD7FC50BFD13ECFAF0160E9CEC46
:100F8000F8F0DBECF9F00009D8B4FBD7DBECF9F0B2
:100F90000009D8B406D068ECF7F07EC52CFD7FC5FB
:100FA0002DFD13ECFAF0170E9CECF8F0DBECF9F0E9
:100FB0000009D8B4FBD7DBECF9F00009D8B406D0AF
:100FC00068ECF7F07EC52EFD7FC52FFD13ECFAF01F
:100FD0001D0E9CECF8F0DBECF9F00009D8B4FBD75F
:100FE000DBECF9F00009D8B406D068ECF7F07EC568
:100FF0003AFD7FC53BFD13ECFAF03B0E9CECF8F09C
:10100000DBECF9F00009D8B4FBD7DBECF9F0000910
:10101000D8B406D068ECF7F07EC576FD7FC577FDC5
:1010200013ECFAF03C0E9CECF8F0DBECF9F0000964
:10103000D8B4FBD7DBECF9F00009D8B406D068ECE3
:10104000F7F07EC578FD7FC579FD13ECFAF03D0E13
:101050009CECF8F0DBECF9F00009D8B4FBD7DBEC42
:10106000F9F00009D8B406D068ECF7F07EC57AFD37
:101070007FC57BFD13ECFAF03E0E9CECF8F0DBEC48
:10108000F9F00009D8B4FBD7DBECF9F00009D8B4CB
:1010900006D068ECF7F07EC57CFD7FC57DFD13ECC6
:1010A000FAF03F0E9CECF8F0DBECF9F00009D8B454
:1010B000FBD7DBECF9F00009D8B406D068ECF7F008
:1010C0007EC57EFD7FC57FFD6A00ACF27DF0040029
:1010D0002AEE03F1DE50DE10DE10DE10D8A41AD0A6
:1010E00084ECF4F0000E05019D6F000E9E6F000E63
:1010F0009F6F000EA06F000EA16F000EA26F000E7A
:10110000A36F03ECE3F06EC7D9F46FC7DAF4DFBE68
:10111000D5ECBCF0050E32ECF6F00009D8B4B6D32D
:1011200057ECF6F0010E05017F6FF40E7E6F050E91
:10113000E2ECF4F0040E32ECF6F00009D8B403D07F
:10114000000EC1ECF6F0000EDFECF2F05050D8B417
:1011500065D382EC8CF0000E05017E6F000E65EC0D
:10116000EBF07EC571F67FC572F60601746B150E45
:10117000736FD20E756FFB0E766F020E0701E925B5
:101180000601776F000E0701EA210601786F81ECF6
:10119000DEF024CB95F525CB96F526CB97F527CB1E
:1011A00098F5000E0501996F000E9A6FC80E9B6F9F
:1011B000420E9C6F66ECC4F095C5E2F796C5E3F766
:1011C00097C5E4F798C5E5F7000E7E6F010E65EC54
:1011D000EBF07EC571F67FC572F60601746B150ED5
:1011E000736FEE0E756FFB0E766F0D01C8510C0D0F
:1011F000B80EF3240601776F0E0EF420786F14C733
:1012000087F515C788F516C789F517C78AF50A0E39
:1012100005018B6F000E8C6F000E8D6F000E8E6FB0
:10122000B8ECDDF087C579F688C57AF689C57BF616
:101230008AC57CF6E2C77DF6E3C77EF6E4C77FF693
:10124000E5C780F681ECDEF0000E05017E6F020E30
:1012500065ECEBF07EC571F67FC572F60601746B26
:10126000150E736F370E756FFB0E766F09011D51EA
:101270000C0D3E0EF3240601776FF70EF420786F05
:101280000C0E0701F103F3C4FBF6F4C4FCF6F20301
:10129000F3500601FC27F60EFB25796FF60EFC21B4
:1012A0007A6F800E0701F72506017B6FFF0E07019D
:1012B000F82106017C6F800E0701F52506017D6F80
:1012C000FF0E0701F62106017E6F800E0701F32550
:1012D00006017F6FFF0E0701F4210601806F81EC8C
:1012E000DEF0000E05017E6F030E65ECEBF07EC5AF
:1012F00071F67FC572F60601746B150E736FDF0E03
:10130000756FF90E766F9DC777F69EC778F69FC703
:1013100079F6A0C77AF699C77BF69AC77CF69BC781
:101320007DF69CC77EF681ECDEF022EE5BF1DEC43A
:1013300087F5DDC488F50501000E88BFFF0E896FB3
:101340008A6F010ECDECD6F087C595F588C596F568
:1013500089C597F58AC598F5000E996F000E9A6FAA
:10136000200E9B6F410E9C6F66ECC4F095C5E2F7B2
:1013700096C5E3F797C5E4F798C5E5F722EE69F15E
:10138000DEC487F5DDC488F5000E88BFFF0E896FC7
:101390008A6F010ECDECD6F087C595F588C596F518
:1013A00089C597F58AC598F5000E996F000E9A6F5A
:1013B000700E9B6F420E9C6F66ECC4F095C5DEF715
:1013C00096C5DFF797C5E0F798C5E1F7010E7E6F88
:1013D000000E65ECEBF07EC571F67FC572F6060176
:1013E000746B150E736F5B0E756FF90E766FE2C737
:1013F00077F6E3C778F6E4C779F6E5C77AF6DEC78D
:101400007BF6DFC77CF6E0C77DF6E1C77EF681ECB0
:10141000DEF065C97EF566C97FF50501816B0A0EB0
:10142000806F15ECE7F07EC5D0F77FC5D1F763C9B3
:101430007EF564C97FF5816B0A0E806F15ECE7F0CD
:101440007EC5D2F77FC5D3F7010E7E6F010E65EC26
:10145000EBF07EC571F67FC572F60601746B150E52
:10146000736F310E756FFA0E766FD0C777F6D1C7EE
:1014700078F6D2C779F6D3C77AF681ECDEF0ECCBFA
:1014800087F5EDCB88F5EECB89F5EFCB8AF5010E2C
:10149000CDECD6F087C595F588C596F589C597F545
:1014A0008AC598F5000E996F000E9A6F7A0E9B6FA1
:1014B000440E9C6F66ECC4F095C5E2F796C5E3F761
:1014C00097C5E4F798C5E5F718C787F519C788F5F4
:1014D0001AC789F51BC78AF5010ECDECD6F087C572
:1014E00095F588C596F589C597F58AC598F5000ED6
:1014F000996F000E9A6F7A0E9B6F440E9C6F66EC8C
:10150000C4F095C5DEF796C5DFF797C5E0F798C537
:10151000E1F724CB95F525CB96F526CB97F527CB90
:1015200098F5000E996F000E9A6FC80E9B6F420ED1
:101530009C6F66ECC4F095C5DAF796C5DBF797C5E6
:10154000DCF798C5DDF7010E7E6F020E65ECEBF05F
:101550007EC571F67FC572F60601746B150E736F4A
:101560002E0E756FF90E766FE2C777F6E3C778F641
:10157000E4C779F6E5C77AF6DEC77BF6DFC77CF607
:10158000E0C77DF6E1C77EF6DAC77FF6DBC780F6F7
:10159000DCC781F6DDC782F681ECDEF024C787F573
:1015A00025C788F526C789F527C78AF5010ECDEC32
:1015B000D6F087C595F588C596F589C597F58AC58E
:1015C00098F5000E996F000E9A6F200E9B6F410EDA
:1015D0009C6F66ECC4F095C5E2F796C5E3F797C536
:1015E000E4F798C5E5F730C787F531C788F532C706
:1015F00089F533C78AF5010ECDECD6F087C595F590
:1016000088C596F589C597F58AC598F5000E996F36
:10161000000E9A6F200E9B6F410E9C6F66ECC4F01B
:1016200095C5DEF796C5DFF797C5E0F798C5E1F7F2
:1016300021EE5CF3DEC487F5DDC488F5000E88BFBB
:10164000FF0E896F8A6F010ECDECD6F087C595F538
:1016500088C596F589C597F58AC598F5000E996FE6
:10166000000E9A6F7A0E9B6F440E9C6F66ECC4F06E
:1016700095C5DAF796C5DBF797C5DCF798C5DDF7B2
:10168000010E7E6F030E65ECEBF07EC571F67FC533
:1016900072F60601746B150E736FF20E756FFA0E0B
:1016A000766FE2C777F6E3C778F6E4C779F6E5C761
:1016B0007AF6DEC77BF6DFC77CF6E0C77DF6E1C7CA
:1016C0007EF6DAC77FF6DBC780F6DCC781F6DDC7BA
:1016D00082F681ECDEF0020E05017E6F000E65ECF5
:1016E000EBF07EC571F67FC572F60601746B150EC0
:1016F000736F780E756FFB0E766F57C877F658C804
:1017000078F659C879F65AC87AF65BC87BF65CC891
:101710007CF65DC87DF65EC87EF653C87FF654C879
:1017200080F681ECDEF0020E05017E6F010E65ECA5
:10173000EBF07EC571F67FC572F60601746B150E6F
:10174000736F090E756FFA0E766F08CD00F609CD2E
:1017500001F689ECE5F000C677F601C678F602C618
:1017600079F603C67AF60ACD00F60BCD01F6FFEC4A
:10177000E4F000C67BF601C67CF602C67DF603C621
:101780007EF681ECDEF0020E05017E6F020E65EC46
:10179000EBF07EC571F67FC572F60601746B150E0F
:1017A000736F010E756FF90E766F08C877F609C86A
:1017B00078F60AC879F60BC87AF650C87BF67C6BC7
:1017C00081ECDEF0020E05017E6F030E65ECEBF09E
:1017D0007EC571F67FC572F60601746B150E736FC8
:1017E000800E756FFA0E766F28C877F629C878F6DE
:1017F0002AC879F62BC87AF60CC87BF60DC87CF699
:101800000EC87DF60FC87EF681ECDEF0CAECF8F06B
:101810000A01666B506A000E53ECE6F02AEEE2F025
:10182000DFC4FBF6010EDF26460E0601FB6529D05C
:101830005E50E1ECF6F02AEEE2F0DF500601FB6FBD
:10184000FC6B2AEEE4F0DF50FD6FFE6B660EFD27A9
:10185000000EFE23FB51FD5DFE51800AFF6FFC511F
:10186000800AFF59D8B012D05E2A5E50030B030ADB
:10187000D8A402D0010E5E6E000E6100A2F3E2F861
:1018800005D02AEEE1F0DF50E1ECF6F02AEEEDF0C3
:10189000DF50D8B413D0030E32ECF6F00009D8B400
:1018A0000AD0000E6100A2F3EDF82AEEE1F0DF505D
:1018B000E1ECF6F003D0030EE1ECF6F02AEEE8F0EE
:1018C000DF50D8B4B4EF81F0060E32ECF6F0000928
:1018D000D8B4B4EF81F0270E7F6F100E7E6F060E26
:1018E000E2ECF4F00B0E7F6FB80E7E6F030EE2ECAD
:1018F000F4F0010E6100A2F3EDF8000E34ECD4F028
:10190000B4EF81F0860E0601046F280E056F59ECC6
:10191000F7F004C697F705C698F7FC0E716F240E12
:10192000726F746B190E736FFC0E756FFF0E766F0E
:1019300097C78BF598C78CF580ECCAF08BC577F606
:101940008CC578F681ECDEF0000E6100A2F3FFF4A6
:10195000C2EF95F0FBC7F0F714C787F515C788F5F8
:1019600016C789F517C78AF5010ECDECD6F087C5E5
:1019700095F588C596F589C597F58AC598F5000E41
:10198000996F000E9A6F200E9B6F410E9C6F66EC54
:10199000C4F095C5E3F696C5E4F697C5E5F698C597
:1019A000E6F624C787F525C788F526C789F527C732
:1019B0008AF5010ECDECD6F087C595F588C596F56C
:1019C00089C597F58AC598F5000E996F000E9A6F34
:1019D000200E9B6F410E9C6F66ECC4F095C5E7F638
:1019E00096C5E8F697C5E9F698C5EAF628C787F5DB
:1019F00029C788F52AC789F52BC78AF5010ECDECD2
:101A0000D6F087C595F588C596F589C597F58AC539
:101A100098F5000E996F000E9A6F200E9B6F410E85
:101A20009C6F66ECC4F095C5EBF696C5ECF697C5D1
:101A3000EDF698C5EEF630C787F531C788F532C7A1
:101A400089F533C78AF5010ECDECD6F087C595F53B
:101A500088C596F589C597F58AC598F5000E996FE2
:101A6000000E9A6F200E9B6F410E9C6F66ECC4F0C7
:101A700095C5EFF696C5F0F697C5F1F698C5F2F65E
:101A80003CC787F53DC788F53EC789F53FC78AF54E
:101A9000010ECDECD6F087C595F588C596F589C5BC
:101AA00097F58AC598F5000E996F000E9A6F200E73
:101AB0009B6F410E9C6F66ECC4F095C5F3F696C51E
:101AC000F4F697C5F5F698C5F6F621EE62F3DEC496
:101AD00087F5DDC488F5000E88BFFF0E896F8A6F19
:101AE000010ECDECD6F087C595F588C596F589C56C
:101AF00097F58AC598F5000E996F000E9A6F200E23
:101B00009B6F410E9C6F66ECC4F095C5F7F696C5C9
:101B1000F8F697C5F9F698C5FAF6FC0E0601716F4E
:101B2000220E726F020E746F000E736FC70E756F08
:101B3000F50E766FF0C777F6786BE3C679F6E4C6F4
:101B40007AF6E5C67BF6E6C67CF618CB7DF619CBB1
:101B50007EF61ACB7FF61BCB80F6E7C681F6E8C689
:101B600082F6E9C683F6EAC684F6EBC685F6ECC6CD
:101B700086F6EDC687F6EEC688F6EFC689F6F0C69D
:101B80008AF6F1C68BF6F2C68CF6F3C68DF6F4C66D
:101B90008EF6F5C68FF6F6C690F6F7C691F6F8C63D
:101BA00092F6F9C693F6FAC694F670CB95F671CB19
:101BB00096F672CB97F673CB98F69DC799F69EC7AB
:101BC0009AF69FC79BF6A0C79CF699C79DF69AC741
:101BD0009EF69BC79FF69CC7A0F6800E0701F725CF
:101BE0000601A16FFF0E0701F8210601A26F800E0A
:101BF0000701F5250601A36FFF0E0701F621060177
:101C0000A46F800E0701F3250601A56FFF0E0701E3
:101C1000F4210601A66FEAC5A7F6EBC5A8F61DC913
:101C2000A9F6AA6BF1C7ABF6F2C7ACF6CBCDADF611
:101C3000AE6B6CC9AFF66DC9B0F66EC9B1F66FC9BF
:101C4000B2F670C9B3F671C9B4F672C9B5F673C904
:101C5000B6F6E5C8B7F6E6C8B8F6E7C8B9F6E8C814
:101C6000BAF6EDC8BBF6EEC8BCF6EFC8BDF6F0C8D4
:101C7000BEF6F1C8BFF6F2C8C0F6F3C8C1F6F4C8A4
:101C8000C2F6F5C8C3F6F6C8C4F6F7C8C5F6F8C874
:101C9000C6F681ECDEF0120E1BEF94F0FBC7F0F7F6
:101CA00000C787F501C788F502C789F503C78AF51C
:101CB000010ECDECD6F087C595F588C596F589C59A
:101CC00097F58AC598F5000E996F000E9A6F200E51
:101CD0009B6F410E9C6F66ECC4F095C5E3F696C50C
:101CE000E4F697C5E5F698C5E6F604C787F505C797
:101CF00088F506C789F507C78AF5010ECDECD6F041
:101D000087C595F588C596F589C597F58AC598F56F
:101D1000000E996F000E9A6F200E9B6F410E9C6F04
:101D200066ECC4F095C5E7F696C5E8F697C5E9F602
:101D300098C5EAF608C787F509C788F50AC789F57F
:101D40000BC78AF5010ECDECD6F087C595F588C591
:101D500096F589C597F58AC598F5000E996F000E1E
:101D60009A6F200E9B6F410E9C6F66ECC4F095C578
:101D7000EBF696C5ECF697C5EDF698C5EEF61CC7E2
:101D800087F51DC788F51EC789F51FC78AF5010E9F
:101D9000CDECD6F087C595F588C596F589C597F53C
:101DA0008AC598F5000E996F000E9A6F7A0E9B6F98
:101DB000440E9C6F66ECC4F095C5EFF696C5F0F640
:101DC00097C5F1F698C5F2F62CC787F52DC788F5AB
:101DD0002EC789F52FC78AF5010ECDECD6F087C541
:101DE00095F588C596F589C597F58AC598F5000ECD
:101DF000996F000E9A6F200E9B6F410E9C6F66ECE0
:101E0000C4F095C5F3F696C5F4F697C5F5F698C5F2
:101E1000F6F650C787F551C788F552C789F553C7FD
:101E20008AF5010ECDECD6F087C595F588C596F5F7
:101E300089C597F58AC598F5000E996F000E9A6FBF
:101E4000200E9B6F410E9C6F66ECC4F095C5F7F6B3
:101E500096C5F8F697C5F9F698C5FAF621EE5CF343
:101E6000DEC487F5DDC488F5000E88BFFF0E896FDC
:101E70008A6F010ECDECD6F087C595F588C596F52D
:101E800089C597F58AC598F5000E996F000E9A6F6F
:101E9000200E9B6F410E9C6F66ECC4F095C5DBF67F
:101EA00096C5DCF697C5DDF698C5DEF621EE5EF345
:101EB000DEC487F5DDC488F5000E88BFFF0E896F8C
:101EC0008A6F010ECDECD6F087C595F588C596F5DD
:101ED00089C597F58AC598F5000E996F000E9A6F1F
:101EE000200E9B6F410E9C6F66ECC4F095C5DFF62B
:101EF00096C5E0F697C5E1F698C5E2F6FC0E060138
:101F0000716F220E726F020E746F000E736F100EDF
:101F1000756FF50E766FF0C777F6786BE3C679F6D6
:101F2000E4C67AF6E5C67BF6E6C67CF6E7C67DF63D
:101F3000E8C67EF6E9C67FF6EAC680F6EBC681F60D
:101F4000ECC682F6EDC683F6EEC684F6EFC685F6DD
:101F5000F0C686F6F1C687F6F2C688F6F3C689F6AD
:101F6000F4C68AF6F5C68BF6F6C68CF6F7C68DF67D
:101F7000F8C68EF6F9C68FF6FAC690F6DBC691F66D
:101F8000DCC692F6DDC693F6DEC694F6DFC695F69D
:101F9000E0C696F6E1C697F6E2C698F69DC799F6B2
:101FA0009EC79AF69FC79BF6A0C79CF699C79DF659
:101FB0009AC79EF69BC79FF69CC7A0F6800E0701A6
:101FC000F7250601A16FFF0E0701F8210601A26F98
:101FD000800E0701F5250601A36FFF0E0701F6210C
:101FE0000601A46F800E0701F3250601A56FFF0E01
:101FF0000701F4210601A66F1BC9A7F61CC9A8F6A4
:102000001DC9A9F6AA6BF1C7ABF6F2C7ACF6CBCDEA
:10201000ADF6AE6B6CC9AFF66DC9B0F66EC9B1F670
:102020006FC9B2F670C9B3F671C9B4F672C9B5F624
:1020300073C9B6F6E5C8B7F6E6C8B8F6E7C8B9F6A4
:10204000E8C8BAF6EDC8BBF6EEC8BCF6EFC8BDF6F8
:10205000F0C8BEF6F1C8BFF6F2C8C0F6F3C8C1F6C4
:10206000F4C8C2F6F5C8C3F6F6C8C4F6F7C8C5F694
:10207000F8C8C6F681ECDEF0110E0701FB6F040014
:10208000D8EF95F0FBC7F0F714C787F515C788F5AB
:1020900016C789F517C78AF5010ECDECD6F087C5AE
:1020A00095F588C596F589C597F58AC598F5000E0A
:1020B000996F000E9A6F200E9B6F410E9C6F66EC1D
:1020C000C4F095C5E3F696C5E4F697C5E5F698C560
:1020D000E6F618C787F519C788F51AC789F51BC72B
:1020E0008AF5010ECDECD6F087C595F588C596F535
:1020F00089C597F58AC598F5000E996F000E9A6FFD
:102100007A0E9B6F440E9C6F66ECC4F095C5E7F6A3
:1021100096C5E8F697C5E9F698C5EAF624C787F5A7
:1021200025C788F526C789F527C78AF5010ECDECA6
:10213000D6F087C595F588C596F589C597F58AC502
:1021400098F5000E996F000E9A6F200E9B6F410E4E
:102150009C6F66ECC4F095C5EBF696C5ECF697C59A
:10216000EDF698C5EEF628C787F529C788F52AC782
:1021700089F52BC78AF5010ECDECD6F087C595F50C
:1021800088C596F589C597F58AC598F5000E996FAB
:10219000000E9A6F200E9B6F410E9C6F66ECC4F090
:1021A00095C5EFF696C5F0F697C5F1F698C5F2F627
:1021B00030C787F531C788F532C789F533C78AF547
:1021C000010ECDECD6F087C595F588C596F589C585
:1021D00097F58AC598F5000E996F000E9A6F200E3C
:1021E0009B6F410E9C6F66ECC4F095C5F3F696C5E7
:1021F000F4F697C5F5F698C5F6F63CC787F53DC7E2
:1022000088F53EC789F53FC78AF5010ECDECD6F0BB
:1022100087C595F588C596F589C597F58AC598F55A
:10222000000E996F000E9A6F200E9B6F410E9C6FEF
:1022300066ECC4F095C5F7F696C5F8F697C5F9F6BD
:1022400098C5FAF621EE62F3DEC487F5DDC488F5A1
:10225000000E88BFFF0E896F8A6F010ECDECD6F09D
:1022600087C595F588C596F589C597F58AC598F50A
:10227000000E996F000E9A6F200E9B6F410E9C6F9F
:1022800066ECC4F095C5DBF696C5DCF697C5DDF6C1
:1022900098C5DEF6ECCB87F5EDCB88F5EECB89F56E
:1022A000EFCB8AF5010ECDECD6F087C595F588C544
:1022B00096F589C597F58AC598F5000E996F000EB9
:1022C0009A6F7A0E9B6F440E9C6F66ECC4F095C5B6
:1022D000DFF696C5E0F697C5E1F698C5E2F6FC0E86
:1022E0000601716F220E726F020E746F000E736F13
:1022F000590E756FF40E766FF0C777F6786BE3C6FC
:1023000079F6E4C67AF6E5C67BF6E6C67CF6E7C65D
:102310007DF6E8C67EF6E9C67FF6EAC680F6EBC62D
:1023200081F6ECC682F6EDC683F6EEC684F6EFC6FD
:1023300085F6F0C686F6F1C687F6F2C688F6F3C6CD
:1023400089F6F4C68AF6F5C68BF6F6C68CF6F7C69D
:102350008DF6F8C68EF6F9C68FF6FAC690F6DBC68D
:1023600091F6DCC692F6DDC693F6DEC694F6DFC6BD
:1023700095F6E0C696F6E1C697F6E2C698F69DC7D2
:1023800099F69EC79AF69FC79BF6A0C79CF699C779
:102390009DF69AC79EF69BC79FF69CC7A0F6800E37
:1023A0000701F7250601A16FFF0E0701F8210601BD
:1023B000A26F800E0701F5250601A36FFF0E07012E
:1023C000F6210601A46F800E0701F3250601A56F13
:1023D000FF0E0701F4210601A66FEAC5A7F6EBC5BB
:1023E000A8F61DC9A9F6AA6BF1C7ABF6F2C7ACF601
:1023F000CBCDADF6AE6B6CC9AFF66DC9B0F66EC99C
:10240000B1F66FC9B2F670C9B3F671C9B4F672C944
:10241000B5F673C9B6F6E5C8B7F6E6C8B8F6E7C8C4
:10242000B9F6E8C8BAF6EDC8BBF6EEC8BCF6EFC818
:10243000BDF6F0C8BEF6F1C8BFF6F2C8C0F6F3C8E4
:10244000C1F6F4C8C2F6F5C8C3F6F6C8C4F6F7C8B4
:10245000C5F6F8C8C6F681ECDEF0140EECD1FBC769
:10246000F0F714C787F515C788F516C789F517C79C
:102470008AF5010ECDECD6F087C595F588C596F5A1
:1024800089C597F58AC598F5000E996F000E9A6F69
:10249000200E9B6F410E9C6F66ECC4F095C5E3F671
:1024A00096C5E4F697C5E5F698C5E6F618C787F52C
:1024B00019C788F51AC789F51BC78AF5010ECDEC37
:1024C000D6F087C595F588C596F589C597F58AC56F
:1024D00098F5000E996F000E9A6F7A0E9B6F440E5E
:1024E0009C6F66ECC4F095C5E7F696C5E8F697C50F
:1024F000E9F698C5EAF624C787F525C788F526C703
:1025000089F527C78AF5010ECDECD6F087C595F57C
:1025100088C596F589C597F58AC598F5000E996F17
:10252000000E9A6F200E9B6F410E9C6F66ECC4F0FC
:1025300095C5EBF696C5ECF697C5EDF698C5EEF6A3
:1025400028C787F529C788F52AC789F52BC78AF5D3
:10255000010ECDECD6F087C595F588C596F589C5F1
:1025600097F58AC598F5000E996F000E9A6F200EA8
:102570009B6F410E9C6F66ECC4F095C5EFF696C557
:10258000F0F697C5F1F698C5F2F630C787F531C772
:1025900088F532C789F533C78AF5010ECDECD6F040
:1025A00087C595F588C596F589C597F58AC598F5C7
:1025B000000E996F000E9A6F200E9B6F410E9C6F5C
:1025C00066ECC4F095C5F3F696C5F4F697C5F5F636
:1025D00098C5F6F63CC787F53DC788F53EC789F52F
:1025E0003FC78AF5010ECDECD6F087C595F588C5B5
:1025F00096F589C597F58AC598F5000E996F000E76
:102600009A6F200E9B6F410E9C6F66ECC4F095C5CF
:10261000F7F696C5F8F697C5F9F698C5FAF621EEDD
:1026200062F3DEC487F5DDC488F5000E88BFFF0EB7
:10263000896F8A6F010ECDECD6F087C595F588C5F8
:1026400096F589C597F58AC598F5000E996F000E25
:102650009A6F200E9B6F410E9C6F66ECC4F095C57F
:10266000DBF696C5DCF697C5DDF698C5DEF6ECCB55
:1026700087F5EDCB88F5EECB89F5EFCB8AF5010E2A
:10268000CDECD6F087C595F588C596F589C597F543
:102690008AC598F5000E996F000E9A6F7A0E9B6F9F
:1026A000440E9C6F66ECC4F095C5DFF696C5E0F667
:1026B00097C5E1F698C5E2F6FC0E0601716F220E91
:1026C000726F020E746F000E736FA20E756FF30EB1
:1026D000766FF0C777F6786BE3C679F6E4C67AF6DC
:1026E000E5C67BF6E6C67CF6E7C67DF6E8C67EF66E
:1026F000E9C67FF6EAC680F6EBC681F6ECC682F63E
:10270000EDC683F6EEC684F6EFC685F6F0C686F60D
:10271000F1C687F6F2C688F6F3C689F6F4C68AF6DD
:10272000F5C68BF6F6C68CF6F7C68DF6F8C68EF6AD
:10273000F9C68FF6FAC690F6DBC691F6DCC692F6BD
:10274000DDC693F6DEC694F6DFC695F6E0C696F6CD
:10275000E1C697F6E2C698F69DC799F69EC79AF627
:102760009FC79BF6A0C79CF699C79DF69AC79EF691
:102770009BC79FF69CC7A0F6800E0701F7250601B0
:10278000A16FFF0E0701F8210601A26F800E07015D
:10279000F5250601A36FFF0E0701F6210601A46FC0
:1027A000800E0701F3250601A56FFF0E0701F42136
:1027B0000601A66FEAC5A7F6EBC5A8F61DC9A9F6DE
:1027C000AA6BF1C7ABF6F2C7ACF6CBCDADF6AE6BEC
:1027D0006CC9AFF66DC9B0F66EC9B1F66FC9B2F685
:1027E00070C9B3F671C9B4F672C9B5F673C9B6F655
:1027F000E5C8B7F6E6C8B8F6E7C8B9F6E8C8BAF665
:10280000EDC8BBF6EEC8BCF6EFC8BDF6F0C8BEF624
:10281000F1C8BFF6F2C8C0F6F3C8C1F6F4C8C2F6F4
:10282000F5C8C3F6F6C8C4F6F7C8C5F6F8C8C6F6C4
:1028300081ECDEF0110E0701FB6FBAD1110EFB6FB8
:10284000110EF06F14C787F515C788F516C789F5FF
:1028500017C78AF5010ECDECD6F087C595F588C56A
:1028600096F589C597F58AC598F5000E996F000E03
:102870009A6F200E9B6F410E9C6F66ECC4F095C55D
:10288000E3F696C5E4F697C5E5F698C5E6F624C7DF
:1028900087F525C788F526C789F527C78AF5010E6C
:1028A000CDECD6F087C595F588C596F589C597F521
:1028B0008AC598F5000E996F000E9A6F200E9B6FD7
:1028C000410E9C6F66ECC4F095C5E7F696C5E8F638
:1028D00097C5E9F698C5EAF628C787F529C788F5A8
:1028E0002AC789F52BC78AF5010ECDECD6F087C52E
:1028F00095F588C596F589C597F58AC598F5000EB2
:10290000996F000E9A6F200E9B6F410E9C6F66ECC4
:10291000C4F095C5EBF696C5ECF697C5EDF698C5EF
:10292000EEF630C787F531C788F532C789F533C76A
:102930008AF5010ECDECD6F087C595F588C596F5DC
:1029400089C597F58AC598F5000E996F000E9A6FA4
:10295000200E9B6F410E9C6F66ECC4F095C5EFF6A0
:1029600096C5F0F697C5F1F698C5F2F63CC787F51F
:102970003DC788F53EC789F53FC78AF5010ECDEC06
:10298000D6F087C595F588C596F589C597F58AC5AA
:1029900098F5000E996F000E9A6F200E9B6F410EF6
:1029A0009C6F66ECC4F095C5F3F696C5F4F697C532
:1029B000F5F698C5F6F621EE62F3DEC487F5DDC4C0
:1029C00088F5000E88BFFF0E896F8A6F010ECDEC6F
:1029D000D6F087C595F588C596F589C597F58AC55A
:1029E00098F5000E996F000E9A6F200E9B6F410EA6
:1029F0009C6F66ECC4F095C5F7F696C5F8F697C5DA
:102A0000F9F698C5FAF6FC0E0601716F220E726F88
:102A1000020E746F000E736FC70E756FF50E766F32
:102A2000F0C777F6786BE3C679F6E4C67AF6E5C6C2
:102A30007BF6E6C67CF618CB7DF619CB7EF61ACB74
:102A40007FF61BCB80F6E7C681F6E8C682F6E9C6BC
:102A500083F6EAC684F6EBC685F6ECC686F6EDC6C6
:102A600087F6EEC688F6EFC689F6F0C68AF6F1C696
:102A70008BF6F2C68CF6F3C68DF6F4C68EF6F5C666
:102A80008FF6F6C690F6F7C691F6F8C692F6F9C636
:102A900093F6FAC694F670CB95F671CB96F672CB98
:102AA00097F673CB98F69DC799F69EC79AF69FC77F
:102AB0009BF6A0C79CF699C79DF69AC79EF69BC742
:102AC0009FF69CC7A0F6800E0701F7250601A16FAF
:102AD000FF0E0701F8210601A26F800E0701F52500
:102AE0000601A36FFF0E0701F6210601A46F800EF9
:102AF0000701F3250601A56FFF0E0701F42106016A
:102B0000A66FEAC5A7F6EBC5A8F61DC9A9F6AA6B7C
:102B1000F1C7ABF6F2C7ACF6CBCDADF6AE6B6CC978
:102B2000AFF66DC9B0F66EC9B1F66FC9B2F670C92D
:102B3000B3F671C9B4F672C9B5F673C9B6F6E5C88D
:102B4000B7F6E6C8B8F6E7C8B9F6E8C8BAF6EDC809
:102B5000BBF6EEC8BCF6EFC8BDF6F0C8BEF6F1C8CD
:102B6000BFF6F2C8C0F6F3C8C1F6F4C8C2F6F5C89D
:102B7000C3F6F6C8C4F6F7C8C5F6F8C8C6F681ECC1
:102B8000DEF016D00701FB51020AD8B4AAEF8CF090
:102B9000130AD8B4AAEF8CF0030AD8B44EEF8EF023
:102BA000010AD8B442EF90F0070AD8B458D446D6F8
