:0400000085EF00F098
:100008008B038B038B038B038B038B038B034402C0
:100018008B038B03E47EF27E8B038B038B038B03B2
:10002800007F8B038B038B03C87E8B03D67E8B03E9
:100038008B038B038B038B03FC7D8B038B03817EEC
:10004800997F8B7F8B038B038B038B038B038B0332
:10005800B57F8B03A77F8B03857C8B038B038B0377
:100068008B038B038B038B030E7F1C7F2A7F8B03F1
:100078008B038B038B038B0342008B038B038B0354
:100088008B038B038B038B03EC7D8B038B038B031D
:10009800D17FC37F8B038B0342008B038B038B03BE
:1000A8008B038B038B038B03387F467F547F8B0333
:1000B8008B038B038B03CC7D8B038B038B038B030D
:1000C8008B038B038B038B038B038B038B038B03B8
:1000D8008B038B038B038B038B038B038B038B03A8
:1000E80042008B038B038B038B038B038B038B03E4
:1000F80085038B038B0363028B038B038B038B03B7
:10010800FF0091EFCAF04C50D8A41200980E7E6FF1
:100118000E0E7F6F89C580F58AC581F5D8908B351D
:10012800826F836B8337A8ECF6F04B6A8BC54CF56E
:10013800010E09011E6F12000C01525105017F6F5B
:100148007E6B0C01545105017E25EC6F0C01555155
:1001580005017F21ED6F09011D51D8B403D0090EA7
:100168004F6E12000B0E4F6E12007EC582F57FC5D2
:1001780083F580C5F6F481C5F7F4804B812B000E1A
:10018800F86E82C5D9F483C5DAF4824B832B080054
:10019800F5C4DFF4DF50D8B41200EBD7030E050125
:1001A800EA19EB11D8B408D009011D6B0701DC6B03
:1001B800050EDB6F4F6A120009010051D8A403D065
:1001C8000A0E4F6E1200010E4F6E12005050020DB3
:1001D800500EF324D96E090EF420DA6E54CCDEF4F6
:1001E80055CCDDF4502A0C01BC51D8A403D00A0E1A
:1001F8004F6E1200BC6B070E4F6E120005017E5148
:100208007F1180118111D8B408D0000E7E1B000E1A
:100218007F1B000E801B800E811B7EC57EF57FC56F
:100228007FF580C580F581C581F5120016ECEFF0E9
:10023800C280C282C18600018785849F030E846FB5
:10024800859B859D858F859985938591030E866FFE
:100258008C6B070E896F848F8795120016ECEFF070
:10026800C280C282C18600018785849F030E846F85
:10027800859B859D858F859985938591030E866FCE
:100288008C6B070E896F848F879512000100000020
:100298000100000001000000010000000100000052
:1002A8000000000000000000000000000000000046
:1002B80000000000000000000000400E0501F7618A
:1002C80011D0000E5624D96EDA6A100EDA22DF50E9
:1002D8000201C96F562A3F0E566401D0566A0501BD
:1002E800F72B1200A7921200A507000075FF000067
:1002F80000000000000000000000008080420000B4
:10030800000000808042E5612140CD0C05430003D8
:1003180000571942826F7EC580F57FC581F5D89058
:100328000501803781378251020D900EF324D96E72
:100338000A0EF420DA6E80C5DEF481C5DDF4120001
:10034800EFC58BF58B51D8B40FD089C57EF58AC51A
:100358007FF51C0E806F0F0E816FD8908B35826FE2
:10036800836B8337A8ECF6F0EF6B12007EC584F53B
:100378007FC585F508D084C5D9F485C5DAF480C56C
:10038800DFF4844B852B8207D8A083078229F3E109
:100398008329D8B41200EFD7010E3E6F3D6B3F6B37
:1003A8007F0E3B6F3A6BBD96AD86540E05017E6F8E
:1003B800F90E7F6F010E806FF5EC05F0C30E030197
:1003C8003C6F1200050E0301326F316B336B790EEF
:1003D8002F6F2E6BB996A9869A0E05017E6FFE0EB9
:1003E8007F6F010E806F03EC06F003013069120085
:1003F8007F6F080E0501806F816BD8907F3581353E
:10040800816FD8907F377E51815DD8A002D07E5110
:10041800815F802FF2D781511200D69E550EB46F9E
:10042800AA0EB46FB491D68E010EBF6F020EB66FCE
:10043800070EBE6FD69E550EB46FAA0EB46FB48168
:10044800D68E12000001D56BD76B410ED86F440EC3
:10045800D96F3D0EDA6F3B0EDB6F0A0EDC6FDD6B7A
:10046800DE6B600EDF6FD46B810ED66F1200080151
:10047800B651B711B811D8B40CD001D80AD00500BC
:10048800FA6EB651FD6EB751FE6EB851FF6EFA5056
:10049800120004010F9D1200400E5A6010D0400E49
:1004A8005B24D96EDA6A100EDA22DF500201A36FDC
:1004B8005B2A3F0E5B6401D05B6A5A2A1200A29243
:1004C8001200296E25C527F526C528F5D8902736A8
:1004D80028362950020D900EF324D96E0A0EF42006
:1004E800DA6E27C5DEF428C5DDF412004E50070188
:1004F8006E25D96E000E6F21DA6E80C0DFF44E2AA9
:10050800030E4E6401D04E6A010E7C27000E7D2337
:100518007E237F2312000C0152510501976F966BC1
:100528000C01545105019625946F0C015551050194
:100538009721956F96ECFAF0050E4F6E12000C019C
:1005480052510501976F966B0C0154510501962580
:10055800946F0C01555105019721956F96ECFAF0AF
:10056800040E4F6E120091BF05D090C590F591C54D
:1005780091F5120090C592F591C593F5921F931FBE
:10058800924B932B92C590F593C591F5120083C5B4
:100598007EF584C57FF5000E8EEC01F004D00000D6
:1005A800000000000000000EDEEC02F00009D8A4F4
:1005B8001200F5D70501806F05018051020D900EDC
:1005C800F324D96E0A0EF420DA6EDE50DE10D8A4B9
:1005D80002D0010E1200000E12007EC597F97FC5E9
:1005E80098F980C595F981C596F9010E0901A127E9
:1005F800000EA223A323A423934B942B120016ECE2
:10060800EFF0C280C2820001849F240E856F020E23
:10061800866F020E8C6F040E896F830E846F848F31
:1006280012000801B351B411B511D8B4120001D8A1
:1006380012000500FA6EB351FD6EB451FE6EB5514D
:10064800FF6EFA5012000801AA51AB11AC11D8B4D0
:10065800120001D812000500FA6EAA51FD6EAB51C6
:10066800FE6EAC51FF6EFA50120008019E519F11A8
:10067800A011D8B4120001D812000500FA6E9E51DC
:10068800FD6E9F51FE6EA051FF6EFA5012000801D8
:10069800835184118511D8B4120001D812000500C5
:1006A800FA6E8351FD6E8451FE6E8551FF6EFA50CD
:1006B800120023EE68F112EEDAF0250EDBC4E3F443
:1006C800E806FCE20801FBA1FB81FBB31200FB83F7
:1006D80012000501816F020EDEEC02F00009D8B4A9
:1006E80012006B0058F3C0F72BEED6F081C5DFF48B
:1006F80012000001919F918F94BF02D094A712001D
:10070800010E08010C27000E0D230E230F23BF82B4
:1007180012005E0E05017E6F0F0E7F6F3B0E806F1D
:10072800FF0E816F836B200E826FE7ECF5F01200ED
:10073800FA0E05017E6F1E0E7F6F816B000E806FB3
:10074800080E836F020E826FBAEC01F01200A698B1
:100758006100FAF586FC6100FEF587FC610002F68F
:1007680088FC610006F689FCA68812007E6F550E8B
:100778000001B46FAA0EB46FB4917EC5B8F0550EDF
:10078800B46FAA0EB46FB48112007E6F550E0001CB
:10079800B46FAA0EB46FB4917EC5B7F0550EB46F9E
:1007A800AA0EB46FB48112007E6F550E0001B46FAB
:1007B800AA0EB46FB4917EC5B6F0550EB46FAA0EEA
:1007C800B46FB48112007EC581F57FC582F581C5FD
:1007D80080F582C581F580C582F581C57EF582C523
:1007E8007FF5120004C600F605C601F6DE0E026F9C
:1007F8000F0E036F9DECF2F000C604F601C605F675
:100808001200EB510501816F806B0301EA5105016C
:1008180080257E6F0301000E050181217F6F120084
:1008280003012AA507D02A9177C529F376C528F3AD
:100838002A81120077C529F376C528F3120003012F
:1008480036A507D036911AC535F319C534F3368164
:1008580012001AC535F319C534F31200000E5524D9
:10086800D96EDA6A1A0EDA22C7C2DFF4552A552879
:10087800D8B4556A0501F52B120003011EA507D04F
:100888001E9173C51DF372C51CF31E81120073C53A
:100898001DF372C51CF31200FF0E7E25806FFF0E3C
:1008A8007F21816F80C5F1FA81C5F2FA0A01F36BE5
:1008B800F46B1200010E07018427000E852386239E
:1008C8008723010E8827000E89238A238B23120091
:1008D800000E5924D96EDA6A170EDA22A1C2DFF4A3
:1008E800592A5928D8B4596A572A1200830E000188
:1008F800846F240E856F030E866F020E8C6F040EB4
:06090800896FC896120081
:10091000FAC401F5FBC402F504010FBD3BEC02F083
:1009200002C5FBF401C5FAF411004F66666C696EEE
:10093000650000000000454D353430000000000027
:100940000000380E0001456F7FC544F07EC543F0BE
:10095000F80E4117408146511200030157B11200B1
:1009600081C552F380C551F37FC550F37EC54FF367
:100970001200200E0001AD6FAF6B010EB36F080EB9
:0A098000B16FB06BB2B11200FDD7E9
:10098C00FAC413F5FBC414F5BD9615EC03F014C5AD
:10099C00FBF413C5FAF41100010E266F256B276BBF
:1009AC00630E236F226BB1968F0E246F1200000121
:1009BC00606B616B626B636B646B656B666B676BB7
:1009CC00686B1200FC28FC260000000000110500DA
:0909DC0080008000800057041126
:1009E600030EE4250901F46F000E0501E521090156
:1009F600F56F1200000E0701846F000E856F000E62
:100A0600866F000E876F1200000E07018C6F000EB6
:100A16008D6F000E8E6F000E8F6F12000501876FAF
:100A2600FE0E58ECFBF00501875158ECFBF0120066
:100A36004D50D8B404D0010E0701BD6FBF82CFC49C
:100A4600CAF71200000E886F000E896F000E8A6FBB
:100A5600000E8B6F1200010E4827000E49234A2311
:100A66004B230001976B1200010E07017827000E39
:100A760079237A237B23689912000501EF51D8A4C4
:100A860002D0000E1200010E12000501F551D8B475
:100A960002D0010E1200000E120005017E6F7EC507
:100AA600ECF30301F38FF3811200010E07018C278B
:100AB600000E8D238E238F2312006F6B6C6B6E6B73
:100AC6006D6B706B716B726B1200010E07018027E4
:100AD600000E8123822383231200030157AB02D029
:100AE600010E1200000E12004C50D8A402D0010EC6
:100AF6001200000E120029EEFAF2DF50030B34EC5E
:100B0600DBF012005750D8B402D0010E1200000ECE
:100B160012000001E86B7EC5F7F07FC5F8F0120001
:100B26000001E86B7EC5EEF07FC5EFF012007EC5D2
:100B3600C5F87FC5C6F880C5C7F812007EC5C8F8D7
:100B46007FC5C9F880C5CAF812007EC5E3F97FC51E
:100B5600E4F980C5E5F912007EC5E6F97FC5E7F937
:100B660080C5E8F912007EC5E0F97FC5E1F980C5C8
:100B7600E2F912007EC5DBFA7FC5DCFA80C5DDFA34
:100B860012007EC5DEFA7FC5DFFA80C5E0FA1200E4
:100B96007EC5D8FA7FC5D9FA80C5DAFA12007EC5B5
:100BA600BFF87FC5C0F880C5C1F812007EC5C2F87F
:100BB6007FC5C3F880C5C4F812007EC5ECF97FC5B1
:100BC600EDF980C5EEF912007EC5EFF97FC5F0F9A3
:100BD60080C5F1F912007EC5E9F97FC5EAF980C53D
:100BE600EBF912007EC5B3F87FC5B4F880C5B5F839
:100BF60012007EC5AAF87FC5ABF880C5ACF8120016
:100C06007EC586F87FC587F880C588F812007EC540
:100C160089F87FC58AF880C58BF812007EC583F8EF
:100C26007FC584F880C585F812007EC59EF87FC50D
:100C36009FF880C5A0F81200550E0001B46FAA0EE9
:100C4600B46FB48112007EC5B9F87FC5BAF880C505
:100C5600BBF812007EC5BCF87FC5BDF880C5BEF8DE
:100C660012007EC5B6F87FC5B7F880C5B8F8120081
:100C76007EC592F87FC593F880C594F812007EC5AC
:100C86008CF87FC58DF880C58EF812007EC58FF86A
:100C96007FC590F880C591F812007EC59BF87FC588
:100CA6009CF880C59DF812007EC595F87FC596F81C
:100CB60080C597F812007EC598F87FC599F880C55B
:100CC6009AF812007EC5B0F87FC5B1F880C5B2F8B3
:100CD60012007EC5ADF87FC5AEF880C5AFF812002C
:100CE6007EC5A4F87FC5A5F880C5A6F812007EC506
:100CF600A1F87FC5A2F880C5A3F812007EC5A7F8A3
:100D06007FC5A8F880C5A9F812000301F3B102D087
:100D1600010E1200000E12005750D8B402D0010E78
:100D26001200000E1200886F0501885111EC05F0C3
:100D36001200940E00017F6F400E7D6F1200076E49
:100D4600B6A2FED707C5B6F2120005017E6F7EC5B4
:100D5600FBF31200010EE86FFC9DFC9B12000001E4
:100D6600E86BFC9DFC9B120049C519F348C518F3B6
:100D76001200EFC57EF57E5112003B0E0301EC6FAB
:100D86001200010E0901006F1200E608075719014B
:010D9600015B
:100D98000A0E4F6E1200080E4F6E1200030E4F6EB1
:100DA8001200D8EC06F012000301308F1200030184
:100DB8002A811200070168871200E4EC06F012008D
:100DC800E86BFC8D120008EC07F012000301368175
:100DD8001200F0EC06F012000301248F1200030148
:100DE8001E81120003011A8F12006CEC04F012002D
:100DF80007016897120032EC04F01200578D1200B8
:100E08004F6A1200000E12003C8F1200BD901100B4
:100E1800C19E1200BF821200BF821200BF82120060
:030E2800EE0820B1
:100E2C001100120012001200120012001200120027
:080E3C00120012001200120066
:10CE38000000C0C101C30302C2C60607C705C5C4B6
:10CE480004CC0C0DCD0FCFCE0E0ACACB0BC90908E6
:10CE5800C8D81819D91BDBDA1A1EDEDF1FDD1D1C26
:10CE6800DC14D4D515D71716D6D21213D311D1D0B6
:10CE780010F03031F133F3F23236F6F737F5353456
:10CE8800F43CFCFD3DFF3F3EFEFA3A3BFB39F9F826
:10CE98003828E8E929EB2B2AEAEE2E2FEF2DEDECC6
:10CEA8002CE42425E527E7E62622E2E323E12120F6
:10CEB800E0A06061A163A3A26266A6A767A56564F6
:10CEC800A46CACAD6DAF6F6EAEAA6A6BAB69A9A866
:10CED8006878B8B979BB7B7ABABE7E7FBF7DBDBCA6
:10CEE8007CB47475B577B7B67672B2B373B1717036
:10CEF800B050909151935352929656579755959496
:10CF0800549C5C5D9D5F9F9E5E5A9A9B5B995958A5
:10CF180098884849894B8B8A4A4E8E8F4F8D4D4C45
:10CF28008C44848545874746868242438341818075
:10CF38004000C1814001C0804101C0804100C181E1
:10CF48004001C0804100C1814000C1814001C080D2
:10CF58004101C0804100C1814000C1814001C080C1
:10CF68004100C1814001C0804101C0804100C181B0
:10CF78004001C0804100C1814000C1814001C080A2
:10CF88004100C1814001C0804101C0804100C18190
:10CF98004000C1814001C0804101C0804100C18181
:10CFA8004001C0804100C1814000C1814001C08072
:10CFB8004101C0804100C1814000C1814001C08061
:10CFC8004100C1814001C0804101C0804100C18150
:10CFD8004000C1814001C0804101C0804100C18141
:10CFE8004001C0804100C1814000C1814001C08032
:10CFF8004100C1814001C0804101C0804100C18120
:10D008004001C0804100C1814000C1814001C08011
:10D018004101C0804100C1814000C1814001C08000
:10D028004100C1814001C0804101C0804100C181EF
:10D038004000C0C101C30302C2C60607C705C5C474
:10D0480004CC0C0DCD0FCFCE0E0ACACB0BC90908E4
:10D05800C8D81819D91BDBDA1A1EDEDF1FDD1D1C24
:10D06800DC14D4D515D71716D6D21213D311D1D0B4
:10D0780010F03031F133F3F23236F6F737F5353454
:10D08800F43CFCFD3DFF3F3EFEFA3A3BFB39F9F824
:10D098003828E8E929EB2B2AEAEE2E2FEF2DEDECC4
:10D0A8002CE42425E527E7E62622E2E323E12120F4
:10D0B800E0A06061A163A3A26266A6A767A56564F4
:10D0C800A46CACAD6DAF6F6EAEAA6A6BAB69A9A864
:10D0D8006878B8B979BB7B7ABABE7E7FBF7DBDBCA4
:10D0E8007CB47475B577B7B67672B2B373B1717034
:10D0F800B050909151935352929656579755959494
:10D10800549C5C5D9D5F9F9E5E5A9A9B5B995958A3
:10D1180098884849894B8B8A4A4E8E8F4F8D4D4C43
:10D128008C44848545874746868242438341818073
:10D138004000C1814001C0804101C0804100C181DF
:10D148004001C0804100C1814000C1814001C080D0
:10D158004101C0804100C1814000C1814001C080BF
:10D168004100C1814001C0804101C0804100C181AE
:10D178004001C0804100C1814000C1814001C080A0
:10D188004100C1814001C0804101C0804100C1818E
:10D198004000C1814001C0804101C0804100C1817F
:10D1A8004001C0804100C1814000C1814001C08070
:10D1B8004101C0804100C1814000C1814001C0805F
:10D1C8004100C1814001C0804101C0804100C1814E
:10D1D8004000C1814001C0804101C0804100C1813F
:10D1E8004001C0804100C1814000C1814001C08030
:10D1F8004100C1814001C0804101C0804100C1811E
:10D208004001C0804100C1814000C1814001C0800F
:10D218004101C0804100C1814000C1814001C080FE
:10D228004100C1814001C0804101C0804100C181ED
:10D238004000C0C101C30302C2C60607C705C5C472
:10D2480004CC0C0DCD0FCFCE0E0ACACB0BC90908E2
:10D25800C8D81819D91BDBDA1A1EDEDF1FDD1D1C22
:10D26800DC14D4D515D71716D6D21213D311D1D0B2
:10D2780010F03031F133F3F23236F6F737F5353452
:10D28800F43CFCFD3DFF3F3EFEFA3A3BFB39F9F822
:10D298003828E8E929EB2B2AEAEE2E2FEF2DEDECC2
:10D2A8002CE42425E527E7E62622E2E323E12120F2
:10D2B800E0A06061A163A3A26266A6A767A56564F2
:10D2C800A46CACAD6DAF6F6EAEAA6A6BAB69A9A862
:10D2D8006878B8B979BB7B7ABABE7E7FBF7DBDBCA2
:10D2E8007CB47475B577B7B67672B2B373B1717032
:10D2F800B050909151935352929656579755959492
:10D30800549C5C5D9D5F9F9E5E5A9A9B5B995958A1
:10D3180098884849894B8B8A4A4E8E8F4F8D4D4C41
:10D328008C44848545874746868242438341818071
:10D338004000C1814001C0804101C0804100C181DD
:10D348004001C0804100C1814000C1814001C080CE
:10D358004101C0804100C1814000C1814001C080BD
:10D368004100C1814001C0804101C0804100C181AC
:10D378004001C0804100C1814000C1814001C0809E
:10D388004100C1814001C0804101C0804100C1818C
:10D398004000C1814001C0804101C0804100C1817D
:10D3A8004001C0804100C1814000C1814001C0806E
:10D3B8004101C0804100C1814000C1814001C0805D
:10D3C8004100C1814001C0804101C0804100C1814C
:10D3D8004000C1814001C0804101C0804100C1813D
:10D3E8004001C0804100C1814000C1814001C0802E
:10D3F8004100C1814001C0804101C0804100C1811C
:10D408004001C0804100C1814000C1814001C0800D
:10D418004101C0804100C1814000C1814001C080FC
:10D428004100C1814001C0804101C0804100C181EB
:10D438004000C0C101C30302C2C60607C705C5C470
:10D4480004CC0C0DCD0FCFCE0E0ACACB0BC90908E0
:10D45800C8D81819D91BDBDA1A1EDEDF1FDD1D1C20
:10D46800DC14D4D515D71716D6D21213D311D1D0B0
:10D4780010F03031F133F3F23236F6F737F5353450
:10D48800F43CFCFD3DFF3F3EFEFA3A3BFB39F9F820
:10D498003828E8E929EB2B2AEAEE2E2FEF2DEDECC0
:10D4A8002CE42425E527E7E62622E2E323E12120F0
:10D4B800E0A06061A163A3A26266A6A767A56564F0
:10D4C800A46CACAD6DAF6F6EAEAA6A6BAB69A9A860
:10D4D8006878B8B979BB7B7ABABE7E7FBF7DBDBCA0
:10D4E8007CB47475B577B7B67672B2B373B1717030
:10D4F800B050909151935352929656579755959490
:10D50800549C5C5D9D5F9F9E5E5A9A9B5B9959589F
:10D5180098884849894B8B8A4A4E8E8F4F8D4D4C3F
:10D528008C4484854587474686824243834181806F
:10D538004000C1814001C0804101C0804100C181DB
:10D548004001C0804100C1814000C1814001C080CC
:10D558004101C0804100C1814000C1814001C080BB
:10D568004100C1814001C0804101C0804100C181AA
:10D578004001C0804100C1814000C1814001C0809C
:10D588004100C1814001C0804101C0804100C1818A
:10D598004000C1814001C0804101C0804100C1817B
:10D5A8004001C0804100C1814000C1814001C0806C
:10D5B8004101C0804100C1814000C1814001C0805B
:10D5C8004100C1814001C0804101C0804100C1814A
:10D5D8004000C1814001C0804101C0804100C1813B
:10D5E8004001C0804100C1814000C1814001C0802C
:10D5F8004100C1814001C0804101C0804100C1811A
:10D608004001C0804100C1814000C1814001C0800B
:10D618004101C0804100C1814000C1814001C080FA
:10D628004100C1814001C0804101C0804100C181E9
:10D638004000C0C101C30302C2C60607C705C5C46E
:10D6480004CC0C0DCD0FCFCE0E0ACACB0BC90908DE
:10D65800C8D81819D91BDBDA1A1EDEDF1FDD1D1C1E
:10D66800DC14D4D515D71716D6D21213D311D1D0AE
:10D6780010F03031F133F3F23236F6F737F535344E
:10D68800F43CFCFD3DFF3F3EFEFA3A3BFB39F9F81E
:10D698003828E8E929EB2B2AEAEE2E2FEF2DEDECBE
:10D6A8002CE42425E527E7E62622E2E323E12120EE
:10D6B800E0A06061A163A3A26266A6A767A56564EE
:10D6C800A46CACAD6DAF6F6EAEAA6A6BAB69A9A85E
:10D6D8006878B8B979BB7B7ABABE7E7FBF7DBDBC9E
:10D6E8007CB47475B577B7B67672B2B373B171702E
:10D6F800B05090915193535292965657975595948E
:10D70800549C5C5D9D5F9F9E5E5A9A9B5B9959589D
:10D7180098884849894B8B8A4A4E8E8F4F8D4D4C3D
:10D728008C4484854587474686824243834181806D
:10D738004000C1814001C0804101C0804100C181D9
:10D748004001C0804100C1814000C1814001C080CA
:10D758004101C0804100C1814000C1814001C080B9
:10D768004100C1814001C0804101C0804100C181A8
:10D778004001C0804100C1814000C1814001C0809A
:10D788004100C1814001C0804101C0804100C18188
:10D798004000C1814001C0804101C0804100C18179
:10D7A8004001C0804100C1814000C1814001C0806A
:10D7B8004101C0804100C1814000C1814001C08059
:10D7C8004100C1814001C0804101C0804100C18148
:10D7D8004000C1814001C0804101C0804100C18139
:10D7E8004001C0804100C1814000C1814001C0802A
:10D7F8004100C1814001C0804101C0804100C18118
:10D808004001C0804100C1814000C1814001C08009
:10D818004101C0804100C1814000C1814001C080F8
:10D828004100C1814001C0804101C0804100C181E7
:10D838004000C0C101C30302C2C60607C705C5C46C
:10D8480004CC0C0DCD0FCFCE0E0ACACB0BC90908DC
:10D85800C8D81819D91BDBDA1A1EDEDF1FDD1D1C1C
:10D86800DC14D4D515D71716D6D21213D311D1D0AC
:10D8780010F03031F133F3F23236F6F737F535344C
:10D88800F43CFCFD3DFF3F3EFEFA3A3BFB39F9F81C
:10D898003828E8E929EB2B2AEAEE2E2FEF2DEDECBC
:10D8A8002CE42425E527E7E62622E2E323E12120EC
:10D8B800E0A06061A163A3A26266A6A767A56564EC
:10D8C800A46CACAD6DAF6F6EAEAA6A6BAB69A9A85C
:10D8D8006878B8B979BB7B7ABABE7E7FBF7DBDBC9C
:10D8E8007CB47475B577B7B67672B2B373B171702C
:10D8F800B05090915193535292965657975595948C
:10D90800549C5C5D9D5F9F9E5E5A9A9B5B9959589B
:10D9180098884849894B8B8A4A4E8E8F4F8D4D4C3B
:10D928008C4484854587474686824243834181806B
:10D938004000C1814001C0804101C0804100C181D7
:10D948004001C0804100C1814000C1814001C080C8
:10D958004101C0804100C1814000C1814001C080B7
:10D968004100C1814001C0804101C0804100C181A6
:10D978004001C0804100C1814000C1814001C08098
:10D988004100C1814001C0804101C0804100C18186
:10D998004000C1814001C0804101C0804100C18177
:10D9A8004001C0804100C1814000C1814001C08068
:10D9B8004101C0804100C1814000C1814001C08057
:10D9C8004100C1814001C0804101C0804100C18146
:10D9D8004000C1814001C0804101C0804100C18137
:10D9E8004001C0804100C1814000C1814001C08028
:10D9F8004100C1814001C0804101C0804100C18116
:10DA08004001C0804100C1814000C1814001C08007
:10DA18004101C0804100C1814000C1814001C080F6
:10DA28004100C1814001C0804101C0804100C181E5
:10DA38004000C0C101C30302C2C60607C705C5C46A
:10DA480004CC0C0DCD0FCFCE0E0ACACB0BC90908DA
:10DA5800C8D81819D91BDBDA1A1EDEDF1FDD1D1C1A
:10DA6800DC14D4D515D71716D6D21213D311D1D0AA
:10DA780010F03031F133F3F23236F6F737F535344A
:10DA8800F43CFCFD3DFF3F3EFEFA3A3BFB39F9F81A
:10DA98003828E8E929EB2B2AEAEE2E2FEF2DEDECBA
:10DAA8002CE42425E527E7E62622E2E323E12120EA
:10DAB800E0A06061A163A3A26266A6A767A56564EA
:10DAC800A46CACAD6DAF6F6EAEAA6A6BAB69A9A85A
:10DAD8006878B8B979BB7B7ABABE7E7FBF7DBDBC9A
:10DAE8007CB47475B577B7B67672B2B373B171702A
:10DAF800B05090915193535292965657975595948A
:10DB0800549C5C5D9D5F9F9E5E5A9A9B5B99595899
:10DB180098884849894B8B8A4A4E8E8F4F8D4D4C39
:10DB28008C44848545874746868242438341818069
:10DB38004000C1814001C0804101C0804100C181D5
:10DB48004001C0804100C1814000C1814001C080C6
:10DB58004101C0804100C1814000C1814001C080B5
:10DB68004100C1814001C0804101C0804100C181A4
:10DB78004001C0804100C1814000C1814001C08096
:10DB88004100C1814001C0804101C0804100C18184
:10DB98004000C1814001C0804101C0804100C18175
:10DBA8004001C0804100C1814000C1814001C08066
:10DBB8004101C0804100C1814000C1814001C08055
:10DBC8004100C1814001C0804101C0804100C18144
:10DBD8004000C1814001C0804101C0804100C18135
:10DBE8004001C0804100C1814000C1814001C08026
:10DBF8004100C1814001C0804101C0804100C18114
:10DC08004001C0804100C1814000C1814001C08005
:10DC18004101C0804100C1814000C1814001C080F4
:10DC28004100C1814001C0804101C0804100C181E3
:10DC38004000C0C101C30302C2C60607C705C5C468
:10DC480004CC0C0DCD0FCFCE0E0ACACB0BC90908D8
:10DC5800C8D81819D91BDBDA1A1EDEDF1FDD1D1C18
:10DC6800DC14D4D515D71716D6D21213D311D1D0A8
:10DC780010F03031F133F3F23236F6F737F5353448
:10DC8800F43CFCFD3DFF3F3EFEFA3A3BFB39F9F818
:10DC98003828E8E929EB2B2AEAEE2E2FEF2DEDECB8
:10DCA8002CE42425E527E7E62622E2E323E12120E8
:10DCB800E0A06061A163A3A26266A6A767A56564E8
:10DCC800A46CACAD6DAF6F6EAEAA6A6BAB69A9A858
:10DCD8006878B8B979BB7B7ABABE7E7FBF7DBDBC98
:10DCE8007CB47475B577B7B67672B2B373B1717028
:10DCF800B050909151935352929656579755959488
:10DD0800549C5C5D9D5F9F9E5E5A9A9B5B99595897
:10DD180098884849894B8B8A4A4E8E8F4F8D4D4C37
:10DD28008C44848545874746868242438341818067
:10DD38004000C1814001C0804101C0804100C181D3
:10DD48004001C0804100C1814000C1814001C080C4
:10DD58004101C0804100C1814000C1814001C080B3
:10DD68004100C1814001C0804101C0804100C181A2
:10DD78004001C0804100C1814000C1814001C08094
:10DD88004100C1814001C0804101C0804100C18182
:10DD98004000C1814001C0804101C0804100C18173
:10DDA8004001C0804100C1814000C1814001C08064
:10DDB8004101C0804100C1814000C1814001C08053
:10DDC8004100C1814001C0804101C0804100C18142
:10DDD8004000C1814001C0804101C0804100C18133
:10DDE8004001C0804100C1814000C1814001C08024
:10DDF8004100C1814001C0804101C0804100C18112
:10DE08004001C0804100C1814000C1814001C08003
:10DE18004101C0804100C1814000C1814001C080F2
:10DE28004100C1814001C0804101C0804100C181E1
:10DE38004000C0C101C30302C2C60607C705C5C466
:10DE480004CC0C0DCD0FCFCE0E0ACACB0BC90908D6
:10DE5800C8D81819D91BDBDA1A1EDEDF1FDD1D1C16
:10DE6800DC14D4D515D71716D6D21213D311D1D0A6
:10DE780010F03031F133F3F23236F6F737F5353446
:10DE8800F43CFCFD3DFF3F3EFEFA3A3BFB39F9F816
:10DE98003828E8E929EB2B2AEAEE2E2FEF2DEDECB6
:10DEA8002CE42425E527E7E62622E2E323E12120E6
:10DEB800E0A06061A163A3A26266A6A767A56564E6
:10DEC800A46CACAD6DAF6F6EAEAA6A6BAB69A9A856
:10DED8006878B8B979BB7B7ABABE7E7FBF7DBDBC96
:10DEE8007CB47475B577B7B67672B2B373B1717026
:10DEF800B050909151935352929656579755959486
:10DF0800549C5C5D9D5F9F9E5E5A9A9B5B99595895
:10DF180098884849894B8B8A4A4E8E8F4F8D4D4C35
:10DF28008C44848545874746868242438341818065
:10DF38004000C1814001C0804101C0804100C181D1
:10DF48004001C0804100C1814000C1814001C080C2
:10DF58004101C0804100C1814000C1814001C080B1
:10DF68004100C1814001C0804101C0804100C181A0
:10DF78004001C0804100C1814000C1814001C08092
:10DF88004100C1814001C0804101C0804100C18180
:10DF98004000C1814001C0804101C0804100C18171
:10DFA8004001C0804100C1814000C1814001C08062
:10DFB8004101C0804100C1814000C1814001C08051
:10DFC8004100C1814001C0804101C0804100C18140
:10DFD8004000C1814001C0804101C0804100C18131
:10DFE8004001C0804100C1814000C1814001C08022
:10DFF8004100C1814001C0804101C0804100C18110
:10E008004001C0804100C1814000C1814001C08001
:10E018004101C0804100C1814000C1814001C080F0
:10E028004100C1814001C0804101C0804100C181DF
:10E038004000C0C101C30302C2C60607C705C5C464
:10E0480004CC0C0DCD0FCFCE0E0ACACB0BC90908D4
:10E05800C8D81819D91BDBDA1A1EDEDF1FDD1D1C14
:10E06800DC14D4D515D71716D6D21213D311D1D0A4
:10E0780010F03031F133F3F23236F6F737F5353444
:10E08800F43CFCFD3DFF3F3EFEFA3A3BFB39F9F814
:10E098003828E8E929EB2B2AEAEE2E2FEF2DEDECB4
:10E0A8002CE42425E527E7E62622E2E323E12120E4
:10E0B800E0A06061A163A3A26266A6A767A56564E4
:10E0C800A46CACAD6DAF6F6EAEAA6A6BAB69A9A854
:10E0D8006878B8B979BB7B7ABABE7E7FBF7DBDBC94
:10E0E8007CB47475B577B7B67672B2B373B1717024
:10E0F800B050909151935352929656579755959484
:10E10800549C5C5D9D5F9F9E5E5A9A9B5B99595893
:10E1180098884849894B8B8A4A4E8E8F4F8D4D4C33
:10E128008C44848545874746868242438341818063
:10E138004000C1814001C0804101C0804100C181CF
:10E148004001C0804100C1814000C1814001C080C0
:10E158004101C0804100C1814000C1814001C080AF
:10E168004100C1814001C0804101C0804100C1819E
:10E178004001C0804100C1814000C1814001C08090
:10E188004100C1814001C0804101C0804100C1817E
:10E198004000C1814001C0804101C0804100C1816F
:10E1A8004001C0804100C1814000C1814001C08060
:10E1B8004101C0804100C1814000C1814001C0804F
:10E1C8004100C1814001C0804101C0804100C1813E
:10E1D8004000C1814001C0804101C0804100C1812F
:10E1E8004001C0804100C1814000C1814001C08020
:10E1F8004100C1814001C0804101C0804100C1810E
:10E208004001C0804100C1814000C1814001C080FF
:10E218004101C0804100C1814000C1814001C080EE
:10E228004100C1814001C0804101C0804100C181DD
:10E238004000C0C101C30302C2C60607C705C5C462
:10E2480004CC0C0DCD0FCFCE0E0ACACB0BC90908D2
:10E25800C8D81819D91BDBDA1A1EDEDF1FDD1D1C12
:10E26800DC14D4D515D71716D6D21213D311D1D0A2
:10E2780010F03031F133F3F23236F6F737F5353442
:10E28800F43CFCFD3DFF3F3EFEFA3A3BFB39F9F812
:10E298003828E8E929EB2B2AEAEE2E2FEF2DEDECB2
:10E2A8002CE42425E527E7E62622E2E323E12120E2
:10E2B800E0A06061A163A3A26266A6A767A56564E2
:10E2C800A46CACAD6DAF6F6EAEAA6A6BAB69A9A852
:10E2D8006878B8B979BB7B7ABABE7E7FBF7DBDBC92
:10E2E8007CB47475B577B7B67672B2B373B1717022
:10E2F800B050909151935352929656579755959482
:10E30800549C5C5D9D5F9F9E5E5A9A9B5B99595891
:10E3180098884849894B8B8A4A4E8E8F4F8D4D4C31
:10E328008C44848545874746868242438341818061
:10E338004000C1814001C0804101C0804100C181CD
:10E348004001C0804100C1814000C1814001C080BE
:10E358004101C0804100C1814000C1814001C080AD
:10E368004100C1814001C0804101C0804100C1819C
:10E378004001C0804100C1814000C1814001C0808E
:10E388004100C1814001C0804101C0804100C1817C
:10E398004000C1814001C0804101C0804100C1816D
:10E3A8004001C0804100C1814000C1814001C0805E
:10E3B8004101C0804100C1814000C1814001C0804D
:10E3C8004100C1814001C0804101C0804100C1813C
:10E3D8004000C1814001C0804101C0804100C1812D
:10E3E8004001C0804100C1814000C1814001C0801E
:10E3F8004100C1814001C0804101C0804100C1810C
:10E408004001C0804100C1814000C1814001C080FD
:10E418004101C0804100C1814000C1814001C080EC
:10E428004100C1814001C0804101C0804100C181DB
:10E438004000C0C101C30302C2C60607C705C5C460
:10E4480004CC0C0DCD0FCFCE0E0ACACB0BC90908D0
:10E45800C8D81819D91BDBDA1A1EDEDF1FDD1D1C10
:10E46800DC14D4D515D71716D6D21213D311D1D0A0
:10E4780010F03031F133F3F23236F6F737F5353440
:10E48800F43CFCFD3DFF3F3EFEFA3A3BFB39F9F810
:10E498003828E8E929EB2B2AEAEE2E2FEF2DEDECB0
:10E4A8002CE42425E527E7E62622E2E323E12120E0
:10E4B800E0A06061A163A3A26266A6A767A56564E0
:10E4C800A46CACAD6DAF6F6EAEAA6A6BAB69A9A850
:10E4D8006878B8B979BB7B7ABABE7E7FBF7DBDBC90
:10E4E8007CB47475B577B7B67672B2B373B1717020
:10E4F800B050909151935352929656579755959480
:10E50800549C5C5D9D5F9F9E5E5A9A9B5B9959588F
:10E5180098884849894B8B8A4A4E8E8F4F8D4D4C2F
:10E528008C4484854587474686824243834181805F
:10E538004000C1814001C0804101C0804100C181CB
:10E548004001C0804100C1814000C1814001C080BC
:10E558004101C0804100C1814000C1814001C080AB
:10E568004100C1814001C0804101C0804100C1819A
:10E578004001C0804100C1814000C1814001C0808C
:10E588004100C1814001C0804101C0804100C1817A
:10E598004000C1814001C0804101C0804100C1816B
:10E5A8004001C0804100C1814000C1814001C0805C
:10E5B8004101C0804100C1814000C1814001C0804B
:10E5C8004100C1814001C0804101C0804100C1813A
:10E5D8004000C1814001C0804101C0804100C1812B
:10E5E8004001C0804100C1814000C1814001C0801C
:10E5F8004100C1814001C0804101C0804100C1810A
:10E608004001C0804100C1814000C1814001C080FB
:10E618004101C0804100C1814000C1814001C080EA
:10E628004100C1814001C0804101C0804100C181D9
:10E638004000C0C101C30302C2C60607C705C5C45E
:10E6480004CC0C0DCD0FCFCE0E0ACACB0BC90908CE
:10E65800C8D81819D91BDBDA1A1EDEDF1FDD1D1C0E
:10E66800DC14D4D515D71716D6D21213D311D1D09E
:10E6780010F03031F133F3F23236F6F737F535343E
:10E68800F43CFCFD3DFF3F3EFEFA3A3BFB39F9F80E
:10E698003828E8E929EB2B2AEAEE2E2FEF2DEDECAE
:10E6A8002CE42425E527E7E62622E2E323E12120DE
:10E6B800E0A06061A163A3A26266A6A767A56564DE
:10E6C800A46CACAD6DAF6F6EAEAA6A6BAB69A9A84E
:10E6D8006878B8B979BB7B7ABABE7E7FBF7DBDBC8E
:10E6E8007CB47475B577B7B67672B2B373B171701E
:10E6F800B05090915193535292965657975595947E
:10E70800549C5C5D9D5F9F9E5E5A9A9B5B9959588D
:10E7180098884849894B8B8A4A4E8E8F4F8D4D4C2D
:10E728008C4484854587474686824243834181805D
:10E738004000C1814001C0804101C0804100C181C9
:10E748004001C0804100C1814000C1814001C080BA
:10E758004101C0804100C1814000C1814001C080A9
:10E768004100C1814001C0804101C0804100C18198
:10E778004001C0804100C1814000C1814001C0808A
:10E788004100C1814001C0804101C0804100C18178
:10E798004000C1814001C0804101C0804100C18169
:10E7A8004001C0804100C1814000C1814001C0805A
:10E7B8004101C0804100C1814000C1814001C08049
:10E7C8004100C1814001C0804101C0804100C18138
:10E7D8004000C1814001C0804101C0804100C18129
:10E7E8004001C0804100C1814000C1814001C0801A
:10E7F8004100C1814001C0804101C0804100C18108
:10E808004001C0804100C1814000C1814001C080F9
:10E818004101C0804100C1814000C1814001C080E8
:10E828004100C1814001C0804101C0804100C181D7
:10E838004000C0C101C30302C2C60607C705C5C45C
:10E8480004CC0C0DCD0FCFCE0E0ACACB0BC90908CC
:10E85800C8D81819D91BDBDA1A1EDEDF1FDD1D1C0C
:10E86800DC14D4D515D71716D6D21213D311D1D09C
:10E8780010F03031F133F3F23236F6F737F535343C
:10E88800F43CFCFD3DFF3F3EFEFA3A3BFB39F9F80C
:10E898003828E8E929EB2B2AEAEE2E2FEF2DEDECAC
:10E8A8002CE42425E527E7E62622E2E323E12120DC
:10E8B800E0A06061A163A3A26266A6A767A56564DC
:10E8C800A46CACAD6DAF6F6EAEAA6A6BAB69A9A84C
:10E8D8006878B8B979BB7B7ABABE7E7FBF7DBDBC8C
:10E8E8007CB47475B577B7B67672B2B373B171701C
:10E8F800B05090915193535292965657975595947C
:10E90800549C5C5D9D5F9F9E5E5A9A9B5B9959588B
:10E9180098884849894B8B8A4A4E8E8F4F8D4D4C2B
:10E928008C4484854587474686824243834181805B
:10E938004000C1814001C0804101C0804100C181C7
:10E948004001C0804100C1814000C1814001C080B8
:10E958004101C0804100C1814000C1814001C080A7
:10E968004100C1814001C0804101C0804100C18196
:10E978004001C0804100C1814000C1814001C08088
:10E988004100C1814001C0804101C0804100C18176
:10E998004000C1814001C0804101C0804100C18167
:10E9A8004001C0804100C1814000C1814001C08058
:10E9B8004101C0804100C1814000C1814001C08047
:10E9C8004100C1814001C0804101C0804100C18136
:10E9D8004000C1814001C0804101C0804100C18127
:10E9E8004001C0804100C1814000C1814001C08018
:10E9F8004100C1814001C0804101C0804100C18106
:10EA08004001C0804100C1814000C1814001C080F7
:10EA18004101C0804100C1814000C1814001C080E6
:10EA28004100C1814001C0804101C0804100C181D5
:10EA3800400103000000000000000000000000008A
:10EA480000000000000000000000000000000000BE
:10EA580000000000000000000000000000000000AE
:10EA6800000000000000000000000000000000009E
:10EA7800000000000000000000000000000000008E
:10EA8800000000000000000000000000000000007E
:10EA9800000000000000000000000000000000006E
:10EAA800000000000000000000000000000000005E
:10EAB800000000000000000000000000000000004E
:10EAC8000000000000000000000002030000000039
:10EAD800000000000000000000000000000000002E
:10EAE800000000000000000000000000000000001E
:10EAF800000000000000000000000000000000000E
:10EB080000000000000000000000000000000000FD
:10EB180000000000000000000000000000000000ED
:10EB280000000000000000000000000000000000DD
:10EB380000000000000000000000000000000000CD
:10EB480000000000000000000000000000000002BB
:10EB580003000000000000000000000000000000AA
:10EB6800000000000000000000000000000000009D
:10EB7800000000000000000000000000000000008D
:10EB8800000000000000000000000000000000007D
:10EB9800000000000000000000000000000000006D
:10EBA800000000000000000000000000000000005D
:10EBB800000000000000000000000000000000004D
:10EBC800000000000000000000000000000000003D
:10EBD8000000000001030000000000000000000029
:10EBE800000000000000000000000000000000001D
:10EBF800000000000000000000000000000000000D
:10EC080000000000000000000000000000000000FC
:10EC180000000000000000000000000000000000EC
:10EC280000000000000000000000000000000000DC
:10EC380000000000000000000000000000000000CC
:10EC480000000000000000000000000000000000BC
:10EC580000000000000000000001030000000000A8
:10EC6800000000000000000000000000000000009C
:10EC7800000000000000000000000000000000008C
:10EC8800000000000000000000000000000000007C
:10EC9800000000000000000000000000000000006C
:10ECA800000000000000000000000000000000005C
:10ECB800000000000000000000000000000000004C
:10ECC8000000000000000AD7233CCDCCCC3DCDCCC1
:10ECD8004C3E9A99993E0000003F9A99193F666602
:10ECE800263F3333333F6666663FA4707D3F00009E
:10ECF800803F0000803F0000A0410000C841CDCC0B
:10ED0800C8416666CA410000CC416666CE41000033
:10ED1800D0419A99D141CDCCD4416666D6419A99D1
:10ED2800D94100000C42257320256420257320203A
:10ED380020202020202020202020202020202020CB
:10ED480020202020202020202020202020202020BB
:10ED580020202020004F4E4C494E45204125642C50
:10ED68002052256420524625642C205425642054C2
:10ED78004625642C20432564202564202573202003
:10ED880020202000486F7374204125642C205225D0
:10ED98006420524625642C2054256420544625645A
:10EDA8002C20432564202564202573202020202042
:10EDB800202000554E4B20464F524D4154204125AE
:10EDC800642C2052256420524625642C2054256446
:10EDD80020544625642C20432564202573202020B8
:10EDE800002573202573202020202020202020208B
:10EDF800202020202020202020202020202020200B
:10EE080020202020202020202020200025732025BD
:10EE18007320202020202020202020202020202097
:10EE280020202020202020202020202020202020DA
:10EE38002020200001030000000000000000000066
:10EE480000000000000000000000000000000000BA
:10EE5800000000000056332E303120464D78302017
:10EE6800696E7465726661636520513834004F6657
:10EE7800666C696E65000000000043414E425553C0
:10EE88000000000000000103000000000000000076
:10EE98000000000000000000000000000103000066
:10EEA80000D600000001000000DA000001030000A5
:10EEB80000D600000000000000D9001F1E1F1E1F02
:10EEC8001F1E1F1E1F1F1D000300040001C41A017E
:10EED800060000000000000106000000000000011C
:10EEE800060000000000000103000000000001030C
:10EEF80000000000008320030400002405000183B3
:10EF08002403040000008841CD0C0543E56121403D
:10EF1800000000000000804500008841CD0C05433A
:10EF2800E5612140008080420080804200000000AE
:10EF38000000804500008841CD0C0543E561214073
:10EF48000080804200808042000000000000804570
:10EF580000008841CD0C0543E561214000808042D6
:10EF6800008080420000000000008045BC000000D6
:10EF7800BA7FFFFEC800800034000000000088410E
:10EF8800CD0C0543E561214000808042008080422D
:10EF9800000000000000804500008841CD0C0543BA
:10EFA800E56121400080804200808042000000002E
:10EFB8000000804500008841CD0C0543E5612140F3
:10EFC80000808042008080420000000000008045F0
:10EFD80000008841CD0C0543E56121400080804256
:10EFE8000080804200000000000080450000884149
:10EFF800CD0C0543E56121400080804200808042BD
:10F00800000000000000804500008841CD0C054349
:10F01800E5612140008080420080804200000000BD
:10F02800000080450000884100008045180000026B
:10F03800008813040002002800B004020002000344
:10F048000002008813040002002800B00402000235
:10F05800000300B004DC05F40164004006600910F8
:10F0680027B80B3075059904990399B004DC05F4A9
:10F07800016400400660091027B80B05990499033C
:10F0880099B004DC05F4016400400660091027B853
:10F098000B059904990399B004DC05F40164004058
:10F0A8000660091027B80B059904990399B004DC88
:10F0B80005F4016400400660091027B80B0599049F
:10F0C800990399B004DC05F4016400400660091056
:10F0D80027B80BB004DC05F4016400400660091091
:10F0E80027B80B059904990399B004DC05F4016469
:10F0F80000400660091027B80BB004DC05F4016471
:10F1080000400660091027B80B307505990499036B
:10F1180099B004DC05F4016400400660091027B8C2
:10F128000B02008813040002002800B00402000249
:10F138000003003075E8FF3C00230005990499039B
:10F1480099B004DC05F4016400400660091027B892
:10F158000BFF000228040228C80102FF000228044D
:10F168000228C8010206465A2D01204601FF000266
:10F1780028040228C80102FF000228040228C80146
:10F18800028003C801070707070707070D050440A2
:10F19800400FF001050F67FF4010F0E0D0C0B0A0AD
:10F1A80090800006465A2D01204601FF00022804DF
:10F1B8000228C80102070707070707070D050440CB
:10F1C800400FF001050F67FF4010F0E0D0C0B0A07D
:10F1D80090800006465A2D01204601FF00022804AF
:10F1E8000228C80102070707070707070D0504409B
:10F1F800400FF001050F67FF4010F0E0D0C0B0A04D
:10F2080090800006465A2D01204601FF000228047E
:10F218000228C80102070707070707070D0504406A
:10F22800400FF001050F67FF4010F0E0D0C0B0A01C
:10F2380090800006465A2D01204601FF000228044E
:10F248000228C80102070707070707070D0504403A
:10F25800400FF001050F67FF4010F0E0D0C0B0A0EC
:10F2680090800006465A2D01204601FF000228041E
:10F278000228C8010206465A2D01204601FF000255
:10F2880028040228C80102070707070707070D0512
:10F298000440400FF001050F67FF4010F0E0D0C0B8
:10F2A800B0A090800006465A2D01204601FF0002BA
:10F2B80028040228C8010206465A2D01204601FFEB
:10F2C800000228040228C801028003C801070707B2
:10F2D800070707070D050440400FF001050F67FFFA
:10F2E8004010F0E0D0C0B0A090800006465A2D0132
:10F2F800204601FF000228040228C801028003C832
:10F3080001070707070707070D050440400FF0012D
:10F31800050F67FF4010F0E0D0C0B0A09080000655
:10F32800465A2D01204601FF000228040228C80180
:10F33800025E2C25642C25332E32662C25332E3282
:10F34800662C25332E32662C25332E32662C253337
:10F358002E32662C25332E32662C25332E32662C1F
:10F3680025332E32662C25642E253031642C2564F5
:10F378002E253031642C25642E253031642C2564EB
:10F388002C25642C25642C25642C25642C256C6C78
:10F39800752C25372E34662C25372E34662C2536C9
:10F3A8002E34662C25372E34662C313935372C7E91
:10F3B800454F5420202020202020202020202020BD
:10F3C8002020202020202020202020202020202035
:10F3D8002020202020202020202020202020202025
:10F3E80020202020200D0A005E2C25642C25332E99
:10F3F80032662C25332E32662C25332E32662C2588
:10F40800332E32662C25332E32662C25332E326667
:10F418002C25332E32662C25332E32662C25642E6D
:10F42800253031642C25642E253031642C25642E3A
:10F43800253031642C25642C25642C25642C256406
:10F448002C25642C256C6C752C25372E34662C25C0
:10F45800372E34662C25362E34662C25372E346606
:10F468002C313935372C7E454F5420202020202040
:10F478002020202020202020202020202020202084
:10F488002020202020202020202020202020202074
:10F498002020202020202020202020200D0A005E6F
:10F4A8002C25642C25332E32662C25332E32662CDF
:10F4B80025332E32662C25332E32662C25332E32F8
:10F4C800662C25332E32662C25332E32662C2533B6
:10F4D8002E32662C25642E253031642C25642E2589
:10F4E8003031642C25642E253031642C25642C257C
:10F4F800642C25642C25642C25642C256C6C752CB7
:10F5080025362E34662C25362E34662C25362E3498
:10F51800662C25362E34662C313935372C7E454FEE
:10F52800542020202020202020202020202020209F
:10F5380020202020202020202020202020202020C3
:10F5480020202020202020202020202020202020B3
:10F558002020200D0A005E2C25642C25332E3266CF
:10F568002C25332E32662C25332E32662C25332E4D
:10F5780032662C25332E32662C25332E32662C2506
:10F58800332E32662C25332E32662C25642E2530F8
:10F5980031642C25642E253031642C25642E2530C9
:10F5A80031642C25642C25642C25642C25642C2599
:10F5B800642C256C6C752C25362E33662C25362E3E
:10F5C80033662C25362E33662C25362E33662C31A1
:10F5D8003935372C7E454F542020202020202020EC
:10F5E8002020202020202020202020202020202013
:10F5F8002020202020202020202020202020202003
:10F60800202020202020202020200D0A007C7C2F74
:10F618002F2D2D0000000000000000000000000059
:10F62800007C7C2F2F2D2D5C5C000000000000006A
:10F6380000000000004F4F4F4F4F4F2D2D5F5F2DA3
:10F6480000000000000000000076763C3C5E5E3E54
:10F658003E0000000000000000000000002E2E2ADE
:10F668002A7823782358587C7C2D2D000000000030
:10F67800002E2E6F6F4F4F6F6F00000000000000CC
:10F688000000000000536C65657000000000000079
:10F6980000466C6F61740000000000000042756C49
:10F6A8006B00000000000000004162736F7262008E
:10F6B8000000000000457175616C697A6500000002
:10F6C800004E2F412000000000000000004F666639
:10F6D8006C696E650000000000464D78300000003F
:10F6E80000000000000001030040000200000001CB
:10F6F80000000046000001020000000400000000B5
:10F7080000000006000001020000000300000000E5
:10F7180000000005000001020000000200000000D7
:10F7280000000004000001020000000000000000CA
:10F7380000000002000001020001006A0000000051
:10F748000000006D00000102000100C70000000079
:10F75800000000CA000001020000000800000000CC
:10F768000000000A00000102000100C600000000BD
:10F77800000000C9000001040000000100000000B2
:10F788000000000500000102000100C800000000A0
:10F79800000000CB00000102000000000000000093
:10F7A80000000002000110006600020400000000D2
:10F7B80075AD0110006300020400000000B592015D
:10F7C80010000C00020400000000F3FA020300001D
:10F7D800004002030000004001030078000E01030E
:10F7E8000048004A01061604000501061000000042
:10F7F8000106100200000103500000080103050083
:10F80800004001030000003401030302000101036A
:10F81800000B000100808042008080422DB28042AF
:10F8280039B480421FC58042CFB780429A995E4260
:10F8380066665E42E590584289C1584273488042E4
:10F84800C5608042FC898042FC89804200808042F9
:10F8580000808042B40000020400000002000001A1
:10F868000A000001C77FFFFFC57FFFFFB40010003B
:10F87800B77FFFFFB8000001C2000000E4000001EC
:10F88800CD0C0543E5612140008080420080804224
:10F89800000000000400000CFFFF0B000010FFFF39
:10F8A80040F7424D4320256C7520203058252E32D4
:10F8B8005820202020202020202020202020202008
:10F8C800202020202020202020202020202000254B
:10F8D800342E3266487A2025332E3266412025336D
:10F8E8002E30665720202020202020202020202075
:10F8F80020202020202020202020200025322E31EA
:10F90800664B576820666C6F61742025332E31660C
:10F918006820202020202020202020202020202097
:10F928002020202020202020000D2D2D2D2054497E
:10F93800433132343030204472697665722056651E
:10F948007273696F6E202573202573202573202D0F
:10F958002D2D0D0A000D2D2D2D204D433333393912
:10F9680036204472697665722056657273696F6EC7
:10F97800202573202573202573202D2D2D0D0A0099
:10F988004241542025642E2530316456205056209B
:10F9980025642E2530316456202020202020202068
:10F9A80020202020202020202000342025362E331F
:10F9B80066562C352025362E3366562020202020EA
:10F9C800202020202020202020202020202020202F
:10F9D8002000426D61782025755620426D696E20A1
:10F9E800257556202020202020202020202020207F
:10F9F80020202020202020202000424D4320256C5C
:10FA08007520202020202020202020202020202099
:10FA180020202020202020202020202020202020DE
:10FA2800004F4620256C752045525220256C7520C4
:10FA380020202020202020202020202020202020BE
:10FA4800202020202020200020256C6C5820527572
:10FA58006E20446973706C6179203058252E3258B5
:10FA680020202020202020202020202020004A6143
:10FA78006E4665624D61724170724D61794A756E6C
:10FA88004A756C4175675365704F63744E6F764461
:10FA980065630025342E31662025342E31662025F5
:10FAA800342E31662025342E316657202020202020
:10FAB800202020202020200025342E3166202534C7
:10FAC8002E31662025342E316672572020202020C2
:10FAD80020202020202020202020200025342E3106
:10FAE80066572025342E316656412025332E32663E
:10FAF80050462020202020202020202020202000C8
:10FB08002573205665722025732020202020202070
:10FB180020202020202020202020202020202020DD
:10FB28000025732025732025642E2530316441205B
:10FB38002564412020202020202020202020202053
:10FB48002000204D65736720256420537461636B22
:10FB58002025642020202020202020202020202054
:10FB680020004D554920256C6C58205049432025CC
:10FB78005820202020202020202020202020202045
:10FB88002000205465726D696E616C20496E666F45
:10FB9800202020202020202020202020202020007D
:10FBA8002048454C502053637265656E3A202564A1
:10FBB8002020202020202020202020002573202005
:10FBC800202020202020202020202020202020202D
:10FBD8002020202020202000257320256C645641F9
:10FBE800432025332E306657202020202020202037
:10FBF8002020200020506F7274204C6F636B2023EC
:10FC080025642020202020202020202020200020C3
:10FC18005465726D696E616C202564202020202057
:10FC280020202020202020200020434D4420256330
:10FC3800202563204C656E2025642020202020206C
:10FC48002020002025635049204441515F424D4304
:10FC580020257320202020202020200048454C50BB
:10FC68002025732020202020202020202020202034
:10FC780020202000204F70656E204C4C2020202032
:10FC88002020202020202020202020002050756DBA
:10FC980070204C4C202020202020202020202020B4
:10FCA80020202000205265616479204C4C202020BF
:10FCB80020202020202020202020200020533246F1
:10FCC80034312023256320202020202020202020BC
:10FCD80020202000444953504C41592025732020AE
:10FCE8002020202020202020202020002053746F56
:10FCF80072656420232564202020202020202020D5
:10FD080020202000767465726D2025783A257820A9
:10FD18002020202020202020202020002053455172
:10FD280055454E43452025642020202020202020B2
:10FD38002020200020446973706C6179206E756DF5
:10FD48002025642020202020202020002053256406
:10FD5800462564206C6F6720202020256420202001
:10FD680020202000204C6F61642D6C6F636B206E27
:10FD7800756D202564202020202020002025732058
:10FD8800202020202020202020202020202020206B
:10FD980020200020494E464F2020202020202020CF
:10FDA8002020202020202020200020565445524D7D
:10FDB80020494E464F20202020202020202020208F
:10FDC8000020565445524D2048454C5020202020B4
:10FDD80020202020202020002056657273696F6E35
:10FDE80020257320202020202020202020200020D3
:10FDF800257320416C6C204465762020202020202B
:10FE08002020202020002048454C50204275696C55
:10FE18006420257320202020202020200020257306
:10FE280020416E616C6F6720446576202020202079
:10FE38002020200053756E4D6F6E547565576564AC
:10FE48005468754672695361740048454C502025C2
:10FE58007320202020202020202020202020200067
:10FE680043616C6962726174696F6E20436F6D7073
:10FE78006C657465200057454D3330383020447226
:10FE880069766572202020202020002573202020FC
:10FE9800202020202020202020202020202020007A
:10FEA800257320257320202020202020202020209A
:10FEB8002020202000506F727420257320202020DD
:10FEC80020202020202020202000424D43426F6126
:10FED80072642044726976657220202020200052C6
:10FEE80065616420454550524F4D2044415441209E
:10FEF80020202000577269746520454550524F4DA7
:10FF080020444154412020200055706461746520CC
:10FF1800454550524F4D2044415441202000496EE0
:10FF280076616C696420454550524F4D20444154D8
:10FF3800412000454D353430204472697665722081
:10FF48002020202020200025732020202020202071
:10FF58002020202020202020202000505A454D20FD
:10FF6800447269766572202020202020004D61723D
:10FF780020323820323032360031313A32303A3499
:10FF88003200434F4D4D202020004552524F522001
:10FF980020004F4E4C494E45200052454D4F544588
:10FFA800200044495341424C45004F46464C494E77
:10FFB8004500286E756C6C290057454D3330005646
:10FFC800302E363100343751383400353751383413
:10FFD80000505A454D0056302E370056302E380006
:10FFE800494E46004E414E00696E66006E616E00D5
:08FFF800474D54002573000081
:020000040001F9
:1000000000019451D8BC05D0010E0501F46F210EFA
:100010005F6E18ECF6F09F9485ECFFF0D68ED68CD0
:10002000BF82BF84BF8611EC02F09CEC03F0000E8F
:100030006100A2F3FDFA22EE6CF1070EDE6AE8061B
:10004000FDE20701F66BF651020DF3C4FBF6F4C4B2
:10005000FCF6000E0601FCBFFF0EFD6FFE6F000EEA
:10006000FB2505017E6F000E0601FC2105017F6F57
:100070002C0E0601FD210501806F37ECEEF0070123
:10008000F651020D3C0EF324D96E090EF420DA6EFF
:1000900005017EC5DEF47FC5DDF40701F651020DD2
:1000A0003C0EF324D96E090EF420DA6EDEC4FBF6A2
:1000B000DDC4FCF60601FB5109016C270601FC5169
:1000C00009016D23000E6E23000E6F23000E7023B6
:1000D000000E7123000E7223000E73230701F62B0E
:1000E000080EF665B0D76CC957F86DC958F86EC9D7
:1000F00059F86FC95AF870C95BF871C95CF872C9D0
:100100005DF873C95EF8FC0E05017E6FFF0E7F6F10
:100110003F0E806F37ECEEF07EC555F87FC556F880
:10012000FE0E7E6FFF0E7F6F3F0E806F37ECEEF09E
:100130007EC553F87FC554F8050E0801531904E134
:10014000990E5419D8B42ED0040E531906E1990E05
:100150005419D8A402D0508525D05069000E566F8E
:100160005569FF0E576F000E586F000E596F000E45
:100170005A6F000E5B6F000E5C6F000E5D6F000E1D
:100180005E6FFF0E09016C6FFF0E6D6FFF0E6E6FDD
:10019000FF0E6F6F000E706F000E716F000E726FAA
:1001A000000E736F57C8A3F558C8A4F559C8A5F534
:1001B0005AC8A6F55BC8A7F55CC8A8F55DC8A9F53F
:1001C0005EC8AAF55EECD9F00801FC6F52D07C0E37
:1001D0006100A2F30BFDF10E6100A2F30CFD010E14
:1001E0006100A2F30DFDA00E6100A2F311FD7C0ED3
:1001F0006100A2F312FD010E6100A2F313FD3E0E99
:100200006100A2F30EFDFA0E6100A2F30FFD010ED4
:1002100021D05A0E6100A2F30BFDEE0E6100A2F395
:100220000CFD010E6100A2F30DFDBA0E6100A2F3F8
:1002300011FD800E6100A2F312FD010E6100A2F318
:1002400013FD760E6100A2F30EFDFA0E6100A2F31B
:100250000FFD010E6100A2F310FD1ED0A9ECEFF01E
:10026000F20E7E6FEF0E7F6F010E806FA1EC05F036
:1002700013D0FC510601FB6FFC6BFC51000AD8A4A3
:10028000EDD7FB51000AD8B4E9D7010AD8B49FD7FB
:10029000030AD8B4BED7E2D72BEE0EF101D80AD0AC
:1002A0000500FA6EDE50FD6EDE50FE6EDE50FF6E13
:1002B000FA5012002BEE0BF101D80AD00500FA6EAD
:1002C000DE50FD6EDE50FE6EDE50FF6EFA50120004
:1002D00005017F6B140E7E6F090E8EEC01F04E0E41
:1002E0007F6F200E7E6F0C0E8EEC01F02BEE0EF168
:1002F00001D80AD00500FA6EDE50FD6EDE50FE6EAB
:10030000DE50FF6EFA50120022EE6CF1FF0EDE148A
:1003100009016C6FFF0EDE146D6FFF0EDE146E6F41
:10032000FF0EDE146F6F000EDE14706F000EDE1411
:10033000716F000EDE14726F000EDE14736FEDEC41
:1003400006F0A20E05017E6FEF0E7F6F010E806F2B
:10035000FCEC05F0EAEC06F0E7EC06F0E20E050135
:100360007E6FC90E7F6F010E806FF5EC05F0180EE1
:100370007E6F0E0E7F6F000E806F18EC06F0F6ECAD
:1003800006F0880E05017E6F0D0E7F6F000E806FE8
:1003900011EC06F0F3EC06F05E0E0801CD6F0F0EC7
:1003A000CE6F0501846B640E836FCBEC02F0BF94BB
:1003B000BF92BF9602ECCCF00801FBA56ED0FB9576
:1003C000FEECE5F00009D8B438D0000E05017E6FD0
:1003D000000E57ECF7F07EC571F67FC572F6E70E9A
:1003E0000601736FFE0E746F9FECF9F05DEC03F085
:1003F000000E05017E6F010E57ECF7F07EC571F619
:100400007FC572F6110E0601736FFF0E746F9FECBD
:10041000F9F05DECEBF0000E05017E6F010E57EC7C
:10042000F7F07EC571F67FC572F6FC0E0601736F9C
:10043000FE0E746F9FECF9F011D0000E05017E6F77
:10044000000E57ECF7F07EC571F67FC572F6260EEA
:100450000601736FFF0E746F9FECF9F0000E05013B
:100460007E6F030E57ECF7F07EC571F67FC572F60E
:10047000680E0601736FFE0E746F9FECF9F02BEEA1
:10048000E1F0DF50F1ECFFF07EEC05F0060E050127
:10049000846F400E836FCBEC02F0080150B526EF5D
:1004A00087F0AB0E06011D6F0C0E1E6F2BEE11F1C7
:1004B00001D82CD10500FA6EDE50FD6EDE50FE6EC6
:1004C000DE50FF6EFA5012009D0E05018C6FF70E84
:1004D0008D6FC3ECF9F0B00E06011A6FF50E1B6FAD
:1004E000010E1C6F050E1D6F78ECE5F03DD1090182
:1004F0002351D8A413D08D0E05018C6FF70E8D6F8C
:10050000C3ECF9F0D20E06011A6FCD0E1B6F010E6F
:100510001C6F050E1D6F78ECE5F026D1ED0E050180
:100520008C6FF60E8D6FC3ECF9F0080E06011A6F92
:100530000E0E1B6F000E1C6F050E1D6F78ECE5F0A4
:1005400013D16D0E05018C6FF70E8D6FC3ECF9F0B2
:10055000A40E06011A6F0D0E1B6F000E1C6F050E08
:100560001D6F78ECE5F000D15D0E05018C6FF70E84
:100570008D6FC3ECF9F0460E06011A6F050E1B6F66
:10058000000E1C6F050E1D6F78ECE5F0EDD04D0EE2
:1005900005018C6FF70E8D6FC3ECF9F01E0E06018E
:1005A0001A6F050E1B6F000E1C6F050E1D6F78EC89
:1005B000E5F0DAD03D0E05018C6FF70E8D6FC3ECC0
:1005C000F9F0400E06011A6F010E1B6F000E1C6F32
:1005D000050E1D6F78ECE5F0C7D07D0E05018C6F20
:1005E000F70E8D6FC3ECF9F02E0E06011A6FA20EF6
:1005F0001B6F010E1C6F100E1D6F78ECE5F0B4D070
:100600001D0E05018C6FF70E8D6FC3ECF9F0D40E43
:1006100006011A6F010E1B6F000E1C6F050E1D6F79
:1006200078ECE5F0A1D00D0E05018C6FF70E8D6F03
:10063000C3ECF9F0ECD7FD0E05018C6FF60E8D6F53
:10064000C3ECF9F0D40E06011A6F010E1B6F000EF9
:100650001C6F050E1D6F78ECE5F0506A85D0505088
:10066000000AD8B4CDD7010AD8B4DDD7030AD8B46C
:10067000E2D7F3D7EA0E05018C6F0C0E8D6FC3EC39
:10068000F9F0480E06011A6F9D0E1B6F010E1C6FCC
:10069000110E1D6F78ECE5F067D0ED0E05018C6F43
:1006A0000D0E8D6FC3ECF9F09E0E06011A6F0D0E44
:1006B0001B6F000E1C6F050E1D6F78ECE5F054D01B
:1006C000DD0E05018C6F0D0E8D6FC3ECF9F0980EE9
:1006D00006011A6F0D0E1B6F000E1C6F050E1D6FAD
:1006E00078ECE5F041D02D0E05018C6FF70E8D6F83
:1006F000C3ECF9F0A40E06011A6F010E1B6F000E79
:100700001C6F050E1D6F78ECE5F02ED04F500601E2
:10071000FB6FFC6BFC51000AD8A4D6D6FB51000A33
:10072000D8B4D2D6010AD8B4E2D6030AD8B409D7CD
:10073000010AD8B419D7070AD8B429D7010AD8B4FE
:1007400039D7030AD8B48BD7010AD8B4A6D70F0A71
:10075000D8B4B6D7010AD8B48DD7030AD8B4C3D752
:10076000010AD8B43AD7B0D60C0EDEEC02F000097C
:10077000D8B46CD3750E7F6F300E7E6F0C0E8EEC7E
:1007800001F00901236B62D343ECDFF00C0E96EC11
:1007900006F02BEEE1F0DF50F1ECFFF0FEECE5F0BF
:1007A0000009D8B414D05DEC03F0000E05017E6F93
:1007B000000E57ECF7F07EC571F67FC572F6E70EB6
:1007C0000601736FFE0E746F9FECF9F016D0000EE9
:1007D00005017E6F000E57ECF7F07EC571F67FC500
:1007E00072F6260E0601736FFF0E746F9FECF9F020
:1007F0005DECEBF0010E0501F46F000E05017E6F5C
:10080000010E57ECF7F07EC571F67FC572F6060152
:10081000746B150E736F930E756FFE0E766FD20E9E
:10082000776FFE0E786F40ECEAF0000E05017E6FE8
:10083000020E57ECF7F07EC571F67FC572F6060121
:10084000746B150E736FBD0E756FFE0E766FCDC88F
:1008500077F6CEC878F640ECEAF0000E05017E6F20
:10086000030E57ECF7F07EC571F67FC572F60601F0
:10087000746B150E736FA80E756FFE0E766F750E86
:10088000776FFF0E786FC70E796FFF0E7A6F40ECAF
:10089000EAF07EEC05F00501F451D8B407D0060E5D
:1008A000846F400E836FCBEC02F006D0090E846F8C
:1008B000600E836FCBEC02F01AEC01F030ECF9F033
:1008C00036ECC4F00009D8A413D0010E6100A2F3E5
:1008D00003FD000E6100A2F304FD000E6100A2F30F
:1008E00005FD000E6100A2F306FD010E536E50815E
:1008F00032EC01F09FECEDF00009D8A414D0010E09
:100900006100A2F307FD000E6100A2F308FD000ED6
:100910006100A2F309FD000E6100A2F30AFD010EC1
:10092000536E0801508355ECF9F003EC03F0010E0F
:100930006100A2F3FDFA070E05017F6FA50E7E6F21
:1009400050EC04F02BEEE1F0DF50F1ECFFF01E0E66
:100950000601716F2C0E726F746B3F0E736F8A0EEF
:10096000756FFB0E766F40ECEAF0000E05017E6FAE
:10097000000E57ECF7F07EC571F67FC572F60601E2
:10098000746B150E736F4B0E756FFC0E766F5FC533
:1009900077F6786BC70E796FFF0E7A6F40ECEAF04E
:1009A000000E05017E6F010E57ECF7F07EC571F663
:1009B0007FC572F60601746B150E736F500E756F5E
:1009C000FA0E766F57C877F658C878F659C879F690
:1009D0005AC87AF65BC87BF65CC87CF65DC87DF6C3
:1009E0005EC87EF650C87FF6806B40ECEAF02BEED6
:1009F00003F1DE50DE10DE10DE10D8A408D02BEE9E
:100A000007F1DE50DE10DE10DE10D8B42ED0050E59
:100A10000801531904E1990E5419D8B405D0CD0E2C
:100A20000701EA6FFF0E04D0D30E0701EA6FFF0E35
:100A3000EB6F000E05017E6F020E57ECF7F07EC5DE
:100A400071F67FC572F60601746B150E736F250E75
:100A5000756FFE0E766FEAC777F6EBC778F640EC57
:100A6000EAF0030E0801506F2CD0050E080153194F
:100A700004E1990E5419D8B405D0CD0E0701EC6FDE
:100A8000FF0E04D0D30E0701EC6FFF0EED6F000ECA
:100A900005017E6F020E57ECF7F07EC571F67FC53B
:100AA00072F60601746B150E736FF70E756FFD0EFF
:100AB000766FECC777F6EDC778F640ECEAF0080100
:100AC000506B000E05017E6F030E57ECF7F07EC5EC
:100AD00071F67FC572F60601746B150E736F840E86
:100AE000756FFD0E766F750E776FFF0E786F40ECA9
:100AF000EAF0010E05017E6F000E57ECF7F07EC59F
:100B000071F67FC572F60601746B150E736F9B0E3E
:100B1000756FFD0E766F40ECEAF0010E05017E6FF9
:100B2000010E57ECF7F07EC571F67FC572F606012F
:100B3000746B150E736FE00E756FFD0E766FC70E3A
:100B4000776FFF0E786F40ECEAF0010E05017E6FC3
:100B5000020E57ECF7F07EC571F67FC572F60601FE
:100B6000746B150E736FB20E756FFD0E766F40ECE1
:100B7000EAF0010E05017E6F030E57ECF7F07EC51B
:100B800071F67FC572F60601746B150E736F840ED5
:100B9000756FFD0E766F750E776FFF0E786F40ECF8
:100BA000EAF0030E05017E6F000E57ECF7F07EC5EC
:100BB00071F67FC572F60601746B150E736F0E0E1B
:100BC000756FFE0E766FC70E776FFF0E786F40EC75
:100BD000EAF0030E05017E6F010E57ECF7F07EC5BB
:100BE00071F67FC572F60601746B150E736FE00E19
:100BF000756FFD0E766FC70E776FFF0E786F40EC46
:100C0000EAF0030E05017E6F020E57ECF7F07EC589
:100C100071F67FC572F60601746B150E736FC90EFF
:100C2000756FFD0E766F40ECEAF0030E05017E6FE6
:100C3000030E57ECF7F07EC571F67FC572F606011C
:100C4000746B150E736F840E756FFD0E766F750ED7
:100C5000776FFF0E786F40ECEAF0020E05017E6FB1
:100C6000000E57ECF7F07EC571F67FC572F60601EF
:100C7000746B150E736F6A0E756FFB0E766F57C827
:100C800077F658C878F659C879F65AC87AF65BC824
:100C90007BF65CC87CF65DC87DF65EC87EF653C800
:100CA0007FF654C880F640ECEAF0020E05017E6F34
:100CB000010E57ECF7F07EC571F67FC572F606019E
:100CC000746B150E736F290E756FFA0E766F28C848
:100CD00077F629C878F62AC879F62BC87AF60CC8B0
:100CE0007BF60DC87CF60EC87DF60FC87EF640EC8C
:100CF000EAF0020E05017E6F020E57ECF7F07EC59A
:100D000071F67FC572F60601746B150E736F020ED5
:100D1000756FFA0E766F08C877F609C878F60AC8B4
:100D200079F60BC87AF640ECEAF0020E05017E6F08
:100D3000030E57ECF7F07EC571F67FC572F606011B
:100D4000746B150E736F080E756FFB0E766F750E54
:100D5000776FFF0E786FC70E796FFF0E7A6F40ECDA
:100D6000EAF07EEC05F00B0E0501846FB80E836F80
:100D7000CBEC02F05350D8B406D0270E846F100E7F
:100D8000836FCBEC02F0010E7F6FF40E7E6F050EC9
:100D90008EEC01F00B0E7F6FB80E7E6F020E8EECA4
:100DA00001F0050E7F6FDC0E7E6F070E8EEC01F0FA
:100DB0000B0E7F6FB80E7E6F040E8EEC01F0270EC7
:100DC0007F6F100E7E6F060E8EEC01F00B0E7F6FA4
:100DD000B80E7E6F030E8EEC01F07F6B010E7E6FFE
:100DE000010E8EEC01F044D0000E6DEC03F0000E0D
:100DF0007E6F000E57ECF7F07EC594F77FC595F730
:100E0000070120EE15F09451D9269551DA22DF6AB8
:100E1000000E0501826F030E63ECECF00601FB6F20
:100E2000070120EE13F09451D9269551DA22FBC622
:100E3000DFF41ED0000E6100A2F3FDFA0B0E0501D7
:100E4000846FB80E836FCBEC02F012D02AEEFDF265
:100E5000DF500601FB6FFC6BFC51000AD8A4EAD7F7
:100E6000FB51000AD8B490D4010AD8B4BDD7E2D758
:100E7000010EDEEC02F00009D8B472D17F6B010ED6
:100E80007E6F010E8EEC01F02BEE07F1DE50DE10CE
:100E9000DE10DE10D8A414D032EC01F0D69E0A0188
:100EA0006C51D8A406D06B00F8F1A2F76B00FCF1EE
:100EB000A3F7D68EA2C78EF5A3C78FF5B8ECFBF0CB
:100EC00003EC03F0010E08010027000E01230223AA
:100ED0000323C0EC06F0000E50EC05F088EC06F0A1
:100EE0000009D8B4FBD788EC06F00009D8B406D0C6
:100EF00005EC04F07EC500FE7FC501FEC0EC06F0E7
:100F0000010E50EC05F088EC06F00009D8B4FBD7D0
:100F100088EC06F00009D8B40ED005EC04F06100AE
:100F2000FAF5F1FC6100FEF5F2FC6B00C4F302FE81
:100F30006B00C8F303FEC0EC06F0020E50EC05F0A7
:100F400088EC06F00009D8B4FBD788EC06F000095D
:100F5000D8B40ED005EC04F06100FAF5F3FC6100A2
:100F6000FEF5F4FC6B00CCF304FE6B00D0F305FE41
:100F7000C0EC06F0040E50EC05F088EC06F0000919
:100F8000D8B4FBD788EC06F00009D8B406D005EC3D
:100F900004F07EC508FE7FC509FEC0EC06F0050E14
:100FA00050EC05F088EC06F00009D8B4FBD788ECCB
:100FB00006F00009D8B406D005EC04F07EC50AFEA0
:100FC0007FC50BFEC0EC06F0160E50EC05F088EC69
:100FD00006F00009D8B4FBD788EC06F00009D8B4B5
:100FE00006D005EC04F07EC52CFE7FC52DFEC0ECBE
:100FF00006F0170E50EC05F088EC06F00009D8B4A6
:10100000FBD788EC06F00009D8B406D005EC04F054
:101010007EC52EFE7FC52FFEC0EC06F01D0E50ECE7
:1010200005F088EC06F00009D8B4FBD788EC06F090
:101030000009D8B406D005EC04F07EC53AFE7FC5A1
:101040003BFEC0EC06F03B0E50EC05F088EC06F0E1
:101050000009D8B4FBD788EC06F00009D8B406D054
:1010600005EC04F07EC576FE7FC577FEC0EC06F089
:101070003C0E50EC05F088EC06F00009D8B4FBD724
:1010800088EC06F00009D8B406D005EC04F07EC563
:1010900078FE7FC579FEC0EC06F03D0E50EC05F001
:1010A00088EC06F00009D8B4FBD788EC06F00009FC
:1010B000D8B406D005EC04F07EC57AFE7FC57BFE71
:1010C000C0EC06F03E0E50EC05F088EC06F000098E
:1010D000D8B4FBD788EC06F00009D8B406D005ECEC
:1010E00004F07EC57CFE7FC57DFEC0EC06F03F0EA1
:1010F00050EC05F088EC06F00009D8B4FBD788EC7A
:1011000006F00009D8B406D005EC04F07EC57EFEDA
:101110007FC57FFE6B00ACF27DF004002BEE03F187
:10112000DE50DE10DE10DE10D8A41AD01AEC01F06A
:10113000000E05019D6F000E9E6F000E9F6F000E4A
:10114000A06F000EA16F000EA26F000EA36F60ECE7
:10115000EFF06EC7D9F46FC7DAF4DFBE36ECC4F037
:10116000050EDEEC02F00009D8B4DAEF8DF003ECE6
:1011700003F0010E05017F6FF40E7E6F050E8EECFD
:1011800001F0040EDEEC02F00009D8B403D0000E2A
:101190006DEC03F0000EDFECFEF05450D8B4A0EF7D
:1011A0008DF016EC8EF0000E05017E6F000E57ECF0
:1011B000F7F07EC571F67FC572F60601746B150EE9
:1011C000736FC40E756FFB0E766F020E0701D32589
:1011D0000601776F000E0701D4210601786F40ECFD
:1011E000EAF0B50E080157190CE11D0E581909E176
:1011F000060E59195A115B115C115D115E11D8B4BC
:101200005CD024CB95F525CB96F526CB97F527CB4F
:1012100098F5000E0501996F000E9A6FC80E9B6F2E
:10122000420E9C6F61ECCDF095C5F7F796C5F8F7C7
:1012300097C5F9F798C5FAF7000E7E6F010E57ECC7
:10124000F7F07EC571F67FC572F60601746B150E58
:10125000736FE00E756FFB0E766F0C01B4510C0DC1
:10126000DA0EF3240601776F0E0EF420786F14C7A0
:1012700087F515C788F516C789F517C78AF50A0EC9
:1012800005018B6F000E8C6F000E8D6F000E8E6F40
:1012900077ECE9F087C579F688C57AF689C57BF6DB
:1012A0008AC57CF6F7C77DF6F8C77EF6F9C77FF6E4
:1012B000FAC780F640ECEAF05BD02CCB95F52DCB4D
:1012C00096F52ECB97F52FCB98F5000E0501996F6B
:1012D000000E9A6FC80E9B6F420E9C6F61ECCDF0B2
:1012E00095C5F7F796C5F8F797C5F9F798C5FAF7D2
:1012F000000E7E6F010E57ECF7F07EC571F67FC5CC
:1013000072F60601746B150E736FE00E756FFB0EAF
:10131000766F0C01B4510C0DDA0EF3240601776FD1
:101320000E0EF420786F14C787F515C788F516C719
:1013300089F517C78AF50A0E05018B6F000E8C6FB1
:10134000000E8D6F000E8E6F77ECE9F087C579F691
:1013500088C57AF689C57BF68AC57CF6F7C77DF61F
:10136000F8C77EF6F9C77FF6FAC780F640ECEAF0D8
:1013700009011D51D8B472D0000E05017E6F020E16
:1013800057ECF7F07EC571F67FC572F60601746BF7
:10139000150E736F290E756FFB0E766F09011D51C7
:1013A0000C0DD50EF3240601776FF60EF420786F3E
:1013B0000C0E0701DB03F3C4FBF6F4C4FCF6DC03FC
:1013C000F3500601FC278D0EFB25796FF60EFC21EC
:1013D0007A6F800E0701E12506017B6FFF0E070182
:1013E000E22106017C6F800E0701DF2506017D6F7B
:1013F000FF0E0701E02106017E6F800E0701DD254B
:1014000006017F6FFF0E0701DE210601806F40ECB1
:10141000EAF0000E05017E6F030E57ECF7F07EC573
:1014200071F67FC572F60601746B150E736F880E28
:10143000756FF90E766F9AC777F69BC778F69CC7DB
:1014400079F69DC77AF696C77BF697C77CF698C75C
:101450007DF699C77EF640ECEAF060D0000E0501FB
:101460007E6F020E57ECF7F07EC571F67FC572F6FF
:101470000601746B150E736F9B0E756FFA0E766F07
:1014800063C877F664C878F665C879F666C87AF6F0
:1014900067C87BF668C87CF669C87DF66AC87EF6C0
:1014A0006BC87FF66CC880F66DC881F66EC882F690
:1014B0005FC883F660C884F661C885F662C886F6A0
:1014C00040ECEAF0000E05017E6F030E57ECF7F0DA
:1014D0007EC571F67FC572F60601746B150E736FCB
:1014E000C00E756FFA0E766F6FC877F670C878F613
:1014F00071C879F672C87AF673C87BF674C87CF640
:1015000075C87DF676C87EF677C87FF678C880F60F
:1015100079C881F67AC882F640ECEAF022EE5BF1F7
:10152000DEC487F5DDC488F50501000E88BFFF0E17
:10153000896F8A6F010E8CECE2F087C595F588C53E
:1015400096F589C597F58AC598F5000E996F000E36
:101550009A6F200E9B6F410E9C6F61ECCDF095C58C
:10156000F7F796C5F8F797C5F9F798C5FAF722EE99
:1015700069F1DEC487F5DDC488F5000E88BFFF0E73
:10158000896F8A6F010E8CECE2F087C595F588C5EE
:1015900096F589C597F58AC598F5000E996F000EE6
:1015A0009A6F700E9B6F420E9C6F61ECCDF095C5EB
:1015B000F2F796C5F3F797C5F4F798C5F5F7010E5E
:1015C0007E6F000E57ECF7F07EC571F67FC572F6A0
:1015D0000601746B150E736F040E756FF90E766F3E
:1015E000F7C777F6F8C778F6F9C779F6FAC77AF643
:1015F000F2C77BF6F3C77CF6F4C77DF6F5C77EF637
:1016000040ECEAF065C983F566C984F50501866B8F
:101610000A0E856FDDECF2F083C5E6F784C5E7F7C7
:1016200063C983F564C984F5866B0A0E856FDDECAA
:10163000F2F083C5E8F784C5E9F7010E7E6F010E6D
:1016400057ECF7F07EC571F67FC572F60601746B34
:10165000150E736FDA0E756FF90E766FE6C777F6B3
:10166000E7C778F6E8C779F6E9C77AF640ECEAF01A
:10167000ECCB87F5EDCB88F5EECB89F5EFCB8AF592
:10168000010E8CECE2F087C595F588C596F589C505
:1016900097F58AC598F5000E996F000E9A6F7A0E2D
:1016A0009B6F440E9C6F61ECCDF095C5F7F796C526
:1016B000F8F797C5F9F798C5FAF71CC787F51DC75E
:1016C00088F51EC789F51FC78AF5010E8CECE2F07C
:1016D00087C595F588C596F589C597F58AC598F5A6
:1016E000000E996F000E9A6F7A0E9B6F440E9C6FDE
:1016F00061ECCDF095C5F2F796C5F3F797C5F4F711
:1017000098C5F5F728CB95F529CB96F52ACB97F513
:101710002BCB98F5000E996F000E9A6FC80E9B6F39
:10172000420E9C6F61ECCDF095C5EEF796C5EFF7D4
:1017300097C5F0F798C5F1F7010E7E6F020E57ECD2
:10174000F7F07EC571F67FC572F60601746B150E53
:10175000736FD70E756FF80E766FF7C777F6F8C709
:1017600078F6F9C779F6FAC77AF6F2C77BF6F3C7C7
:101770007CF6F4C77DF6F5C77EF6EEC77FF6EFC7B9
:1017800080F6F0C781F6F1C782F640ECEAF0B50EBC
:10179000080157190CE11D0E581909E1060E5919D7
:1017A0005A115B115C115D115E11D8B49ED024C733
:1017B00087F525C788F526C789F527C78AF5010E5D
:1017C0008CECE2F087C595F588C596F589C597F547
:1017D0008AC598F5000E996F000E9A6F200E9B6FC8
:1017E000410E9C6F61ECCDF095C5F7F796C5F8F703
:1017F00097C5F9F798C5FAF730C787F531C788F567
:1018000032C789F533C78AF5010E8CECE2F087C543
:1018100095F588C596F589C597F58AC598F5000EA2
:10182000996F000E9A6F200E9B6F410E9C6F61ECBA
:10183000CDF095C5F2F796C5F3F797C5F4F798C5BF
:10184000F5F721EE5CF3DEC487F5DDC488F5000E04
:1018500088BFFF0E896F8A6F010E8CECE2F087C59E
:1018600095F588C596F589C597F58AC598F5000E52
:10187000996F000E9A6F7A0E9B6F440E9C6F61EC0D
:10188000CDF095C5EEF796C5EFF797C5F0F798C57B
:10189000F1F7010E7E6F030E57ECF7F07EC571F67F
:1018A0007FC572F60601746B150E736FE40E756FCB
:1018B000FA0E766FF7C777F6F8C778F6F9C779F6B4
:1018C000FAC77AF6F2C77BF6F3C77CF6F4C77DF663
:1018D000F5C77EF6EEC77FF6EFC780F6F0C781F654
:1018E000F1C782F640ECEAF088D063C895F564C889
:1018F00096F565C897F566C898F5000E0501996FCD
:10190000000E9A6F200E9B6F410E9C6F61ECCDF024
:1019100095C5F7F796C5F8F797C5F9F798C5FAF79B
:101920006FC895F570C896F571C897F572C898F5A7
:10193000000E996F000E9A6F200E9B6F410E9C6FE8
:1019400061ECCDF095C5F2F796C5F3F797C5F4F7BE
:1019500098C5F5F721EE5CF3DEC487F5DDC488F5A4
:10196000000E88BFFF0E896F8A6F010E8CECE2F0CB
:1019700087C595F588C596F589C597F58AC598F503
:10198000000E996F000E9A6F7A0E9B6F440E9C6F3B
:1019900061ECCDF095C5EEF796C5EFF797C5F0F77A
:1019A00098C5F1F7010E7E6F030E57ECF7F07EC578
:1019B00071F67FC572F60601746B150E736FE40E37
:1019C000756FFA0E766FF7C777F6F8C778F6F9C72E
:1019D00079F6FAC77AF6F2C77BF6F3C77CF6F4C756
:1019E0007DF6F5C77EF6EEC77FF6EFC780F6F0C747
:1019F00081F6F1C782F640ECEAF0020E05017E6F37
:101A0000000E57ECF7F07EC571F67FC572F6060141
:101A1000746B150E736F6A0E756FFB0E766F57C879
:101A200077F658C878F659C879F65AC87AF65BC876
:101A30007BF65CC87CF65DC87DF65EC87EF653C852
:101A40007FF654C880F640ECEAF0020E05017E6F86
:101A5000010E57ECF7F07EC571F67FC572F60601F0
:101A6000746B150E736FB20E756FF90E766F08CE2C
:101A700000F609CE01F651ECF1F000C677F601C68A
:101A800078F602C679F603C67AF60ACE00F60BCED1
:101A900001F6C7ECF0F000C67BF601C67CF602C684
:101AA0007DF603C67EF640ECEAF0020E05017E6F7D
:101AB000020E57ECF7F07EC571F67FC572F606018F
