:0400000085EF00F098
:10000800647664766476647664766476647623755A
:1000180064766476037211726476647664766476C4
:100028001F72647664766476E7716476F571647637
:100038006476647664766476387164766476AE71D4
:10004800B872AA7264766476647664766476647646
:10005800E1726476D3726476D26F6476647664767D
:1000680064766476647664762D723B72497264763F
:100078006476647664766476420064766476647640
:1000880064766476647664762871647664766476D9
:10009800FD72EF7264766476420064766476647604
:1000A8006476647664766476577265727372647681
:1000B800647664766476E9706476647664766476E9
:1000C8006476647664766476647664766476647658
:1000D8006476647664766476647664766476647648
:1000E80042006476647664766476647664766476D0
:1000F8005B76647664763C7564766476647664765A
:06010800FF008BEFB9F0CF
:10D5BA000000C0C101C30302C2C60607C705C5C42D
:10D5CA0004CC0C0DCD0FCFCE0E0ACACB0BC909085D
:10D5DA00C8D81819D91BDBDA1A1EDEDF1FDD1D1C9D
:10D5EA00DC14D4D515D71716D6D21213D311D1D02D
:10D5FA0010F03031F133F3F23236F6F737F53534CD
:10D60A00F43CFCFD3DFF3F3EFEFA3A3BFB39F9F89C
:10D61A003828E8E929EB2B2AEAEE2E2FEF2DEDEC3C
:10D62A002CE42425E527E7E62622E2E323E121206C
:10D63A00E0A06061A163A3A26266A6A767A565646C
:10D64A00A46CACAD6DAF6F6EAEAA6A6BAB69A9A8DC
:10D65A006878B8B979BB7B7ABABE7E7FBF7DBDBC1C
:10D66A007CB47475B577B7B67672B2B373B17170AC
:10D67A00B05090915193535292965657975595940C
:10D68A00549C5C5D9D5F9F9E5E5A9A9B5B9959581C
:10D69A0098884849894B8B8A4A4E8E8F4F8D4D4CBC
:10D6AA008C448485458747468682424383418180EC
:10D6BA004000C1814001C0804101C0804100C18158
:10D6CA004001C0804100C1814000C1814001C08049
:10D6DA004101C0804100C1814000C1814001C08038
:10D6EA004100C1814001C0804101C0804100C18127
:10D6FA004001C0804100C1814000C1814001C08019
:10D70A004100C1814001C0804101C0804100C18106
:10D71A004000C1814001C0804101C0804100C181F7
:10D72A004001C0804100C1814000C1814001C080E8
:10D73A004101C0804100C1814000C1814001C080D7
:10D74A004100C1814001C0804101C0804100C181C6
:10D75A004000C1814001C0804101C0804100C181B7
:10D76A004001C0804100C1814000C1814001C080A8
:10D77A004100C1814001C0804101C0804100C18196
:10D78A004001C0804100C1814000C1814001C08088
:10D79A004101C0804100C1814000C1814001C08077
:10D7AA004100C1814001C0804101C0804100C18166
:10D7BA004000C0C101C30302C2C60607C705C5C4EB
:10D7CA0004CC0C0DCD0FCFCE0E0ACACB0BC909085B
:10D7DA00C8D81819D91BDBDA1A1EDEDF1FDD1D1C9B
:10D7EA00DC14D4D515D71716D6D21213D311D1D02B
:10D7FA0010F03031F133F3F23236F6F737F53534CB
:10D80A00F43CFCFD3DFF3F3EFEFA3A3BFB39F9F89A
:10D81A003828E8E929EB2B2AEAEE2E2FEF2DEDEC3A
:10D82A002CE42425E527E7E62622E2E323E121206A
:10D83A00E0A06061A163A3A26266A6A767A565646A
:10D84A00A46CACAD6DAF6F6EAEAA6A6BAB69A9A8DA
:10D85A006878B8B979BB7B7ABABE7E7FBF7DBDBC1A
:10D86A007CB47475B577B7B67672B2B373B17170AA
:10D87A00B05090915193535292965657975595940A
:10D88A00549C5C5D9D5F9F9E5E5A9A9B5B9959581A
:10D89A0098884849894B8B8A4A4E8E8F4F8D4D4CBA
:10D8AA008C448485458747468682424383418180EA
:10D8BA004000C1814001C0804101C0804100C18156
:10D8CA004001C0804100C1814000C1814001C08047
:10D8DA004101C0804100C1814000C1814001C08036
:10D8EA004100C1814001C0804101C0804100C18125
:10D8FA004001C0804100C1814000C1814001C08017
:10D90A004100C1814001C0804101C0804100C18104
:10D91A004000C1814001C0804101C0804100C181F5
:10D92A004001C0804100C1814000C1814001C080E6
:10D93A004101C0804100C1814000C1814001C080D5
:10D94A004100C1814001C0804101C0804100C181C4
:10D95A004000C1814001C0804101C0804100C181B5
:10D96A004001C0804100C1814000C1814001C080A6
:10D97A004100C1814001C0804101C0804100C18194
:10D98A004001C0804100C1814000C1814001C08086
:10D99A004101C0804100C1814000C1814001C08075
:10D9AA004100C1814001C0804101C0804100C18164
:10D9BA004000C0C101C30302C2C60607C705C5C4E9
:10D9CA0004CC0C0DCD0FCFCE0E0ACACB0BC9090859
:10D9DA00C8D81819D91BDBDA1A1EDEDF1FDD1D1C99
:10D9EA00DC14D4D515D71716D6D21213D311D1D029
:10D9FA0010F03031F133F3F23236F6F737F53534C9
:10DA0A00F43CFCFD3DFF3F3EFEFA3A3BFB39F9F898
:10DA1A003828E8E929EB2B2AEAEE2E2FEF2DEDEC38
:10DA2A002CE42425E527E7E62622E2E323E1212068
:10DA3A00E0A06061A163A3A26266A6A767A5656468
:10DA4A00A46CACAD6DAF6F6EAEAA6A6BAB69A9A8D8
:10DA5A006878B8B979BB7B7ABABE7E7FBF7DBDBC18
:10DA6A007CB47475B577B7B67672B2B373B17170A8
:10DA7A00B050909151935352929656579755959408
:10DA8A00549C5C5D9D5F9F9E5E5A9A9B5B99595818
:10DA9A0098884849894B8B8A4A4E8E8F4F8D4D4CB8
:10DAAA008C448485458747468682424383418180E8
:10DABA004000C1814001C0804101C0804100C18154
:10DACA004001C0804100C1814000C1814001C08045
:10DADA004101C0804100C1814000C1814001C08034
:10DAEA004100C1814001C0804101C0804100C18123
:10DAFA004001C0804100C1814000C1814001C08015
:10DB0A004100C1814001C0804101C0804100C18102
:10DB1A004000C1814001C0804101C0804100C181F3
:10DB2A004001C0804100C1814000C1814001C080E4
:10DB3A004101C0804100C1814000C1814001C080D3
:10DB4A004100C1814001C0804101C0804100C181C2
:10DB5A004000C1814001C0804101C0804100C181B3
:10DB6A004001C0804100C1814000C1814001C080A4
:10DB7A004100C1814001C0804101C0804100C18192
:10DB8A004001C0804100C1814000C1814001C08084
:10DB9A004101C0804100C1814000C1814001C08073
:10DBAA004100C1814001C0804101C0804100C18162
:10DBBA004000C0C101C30302C2C60607C705C5C4E7
:10DBCA0004CC0C0DCD0FCFCE0E0ACACB0BC9090857
:10DBDA00C8D81819D91BDBDA1A1EDEDF1FDD1D1C97
:10DBEA00DC14D4D515D71716D6D21213D311D1D027
:10DBFA0010F03031F133F3F23236F6F737F53534C7
:10DC0A00F43CFCFD3DFF3F3EFEFA3A3BFB39F9F896
:10DC1A003828E8E929EB2B2AEAEE2E2FEF2DEDEC36
:10DC2A002CE42425E527E7E62622E2E323E1212066
:10DC3A00E0A06061A163A3A26266A6A767A5656466
:10DC4A00A46CACAD6DAF6F6EAEAA6A6BAB69A9A8D6
:10DC5A006878B8B979BB7B7ABABE7E7FBF7DBDBC16
:10DC6A007CB47475B577B7B67672B2B373B17170A6
:10DC7A00B050909151935352929656579755959406
:10DC8A00549C5C5D9D5F9F9E5E5A9A9B5B99595816
:10DC9A0098884849894B8B8A4A4E8E8F4F8D4D4CB6
:10DCAA008C448485458747468682424383418180E6
:10DCBA004000C1814001C0804101C0804100C18152
:10DCCA004001C0804100C1814000C1814001C08043
:10DCDA004101C0804100C1814000C1814001C08032
:10DCEA004100C1814001C0804101C0804100C18121
:10DCFA004001C0804100C1814000C1814001C08013
:10DD0A004100C1814001C0804101C0804100C18100
:10DD1A004000C1814001C0804101C0804100C181F1
:10DD2A004001C0804100C1814000C1814001C080E2
:10DD3A004101C0804100C1814000C1814001C080D1
:10DD4A004100C1814001C0804101C0804100C181C0
:10DD5A004000C1814001C0804101C0804100C181B1
:10DD6A004001C0804100C1814000C1814001C080A2
:10DD7A004100C1814001C0804101C0804100C18190
:10DD8A004001C0804100C1814000C1814001C08082
:10DD9A004101C0804100C1814000C1814001C08071
:10DDAA004100C1814001C0804101C0804100C18160
:10DDBA004000C0C101C30302C2C60607C705C5C4E5
:10DDCA0004CC0C0DCD0FCFCE0E0ACACB0BC9090855
:10DDDA00C8D81819D91BDBDA1A1EDEDF1FDD1D1C95
:10DDEA00DC14D4D515D71716D6D21213D311D1D025
:10DDFA0010F03031F133F3F23236F6F737F53534C5
:10DE0A00F43CFCFD3DFF3F3EFEFA3A3BFB39F9F894
:10DE1A003828E8E929EB2B2AEAEE2E2FEF2DEDEC34
:10DE2A002CE42425E527E7E62622E2E323E1212064
:10DE3A00E0A06061A163A3A26266A6A767A5656464
:10DE4A00A46CACAD6DAF6F6EAEAA6A6BAB69A9A8D4
:10DE5A006878B8B979BB7B7ABABE7E7FBF7DBDBC14
:10DE6A007CB47475B577B7B67672B2B373B17170A4
:10DE7A00B050909151935352929656579755959404
:10DE8A00549C5C5D9D5F9F9E5E5A9A9B5B99595814
:10DE9A0098884849894B8B8A4A4E8E8F4F8D4D4CB4
:10DEAA008C448485458747468682424383418180E4
:10DEBA004000C1814001C0804101C0804100C18150
:10DECA004001C0804100C1814000C1814001C08041
:10DEDA004101C0804100C1814000C1814001C08030
:10DEEA004100C1814001C0804101C0804100C1811F
:10DEFA004001C0804100C1814000C1814001C08011
:10DF0A004100C1814001C0804101C0804100C181FE
:10DF1A004000C1814001C0804101C0804100C181EF
:10DF2A004001C0804100C1814000C1814001C080E0
:10DF3A004101C0804100C1814000C1814001C080CF
:10DF4A004100C1814001C0804101C0804100C181BE
:10DF5A004000C1814001C0804101C0804100C181AF
:10DF6A004001C0804100C1814000C1814001C080A0
:10DF7A004100C1814001C0804101C0804100C1818E
:10DF8A004001C0804100C1814000C1814001C08080
:10DF9A004101C0804100C1814000C1814001C0806F
:10DFAA004100C1814001C0804101C0804100C1815E
:10DFBA004000C0C101C30302C2C60607C705C5C4E3
:10DFCA0004CC0C0DCD0FCFCE0E0ACACB0BC9090853
:10DFDA00C8D81819D91BDBDA1A1EDEDF1FDD1D1C93
:10DFEA00DC14D4D515D71716D6D21213D311D1D023
:10DFFA0010F03031F133F3F23236F6F737F53534C3
:10E00A00F43CFCFD3DFF3F3EFEFA3A3BFB39F9F892
:10E01A003828E8E929EB2B2AEAEE2E2FEF2DEDEC32
:10E02A002CE42425E527E7E62622E2E323E1212062
:10E03A00E0A06061A163A3A26266A6A767A5656462
:10E04A00A46CACAD6DAF6F6EAEAA6A6BAB69A9A8D2
:10E05A006878B8B979BB7B7ABABE7E7FBF7DBDBC12
:10E06A007CB47475B577B7B67672B2B373B17170A2
:10E07A00B050909151935352929656579755959402
:10E08A00549C5C5D9D5F9F9E5E5A9A9B5B99595812
:10E09A0098884849894B8B8A4A4E8E8F4F8D4D4CB2
:10E0AA008C448485458747468682424383418180E2
:10E0BA004000C1814001C0804101C0804100C1814E
:10E0CA004001C0804100C1814000C1814001C0803F
:10E0DA004101C0804100C1814000C1814001C0802E
:10E0EA004100C1814001C0804101C0804100C1811D
:10E0FA004001C0804100C1814000C1814001C0800F
:10E10A004100C1814001C0804101C0804100C181FC
:10E11A004000C1814001C0804101C0804100C181ED
:10E12A004001C0804100C1814000C1814001C080DE
:10E13A004101C0804100C1814000C1814001C080CD
:10E14A004100C1814001C0804101C0804100C181BC
:10E15A004000C1814001C0804101C0804100C181AD
:10E16A004001C0804100C1814000C1814001C0809E
:10E17A004100C1814001C0804101C0804100C1818C
:10E18A004001C0804100C1814000C1814001C0807E
:10E19A004101C0804100C1814000C1814001C0806D
:10E1AA004100C1814001C0804101C0804100C1815C
:10E1BA004000C0C101C30302C2C60607C705C5C4E1
:10E1CA0004CC0C0DCD0FCFCE0E0ACACB0BC9090851
:10E1DA00C8D81819D91BDBDA1A1EDEDF1FDD1D1C91
:10E1EA00DC14D4D515D71716D6D21213D311D1D021
:10E1FA0010F03031F133F3F23236F6F737F53534C1
:10E20A00F43CFCFD3DFF3F3EFEFA3A3BFB39F9F890
:10E21A003828E8E929EB2B2AEAEE2E2FEF2DEDEC30
:10E22A002CE42425E527E7E62622E2E323E1212060
:10E23A00E0A06061A163A3A26266A6A767A5656460
:10E24A00A46CACAD6DAF6F6EAEAA6A6BAB69A9A8D0
:10E25A006878B8B979BB7B7ABABE7E7FBF7DBDBC10
:10E26A007CB47475B577B7B67672B2B373B17170A0
:10E27A00B050909151935352929656579755959400
:10E28A00549C5C5D9D5F9F9E5E5A9A9B5B99595810
:10E29A0098884849894B8B8A4A4E8E8F4F8D4D4CB0
:10E2AA008C448485458747468682424383418180E0
:10E2BA004000C1814001C0804101C0804100C1814C
:10E2CA004001C0804100C1814000C1814001C0803D
:10E2DA004101C0804100C1814000C1814001C0802C
:10E2EA004100C1814001C0804101C0804100C1811B
:10E2FA004001C0804100C1814000C1814001C0800D
:10E30A004100C1814001C0804101C0804100C181FA
:10E31A004000C1814001C0804101C0804100C181EB
:10E32A004001C0804100C1814000C1814001C080DC
:10E33A004101C0804100C1814000C1814001C080CB
:10E34A004100C1814001C0804101C0804100C181BA
:10E35A004000C1814001C0804101C0804100C181AB
:10E36A004001C0804100C1814000C1814001C0809C
:10E37A004100C1814001C0804101C0804100C1818A
:10E38A004001C0804100C1814000C1814001C0807C
:10E39A004101C0804100C1814000C1814001C0806B
:10E3AA004100C1814001C0804101C0804100C1815A
:10E3BA004000C0C101C30302C2C60607C705C5C4DF
:10E3CA0004CC0C0DCD0FCFCE0E0ACACB0BC909084F
:10E3DA00C8D81819D91BDBDA1A1EDEDF1FDD1D1C8F
:10E3EA00DC14D4D515D71716D6D21213D311D1D01F
:10E3FA0010F03031F133F3F23236F6F737F53534BF
:10E40A00F43CFCFD3DFF3F3EFEFA3A3BFB39F9F88E
:10E41A003828E8E929EB2B2AEAEE2E2FEF2DEDEC2E
:10E42A002CE42425E527E7E62622E2E323E121205E
:10E43A00E0A06061A163A3A26266A6A767A565645E
:10E44A00A46CACAD6DAF6F6EAEAA6A6BAB69A9A8CE
:10E45A006878B8B979BB7B7ABABE7E7FBF7DBDBC0E
:10E46A007CB47475B577B7B67672B2B373B171709E
:10E47A00B0509091519353529296565797559594FE
:10E48A00549C5C5D9D5F9F9E5E5A9A9B5B9959580E
:10E49A0098884849894B8B8A4A4E8E8F4F8D4D4CAE
:10E4AA008C448485458747468682424383418180DE
:10E4BA004000C1814001C0804101C0804100C1814A
:10E4CA004001C0804100C1814000C1814001C0803B
:10E4DA004101C0804100C1814000C1814001C0802A
:10E4EA004100C1814001C0804101C0804100C18119
:10E4FA004001C0804100C1814000C1814001C0800B
:10E50A004100C1814001C0804101C0804100C181F8
:10E51A004000C1814001C0804101C0804100C181E9
:10E52A004001C0804100C1814000C1814001C080DA
:10E53A004101C0804100C1814000C1814001C080C9
:10E54A004100C1814001C0804101C0804100C181B8
:10E55A004000C1814001C0804101C0804100C181A9
:10E56A004001C0804100C1814000C1814001C0809A
:10E57A004100C1814001C0804101C0804100C18188
:10E58A004001C0804100C1814000C1814001C0807A
:10E59A004101C0804100C1814000C1814001C08069
:10E5AA004100C1814001C0804101C0804100C18158
:10E5BA004000C0C101C30302C2C60607C705C5C4DD
:10E5CA0004CC0C0DCD0FCFCE0E0ACACB0BC909084D
:10E5DA00C8D81819D91BDBDA1A1EDEDF1FDD1D1C8D
:10E5EA00DC14D4D515D71716D6D21213D311D1D01D
:10E5FA0010F03031F133F3F23236F6F737F53534BD
:10E60A00F43CFCFD3DFF3F3EFEFA3A3BFB39F9F88C
:10E61A003828E8E929EB2B2AEAEE2E2FEF2DEDEC2C
:10E62A002CE42425E527E7E62622E2E323E121205C
:10E63A00E0A06061A163A3A26266A6A767A565645C
:10E64A00A46CACAD6DAF6F6EAEAA6A6BAB69A9A8CC
:10E65A006878B8B979BB7B7ABABE7E7FBF7DBDBC0C
:10E66A007CB47475B577B7B67672B2B373B171709C
:10E67A00B0509091519353529296565797559594FC
:10E68A00549C5C5D9D5F9F9E5E5A9A9B5B9959580C
:10E69A0098884849894B8B8A4A4E8E8F4F8D4D4CAC
:10E6AA008C448485458747468682424383418180DC
:10E6BA004000C1814001C0804101C0804100C18148
:10E6CA004001C0804100C1814000C1814001C08039
:10E6DA004101C0804100C1814000C1814001C08028
:10E6EA004100C1814001C0804101C0804100C18117
:10E6FA004001C0804100C1814000C1814001C08009
:10E70A004100C1814001C0804101C0804100C181F6
:10E71A004000C1814001C0804101C0804100C181E7
:10E72A004001C0804100C1814000C1814001C080D8
:10E73A004101C0804100C1814000C1814001C080C7
:10E74A004100C1814001C0804101C0804100C181B6
:10E75A004000C1814001C0804101C0804100C181A7
:10E76A004001C0804100C1814000C1814001C08098
:10E77A004100C1814001C0804101C0804100C18186
:10E78A004001C0804100C1814000C1814001C08078
:10E79A004101C0804100C1814000C1814001C08067
:10E7AA004100C1814001C0804101C0804100C18156
:10E7BA004000C0C101C30302C2C60607C705C5C4DB
:10E7CA0004CC0C0DCD0FCFCE0E0ACACB0BC909084B
:10E7DA00C8D81819D91BDBDA1A1EDEDF1FDD1D1C8B
:10E7EA00DC14D4D515D71716D6D21213D311D1D01B
:10E7FA0010F03031F133F3F23236F6F737F53534BB
:10E80A00F43CFCFD3DFF3F3EFEFA3A3BFB39F9F88A
:10E81A003828E8E929EB2B2AEAEE2E2FEF2DEDEC2A
:10E82A002CE42425E527E7E62622E2E323E121205A
:10E83A00E0A06061A163A3A26266A6A767A565645A
:10E84A00A46CACAD6DAF6F6EAEAA6A6BAB69A9A8CA
:10E85A006878B8B979BB7B7ABABE7E7FBF7DBDBC0A
:10E86A007CB47475B577B7B67672B2B373B171709A
:10E87A00B0509091519353529296565797559594FA
:10E88A00549C5C5D9D5F9F9E5E5A9A9B5B9959580A
:10E89A0098884849894B8B8A4A4E8E8F4F8D4D4CAA
:10E8AA008C448485458747468682424383418180DA
:10E8BA004000C1814001C0804101C0804100C18146
:10E8CA004001C0804100C1814000C1814001C08037
:10E8DA004101C0804100C1814000C1814001C08026
:10E8EA004100C1814001C0804101C0804100C18115
:10E8FA004001C0804100C1814000C1814001C08007
:10E90A004100C1814001C0804101C0804100C181F4
:10E91A004000C1814001C0804101C0804100C181E5
:10E92A004001C0804100C1814000C1814001C080D6
:10E93A004101C0804100C1814000C1814001C080C5
:10E94A004100C1814001C0804101C0804100C181B4
:10E95A004000C1814001C0804101C0804100C181A5
:10E96A004001C0804100C1814000C1814001C08096
:10E97A004100C1814001C0804101C0804100C18184
:10E98A004001C0804100C1814000C1814001C08076
:10E99A004101C0804100C1814000C1814001C08065
:10E9AA004100C1814001C0804101C0804100C18154
:10E9BA004000C0C101C30302C2C60607C705C5C4D9
:10E9CA0004CC0C0DCD0FCFCE0E0ACACB0BC9090849
:10E9DA00C8D81819D91BDBDA1A1EDEDF1FDD1D1C89
:10E9EA00DC14D4D515D71716D6D21213D311D1D019
:10E9FA0010F03031F133F3F23236F6F737F53534B9
:10EA0A00F43CFCFD3DFF3F3EFEFA3A3BFB39F9F888
:10EA1A003828E8E929EB2B2AEAEE2E2FEF2DEDEC28
:10EA2A002CE42425E527E7E62622E2E323E1212058
:10EA3A00E0A06061A163A3A26266A6A767A5656458
:10EA4A00A46CACAD6DAF6F6EAEAA6A6BAB69A9A8C8
:10EA5A006878B8B979BB7B7ABABE7E7FBF7DBDBC08
:10EA6A007CB47475B577B7B67672B2B373B1717098
:10EA7A00B0509091519353529296565797559594F8
:10EA8A00549C5C5D9D5F9F9E5E5A9A9B5B99595808
:10EA9A0098884849894B8B8A4A4E8E8F4F8D4D4CA8
:10EAAA008C448485458747468682424383418180D8
:10EABA004000C1814001C0804101C0804100C18144
:10EACA004001C0804100C1814000C1814001C08035
:10EADA004101C0804100C1814000C1814001C08024
:10EAEA004100C1814001C0804101C0804100C18113
:10EAFA004001C0804100C1814000C1814001C08005
:10EB0A004100C1814001C0804101C0804100C181F2
:10EB1A004000C1814001C0804101C0804100C181E3
:10EB2A004001C0804100C1814000C1814001C080D4
:10EB3A004101C0804100C1814000C1814001C080C3
:10EB4A004100C1814001C0804101C0804100C181B2
:10EB5A004000C1814001C0804101C0804100C181A3
:10EB6A004001C0804100C1814000C1814001C08094
:10EB7A004100C1814001C0804101C0804100C18182
:10EB8A004001C0804100C1814000C1814001C08074
:10EB9A004101C0804100C1814000C1814001C08063
:10EBAA004100C1814001C0804101C0804100C18152
:10EBBA004000C0C101C30302C2C60607C705C5C4D7
:10EBCA0004CC0C0DCD0FCFCE0E0ACACB0BC9090847
:10EBDA00C8D81819D91BDBDA1A1EDEDF1FDD1D1C87
:10EBEA00DC14D4D515D71716D6D21213D311D1D017
:10EBFA0010F03031F133F3F23236F6F737F53534B7
:10EC0A00F43CFCFD3DFF3F3EFEFA3A3BFB39F9F886
:10EC1A003828E8E929EB2B2AEAEE2E2FEF2DEDEC26
:10EC2A002CE42425E527E7E62622E2E323E1212056
:10EC3A00E0A06061A163A3A26266A6A767A5656456
:10EC4A00A46CACAD6DAF6F6EAEAA6A6BAB69A9A8C6
:10EC5A006878B8B979BB7B7ABABE7E7FBF7DBDBC06
:10EC6A007CB47475B577B7B67672B2B373B1717096
:10EC7A00B0509091519353529296565797559594F6
:10EC8A00549C5C5D9D5F9F9E5E5A9A9B5B99595806
:10EC9A0098884849894B8B8A4A4E8E8F4F8D4D4CA6
:10ECAA008C448485458747468682424383418180D6
:10ECBA004000C1814001C0804101C0804100C18142
:10ECCA004001C0804100C1814000C1814001C08033
:10ECDA004101C0804100C1814000C1814001C08022
:10ECEA004100C1814001C0804101C0804100C18111
:10ECFA004001C0804100C1814000C1814001C08003
:10ED0A004100C1814001C0804101C0804100C181F0
:10ED1A004000C1814001C0804101C0804100C181E1
:10ED2A004001C0804100C1814000C1814001C080D2
:10ED3A004101C0804100C1814000C1814001C080C1
:10ED4A004100C1814001C0804101C0804100C181B0
:10ED5A004000C1814001C0804101C0804100C181A1
:10ED6A004001C0804100C1814000C1814001C08092
:10ED7A004100C1814001C0804101C0804100C18180
:10ED8A004001C0804100C1814000C1814001C08072
:10ED9A004101C0804100C1814000C1814001C08061
:10EDAA004100C1814001C0804101C0804100C18150
:10EDBA004001030000000000000000000000000005
:10EDCA000000000000000000000000000000000039
:10EDDA000000000000000000000000000000000029
:10EDEA000000000000000000000000000000000019
:10EDFA000000000000000000000000000000000009
:10EE0A0000000000000000000000000000000000F8
:10EE1A0000000000000000000000000000000000E8
:10EE2A0000000000000000000000000000000000D8
:10EE3A0000000000000001030000000000000000C4
:10EE4A0000000000000000000000000000000000B8
:10EE5A0000000000000000000000000000000000A8
:10EE6A000000000000000000000000000000000098
:10EE7A000000000000000000000000000000000088
:10EE8A000000000000000000000000000000000078
:10EE9A000000000000000000000000000000000068
:10EEAA0000000025732025642025732020202020BF
:10EEBA002020202020202020202020202020202048
:10EECA002020202020202020202020202020202038
:10EEDA0020004F4E4C494E45204125642C20522596
:10EEEA006420524625642C20542564205446256407
:10EEFA002C204325642025642025732020202020EF
:10EF0A0000486F7374204125642C205225642052D6
:10EF1A004625642C2054256420544625642C20431D
:10EF2A00256420256420257320202020202020000D
:10EF3A00554E4B20464F524D4154204125642C20BA
:10EF4A0052256420524625642C20542564205446B8
:10EF5A0025642C2043256420257320202000257356
:10EF6A00202573202020202020202020202020203F
:10EF7A002020202020202020202020202020202087
:10EF8A0020202020202020200025732025732020E7
:10EF9A002020202020202020202020202020202067
:10EFAA002020202020202020202020202020202057
:10EFBA000056332E303120464D783020696E746504
:10EFCA00726661636520513834004F66666C696EFB
:10EFDA0065000000000043414E4255530000000006
:10EFEA000000010300000000000000000000000013
:10EFFA0000000000000000000103000000D600002D
:10F00A000001000000DA00000103000000D6000041
:10F01A000000000000D9001F1E1F1E1F1F1E1F1EFA
:10F02A001F1F1D010600000000000001060000006D
:10F03A0000000001060000000000000103000000BB
:10F04A0000000103000000000083200304000024E4
:10F05A000500018324030400CD0C0543E56121402A
:10F06A000000000000008045CD0C0543E561214009
:10F07A00008080420080804200000000000080453D
:10F08A00CD0C0543E561214000808042008080422A
:10F09A000000000000008045CD0C0543E5612140D9
:10F0AA00008080420080804200000000000080450D
:10F0BA00BC000000BA7FFFFEC800800034000000D8
:10F0CA00CD0C0543E56121400080804200808042EA
:10F0DA000000000000008045CD0C0543E561214099
:10F0EA0000808042008080420000000000008045CD
:10F0FA00CD0C0543E56121400080804200808042BA
:10F10A000000000000008045CD0C0543E561214068
:10F11A00008080420080804200000000000080459C
:10F12A00CD0C0543E5612140008080420080804289
:10F13A000000000000008045CD0C0543E561214038
:10F14A00008080420080804200000000000080456C
:10F15A0000008045180000B004DC05F4016400DCFE
:10F16A0005F4011027B80B3075059904990399B075
:10F17A0004DC05F4016400DC05F4011027B80B0572
:10F18A009904990399B004DC05F4016400DC05F4E0
:10F19A00011027B80B059904990399B004DC05F40A
:10F1AA00016400DC05F4011027B80B0599049903E2
:10F1BA0099B004DC05F4016400DC05F4011027B8F9
:10F1CA000B059904990399B004DC05F4016400DC89
:10F1DA0005F4011027B80BB004DC05F4016400DC67
:10F1EA0005F4011027B80B059904990399B004DCBA
:10F1FA0005F4016400DC05F4011027B80BB004DC47
:10F20A0005F4016400DC05F4011027B80B3075051C
:10F21A009904990399B004DC05F4016400DC05F44F
:10F22A00011027B80B3075E8FF3C0023000599044C
:10F23A00990399B004DC05F4016400DC05F40110BB
:10F24A0027B80B465A2D01204601FF000228040266
:10F25A0028C80102FF000228040228C8010280030C
:10F26A00C80107070707070707050440400FF00111
:10F27A00050F67FF4010F0E0D0C0B0A090800046B4
:10F28A005A2D01204601FF000228040228C8010263
:10F29A0007070707070707050440400FF001050F96
:10F2AA0067FF4010F0E0D0C0B0A0908000465A2D11
:10F2BA0001204601FF000228040228C801020707AC
:10F2CA000707070707050440400FF001050F67FF0E
:10F2DA004010F0E0D0C0B0A0908000465A2D012026
:10F2EA004601FF000228040228C80102070707078F
:10F2FA00070707050440400FF001050F67FF40109C
:10F30A00F0E0D0C0B0A0908000465A2D01204601FE
:10F31A00FF000228040228C8010207070707070797
:10F32A0007050440400FF001050F67FF4010F0E0A9
:10F33A00D0C0B0A0908000465A2D01204601FF009F
:10F34A000228040228C80102465A2D01204601FF5C
:10F35A00000228040228C80102070707070707074F
:10F36A00050440400FF001050F67FF4010F0E0D0A0
:10F37A00C0B0A0908000465A2D01204601FF00022D
:10F38A0028040228C80102465A2D01204601FF001E
:10F39A000228040228C801028003C80107070707D8
:10F3AA00070707050440400FF001050F67FF4010EB
:10F3BA00F0E0D0C0B0A0908000465A2D012046014E
:10F3CA00FF000228040228C801028003C8010707B7
:10F3DA000707070707050440400FF001050F67FFFD
:10F3EA004010F0E0D0C0B0A0908000465A2D012015
:10F3FA004601FF000228040228C801025E2C256487
:10F40A002C25332E32662C25332E32662C25332EAC
:10F41A0032662C25332E32662C25332E32662C2565
:10F42A00332E32662C25332E32662C25332E326645
:10F43A002C25642E253031642C25642E2530316428
:10F44A002C25642E253031642C25642C25642C252A
:10F45A00642C25642C25642C256C6C752C25372E80
:10F46A0034662C25372E34662C25362E34662C2508
:10F47A00372E34662C313935372C7E454F542020AF
:10F48A002020202020202020202020202020202072
:10F49A002020202020202020202020202020202062
:10F4AA002020202020202020202020202020202052
:10F4BA000D0A005E2C25642C25332E32662C25334A
:10F4CA002E32662C25332E32662C25332E32662CAC
:10F4DA0025332E32662C25332E32662C25332E32D6
:10F4EA00662C25332E32662C25642E253031642C69
:10F4FA0025642E253031642C25642E253031642C68
:10F50A0025642C25642C25642C25642C25642C2543
:10F51A006C6C752C25372E34662C25372E34662CC8
:10F52A0025362E34662C25372E34662C313935375C
:10F53A002C7E454F542020202020202020202020CF
:10F54A0020202020202020202020202020202020B1
:10F55A0020202020202020202020202020202020A1
:10F56A00202020202020200D0A005E2C25642C2536
:10F57A00332E32662C25332E32662C25332E3266F4
:10F58A002C25332E32662C25332E32662C25332E2B
:10F59A0032662C25332E32662C25332E32662C25E4
:10F5AA00642E253031642C25642E253031642C25B7
:10F5BA00642E253031642C25642C25642C25642C7A
:10F5CA0025642C25642C256C6C752C25362E346606
:10F5DA002C25362E34662C25362E34662C25362ECE
:10F5EA0034662C313935372C7E454F542020202063
:10F5FA002020202020202020202020202020202001
:10F60A0020202020202020202020202020202020F0
:10F61A0020202020202020202020202020200D0A09
:10F62A00005E2C25642C25332E32662C25332E328F
:10F63A00662C25332E32662C25332E32662C253342
:10F64A002E32662C25332E32662C25332E32662C2A
:10F65A0025332E32662C25642E253031642C256400
:10F66A002E253031642C25642E253031642C2564F6
:10F67A002C25642C25642C25642C25642C256C6C83
:10F68A00752C25362E33662C25362E33662C2536D8
:10F69A002E33662C25362E33662C313935372C7E9F
:10F6AA00454F5420202020202020202020202020C8
:10F6BA002020202020202020202020202020202040
:10F6CA002020202020202020202020202020202030
:10F6DA0020202020200D0A007C7C2F2F2D2D0000B9
:10F6EA000000000000000000000000007C7C2F2FBA
:10F6FA002D2D5C5C000000000000000000000000EE
:10F70A004F4F4F4F4F4F2D2D5F5F2D0000000000D0
:10F71A000000000076763C3C5E5E3E3E0000000043
:10F72A0000000000000000002E2E2A2A78237823E9
:10F73A0058587C7C2D2D0000000000002E2E6F6F83
:10F74A004F4F6F6F00000000000000000000000033
:10F75A00536C65657000000000000000466C6F6124
:10F76A00740000000000000042756C6B000000008D
:10F77A00000000004162736F726200000000000026
:10F78A00457175616C697A65000000004E2F412051
:10F79A0000000000000000004F66666C696E65009C
:10F7AA0000000000454D3534300000000000000024
:10F7BA004F66666C696E650000000000464D783041
:10F7CA0000000000000000000001030040000200E9
:10F7DA0000000100000046000001020000000400D1
:10F7EA000000000000000600000102000000030003
:10F7FA0000000000000005000001020000000200F5
:10F80A0000000000000004000001020000000000E7
:10F81A0000000000000002000001020001006A006E
:10F82A000000000000006D00000102000100C70096
:10F83A00000000000000CA000001020000000800E9
:10F84A000000000000000A00000102000100C600DA
:10F85A00000000000000C9000001040000000100CF
:10F86A000000000000000500000102000100C800BD
:10F87A00000000000000CB000001020000000000B0
:10F88A00000000000000020001061604000501063F
:10F89A0010000000010610020000010350000008D9
:10F8AA0001030500004001030000003401030302C4
:10F8BA0000010103000B00010080804200808042A9
:10F8CA002DB2804239B480421FC58042CFB78042F0
:10F8DA009A995E4266665E42E590584289C15842EC
:10F8EA0073488042C5608042FC898042FC8980421C
:10F8FA000080804200808042B400000204000000C0
:10F90A00020000010A000001C77FFFFFC57FFFFF59
:10F91A00B4001000B77FFFFFB8000001C20000006A
:10F92A00E4000001CD0C0543E561214000808042DE
:10F93A0000808042000000000400000CFFFF0B0062
:10F94A000010FFFF40F7424D4320256C7520203000
:10F95A0058252E3258202020202020202020202008
:10F96A00202020202020202020202020202020208D
:10F97A0020200025322E31664B576820666C6F6155
:10F98A00742025332E316668202020202020202054
:10F99A00202020202020202020202020202020007D
:10F9AA000D2D2D2D205449433132343030204472EC
:10F9BA00697665722056657273696F6E20257320A9
:10F9CA002573202573202D2D2D0D0A000D2D2D2D8B
:10F9DA00204D4333333939362044726976657220B3
:10F9EA0056657273696F6E202573202573202573FF
:10F9FA00202D2D2D0D0A004241542025642E25303C
:10FA0A003164562050562025642E25303164562004
:10FA1A0020202020202020202020202020202020DC
:10FA2A0000342025362E3366562C352025362E33C3
:10FA3A006656202020202020202020202020202040
:10FA4A00202020202020202000426D61782025756A
:10FA5A005620426D696E20257556202020202020D0
:10FA6A00202020202020202020202020202020208C
:10FA7A0000424D4320256C75202020202020202084
:10FA8A00202020202020202020202020202020206C
:10FA9A00202020202020200025342E3266487A207B
:10FAAA0025332E32664120202020202020202020AD
:10FABA002020202020202020202020202020004F2D
:10FACA004620256C752045525220256C7520202031
:10FADA00202020202020202020202020202020201C
:10FAEA0020202020200020256C6C582052756E2082
:10FAFA00446973706C6179203058252E3258202061
:10FB0A002020202020202020202020004A616E462C
:10FB1A0065624D61724170724D61794A756E4A75BE
:10FB2A006C4175675365704F63744E6F76446563B5
:10FB3A000025342E3166572025342E316656412051
:10FB4A0025332E31665046202020202020202020D8
:10FB5A00202020200025732056657220257320203E
:10FB6A00202020202020202020202020202020208B
:10FB7A0020202020200025732025732025642E258F
:10FB8A00303164412025644120202020202020207B
:10FB9A0020202020202000204D6573672025642026
:10FBAA00537461636B2025642020202020202020AC
:10FBBA00202020202020004D554920256C6C5820FB
:10FBCA005049432025582020202020202020202072
:10FBDA0020202020202000205465726D696E616CFF
:10FBEA0020496E666F2020202020202020202020FF
:10FBFA00202020200025732025732020202020206B
:10FC0A0020202020202020202020202020202020EA
:10FC1A0020002048454C502053637265656E3A2097
:10FC2A002564202020202020202020202000257349
:10FC3A0020202020202020202020202020202020BA
:10FC4A0020202020202020202000257320256C64DD
:10FC5A005641432025332E32664120202020202081
:10FC6A0020202020200020506F7274204C6F636B7C
:10FC7A00202325642020202020202020202020202E
:10FC8A0000205465726D696E616C20256420202005
:10FC9A00202020202020202020200020434D442006
:10FCAA002563202563204C656E20256420202020B2
:10FCBA0020202020002025635049204441515F42E2
:10FCCA004D43202573202020202020202000484555
:10FCDA004C50202573202020202020202020202066
:10FCEA00202020202000204F70656E204C4C2020C0
:10FCFA0020202020202020202020202020002050EA
:10FD0A00756D70204C4C202020202020202020209F
:10FD1A00202020202000205265616479204C4C204C
:10FD2A0020202020202020202020202020002053B6
:10FD3A003246343120232563202020202020202011
:10FD4A00202020202000444953504C41592025733B
:10FD5A002020202020202020202020202000205386
:10FD6A00746F7265642023256420202020202020BF
:10FD7A00202020202000767465726D2025783A258F
:10FD8A0078202020202020202020202020002053FE
:10FD9A00455155454E4345202564202020202020EA
:10FDAA0020202020200020446973706C6179206E25
:10FDBA00756D20256420202020202020200020533B
:10FDCA002564462564206C6F672020202025642046
:10FDDA00202020202000204C6F61642D6C6F636B03
:10FDEA00206E756D202564202020202020002025EB
:10FDFA0073202020202020202020202020202020A6
:10FE0A00202020200020494E464F2020202020205C
:10FE1A002020202020202020202020002056544569
:10FE2A00524D20494E464F202020202020202020BD
:10FE3A0020200020565445524D2048454C50202041
:10FE4A00202020202020202020002056657273695F
:10FE5A006F6E2025732020202020202020202020A3
:10FE6A000020257320416C6C2044657620202020D8
:10FE7A0020202020202020002048454C5020427578
:10FE8A00696C642025732020202020202020002057
:10FE9A00257320416E616C6F6720446576202020AF
:10FEAA0020202020200053756E4D6F6E54756557C3
:10FEBA0065645468754672695361740048454C50CC
:10FECA0020257320202020202020202020202020D0
:10FEDA00200043616C6962726174696F6E20436FBE
:10FEEA006D706C6574652000506F727420257320E4
:10FEFA002020202020202020202020200052656160
:10FF0A006420454550524F4D204441544120202001
:10FF1A002000577269746520454550524F4D204460
:10FF2A004154412020200055706461746520454584
:10FF3A0050524F4D2044415441202000496E766171
:10FF4A006C696420454550524F4D2044415441202C
:10FF5A00002573202020202020202020202020205F
:10FF6A0020202020004C6F636B65642031313532CC
:10FF7A00303062707300466562203230203230328F
:10FF8A00360031303A30303A333800434F4D4D2045
:10FF9A002020004552524F522020004F4E4C494ECD
:10FFAA0045200052454D4F54452000444953414293
:10FFBA004C45004F46464C494E4500286E756C6CC0
:10FFCA00290056302E35330034375138340035374E
:10FFDA005138340056302E370056302E3800494EEC
:10FFEA0046004E414E00696E66006E616E00474DD6
:06FFFA0054002573000015
:020000040001F9
:1000000000019451D8BC05D0010E0501ED6F210E01
:10001000FF6F79ECDDF09F94C4ECECF0D68ED68CBB
:10002000BF82BF84BF86EDECE7F078ECE9F0000E0C
:100030006100A2F3F3F122EED3F1070EDE6AE806C7
:10004000FDE20601F76BF751020DF3C4DAF6F4C4D2
:10005000DBF6000EDBBFFF0EDC6FDD6F000EDA2576
:1000600005017E6F000E0601DB2105017F6F2C0E5E
:100070000601DC210501806F5AECD6F00601F7512C
:10008000020DA30EF324D96E090EF420DA6E0501D9
:100090007EC5DEF47FC5DDF40601F751020DA30E27
:1000A000F324D96E090EF420DA6EDEC4DAF6DDC46C
:1000B000DBF6DA510901D3270601DB510901D4230C
:1000C000000ED523000ED623000ED723000ED82312
:1000D000000ED923000EDA230601F72B080EF76570
:1000E000B2D7D3C953F8D4C954F8D5C955F8D6C92D
:1000F00056F8D7C957F8D8C958F8D9C959F8DAC93C
:100100005AF8FC0E05017E6FFF0E7F6F3F0E806F69
:100110005AECD6F07EC551F87FC552F8FE0E7E6FC0
:10012000FF0E7F6F3F0E806F5AECD6F07EC54FF802
:100130007FC550F8050E08014F1904E1990E5019BA
:10014000D8B42ED0040E4F1906E1990E5019D8A438
:1001500002D04C8525D04C69000E526F5169FF0EBC
:10016000536F000E546F000E556F000E566F000E49
:10017000576F000E586F000E596F000E5A6FFF0E2A
:100180000901D36FFF0ED46FFF0ED56FFF0ED66F30
:10019000000ED76F000ED86F000ED96F000EDA6F09
:1001A00053C87EF554C87FF555C880F556C881F50B
:1001B00057C882F558C883F559C884F55AC885F5DB
:1001C000AAECC0F07A0E05017E6FCE0E7F6F010E95
:1001D000806F4CECEBF072ECE1F005017F6B140EDC
:1001E0007E6F090E6AECE7F04E0E7F6F200E7E6F79
:1001F0000C0E6AECE7F022EED3F1FF0EDE140901DB
:10020000D36FFF0EDE14D46FFF0EDE14D56FFF0E1A
:10021000DE14D66F000EDE14D76F000EDE14D86F1A
:10022000000EDE14D96F000EDE14DA6F98ECECF0DD
:10023000160E05017E6FCB0E7F6F010E806FA7EC4F
:10024000EBF095ECECF092ECECF0580E05017E6FC3
:10025000990E7F6F010E806FA0ECEBF0700E7E6F39
:10026000D90E7F6F010E806FC3ECEBF0A1ECECF0C8
:10027000DE0E05017E6FD80E7F6F010E806FBCEC25
:10028000EBF09EECECF06F0E0601ED6FFF0EEE6FE3
:10029000A5ECD6F00501846B640E836FA7ECE8F043
:1002A000BF94BF92BF96C2ECECF00701FCA56ED0E4
:1002B000FC953AECCEF00009D8B438D0000E050118
:1002C0007E6F000E8FECDEF07EC553F67FC554F6D0
:1002D000070E0601556FFF0E566FEFECDFF039EC9D
:1002E000E9F0000E05017E6F010E8FECDEF07EC599
:1002F00053F67FC554F6310E0601556FFF0E566F4B
:10030000EFECDFF02FECD3F0000E05017E6F010E55
:100310008FECDEF07EC553F67FC554F61C0E060149
:10032000556FFF0E566FEFECDFF011D0000E050198
:100330007E6F000E8FECDEF07EC553F67FC554F65F
:10034000460E0601556FFF0E566FEFECDFF0000E04
:1003500005017E6F030E8FECDEF07EC553F67FC580
:1003600054F6DC0E0601556FFE0E566FEFECDFF013
:1003700028EED7F3DF5069ECE9F01BECEBF0050E4B
:100380000501846FDC0E836FA7ECE8F008014CB523
:100390008FEF86F0C30E0501B66F0A0EB76F76ECCD
:1003A000A6F021D1820E05018C6FF80E8D6F5EECE8
:1003B000E0F0D80E0501CE6FC10ECF6F010ED06FE9
:1003C000050ED16FB7ECCDF03DD109019451D8A401
:1003D00013D0720E05018C6FF80E8D6F5EECE0F09D
:1003E000600E0501CE6F9D0ECF6F010ED06F050E12
:1003F000D16FB7ECCDF026D1D20E05018C6FF70E80
:100400008D6F5EECE0F05A0E0501CE6FD90ECF6F06
:10041000010ED06F050ED16FB7ECCDF013D1520E97
:1004200005018C6FF80E8D6F5EECE0F0FA0E0501A1
:10043000CE6FD80ECF6F010ED06F050ED16FB7EC17
:10044000CDF000D1420E05018C6FF80E8D6F5EEC81
:10045000E0F0FE0E0501CE6FD00ECF6F010ED06F13
:10046000050ED16FB7ECCDF0EDD0320E05018C6FDB
:10047000F80E8D6F5EECE0F0D60E0501CE6FD00E5B
:10048000CF6F010ED06F050ED16FB7ECCDF0DAD083
:10049000220E05018C6FF80E8D6F5EECE0F0040EFD
:1004A0000501CE6FCA0ECF6F010ED06F050ED16F52
:1004B000B7ECCDF0C7D0620E05018C6FF80E8D6FD2
:1004C0005EECE0F0660E0501CE6F9A0ECF6F010E66
:1004D000D06F100ED16FB7ECCDF0B4D0020E8C6F90
:1004E000F80E8D6F5EECE0F05E0E0501CE6FCC0E67
:1004F000CF6F010ED06F050ED16FB7ECCDF0A2D04B
:10050000F20E8C6FF70E8D6F5EECE0F0EDD7E20E21
:100510008C6FF70E8D6F5EECE0F05E0E0501CE6F16
:10052000CC0ECF6F010ED06F050ED16FB7ECCDF0B2
:100530000501EF6B87D00501EF51000AD8B4CED783
:10054000010AD8B4DDD7030AD8B4E1D7F1D7F00E49
:1005500005018C6F0A0E8D6F5EECE0F0260E050132
:10056000CE6F780ECF6F010ED06F110ED16FB7EC3A
:10057000CDF068D0EF0E05018C6F0C0E8D6F5EEC28
:10058000E0F0F40E0501CE6FD80ECF6F010ED06FE4
:10059000050ED16FB7ECCDF055D0EE0E05018C6F86
:1005A0000D0E8D6F5EECE0F0EE0E0501CE6FD80EF5
:1005B000CF6F010ED06F050ED16FB7ECCDF042D0EA
:1005C000120E05018C6FF80E8D6F5EECE0F02A0EB6
:1005D0000501CE6FCC0ECF6F010ED06F050ED16F1F
:1005E000B7ECCDF02FD00501EE510601DA6FDB6BD1
:1005F000DB51000AD8A4D6D6DA51000AD8B4D2D634
:10060000010AD8B4E2D6030AD8B409D7010AD8B48B
:1006100019D7070AD8B429D7010AD8B439D7030A99
:10062000D8B489D7010AD8B4A5D70F0AD8B4B5D79A
:10063000010AD8B48CD7030AD8B4C2D7010AD8B4F7
:100640003AD7B0D60C0EBAECE8F00009D8B467D3AC
:10065000750E7F6F300E7E6F0C0E6AECE7F00901AD
:10066000946B5DD398ECC7F00C0E30ECEBF028EEF9
:10067000D7F3DF5069ECE9F03AECCEF00009D8B4DA
:1006800014D039ECE9F0000E05017E6F000E8FECFE
:10069000DEF07EC553F67FC554F6070E0601556F92
:1006A000FF0E566FEFECDFF016D0000E05017E6FE7
:1006B000000E8FECDEF07EC553F67FC554F6460E75
:1006C0000601556FFF0E566FEFECDFF02FECD3F005
:1006D000010E0501ED6F000E05017E6F010E8FEC1E
:1006E000DEF07EC553F67FC554F60601566B150E37
:1006F000556FF20E576FFE0E586FEDC659F6EEC6E7
:100700005AF674ECD0F0000E05017E6F020E8FECED
:10071000DEF07EC553F67FC554F60601566B150E06
:10072000556FF20E576FFE0E586FEDC659F6EEC6B6
:100730005AF674ECD0F0000E05017E6F030E8FECBC
:10074000DEF07EC553F67FC554F60601566B150ED6
:10075000556FF20E576FFE0E586FEDC659F6EEC686
:100760005AF674ECD0F01BECEBF00501ED51D8B467
:1007700007D0050E846FDC0E836FA7ECE8F006D07F
:10078000010E846FF40E836FA7ECE8F0C7ECE6F07F
:10079000CAECDFF0E0ECB2F00009D8A413D0010EEF
:1007A0006100A2F3F9F3000E6100A2F3FAF3000E68
:1007B0006100A2F3FBF3000E6100A2F3FCF3010E53
:1007C0004F6E4C81DFECE6F0C2ECD5F00009D8A406
:1007D00014D0010E6100A2F3FDF3000E6100A2F33C
:1007E000FEF3000E6100A2F3FFF3000E6100A2F31E
:1007F00000F4010E4F6E08014C8314ECE0F0DFECC6
:10080000E8F0010E6100A2F3F3F1070E05017F6F1E
:10081000A50E7E6F0EECEAF028EED7F3DF5069EC00
:10082000E9F0140E0601536F230E546F566B3F0E02
:10083000556FE10E576FFB0E586F74ECD0F0000E41
:1008400005017E6F000E8FECDEF07EC553F67FC58E
:1008500054F60601566B150E556FBF0E576FFC0E02
:10086000586FFFC559F65A6BCC0E5B6FFF0E5C6F6D
:1008700074ECD0F0000E05017E6F010E8FECDEF0FF
:100880007EC553F67FC554F60601566B150E556F9F
:10089000F00E576FFA0E586F53C859F654C85AF6EF
:1008A00055C85BF656C85CF657C85DF658C85EF684
:1008B00059C85FF65AC860F64CC861F6626B74ECB2
:1008C000D0F028EEF9F3DE50DE10DE10DE10D8A4F2
:1008D00008D028EEFDF3DE50DE10DE10DE10D8B4B6
:1008E0002ED0050E08014F1904E1990E5019D8B405
:1008F00005D0D20E0601E76FFF0E04D0D80E060118
:10090000E76FFF0EE86F000E05017E6F020E8FECA1
:10091000DEF07EC553F67FC554F60601566B150E04
:10092000556F990E576FFE0E586FE7C659F6E8C619
:100930005AF674ECD0F0030E08014C6F2CD0050E63
:1009400008014F1904E1990E5019D8B405D0D20E00
:100950000601E96FFF0E04D0D80E0601E96FFF0E05
:10096000EA6F000E05017E6F020E8FECDEF07EC591
:1009700053F67FC554F60601566B150E556F6B0E78
:10098000576FFE0E586FE9C659F6EAC65AF674EC70
:10099000D0F008014C6B000E05017E6F030E8FEC4A
:1009A000DEF07EC553F67FC554F60601566B150E74
:1009B000556FF80E576FFD0E586F800E596FFF0E72
:1009C0005A6F74ECD0F0010E05017E6F000E8FECB3
:1009D000DEF07EC553F67FC554F60601566B150E44
:1009E000556F0F0E576FFE0E586F74ECD0F0010E5E
:1009F00005017E6F010E8FECDEF07EC553F67FC5DC
:100A000054F60601566B150E556F540E576FFE0EB9
:100A1000586FCC0E596FFF0E5A6F74ECD0F0010E68
:100A200005017E6F020E8FECDEF07EC553F67FC5AA
:100A300054F60601566B150E556F260E576FFE0EB7
:100A4000586F74ECD0F0010E05017E6F030E8FEC31
:100A5000DEF07EC553F67FC554F60601566B150EC3
:100A6000556FF80E576FFD0E586F800E596FFF0EC1
:100A70005A6F74ECD0F0030E05017E6F000E8FEC00
:100A8000DEF07EC553F67FC554F60601566B150E93
:100A9000556F820E576FFE0E586FCC0E596FFF0EBA
:100AA0005A6F74ECD0F0030E05017E6F010E8FECCF
:100AB000DEF07EC553F67FC554F60601566B150E63
:100AC000556F540E576FFE0E586FCC0E596FFF0EB8
:100AD0005A6F74ECD0F0030E05017E6F020E8FEC9E
:100AE000DEF07EC553F67FC554F60601566B150E33
:100AF000556F3D0E576FFE0E586F74ECD0F0030E1D
:100B000005017E6F030E8FECDEF07EC553F67FC5C8
:100B100054F60601566B150E556FF80E576FFD0E05
:100B2000586F800E596FFF0E5A6F74ECD0F0020EA2
:100B300005017E6F000E8FECDEF07EC553F67FC59B
:100B400054F60601566B150E556FC10E576FFB0E0E
:100B5000586F53C859F654C85AF655C85BF656C86C
:100B60005CF657C85DF658C85EF659C85FF65AC8B5
:100B700060F64FC861F650C862F674ECD0F0020E11
:100B800005017E6F010E8FECDEF07EC553F67FC54A
:100B900054F60601566B150E556FC90E576FFA0EB7
:100BA000586F24C859F625C85AF626C85BF627C8D8
:100BB0005CF644C85DF645C85EF646C85FF647C8B1
:100BC00060F674ECD0F0020E05017E6F020E8FEC21
:100BD000DEF07EC553F67FC554F60601566B150E42
:100BE000556F7B0E576FFA0E586F08C859F609C833
:100BF0005AF60AC85BF60BC85CF674ECD0F0020E2D
:100C000005017E6F030E8FECDEF07EC553F67FC5C7
:100C100054F60601566B150E556F5F0E576FFB0E9F
:100C2000586F800E596FFF0E5A6FCC0E5B6FFF0E20
:100C30005C6F74ECD0F01BECEBF00B0E0501846FD5
:100C4000B80E836FA7ECE8F04F50D8B406D0270E4B
:100C5000846F100E836FA7ECE8F0010E7F6FF40E27
:100C60007E6F050E6AECE7F00B0E7F6FB80E7E6F9D
:100C7000020E6AECE7F0050E7F6FDC0E7E6F070E4A
:100C80006AECE7F00B0E7F6FB80E7E6F040E6AEC15
:100C9000E7F0270E7F6F100E7E6F060E6AECE7F00E
:100CA0000B0E7F6FB80E7E6F030E6AECE7F07F6B62
:100CB000010E7E6F010E6AECE7F043D0000E49ECA6
:100CC000E9F0000E7E6F000E8FECDEF07EC5EBF6D5
:100CD0007FC5ECF6060120EE15F0EB51D926EC515C
:100CE000DA22DF6A000E0501826F030E86ECD4F073
:100CF0000601DA6F20EE13F0EB51D926EC51DA221F
:100D0000DAC6DFF41ED0000E6100A2F3F3F10B0E81
:100D10000501846FB80E836FA7ECE8F012D028EEBF
:100D2000F3F1DF500601DA6FDB6BDB51000AD8A468
:100D3000EAD7DA51000AD8B495D4010AD8B4BED79C
:100D4000E2D7010EBAECE8F00009D8B472D17F6B9B
:100D5000010E7E6F010E6AECE7F028EEFDF3DE5027
:100D6000DE10DE10DE10D8A414D0DFECE6F0D69E44
:100D700009016C51D8A406D06800D0FDA6F7680020
:100D8000D4FDA7F7D68EA6C78EF5A7C78FF5F2ECD0
:100D9000E1F0DFECE8F0010E08010027000E01236E
:100DA000022303236BECECF0000EEDECEAF033ECE5
:100DB000ECF00009D8B4FBD733ECECF00009D8B460
:100DC00006D0D2ECE9F07EC500FC7FC501FC6BECDF
:100DD000ECF0010EEDECEAF033ECECF00009D8B4E5
:100DE000FBD733ECECF00009D8B40ED0D2ECE9F02C
:100DF0006100FAF5E7F36100FEF5E8F368009CFF97
:100E000002FC6800A0FF03FC6BECECF0020EEDECC2
:100E1000EAF033ECECF00009D8B4FBD733ECECF09B
:100E20000009D8B40ED0D2ECE9F06100FAF5E9F38C
:100E30006100FEF5EAF36800A4FF04FC6800A8FF67
:100E400005FC6BECECF0040EEDECEAF033ECECF0AE
:100E50000009D8B4FBD733ECECF00009D8B406D0C5
:100E6000D2ECE9F07EC508FC7FC509FC6BECECF028
:100E7000050EEDECEAF033ECECF00009D8B4FBD74A
:100E800033ECECF00009D8B406D0D2ECE9F07EC522
:100E90000AFC7FC50BFC6BECECF0160EEDECEAF0F7
:100EA00033ECECF00009D8B4FBD733ECECF00009DC
:100EB000D8B406D0D2ECE9F07EC52CFC7FC52DFC61
:100EC0006BECECF0170EEDECEAF033ECECF0000913
:100ED000D8B4FBD733ECECF00009D8B406D0D2EC90
:100EE000E9F07EC52EFC7FC52FFC6BECECF01D0EEF
:100EF000EDECEAF033ECECF00009D8B4FBD733ECBE
:100F0000ECF00009D8B406D0D2ECE9F07EC53AFC8A
:100F10007FC53BFC6BECECF03B0EEDECEAF033EC08
:100F2000ECF00009D8B4FBD733ECECF00009D8B4EE
:100F300006D0D2ECE9F07EC576FC7FC577FC6BEC81
:100F4000ECF03C0EEDECEAF033ECECF00009D8B438
:100F5000FBD733ECECF00009D8B406D0D2ECE9F0C2
:100F60007EC578FC7FC579FC6BECECF03D0EEDECBA
:100F7000EAF033ECECF00009D8B4FBD733ECECF03A
:100F80000009D8B406D0D2ECE9F07EC57AFC7FC562
:100F90007BFC6BECECF03E0EEDECEAF033ECECF0AD
:100FA0000009D8B4FBD733ECECF00009D8B406D074
:100FB000D2ECE9F07EC57CFC7FC57DFC6BECECF0EF
:100FC0003F0EEDECEAF033ECECF00009D8B4FBD7BF
:100FD00033ECECF00009D8B406D0D2ECE9F07EC5D1
:100FE0007EFC7FC57FFC680084FE7DF0040028EE57
:100FF000F9F3DE50DE10DE10DE10D8A41AD0C7ECF4
:10100000E6F0000E05019D6F000E9E6F000E9F6FB3
:10101000000EA06F000EA16F000EA26F000EA36F56
:1010200083ECD7F06EC7D9F46FC7DAF4DFBEE0EC1B
:10103000B2F0050EBAECE8F00009D8B48CD3DFECBE
:10104000E8F0010E05017F6FF40E7E6F050E6AEC6D
:10105000E7F0040EBAECE8F00009D8B403D0000EB3
:1010600049ECE9F0000E38ECE5F05050D8B439D333
:10107000E7EC8BF0000E05017E6F000E8FECDEF0CA
:101080007EC553F67FC554F60601566B150E556F97
:10109000380E576FFC0E586F020E0501F42506013D
:1010A000596F000E0501F52106015A6F74ECD0F05E
:1010B00018C77EF519C77FF51AC780F51BC781F5DC
:1010C000010EE0ECCAF07EC58CF57FC58DF580C5BC
:1010D0008EF581C58FF5000E906F000E916F7A0E20
:1010E000926F440E936FD0ECBAF08CC5F3F68DC5B9
:1010F000F4F68EC5F5F68FC5F6F6000E7E6F010E7E
:101100008FECDEF07EC553F67FC554F60601566BB4
:10111000150E556F540E576FFC0E586F0A01C951CA
:101120000C0DA20EF3240601596FF70EF4205A6F2E
:1011300014C77EF515C77FF516C780F517C781F56B
:101140000A0E0501826F000E836F000E846F000E81
:10115000856FAEECD1F07EC55BF67FC55CF680C5D1
:101160005DF681C55EF6F3C65FF6F4C660F6F5C6B9
:1011700061F6F6C662F674ECD0F0000E05017E6FE3
:10118000020E8FECDEF07EC553F67FC554F60601E5
:10119000566B150E556F800E576FFB0E586F090179
:1011A0008E510C0DBA0EF3240601596FF70EF42080
:1011B0005A6F0C0E0501FC03F3C4DAF6F4C4DBF637
:1011C000FD03F3500601DB275A0EDA255B6FF70E9D
:1011D000DB215C6F800E5D245D6FFF0E5E205E6F15
:1011E000800E5B245F6FFF0E5C20606F800E5924C1
:1011F000616FFF0E5A20626F74ECD0F0000E050193
:101200007E6F030E8FECDEF07EC553F67FC554F67D
:101210000601566B150E556F010E576FFA0E586F7B
:1012200040C559F641C55AF642C55BF643C55CF662
:101230003CC55DF63DC55EF63EC55FF63FC560F652
:1012400074ECD0F022EEC2F1DEC47EF5DDC47FF591
:101250000501000E7FBFFF0E806F816F010EE0EC75
:10126000CAF07EC58CF57FC58DF580C58EF581C52C
:101270008FF5000E906F000E916F200E926F410E51
:10128000936FD0ECBAF08CC5F3F68DC5F4F68EC52D
:10129000F5F68FC5F6F622EED0F1DEC47EF5DDC49C
:1012A0007FF5000E7FBFFF0E806F816F010EE0ECB7
:1012B000CAF07EC58CF57FC58DF580C58EF581C5DC
:1012C0008FF5000E906F000E916F700E926F420EB0
:1012D000936FD0ECBAF08CC5EFF68DC5F0F68EC5E5
:1012E000F1F68FC5F2F6010E7E6F000E8FECDEF088
:1012F0007EC553F67FC554F60601566B150E556F25
:101300007D0E576FF90E586FF3C659F6F4C65AF6AC
:10131000F5C65BF6F6C65CF6EFC65DF6F0C65EF6A1
:10132000F1C65FF6F2C660F674ECD0F0CCC97EF57B
:10133000CDC97FF50501816B0A0E806F6FECDAF085
:101340007EC5E3F67FC5E4F6CAC97EF5CBC97FF555
:10135000816B0A0E806F6FECDAF07EC5E5F67FC513
:10136000E6F6010E7E6F010E8FECDEF07EC553F6C1
:101370007FC554F60601566B150E556F530E576F09
:10138000FA0E586FE3C659F6E4C65AF6E5C65BF6A0
:10139000E6C65CF674ECD0F09CCB7EF59DCB7FF579
:1013A0009ECB80F59FCB81F5010EE0ECCAF07EC5A7
:1013B0008CF57FC58DF580C58EF581C58FF5000E46
:1013C000906F000E916F7A0E926F440E936FD0EC77
:1013D000BAF08CC5F3F68DC5F4F68EC5F5F68FC55B
:1013E000F6F618C77EF519C77FF51AC780F51BC733
:1013F00081F5010EE0ECCAF07EC58CF57FC58DF558
:1014000080C58EF581C58FF5000E906F000E916F2F
:101410007A0E926F440E936FD0ECBAF08CC5EFF653
:101420008DC5F0F68EC5F1F68FC5F2F6010E7E6F12
:10143000020E8FECDEF07EC553F67FC554F6060132
:10144000566B150E556FA20E576FFA0E586FF3C6F6
:1014500059F6F4C65AF6F5C65BF6F6C65CF6EFC664
:101460005DF6F0C65EF6F1C65FF6F2C660F674ECA5
:10147000D0F024C77EF525C77FF526C780F527C79E
:1014800081F5010EE0ECCAF07EC58CF57FC58DF5C7
:1014900080C58EF581C58FF5000E906F000E916F9F
:1014A000200E926F410E936FD0ECBAF08CC5F3F61C
:1014B0008DC5F4F68EC5F5F68FC5F6F630C77EF508
:1014C00031C77FF532C780F533C781F5010EE0ECF7
:1014D000CAF07EC58CF57FC58DF580C58EF581C5BA
:1014E0008FF5000E906F000E916F200E926F410EDF
:1014F000936FD0ECBAF08CC5EFF68DC5F0F68EC5C3
:10150000F1F68FC5F2F621EE62F3DEC47EF5DDC49E
:101510007FF5000E7FBFFF0E806F816F010EE0EC44
:10152000CAF07EC58CF57FC58DF580C58EF581C569
:101530008FF5000E906F000E916F200E926F410E8E
:10154000936FD0ECBAF08CC5DFF68DC5E0F68EC592
:10155000E1F68FC5E2F6010E7E6F030E8FECDEF032
:101560007EC553F67FC554F60601566B150E556FB2
:101570003B0E576FFB0E586FF3C659F6F4C65AF67A
:10158000F5C65BF6F6C65CF6EFC65DF6F0C65EF62F
:10159000F1C65FF6F2C660F6DFC661F6E0C662F637
:1015A000E1C663F6E2C664F674ECD0F0020E050103
:1015B0007E6F000E8FECDEF07EC553F67FC554F6CD
:1015C0000601566B150E556FC10E576FFB0E586F07
:1015D00053C859F654C85AF655C85BF656C85CF657
:1015E00057C85DF658C85EF659C85FF65AC860F627
:1015F0004FC861F650C862F674ECD0F0020E0501D7
:101600007E6F010E8FECDEF07EC553F67FC554F67B
:101610000601566B150E556F2B0E576FFA0E586F4D
:1016200008CCBEF509CCBFF5E3ECD8F0BEC559F641
:10163000BFC55AF6C0C55BF6C1C55CF60ACCBEF59F
:101640000BCCBFF56AECD9F0BEC55DF6BFC55EF642
:10165000C0C55FF6C1C560F674ECD0F0020E05019E
:101660007E6F020E8FECDEF07EC553F67FC554F61A
:101670000601566B150E556F500E576FF90E586FC9
:1016800008C859F609C85AF60AC85BF60BC85CF6D2
:101690004CC85DF65E6B74ECD0F0020E05017E6FF7
:1016A000030E8FECDEF07EC553F67FC554F60601BF
:1016B000566B150E556FFF0E576FFB0E586F800E51
:1016C000596FFF0E5A6FCC0E5B6FFF0E5C6F74ECA0
:1016D000D0F01BECEBF00901666B506A000EADEC2C
:1016E000D9F028EED8F3DFC4DAF6010EDF26460E75
:1016F0000601DA652BD00501FE5169ECE9F028EE10
:10170000D8F3DF500601DA6FDB6B28EEDAF3DF5037
:10171000DC6FDD6B660EDC27000EDD23DA51DC5D4D
:10172000DD51800ADE6FDB51800ADE59D8B013D05C
:101730000501FE2BFE51030B030AD8A402D0010EB3
:10174000FE6F000E6100A2F3D8F305D028EED7F3A8
:10175000DF5069ECE9F028EEE3F3DF50D8B413D0A2
:10176000030EBAECE8F00009D8B40AD0000E61000C
:10177000A2F3E3F328EED7F3DF5069ECE9F003D0EE
:10178000030E69ECE9F028EEDEF3DF50D8B453EF36
:1017900081F0060EBAECE8F00009D8B453EF81F0FE
:1017A000270E7F6F100E7E6F060E6AECE7F00B0EB1
:1017B0007F6FB80E7E6F030E6AECE7F0010E6100DA
:1017C000A2F3E3F3000EEDECC8F053EF81F07C0ED2
:1017D0000601046F230E056FC3ECE9F004C6C7F8D9
:1017E00005C6C8F8F20E536F1F0E546F566B190ED4
:1017F000556FFC0E576FFF0E586FC7C88BF5C8C8E2
:101800008CF554ECBDF08BC559F68CC55AF674ECCA
:10181000D0F0000E6100A1F3F5FFECEF94F0FAC6F2
:10182000FBF514C77EF515C77FF516C780F517C7FA
:1018300081F5010EE0ECCAF07EC58CF57FC58DF513
:1018400080C58EF581C58FF5000E906F000E916FEB
:10185000200E926F410E936FD0ECBAF08CC5C2F699
:101860008DC5C3F68EC5C4F68FC5C5F624C77EF5F3
:1018700025C77FF526C780F527C781F5010EE0EC67
:10188000CAF07EC58CF57FC58DF580C58EF581C506
:101890008FF5000E906F000E916F200E926F410E2B
:1018A000936FD0ECBAF08CC5C6F68DC5C7F68EC561
:1018B000C8F68FC5C9F628C77EF529C77FF52AC7A0
:1018C00080F52BC781F5010EE0ECCAF07EC58CF5E2
:1018D0007FC58DF580C58EF581C58FF5000E906FA3
:1018E000000E916F200E926F410E936FD0ECBAF004
:1018F0008CC5CAF68DC5CBF68EC5CCF68FC5CDF698
:1019000030C77EF531C77FF532C780F533C781F523
:10191000010EE0ECCAF07EC58CF57FC58DF580C563
:101920008EF581C58FF5000E906F000E916F200E21
:10193000926F410E936FD0ECBAF08CC5CEF68DC588
:10194000CFF68EC5D0F68FC5D1F63CC77EF53DC724
:101950007FF53EC780F53FC781F5010EE0ECCAF088
:101960007EC58CF57FC58DF580C58EF581C58FF55B
:10197000000E906F000E916F200E926F410E936FCC
:10198000D0ECBAF08CC5D2F68DC5D3F68EC5D4F6A0
:101990008FC5D5F621EE62F3DEC47EF5DDC47FF59A
:1019A000000E7FBFFF0E806F816F010EE0ECCAF06A
:1019B0007EC58CF57FC58DF580C58EF581C58FF50B
:1019C000000E906F000E916F200E926F410E936F7C
:1019D000D0ECBAF08CC5D6F68DC5D7F68EC5D8F644
:1019E0008FC5D9F6F20E0601536F1D0E546F020E0D
:1019F000566F000E556F2B0E576FF60E586FFBC5C6
:101A000059F65A6BC2C65BF6C3C65CF6C4C65DF631
:101A1000C5C65EF618CD5FF619CD60F61ACD61F633
:101A20001BCD62F6C6C663F6C7C664F6C8C665F6C1
:101A3000C9C666F6CAC667F6CBC668F6CCC669F6EE
:101A4000CDC66AF6CEC66BF6CFC66CF6D0C66DF6BE
:101A5000D1C66EF6D2C66FF6D3C670F6D4C671F68E
:101A6000D5C672F6D6C673F6D7C674F6D8C675F65E
:101A7000D9C676F670CD77F671CD78F672CD79F657
:101A800073CD7AF640C57BF641C57CF642C57DF63E
:101A900043C57EF63CC57FF63DC580F63EC581F662
:101AA0003FC582F6800E5D24836FFF0E5E20846F3B
:101AB000800E5B24856FFF0E5C20866F800E59249C
:101AC000876FFF0E5A20886F44C589F645C58AF690
:101AD0008EC98BF68C6BFCC58DF6FDC58EF6CCCA17
:101AE0008FF6906BD3C991F6D4C992F6D5C993F607
:101AF000D6C994F6D7C995F6D8C996F6D9C997F636
:101B0000DAC998F6E7C799F6E8C79AF6E9C79BF6E7
:101B1000EAC79CF6EFC79DF6F0C79EF6F1C79FF6A1
:101B2000F2C7A0F6F3C7A1F6F4C7A2F6F5C7A3F66D
:101B3000F6C7A4F6F7C7A5F6F8C7A6F6F9C7A7F63D
:101B4000FAC7A8F674ECD0F0120E50EF93F0FAC674
:101B5000FBF500C77EF501C77FF502C780F503C717
:101B600081F5010EE0ECCAF07EC58CF57FC58DF5E0
:101B700080C58EF581C58FF5000E906F000E916FB8
:101B8000200E926F410E936FD0ECBAF08CC5C2F666
:101B90008DC5C3F68EC5C4F68FC5C5F604C77EF5E0
:101BA00005C77FF506C780F507C781F5010EE0EC94
:101BB000CAF07EC58CF57FC58DF580C58EF581C5D3
:101BC0008FF5000E906F000E916F200E926F410EF8
:101BD000936FD0ECBAF08CC5C6F68DC5C7F68EC52E
:101BE000C8F68FC5C9F608C77EF509C77FF50AC7CD
:101BF00080F50BC781F5010EE0ECCAF07EC58CF5CF
:101C00007FC58DF580C58EF581C58FF5000E906F6F
:101C1000000E916F200E926F410E936FD0ECBAF0D0
:101C20008CC5CAF68DC5CBF68EC5CCF68FC5CDF664
:101C30001CC77EF51DC77FF51EC780F51FC781F540
:101C4000010EE0ECCAF07EC58CF57FC58DF580C530
:101C50008EF581C58FF5000E906F000E916F7A0E94
:101C6000926F440E936FD0ECBAF08CC5CEF68DC552
:101C7000CFF68EC5D0F68FC5D1F62CC77EF52DC711
:101C80007FF52EC780F52FC781F5010EE0ECCAF075
:101C90007EC58CF57FC58DF580C58EF581C58FF528
:101CA000000E906F000E916F200E926F410E936F99
:101CB000D0ECBAF08CC5D2F68DC5D3F68EC5D4F66D
:101CC0008FC5D5F650C77EF551C77FF552C780F551
:101CD00053C781F5010EE0ECCAF07EC58CF57FC5D7
:101CE0008DF580C58EF581C58FF5000E906F000EC5
:101CF000916F200E926F410E936FD0ECBAF08CC5AD
:101D0000D6F68DC5D7F68EC5D8F68FC5D9F621EE95
:101D10005CF3DEC47EF5DDC47FF5000E7FBFFF0EF1
:101D2000806F816F010EE0ECCAF07EC58CF57FC537
:101D30008DF580C58EF581C58FF5000E906F000E74
:101D4000916F200E926F410E936FD0ECBAF08CC55C
:101D5000BAF68DC5BBF68EC5BCF68FC5BDF621EEB5
:101D60005EF3DEC47EF5DDC47FF5000E7FBFFF0E9F
:101D7000806F816F010EE0ECCAF07EC58CF57FC5E7
:101D80008DF580C58EF581C58FF5000E906F000E24
:101D9000916F200E926F410E936FD0ECBAF08CC50C
:101DA000BEF68DC5BFF68EC5C0F68FC5C1F6F20E64
:101DB0000601536F1D0E546F020E566F000E556FC5
:101DC000740E576FF50E586FFBC559F65A6BC2C6A5
:101DD0005BF6C3C65CF6C4C65DF6C5C65EF6C6C68F
:101DE0005FF6C7C660F6C8C661F6C9C662F6CAC65F
:101DF00063F6CBC664F6CCC665F6CDC666F6CEC62F
:101E000067F6CFC668F6D0C669F6D1C66AF6D2C6FE
:101E10006BF6D3C66CF6D4C66DF6D5C66EF6D6C6CE
:101E20006FF6D7C670F6D8C671F6D9C672F6BAC6BE
:101E300073F6BBC674F6BCC675F6BDC676F6BEC6EE
:101E400077F6BFC678F6C0C679F6C1C67AF640C541
:101E50007BF641C57CF642C57DF643C57EF63CC5A2
:101E60007FF63DC580F63EC581F63FC582F6800E01
:101E70005D24836FFF0E5E20846F800E5B24856F70
:101E8000FF0E5C20866F800E5924876FFF0E5A204C
:101E9000886F44C589F645C58AF68EC98BF68C6B6A
:101EA000FCC58DF6FDC58EF6CCCA8FF6906BD3C9F6
:101EB00091F6D4C992F6D5C993F6D6C994F6D7C986
:101EC00095F6D8C996F6D9C997F6DAC998F6E7C74C
:101ED00099F6E8C79AF6E9C79BF6EAC79CF6EFC7FA
:101EE0009DF6F0C79EF6F1C79FF6F2C7A0F6F3C7BE
:101EF000A1F6F4C7A2F6F5C7A3F6F6C7A4F6F7C78E
:101F0000A5F6F8C7A6F6F9C7A7F6FAC7A8F674ECBF
:101F1000D0F0110E0601FA6F040002EF95F0FAC638
:101F2000FBF514C77EF515C77FF516C780F517C7F3
:101F300081F5010EE0ECCAF07EC58CF57FC58DF50C
:101F400080C58EF581C58FF5000E906F000E916FE4
:101F5000200E926F410E936FD0ECBAF08CC5C2F692
:101F60008DC5C3F68EC5C4F68FC5C5F618C77EF5F8
:101F700019C77FF51AC780F51BC781F5010EE0EC84
:101F8000CAF07EC58CF57FC58DF580C58EF581C5FF
:101F90008FF5000E906F000E916F7A0E926F440EC7
:101FA000936FD0ECBAF08CC5C6F68DC5C7F68EC55A
:101FB000C8F68FC5C9F624C77EF525C77FF526C7A5
:101FC00080F527C781F5010EE0ECCAF07EC58CF5DF
:101FD0007FC58DF580C58EF581C58FF5000E906F9C
:101FE000000E916F200E926F410E936FD0ECBAF0FD
:101FF0008CC5CAF68DC5CBF68EC5CCF68FC5CDF691
:1020000028C77EF529C77FF52AC780F52BC781F53C
:10201000010EE0ECCAF07EC58CF57FC58DF580C55C
:102020008EF581C58FF5000E906F000E916F200E1A
:10203000926F410E936FD0ECBAF08CC5CEF68DC581
:10204000CFF68EC5D0F68FC5D1F630C77EF531C735
:102050007FF532C780F533C781F5010EE0ECCAF099
:102060007EC58CF57FC58DF580C58EF581C58FF554
:10207000000E906F000E916F200E926F410E936FC5
:10208000D0ECBAF08CC5D2F68DC5D3F68EC5D4F699
:102090008FC5D5F63CC77EF53DC77FF53EC780F5B9
:1020A0003FC781F5010EE0ECCAF07EC58CF57FC517
:1020B0008DF580C58EF581C58FF5000E906F000EF1
:1020C000916F200E926F410E936FD0ECBAF08CC5D9
:1020D000D6F68DC5D7F68EC5D8F68FC5D9F621EEC2
:1020E00062F3DEC47EF5DDC47FF5000E7FBFFF0E18
:1020F000806F816F010EE0ECCAF07EC58CF57FC564
:102100008DF580C58EF581C58FF5000E906F000EA0
:10211000916F200E926F410E936FD0ECBAF08CC588
:10212000BAF68DC5BBF68EC5BCF68FC5BDF69CCB89
:102130007EF59DCB7FF59ECB80F59FCB81F5010E83
:10214000E0ECCAF07EC58CF57FC58DF580C58EF5B7
:1021500081C58FF5000E906F000E916F7A0E926F11
:10216000440E936FD0ECBAF08CC5BEF68DC5BFF6A9
:102170008EC5C0F68FC5C1F6F20E0601536F1D0E57
:10218000546F020E566F000E556FBD0E576FF40E52
:10219000586FFBC559F65A6BC2C65BF6C3C65CF6F0
:1021A000C4C65DF6C5C65EF6C6C65FF6C7C660F6AF
:1021B000C8C661F6C9C662F6CAC663F6CBC664F67F
:1021C000CCC665F6CDC666F6CEC667F6CFC668F64F
:1021D000D0C669F6D1C66AF6D2C66BF6D3C66CF61F
:1021E000D4C66DF6D5C66EF6D6C66FF6D7C670F6EF
:1021F000D8C671F6D9C672F6BAC673F6BBC674F6FF
:10220000BCC675F6BDC676F6BEC677F6BFC678F60E
:10221000C0C679F6C1C67AF640C57BF641C57CF6E4
:1022200042C57DF643C57EF63CC57FF63DC580F6CA
:102230003EC581F63FC582F6800E5D24836FFF0E9A
:102240005E20846F800E5B24856FFF0E5C20866F9E
:10225000800E5924876FFF0E5A20886F44C589F677
:1022600045C58AF68EC98BF68C6BFCC58DF6FDC50F
:102270008EF6CCCA8FF6906BD3C991F6D4C992F67C
:10228000D5C993F6D6C994F6D7C995F6D8C996F6A6
:10229000D9C997F6DAC998F6E7C799F6E8C79AF662
:1022A000E9C79BF6EAC79CF6EFC79DF6F0C79EF616
:1022B000F1C79FF6F2C7A0F6F3C7A1F6F4C7A2F6DE
:1022C000F5C7A3F6F6C7A4F6F7C7A5F6F8C7A6F6AE
:1022D000F9C7A7F6FAC7A8F674ECD0F0140EE0D14F
:1022E000FAC6FBF514C77EF515C77FF516C780F54E
:1022F00017C781F5010EE0ECCAF07EC58CF57FC5ED
:102300008DF580C58EF581C58FF5000E906F000E9E
:10231000916F200E926F410E936FD0ECBAF08CC586
:10232000C2F68DC5C3F68EC5C4F68FC5C5F618C7EF
:102330007EF519C77FF51AC780F51BC781F5010E19
:10234000E0ECCAF07EC58CF57FC58DF580C58EF5B5
:1023500081C58FF5000E906F000E916F7A0E926F0F
:10236000440E936FD0ECBAF08CC5C6F68DC5C7F697
:102370008EC5C8F68FC5C9F624C77EF525C77FF57B
:1023800026C780F527C781F5010EE0ECCAF07EC5AF
:102390008CF57FC58DF580C58EF581C58FF5000E56
:1023A000906F000E916F200E926F410E936FD0ECE4
:1023B000BAF08CC5CAF68DC5CBF68EC5CCF68FC5E6
:1023C000CDF628C77EF529C77FF52AC780F52BC72C
:1023D00081F5010EE0ECCAF07EC58CF57FC58DF568
:1023E00080C58EF581C58FF5000E906F000E916F40
:1023F000200E926F410E936FD0ECBAF08CC5CEF6E2
:102400008DC5CFF68EC5D0F68FC5D1F630C77EF517
:1024100031C77FF532C780F533C781F5010EE0EC97
:10242000CAF07EC58CF57FC58DF580C58EF581C55A
:102430008FF5000E906F000E916F200E926F410E7F
:10244000936FD0ECBAF08CC5D2F68DC5D3F68EC59D
:10245000D4F68FC5D5F63CC77EF53DC77FF53EC7A0
:1024600080F53FC781F5010EE0ECCAF07EC58CF522
:102470007FC58DF580C58EF581C58FF5000E906FF7
:10248000000E916F200E926F410E936FD0ECBAF058
:102490008CC5D6F68DC5D7F68EC5D8F68FC5D9F6BC
:1024A00021EE62F3DEC47EF5DDC47FF5000E7FBF52
:1024B000FF0E806F816F010EE0ECCAF07EC58CF5D7
:1024C0007FC58DF580C58EF581C58FF5000E906FA7
:1024D000000E916F200E926F410E936FD0ECBAF008
:1024E0008CC5BAF68DC5BBF68EC5BCF68FC5BDF6DC
:1024F0009CCB7EF59DCB7FF59ECB80F59FCB81F568
:10250000010EE0ECCAF07EC58CF57FC58DF580C567
:102510008EF581C58FF5000E906F000E916F7A0ECB
:10252000926F440E936FD0ECBAF08CC5BEF68DC599
:10253000BFF68EC5C0F68FC5C1F6F20E0601536F09
:102540001D0E546F020E566F000E556F060E576F1C
:10255000F40E586FFBC559F65A6BC2C65BF6C3C67C
:102560005CF6C4C65DF6C5C65EF6C6C65FF6C7C6EF
:1025700060F6C8C661F6C9C662F6CAC663F6CBC6BF
:1025800064F6CCC665F6CDC666F6CEC667F6CFC68F
:1025900068F6D0C669F6D1C66AF6D2C66BF6D3C65F
:1025A0006CF6D4C66DF6D5C66EF6D6C66FF6D7C62F
:1025B00070F6D8C671F6D9C672F6BAC673F6BBC63F
:1025C00074F6BCC675F6BDC676F6BEC677F6BFC64F
:1025D00078F6C0C679F6C1C67AF640C57BF641C525
:1025E0007CF642C57DF643C57EF63CC57FF63DC50B
:1025F00080F63EC581F63FC582F6800E5D24836F6E
:10260000FF0E5E20846F800E5B24856FFF0E5C20C2
:10261000866F800E5924876FFF0E5A20886F44C53D
:1026200089F645C58AF68EC98BF68C6BFCC58DF68E
:10263000FDC58EF6CCCA8FF6906BD3C991F6D4C97E
:1026400092F6D5C993F6D6C994F6D7C995F6D8C9E6
:1026500096F6D9C997F6DAC998F6E7C799F6E8C7A2
:102660009AF6E9C79BF6EAC79CF6EFC79DF6F0C756
:102670009EF6F1C79FF6F2C7A0F6F3C7A1F6F4C71E
:10268000A2F6F5C7A3F6F6C7A4F6F7C7A5F6F8C7EE
:10269000A6F6F9C7A7F6FAC7A8F674ECD0F0110EA3
:1026A0000601FA6FAFD1110EFA6F110E0501FB6F23
:1026B00014C77EF515C77FF516C780F517C781F5D6
:1026C000010EE0ECCAF07EC58CF57FC58DF580C5A6
:1026D0008EF581C58FF5000E906F000E916F200E64
:1026E000926F410E936FD0ECBAF08CC5C2F68DC5D7
:1026F000C3F68EC5C4F68FC5C5F624C77EF525C7BB
:102700007FF526C780F527C781F5010EE0ECCAF0FA
:102710007EC58CF57FC58DF580C58EF581C58FF59D
:10272000000E906F000E916F200E926F410E936F0E
:10273000D0ECBAF08CC5C6F68DC5C7F68EC5C8F606
:102740008FC5C9F628C77EF529C77FF52AC780F54A
:102750002BC781F5010EE0ECCAF07EC58CF57FC574
:102760008DF580C58EF581C58FF5000E906F000E3A
:10277000916F200E926F410E936FD0ECBAF08CC522
:10278000CAF68DC5CBF68EC5CCF68FC5CDF630C753
:102790007EF531C77FF532C780F533C781F5010E6D
:1027A000E0ECCAF07EC58CF57FC58DF580C58EF551
:1027B00081C58FF5000E906F000E916F200E926F05
:1027C000410E936FD0ECBAF08CC5CEF68DC5CFF626
:1027D0008EC5D0F68FC5D1F63CC77EF53DC77FF5D7
:1027E0003EC780F53FC781F5010EE0ECCAF07EC51B
:1027F0008CF57FC58DF580C58EF581C58FF5000EF2
:10280000906F000E916F200E926F410E936FD0EC7F
:10281000BAF08CC5D2F68DC5D3F68EC5D4F68FC569
:10282000D5F621EE62F3DEC47EF5DDC47FF5000E41
:102830007FBFFF0E806F816F010EE0ECCAF07EC596
:102840008CF57FC58DF580C58EF581C58FF5000EA1
:10285000906F000E916F200E926F410E936FD0EC2F
:10286000BAF08CC5D6F68DC5D7F68EC5D8F68FC50D
:10287000D9F6F20E0601536F1D0E546F020E566FFD
:10288000000E556F2B0E576FF60E586FFBC559F69D
:102890005A6BC2C65BF6C3C65CF6C4C65DF6C5C657
:1028A0005EF618CD5FF619CD60F61ACD61F61BCD38
:1028B00062F6C6C663F6C7C664F6C8C665F6C9C67C
:1028C00066F6CAC667F6CBC668F6CCC669F6CDC64C
:1028D0006AF6CEC66BF6CFC66CF6D0C66DF6D1C61C
:1028E0006EF6D2C66FF6D3C670F6D4C671F6D5C6EC
:1028F00072F6D6C673F6D7C674F6D8C675F6D9C6BC
:1029000076F670CD77F671CD78F672CD79F673CD17
:102910007AF640C57BF641C57CF642C57DF643C5D7
:102920007EF63CC57FF63DC580F63EC581F63FC5C7
:1029300082F6800E5D24836FFF0E5E20846F800E12
:102940005B24856FFF0E5C20866F800E5924876F95
:10295000FF0E5A20886F44C589F645C58AF68EC990
:102960008BF68C6BFCC58DF6FDC58EF6CCCA8FF64A
:10297000906BD3C991F6D4C992F6D5C993F6D6C94E
:1029800094F6D7C995F6D8C996F6D9C997F6DAC993
:1029900098F6E7C799F6E8C79AF6E9C79BF6EAC73B
:1029A0009CF6EFC79DF6F0C79EF6F1C79FF6F2C7FB
:1029B000A0F6F3C7A1F6F4C7A2F6F5C7A3F6F6C7CB
:1029C000A4F6F7C7A5F6F8C7A6F6F9C7A7F6FAC79B
:1029D000A8F674ECD0F016D00601FA51020AD8B469
:1029E0000FEF8CF0130AD8B40FEF8CF0030AD8B4B1
:1029F000A7EF8DF0010AD8B48FEF8FF0070AD8B493
:102A00006FD451D6F20E0501F46F1D0EF56F020E54
:102A1000F76F000EF66FF96B000EF86F010EFA6F8C
:102A2000010E0701C96F1200D6C5D9F4D7C5DAF473
:102A3000DEC4F6F4DDC4F7F4000EF86E0800F550BD
:102A4000250AD8A440EF9BF0D6C5D9F4D7C5DAF44F
:102A5000DE2A000EDD22E66B000EE56FE5C5FBF613
:102A6000E769E8690601416B30D0FB81D6C5D9F42E
:102A7000D7C5DAF4DE2A000EDD2227D0FB83F6D795
:102A8000FB85F4D7FB87F2D7FB89F0D7010E416FA6
:102A90001CD0D6C5D9F4D7C5DAF4DEC4F6F4DDC44B
:102AA000F7F4000EF86E0800F550200AD8B4EAD703
:102AB000030AD8B4E9D7080AD8B4E2D7060AD8B4CA
:102AC000D4D71D0AD8B4DAD7E1D74151D8B4E1D769
:102AD000FBB1FB93D6C57EF5D7C57FF5D8C580F58C
:102AE000D9C581F5D4ECD2F07EC5E5F57FC5E6F514
:102AF000E6AF07D00601FB810501E56DE61FD8B002
:102B0000E62BD6C5D9F4D7C5DAF4DEC4F6F4DDC4B5
:102B1000F7F4000EF86E0800F5502E0AD8A415D070
:102B2000D6C5D9F4D7C5DAF4DE2A000EDD22D6C523
:102B30007EF5D7C57FF5D8C580F5D9C581F5D4EC2C
:102B4000D2F07EC5E7F57FC5E8F5D6C5D9F4D7C57F
:102B5000DAF4DEC4F6F4DDC4F7F4000EF86E080013
:102B6000F550630AD8A427D0D6C5D9F4D7C5DAF46E
:102B7000DE2A000EDD22D8C5D9F4D9C5DAF4DFC4C7
:102B800033F6020EDE26DFC434F6000EDD2233C635
:102B9000D9F434C6DAF4DF500601426FD4C587F5A4
:102BA000D5C588F542C689F535ECD4F087C5D4F58E
:102BB00088C5D5F51200D6C5D9F4D7C5DAF4DEC478
:102BC0004BF6DDC44CF64BC6F6F44CC6F7F4000EDB
:102BD000F86E0800F5C442F626D04B4B4C2B4BC682
:102BE000F6F44CC6F7F4000EF86E0800F550680ACB
:102BF000D8A440D0480E426F4B4B4C2B3BD04B4B94
:102C00004C2B4BC6F6F44CC6F7F4000EF86E0800D9
:102C1000F5506C0AD8A42ED04C0EEDD7690E426F39
:102C200029D0426B27D006014251580AD8B4F6D7B2
:102C30003C0AD8B4F3D70C0AD8B4CFD7010AD8B419
:102C4000EDD7030AD8B4D8D7060AD8B4D8D7020A21
:102C5000D8B4E4D7010AD8B4E1D71B0AD8B4CCD78A
:102C6000010AD8B4DBD70D0AD8B4D8D7020AD8B431
:102C7000C3D7D7D74BC6F6F44CC6F7F4000EF86EA0
:102C80000800F550640AD8B4CBD04BC6F6F44CC655
:102C9000F7F4000EF86E0800F550690AD8B4C0D0F9
:102CA00001D1D8C5D9F4D9C5DAF4DFC433F6020EA0
:102CB000DE26DFC434F6000EDD2233C6D9F434C676
:102CC000DAF4DF50436F000E43BFFF0E446F51D064
:102CD000D8C5D9F4D9C5DAF4DFC433F6040EDE263C
:102CE000DFC434F6000EDD2233C6D9F434C6DAF47C
:102CF000DEC435F6DEC436F6DEC437F6DEC438F69A
:102D000035C639F636C63AF637C63BF638C63CF60F
:102D10003D6B3CBF3D693DC63EF63DC63FF63DC6F8
:102D200040F639C643F63AC644F63BC645F63CC6BD
:102D300046F63DC647F63EC648F63FC649F640C68B
:102D40004AF687D0D8C5D9F4D9C5DAF4DFC433F64A
:102D5000020EDE26DFC434F6000EDD2233C6D9F4BF
:102D600034C6DAF4DEC443F6DDC444F6000E44BFD4
:102D7000FF0E456F466F476F486F496F4A6F69D0C6
:102D8000D8C5D9F4D9C5DAF4DFC433F6080EDE2687
:102D9000DFC434F6000EDD2233C6D9F434C6DAF4CB
:102DA000DEC435F6DEC436F6DEC437F6DEC438F6E9
:102DB000DEC439F6DEC43AF6DEC43BF6DEC43CF6C9
:102DC00035C643F636C644F637C645F638C646F627
:102DD00039C647F63AC648F63BC649F63CC64AF6F7
:102DE00038D0D8C5D9F4D9C5DAF4DFC433F6020E29
:102DF000DE26DFC434F6000EDD2233C6D9F434C635
:102E0000DAF4DEC435F6DDC436F635C643F636C62A
:102E100044F6456B466B476B486B496B4A6B19D060
:102E20004251480AD8B43DD7040AD8B4A9D7240AD5
:102E3000D8B488D7010AD8B485D7030AD8B4A0D7A4
:102E4000060AD8B445D7180AD8B47CD70E0AD8B425
:102E5000C8D7010E4B25336F000E4C21346FD6C5F9
:102E6000D9F4D7C5DAF433C6DEF434C6DDF4D4C5FC
:102E700098F5D5C599F543C69AF544C69BF545C660
:102E80009CF546C69DF547C69EF548C69FF549C6C2
:102E9000A0F54AC6A1F5AFECC1F098C5D4F599C527
:102EA000D5F512004BC6F6F44CC6F7F4000EF86EDA
:102EB0000800F550780AD8B4C7D04BC6F6F44CC613
:102EC000F7F4000EF86E0800F550580AD8B4BCD0DC
:102ED0004BC6F6F44CC6F7F4000EF86E0800F55039
:102EE0006F0AD8B4B1D04BC6F6F44CC6F7F4000E56
:102EF000F86E0800F550750AD8B4A6D03BD1D8C5F5
:102F0000D9F4D9C5DAF4DFC433F6020EDE26DFC405
:102F100034F6000EDD2233C6D9F434C6DAF4DF50BD
:102F2000356F3551436F446B88D0D8C5D9F4D9C5B6
:102F3000DAF4DFC433F6040EDE26DFC434F6000E06
:102F4000DD2233C6D9F434C6DAF4DEC435F6DEC485
:102F500036F6DEC437F6DEC438F63551436F3651E7
:102F6000446F3751456F3851466F69D0D8C5D9F491
:102F7000D9C5DAF4DFC433F6020EDE26DFC434F638
