:0400000085EF00F098
:1000080023522352235223522352235223524D5117
:1000180023522352304F3E4F23522352235223520E
:100028004C4F235223522352144F2352224F235210
:100038002352235223522352235223522352CA4E6D
:10004800D84FCA4F235223522352235223522352AA
:100058001050235202502352235223522352235228
:100068002352235223522352684F764F844F2352F0
:100078002352235223522352420023522352235203
:10008800F44FE64F23522352744E235223522352E5
:1000980023522352235223524200235223522352E3
:1000A8002352235223522352924FA04FAE4F235232
:1000B8002352235223522352235223522352235290
:1000C8002352235223522352235223522352235280
:1000D8002352235223522352235223522352235270
:1000E8004200235223522352235223522352235293
:1000F800205223522352EE5023522352235223528A
:06010800FF0027EF91F05B
:10F7F0000025732025642025732020202020202030
:10F8000020202020202020202020202020202020F8
:10F810002020202020202020202020202020200008
:10F820004F4E4C494E45204125642C2052256420E2
:10F83000524625642C2054256420544625642C20EF
:10F8400043256420256420257320202020200048A3
:10F850006F7374204125642C205225642052462564
:10F86000642C2054256420544625642C20432564B0
:10F870002025642025732020202020202000554EA4
:10F880004B20464F524D4154204125642C20522597
:10F890006420524625642C20542564205446256457
:10F8A0002C2043256420257320202000257320254B
:10F8B00073202020202020202020202020202020F5
:10F8C0002020202020202020202020202020202038
:10F8D0002020202020200025732025732020202098
:10F8E0002020202020202020202020202020202018
:10F8F0002020202020202020202020202020004800
:10F900006F737420434D44533A204D2043205220BE
:10F9100050204F204C2053204420452048204600B2
:10F92000506F727420626175642072617465207515
:10F930006E6C6F636B6564202020202020202000E7
:10F94000486F737420434D44533A20454E41424C16
:10F9500045442052454D4F54450083200304000187
:10F96000440500018324030400E8FF3C0023007CDD
:10F970007C2F2F2D2D000000000000000000000053
:10F980000000007C7C2F2F2D2D5C5C00000000000F
:10F99000000000000000004F4F4F4F4F4F2D2D5FD4
:10F9A0005F2D00000000000000000076763C3C5E09
:10F9B0005E3E3E0000000000000000000000002E3F
:10F9C0002E2A2A7823782358587C7C2D2D0000007D
:10F9D0000000002E2E6F6F4F4F6F6F000000000071
:10F9E00000000000000000B4000002040000020259
:10F9F0000000000A000001BA492492C8001FFEC797
:10FA0000FFFFFFC5FFFFFEB4001401B4018001B782
:10FA1000FFFFFEB8000001C2000000E4000001008A
:10FA2000F83078252E3478203078252E327820252D
:10FA300064202564202564202020202020202020F0
:10FA400020202020202020202020202020000D2DDC
:10FA50002D2D2054494331323430302044726976A0
:10FA600065722056657273696F6E20257320257349
:10FA7000202573202D2D2D0D0A000D0A2D2D2D2052
:10FA8000424D4344494F2044726976657220566561
:10FA90007273696F6E202573202573202573202DC6
:10FAA0002D2D0D0A000D2D2D2D204D4333333939C9
:10FAB00036204472697665722056657273696F6E7E
:10FAC000202573202573202573202D2D2D0D0A0050
:10FAD0002020202020202020202020202020202026
:10FAE0002020202020202020202020202020202016
:10FAF0002020202020202000525332333220525820
:10FB000020253364563A2563202020202020202001
:10FB10002020202020202020202020202020200005
:10FB2000525332333220545820253364563A2563D9
:10FB300020202020202020202020202020202020C5
:10FB400020202020202020004230203078252E3216
:10FB5000582C204231203078252E32582020202069
:10FB600020202020202020202020202020202000B5
:10FB70004131203078252E32782C204132203078C7
:10FB8000252E3278202020202020202020202020F8
:10FB900020202020202020003078252E347820308E
:10FBA00078252E32782025642025642025642020A5
:10FBB0002020202020202020202020202020200065
:10FBC0004131203078252E32782C20413220307877
:10FBD000252E3278202020202020202020202020A8
:10FBE00020202000535049205449433132343030D2
:10FBF000207472616E736665722073657474696EC9
:10FC000067730A20202000252E327820252E327896
:10FC100020252E327820252E3278202020202020EA
:10FC200020202020202020202000535049204D4318
:10FC30003333393936207472616E7366657220739E
:10FC4000657474696E67730A20202000204D657307
:10FC50006720256420537461636B20256420202075
:10FC600020202020202020202020200020546572E9
:10FC70006D696E616C20496E666F20202020202007
:10FC8000202020202020202020002048454C5020EB
:10FC900053637265656E3A20257520202020202050
:10FCA00020202020200020506F7274204C6F636B46
:10FCB00020232564202020202020202020202020F8
:10FCC00000256C7520256C7520256C752020202062
:10FCD0002020202020202020202020002054657279
:10FCE0006D696E616C20256420202020202020205A
:10FCF00020202020200020434D4420256320256320
:10FD0000204C656E2025642020202020202020000B
:10FD100048454C50202573202020202020202020E2
:10FD20002020202020202000204F70656E204C4C89
:10FD300020202020202020202020202020202000E3
:10FD40002050756D70204C4C202020202020202039
:10FD50002020202020202000205265616479204C42
:10FD60004C20202020202020202020202020200087
:10FD700020533246343120232563202020202020A8
:10FD80002020202020202000444953504C4159205D
:10FD9000257320202020202020202020202020002B
:10FDA0002053746F72656420232564202020202056
:10FDB0002020202020202000767465726D20257878
:10FDC0003A257820202020202020202020202000DC
:10FDD0002053455155454E43452025642020202081
:10FDE000202020202020200020446973706C61793D
:10FDF000206E756D202564202020202020202000EA
:10FE000020532564462564206C6F67202020202520
:10FE10006420202020202000204C6F61642D6C6F16
:10FE2000636B206E756D202564202020202020002B
:10FE3000202573202020202020202020202020206A
:10FE40002020202020200020494E464F2020202026
:10FE5000202020202020202020202020200020449E
:10FE600045425547202020202020202020202020EF
:10FE70002020202000204E534153504F4F4B202034
:10FE80002020202020202020202020002056544503
:10FE9000524D20494E464F20202020202020202057
:10FEA00020200020565445524D2048454C502020DB
:10FEB00020202020202020202000205665727369F9
:10FEC0006F6E20257320202020202020202020203D
:10FED0000020565445524D2044454255472020208D
:10FEE00020202020202020002048454C5020427512
:10FEF000696C6420257320202020202020200020F1
:10FF00004F50492044415120257520202025732041
:10FF1000202020202000424D4344494F20696E6933
:10FF20007420636F6D706C6574650A0048454C50B1
:10FF30002025732020202020202020202020202069
:10FF40002000506F72742025732020202020202054
:10FF50002020202020200025732020202020202069
:10FF600020202020202020202020004C6F636B6563
:10FF700064203139323030627073004C6F636B65CE
:10FF8000642039363030627073004D61792031342D
:10FF900020323032350032333A30333A33300032A7
:10FFA000333A31333A3437002530326868782000EC
:10FFB000434F4D4D202020004552524F52202000EB
:10FFC0004F4E4C494E45200052454D4F5445200060
:10FFD00044495341424C45004F46464C494E45002A
:10FFE000286E756C6C290056302E30340056302E39
:10FFF000380056302E330056302E35002573000061
:020000040001F9
:10000000000194519EEC9CF09F94D68ED68CCBEC44
:10001000A1F0000E6100A1F3FEF92CECA4F0160E85
:100020000501836F3C0E846F010E856F78ECA3F0A1
:1000300029ECA4F026ECA4F0030E0501846FF10E68
:10004000836FCBECA2F00009D8B404D00801FB6B9D
:10005000FB2B02D00801FB6B6200EDF3E8FB030E03
:100060000501846FF00E836FCBECA2F00801FB6FEB
:100070006200EDF3DFFB030E0501846FF10E836F69
:10008000000E856F2FEC9DF0030E0501846FF00EBE
:10009000836F66007CFFFBF80801FB290501856F73
:1000A0002FEC9DF026EEDFF3DFB005D07B0E0C01C8
:1000B0009B6FFF0E04D06B0E0C019B6FFF0E9C6FAD
:1000C000BF82BF84BF860B0E0501896FB80E886F93
:1000D00035ECA1F0BF94BF92BF9626EEE8F3DF5057
:1000E000D8B408D0030E846FF10E836F010E856FB4
:1000F0002FEC9DF0030E0501846FF00E836F6600F8
:100100007CFF85F52FEC9DF026EEE8F3DF50D8B4A8
:1001100052D0030E0501846FF00E836FCBECA2F07A
:100120000801FB6F6200EDF3DFFB66007CFFE8F483
:10013000FF0AD8A40ED0000E6100A1F3DFFB030E6E
:100140000501846FF00E836F66007CFF85F52FEC50
:100150009DF026EEDFF3DFB009D04FEC97F046ECD0
:1001600099F0720E0C019B6FFF0E08D099EC97F07E
:10017000E3EC97F0820E0C019B6FFF0E9C6F030E59
:100180000501846FF00E836F66007CFFE8F4010FB9
:100190006100A1F3DFFB66007CFF85F52FEC9DF08D
:1001A000030E0501846FF10E836F6600A0FF85F5D5
:1001B0002FEC9DF019D0030E0501846FF00E836FB4
:1001C000CBECA2F00801FB6F6200EDF3DFFB26EE43
:1001D000DFF3DFB005D099EC97F0E3EC97F004D0B3
:1001E0004FEC97F046EC99F047EC9CF043ECA4F010
:1001F00083D2DFEC8DF00C0E16ECA3F026EEDDF3CF
:10020000DF50ECECA1F0000E836F000E74EC9CF05C
:1002100083C5E9F884C5EAF8000E0801EC6F150EF5
:10022000EB6F420EED6FFF0EEE6F9BCCEFF89CCCA8
:10023000F0F846EC92F0000E0501836F010E74ECAD
:100240009CF083C5E9F884C5EAF8000E0801EC6F5C
:10025000150EEB6F420EED6FFF0EEE6F9BCCEFF8BD
:100260009CCCF0F846EC92F0000E0501836F020E74
:1002700074EC9CF083C5E9F884C5EAF8000E080127
:10028000EC6F150EEB6F420EED6FFF0EEE6F9BCC19
:10029000EFF89CCCF0F846EC92F0000E0501836F6D
:1002A000030E74EC9CF083C5E9F884C5EAF8000EEF
:1002B0000801EC6F150EEB6F420EED6FFF0EEE6F47
:1002C0009BCCEFF89CCCF0F846EC92F00FECA3F04E
:1002D000030E0501896FE80E886F35ECA1F0010E61
:1002E0006100A1F3FEF9070E846FA50E836F55EC34
:1002F000A2F026EEDDF3DF50ECECA1F0240E0801B5
:10030000E96F1B0EEA6F000EEC6F3F0EEB6F6C0E89
:10031000ED6FFC0EEE6F46EC92F0000E0501836F60
:10032000000E74EC9CF083C5E9F884C5EAF8000E71
:100330000801EC6F150EEB6FFF0EED6FFE0EEE6F0A
:1003400066007CFFFBF8010EFB17FB51EF6FF06BB3
:10035000E70EF16FFF0EF26F46EC92F0000E050112
:10036000836F010E74EC9CF083C5E9F884C5EAF84C
:10037000000E0801EC6F150EEB6FBA0EED6FFE0E5E
:10038000EE6FE70EEF6FFF0EF06F46EC92F0000E8F
:100390000501836F020E74EC9CF083C5E9F884C5F7
:1003A000EAF8000E0801EC6F150EEB6F750EED6F9D
:1003B000FE0EEE6F46EC92F0000E0501836F030E09
:1003C00074EC9CF083C5E9F884C5EAF8000E0801D6
:1003D000EC6F150EEB6F300EED6FFE0EEE6F8A0EAA
:1003E000EF6FFF0EF06F46EC92F0010E0501836F88
:1003F000000E74EC9CF083C5E9F884C5EAF8000EA1
:100400000801EC6F150EEB6F470EED6FFE0EEE6FF1
:1004100046EC92F0010E0501836F010E74EC9CF026
:1004200083C5E9F884C5EAF8000E0801EC6F150EE3
:10043000EB6FBA0EED6FFE0EEE6FE70EEF6FFF0E75
:10044000F06F46EC92F0010E0501836F020E74EC22
:100450009CF083C5E9F884C5EAF8000E0801EC6F4A
:10046000150EEB6F8C0EED6FFE0EEE6F46EC92F0FC
:10047000010E0501836F030E74EC9CF083C5E9F84F
:1004800084C5EAF8000E0801EC6F150EEB6F300E14
:10049000ED6FFE0EEE6F8A0EEF6FFF0EF06F46EC03
:1004A00092F0030E0501836F000E74EC9CF083C57F
:1004B000E9F884C5EAF8000E0801EC6F150EEB6F41
:1004C000E80EED6FFE0EEE6FE70EEF6FFF0EF06FB2
:1004D00046EC92F0030E0501836F010E74EC9CF064
:1004E00083C5E9F884C5EAF8000E0801EC6F150E23
:1004F000EB6FBA0EED6FFE0EEE6FE70EEF6FFF0EB5
:10050000F06F46EC92F0030E0501836F020E74EC5F
:100510009CF083C5E9F884C5EAF8000E0801EC6F89
:10052000150EEB6FA30EED6FFE0EEE6F46EC92F024
:10053000030E0501836F030E74EC9CF083C5E9F88C
:1005400084C5EAF8000E0801EC6F150EEB6F300E53
:10055000ED6FFE0EEE6F8A0EEF6FFF0EF06F46EC42
:1005600092F0020E0501836F000E74EC9CF083C5BF
:10057000E9F884C5EAF8000E0801EC6F150EEB6F80
:100580005E0EED6FFE0EEE6F46EC92F0020E050170
:10059000836F010E74EC9CF083C5E9F884C5EAF81A
:1005A000000E0801EC6F150EEB6FBA0EED6FFE0E2C
:1005B000EE6FE70EEF6FFF0EF06F46EC92F0020E5B
:1005C0000501836F020E74EC9CF083C5E9F884C5C5
:1005D000EAF8000E0801EC6F150EEB6FD10EED6F0F
:1005E000FE0EEE6F46EC92F0020E0501836F030ED5
:1005F00074EC9CF083C5E9F884C5EAF8000E0801A4
:10060000EC6F150EEB6F300EED6FFE0EEE6F8A0E77
:10061000EF6FFF0EF06F46EC92F00FECA3F00B0EB5
:100620000501896FB80E886F35ECA1F0010E846F5B
:10063000F40E836F050E9EECA0F00B0E846FB80EC7
:10064000836F020E9EECA0F0050E846FDC0E836FAC
:10065000070E9EECA0F00B0E846FB80E836F040E95
:100660009EECA0F0270E846F100E836F060E9EEC9A
:10067000A0F00B0E846FB80E836F030E9EECA0F0FB
:10068000000E846F050E836F010E9EECA0F046D025
:10069000000EBBECA1F0000E836F000E74EC9CF01A
:1006A00083C599FC84C59AFC0C0120EE15F0995184
:1006B000D9269A51DA22DF6A000E0501876F030EF0
:1006C000C2EC95F00801FB6F0C0120EE13F099517C
:1006D000D9269A51DA22FBC8DFF420D0000E61003F
:1006E000A1F3FEF90FECA3F00B0E0501896FB80E14
:1006F000886F35ECA1F012D026EEFEF1DF50080134
:10070000FB6FFC6BFC51000AD8A4E8D7FB51000A30
:10071000D8B46FD5010AD8B4BBD7E0D7010E49ECE5
:10072000A1F00009D8B453D1570E0701A06F570E9E
:10073000A16F570EA26F570EA36F6FECA0F02BECBA
:100740008DF00009D8B411D0000E05019C6F000E89
:100750009D6F000E9E6F000E9F6F000EA06F000E2B
:10076000A16F000EA26F02EC99F085ECA1F0000ED3
:100770000501846F050E836F010E9EECA0F0010E43
:1007800006010027000E01230223032316ECA4F028
:10079000000E00ECA3F008ECA3F00009D8B4FBD7DE
:1007A00008ECA3F00009D8B406D028ECA2F083C569
:1007B00000F784C501F716ECA4F0010E00ECA3F0DD
:1007C00008ECA3F00009D8B4FBD708ECA3F00009AB
:1007D000D8B40ED028ECA2F061000DF6EDFB61005C
:1007E00011F6EEFB6600B4FF02F76600B8FF03F7F0
:1007F00016ECA4F0020E00ECA3F008ECA3F0000944
:10080000D8B4FBD708ECA3F00009D8B40ED028EC7C
:10081000A2F061000DF6EFFB610011F6F0FB66003F
:10082000BCFF04F76600C0FF05F716ECA4F0040E49
:1008300000ECA3F008ECA3F00009D8B4FBD708EC57
:10084000A3F00009D8B406D028ECA2F083C508F7BD
:1008500084C509F716ECA4F0050E00ECA3F008EC33
:10086000A3F00009D8B4FBD708ECA3F00009D8B472
:1008700006D028ECA2F083C50AF784C50BF716EC66
:10088000A4F0160E00ECA3F008ECA3F00009D8B415
:10089000FBD708ECA3F00009D8B406D028ECA2F0EE
:1008A00083C52CF784C52DF716ECA4F0170E00ECC9
:1008B000A3F008ECA3F00009D8B4FBD708ECA3F030
:1008C0000009D8B406D028ECA2F083C52EF784C561
:1008D0002FF716ECA4F01D0E00ECA3F008ECA3F02B
:1008E0000009D8B4FBD708ECA3F00009D8B406D0AF
:1008F00028ECA2F083C53AF784C53BF716ECA4F0C8
:100900003B0E00ECA3F008ECA3F00009D8B4FBD731
:1009100008ECA3F00009D8B406D028ECA2F083C5F7
:1009200076F784C577F716ECA4F03C0E00ECA3F044
:1009300008ECA3F00009D8B4FBD708ECA3F0000939
:10094000D8B406D028ECA2F083C578F784C579F72F
:1009500016ECA4F03D0E00ECA3F008ECA3F00009A7
:10096000D8B4FBD708ECA3F00009D8B406D028EC23
:10097000A2F083C57AF784C57BF716ECA4F03E0E8F
:1009800000ECA3F008ECA3F00009D8B4FBD708EC06
:10099000A3F00009D8B406D028ECA2F083C57CF7F8
:1009A00084C57DF716ECA4F03F0E00ECA3F008EC34
:1009B000A3F00009D8B4FBD708ECA3F00009D8B421
:1009C00006D028ECA2F083C57EF784C57FF7050E1C
:1009D00049ECA1F00009D8B424D2010E846FF40EC2
:1009E000836F050E9EECA0F0040E49ECA1F0000907
:1009F000D8B403D0000EBBECA1F0000E836F000E44
:100A000074EC9CF083C5E9F884C5EAF8000E08018F
:100A1000EC6F150EEB6F070EED6FFC0EEE6F06011F
:100A200020EE03F03351D9263451DA22DF50080189
:100A3000FB6FFB51EF6FF06B060120EE02F03351BC
:100A4000D9263451DA22DF500801FC6FFC51F16FD6
:100A5000F26B060120EE01F03351D9263451DA222F
:100A6000DF500801FD6FFD51F36FF46B33C6D9F40D
:100A700034C6DAF4DF50FE6FFE51F56FF66B46ECCC
:100A800092F0000E0501836F010E74EC9CF083C59B
:100A9000E9F884C5EAF8000E0801EC6F150EEB6F5B
:100AA000C10EED6FFC0EEE6F41C6EFF842C6F0F8D6
:100AB00043C6F1F844C6F2F83DC6F3F83EC6F4F872
:100AC0003FC6F5F840C6F6F845C6F7F846C6F8F84A
:100AD00047C6F9F848C6FAF846EC92F0000E050150
:100AE000836F020E74EC9CF083C5E9F884C5EAF8C4
:100AF000000E0801EC6F150EEB6FC00EED6FFB0ED4
:100B0000EE6F6600B4FFEFF86600B8FFF0F866001D
:100B1000BCFFF1F86600C0FFF2F846EC92F0000E60
:100B20000501836F030E74EC9CF083C5E9F884C55E
:100B3000EAF8000E0801EC6F150EEB6F210EED6F59
:100B4000FA0EEE6F8FC0EFF890C0F0F897C0F1F892
:100B5000F26B16A603D0FB6BFB2B02D00801FB6BDC
:100B6000FB51F36FF46B16A403D0FC6BFC2B02D08B
:100B70000801FC6BFC51F56FF66B16A803D0FD6BFA
:100B8000FD2B02D00801FD6BFD51F76FF86B46ECB1
:100B900092F074EC8CF026EEDEF3DFC4FBF8010E6D
:100BA000DF26460E0801FB652BD00501DC51ECEC7D
:100BB000A1F026EEDEF3DF500801FB6FFC6B26EEA2
:100BC000E0F3DF50FD6FFE6B660EFD27000EFE2387
:100BD000FB51FD5DFE51800AFF6FFC51800AFF59F9
:100BE000D8B013D00501DC2BDC51030B030AD8A4C9
:100BF00002D0010EDC6F000E6100A1F3DEFB05D018
:100C000026EEDDF3DF50ECECA1F0010E0501836F61
:100C1000000E74EC9CF083C5E9F884C5EAF8000E78
:100C20000801EC6F150EEB6F200EED6FFB0EEE6FF3
:100C30006600C4FFEFF86600C8FFF0F86600D4FF56
:100C4000FBF8FB51F16FF26B46EC92F0010E0501DF
:100C5000836F010E74EC9CF083C5E9F884C5EAF853
:100C6000000E0801EC6F150EEB6FF80EED6FFA0E2B
:100C7000EE6F6600CCFFEFF86600D0FFF0F866007C
:100C8000D8FFFBF8FB51F16FF26B46EC92F0010ECE
:100C90000501836F020E74EC9CF083C5E9F884C5EE
:100CA000EAF8000E0801EC6F150EEB6F700EED6F99
:100CB000FB0EEE6F6600B4FFEFF86600B8FFF0F8C9
:100CC0006600BCFFF1F86600C0FFF2F846EC92F057
:100CD000010E0501836F030E74EC9CF083C5E9F8E7
:100CE00084C5EAF8000E0801EC6F150EEB6F480E94
:100CF000ED6FFB0EEE6FB6C6EFF8F06BB7C6F1F80E
:100D0000F26B46EC92F0020E0501836F000E74EC5C
:100D10009CF083C5E9F884C5EAF8000E0801EC6F81
:100D2000150EEB6FD00EED6FFA0EEE6F46EC92F0F3
:100D3000020E0501836F010E74EC9CF083C5E9F887
:100D400084C5EAF8000E0801EC6F150EEB6FD00EAB
:100D5000ED6FFA0EEE6F46EC92F0020E0501836F16
:100D6000020E74EC9CF083C5E9F884C5EAF8000E25
:100D70000801EC6F150EEB6F700EED6FFB0EEE6F52
:100D80006600B4FFEFF86600B8FFF0F86600BCFF3D
:100D9000F1F86600C0FFF2F846EC92F0020E050191
:100DA000836F030E74EC9CF083C5E9F884C5EAF800
:100DB000000E0801EC6F150EEB6F980EED6FFB0E39
:100DC000EE6F8FC0EFF890C0F0F897C0F1F8F26BBB
:100DD00016A603D0FB6BFB2B02D00801FB6BFB516B
:100DE000F36FF46B16A403D0FC6BFC2B02D008014C
:100DF000FC6BFC51F56FF66B16A803D0FD6BFD2B59
:100E000002D00801FD6BFD51F76FF86B46EC92F0D4
:100E100026EEE9F3DF50D8A404D00FECA3F0E2EC07
:100E2000A2F026EEE9F3DF50D8B416D0030E49EC59
:100E3000A1F00009D8B40CD0000E6100A1F3E9FBC9
:100E400026EEDDF3DF50ECECA1F00FECA3F004D0C4
:100E5000030EECECA1F0F9D726EEE4F3DF50D8B4A2
:100E6000F6EF80F0060E49ECA1F00009D8B4F6EFD9
:100E700080F0270E846F100E836F060E9EECA0F09C
:100E80000B0E846FB80E836F030E9EECA0F0010E64
:100E90006100A1F3E9FB000E8DEC8EF0F6EF80F01F
:100EA000B3C5D9F4B4C5DAF4DEC4F6F4DDC4F7F49E
:100EB000000EF86E0800F550250AD8A455D2B3C527
:100EC000D9F4B4C5DAF4DE2A000EDD22000ED46FA8
:100ED000000ED36FD3C5D9F5D569D669B3C583F5EF
:100EE000B4C584F5B5C585F5B6C586F5C2EC94F0F4
:100EF00083C5D3F584C5D4F5D4AF05D0D981D36DDE
:100F0000D41FD8B0D42BB3C5D9F4B4C5DAF4DEC439
:100F1000F6F4DDC4F7F4000EF86E0800F5502E0A62
:100F2000D8A415D0B3C5D9F4B4C5DAF4DE2A000EBE
:100F3000DD22B3C583F5B4C584F5B5C585F5B6C561
:100F400086F5C2EC94F083C5D5F584C5D6F5B3C556
:100F5000D9F4B4C5DAF4DEC4F6F4DDC4F7F4000E57
:100F6000F86E0800F550630AD8A426D0B3C5D9F4AA
:100F7000B4C5DAF4DE2A000EDD22B5C5D9F4B6C553
:100F8000DAF4DFC4B7F5020EDE26DFC4B8F5000ED2
:100F9000DD22B7C5D9F4B8C5DAF4DF50C06FB1C5EA
:100FA0008CF5B2C58DF5C0C58EF502EC97F08CC5F9
:100FB000B1F58DC5B2F51200B3C5D9F4B4C5DAF4F4
:100FC000DEC4C1F5DDC4C2F5C1C5F6F4C2C5F7F48F
:100FD000000EF86E0800F5C4C0F508D0C14BC22B56
:100FE00019D0690EC06F16D0C06B14D0C051580A0A
:100FF000D8B4F7D73C0AD8B4F4D70D0AD8B4F1D78F
:10100000050AD8B4EBD7190AD8B4EBD70D0AD8B46F
:10101000E8D7EAD7C1C5F6F4C2C5F7F4000EF86EFA
:101020000800F550640AD8B43FD0C1C5F6F4C2C573
:10103000F7F4000EF86E0800F550690AD8B434D001
:101040005BD0B5C5D9F4B6C5DAF4DFC4B7F5020E86
:10105000DE26DFC4B8F5000EDD22B7C5D9F4B8C569
:10106000DAF4DEC4BCF5DDC4BDF5000EBDBFFF0E75
:10107000BE6FBF6F20D0B5C5D9F4B6C5DAF4DFC4F2
:10108000B7F5040EDE26DFC4B8F5000EDD22B7C5C5
:10109000D9F4B8C5DAF4DEC4BCF5DEC4BDF5DEC4EF
:1010A000BEF5DEC4BFF507D0C051690AD8B4C9D7B0
:1010B000050AD8B4E0D7010EC125B76F000EC221D2
:1010C000B86FB3C5D9F4B4C5DAF4B7C5DEF4B8C5A2
:1010D000DDF4B1C59CF5B2C59DF5BCC59EF5BDC599
:1010E0009FF5BEC5A0F5BFC5A1F53AEC8FF09CC534
:1010F000B1F59DC5B2F51200C1C5F6F4C2C5F7F44D
:10110000000EF86E0800F550780AD8B44BD0C1C56F
:10111000F6F4C2C5F7F4000EF86E0800F550580A50
:10112000D8B440D0C1C5F6F4C2C5F7F4000EF86ECD
:101130000800F550750AD8B435D08AD0B5C5D9F4B1
:10114000B6C5DAF4DFC4B7F5020EDE26DFC4B8F5A3
:10115000000EDD22B7C5D9F4B8C5DAF4DEC4B9F59E
:10116000DDC4BAF5B9C5BCF5BAC5BDF5BE6BBF6B7C
:1011700020D0B5C5D9F4B6C5DAF4DFC4B7F5040E8E
:10118000DE26DFC4B8F5000EDD22B7C5D9F4B8C538
:10119000DAF4DEC4BCF5DEC4BDF5DEC4BEF5DEC4E3
:1011A000BFF507D0C051690AD8B4C8D7050AD8B46A
:1011B000E0D7010EC125B76F000EC221B86FB3C5CD
:1011C000D9F4B4C5DAF4B7C5DEF4B8C5DDF42FD070
:1011D000B1C59CF5B2C59DF5BCC59EF5BDC59FF5D5
:1011E000BEC5A0F5BFC5A1F5C2EC92F09CC5B1F596
:1011F0009DC5B2F51200B1C59CF5B2C59DF5BCC543
:101200009EF5BDC59FF5BEC5A0F5BFC5A1F5C1C57D
:10121000F6F4C2C5F7F4000EF86E0800F5C4A2F5A6
:10122000C2EC91F09CC5B1F59DC5B2F51200C1C5E7
:10123000F6F4C2C5F7F4000EF86E0800F550580A2F
:10124000D8B4D9D72D0AD8B4C3D70D0AD8B4D3D7B8
:10125000BB6BB3C5D9F4B4C5DAF4DEC4F6F4DDC4AF
:10126000F7F4000EF86E0800F550730AD8A40AD0FF
:10127000B3C5D9F4B4C5DAF4DE2A000EDD22010EBE
:10128000BB6F44D0B3C5D9F4B4C5DAF4DEC4F6F408
:10129000DDC4F7F4000EF86E0800F5506C0AD8A40F
:1012A00035D0B3C5D9F4B4C5DAF4DEC4B7F5DDC4BE
:1012B000B8F5010EB727000EB823B7C5F6F4B8C5C8
:1012C000F7F4000EF86E0800F5506C0AD8A41ED092
:1012D000B3C5D9F4B4C5DAF4DEC4B7F5DDC4B8F5E6
:1012E000020EB727000EB823B7C5F6F4B8C5F7F459
:1012F000000EF86E0800F550730AD8A407D0030E4C
:10130000B3C5D9F4B4C5DAF4DE26B7D7BB51D8B427
:101310001FD0B1C58CF5B2C58DF5B5C5D9F4B6C52C
:10132000DAF4DFC4B7F5020EDE26DFC4B8F5000E2E
:10133000DD22B7C5D9F4B8C5DAF4DEC48EF5DDC454
:101340008FF5E5EC8FF08CC5B1F58DC5B2F51200C7
:10135000B3C5D9F4B4C5DAF4DE2A000EDD22000EDE
:10136000B26F000EB16F1200B3C5D9F4B4C5DAF490
:10137000DEC4F6F4DDC4F7F4000EF86E0800F55094
:10138000836F846BB1C585F5B2C586F512EC96F016
:10139000B3C5D9F4B4C5DAF4DE2A000EDD22000E9E
:1013A000B26F010EB16F12000000000000000000DB
:1013B000000000000000000000000000000000002D
:1013C000000000000000000000000000000000001D
:1013D000000000000000000000000000000000000D
:1013E00000000000000000000000000000000000FD
:1013F00000000000000000000000000000000000ED
:1014000000000000000000000000000000000000DC
:1014100000000000000000000000000000000000CC
:1014200000000000000000000000000000000000BC
:1014300000000000000000000000000000000000AC
:10144000000000000000000000000000000000009C
:10145000000000000000000000000000000000008C
:10146000000000000000000000000000000000007C
:10147000000000000000000000000000000000006C
:10148000000000000000000000000000000000005C
:10149000000000000000000000000000000000004C
:1014A000000000000000000000000000000000003C
:1014B000000000000000000000000000000000002C
:1014C000000000000000000000000000000000001C
:1014D000000000000000000000000000000000000C
:1014E00000000000000000000000000000000000FC
:1014F00000000000000000000000000000000000EC
:1015000000000000000000000000000000000000DB
:1015100000000000000000000000000000000000CB
:1015200000000000000000000000000000000000BB
:101530000000000000000000000A0A140000000083
:10154000000000000000000000000000000000009B
:10155000000000000000000000000000000000008B
:10156000000000000000000000000000000000007B
:10157000000000000000000000000000000000006B
:101580000000000100010002000000000000010056
:10159000000000000001000000000000000000004A
:1015A0004F4F0000000000000000434D443A204D22
:1015B0002C2043202020202020202020202000003C
:1015C000000000000000000000004D6573736167BB
:1015D000652C20436C6F73652020202020200000A4
:1015E0000000000000000000000054657874204DE9
:1015F00065737361676520746F20486F73740000B2
:1016000000000000000000000000434D443A20525A
:101610002C20502C204F2020202020202020000093
:101620000000000000000000000052656164792C99
:101630002050756D702C204F70656E2020200000AA
:10164000000000000000000000004C6F6164204CAE
:101650006F636B20636F6D6D616E6473202000009B
:1016600000000000000000000000434D443A204C00
:101670002C20532C2044202020202020202000003B
:10168000000000000000000000004C6F672C205399
:10169000657175656E63652C204465627567000031
:1016A000000000000000000000002020202020207A
:1016B000202020202020202020202020202000006A
:1016C00000000000000000000000434D443A2045A7
:1016D0002C20482C204620202020202020200000E4
:1016E000000000000000000000004572726F72737D
:1016F0002C2048656C702C20467265652020000007
:1017000000000000000000000000453A205465730E
:10171000742020463A205370656564202020000024
:101720000000000000000000000005019A6F0501A4
:101730009A51030B9A6F9A51966F976B000E96030E
:10174000F3C498F5F4C499F59703F3509927020E62
:101750009603F3509927100E9825D96E120E9921F1
:10176000DA6EDF6A9A51966F976B000E9603F3C498
:1017700098F5F4C499F59703F3509927020E960350
:10178000F3509927900E9825D96E120E9921DA6E92
:10179000DF6A9A51966F976B000E9603F3C498F523
:1017A000F4C499F59703F3509927020E9603F3506A
:1017B0009927100E9825D96E130E9921DA6EDF6ADB
:1017C0009A51966F976B000E9603F3C498F5F4C484
:1017D00099F59703F3509927020E9603F350992732
:1017E000900E9825D96E130E9921DA6EDF6A2DECD2
:1017F00098F0000E0501916F9A51966F976B000E4D
:101800009603F3C498F5F4C499F59703F350992718
:10181000020E9603F3509927FB0E9825926F110E36
:101820009921936F000EF3EC9AF02DEC98F0000ED6
:101830000501916F9A51966F976B000E9603F3C452
:1018400098F5F4C499F59703F3509927020E96037F
:10185000F35099277B0E9825926F120E9921936F62
:10186000010EF3EC9AF02DEC98F0000E0501916F4B
:101870009A51966F976B000E9603F3C498F5F4C4D3
:1018800099F59703F3509927020E9603F350992781
:10189000FB0E9825926F120E9921936F020EF3ECB6
:1018A0009AF02DEC98F0000E0501916F9A51966F09
:1018B000976B000E9603F3C498F5F4C499F597035B
:1018C000F3509927020E9603F35099277B0E982523
:1018D000926F130E9921936F030EF3EC9AF026EE9C
:1018E000FBF1DF50030B12006600B4FF83F56600C6
:1018F000B8FF84F5BAEC9BF08B6F61002DF6F5FB19
:101900006600BCFF83F56600C0FF84F5BAEC9BF06F
:101910008B6F61002DF6F6FB26EEEDF3DEC48BF542
:10192000DDC48CF5000E8B25836FF80E8C21846F3F
:10193000000E866F3C0E856F89EC99F061000DF604
:10194000F1FB610011F6F2FB26EEF1F3010EDBBEB6
:101950001FD0010EDB5003E1DE04D8A019D026EE23
:10196000EDF3DEC48BF5DDC48CF5000E8B25836FA3
:10197000F80E8C21846F000E866F230E856F89EC24
:1019800099F061000DF6F1FB610011F6F2FB13D046
:1019900026EEF1F3010EDBAE0ED0E80EDE5CFF0E9C
:1019A000DE58D8B008D0000E6100A1F3F1FB000EA4
:1019B0006100A1F3F2FB26EEEFF3DEC48BF5DDC48C
:1019C0008CF5000E8B25836FF80E8C21846F000E32
:1019D000866F3C0E856F89EC99F061000DF6F3FB84
:1019E000610011F6F4FB26EEF3F3010EDBBE1FD00F
:1019F000010EDB5003E1DE04D8A019D026EEEFF390
:101A0000DEC48BF5DDC48CF5000E8B25836FF80EDC
:101A10008C21846F000E866F230E856F89EC99F000
:101A200061000DF6F3FB610011F6F4FB120026EEE7
:101A3000F3F3010EDBAE1200E80EDE5CFF0EDE58A3
:101A4000D8B01200000E6100A1F3F3FB000E61009C
:101A5000A1F3F4FB1200EB0E0501916FF90E926FEA
:101A6000000E946F000E936F3DEC93F091C529F535
:101A700092C52AF593C52BF594C52CF529C59CF57F
:101A80007E0E9C17D8A408D0010E076E06015F6970
:101A90006069616962698CD01B0E916FFA0E926F5A
:101AA000000E946F000E936F3DEC93F0170E916F44
:101AB000FA0E926F000E946F000E936F3DEC93F050
:101AC000130E916FFA0E926F000E946F000E936FCB
:101AD0003DEC93F00F0E916FFA0E926F000E946F23
:101AE000000E936F3DEC93F0030E916FFA0E926F20
:101AF000000E946F000E936F3DEC93F0FF0E916F0C
:101B0000F90E926F000E946F000E936F3DEC93F000
:101B1000FB0E916FF90E926F000E946F000E936F93
:101B20003DEC93F0F70E916FF90E926F000E946FEB
:101B3000000E936F3DEC93F00B0E916FFA0E926FC7
:101B4000000E946F000E936F3DEC93F0070E916FB3
:101B5000FA0E926F000E946F020E936F3DEC93F0AD
:101B600091C529F592C52AF593C52BF594C52CF599
:101B700029A20CD0010E076EFE0E06015F6FFF0E4C
:101B8000606FFF0E616FFF0E626F12D0EF0E916FEC
:101B9000F90E926F000E946F000E936F3DEC93F070
:101BA00091C529F592C52AF593C52BF594C52CF559
:101BB0000750D8A402D0010E1200000E1200E00E51
:101BC0000601316F070E326FA00E336F070E346FB0
:101BD000800E0501836F080E846F000E866F200E45
:101BE000856F000E886F690E876FB4ECA0F07A0ED7
:101BF000836F480E846F010E856FCCECA3F0FE0E50
:101C0000836F440E846F010E856FD3ECA3F0020E38
:101C100019ECA2F0E20E0501836F420E846F010EF3
:101C2000856FB7ECA3F0C00E836F410E846F010E79
:101C3000856FBEECA3F00E0E836F410E846F010E14
:101C4000856FC5ECA3F0030E0AECA2F0E20E0501CD
:101C5000836F420E846F010E856FA2ECA3F0C00E5D
:101C6000836F410E846F010E856FA9ECA3F00E0EF9
:101C7000836F410E846F010E856FB0ECA3F0030EED
:101C8000FBECA1F04850D8B40BD0C00E0501836F17
:101C9000270E846F090E856F000E866F78EC9FF01B
:101CA00000018A93E86BFC9F849F020E866F848FED
:101CB0003F0EFD17FD9BFD51F90B0209FD6FE70E6D
:101CC000FD17FD8131C6F9F032C6FAF0FB6BFC9BC3
:101CD000FC8F8A83530EECECA2F0050E52EC9DF0C3
:101CE000520EECECA2F0230E52EC9DF0410EECEC07
:101CF000A2F0510EECECA2F0DC0E0501836F050E94
:101D0000846F000E856F000E866F78EC9FF007ECF5
:101D1000A4F002ECA4F0486A1200C66F26EEE4F3C9
:101D2000DF50D8B41200030E0501836F000E74EC6F
:101D30009CF083C5E9F884C5EAF8000E0801EC6F51
:101D4000150EEB6F8A0EED6FFC0EEE6F660098FFBE
:101D5000C5F5010E0501C5250801EF6FF06B000EFA
:101D6000F02346EC92F00501C651D8B419D0030E09
:101D7000836F030E74EC9CF083C5E9F884C5EAF820
:101D8000000E0801EC6F150EEB6F2C0EED6FFF0EC1
:101D9000EE6F000EEF6F000EF06F46EC92F021D068
:101DA000030E836F030E74EC9CF083C5E9F884C5C1
:101DB000EAF8000E0801EC6F150EEB6F310EED6FB7
:101DC000FE0EEE6F660098FFC5F50501C551600D6A
:101DD0003F0EF3240801EF6F1C0EF420F06F46EC69
:101DE00092F0030E0501836F020E74EC9CF083C524
:101DF000E9F884C5EAF8000E0801EC6F150EEB6FE8
:101E0000570EED6FFF0EEE6F660098FFC5F50501EA
:101E1000C551600D1F0EF3240801EF6F1C0EF42056
:101E2000F06F46EC92F0030E0501836F010E74EC27
:101E30009CF083C5E9F884C5EAF8000E0801EC6F50
:101E4000150EEB6F570EED6FFF0EEE6F660098FFED
:101E5000C5F50501C551600DFF0EF3240801EF6FB4
:101E60001B0EF420F06F46EC92F0010E6100A1F31E
:101E7000E6FB1200A1AF02D0010E01D0000EA86F48
:101E8000D6AF05D0000EA76F010EA66F04D0D5C542
:101E9000A6F5D6C5A7F5D3C5A4F5D4C5A5F5A85113
:101EA000D8B410D0A407D8A0A507A851D8A404D0AE
:101EB000000EA36F2B0E03D0000EA36F2D0EA26F8A
:101EC000A2C5A8F5000EAA6F1F0EA96F07019F6B90
:101ED00044D0A907D8A0AA07800EA925D96E070E5D
:101EE000AA21DA6E9EC583F59FC584F5A0C585F548
:101EF000A1C586F50A0E876F000E886F000E896FE8
:101F0000000E8A6F1DEC95F083C58DF584C58EF5A6
:101F10005DECA1F08D51300FDF6EA607D8A0A707AA
:101F2000A407D8A0A5079EC583F59FC584F5A0C5C5
:101F300085F5A1C586F50A0E876F000E886F000E25
:101F4000896F000E8A6FA6EC93F083C59EF584C559
:101F50009FF585C5A0F586C5A1F50501AABF12D0DC
:101F6000AA5103E1A905D8A00DD09E519F11A0113F
:101F7000A111D8A4AED7A7BF05D0A751AAE1A60545
:101F8000D8B0A7D7A851D8B40BD0A907D8A0AA0712
:101F9000800EA925D96E070EAA21DA6EA8C5DFF436
:101FA0009CC593F59DC594F5800EA925956F070EE8
:101FB000AA21966FA4C597F5A5C598F577EC98F07A
:101FC00093C59CF594C59DF512008EC596F58FC5F9
:101FD00097F596519711D8A404D0E00E966FFF0E96
:101FE000976F000E996F000E986F03D00501984B04
:101FF000992B98519625906F99519721916F90C583
:10200000F6F491C5F7F4000EF86E3F0EF76403D0B6
:102010000800F55005D0F6C4E9F4F7C4EAF4EF502F
:102020000009D8A4E3D70501D6BF0ED09851D55DDD
:10203000D651800A906F9951800A9059D8B004D037
:10204000D5C598F5D6C599F598C592F599C593F576
:10205000D3C594F5D4C595F5D9A10DD035D0000ED2
:10206000846F200E836F8CC585F58DC586F512ECC7
:1020700096F0984B992B9451985D9951800A906FE6
:102080009551800A9059D8B01FD0E9D796C5F6F47B
:1020900097C5F7F4000EF86E3F0EF76403D0080002
:1020A000F55005D0F6C4E9F4F7C4EAF4EF500501A1
:1020B000906F9051836F846B8CC585F58DC586F5C7
:1020C00012EC96F0964B972B9207D8A09307922983
:1020D000DDE19329D8A4DAD7D9B10DD016D0000EFE
:1020E000846F200E836F8CC585F58DC586F512EC47
:1020F00096F0984B992B9451985D9951800A906F66
:102100009551800A9059D8A0EAD798C58CF599C501
:102110008DF51200670E0501616FBF82010E060189
:102120001427000E152316231723BF928DC015F513
:1021300015C5B6F61550F00B0501636F63C5BEF605
:10214000F6ECA3F00009D8B408D0BF92B4EC9EF02E
:10215000626F62C5B7F6618D1686B00E6319D8A49A
:102160000AD015500F0B606F010E06010C27000EF0
:102170000D230E230F23E00E05016319D8A414D0FC
:10218000EFECA3F00009D8B409D015C545F50F0E42
:1021900045164538F00B60113BECA0F061C5BAF66E
:1021A0001696168811ECA4F0800E05016319D8A4C8
:1021B00033D0169E010E06010027000E01230223D4
:1021C000032315500F0B126E400E126401D0126AD9
:1021D0001250020D000EF324D96E070EF420DA6EB1
:1021E000DEC445F5DDC446F546C545F5466A4550AD
:1021F00000018E6F1250020D000EF324D96E070EEF
:10220000F420DA6EDF508E6F168802D08DC015F57F
:1022100094A7FCD711ECA4F0C00E1518D8A40FD0C9
:10222000010E06011C27000E1D231E231F2314C6AA
:1022300018F615C619F616C61AF617C61BF6100EAE
:1022400005016319D8A4120062C5BAF61200A80EDF
:10225000F66E130EF76E010EF86E06EEFDF110EE3F
:1022600082F30900F5C4EEF4E550E150FAE1E250E2
:10227000F8E1AA0EF66E400EF76E010EF86E01EE52
:10228000B6F210EE33F00900F5C4EEF4E550E1507B
:10229000FAE1A80EF66E480EF76E010EF86E090010
:1022A000F5C4DCF5840EF66E480EF76E010EF86E7E
:1022B0000900F5C447F50900F5C448F503EEFFF140
:1022C00012EEFEF3EE6AE550E150FCE1E250FAE175
:1022D00003EE00F110EEFFF0EE6AE550E150FCE194
:1022E000E250FAE103EE00F0880EEE6AE806FDE146
:1022F00002EE00F310EEFFF0EE6AE550E150FCE173
:10230000E250FAE102EE00F210EEFFF0EE6AE55064
:10231000E150FCE1E250FAE102EE00F110EEFFF0D4
:10232000EE6AE550E150FCE1E250FAE102EE00F025
:10233000E90EEE6AE806FDE101EE00F310EE00F1B1
:10234000EE6AE550E150FCE1E250FAE101EE00F204
:10235000B60EEE6AE806FDE101EEC7F1150EEE6A73
:10236000E806FDE101EE01F12C0EEE6AE806FDE162
:102370000401080E5D6F000E5E6F000E5F6F0001BE
:1023800000EF80F0D6AF05D0000EAD6F010EAC6F40
:1023900004D0D5C5ACF5D6C5ADF5D3C5A8F5D4C523
:1023A000A9F5780EA219D8B404D0000EAB6F410E77
:1023B00003D0000EAB6F610EAA6FAAC5A7F5000E81
:1023C000B06F1F0EAF6F07019F6B35D0AF07D8A05E
:1023D000B0079E510F0BAE6F0A0EAE6102D0300EE9
:1023E00002D0A751F60FAE27800EAF25D96E070E8B
:1023F000B021DA6EAEC5DFF4AC07D8A0AD07A807F0
:10240000D8A0A9079EC5A3F59FC5A4F5A0C5A5F5AD
:10241000A1C5A6F5050E05D0D890A633A533A433E3
:10242000A333E82EF9D7A3C59EF5A4C59FF5A5C58E
:10243000A0F5A6C5A1F50501B0BF13D0B05104E1C8
:10244000020EAF5DD8A00DD09E519F11A011A11119
:10245000D8A4BCD7ADBF05D0AD51B8E1AC05D8B05C
:10246000B5D79CC593F59DC594F5800EAF25956FA6
:10247000070EB021966FA8C597F5A9C598F577EC1A
:1024800098F093C59CF594C59DF51200800EEC5D07
:10249000D8A006D0000E0601A76F4B0EA66F120043
:1024A000EF0E0C018C6F080E8D6FE9C88EFCEAC828
:1024B0008FFC0801EC5104E1020EEB5DD8A00DD0B9
:1024C000FF0EEB250C01976FFF0E0801EC210C01AC
:1024D000986F000E916F000E08D0000E0C01986FDF
:1024E000010E976F000E916F010E906F8E0E060118
:1024F000F56F0C0EF66FEDC8F7F6EEC8F8F68C0E19
:10250000F96F0C0EFA6F18EC9CF0F5C68AFCF6C653
:102510008BFC0801EB51EC11D8B412000C018BBFFD
:102520001200FF0E0801EB250601FB6FFF0E0801EC
:10253000EC210601FC6FFB510C018A5D8B51800A76
:102540000601FD6FFC51800AFD59D8A00BD0FF0E8B
:102550000801EB250C01886FFF0E0801EC210C012E
:10256000896F04D08ACC88FC8BCC89FC0C01885103
:102570000801E925D96E0C0189510801EA21DA6EBA
:10258000DF6A1200D6AF05D0000EA56F010EA46F52
:1025900004D0D5C5A4F5D6C5A5F5D3C5A2F5D4C537
:1025A000A3F5000EA76F1F0EA66F07019F6B3ED00D
:1025B000A607D8A0A707800EA625D96E070EA721CB
:1025C000DA6E9EC583F59FC584F5A0C585F5A1C5C6
:1025D00086F50A0E876F000E886F000E896F000E59
:1025E0008A6F26EC9BF08351300FDF6EA407D8A0D2
:1025F000A507A207D8A0A3079EC583F59FC584F5AC
:10260000A0C585F5A1C586F50A0E876F000E886FF7
:10261000000E896F000E8A6FCAEC99F083C59EF593
:1026200084C59FF585C5A0F586C5A1F50501A65110
:10263000A711D8B40DD09E519F11A011A111D8A4FB
:10264000B7D7A5BF05D0A551B3E1A405D8B0B0D781
:102650009CC593F59DC594F5800EA625956F070E34
:10266000A721966FA2C597F5A3C598F577EC98F0CA
:1026700093C59CF594C59DF5120091C58EF592C544
:102680008FF5040E906F67EC94F033C6D9F434C61E
:10269000DAF4DF500501956F9551256E266A276A99
:1026A000286A060120EE01F03351D9263451DA228E
:1026B000DF500501956F9551976F966B96C598F50C
:1026C00097C599F5000E99BFFF0E9A6F9B6F9851B1
:1026D0002526995126229A5127229B51282206010C
:1026E00020EE02F03351D9263451DA22DF500501B1
:1026F000956F95512526000E2622272228220601B5
:1027000020EE03F03351D9263451DA22DF5005018F
:10271000956F95512526000E26222722282225A4D2
:1027200002D0010E056E93519411D8B406D0000E5C
:10273000896F010E886F35ECA1F0250E916F050EA3
:10274000926F000E936F000E946F12008C6B8AAF25
:102750000AD08A1F891F881F876D000E882389234E
:102760008A23010E8C6F86AF0AD0861F851F841FB7
:10277000836D000E842385238623010E8C1B000E9F
:102780008D6F000E8E6F000E8F6F000E906F875151
:10279000881189118A11D8B42AD0010E8B6F06D006
:1027A000D8908737883789378A378B2B8AAFF8D705
:1027B000D8908D378E378F3790378751835D88510A
:1027C0008459895185598A518659D8A009D0875191
:1027D000835F8851845B8951855B8A51865B8D81DB
:1027E000D8908A338933883387338B2FE1D78C5144
:1027F000D8B408D0901F8F1F8E1F8D6D000E8E23B2
:102800008F2390238DC583F58EC584F58FC585F5FF
:1028100090C586F51200070EC26EDA0EC16EBE6A52
:10282000110EBF6E060EC06ECA6AC668E00EC76E95
:10283000D10EC86E270EC96E200E0401186FC00E8F
:10284000106F800E086F206B00690F0E196F040E59
:10285000216F710E096F016B110E116F226B026BEC
:10286000010E0A6F126B1A6B03690B6913691B69FE
:10287000070E236F04690C6914691C690F0E246F1D
:102880000F9D0E8D0D9D8E0E0501836F480E846F7A
:10289000010E856F9BECA3F09E8E180E0201746FE3
:1028A000130E6A6F190E6F6F0D0E6E6F310E146F6F
:1028B000200E126F350E0D6F320E166F100E726FE6
:1028C000230E1F6F1A0E6D6F140E6B6F12002DEC1E
:1028D00098F0C292010E06013D27000E3E233F23D1
:1028E00040232D8931C683F532C684F58EC585F522
:1028F0008FC586F590C587F50501886BE9EC9BF0DF
:1029000031C6D9F432C6DAF4DF50A7ECA2F033C6F0
:10291000D9F434C6DAF4DF6E060120EE01F033514B
:10292000D9263451DA2210EE01F03151E12632512C
:10293000E222E750A7ECA2F0DF6E060120EE02F0E3
:102940003351D9263451DA2210EE02F03151E1260A
:102950003251E222E750A7ECA2F0DF6E060120EE32
:1029600003F03351D9263451DA2210EE03F03151FD
:10297000E1263251E222E750A7ECA2F0DF6E060119
:102980002D991200000E8B6F000E8A6F83C5D9F44B
:1029900084C5DAF4DEC4F6F4DDC4F7F4000EF86E94
:1029A0000800F5502A0AD8A432D083C5D9F484C5CA
:1029B000DAF4DE2A000EDD2285C5D9F486C5DAF404
:1029C000DFC487F5020EDE26DFC488F5000EDD22A7
:1029D00087C5D9F488C5DAF4DEC48AF5DDC48BF581
:1029E00027D00A0E8A03F3C487F5F4C488F58B0355
:1029F000F3508827895187258A6F000E88218B6FB5
:102A000083C5D9F484C5DAF4DE2A000EDD2283C53D
:102A1000D9F484C5DAF4DEC4F6F4DDC4F7F4000EAC
:102A2000F86E0800F550D00F896F090E8965D9D767
:102A30008AC583F58BC584F512008C6B86AF0AD0EE
:102A4000861F851F841F836D000E842385238623A4
:102A5000010E8C6F8AAF08D08A1F891F881F876D6F
:102A6000000E882389238A238751881189118A11AE
:102A7000D8B424D0010E8B6F06D0D8908737883712
:102A800089378A378B2B8AAFF8D78751835D885176
:102A90008459895185598A518659D8A008D08751BF
:102AA000835F8851845B8951855B8A51865BD890AE
:102AB0008A338933883387338B2FE7D78C51D8B447
:102AC00008D0861F851F841F836D000E84238523F5
:102AD000862383C583F584C584F585C585F586C5BC
:102AE00086F512008551876F8651886F896B8A6BD6
:102AF0008751831B8851841B8951851B8A51861BF2
:102B00008451876F8551886F8651896F8A6B875191
:102B1000831B8851841B8951851B8A51861B83C561
:102B200087F584C588F585C589F586C58AF5050EBE
:102B300005D0D8908A33893388338733E82EF9D784
:102B40008751831B8851841B8951851B8A51861BA1
:102B50000F0E8317000E84178517861783C587F518
:102B6000960E886F690E896F872B03D0893589335C
:102B70008833872FFBD7050188A102D0010E1200F0
:102B8000000E12008C6F050E05018C6501D08C6B58
:102B90008751D8B407D0590E8C25D96EDA6A060E43
:102BA000DA22DF6A8C51140D6F0EF324886FF90E50
:102BB000F420896F590E8C25D96EDA6A060EDA2256
:102BC000DF508A6F8A518827000E892388C5F6F462
:102BD00089C5F7F4000EF86E0800F5C48BF58C512A
:102BE000140D6F0EF324836FF90EF420846FC3EC81
:102BF0009CF0590E8C25D96EDA6A060EDA22DF2A8D
:102C0000DF50886F896B8351885D84518959D8A0C2
:102C100007D0590E8C25D96EDA6A060EDA22DF6AE1
:102C20008B51120085518611D8B404D0855186117C
:102C3000D8A404D0835144ECA4F0120020EE09F093
:102C40008551D9268651DA22DE50DE10D8B416D04E
:102C500020EE09F08551D9268651DA2210EE02F0D5
:102C60008551E1268651E222DE50E65CE650800A7C
:102C70008B6FDE50800A8B59D8B0120020EE02F024
:102C80008551D9268651DA22DEC487F5DDC488F560
:102C900085C5D9F486C5DAF4DEC489F5DDC48AF5C4
:102CA00087518925D96E88518A21DA6E83C5DFF470
:102CB00020EE02F08551D9268651DA22DE2A000E56
:102CC000DD221200000E2124D96EDA6A090EDA2202
:102CD000DF6A0201B2A715D0000E2124D96EDA6A8C
:102CE000090EDA220901DF8201D80BD00500FA6E45
:102CF00006019B51FD6E9C51FE6E9D51FF6EFA5078
:102D000012000201B2A315D0000E2124D96EDA6A96
:102D1000090EDA220901DF8401D80BD00500FA6E12
:102D200006019851FD6E9951FE6E9A51FF6EFA5050
:102D30001200000E2124D96EDA6A090EDA22DF5061
:102D4000D8B40DD001D812000500FA6E06019551D5
:102D5000FD6E9651FE6E9751FF6EFA50120063ECB5
:102D6000A2F01200000E1A24D96EDA6A0A0EDA22D4
:102D7000DF6A0201C5A715D0000E1A24D96EDA6ADF
:102D80000A0EDA220A01DF8201D80BD00500FA6EA2
:102D900006019251FD6E9351FE6E9451FF6EFA50F2
:102DA00012000201C5A315D0000E1A24D96EDA6AEA
:102DB0000A0EDA220A01DF8401D80BD00500FA6E70
:102DC00006018F51FD6E9051FE6E9151FF6EFA50CB
:102DD0001200000E1A24D96EDA6A0A0EDA22DF50C7
:102DE000D8B40DD001D812000500FA6E06018C513E
:102DF000FD6E8D51FE6E8E51FF6EFA50120071EC19
:102E0000A2F01200D351D411D8A405D0D3C592F5A5
:102E1000D4C593F506D0FF0ED325926FFF0ED421B3
:102E2000936FD9A109D08EC583F5846B8CC585F5C8
:102E30008DC586F512EC96F093AF04D0000E936F1B
:102E4000000E926F000E916F000E906F0CD0000E6E
:102E5000846F200E836F8CC585F58DC586F512ECC9
:102E600096F0904B912B9251905D9151800A8F6F0B
:102E70009351800A8F59D8A0EAD7D9B109D08EC50D
:102E800083F5846B8CC585F58DC586F512EC96F0BF
:102E9000010E90258C6F000E91218D6F1200A6906F
:102EA000640E0501836F2D0E846F010E856F32EC69
:102EB000A3F0A692400E836F420E846F010E856FC1
:102EC0002BECA3F00201B86BB96BBA6BBB6BBC6B9C
:102ED000BD6BB00EBE6F800EBF6FC06B400EC16F7A
:102EE000030EC26FC36BC46BC56BC66B940E05013A
:102EF000836F480E846F010E856F40ECA3F06A0E5D
:102F0000836F480E846F010E856F39ECA3F0700E4D
:102F1000836F480E846F010E856F47ECA3F0176A2C
:102F20001D6A1C6A400E1B6E1A6A196A186AA6800E
:102F30001200A690640E0501836F2D0E846F010EA2
:102F4000856F32ECA3F0A692400E836F420E846F21
:102F5000010E856F2BECA3F00201B86BB96BBA6B55
:102F6000BB6BBC6BBD6BB00EBE6F800EBF6FC06B1A
:102F7000820EC16F060EC26FC36BC46BC56BC66B8E
:102F8000940E0501836F480E846F010E856F40EC2F
:102F9000A3F06A0E836F480E846F010E856F39ECC3
:102FA000A3F0700E836F480E846F010E856F47EC9F
:102FB000A3F0176A1D6A1C6A400E1B6E1A6A196A12
:102FC000186AA6801200A290C40E0501836F2C0E11
:102FD000846F010E856F55ECA3F0A292160E836FDD
:102FE000420E846F010E856F4EECA3F00201A56BBB
:102FF000A66BA76BA86BA96BAA6BB00EAB6F800E0C
:10300000AC6FAD6B820EAE6F060EAF6FB06BB16B77
:10301000B26BB36B920E0501836F480E846F010E85
:10302000856F63ECA3F0900E836F480E846F010EE2
:10303000856F5CECA3F0640E836F480E846F010E05
:10304000856F6AECA3F01E6A246A236A400E226E22
:10305000216A206A1F6AA2801200000E0501876F94
:10306000000E886F000E896F000E8A6F17D087C51B
:1030700083F588C584F589C585F58AC586F505017A
:10308000872B000E882389238A23865185112EE100
:10309000100E835D270E8459D8B0120006012DB79B
:1030A000E6D7000E0501876F000E886F000E896F4E
:1030B000000E8A6F17D087C583F588C584F589C54A
:1030C00085F58AC586F50501872B000E882389239F
:1030D0008A23865185110AE1100E835D270E8459DB
:1030E000D8B01200000187ABE6D7BF961200D9A175
:1030F0000AD095C58CF596C58DF593C58EF594C50A
:103100008FF5EFEC9DF098AF04D0000E986F000E95
:10311000976F000E9B6F000E9A6F0CD0000E846F9D
:10312000200E836F93C585F594C586F512EC96F055
:103130009A4B9B2B97519A5D9B51800A996F98519E
:10314000800A9959D8A0EAD7D9B10AD095C58CF58B
:1031500096C58DF593C58EF594C58FF5EFEC9DF072
:1031600095C583F596C584F5C3EC9CF097518325EE
:10317000936F98518421946F12000301F96B170E1D
:10318000FA6FD86BFB6BD96BDA6BDB6BDC6BDF6BCD
:10319000E06BE36BE46BE56BE66BE76BEA6BEB6BA9
:1031A000EC6B140EEE6FEF6B1F0EF06FF16BF26BAA
:1031B000F36B010EF46F100EF56FF66BF76B020EEA
:1031C000F86FFC6BAF94AF96B090980E0501836FCB
:1031D000480E846F010E856FE8ECA3F09C0E836FA0
:1031E000480E846F010E856FDAECA3F09A0E836FA0
:1031F000480E846F010E856FE1ECA3F0840E03018D
:10320000F36F1200F30E916FF90E926F000E946F30
:10321000000E936F3DEC93F091C525F592C526F510
:1032200093C527F594C528F5EB0E916FF90E926FB3
:10323000000E946F000E936F3DEC93F091C529F54D
:1032400092C52AF593C52BF594C52CF525A616D065
:1032500025C583F526C584F527C585F528C586F5DA
:1032600072EC95F00009D8B409D0010E066E010E7B
:1032700006016327000E642365236623010E060101
:103280006727000E682369236A231200A290C40EE8
:10329000836F2C0E846F010E856F55ECA3F0A29204
:1032A000160E836F420E846F010E856F4EECA3F0F5
:1032B000A2940201A56BA66BA76BA86BA96BAA6B66
:1032C000B00EAB6F800EAC6FAD6B400EAE6F030EE9
:1032D000AF6FB06BB16BB26BB36B900E0501836FC8
:1032E000480E846F010E856F5CECA3F0640E836F53
:1032F000480E846F010E856F6AECA3F01E6A246A83
:10330000236A400E226E216A206A1F6AA280A2846C
:103310001200886B86AF06D0856D861FD8B0862BCD
:10332000010E886F84AF06D0836D841FD8B0842BC4
:10333000010E881B000E8A6F000E896F8551861161
:10334000D8B41CD0010E876F04D0D890853786374B
:10335000872B86AFFAD7D89089378A378551835D16
:1033600086518459D8A005D08551835F8651845BEE
:103370008981D89086338533872FEDD78851D8B48B
:1033800004D0896D8A1FD8B08A2B89C583F58AC578
:1033900084F51200000E8B6F000E8C6F000E8D6F87
:1033A000000E8E6F8751881189118A11D8B42AD0E6
:1033B000010E8F6F06D0D8908737883789378A37C4
:1033C0008F2B8AAFF8D7D8908B378C378D378E37C5
:1033D0008751835D88518459895185598A5186590D
:1033E000D8A009D08751835F8851845B8951855B60
:1033F0008A51865B8B81D8908A33893388338733AF
:103400008F2FE1D78BC583F58CC584F58DC585F5E8
:103410008EC586F51200020E0001E86F800EF96F6E
:10342000000EFA6F000EFB6F070EF16FC00EF06F0B
:10343000FD6B000EF86F010EF76F000EEF6F030EBD
:10344000EE6FFF6BFE6BB89AB898B89EB89CA88ACE
:10345000A40E0501836F480E846F010E856FB0ECDA
:10346000A3F0A888A40E836F480E846F010E856FA9
:10347000A2ECA3F0A89EA88CA40E836F480E846FC4
:10348000010E856FA9ECA3F0800E0001FC6F120005
:10349000010EE86F800EF96F000EFA6F000EFB6FE1
:1034A000070EF16FA00EF06F400EFD6F000EF86F6B
:1034B000010EF76F000EEF6F080EEE6FFF6BFE6BE5
:1034C000B49AB498B49EB49CA48AA60E0501836FE6
:1034D000480E846F010E856FC5ECA3F0A488A60E7C
:1034E000836F480E846F010E856FB7ECA3F0A49E26
:1034F000A48CA60E836F480E846F010E856FBEEC00
:10350000A3F0800E0001FC6F1200E86BE00E0501D5
:10351000866F070E876F86C5F9F087C5FAF0000140
:10352000FB6B000EF16F810EF06F020EFD6F000E4F
:10353000F86F010EF76F000EEF6F010EEE6F190EB0
:10354000FF6FFE6BB09AB098B09EB09CA09AA08816
:10355000960E0501836F480E846F010E856FCCECCB
:10356000A3F0A09EA08C960E836F480E846F010E70
:10357000856FD3ECA3F0C00E0001FC6F12008EC566
:1035800083F58FC584F5C3EC9CF08351906F2DECCF
:1035900098F01DECA4F0C196140E0501906502D0C0
:1035A000140E906F31C683F532C684F58EC585F54D
:1035B0008FC586F590C587F5886BE9EC9BF0000117
:1035C000E86BFC9F90C583F50501846B1DECA3F0AF
:1035D000000E0501846F010E836F24ECA3F0FC8FB5
:1035E00020ECA4F01200946F0501DB51D8A4120066
:1035F00009D0400E03D0140E01D0540E956F10D098
:10360000956B0ED09451000AD8B4FAD7010AD8B4F9
:10361000F0D7030AD8B4EFD7010AD8B4EED7F0D761
:103620009551912559EC9BF0900E0501836F010E89
:10363000846F000E856F000E866F78EC9FF092C548
:103640008EF593C58FF5BFEC9AF012008751881163
:1036500089118A11D8B424D0010E8B6F06D0D8906E
:103660008737883789378A378B2B8AAFF8D78751C6
:10367000835D88518459895185598A518659D8A0CA
:1036800008D08751835F8851845B8951855B8A515B
:10369000865BD8908A338933883387338B2FE7D77B
:1036A00083C583F584C584F585C585F586C586F50E
:1036B00012008B6F2DEC98F01DECA4F0C19631C672
:1036C000D9F432C6DAF4FE0EDF6E20EE01F031518D
:1036D000D9263251DA22450EDF6E20EE02F031514A
:1036E000D9263251DA228BC5DFF40001E86BFC9F4A
:1036F000000E0501846F030E836F1DECA3F0000E16
:103700000501846F010E836F24ECA3F0FC8F20EC85
:10371000A4F01200D68A000ED6BE010E0501836FFA
:10372000D69E550E0401596FAA0E596F59915F6BC1
:103730005E6B080E5D6F550E596FAA0E596F598159
:10374000050183B102D0D69E01D0D68E0301688BCD
:103750006889688D678567816489648D6C8B6C89E5
:103760006C8D6A836A81628F66836681658F7197CB
:103770006A991200440E0501856FCE0E835D070E17
:103780008459D8B008D04F0E835D070E8459D8A055
:1037900002D04F0E856F650E835D080E8459D8A048
:1037A00008D04A0E835D0B0E8459D8B002D0530E58
:1037B000856FD40E835D060E8459D8B008D09E0E56
:1037C000835D030E8459D8A002D04D0E856F8551BC
:1037D000120085C58CF586C58DF583C58AF584C52F
:1037E0008BF51DD08CC5F6F48DC5F7F4000EF86E80
:1037F0003F0EF76403D00800F55005D0F6C4E9F495
:10380000F7C4EAF4EF500501896F8C4B8D2B8AC504
:10381000D9F48BC5DAF489C5DFF48A4B8B2B870783
:10382000D8A088078729DEE18829D8B41200DAD722
:10383000F7C6C3F5F8C6C4F5000EA56F000EA46F59
:1038400016D0F5C6B1F5F6C6B2F5C30E0501B36FD5
:10385000050EB46FF9C6B5F5FAC6B6F550EC87F0AB
:10386000B1510601A4270501B2510601A523C3C524
:10387000F6F4C4C5F7F4000EF86E0800F550000920
:10388000D8A4DFD7A4C6F5F6A5C6F6F61200050142
:103890008669140E836F210E846F010E856F8DEC87
:1038A000A3F01AECA4F08C0E0501836F440E846F14
:1038B000010E856F7FECA3F0EC0E836F450E846FD5
:1038C000010E856F94ECA3F00001919F02D08DC092
:1038D00086F594A7FCD786C5B8F69497919F9383F5
:1038E000000EFDECA3F012008F6F8FC586F5030E5E
:1038F000050186178651800DF3C487F5F4C488F559
:103900008351030B896F8A6B000E8903F3C48BF517
:10391000F4C48CF58A03F3508C27020E8903F3500C
:103920008C27FB0E8B258D6F110E8C218E6F87518E
:103930008D25836F88518E21846F12008AEC9BF055
:10394000D7ECA2F0BDEC98F00BEC94F0BFECA2F039
:1039500048EC9AF085EC9AF0B3ECA2F074EC9DF090
:10396000CAECA0F00BEC9AF00CECA4F00CEC9DF07F
:10397000E3EC97F099EC97F08DECA2F0D2EC9DF08F
:1039800086ECA3F0120083C585F584C586F503D0C7
:103990000501834B842B83C5F6F484C5F7F4000E30
:1039A000F86E3F0EF76403D00800F55005D0F6C45A
:1039B000E9F4F7C4EAF4EF500009D8A4E9D7050107
:0E39C0008551835D836F86518459846F120098
:1039D000D8C480F5FAC481F5FBC482F5B69803C556
:1039E0007EF504C57FF537ECA2F00501D74BD82B47
:1039F000D85104E1320ED75DD8A007D0A9ECA1F0D0
:103A0000000E0501D86F000ED76F82C5FBF481C58B
:103A1000FAF480C5D8F411000301376B386B010E3E
:103A2000396F630E356FC00E346FB698345135C39D
:103A300086F50501876B86C587F5866B8611036E53
:103A40008751046EA6888A0E836F480E846F010E1C
:103A5000856F78ECA3F0310E0301366F1200000E73
:103A6000D6BE010E866F380E0001456F84C544F046
:103A700083C543F085C546F04151F80B0309416FFA
:103A8000D69E550E426FAA0E426F408140B1FED7BE
:103A9000050186B102D0D69E01D0D68EF80E000167
:103AA0004117120005018B6F2DEC98F01DECA4F06E
:103AB000C19631C6D9F432C6DAF48BC5DFF4000101
:103AC000E86BFC9F000E0501846F010E836F1DECF7
:103AD000A3F0000E0501846F010E836F24ECA3F0A8
:103AE000FC8F20ECA4F01200490E1B6F850E196F9D
:103AF000EE0E186F185119C386F50501876B86C540
:103B000087F5866B8611016E8751026EB19EA18E7C
:103B1000A20E836F480E846F010E856F7FECA3F0B9
:103B2000900E03011A6F1200FAC466F5FBC467F524
:103B3000B19E02C519F301C518F306017D517E112E
:103B40007F11D8B40CD001D80AD00500FA6E7D518F
:103B5000FD6E7E51FE6E7F51FF6EFA50120067C5FA
:103B6000FBF466C5FAF4110005017A6B7A51020D77
:103B7000490EF324D96E060EF420DA6EDE50DE1004
:103B8000D8B40BD07A51020D490EF324D96E060E2B
:103B9000F420DA6EDE06000EDD5A7A2B070E7A6507
:103BA000E5D71200010E916F440E926F050E936FD0
:103BB000996B966BC984A384A3809E0E0501836FC5
:103BC000480E846F010E856F94ECA3F0A00E836FF6
:103BD000480E846F010E856F8DECA3F01200000E6D
:103BE000926F000E916F0BD090C583F5846B8EC5DC
:103BF00085F58FC586F512EC96F0914B922B91517D
:103C00008C25D96E92518D21DA6EDF50906F9051D4
:103C1000D8B41200E9D7BFA402D0010E01D0000E23
:103C2000FF0A05017E6F7E477E47BF507E19FB0B62
:103C30007E19BF6EBF92BF96010E0601CF6F26EEB2
:0E3C400084F3DE2A000EDE22DE22DE221200D7
:103C5000FAC437F5FBC438F5B098060186518711D0
:103C60008811D8B40CD001D80AD00500FA6E86515C
:103C7000FD6E8751FE6E8851FF6EFA50120038C5F6
:103C8000FBF437C5FAF41100FAC43AF5FBC43BF56E
:103C9000B09C0601835184118511D8B40CD001D891
:103CA0000AD00500FA6E8351FD6E8451FE6E855177
:103CB000FF6EFA5012003BC5FBF43AC5FAF411004E
:103CC000FAC43CF5FBC43DF5AF940601EF51F01189
:103CD000F111D8B40CD001D80AD00500FA6EEF511A
:103CE000FD6EF051FE6EF151FF6EFA5012003DC5AF
:103CF000FBF43CC5FAF41100FAC43EF5FBC43FF5F1
:103D0000AF960601E951EA11EB11D8B40CD001D8F5
:103D10000AD00500FA6EE951FD6EEA51FE6EEB51D4
:103D2000FF6EFA5012003FC5FBF43EC5FAF41100D5
:103D3000FAC440F5FBC441F5B0900601EC51ED1119
:103D4000EE11D8B40CD001D80AD00500FA6EEC51AF
:103D5000FD6EED51FE6EEE51FF6EFA50120041C540
:103D6000FBF440C5FAF411001F50D8B4FDD7000E83
:103D70002024D96EDA6A090EDA22DF501E6E000E98
:103D80002024D96EDA6A0B0EDA22DF50446E202A24
:103D90002028D8B4206AA2901F06A28044501200A6
:103DA000FAC468F5FBC469F5B49806017A517B1131
:103DB0007C11D8B40CD001D80AD00500FA6E7A5123
:103DC000FD6E7B51FE6E7C51FF6EFA50120069C58C
:103DD000FBF468C5FAF41100FAC46BF5FBC46CF58A
:103DE000B49A0601775178117911D8B40CD001D862
:103DF0000AD00500FA6E7751FD6E7851FE6E79514A
:103E0000FF6EFA5012006CC5FBF46BC5FAF411009A
:103E1000FAC46EF5FBC46FF5B49C060174517511BC
:103E20007611D8B40CD001D80AD00500FA6E7451BE
:103E3000FD6E7551FE6E7651FF6EFA5012006FC521
:103E4000FBF46EC5FAF41100FAC470F5FBC471F509
:103E5000B8980601715172117311D8B40CD001D801
:103E60000AD00500FA6E7151FD6E7251FE6E7351EB
:103E7000FF6EFA50120071C5FBF470C5FAF4110020
:103E8000FAC473F5FBC474F5B89A06016E516F114C
:103E90007011D8B40CD001D80AD00500FA6E6E515A
:103EA000FD6E6F51FE6E7051FF6EFA50120074C5B8
:103EB000FBF473C5FAF41100FAC476F5FBC477F588
:103EC000B89C06016B516C116D11D8B40CD001D89F
:103ED0000AD00500FA6E6B51FD6E6C51FE6E6D518D
:103EE000FF6EFA50120077C5FBF476C5FAF41100A4
:103EF000000E876F000E886F000E896F000E8A6FAC
:103F00000400010E05018727000E882389238A23D8
:103F10008751835D88518459895185598A518659C1
:063F2000D8A01200EDD74D
:103F2800FAC42FF5FBC430F50501C751C811C911F2
:103F3800D8B40CD001D80AD00500FA6EC751FD6E6E
:103F4800C851FE6EC951FF6EFA50120030C5FBF41D
:063F58002FC5FAF4110070
:103F6000FAC431F5FBC432F50501CA51CB11CC11AD
:103F7000D8B40CD001D80AD00500FA6ECA51FD6E33
:103F8000CB51FE6ECC51FF6EFA50120032C5FBF4DD
:063F900031C5FAF4110036
:103F9800FAC433F5FBC434F50501CD51CE11CF1168
:103FA800D8B40CD001D80AD00500FA6ECD51FD6EF8
:103FB800CE51FE6ECF51FF6EFA50120034C5FBF49D
:063FC80033C5FAF41100FC
:103FD000FAC435F5FBC436F50501D051D111D21123
:103FE000D8B40CD001D80AD00500FA6ED051FD6EBD
:103FF000D151FE6ED251FF6EFA50120036C5FBF45D
:0640000035C5FAF41100C1
:10400800FAC442F5FBC443F50601A151A211A3115C
:10401800D8B40CD001D80AD00500FA6EA151FD6EB3
:10402800A251FE6EA351FF6EFA50120043C5FBF475
:0640380042C5FAF411007C
:10404000FAC464F5FBC465F506019E519F11A011E9
:10405000D8B40CD001D80AD00500FA6E9E51FD6E7E
:104060009F51FE6EA051FF6EFA50120065C5FBF421
:1040700064C5FAF41100446E2250D8B4FDD7A2B240
:1040800003D044C5A3F20FD0A292400E2424D96ECF
:10409000DA6A080EDA2244C5DFF4242A3F0E2464CB
:1040A00001D0246A2206A28212005700000081007B
:1040B00000000000000000D0FFB0FFD8FFC0FFC824
:1040C000FFB8FF0006000096FF8AFF000C96FF8AEB
:0D40D000FF96FF8AFF250529059FFF8AFF47
:1040DE002DEC98F0C280C282C18600018785849F34
:1040EE00030E846F859B858D858F8599859385912C
:1040FE00030E866F8C6B070E896F848F8795120067
:10410E00BFA202D0010E01D0000EFF0A0501726F90
:10411E007247BF507219FD0B7219BF6E010E060168
:10412E003D27000E3E233F2340232D991200876F1B
:10413E0083C585F584C586F5D89005018537863704
:10414E008751020D490EF324D96E060EF420DA6E55
:10415E0085C5DEF486C5DDF4120083C589F584C5F8
:10416E008AF508D089C5D9F48AC5DAF485C5DFF495
:10417E00894B8A2B8707D8A088078729F3E18829DE
:10418E00D8B41200EFD7010E3E6F3D6B3F6B7F0E22
:10419E003B6F3A6BBD96AD86680E0501836F3B0E85
:1041AE00846F010E856F71ECA3F0C30E03013C6F9B
:1041BE001200BFA202D0010E01D0000EFF0A0501AF
:1041CE00756F7547BF507519FD0B7519BF6E010ED2
:1041DE0006014527000E46234723482312000601F9
:1041EE00F251F311F411D8B40CD001D80AD0050055
:1041FE00FA6EF251FD6EF351FE6EF451FF6EFA50EF
:10420E00120004010F9D1200400E226010D0400ECD
:10421E002324D96EDA6A080EDA22DF500201A36F68
:10422E00232A3F0E236401D0236A222A1200A2926F
:10423E001200400E1B6010D0000E1C24D96EDA6ADC
:10424E00080EDA22DF500201B66F1C2A3F0E1C64E4
:10425E0001D01C6A1B2A1200A692120088C583F593
:10426E0089C584F5000E9EECA0F005D0000000007C
:10427E00000000000400000E49ECA1F00009D8A4D3
:10428E001200F4D70501856F040005018551020D5A
:10429E00490EF324D96E060EF420DA6EDE50DE10CF
:1042AE00D8A402D0010E1200000E12008EBF05D04F
:1042BE008DC58DF58EC58EF512008DC58FF58EC50B
:1042CE0090F58F1F901F8F4B902B8FC58DF590C53E
:1042DE008EF512000C503325D96E000E3421DA6E95
:1042EE0080C0DFF40C2A030E0C6401D00C6A010EA0
:1042FE004127000E42234323442312002DEC98F055
:10430E00C280C2820001849F240E856F020E866FCA
:10431E00020E8C6F040E896F830E846F848F1200D1
:10432E00060189518A118B11D8B4120001D81200DE
:10433E000500FA6E8951FD6E8A51FE6E8B51FF6E2D
:10434E00FA5012000601805181118211D8B4120068
:10435E0001D812000500FA6E8051FD6E8151FE6E7D
:10436E008251FF6EFA5012000501866F020E49EC63
:10437E00A1F00009D8B41200660048FFDAF526EE67
:10438E00D2F386C5DFF41200FB0E0501836F110E0A
:10439E00846F000E866F000E856F080E886F020EFA
:0843AE00876FB4ECA0F01200CF
:1043B800D8C47BF5FAC47CF5FBC47DF5BD9697ECB3
:1043C800A1F07DC5FBF47CC5FAF47BC5D8F41100D7
:1043D8000501846F84C583F5030E0501831726EE56
:1043E800FBF1DF508319FC0B8319DF6E1200836F1A
:1043F800550E0001B46FAA0EB46FB49183C5B8F01E
:10440800550EB46FAA0EB46FB4811200836F550EA7
:104418000001B46FAA0EB46FB49183C5B7F0550EFE
:10442800B46FAA0EB46FB4811200836F550E0001E9
:10443800B46FAA0EB46FB49183C5B6F0550EB46FBD
:10444800AA0EB46FB4811200EB510501866F856B1B
:104458000301EA5105018525836F0301000E05015B
:104468008621846F1200030136A507D036917FC5D7
:1044780035F37EC534F3368112007FC535F37EC52A
:1044880034F31200000194BF02D094A707D0010EA4
:1044980006012827000E29232A232B23BF92BF9623
:1044A8001200FF0E8325856FFF0E8421866F85C558
:1044B800AEF686C5AFF60601B06BB16B1200000E02
:1044C8002124D96EDA6A0B0EDA22A1C2DFF4212A7E
:1044D8002128D8B4216A1F2A1200000E1A24D96E86
:1044E800DA6A0D0EDA22B4C2DFF41A2A1A28D8B40E
:1044F8001A6A182A1200BFA202D0010E01D0000EBB
:10450800FF0A396E3946BF503918FD0B3918BF6E8E
:104518001200830E0001846F240E856F030E866FD0
:10452800020E8C6F040E896FC8961200FAC42DF51E
:10453800FBC42EF504010FBDF6ECA0F02EC5FBF46C
:104548002DC5FAF411000501836F010E0001826F79
:1045580083C581F0B1A0FED7000180511200010E81
:104568000301266F256B276B630E236F226BB196B1
:104578008F0E246F1200200E0001AD6FAF6B010E7D
:10458800B36F080EB16FB06BB2B11200FDD7380E21
:104598000001456F84C544F083C543F0F80E411708
:1045A8004081465112000001606B616B626B636B66
:1045B800646B656B666B676B686B1200BF8608EC93
:1045C800A3F00009D8B4FBD70001919F918F120086
:1045D80005018C6FFE0E52EC9DF005018C5152ECDA
:1045E8009DF01200BF92010E2827000E29232A23CE
:1045F8002B230001976B12000501836F83C5ECF331
:104608000301F38FF38112000301F3B102D0010E0D
:104618001200000E120026EEFBF1DF50030B95ECA2
:104628008BF0120005018D6F05018D51ECECA2F0A5
:1046380012000001E86B83C5F7F084C5F8F012009A
:104648000001E86B83C5EEF084C5EFF0120083C566
:10465800CDF584C5CEF585C5CFF5120083C5D0F557
:1046680084C5D1F585C5D2F5120083C58FF684C5FA
:1046780090F685C591F6120083C592F684C593F627
:1046880085C594F6120083C58CF684C58DF685C55C
:104698008EF6120083C5C7F584C5C8F585C5C9F56A
:1046A800120083C5CAF584C5CBF585C5CCF51200C3
:1046B80083C598F684C599F685C59AF6120083C510
:1046C8009BF684C59CF685C59DF6120083C595F6B4
:1046D80084C596F685C597F6120083C589F684C504
:1046E8008AF685C58BF6120083C580F684C581F6E7
:1046F80085C582F6120083C57DF684C57EF685C51C
:104708007FF61200550E0001B46FAA0EB46FB48183
:10471800120083C59EF684C59FF685C5A0F61200D3
:1047280083C5A1F684C5A2F685C5A3F6120083C584
:10473800F2F684C5F3F685C5F4F6120083C571F662
:1047480084C572F685C573F6120083C56BF684C5F9
:104758006CF685C56DF6120083C56EF684C56FF6D6
:1047680085C570F6120083C57AF684C57BF685C5C3
:104778007CF6120083C574F684C575F685C576F691
:10478800120083C577F684C578F685C579F61200D8
:1047980083C586F684C587F685C588F6120083C565
:1047A80083F684C584F685C585F6120083C5ECF6C4
:1047B80084C5EDF685C5EEF6120083C5E9F684C515
:1047C800EAF685C5EBF6120083C5EFF684C5F0F668
:1047D80085C5F1F612002250D8B402D0010E12009D
:1047E800000E12001F50D8B402D0010E1200000EA5
:1047F80012000501836F83C5FBF31200010EE86FF9
:10480800FC9DFC9B12000001E86BFC9DFC9B1200C8
:10481800940E7F6F400E7D6F120002C519F301C51B
:1048280018F312003B0E0301EC6F120003011A8FFC
:10483800120006012D87120023ECA4F01200E86B89
:10484800FC8D12003BECA4F012000301368112002B
:104858002FECA4F012000301248F120063ECA2F0E5
:1048680012000201C593120071ECA2F012003C8FF5
:0648780012002D97120052
:10488000BD9011000401120012001200110012006C
:104890001200120012001200120012001200120088
:0948A000120012001200120001C6
:020000040020DA
:10000000FFFFFFFFFFFFFFFFFFFFFFFFFFFFFFFF00
:10001000FFFFFFFFFFFFFFFFFFFFFFFFFFFFFFFFF0
:10002000FFFFFFFFFFFFFFFFFFFFFFFFFFFFFFFFE0
:10003000FFFFFFFFFFFFFFFFFFFFFFFFFFFFFFFFD0
:020000040030CA
:10000000AFECEFD79FFFFFFFFFFEFFFFFFFFFFFFFC
:10001000FFFFFFFFFFFFFFFFFFFFFFFFFFFFFFFFF0
:03002000FFFFFFE0
:00000001FF
