:0400000085EF00F098
:10000800B653B653B653B653B653B653B6535E52F9
:10001800B653B6539350A250B653B653B653B653CD
:10002800B150B653B653B6537550B6538450B65301
:10003800B653B653B653B653B653B653B6533550F4
:1000480029511A51B653B653B653B653B653B6538D
:100058006551B6535651B653B653B653B653B65305
:10006800B653B653B653B653C050CF50DE50B653FE
:10007800B653B653B653B6534200B653B653B653F7
:1000880047513851B653B653DB4FB653B653B653F0
:10009800B653B653B653B6534200B653B653B653D7
:1000A800B653B653B653B653ED50FC500B51B65336
:1000B800B653B653B653B653B653B653B653B653F0
:1000C800B653B653B653B653B653B653B653B653E0
:1000D800B653B653B653B653B653B653B653B653D0
:1000E8004200B653B653B653B653B653B653B65387
:1000F800A853B653B6537152B653B653B653B65304
:0A010800FF0016EE8DF18BEF91F071
:10F8480000257320256420257320202020202020D7
:10F8580020202020202020202020202020202020A0
:10F8680020202020202020202020202020202000B0
:10F878004F4E4C494E45204125642C20522564208A
:10F88800524625642C2054256420544625642C2097
:10F89800432564202564202573202020202000484B
:10F8A8006F7374204125642C20522564205246250C
:10F8B800642C2054256420544625642C2043256458
:10F8C8002025642025732020202020202000554E4C
:10F8D8004B20464F524D4154204125642C2052253F
:10F8E8006420524625642C205425642054462564FF
:10F8F8002C204325642025732020200025732025F3
:10F90800732020202020202020202020202020209C
:10F9180020202020202020202020202020202020DF
:10F92800202020202020002573202573202020203F
:10F9380020202020202020202020202020202020BF
:10F9480020202020202020202020202020200048A7
:10F958006F737420434D44533A204D204320522066
:10F9680050204F204C20532044204520482046005A
:10F97800506F7274206261756420726174652075BD
:10F988006E6C6F636B65642020202020202020008F
:10F99800486F737420434D44533A20454E41424CBE
:10F9A80045442052454D4F54450083200304000030
:10F9B800440700018324030400180000E8FF3C000A
:10F9C80023007C7C2F2F2D2D00000000000000005C
:10F9D8000000000000007C7C2F2F2D2D5C5C0000B7
:10F9E800000000000000000000004F4F4F4F4F4F35
:10F9F8002D2D5F5F2D0000000000000000007676CE
:10FA08003C3C5E5E3E3E000000000000000000003E
:10FA180000002E2E2A2A7823782358587C7C2D2DF6
:10FA28000000000000002E2E6F6F4F4F6F6F000018
:10FA380000000000000000000000B4000002040004
:10FA48000000020000000A000001BA492492C9FF20
:10FA5800FFFFC8001FFEC7FFFFFFC5FFFFFEB40082
:10FA68001401B4018001B7FFFFFEB8000001C20015
:10FA78000000E400000104FFFF0CFFFF0B00001072
:10FA8800FFFF40F73078252E326C78203078252E0D
:10FA9800326C782025642025642025642025782070
:10FAA800202020202020202020202020202020204E
:10FAB80020202020003078252E3278203078252EFE
:10FAC8003278203078252E3278203078252E3278FA
:10FAD800202020202020202020202020202020201E
:10FAE8002020000D2D2D2D20544943313234303043
:10FAF800204472697665722056657273696F6E204C
:10FB08002573202573202573202D2D2D0D0A000D1A
:10FB18002D2D2D204D4333333939362044726976E3
:10FB280065722056657273696F6E20257320257380
:10FB3800202573202D2D2D0D0A003078252E326CAE
:10FB480078203078252E326C782025642025642092
:10FB58002564202020202020202020202020202054
:10FB680020202000202020202020202020202020AD
:10FB7800202020202020202020202020202020207D
:10FB88002020202020202020202020005253323303
:10FB98003220525820253364563A256320202020ED
:10FBA800202020202020202020202020202020204D
:10FBB80020202000525332333220545820253364F9
:10FBC800563A256320202020202020202020202095
:10FBD80020202020202020202020200042302030FB
:10FBE80078252E32582C204231203078252E325854
:10FBF80020202020202020202020202020202020FD
:10FC0800202020004131203078252E32782C2041C8
:10FC180032203078252E32782020202020202020E5
:10FC2800202020202020202020202000545820257B
:10FC38006C782C20525820256C782C20256420259F
:10FC48006420256420202020202020202000204D12
:10FC580065736720256420537461636B20256420D5
:10FC68002020202020202020202020202000252E99
:10FC7800346C7820252E366C7820256C7820256CFD
:10FC88007820202020202020202020202000204410
:10FC980045425547205661726920446973706C610A
:10FCA800792020202020202020202020002054659A
:10FCB800726D696E616C20496E666F20202020206D
:10FCC80020202020202020202020002048454C50A3
:10FCD8002053637265656E3A202575202020202008
:10FCE8002020202020200020506F7274204C6F6349
:10FCF8006B20232564202020202020202020202065
:10FD08002000205465726D696E616C202564202086
:10FD180020202020202020202020200020434D4487
:10FD2800202563202563204C656E20256420202033
:10FD380020202020200048454C50202573202020DA
:10FD48002020202020202020202020202000204F9C
:10FD580070656E204C4C2020202020202020202060
:10FD68002020202020002050756D70204C4C202031
:10FD78002020202020202020202020202000205269
:10FD880065616479204C4C202020202020202020F0
:10FD980020202020200020533246343120232563A0
:10FDA800202020202020202020202020200044491E
:10FDB80053504C41592025732020202020202020FA
:10FDC8002020202020002053746F72656420232592
:10FDD800642020202020202020202020200076744D
:10FDE80065726D2025783A25782020202020202053
:10FDF8002020202020002053455155454E434520C2
:10FE0800256420202020202020202020200020449D
:10FE18006973706C6179206E756D202564202020CF
:10FE280020202020200020532564462564206C6F64
:10FE38006720202020256420202020202000204C1E
:10FE48006F61642D6C6F636B206E756D2025642067
:10FE5800202020202000204F504920424D4344417B
:10FE680051202575202573202020202020002025C2
:10FE78007320202020202020202020202020202027
:10FE8800202020200020494E464F202020202020DE
:10FE9800202020202020202020202000204445420F
:10FEA80055472020202020202020202020202020EE
:10FEB800202000204E534153504F4F4B20202020EC
:10FEC8002020202020202020200020565445524D5C
:10FED80020494E464F20202020202020202020206E
:10FEE8000020565445524D2048454C502020202093
:10FEF80020202020202020002056657273696F6E14
:10FF080020257320202020202020202020200020B1
:10FF1800565445524D204445425547202020202024
:10FF28002020202020002048454C50204275696C34
:10FF38006420257320202020202020200048454CC4
:10FF48005020257320202020202020202020202021
:10FF5800202000506F72742025732020202020203C
:10FF68002020202020202000257320202020202051
:10FF78002020202020202020202020004C6F636B90
:10FF8800656420313135323030627073004C6F63F4
:10FF98006B65642039363030627073004D617920AA
:10FFA800323920323032350031343A32343A353948
:10FFB80000434F4D4D202020004552524F522020E3
:10FFC800004F4E4C494E45200052454D4F54452058
:10FFD8000044495341424C45004F46464C494E4522
:10FFE80000286E756C6C290056302E31330056305F
:07FFF8002E36002573000006
:020000040001F9
:100000000A01A06B00019451DCEC9FF09F94D68E06
:10001000D68C17ECA4F027ECA5F0000E6100A1F33C
:1000200002F666ECA7F03E0E05018E6F460E8F6F4E
:10003000010E906F99ECA6F063ECA7F060ECA7F0CE
:10004000030E05018F6FF10E8E6FECECA5F0000929
:10005000D8B404D00A019B6B9B2B02D00A019B6B86
:1000600062006DFAF6F7030E05018F6FF00E8E6FCA
:10007000ECECA5F00A019B6F62006DFAEDF7030E40
:1000800005018F6FF10E8E6F000E906F25ECA0F0C2
:10009000030E05018F6FF00E8E6F6500B4FF9BFAA3
:1000A0000A019B290501906F25ECA0F025EEEDF3E8
:1000B000DFB005D0950E0A01A56FFF0E04D0840EA7
:1000C0000A01A56FFF0EA66FBF82BF84BF860B0E0D
:1000D0000501946FB80E936F80ECA4F0BF94BF92AB
:1000E000BF9625EEF6F3DF50D8B408D0030E8F6F1D
:1000F000F10E8E6F010E906F25ECA0F0030E05013E
:100100008F6FF00E8E6F6500B4FF90F525ECA0F0B8
:1001100025EEF6F3DF50D8B452D0030E05018F6FF1
:10012000F00E8E6FECECA5F00A019B6F62006DFA89
:10013000EDF76500B4FFE8F4FF0AD8A40ED0000E76
:100140006100A1F3EDF7030E05018F6FF00E8E6FC6
:100150006500B4FF90F525ECA0F025EEEDF3DFB0DF
:1001600009D02FEC9BF078EC9BF08B0E0A01A56F69
:10017000FF0E08D051EC9AF09BEC9AF09C0E0A010D
:10018000A56FFF0EA66F030E05018F6FF00E8E6F29
:100190006500B4FFE8F4010F6100A1F3EDF765001D
:1001A000B4FF90F525ECA0F0030E05018F6FF10E62
:1001B0008E6F6500D8FF90F525ECA0F019D0030EE6
:1001C00005018F6FF00E8E6FECECA5F00A019B6FAE
:1001D00062006DFAEDF725EEEDF3DFB005D051ECDE
:1001E0009AF09BEC9AF004D02FEC9BF078EC9BF00B
:1001F000000E0A01A46F000EA36F0CD0A3519B6FD9
:10020000A4519C6FA34BA42B9C5109E10B0E9B5D49
:10021000D8B005D078ECA7F00009D8B4EFD7000E1D
:10022000A46F000EA36F0DD00A01A3519B6FA451C0
:100230009C6FA34BA42B9C5109E10B0E9B5DD8B086
:1002400005D04CEC9EF00009D8B4EED70AEC9FF034
:100250007EECA7F07ED239EC92F00C0E37ECA6F0D3
:1002600025EEEBF3DF5037ECA5F0000E8E6F000E9D
:1002700065EC9FF08EC571FA8FC572FA000E0A0107
:10028000746F150E736F5B0E756FFF0E766FA5CAD8
:1002900077FAA6CA78FA9AEC96F0000E05018E6FEE
:1002A000010E65EC9FF08EC571FA8FC572FA000ED3
:1002B0000A01746F150E736F5B0E756FFF0E766F0C
:1002C000A5CA77FAA6CA78FA9AEC96F0000E05014C
:1002D0008E6F020E65EC9FF08EC571FA8FC572FAB3
:1002E000000E0A01746F150E736F5B0E756FFF0EB3
:1002F000766FA5CA77FAA6CA78FA9AEC96F0000E3D
:1003000005018E6F030E65EC9FF08EC571FA8FC5E7
:1003100072FA000E0A01746F150E736F5B0E756F23
:10032000FF0E766FA5CA77FAA6CA78FA9AEC96F00D
:1003300030ECA6F0030E0501946FE80E936F80EC8D
:10034000A4F0010E6100A1F302F6070E8F6FA50E57
:100350008E6F91ECA5F025EEEBF3DF5037ECA5F0B6
:10036000280E0A01716F170E726F000E746F3F0E28
:10037000736FB50E756FFC0E766F9AEC96F0000EEB
:1003800005018E6F000E65EC9FF08EC571FA8FC56A
:1003900072FA000E0A01746F150E736F5E0E756FA0
:1003A000FE0E766F6500B4FF9BFA010E9B179B5102
:1003B000776F786BF00E796FFF0E7A6F9AEC96F08C
:1003C000000E05018E6F010E65EC9FF08EC571FA6F
:1003D0008FC572FA000E0A01746F150E736F960EB8
:1003E000756FFC0E766F9AEC96F0000E05018E6F1D
:1003F000020E65EC9FF08EC571FA8FC572FA000E81
:100400000A01746F150E736FBB0E756FFE0E766F5B
:100410009AEC96F0000E05018E6F030E65EC9FF0CE
:100420008EC571FA8FC572FA000E0A01746F150E2F
:10043000736F760E756FFE0E766FA40E776FFF0EDC
:10044000786F9AEC96F0010E05018E6F000E65EC48
:100450009FF08EC571FA8FC572FA000E0A01746F93
:10046000150E736F8D0E756FFE0E766F9AEC96F00B
:10047000010E05018E6F010E65EC9FF08EC571FABD
:100480008FC572FA000E0A01746F150E736F000E9D
:10049000756FFF0E766FF00E776FFF0E786F9AEC28
:1004A00096F0010E05018E6F020E65EC9FF08EC571
:1004B00071FA8FC572FA000E0A01746F150E736F10
:1004C000D20E756FFE0E766F9AEC96F0010E050156
:1004D0008E6F030E65EC9FF08EC571FA8FC572FAB0
:1004E000000E0A01746F150E736F760E756FFE0E97
:1004F000766FA40E776FFF0E786F9AEC96F0030E6E
:1005000005018E6F000E65EC9FF08EC571FA8FC5E8
:1005100072FA000E0A01746F150E736F2E0E756F4E
:10052000FF0E766FF00E776FFF0E786F9AEC96F0F5
:10053000030E05018E6F010E65EC9FF08EC571FAFA
:100540008FC572FA000E0A01746F150E736F000EDC
:10055000756FFF0E766FF00E776FFF0E786F9AEC67
:1005600096F0030E05018E6F020E65EC9FF08EC5AE
:1005700071FA8FC572FA000E0A01746F150E736F4F
:10058000E90E756FFE0E766F9AEC96F0030E05017C
:100590008E6F030E65EC9FF08EC571FA8FC572FAEF
:1005A000000E0A01746F150E736F760E756FFE0ED6
:1005B000766FA40E776FFF0E786F9AEC96F0020EAE
:1005C00005018E6F000E65EC9FF08EC571FA8FC528
:1005D00072FA000E0A01746F150E736FA40E756F18
:1005E000FE0E766F9AEC96F0020E05018E6F010EEC
:1005F00065EC9FF08EC571FA8FC572FA000E0A0184
:10060000746F150E736F000E756FFF0E766FF00E20
:10061000776FFF0E786F9AEC96F0020E05018E6FE1
:10062000020E65EC9FF08EC571FA8FC572FA000E4E
:100630000A01746F150E736F170E756FFF0E766FCC
:100640009AEC96F0020E05018E6F030E65EC9FF09A
:100650008EC571FA8FC572FA000E0A01746F150EFD
:10066000736F760E756FFE0E766FA40E776FFF0EAA
:10067000786F9AEC96F030ECA6F00B0E0501946FB3
:10068000B80E936F80ECA4F0010E8F6FF40E8E6F96
:10069000050ED5ECA3F00B0E8F6FB80E8E6F020E09
:1006A000D5ECA3F0050E8F6FDC0E8E6F070ED5EC28
:1006B000A3F00B0E8F6FB80E8E6F040ED5ECA3F067
:1006C000270E8F6F100E8E6F060ED5ECA3F00B0E5B
:1006D0008F6FB80E8E6F030ED5ECA3F0000E8F6FE8
:1006E000010E8E6F010ED5ECA3F045D0000E17EC75
:1006F000A5F0000E8E6F000E65EC9FF08EC5A1FA7E
:100700008FC5A2FA0A0120EE15F0A151D926A251F7
:10071000DA22DF6A000E0501926F030EC3EC98F037
:100720000A019B6F20EE13F0A151D926A251DA22C3
:100730009BCADFF420D0000E6100A1F302F630EC7A
:10074000A6F00B0E0501946FB80E936F80ECA4F029
:1007500012D025EE02F2DF500A019B6F9C6B9C5178
:10076000000AD8A4E8D79B51000AD8B474D5010A6E
:10077000D8B4BCD7E0D7010E94ECA4F00009D8B4EB
:1007800056D1BDECA3F0A5ECA3F0000E0501AB6FB4
:10079000000EAC6F000EAD6F000EAE6F000EAF6FAF
:1007A000000EB06F000EB16F2EEC96F0610029F9CB
:1007B0008CF761002DF98DF7610031F98EF761003A
:1007C00035F98FF7CFECA4F0000E05018F6F010E05
:1007D0008E6F010ED5ECA3F0010E07018027000EED
:1007E0008123822383234BECA7F0000E20ECA6F09C
:1007F00010ECA7F00009D8B4FBD710ECA7F0000963
:10080000D8B406D073ECA5F08EC500F78FC501F7FC
:100810004BECA7F0010E20ECA6F010ECA7F00009BD
:10082000D8B4FBD710ECA7F00009D8B40ED073EC05
:10083000A5F0610039F6FBF761003DF6FCF76500B5
:10084000ECFF02F76500F0FF03F74BECA7F0020E98
:1008500020ECA6F010ECA7F00009D8B4FBD710EC00
:10086000A7F00009D8B40ED073ECA5F0610039F6FA
:10087000FDF761003DF6FEF76500F4FF04F7650043
:10088000F8FF05F74BECA7F0040E20ECA6F010ECF7
:10089000A7F00009D8B4FBD710ECA7F00009D8B432
:1008A00006D073ECA5F08EC508F78FC509F74BECA1
:1008B000A7F0050E20ECA6F010ECA7F00009D8B4C4
:1008C000FBD710ECA7F00009D8B406D073ECA5F064
:1008D0008EC50AF78FC50BF74BECA7F0160E20EC70
:1008E000A6F010ECA7F00009D8B4FBD710ECA7F0E5
:1008F0000009D8B406D073ECA5F08EC52CF78FC5CF
:100900002DF74BECA7F0170E20ECA6F010ECA7F09B
:100910000009D8B4FBD710ECA7F00009D8B406D072
:1009200073ECA5F08EC52EF78FC52FF74BECA7F013
:100930001D0E20ECA6F010ECA7F00009D8B4FBD7F0
:1009400010ECA7F00009D8B406D073ECA5F08EC562
:100950003AF78FC53BF74BECA7F03B0E20ECA6F027
:1009600010ECA7F00009D8B4FBD710ECA7F00009F1
:10097000D8B406D073ECA5F08EC576F78FC577F79F
:100980004BECA7F03C0E20ECA6F010ECA7F0000911
:10099000D8B4FBD710ECA7F00009D8B406D073EC9C
:1009A000A5F08EC578F78FC579F74BECA7F03D0E13
:1009B00020ECA6F010ECA7F00009D8B4FBD710EC9F
:1009C000A7F00009D8B406D073ECA5F08EC57AF76D
:1009D0008FC57BF74BECA7F03E0E20ECA6F010EC99
:1009E000A7F00009D8B4FBD710ECA7F00009D8B4E1
:1009F00006D073ECA5F08EC57CF78FC57DF74BEC68
:100A0000A7F03F0E20ECA6F010ECA7F00009D8B438
:100A1000FBD710ECA7F00009D8B406D073ECA5F012
:100A20008EC57EF78FC57FF76500D4FE7DF0050E7D
:100A300094ECA4F00009D8B46BD2010E8F6FF40EC1
:100A40008E6F050ED5ECA3F0040E94ECA4F0000913
:100A5000D8B403D0000E17ECA5F00701B751B611BA
:100A60000DE1B4292F0EB559D8B008D0000EC46FCF
:100A7000000EC56F000EC66F000EC76F000E050199
:100A80008E6F000E65EC9FF08EC571FA8FC572FAFD
:100A9000000E0A01746F150E736F760E756FFC0EE3
:100AA000766F650020FE77FA650024FE78FA65000F
:100AB00028FE79FA65002CFE7AFA650030FE7BFA92
:100AC000650034FE7CFA650038FE7DFA65003CFE68
:100AD0007EFA88C77FFA89C780FA8AC781FA8BC7EE
:100AE00082FAB4C783FAB5C784FAB6C785FAB7C71E
:100AF00086FA9AEC96F0000E05018E6F010E65ECF9
:100B00009FF08EC571FA8FC572FA000E0A01746FDC
:100B1000150E736FBD0E756FFA0E766FABC677FA52
:100B2000786BAAC679FA7A6BA9C67BFA7C6BA8C6E1
:100B30007DFA7E6B9AEC96F0000E05018E6F020E28
:100B400065EC9FF08EC571FA8FC572FA000E0A012E
:100B5000746F150E736F340E756FFC0E766FA4C72D
:100B600077FAA5C778FAA6C779FAA7C77AFAA0C70D
:100B70007BFAA1C77CFAA2C77DFAA3C77EFA00015F
:100B800097AD04D00A019B6B9B2B02D00A019B6B93
:100B90009B517F6F806B000194A704D00A019C6B6E
:100BA0009C2B02D00A019C6B9C51816F826B0001CF
:100BB00094AF04D00A019D6B9D2B02D00A019D6B5E
:100BC0009D51836F846B9AEC96F0000E05018E6F39
:100BD000030E65EC9FF08EC571FA8FC572FA000E98
:100BE0000A01746F150E736F8C0E756FFA0E766FA7
:100BF000C0C777FAC1C778FAC2C779FAC3C77AFA09
:100C0000A8C77BFAA9C77CFAAAC77DFAABC77EFA48
:100C10000501CEA704D00A019B6B9B2B02D00A01D1
:100C20009B6B9B517F6F806B0501CEA504D00A01A1
:100C30009C6B9C2B02D00A019C6B9C51816F826B38
:100C40000501CEA904D00A019D6B9D2B02D00A019B
:100C50009D6B9D51836F846B6500D4FE85FA6500A2
:100C6000D8FE86FA9AEC96F024EC90F025EEECF3A0
:100C7000DFC49BFA010EDF26460E0A019B652BD0CE
:100C80000501D15137ECA5F025EEECF3DF500A0158
:100C90009B6F9C6B25EEEEF3DF509D6F9E6B660E97
:100CA0009D27000E9E239B519D5D9E51800A9F6F44
:100CB0009C51800A9F59D8B013D00501D12BD15136
:100CC000030B030AD8A402D0010ED16F000E6100FD
:100CD000A1F3ECF705D025EEEBF3DF5037ECA5F0F0
:100CE000010E05018E6F000E65EC9FF08EC571FA46
:100CF0008FC572FA000E0A01746F150E736FBC0E69
:100D0000756FFB0E766F6500FCFF77FA660000F0EA
:100D100078FA66000CF09BFA9B51796F7A6B9AEC2B
:100D200096F0010E05018E6F010E65EC9FF08EC5E9
:100D300071FA8FC572FA000E0A01746F150E736F87
:100D4000940E756FFB0E766F660004F077FA6600FE
:100D500008F078FA660010F09BFA9B51796F7A6B75
:100D60009AEC96F0010E05018E6F020E65EC9FF075
:100D70008EC571FA8FC572FA000E0A01746F150ED6
:100D8000736F0C0E756FFC0E766F6500ECFF77FAD3
:100D90006500F0FF78FA6500F4FF79FA6500F8FF66
:100DA0007AFA9AEC96F0010E05018E6F030E65EC4F
:100DB0009FF08EC571FA8FC572FA000E0A01746F2A
:100DC000150E736FE40E756FFB0E766FA8C677FA7B
:100DD000786BA9C679FA7A6B9AEC96F0020E050147
:100DE0008E6F000E65EC9FF08EC571FA8FC572FA9A
:100DF000000E0A01746F150E736F6C0E756FFB0E8B
:100E0000766F9AEC96F0020E05018E6F010E65EC7E
:100E10009FF08EC571FA8FC572FA000E0A01746FC9
:100E2000150E736F6C0E756FFB0E766F9AEC96F065
:100E3000020E05018E6F020E65EC9FF08EC571FAF1
:100E40008FC572FA000E0A01746F150E736F0C0EC7
:100E5000756FFC0E766F6500ECFF77FA6500F0FFAA
:100E600078FA6500F4FF79FA6500F8FF7AFA9AECEF
:100E700096F0020E05018E6F030E65EC9FF08EC595
:100E800071FA8FC572FA000E0A01746F150E736F36
:100E9000420E756FFB0E766FC0C777FAC1C778FA3E
:100EA000C2C779FAC3C77AFAA8C77BFAA9C77CFA7E
:100EB000AAC77DFAABC77EFA0501CEA704D00A0106
:100EC0009B6B9B2B02D00A019B6B9B517F6F806BAE
:100ED0000501CEA504D00A019C6B9C2B02D00A010F
:100EE0009C6B9C51816F826B0501CEA904D00A01D5
:100EF0009D6B9D2B02D00A019D6B9D51836F846B6E
:100F00009AEC96F025EEF7F3DF50D8B430ECA6F06B
:100F100025EEF7F3DF50D8B416D0030E94ECA4F00E
:100F20000009D8B40CD0000E6100A1F3F7F725EE4C
:100F3000EBF3DF5037ECA5F030ECA6F004D0030E55
:100F400037ECA5F0F9D725EEF2F3DF50D8B428EF4F
:100F500081F0060E94ECA4F00009D8B428EF81F0DB
:100F6000270E8F6F100E8E6F060ED5ECA3F00B0EB2
:100F70008F6FB80E8E6F030ED5ECA3F0010E6100DB
:100F8000A1F3F7F7000EDBEC90F028EF81F0E6C656
:100F9000D9F4E7C6DAF4DEC4F6F4DDC4F7F4000EE3
:100FA000F86E0800F550250AD8A463D2E6C6D9F435
:100FB000E7C6DAF4DE2A000EDD22000E0501B86F66
:100FC000000EB76FB7C5BBF5B969BA69E6C68EF54D
:100FD000E7C68FF5E8C690F5E9C691F5C2EC97F043
:100FE0008EC5B7F58FC5B8F5B8AF05D0BB81B76D65
:100FF000B81FD8B0B82BE6C6D9F4E7C6DAF4DEC419
:10100000F6F4DDC4F7F4000EF86E0800F5502E0A71
:10101000D8A415D0E6C6D9F4E7C6DAF4DE2A000E65
:10102000DD22E6C68EF5E7C68FF5E8C690F5E9C67F
:1010300091F5C2EC97F08EC5B9F58FC5BAF5E6C645
:10104000D9F4E7C6DAF4DEC4F6F4DDC4F7F4000E32
:10105000F86E0800F550630AD8A427D0E6C6D9F484
:10106000E7C6DAF4DE2A000EDD22E8C6D9F4E9C6C6
:10107000DAF4DFC4EAF6020EDE26DFC4EBF6000E79
:10108000DD22EAC6D9F4EBC6DAF4DF500A016E6F4E
:10109000E4C697F5E5C698F56ECA99F503EC9AF0A3
:1010A00097C5E4F698C5E5F61200E6C6D9F4E7C69A
:1010B000DAF4DEC46FFADDC470FA6FCAF6F470CAEF
:1010C000F7F4000EF86E0800F5C46EFA08D06F4B06
:1010D000702B1AD0690E6E6F17D06E6B15D00A0187
:1010E0006E51580AD8B4F6D73C0AD8B4F3D70D0AD3
:1010F000D8B4F0D7050AD8B4EAD7190AD8B4EAD7D1
:101100000D0AD8B4E7D7E9D76FCAF6F470CAF7F476
:10111000000EF86E0800F550640AD8B43FD06FCACC
:10112000F6F470CAF7F4000EF86E0800F550690A7C
:10113000D8B434D05ED0E8C6D9F4E9C6DAF4DFC456
:10114000EAF6020EDE26DFC4EBF6000EDD22EAC66A
:10115000D9F4EBC6DAF4DEC46AFADDC46BFA000E29
:101160006BBFFF0E6C6F6D6F20D0E8C6D9F4E9C677
:10117000DAF4DFC4EAF6040EDE26DFC4EBF6000E76
:10118000DD22EAC6D9F4EBC6DAF4DEC46AFADEC4BC
:101190006BFADEC46CFADEC46DFA07D06E51690AD0
:1011A000D8B4C9D7050AD8B4E0D7010E6F25060117
:1011B000EA6F000E0A0170210601EB6FE6C6D9F452
:1011C000E7C6DAF4EAC6DEF4EBC6DDF4E4C6A7F55A
:1011D000E5C6A8F56ACAA9F56BCAAAF56CCAABF54B
:1011E0006DCAACF5E7EC92F0A7C5E4F6A8C5E5F644
:1011F00012006FCAF6F470CAF7F4000EF86E080019
:10120000F550780AD8B44BD06FCAF6F470CAF7F428
:10121000000EF86E0800F550580AD8B440D06FCAD6
:10122000F6F470CAF7F4000EF86E0800F550750A6F
:10123000D8B435D08DD0E8C6D9F4E9C6DAF4DFC425
:10124000EAF6020EDE26DFC4EBF6000EDD22EAC669
:10125000D9F4EBC6DAF4DEC4ECF6DDC4EDF6ECC688
:101260006AFAEDC66BFA6C6B6D6B20D0E8C6D9F4E8
:10127000E9C6DAF4DFC4EAF6040EDE26DFC4EBF6D4
:10128000000EDD22EAC6D9F4EBC6DAF4DEC46AFA4F
:10129000DEC46BFADEC46CFADEC46DFA07D06E51A0
:1012A000690AD8B4C8D7050AD8B4E0D7010E6F25AB
:1012B0000601EA6F000E0A0170210601EB6FE6C617
:1012C000D9F4E7C6DAF4EAC6DEF4EBC6DDF42FD0D3
:1012D000E4C6A7F5E5C6A8F56ACAA9F56BCAAAF5DA
:1012E0006CCAABF56DCAACF5CBEC94F0A7C5E4F6CF
:1012F000A8C5E5F61200E4C6A7F5E5C6A8F56ACAD2
:10130000A9F56BCAAAF56CCAABF56DCAACF56FCA84
:10131000F6F470CAF7F4000EF86E0800F5C4ADF5E7
:1013200039EC94F0A7C5E4F6A8C5E5F612006FCA3B
:10133000F6F470CAF7F4000EF86E0800F550580A7B
:10134000D8B4D9D72D0AD8B4C3D70D0AD8B4D3D7B7
:101350000A01696BE6C6D9F4E7C6DAF4DEC4F6F42E
:10136000DDC4F7F4000EF86E0800F550730AD8A437
:101370000BD0E6C6D9F4E7C6DAF4DE2A000EDD2289
:10138000010E0A01696F45D0E6C6D9F4E7C6DAF462
:10139000DEC4F6F4DDC4F7F4000EF86E0800F55074
:1013A0006C0AD8A436D0E6C6D9F4E7C6DAF4DEC4AF
:1013B000EAF6DDC4EBF6010E0601EA27000EEB2388
:1013C000EAC6F6F4EBC6F7F4000EF86E0800F55026
:1013D0006C0AD8A41ED0E6C6D9F4E7C6DAF4DEC497
:1013E000EAF6DDC4EBF6020EEA27000EEB23EAC6AE
:1013F000F6F4EBC6F7F4000EF86E0800F550730A29
:10140000D8A407D0030EE6C6D9F4E7C6DAF4DE2680
:10141000B5D70A016951D8B41FD0E4C697F5E5C61F
:1014200098F5E8C6D9F4E9C6DAF4DFC4EAF6020EA4
:10143000DE26DFC4EBF6000EDD22EAC6D9F4EBC6E9
:10144000DAF4DEC499F5DDC49AF593EC93F097C510
:10145000E4F698C5E5F61200E6C6D9F4E7C6DAF474
:10146000DE2A000EDD22000E0601E56F000EE46F9D
:101470001200E6C6D9F4E7C6DAF4DEC4F6F4DDC439
:10148000F7F4000EF86E0800F55005018E6F8F6BB3
:10149000E4C690F5E5C691F513EC99F0E6C6D9F4EB
:1014A000E7C6DAF4DE2A000EDD22000E0601E56F43
:1014B000010EE46F1200670E05016D6FC08400011C
:1014C00097A507D0010E0701A027000EA123A22394
:1014D000A323000194B70AD00501CEA507D0010EC1
:1014E0000701C427000EC523C623C7238DC0CDF531
:1014F000A80E0601BD25D96EDA6A060EDA22CDC520
:10150000DFF4C251D8B44ED0030EBD19D8A441D0D7
:10151000A9C662F50501636B646B656B610089F5B3
:1015200088F761008DF589F7610091F58AF7610010
:1015300095F58BF70601AA510501636F626B62C5D1
:1015400064F563C565F5000E65BFFF0E666F676FD6
:10155000000E6415686FFF0E6515696F000E661545
:101560006A6F000E67156B6F25EE88F36851DE26F3
:101570006951DE226A51DE226B51DE22CD6B0601FB
:10158000C26BBD6B010E0701A427000EA523A62385
:10159000A723010E0701B427000EB523B623B723F6
:1015A0000501CD6B0601C451D8B421D0030EBD197D
:1015B000D8A414D0A9510501626F636B610089F54D
:1015C000B5F761008DF5B6F70601C46BBD6B010E72
:1015D0000701A427000EA523A623A723010E0701B8
:1015E000B427000EB523B623B7230501CD6B060142
:1015F000C351D8B43ED0040EBD19D8A41FD0BD51DC
:10160000080DF3C462F5650030FE63F50501622B39
:1016100002D0D8906333622FFCD7050163510001DB
:101620008E6F0601C36BBD6B010E0701A427000E70
:10163000A523A623A7230501CD6B1BD0010E07010F
:10164000B427000EB523B623B7230601BD51080DFC
:10165000F3C462F5650030FE63F50501622B02D02C
:10166000D8906333622FFCD70501635100018E6F60
:10167000E2D70601C551D8B44ED0030EBD19D8A487
:1016800020D00501CA51020D000EF324D96E070EB9
:10169000F420DA6EDEC462F5DDC463F563C562F57D
:1016A000636B625100018E6F0601C56BBD6B010E4D
:1016B0000701A427000EA523A623A7230501CD6BB0
:1016C0002AD0010E0701B427000EB523B623B72395
:1016D0000601BD05D8A40BD00501CA51020D000EAC
:1016E000F324D96E070EF420DA6EDF5011D0050115
:1016F000CA51020D000EF324D96E070EF420DA6EE3
:10170000DEC462F5DDC463F563C562F5636B6251E7
:1017100000018E6FD3D70601BD2B1F0EBD6508D00B
:10172000BD6B010E0701A827000EA923AA23AB2336
:101730000501CD51F00B6F6F0601C451D8A4E3D061
:10174000C351D8A4E0D0C251D8A4DDD0C451D8A48C
:10175000DAD0900E05016F19D8A419D0CE9FCE957E
:10176000010E07018427000E852386238723010E9F
:101770000601BD6F010EC46F010E0701B427000EF4
:10178000B523B623B7230501CE8946ECA7F0800E1A
:101790006F19D8A447D0CE9FCE95010E07018027A0
:1017A000000E8123822383230501CD510F0BCA6FC5
:1017B000050ECA652ED013D0160E0DD0170E0BD005
:1017C0001D0E09D03B0E07D03C0E05D03D0E03D0B8
:1017D0003E0E01D03F0ECA6F1CD0CA6B1AD0CA5140
:1017E000060AD8B4E9D7010AD8B4E8D70F0AD8B4A2
:1017F000E7D7010AD8B4E6D7030AD8B4E5D7010A77
:10180000D8B4E4D7070AD8B4E3D7010AD8B4E2D7EA
:10181000E4D7010E0601BD6F010EC56F0501CE892B
:1018200046ECA7F0F00E6F19D8A411D0CE9FCE854C
:10183000010E07018827000E89238A238B230601C6
:10184000BD6B010EC36F0501CE8946ECA7F0A00E5B
:101850006F19D8A41BD0CE9FCE85010E0701882713
:10186000000E89238A238B23CDC5CAF5010E0601FC
:10187000BD6F010EC26F010E0701B427000EB52324
:10188000B623B7230501CE8946ECA7F01EECA7F0DE
:101890000009D8B408D0BF923BECA3F06E6F6EC5C0
:1018A000A9F66D8DCE87B00E6F19D8A40BD0CD518F
:1018B0000F0B6C6FCE95010E07019827000E992330
:1018C0009A239B23E00E05016F19D8A415D017ECBD
:1018D000A7F00009D8B409D0CDC562F50F0E621784
:1018E0006239F00B6C1172ECA3F06DC5B8F605010E
:1018F000CE97CE8946ECA7F0100E6F19D8A403D06E
:10190000CE956EC5B8F6010E0701AC27000EAD23CB
:10191000AE23AF23C09412000000000000000000BE
:1019200000000000000000000000000000000000B7
:1019300000000000000000000000000000000000A7
:101940000000000000000000000000000000000097
:101950000000000000000000000000000000000087
:101960000000000000000000000000000000000077
:101970000000000000000000000000000000000067
:101980000000000000000000000000000000000057
:101990000000000000000000000000000000000047
:1019A0000000000000000000000000000000000037
:1019B0000000000000000000000000000000000027
:1019C0000000000000000000000000000000000017
:1019D0000000000000000000000000000000000007
:1019E00000000000000000000000000000000000F7
:1019F00000000000000000000000000000000000E7
:101A000000000000000000000000000000000000D6
:101A100000000000000000000000000000000000C6
:101A200000000000000000000000000000000000B6
:101A300000000000000000000000000000000000A6
:101A40000000000000000000000000000000000096
:101A50000000000000000000000000000000000086
:101A60000000000000000000000000000000000076
:101A70000000000000000000000000000000000066
:101A80000000000000000000000000000000000056
:101A90000000000000000000000000000000000046
:101AA0000000000000000000000000000000000036
:101AB000000A0A14000000000000000000000000FE
:101AC0000000000000000000000000000000000016
:101AD0000000000000000000000000000000000006
:101AE00000000000000000000000000000000000F6
:101AF00000000000000000000000000000010001E4
:101B000000020000000000000100000000000001D1
:101B1000000000000000000000004F4F0000000027
:101B200000000000434D443A204D2C20432020204B
:101B300020202020202020200000000000000000A5
:101B4000000000004D6573736167652C20436C6F66
:101B500073652020202020200000000000000000ED
:101B60000000000054657874204D657373616765EB
:101B700020746F20486F73740000000000000000A4
:101B800000000000434D443A20522C20502C204F9E
:101B90002020202020202020000000000000000045
:101BA0000000000052656164792C2050756D702C26
:101BB000204F70656E202020000000000000000013
:101BC000000000004C6F6164204C6F636B20636FFA
:101BD0006D6D616E64732020000000000000000045
:101BE00000000000434D443A204C2C20532C20444C
:101BF00020202020202020200000000000000000E5
:101C0000000000004C6F672C2053657175656E6392
:101C1000652C20446562756700000000000000002C
:101C20000000000020202020202020202020202034
:101C300020202020202020200000000000000000A4
:101C400000000000434D443A20452C20482C2046FB
:101C50002020202020202020000000000000000084
:101C6000000000004572726F72732C2048656C7022
:101C70002C20467265652020000000000000000056
:101C800000000000453A20546573742020463A2035
:101C900053706565642020200000000000000000F3
:101CA000000000009CC599F59DC59AF5040E9B6F38
:101CB00047EC95F006C6D9F407C6DAF4DF50050103
:101CC000A06FA05106013A6F3B6B3C6B3D6B20EE61
:101CD00001F00651D9260751DA22DF500501A06F25
:101CE000A051A26FA16BA1C5A3F5A2C5A4F5000EDA
:101CF000A4BFFF0EA56FA66F000EA315A76FFF0E62
:101D0000A415A86F000EA515A96F000EA615AA6F41
:101D1000A75106013A270501A85106013B230501F9
:101D2000A95106013C230501AA5106013D2320EEDD
:101D300002F00651D9260751DA22DF500501A06FC3
:101D4000A0C5A1F5A26BA36BA46BA2C5A4F5A1C508
:101D5000A3F5A26BA16B000EA115A56F000EA21535
:101D6000A66FFF0EA315A76F000EA415A86FA551AF
:101D700006013A270501A65106013B230501A7519B
:101D800006013C230501A85106013D2320EE03F086
:101D90000651D9260751DA22DF500501A06FA0C5F0
:101DA000A1F5A26BA36BA46BA1C5A4F5A36BA26B59
:101DB000A16B000EA115A56F000EA215A66F000E57
:101DC000A315A76FFF0EA415A86FA55106013A270A
:101DD0000501A65106013B230501A75106013C233D
:101DE0000501A85106013D230501BC6B060120EE4B
:101DF00003F00651D9260751DA22DFA816D0010ECA
:101E00000501BD6F010EBC6F010E06013227000EE9
:101E1000332334233523BF82460E0501996FFA0E12
:101E20009A6F040E9B6F47EC95F020EE03F006517D
:101E3000D9260751DA22DFAA14D0010E0501BC6FA2
:101E4000010E06013627000E372338233923BF82BF
:101E5000460E0501996FFA0E9A6F040E9B6F47ECC0
:101E600095F005019E519F11D8B406D0000E946FD5
:101E7000010E936F80ECA4F03AC69CF53BC69DF52D
:101E80003CC69EF53DC69FF512000501A56F0501F4
:101E9000A551030BA56FA551A16FA26B000EA10365
:101EA000F3C4A3F5F4C4A4F5A203F350A427020ECF
:101EB000A103F350A427140EA325D96E0E0EA4215E
:101EC000DA6EDF6AA551A16FA26B000EA103F3C405
:101ED000A3F5F4C4A4F5A203F350A427020EA103B2
:101EE000F350A427940EA325D96E0E0EA421DA6E0A
:101EF000DF6AA551A16FA26B000EA103F3C4A3F585
:101F0000F4C4A4F5A203F350A427020EA103F350D6
:101F1000A427140EA325D96E0F0EA421DA6EDF6A52
:101F2000A551A16FA26B000EA103F3C4A3F5F4C4E5
:101F3000A4F5A203F350A427020EA103F350A42793
:101F4000940EA325D96E0F0EA421DA6EDF6AE5EC9C
:101F50009AF0000E05019C6FA551A16FA26B000EB7
:101F6000A103F3C4A3F5F4C4A4F5A203F350A4277A
:101F7000020EA103F350A427FF0EA3259D6F0D0EA3
:101F8000A4219E6F000EB5EC9DF0E5EC9AF0000EDA
:101F900005019C6FA551A16FA26B000EA103F3C4B4
:101FA000A3F5F4C4A4F5A203F350A427020EA103E1
:101FB000F350A4277F0EA3259D6F0E0EA4219E6FC4
:101FC000010EB5EC9DF0E5EC9AF0000E05019C6F5A
:101FD000A551A16FA26B000EA103F3C4A3F5F4C435
:101FE000A4F5A203F350A427020EA103F350A427E3
:101FF000FF0EA3259D6F0E0EA4219E6F020EB5EC61
:102000009DF0E5EC9AF0000E05019C6FA551A16FC3
:10201000A26B000EA103F3C4A3F5F4C4A4F5A203BC
:10202000F350A427020EA103F350A4277F0EA3258B
:102030009D6F0F0EA4219E6F030EB5EC9DF025EE53
:10204000FFF1DF50030B12006500ECFF8EF5650019
:10205000F0FF8FF5ACEC9EF0966F610059F603F837
:102060006500F4FF8EF56500F8FF8FF5ACEC9EF08F
:10207000966F610059F604F825EEFBF3DEC496F581
:10208000DDC497F5400E96258E6FF70E97218F6F62
:10209000000E916F3C0E906F4BEC9CF0610039F696
:1020A000FFF761003DF600F825EEFFF3010EDBBE01
:1020B0001FD0010EDB5003E1DE04D8A019D025EEBD
:1020C000FBF3DEC496F5DDC497F5400E96258E6FC2
:1020D000F70E97218F6F000E916F230E906F4BECD0
:1020E0009CF0610039F6FFF761003DF600F813D06F
:1020F00025EEFFF3010EDBAE0ED0E80EDE5CFF0E28
:10210000DE58D8B008D0000E6100A1F3FFF7000E32
:102110006100A1F300F825EEFDF3DEC496F5DDC401
:1021200097F5400E96258E6FF70E97218F6F000E54
:10213000916F3C0E906F4BEC9CF0610039F601F80A
:1021400061003DF602F826EE01F0010EDBBE1FD065
:10215000010EDB5003E1DE04D8A019D025EEFDF31B
:10216000DEC496F5DDC497F5400E96258E6FF70E0A
:1021700097218F6F000E916F230E906F4BEC9CF0A8
:10218000610039F601F861003DF602F8120026EE12
:1021900001F0010EDBAE1200E80EDE5CFF0EDE5831
:1021A000D8B01200000E6100A1F301F8000E61002A
:1021B000A1F302F812000901FF6F25EEF2F3DF50E0
:1021C000D8B41200030E05018E6F000E65EC9FF06F
:1021D0008EC571FA8FC572FA000E0A01746F150E62
:1021E000736FD30E756FFC0E766F6500D0FFB6F57A
:1021F000010E0501B6250A01776F786B000E782372
:102200009AEC96F00901FF51D8B41AD0030E0501DB
:102210008E6F030E65EC9FF08EC571FA8FC572FA52
:10222000000E0A01746F150E736F450E756FFF0E69
:10223000766F000E776F000E786F9AEC96F022D0D2
:10224000030E05018E6F030E65EC9FF08EC571FACB
:102250008FC572FA000E0A01746F150E736F770E38
:10226000756FFE0E766F6500D0FFB6F50501B651AD
:10227000600D4D0EF3240A01776F180EF420786F6D
:102280009AEC96F0030E05018E6F020E65EC9FF03E
:102290008EC571FA8FC572FA000E0A01746F150EA1
:1022A000736F700E756FFF0E766F6500D0FFB6F519
:1022B0000501B651600D2D0EF3240A01776F180E3B
:1022C000F420786F9AEC96F0030E05018E6F010EE4
:1022D00065EC9FF08EC571FA8FC572FA000E0A0187
:1022E000746F150E736F700E756FFF0E766F65004D
:1022F000D0FFB6F50501B651600D0D0EF3240A01AD
:10230000776F180EF420786F9AEC96F0010E61004A
:10231000A1F3F4F71200180EF66E190EF76E010E07
:10232000F86E05EE01F220EE8CF30900F5C4EEF430
:10233000DD50D950FAE1DA50F8E1580EF66E4E0E43
:10234000F76E010EF86E01EEF2F320EE0CF00900CC
:10235000F5C4EEF4DD50D950FAE1180EF66E470ED2
:10236000F76E010EF86E01EEA8F220EE32F00900D1
:10237000F5C4EEF4DD50D950FAE1FA0EF66E4E0EC9
:10238000F76E010EF86E0900F5C4D0F50900F5C42A
:10239000D1F5F80EF66E4E0EF76E010EF86E0900CE
:1023A000F5C44CF50900F5C44DF503EEFFF122EE3E
:1023B00002F0EE6ADD50D950FCE1DA50FAE103EEAA
:1023C00000F120EEFFF0EE6ADD50D950FCE1DA506A
:1023D000FAE103EE00F020EEFFF0EE6ADD50D95096
:1023E000FCE1DA50FAE102EE00F320EEFFF0EE6AD3
:1023F000DD50D950FCE1DA50FAE102EE00F2690E4C
:10240000EE6AE806FDE102EE00F120EEFFF0EE6A72
:10241000DD50D950FCE1DA50FAE102EE00F020EE96
:1024200000F1EE6ADD50D950FCE1DA50FAE101EE3C
:1024300000F3F20EEE6AE806FDE101EE00F2A80EEE
:10244000EE6AE806FDE101EEB7F1190EEE6AE80664
:10245000FDE101EE21F1180EEE6AE806FDE104014E
:10246000080E5D6F000E5E6F000E5F6F000100EFE3
:1024700080F0E00E0601046F080E056FA00E066FD7
:10248000080E076F000E05018E6F0A0E8F6F000E8B
:10249000916F200E906F000E936F690E926FEBECB0
:1024A000A3F0EA0E8E6F4E0E8F6F010E906FEDEC63
:1024B000A6F00E0E8E6F4F0E8F6F010E906FF4EC24
:1024C000A6F0020E64ECA5F0D60E05018E6F480E44
:1024D0008F6F010E906FD8ECA6F0500E8E6F4C0EE1
:1024E0008F6F010E906FDFECA6F02E0E8E6F4C0EEC
:1024F0008F6F010E906FE6ECA6F0030E55ECA5F081
:10250000D60E05018E6F480E8F6F010E906FC3ECD3
:10251000A6F0500E8E6F4C0E8F6F010E906FCAECAE
:10252000A6F02E0E8E6F4C0E8F6F010E906FD1ECB9
:10253000A6F0030E46ECA5F04D50D8B40BD0C00E5B
:1025400005018E6F270E8F6F090E906F000E916F31
:1025500057ECA3F000018A93E86BFC9F849F020E66
:10256000866F848F3F0EFD17FD9BFD51F90B02090D
:10257000FD6FE70EFD17FD8104C6F9F005C6FAF000
:10258000FB6BFC9BFC8F8A83530E03ECA6F0050EBD
:1025900048ECA0F0520E03ECA6F0230E48ECA0F09D
:1025A000410E03ECA6F0510E03ECA6F0DC0E050183
:1025B0008E6F050E8F6F000E906F000E916F57ECAF
:1025C000A3F03CECA7F037ECA7F04D6A1200050130
:1025D000ACAF02D0010E01D0000EB36FBAAF05D080
:1025E000000EB26F010EB16F04D0B9C5B1F5BAC516
:1025F000B2F5B7C5AFF5B8C5B0F5B351D8B410D082
:10260000AF07D8A0B007B351D8A404D0000EAE6F66
:102610002B0E03D0000EAE6F2D0EAD6FADC5B3F512
:10262000000EB56F1F0EB46F08019F6B44D0B40746
:10263000D8A0B507800EB425D96E080EB521DA6E84
:10264000A9C58EF5AAC58FF5ABC590F5ACC591F5BA
:102650000A0E926F000E936F000E946F000E956F2E
:102660001DEC98F08EC598F58FC599F5A8ECA4F0EF
:102670009851300FDF6EB107D8A0B207AF07D8A0CE
:10268000B007A9C58EF5AAC58FF5ABC590F5ACC549
:1026900091F50A0E926F000E936F000E946F000E6C
:1026A000956F01EC97F08EC5A9F58FC5AAF590C579
:1026B000ABF591C5ACF50501B5BF12D0B55103E13D
:1026C000B405D8A00DD0A951AA11AB11AC11D8A452
:1026D000AED7B2BF05D0B251AAE1B105D8B0A7D7E5
:1026E000B351D8B40BD0B407D8A0B507800EB42529
:1026F000D96E080EB521DA6EB3C5DFF4A7C59EF515
:10270000A8C59FF5800EB425A06F080EB521A16F56
:10271000AFC5A2F5B0C5A3F5C0EC9BF09EC5A7F56B
:102720009FC5A8F5120099C5A1F59AC5A2F50501A6
:10273000A151A211D8A404D0E90EA16FFF0EA26F7F
:10274000000EA46F000EA36F03D00501A34BA42BB2
:10275000A351A1259B6FA451A2219C6F9BC5F6F4A8
:102760009CC5F7F4000EF86E3F0EF76403D0080026
:10277000F55005D0F6C4E9F4F7C4EAF4EF500009C7
:10278000D8A4E3D70501BABF0ED0A351B95DBA51A1
:10279000800A9B6FA451800A9B59D8B004D0B9C558
:1027A000A3F5BAC5A4F5A3C59DF5A4C59EF5B7C507
:1027B0009FF5B8C5A0F5BBA10DD035D0000E8F6F29
:1027C000200E8E6F97C590F598C591F513EC99F092
:1027D000A34BA42B9F51A35DA451800A9B6FA051D2
:1027E000800A9B59D8B01FD0E9D7A1C5F6F4A2C57D
:1027F000F7F4000EF86E3F0EF76403D00800F550B2
:1028000005D0F6C4E9F4F7C4EAF4EF5005019B6F74
:102810009B518E6F8F6B97C590F598C591F513EC12
:1028200099F0A14BA22B9D07D8A09E079D29DDE121
:102830009E29D8A4DAD7BBB10DD016D0000E8F6F69
:10284000200E8E6F97C590F598C591F513EC99F011
:10285000A34BA42B9F51A35DA451800A9B6FA05151
:10286000800A9B59D8A0EAD7A3C597F5A4C598F5C7
:1028700012000501BAAF06D0000E0601E06F010E8E
:10288000DF6F04D0B9C5DFF6BAC5E0F6B7C5DBF631
:10289000B8C5DCF6780E0501AD19D8B405D0000E28
:1028A0000601DE6F410E04D0000E0601DE6F610EE0
:1028B000DD6FDDC6DAF6000EE36F1F0EE26F080172
:1028C0009F6B39D00601E207D8A0E3070501A951A3
:1028D0000F0B0601E16F0A0EE16102D0300E02D04B
:1028E000DA51F60FE127800EE225D96E080EE321BA
:1028F000DA6EE1C6DFF4DF07D8A0E007DB07D8A077
:10290000DC07A9C5AEF5AAC5AFF5ABC5B0F5ACC53A
:10291000B1F5050E06D00501D890B133B033AF3311
:10292000AE33E82EF8D7AEC5A9F5AFC5AAF5B0C548
:10293000ABF5B1C5ACF50601E3BF15D0E35104E139
:10294000020EE25DD8A00FD00501A951AA11AB116A
:10295000AC11D8A4B7D70601E0BF05D0E051B2E171
:10296000DF05D8B0AFD7A7C59EF5A8C59FF5800EE7
:10297000E2250501A06F080E0601E3210501A16F04
:10298000DBC6A2F5DCC6A3F5C0EC9BF09EC5A7F59F
:102990009FC5A8F512000501BAAF05D0000EB06FB3
:1029A000010EAF6F04D0B9C5AFF5BAC5B0F5B7C564
:1029B000ADF5B8C5AEF5000EB26F1F0EB16F0801D0
:1029C0009F6B3ED0B107D8A0B207800EB125D96E5B
:1029D000080EB221DA6EA9C58EF5AAC58FF5ABC572
:1029E00090F5ACC591F50A0E926F000E936F000E34
:1029F000946F000E956FE8EC9DF08E51300FDF6EF6
:102A0000AF07D8A0B007AD07D8A0AE07A9C58EF50F
:102A1000AAC58FF5ABC590F5ACC591F50A0E926FBE
:102A2000000E936F000E946F000E956F8CEC9CF06F
:102A30008EC5A9F58FC5AAF590C5ABF591C5ACF5C6
:102A40000501B151B211D8B40DD0A951AA11AB11E1
:102A5000AC11D8A4B7D7B0BF05D0B051B3E1AF0522
:102A6000D8B0B0D7A7C59EF5A8C59FF5800EB125F3
:102A7000A06F080EB221A16FADC5A2F5AEC5A3F53A
:102A8000C0EC9BF09EC5A7F59FC5A8F51200E5EC2C
:102A90009AF0C29206010099009900990099009954
:102AA000009900990099009900990099009900995E
:102AB000009900990099010E1027000E112312238E
:102AC000132304C68EF505C68FF599C590F59AC5F2
:102AD00091F59BC592F50501936BDBEC9EF004C666
:102AE000D9F405C6DAF4DF50C8ECA5F006C6D9F46F
:102AF00007C6DAF4DF6E060120EE01F00651D92692
:102B00000751DA2200EE01F00451E9260551EA22CC
:102B1000EF50C8ECA5F0DF6E060120EE02F0065182
:102B2000D9260751DA2200EE02F00451E9260551B8
:102B3000EA22EF50C8ECA5F0DF6E060120EE03F0AC
:102B40000651D9260751DA2200EE03F00451E92696
:102B50000551EA22EF50C8ECA5F0DF6E060100999E
:102B6000009900990099009900990099009900999D
:102B70000099009900990099009900990099C282E2
:102B80001200E5EC9AF006010089C29000990099C4
:102B9000009900990099009900990099009900996D
:102BA000009900990099009900990099010E102749
:102BB000000E112312231323008904C68EF505C6C7
:102BC0008FF599C590F59AC591F59BC592F50501CC
:102BD000936BDBEC9EF004C6D9F405C6DAF4DF5043
:102BE000C8ECA5F006C6D9F407C6DAF4DF6E060114
:102BF00020EE01F00651D9260751DA2200EE01F04D
:102C00000451E9260551EA22EF50C8ECA5F0DF6E29
:102C1000060120EE02F00651D9260751DA2200EE15
:102C200002F00451E9260551EA22EF50C8ECA5F064
:102C3000DF6E0601009900990099009900990099AA
:102C400000990099009900990099009900990099BC
:102C50000099009900990099C28012004E0E9C6F55
:102C6000FA0E9D6F000E9F6F000E9E6F52EC8EF05D
:102C70009CC521F59DC522F59EC523F59FC524F56C
:102C80004A0E9C6FFA0E9D6F000E9F6F000E9E6F96
:102C900052EC8EF09CC521F59DC522F59EC523F50D
:102CA0009FC524F5460E996FFA0E9A6F040E9B6F1E
:102CB00047EC95F024A816D021C58EF522C58FF5D6
:102CC00023C590F524C591F572EC98F00009D8B4AD
:102CD00009D0010EBE6F010E06014227000E4323EC
:102CE0004423452321C5B2F522C5B3F523C5B4F568
:102CF00024C5B5F50501D890B533B433B333B23339
:102D0000FF0EB21506014A6FFF0E0501B31506014D
:102D10004B6FFF0E0501B41506014C6F000E050147
:102D2000B51506014D6F010E4627000E47234823B7
:102D300049231200800E745DD8A006D0000E060153
:102D4000966F4B0E956F1200770E8E6F0A0E8F6F77
:102D500071CA90FA72CA91FA745104E1020E735D5D
:102D6000D8A00AD0FF0E7325996FFF0E74219A6FB9
:102D7000000E936F000E07D0000E9A6F010E996F30
:102D8000000E936F010E926F900E0601EE6F0A0E09
:102D9000EF6F75CAF0F676CAF1F68E0EF26F0A0E74
:102DA000F36F39EC9FF0EEC68CFAEFC68DFA0A018C
:102DB00073517411D8B412008DBF1200FF0E732529
:102DC000876FFF0E7421886F87518C5D8D51800A4B
:102DD000896F8851800A8959D8A007D0FF0E7325C2
:102DE0008A6FFF0E74218B6F04D08CCA8AFA8DCA49
:102DF0008BFA8A517125D96E8B517221DA6EDF6A96
:102E00001200976B95AF0AD0951F941F931F926D78
:102E1000000E932394239523010E976F91AF0AD050
:102E2000911F901F8F1F8E6D000E8F239023912373
:102E3000010E971B000E986F000E996F000E9A6F8F
:102E4000000E9B6F9251931194119511D8B42AD012
:102E5000010E966F06D0D8909237933794379537F6
:102E6000962B95AFF8D7D890983799379A379B37E4
:102E700092518E5D93518F5994519059955191591A
:102E8000D8A009D092518E5F93518F5B9451905B83
:102E90009551915B9881D8909533943393339233C5
:102EA000962FE1D79751D8B408D09B1F9A1F991F2E
:102EB000986D000E99239A239B2398C58EF599C58A
:102EC0008FF59AC590F59BC591F51200070EC26E5D
:102ED0005A0EC16EBE6A110EBF6E020EC06ECA6A75
:102EE000C668E00EC76ED10EC86E270EC96E200EE2
:102EF0000401186FC00E106F800E086F206B006900
:102F00000F0E196F040E216F710E096F016B110EF8
:102F1000116F226B026B010E0A6F126B1A6B036941
:102F20000B6913691B69070E236F04690C69146927
:102F30001C690F0E246F0F9D0E8D0D9D000E050157
:102F40008E6F4F0E8F6F010E906FBCECA6F09E8EB1
:102F5000180E0201746F130E6A6F190E6F6F0D0E4B
:102F60006E6F310E146F200E126F350E0D6F320E14
:102F7000166F100E726F230E1F6F1A0E6D6F140EE8
:102F80006B6F1200000E966F000E956F8EC5D9F410
:102F90008FC5DAF4DEC4F6F4DDC4F7F4000EF86E83
:102FA0000800F5502A0AD8A432D08EC5D9F48FC5AE
:102FB000DAF4DE2A000EDD2290C5D9F491C5DAF4E8
:102FC000DFC492F5020EDE26DFC493F5000EDD228B
:102FD00092C5D9F493C5DAF4DEC495F5DDC496F54F
:102FE00027D00A0E9503F3C492F5F4C493F5960323
:102FF000F350932794519225956F000E9321966F6D
:103000008EC5D9F48FC5DAF4DE2A000EDD228EC516
:10301000D9F48FC5DAF4DEC4F6F4DDC4F7F4000E9B
:10302000F86E0800F550D00F946F090E9465D9D74B
:1030300095C58EF596C58FF51200976B91AF0AD0A6
:10304000911F901F8F1F8E6D000E8F239023912351
:10305000010E976F95AF08D0951F941F931F926D27
:10306000000E93239423952392519311941195115B
:10307000D8B424D0010E966F06D0D89092379337EB
:1030800094379537962B95AFF8D792518E5D935123
:103090008F599451905995519159D8A008D0925177
:1030A0008E5F93518F5B9451905B9551915BD8905B
:1030B0009533943393339233962FE7D79751D8B4FF
:1030C00008D0911F901F8F1F8E6D000E8F239023AD
:1030D00091238EC58EF58FC58FF590C590F591C55E
:1030E00091F5120005019051926F9151936F946B7D
:1030F000956B92518E1B93518F1B9451901B955140
:10310000911B8F51926F9051936F9151946F956B6A
:1031100092518E1B93518F1B9451901B9551911B73
:103120008EC592F58FC593F590C594F591C595F52B
:10313000050E05D0D8909533943393339233E82E0F
:10314000F9D792518E1B93518F1B9451901B95511F
:10315000911B0F0E8E17000E8F17901791178EC5AB
:1031600092F5960E936F690E946F922B03D094355F
:1031700094339333922FFBD7050193A102D0010E14
:103180001200000E1200976F050E0501976501D021
:10319000976B9251D8B407D02C0E9725D96EDA6A66
:1031A000060EDA22DF6A9751140DCA0EF324936FCC
:1031B000F90EF420946F2C0E9725D96EDA6A060E5C
:1031C000DA22DF50956F95519327000E942393C513
:1031D000F6F494C5F7F4000EF86E0800F5C496F501
:1031E0009751140DCA0EF3248E6FF90EF4208F6FD1
:1031F00001ECA0F02C0E9725D96EDA6A060EDA22C1
:10320000DF2ADF50936F946B8E51935D8F519459E9
:10321000D8A007D02C0E9725D96EDA6A060EDA22CE
:10322000DF6A9651120090519111D8B404D0905198
:103230009111D8A404D08E517FECA7F0120020EE9B
:1032400009F09051D9269151DA22DE50DE10D8B41F
:1032500016D020EE09F09051D9269151DA2200EED5
:1032600002F09051E9269151EA22DE50EE5CEE50D8
:10327000800A966FDE50800A9659D8B0120020EE70
:1032800002F09051D9269151DA22DEC492F5DDC4C4
:1032900093F590C5D9F491C5DAF4DEC494F5DDC494
:1032A00095F592519425D96E93519521DA6E8EC57C
:1032B000DFF420EE02F09051D9269151DA22DE2A75
:1032C000000EDD221200000E3524D96EDA6A090ED6
:1032D000DA22DF6A0201B2A715D0000E3524D96EBA
:1032E000DA6A090EDA220901DF8201D80BD0050063
:1032F000FA6E06017E51FD6E7F51FE6E8051FF6EAB
:10330000FA5012000201B2A315D0000E3524D96E76
:10331000DA6A090EDA220901DF8401D80BD0050030
:10332000FA6E06017B51FD6E7C51FE6E7D51FF6E83
:10333000FA501200000E3524D96EDA6A090EDA222C
:10334000DF50D8B40DD001D812000500FA6E060186
:103350007851FD6E7951FE6E7A51FF6EFA5012006F
:103360009FECA5F01200000E2E24D96EDA6A0B0E27
:10337000DA22DF6A0201C5A715D0000E2E24D96E0D
:10338000DA6A0B0EDA220B01DF8201D80BD00500BE
:10339000FA6E06017551FD6E7651FE6E7751FF6E25
:1033A000FA5012000201C5A315D0000E2E24D96ECA
:1033B000DA6A0B0EDA220B01DF8401D80BD005008C
:1033C000FA6E06017251FD6E7351FE6E7451FF6EFE
:1033D000FA501200000E2E24D96EDA6A0B0EDA2291
:1033E000DF50D8B40DD001D812000500FA6E0601E6
:1033F0006F51FD6E7051FE6E7151FF6EFA501200EA
:10340000ADECA5F012000501B751B811D8A405D054
:10341000B7C59DF5B8C59EF506D0FF0EB7259D6FC3
:10342000FF0EB8219E6FBBA109D099C58EF58F6B99
:1034300097C590F598C591F513EC99F09EAF04D01F
:10344000000E9E6F000E9D6F000E9C6F000E9B6F16
:103450000CD0000E8F6F200E8E6F97C590F598C51B
:1034600091F513EC99F09B4B9C2B9D519B5D9C51CE
:10347000800A9A6F9E51800A9A59D8A0EAD7BBB1A8
:1034800009D099C58EF58F6B97C590F598C591F5C4
:1034900013EC99F0010E9B25976F000E9C21986FFD
:1034A0001200A690660E05018E6F330E8F6F010E0F
:1034B000906F53ECA6F0A692AC0E8E6F480E8F6FF5
:1034C000010E906F4CECA6F00201B86BB96BBA6BB1
:1034D000BB6BBC6BBD6BB00EBE6F800EBF6FC06BA5
:1034E000820EC16F060EC26FC36BC46BC56BC66B19
:1034F0000C0E05018E6F4F0E8F6F010E906F61ECF9
:10350000A6F00A0E8E6F4F0E8F6F010E906F5AEC61
:10351000A6F0E40E8E6F4E0E8F6F010E906F68EC6A
:10352000A6F0CF6B316A306A400E2F6E2E6A2D6A7C
:103530002C6AA6801200A290C60E05018E6F320E74
:103540008F6F010E906F76ECA6F0A292820E8E6FB6
:10355000480E8F6F010E906F6FECA6F00201A56B05
:10356000A66BA76BA86BA96BAA6BB00EAB6F800E96
:10357000AC6FAD6B820EAE6F060EAF6FB06BB16B02
:10358000B26BB36B080E05018E6F4F0E8F6F010E7D
:10359000906F84ECA6F0060E8E6F4F0E8F6F010EAB
:1035A000906F7DECA6F0DE0E8E6F4E0E8F6F010ECB
:1035B000906F8BECA6F0326A386A376A400E366E2E
:1035C000356A346A336AA2801200000E0501926FD8
:1035D000000E936F000E946F000E956F17D092C57A
:1035E0008EF593C58FF594C590F595C591F50501B8
:1035F000922B000E932394239523915190112EE149
:10360000100E8E5D270E8F59D8B01200060100B73C
:10361000E6D7000E0501926F000E936F000E946FB7
:10362000000E956F17D092C58EF593C58FF594C592
:1036300090F595C591F50501922B000E93239423E7
:103640009523915190110AE1100E8E5D270E8F592E
:10365000D8B01200000187ABE6D7BF961200A69043
:10366000660E05018E6F330E8F6F010E906F53EC57
:10367000A6F0A692AC0E8E6F480E8F6F010E906F63
:103680004CECA6F00201B86BB96BBA6BBB6BBC6BB0
:10369000BD6BB00EBE6F800EBF6FC06B8A0EC16F68
:1036A000C26BC36BC46BC56BC66B0C0E05018E6F12
:1036B0004F0E8F6F010E906F61ECA6F00A0E8E6FA9
:1036C0004F0E8F6F010E906F5AECA6F0E40E8E6FC6
:1036D0004E0E8F6F010E906F68ECA6F0CF6B316AC3
:1036E000306A400E2F6E2E6A2D6A2C6AA680120058
:1036F000A290C60E8E6F320E8F6F010E906F76EC19
:10370000A6F0A292820E8E6F480E8F6F010E906F00
:103710006FECA6F00201A56BA66BA76BA86BA96B5B
:10372000AA6BB00EAB6F800EAC6FAD6B8A0EAE6F36
:10373000AF6BB06BB16BB26BB36B080E05018E6FE4
:103740004F0E8F6F010E906F84ECA6F0060E8E6FF9
:103750004F0E8F6F010E906F7DECA6F0DE0E8E6F18
:103760004E0E8F6F010E906F8BECA6F0326A386AA6
:10377000376A400E366E356A346A336AA2801200A8
:10378000BBA10AD0A0C597F5A1C598F59EC599F52E
:103790009FC59AF5E7ECA2F0A3AF04D0000EA36F8B
:1037A000000EA26F000EA66F000EA56F0CD0000ECB
:1037B0008F6F200E8E6F9EC590F59FC591F513EC0F
:1037C00099F0A54BA62BA251A55DA651800AA46F26
:1037D000A351800AA459D8A0EAD7BBB10AD0A0C58A
:1037E00097F5A1C598F59EC599F59FC59AF5E7ECA3
:1037F000A2F0A0C58EF5A1C58FF501ECA0F0A251F5
:103800008E259E6FA3518F219F6F12000301F96BCC
:10381000170EFA6FD86BFB6BD96BDA6BDB6BDC6B5B
:10382000DF6BE06BE36BE46BE56BE66BE76BEA6B1E
:10383000EB6BEC6B140EEE6FEF6B1F0EF06FF16B1A
:10384000F26BF36B010EF46F100EF56FF66BF76B06
:10385000020EF86FFC6BAF94AF96B090120E05019C
:103860008E6F4F0E8F6F010E906F09ECA7F0160E42
:103870008E6F4F0E8F6F010E906FFBECA6F0140E43
:103880008E6F4F0E8F6F010E906F02ECA7F0840EBB
:103890000301F36F1200936B91AF06D0906D911FEF
:1038A000D8B0912B010E936F8FAF06D08E6D8F1F06
:1038B000D8B08F2B010E931B000E956F000E946FE6
:1038C00090519111D8B41CD0010E926F04D0D890B1
:1038D00090379137922B91AFFAD7D890943795378C
:1038E00090518E5D91518F59D8A005D090518E5F27
:1038F00091518F5B9481D89091339033922FEDD773
:103900009351D8B404D0946D951FD8B0952B94C51D
:103910008EF595C58FF51200000E966F000E976F0D
:10392000000E986F000E996F92519311941195119A
:10393000D8B42AD0010E9A6F06D0D8909237933718
:10394000943795379A2B95AFF8D7D8909637973705
:103950009837993792518E5D93518F599451905960
:1039600095519159D8A009D092518E5F93518F5B98
:103970009451905B9551915B9681D8909533943397
:10398000933392339A2FE1D796C58EF597C58FF56D
:1039900098C590F599C591F51200020E0001E86FE7
:1039A000800EF96F000EFA6F000EFB6F080EF16FBC
:1039B000C00EF06FFD6B000EF86F010EF76F000E7A
:1039C000EF6F030EEE6FFF6BFE6BB89AB898B89E60
:1039D000B89CA88A1E0E05018E6F4F0E8F6F010EC8
:1039E000906FD1ECA6F0A8881E0E8E6F4F0E8F6FD1
:1039F000010E906FC3ECA6F0A89EA88C1E0E8E6FD1
:103A00004F0E8F6F010E906FCAECA6F0800E000172
:103A1000FC6F1200010EE86F800EF96F000EFA6F56
:103A2000000EFB6F080EF16FA00EF06F400EFD6FE1
:103A3000000EF86F010EF76F000EEF6F080EEE6FBD
:103A4000FF6BFE6BB49AB498B49EB49CA48A200E0B
:103A500005018E6F4F0E8F6F010E906FE6ECA6F092
:103A6000A488200E8E6F4F0E8F6F010E906FD8ECD2
:103A7000A6F0A49EA48C200E8E6F4F0E8F6F010EA9
:103A8000906FDFECA6F0800E0001FC6F1200E86B77
:103A9000E00E0501916F080E926F91C5F9F092C585
:103AA000FAF00001FB6B000EF16F810EF06F020E59
:103AB000FD6F000EF86F010EF76F000EEF6F010E35
:103AC000EE6F190EFF6FFE6BB09AB098B09EB09C6F
:103AD000A09AA088100E05018E6F4F0E8F6F010EF9
:103AE000906FEDECA6F0A09EA08C100E8E6F4F0E86
:103AF0008F6F010E906FF4ECA6F0C00E0001FC6F0A
:103B0000120099C58EF59AC58FF501ECA0F08E5183
:103B10009B6FE5EC9AF057ECA7F0C196140E0501E7
:103B20009B6502D0140E9B6F04C68EF505C68FF5FB
:103B300099C590F59AC591F59BC592F5936BDBEC11
:103B40009EF00001E86BFC9F9BC58EF505018F6B15
:103B50003EECA6F0000E05018F6F010E8E6F45EC56
:103B6000A6F0FC8F5AECA7F012009F6F0501C4511C
:103B7000D8A4120009D0400E03D0140E01D0540E68
:103B8000A06F10D0A06B0ED09F51000AD8B4FAD706
:103B9000010AD8B4F0D7030AD8B4EFD7010AD8B4D1
:103BA000EED7F0D7A0519C251BEC9EF0900E05019E
:103BB0008E6F010E8F6F000E906F000E916F57EC9D
:103BC000A3F09DC599F59EC59AF581EC9DF0120074
:103BD0009251931194119511D8B424D0010E966F7F
:103BE00006D0D8909237933794379537962B95AF68
:103BF000F8D792518E5D93518F59945190599551A8
:103C00009159D8A008D092518E5F93518F5B9451F7
:103C1000905B9551915BD890953394339333923365
:103C2000962FE7D78EC58EF58FC58FF590C590F589
:103C300091C591F51200966FE5EC9AF057ECA7F05C
:103C4000C19604C6D9F405C6DAF4FE0EDF6E20EE86
:103C500001F00451D9260551DA22450EDF6E20EE1F
:103C600002F00451D9260551DA2296C5DFF400018D
:103C7000E86BFC9F000E05018F6F030E8E6F3EEC0C
:103C8000A6F0000E05018F6F010E8E6F45ECA6F0B9
:103C9000FC8F5AECA7F01200C19E870E0501996FA8
:103CA000FA0E9A6F030E9B6FC1EC95F0A50E0501FD
:103CB000996F060E9A6F030E9B6FC1EC95F0840E00
:103CC0000501996FFA0E9A6F030E9B6FC1EC95F088
:103CD000810E0501996FFA0E9A6F030E9B6FC1EC6E
:103CE00095F07E0E0501996FFA0E9A6F030E9B6F89
:103CF000C1EC95F0010E1200D68A000ED6BE010E60
:103D000005018E6FD69E550E0401596FAA0E596F8C
:103D100059915F6B5E6B080E5D6F550E596FAA0E61
:103D2000596F598105018EB102D0D69E01D0D68E31
:103D30000301688B6889688D678567816489648DF4
:103D40006C8B6C896C8D6A836A81629F66836681E5
:103D5000658F71976A991200440E0501906F8E0E5F
:103D60008E5D080E8F59D8B008D08F0E8E5D080E6C
:103D70008F59D8A002D04F0E906F250E8E5D090E80
:103D80008F59D8A008D04A0E8E5D0B0E8F59D8B02F
:103D900002D0530E906F940E8E5D070E8F59D8B0DF
:103DA00008D09E0E8E5D030E8F59D8A002D04D0E06
:103DB000906F9051120090C597F591C598F58EC5FA
:103DC00095F58FC596F51DD097C5F6F498C5F7F40F
:103DD000000EF86E3F0EF76403D00800F55005D0D2
:103DE000F6C4E9F4F7C4EAF4EF500501946F974B79
:103DF000982B95C5D9F496C5DAF494C5DFF4954BA4
:103E0000962B9207D8A093079229DEE19329D8B484
:103E10001200DAD7050191690001919FB60E0501E4
:103E20008E6F140E8F6F010E906FAEECA6F054ECF7
:103E3000A7F04A0E05018E6F4E0E8F6F010E906F28
:103E4000A0ECA6F01A0E8E6F4C0E8F6F010E906FC5
:103E5000B5ECA6F002D08DC091F5000194A7FBD778
:103E600091C5AAF694979383918F000E32ECA7F038
:103E70001200F0C6FEF7F1C6FFF7000E946F000EB9
:103E8000936F13D0EEC6E4F6EFC6E5F6FE0EE66FCE
:103E9000070EE76FF2C6E8F6F3C6E9F6C7EC87F05F
:103EA0000601E4519327E5519423FEC7F6F4FFC7BA
:103EB000F7F4000EF86E0800F5500009D8A4E2D718
:103EC00093C6EEF694C6EFF612009A6F9AC591F576
:103ED000030E050191179151800DF3C492F5F4C4BE
:103EE00093F58E51030B946F956B000E9403F3C4FE
:103EF00096F5F4C497F59503F3509727020E9403B3
:103F0000F3509727FF0E9625986F0D0E9721996F06
:103F1000925198258E6F935199218F6F1200030152
:103F2000376B386B010E396F630E356FC00E346F0F
:103F3000B698345135C391F50501926B91C592F550
:103F4000916B911106019F6F050192510601A06FBF
:103F5000A688040E05018E6F4F0E8F6F010E906FB5
:103F600099ECA6F0310E0301366F1200D8C48BF520
:103F7000FAC48CF5FBC48DF51BEE2FF1B6989FC6E5
:103F800089F5A0C68AF582ECA5F006019D4B9E2B13
:103F90009E5104E1320E9D5DD8A007D006ECA5F03D
:103FA000000E06019E6F000E9D6F8DC5FBF48CC543
:103FB000FAF48BC5D8F411007CEC9EF0F8ECA5F077
:103FC00006EC9CF066EC97F0E0ECA5F00AEC9DF0B6
:103FD00047EC9DF0D4ECA5F08CECA0F001ECA4F043
:103FE000CDEC9CF041ECA7F08FEC9FF09BEC9AF0AD
:103FF00051EC9AF0BBECA5F003ECA3F0A7ECA6F013
:1040000012008EC590F58FC591F503D005018E4B3A
:104010008F2B8EC5F6F48FC5F7F4000EF86E3F0EA9
:10402000F76403D00800F55005D0F6C4E9F4F7C4EE
:10403000EAF4EF500009D8A4E9D7050190518E5D4C
:104040008E6F91518F598F6F1200000ED6BE010EE8
:10405000916F380E0001456F8FC544F08EC543F057
:1040600090C546F04151F80B0309416FD69E550E9D
:10407000426FAA0E426F408140B1FED7050191B157
:1040800002D0D69E01D0D68EF80E00014117120044
:104090000501966FE5EC9AF057ECA7F0C19604C6BF
:1040A000D9F405C6DAF496C5DFF40001E86BFC9F8D
:1040B000000E05018F6F010E8E6F3EECA6F0000E14
:1040C00005018F6F010E8E6F45ECA6F0FC8F5AEC48
:1040D000A7F01200FAC472F5FBC473F518EE5EF394
:1040E000B19E2AC519F329C518F306016051611163
:1040F0006211D8B40CD001D80AD00500FA6E605114
:10410000FD6E6151FE6E6251FF6EFA50120073C572
:10411000FBF472C5FAF41100490E1B6F850E196F7E
:10412000EE0E186F185119C391F50501926B91C5E8
:1041300092F5916B9111296E92512A6EB19EA18ECA
:104140001C0E8E6F4F0E8F6F010E906FA0ECA6F0BD
:10415000900E03011A6F1200420E05019C6FFA0EB9
:104160009D6F000E9F6F040E9E6F52EC8EF0420EFC
:104170009C6FFA0E9D6F000E9F6F040E9E6F52ECA7
:104180008EF0010E0701EA6F000EEB6F000EEC6F70
:10419000000EED6F12000501856B8551020D1C0E9E
:1041A000F324D96E060EF420DA6EDE50DE10D8B499
:1041B0000BD08551020D1C0EF324D96E060EF4208F
:1041C000DA6EDE06000EDD5A852B070E8565E5D713
:0241D0001200DB
:1041D400FAC441F5FBC442F518EE5EF3B09806014B
:1041E40069516A116B11D8B40CD001D80AD00500FA
:1041F400FA6E6951FD6E6A51FE6E6B51FF6EFA5094
:10420400120042C5FBF441C5FAF41100FAC443F5A7
:10421400FBC444F518EE5EF3B09C060166516711C9
:104224006811D8B40CD001D80AD00500FA6E6651D2
:10423400FD6E6751FE6E6851FF6EFA50120044C560
:10424400FBF443C5FAF41100FAC445F5FBC446F582
:1042540018EE5EF3AF940601FA51FB11FC11D8B4C9
:104264000CD001D80AD00500FA6EFA51FD6EFB514C
:10427400FE6EFC51FF6EFA50120046C5FBF445C5B4
:10428400FAF41100FAC447F5FBC448F518EE5EF3DE
:10429400AF960601F451F511F611D8B40CD001D83B
:1042A4000AD00500FA6EF451FD6EF551FE6EF6511A
:1042B400FF6EFA50120048C5FBF447C5FAF411002A
:1042C400FAC449F5FBC44AF518EE5EF3B090060152
:1042D400F751F811F911D8B40CD001D80AD005005F
:1042E400FA6EF751FD6EF851FE6EF951FF6EFA50F9
:1042F40012004AC5FBF449C5FAF41100FAC474F576
:10430400FBC475F518EE5EF3B49806015D515E11B9
:104314005F11D8B40CD001D80AD00500FA6E5D51F3
:10432400FD6E5E51FE6E5F51FF6EFA50120075C550
:10433400FBF474C5FAF41100FAC476F5FBC477F5FE
:1043440018EE5EF3B49A06015A515B115C11D8B4AD
:104354000CD001D80AD00500FA6E5A51FD6E5B519B
:10436400FE6E5C51FF6EFA50120077C5FBF476C501
:10437400FAF41100FAC478F5FBC479F518EE5EF38B
:10438400B49C0601575158115911D8B40CD001D816
:104394000AD00500FA6E5751FD6E5851FE6E595100
:1043A400FF6EFA50120079C5FBF478C5FAF41100D7
:1043B400FAC47AF5FBC47BF518EE5EF3B8980601EF
:1043C400545155115611D8B40CD001D80AD0050057
:1043D400FA6E5451FD6E5551FE6E5651FF6EFA50F1
:1043E40012007BC5FBF47AC5FAF41100FAC47CF51B
:1043F400FBC47DF518EE5EF3B89A060151515211D3
:104404005311D8B40CD001D80AD00500FA6E51511A
:10441400FD6E5251FE6E5351FF6EFA5012007DC56F
:10442400FBF47CC5FAF41100FAC47EF5FBC47FF5F5
:1044340018EE5EF3B89C06014E514F115011D8B4DA
:104444000CD001D80AD00500FA6E4E51FD6E4F51C2
:10445400FE6E5051FF6EFA5012007FC5FBF47EC50C
:10446400FAF41100FAC439F5FBC43AF518EE5EF318
:104474000601875188118911D8B40CD001D80AD00B
:104484000500FA6E8751FD6E8851FE6E8951FF6EEC
:0E449400FA5012003AC5FBF439C5FAF41100D3
:1044A400FAC43BF5FBC43CF518EE5EF306018A51F1
:1044B4008B118C11D8B40CD001D80AD00500FA6E37
:1044C4008A51FD6E8B51FE6E8C51FF6EFA501200B4
:0A44D4003CC5FBF43BC5FAF41100EF
:1044E000FAC43DF5FBC43EF518EE5EF306018D51AE
:1044F0008E118F11D8B40CD001D80AD00500FA6EF5
:104500008D51FD6E8E51FE6E8F51FF6EFA5012006E
:0A4510003EC5FBF43DC5FAF41100AE
:10451C00FAC43FF5FBC440F518EE5EF3060190516A
:10452C0091119211D8B40CD001D80AD00500FA6EB2
:10453C009051FD6E9151FE6E9251FF6EFA50120029
:0A454C0040C5FBF43FC5FAF411006E
:10455800FAC460F5FBC461F518EE5EF306018451F8
:1045680085118611D8B40CD001D80AD00500FA6E8E
:104578008451FD6E8551FE6E8651FF6EFA50120011
:0A45880061C5FBF460C5FAF41100F0
:10459400FAC470F5FBC471F518EE5EF3060181519F
:1045A40082118311D8B40CD001D80AD00500FA6E58
:1045B4008151FD6E8251FE6E8351FF6EFA501200DE
:1045C40071C5FBF470C5FAF41100000E9D6F000E66
:1045D4009C6F0BD09BC58EF58F6B99C590F59AC5D2
:1045E40091F513EC99F09C4B9D2B9C519725D96E1A
:1045F4009D519821DA6EDF509B6F9B51D8B4120005
:10460400E9D7916B440E926F070E936F996B966B7B
:10461400C984A384A380180E05018E6F4F0E8F6F7B
:10462400010E906FB5ECA6F01A0E8E6F4F0E8F6FC1
:10463400010E906FAEECA6F01200BFA402D0010EE2
:1046440001D0000EFF0A0501896F89478947BF50D1
:104654008919FB0B8919BF6EBF92BF96010E060123
:10466400C66F25EE90F3DE2A000EDE22DE22DE2265
:1046740012003350D8B4FDD7000E3424D96EDA6A50
:10468400090EDA22DF50326E000E3424D96EDA6A53
:104694000C0EDA22DF504B6E342A3428D8B4346A34
:1046A400A2903306A2804B501200000E926F000EAF
:1046B400936F000E946F000E956F0400010E0501B8
:1046C4009227000E93239423952392518E5D935148
:1046D4008F599451905995519159D8A01200EDD702
:1046E4004B6E3650D8B4FDD7A2B203D04BC5A3F25B
:1046F4000FD0A292400E3824D96EDA6A080EDA225C
:104704004BC5DFF4382A3F0E386401D0386A3606C8
:10471400A282120057000000000000000000000008
:104724000000000081000000000000000000000004
:10473400000000060000B0FFA4FFB0FFA4FFB0FF1C
:10474400A4FFB0FFA4FFE5EC9AF0C280C282C18648
:1047540000018785849F030E846F859B859D858FCB
:10476400859985938591030E866F8C6B070E896FEF
:10477400848F87951200E5EC9AF0C280C282C186CC
:1047840000018785849F030E846F858B858D858FBB
:10479400859985938591030E866F8C6B070E896FBF
:1047A400848F87951200926F8EC590F58FC591F511
:1047B400D8900501903791379251020D1C0EF324C5
:1047C400D96E060EF420DA6E90C5DEF491C5DDF4E0
:1047D40012008EC594F58FC595F508D094C5D9F40B
:1047E40095C5DAF490C5DFF4944B952B9207D8A0C5
:1047F40093079229F3E19329D8B41200EFD7010E5D
:104804003E6F3D6B3F6B7F0E3B6F3A6BBD96AD8643
:10481400960E05018E6F410E8F6F010E906F92EC14
:10482400A6F0C30E03013C6F1200D69E550EB46F62
:10483400AA0EB46FB491D68E010EBF6F020EB66F7E
:10484400070EBE6FD69E550EB46FAA0EB46FB48118
:10485400D68E12000601FD51FE11FF11D8B40CD002
:1048640001D80AD00500FA6EFD51FD6EFE51FE6EB0
:10487400FF51FF6EFA50120004010F9D1200400E0A
:10488400366010D0400E3724D96EDA6A080EDA2268
:10489400DF500201A36F372A3F0E376401D0376A15
:1048A400362A1200A2921200400E2F6010D0000E81
:1048B4003024D96EDA6A080EDA22DF500201B66FAC
:1048C400302A3F0E306401D0306A2F2A1200A6929B
:1048D40012002B5006010625D96E000E0721DA6E50
:1048E40080C0DFF42B2A030E2B6401D02B6A010E47
:1048F4001427000E152316231723120093C58EF5D3
:1049040094C58FF5000ED5ECA3F005D0000000008F
:10491400000000000400000E94ECA4F00009D8A4E8
:104924001200F4D70501906F040005019051020DA7
:104934001C0EF324D96E060EF420DA6EDE50DE105F
:10494400D8A402D0010E1200000E120099BF05D0A7
:1049540098C598F599C599F5120098C59AF599C521
:104964009BF59A1F9B1F9A4B9B2B9AC598F59BC549
:1049740099F51200D8C480F5FAC481F5FBC482F518
:104984001BEE2FF104010FBD2CECA4F082C5FBF447
:1049940081C5FAF480C5D8F41100E5EC9AF0C28020
:1049A400C2820001849F240E856F020E866F020E60
:0E49B4008C6F040E896F830E846F848F120047
:1049C400D8C486F5FAC487F5FBC488F51BEE2FF12D
:1049D400BD96F4ECA4F088C5FBF487C5FAF486C54B
:1049E400D8F4110006016C516D116E11D8B4120087
:1049F40001D812000500FA6E6C51FD6E6D51FE6E09
:104A04006E51FF6EFA501200635164116511D8B4EF
:104A1400120001D812000500FA6E6351FD6E645154
:104A2400FE6E6551FF6EFA5012000501916F020E81
:104A340094ECA4F00009D8B41200650080FFC0F51E
:104A440025EEE0F391C5DFF41200FF0E05018E6F31
:104A54000D0E8F6F000E916F000E906F080E936F06
:104A6400020E926FEBECA3F0120005018F6F8FC55D
:104A74008EF5030E05018E1725EEFFF1DF508E191A
:104A8400FC0B8E19DF6E12008E6F550E0001B46F91
:104A9400AA0EB46FB4918EC5B8F0550EB46FAA0EB9
:104AA400B46FB48112008E6F550E0001B46FAA0E5C
:104AB400B46FB4918EC5B7F0550EB46FAA0EB46F2F
:104AC400B48112008E6F550E0001B46FAA0EB46F3C
:104AD400B4918EC5B6F0550EB46FAA0EB46FB481FE
:104AE4001200EB510501916F906B0301EA5105012E
:104AF40090258E6F0301000E050191218F6F120026
:104B0400030136A507D036918AC535F389C534F338
:104B1400368112008AC535F389C534F31200FF0EBD
:104B24008E25906FFF0E8F21916F90C5EEF791C582
:104B3400EFF70701F06BF16B1200000E3524D96E0C
:104B4400DA6A0C0EDA22A1C2DFF4352A3528D8B489
:104B5400356A332A1200000E2E24D96EDA6A0D0E3D
:104B6400DA22B4C2DFF42E2A2E28D8B42E6A2C2AD4
:104B74001200830E0001846F240E856F030E866F6E
:104B8400020E8C6F040E896FC896120005018E6F99
:104B9400010E0001826F8EC581F0B1A0FED7000125
:104BA40080511200010E0301266F256B276B630EE3
:104BB400236F226BB1968F0E246F1200200E00011A
:104BC400AD6FAF6B010EB36F080EB16FB06BB2B1C6
:104BD4001200FDD7380E0001456F8FC544F08EC515
:104BE40043F0F80E41174081465112000001606BFA
:104BF400616B626B636B646B656B666B676B686B35
:104C040012000501976FFE0E48ECA0F005019751C4
:104C140048ECA0F01200010E0701C027000EC123CA
:104C2400C223C3230001976B1200010E0601102753
:104C3400000E1123122313230099120005018E6F15
:104C44008EC5ECF30301F38FF3811200010E06010C
:104C54001827000E19231A231B23120025EEFFF137
:104C6400DF50030B45EC8FF012000501986F05012E
:104C7400985103ECA6F012000001E86B8EC5F7F022
:104C84008FC5F8F012000001E86B8EC5EEF08FC5F9
:104C9400EFF012008EC58DF68FC58EF690C58FF697
:104CA40012008EC590F68FC591F690C592F612004B
:104CB4008EC572F68FC573F690C574F612008EC554
:104CC40075F68FC576F690C577F612008EC56FF629
:104CD4008FC570F690C571F612008EC587F68FC524
:104CE40088F690C589F612008EC58AF68FC58BF6B4
:104CF40090C58CF612008EC57BF68FC57CF690C5E8
:104D04007DF612008EC57EF68FC57FF690C580F6BF
:104D140012008EC578F68FC579F690C57AF6120022
:104D24008EC56CF68FC56DF690C56EF612008EC5F5
:104D340063F68FC564F690C565F612008EC560F6FD
:104D44008FC561F690C562F61200550E0001B46F6E
:104D5400AA0EB46FB48112008EC581F68FC582F697
:104D640090C583F612008EC584F68FC585F690C56E
:104D740086F612008EC5FDF68FC5FEF690C5FFF6C9
:104D840012008EC554F68FC555F690C556F612001E
:104D94008EC54EF68FC54FF690C550F612008EC5DF
:104DA40051F68FC552F690C553F612008EC55DF6C6
:104DB4008FC55EF690C55FF612008EC557F68FC597
:104DC40058F690C559F612008EC55AF68FC55BF693
:104DD40090C55CF612008EC569F68FC56AF690C55B
:104DE4006BF612008EC566F68FC567F690C568F639
:104DF40012008EC5F7F68FC5F8F690C5F9F61200C5
:104E04008EC5F4F68FC5F5F690C5F6F612008EC57C
:104E1400FAF68FC5FBF690C5FCF612000301F3B158
:104E240002D0010E1200000E12003650D8B402D087
:104E3400010E1200000E12003350D8B402D0010E3D
:104E44001200000E12000001919F918F94AF9451B3
:104E5400BF961200D9FFB9FFE1FFC9FFD1FFC1FF1F
:104E640005018E6F8EC5FBF31200010EE86FFC9DE9
:104E7400FC9B12000001E86BFC9DFC9B1200940E4D
:104E84007F6F400E7D6F12002AC519F329C518F3F0
:0A4E940012003B0E0301EC6F120048
:104EA00018EE5EF3BD90110003011A8F1200060187
:104EB000008712005DECA7F01200E86BFC8D120079
:104EC0007AECA7F0120003013681120069ECA7F01A
:104ED00012000301248F120018EE5EF311009FEC04
:104EE000A5F01200ADECA5F012000601009712002B
:104EF000010E12003C8F1200010104011200120089
:104F00001200120012001200120012001200120011
:104F10001200120012001200120012001200120001
:024F200012007D
:020000040020DA
:10000000FFFFFFFFFFFFFFFFFFFFFFFFFFFFFFFF00
:10001000FFFFFFFFFFFFFFFFFFFFFFFFFFFFFFFFF0
:10002000FFFFFFFFFFFFFFFFFFFFFFFFFFFFFFFFE0
:10003000FFFFFFFFFFFFFFFFFFFFFFFFFFFFFFFFD0
:020000040030CA
:10000000AFECEFD79FFFFFFFFFFEFFFFFFFFFFFFFC
:10001000FFFFFFFFFFFFFFFFFFFFFFFFFFFFFFFFF0
:03002000FFFFFFE0
:00000001FF
