:0400000085EF00F098
:1000080093749374937493749374937493746E73D6
:10001800937493744F705D70937493749374937422
:100028006B70937493749374337093744170937476
:100038009374937493749374946F93749374EC6F30
:100048001171037193749374937493749374937488
:100058003A7193742C7193743F6E93749374937480
:100068009374937493749374797087709570937480
:100078009374937493749374420093749374937405
:100088009374937493749374846F93749374937444
:100098005671487193749374420093749374937473
:1000A8009374937493749374A370B170BF709374C2
:1000B800937493749374456F937493749374937453
:1000C80093749374937493749374937493749374F0
:1000D80093749374937493749374937493749374E0
:1000E8004200937493749374937493749374937495
:1000F8008A74937493747B739374937493749374E2
:06010800FF00C6EFBAF093
:10D492000000C0C101C30302C2C60607C705C5C456
:10D4A20004CC0C0DCD0FCFCE0E0ACACB0BC9090886
:10D4B200C8D81819D91BDBDA1A1EDEDF1FDD1D1CC6
:10D4C200DC14D4D515D71716D6D21213D311D1D056
:10D4D20010F03031F133F3F23236F6F737F53534F6
:10D4E200F43CFCFD3DFF3F3EFEFA3A3BFB39F9F8C6
:10D4F2003828E8E929EB2B2AEAEE2E2FEF2DEDEC66
:10D502002CE42425E527E7E62622E2E323E1212095
:10D51200E0A06061A163A3A26266A6A767A5656495
:10D52200A46CACAD6DAF6F6EAEAA6A6BAB69A9A805
:10D532006878B8B979BB7B7ABABE7E7FBF7DBDBC45
:10D542007CB47475B577B7B67672B2B373B17170D5
:10D55200B050909151935352929656579755959435
:10D56200549C5C5D9D5F9F9E5E5A9A9B5B99595845
:10D5720098884849894B8B8A4A4E8E8F4F8D4D4CE5
:10D582008C44848545874746868242438341818015
:10D592004000C1814001C0804101C0804100C18181
:10D5A2004001C0804100C1814000C1814001C08072
:10D5B2004101C0804100C1814000C1814001C08061
:10D5C2004100C1814001C0804101C0804100C18150
:10D5D2004001C0804100C1814000C1814001C08042
:10D5E2004100C1814001C0804101C0804100C18130
:10D5F2004000C1814001C0804101C0804100C18121
:10D602004001C0804100C1814000C1814001C08011
:10D612004101C0804100C1814000C1814001C08000
:10D622004100C1814001C0804101C0804100C181EF
:10D632004000C1814001C0804101C0804100C181E0
:10D642004001C0804100C1814000C1814001C080D1
:10D652004100C1814001C0804101C0804100C181BF
:10D662004001C0804100C1814000C1814001C080B1
:10D672004101C0804100C1814000C1814001C080A0
:10D682004100C1814001C0804101C0804100C1818F
:10D692004000C0C101C30302C2C60607C705C5C414
:10D6A20004CC0C0DCD0FCFCE0E0ACACB0BC9090884
:10D6B200C8D81819D91BDBDA1A1EDEDF1FDD1D1CC4
:10D6C200DC14D4D515D71716D6D21213D311D1D054
:10D6D20010F03031F133F3F23236F6F737F53534F4
:10D6E200F43CFCFD3DFF3F3EFEFA3A3BFB39F9F8C4
:10D6F2003828E8E929EB2B2AEAEE2E2FEF2DEDEC64
:10D702002CE42425E527E7E62622E2E323E1212093
:10D71200E0A06061A163A3A26266A6A767A5656493
:10D72200A46CACAD6DAF6F6EAEAA6A6BAB69A9A803
:10D732006878B8B979BB7B7ABABE7E7FBF7DBDBC43
:10D742007CB47475B577B7B67672B2B373B17170D3
:10D75200B050909151935352929656579755959433
:10D76200549C5C5D9D5F9F9E5E5A9A9B5B99595843
:10D7720098884849894B8B8A4A4E8E8F4F8D4D4CE3
:10D782008C44848545874746868242438341818013
:10D792004000C1814001C0804101C0804100C1817F
:10D7A2004001C0804100C1814000C1814001C08070
:10D7B2004101C0804100C1814000C1814001C0805F
:10D7C2004100C1814001C0804101C0804100C1814E
:10D7D2004001C0804100C1814000C1814001C08040
:10D7E2004100C1814001C0804101C0804100C1812E
:10D7F2004000C1814001C0804101C0804100C1811F
:10D802004001C0804100C1814000C1814001C0800F
:10D812004101C0804100C1814000C1814001C080FE
:10D822004100C1814001C0804101C0804100C181ED
:10D832004000C1814001C0804101C0804100C181DE
:10D842004001C0804100C1814000C1814001C080CF
:10D852004100C1814001C0804101C0804100C181BD
:10D862004001C0804100C1814000C1814001C080AF
:10D872004101C0804100C1814000C1814001C0809E
:10D882004100C1814001C0804101C0804100C1818D
:10D892004000C0C101C30302C2C60607C705C5C412
:10D8A20004CC0C0DCD0FCFCE0E0ACACB0BC9090882
:10D8B200C8D81819D91BDBDA1A1EDEDF1FDD1D1CC2
:10D8C200DC14D4D515D71716D6D21213D311D1D052
:10D8D20010F03031F133F3F23236F6F737F53534F2
:10D8E200F43CFCFD3DFF3F3EFEFA3A3BFB39F9F8C2
:10D8F2003828E8E929EB2B2AEAEE2E2FEF2DEDEC62
:10D902002CE42425E527E7E62622E2E323E1212091
:10D91200E0A06061A163A3A26266A6A767A5656491
:10D92200A46CACAD6DAF6F6EAEAA6A6BAB69A9A801
:10D932006878B8B979BB7B7ABABE7E7FBF7DBDBC41
:10D942007CB47475B577B7B67672B2B373B17170D1
:10D95200B050909151935352929656579755959431
:10D96200549C5C5D9D5F9F9E5E5A9A9B5B99595841
:10D9720098884849894B8B8A4A4E8E8F4F8D4D4CE1
:10D982008C44848545874746868242438341818011
:10D992004000C1814001C0804101C0804100C1817D
:10D9A2004001C0804100C1814000C1814001C0806E
:10D9B2004101C0804100C1814000C1814001C0805D
:10D9C2004100C1814001C0804101C0804100C1814C
:10D9D2004001C0804100C1814000C1814001C0803E
:10D9E2004100C1814001C0804101C0804100C1812C
:10D9F2004000C1814001C0804101C0804100C1811D
:10DA02004001C0804100C1814000C1814001C0800D
:10DA12004101C0804100C1814000C1814001C080FC
:10DA22004100C1814001C0804101C0804100C181EB
:10DA32004000C1814001C0804101C0804100C181DC
:10DA42004001C0804100C1814000C1814001C080CD
:10DA52004100C1814001C0804101C0804100C181BB
:10DA62004001C0804100C1814000C1814001C080AD
:10DA72004101C0804100C1814000C1814001C0809C
:10DA82004100C1814001C0804101C0804100C1818B
:10DA92004000C0C101C30302C2C60607C705C5C410
:10DAA20004CC0C0DCD0FCFCE0E0ACACB0BC9090880
:10DAB200C8D81819D91BDBDA1A1EDEDF1FDD1D1CC0
:10DAC200DC14D4D515D71716D6D21213D311D1D050
:10DAD20010F03031F133F3F23236F6F737F53534F0
:10DAE200F43CFCFD3DFF3F3EFEFA3A3BFB39F9F8C0
:10DAF2003828E8E929EB2B2AEAEE2E2FEF2DEDEC60
:10DB02002CE42425E527E7E62622E2E323E121208F
:10DB1200E0A06061A163A3A26266A6A767A565648F
:10DB2200A46CACAD6DAF6F6EAEAA6A6BAB69A9A8FF
:10DB32006878B8B979BB7B7ABABE7E7FBF7DBDBC3F
:10DB42007CB47475B577B7B67672B2B373B17170CF
:10DB5200B05090915193535292965657975595942F
:10DB6200549C5C5D9D5F9F9E5E5A9A9B5B9959583F
:10DB720098884849894B8B8A4A4E8E8F4F8D4D4CDF
:10DB82008C4484854587474686824243834181800F
:10DB92004000C1814001C0804101C0804100C1817B
:10DBA2004001C0804100C1814000C1814001C0806C
:10DBB2004101C0804100C1814000C1814001C0805B
:10DBC2004100C1814001C0804101C0804100C1814A
:10DBD2004001C0804100C1814000C1814001C0803C
:10DBE2004100C1814001C0804101C0804100C1812A
:10DBF2004000C1814001C0804101C0804100C1811B
:10DC02004001C0804100C1814000C1814001C0800B
:10DC12004101C0804100C1814000C1814001C080FA
:10DC22004100C1814001C0804101C0804100C181E9
:10DC32004000C1814001C0804101C0804100C181DA
:10DC42004001C0804100C1814000C1814001C080CB
:10DC52004100C1814001C0804101C0804100C181B9
:10DC62004001C0804100C1814000C1814001C080AB
:10DC72004101C0804100C1814000C1814001C0809A
:10DC82004100C1814001C0804101C0804100C18189
:10DC92004000C0C101C30302C2C60607C705C5C40E
:10DCA20004CC0C0DCD0FCFCE0E0ACACB0BC909087E
:10DCB200C8D81819D91BDBDA1A1EDEDF1FDD1D1CBE
:10DCC200DC14D4D515D71716D6D21213D311D1D04E
:10DCD20010F03031F133F3F23236F6F737F53534EE
:10DCE200F43CFCFD3DFF3F3EFEFA3A3BFB39F9F8BE
:10DCF2003828E8E929EB2B2AEAEE2E2FEF2DEDEC5E
:10DD02002CE42425E527E7E62622E2E323E121208D
:10DD1200E0A06061A163A3A26266A6A767A565648D
:10DD2200A46CACAD6DAF6F6EAEAA6A6BAB69A9A8FD
:10DD32006878B8B979BB7B7ABABE7E7FBF7DBDBC3D
:10DD42007CB47475B577B7B67672B2B373B17170CD
:10DD5200B05090915193535292965657975595942D
:10DD6200549C5C5D9D5F9F9E5E5A9A9B5B9959583D
:10DD720098884849894B8B8A4A4E8E8F4F8D4D4CDD
:10DD82008C4484854587474686824243834181800D
:10DD92004000C1814001C0804101C0804100C18179
:10DDA2004001C0804100C1814000C1814001C0806A
:10DDB2004101C0804100C1814000C1814001C08059
:10DDC2004100C1814001C0804101C0804100C18148
:10DDD2004001C0804100C1814000C1814001C0803A
:10DDE2004100C1814001C0804101C0804100C18128
:10DDF2004000C1814001C0804101C0804100C18119
:10DE02004001C0804100C1814000C1814001C08009
:10DE12004101C0804100C1814000C1814001C080F8
:10DE22004100C1814001C0804101C0804100C181E7
:10DE32004000C1814001C0804101C0804100C181D8
:10DE42004001C0804100C1814000C1814001C080C9
:10DE52004100C1814001C0804101C0804100C181B7
:10DE62004001C0804100C1814000C1814001C080A9
:10DE72004101C0804100C1814000C1814001C08098
:10DE82004100C1814001C0804101C0804100C18187
:10DE92004000C0C101C30302C2C60607C705C5C40C
:10DEA20004CC0C0DCD0FCFCE0E0ACACB0BC909087C
:10DEB200C8D81819D91BDBDA1A1EDEDF1FDD1D1CBC
:10DEC200DC14D4D515D71716D6D21213D311D1D04C
:10DED20010F03031F133F3F23236F6F737F53534EC
:10DEE200F43CFCFD3DFF3F3EFEFA3A3BFB39F9F8BC
:10DEF2003828E8E929EB2B2AEAEE2E2FEF2DEDEC5C
:10DF02002CE42425E527E7E62622E2E323E121208B
:10DF1200E0A06061A163A3A26266A6A767A565648B
:10DF2200A46CACAD6DAF6F6EAEAA6A6BAB69A9A8FB
:10DF32006878B8B979BB7B7ABABE7E7FBF7DBDBC3B
:10DF42007CB47475B577B7B67672B2B373B17170CB
:10DF5200B05090915193535292965657975595942B
:10DF6200549C5C5D9D5F9F9E5E5A9A9B5B9959583B
:10DF720098884849894B8B8A4A4E8E8F4F8D4D4CDB
:10DF82008C4484854587474686824243834181800B
:10DF92004000C1814001C0804101C0804100C18177
:10DFA2004001C0804100C1814000C1814001C08068
:10DFB2004101C0804100C1814000C1814001C08057
:10DFC2004100C1814001C0804101C0804100C18146
:10DFD2004001C0804100C1814000C1814001C08038
:10DFE2004100C1814001C0804101C0804100C18126
:10DFF2004000C1814001C0804101C0804100C18117
:10E002004001C0804100C1814000C1814001C08007
:10E012004101C0804100C1814000C1814001C080F6
:10E022004100C1814001C0804101C0804100C181E5
:10E032004000C1814001C0804101C0804100C181D6
:10E042004001C0804100C1814000C1814001C080C7
:10E052004100C1814001C0804101C0804100C181B5
:10E062004001C0804100C1814000C1814001C080A7
:10E072004101C0804100C1814000C1814001C08096
:10E082004100C1814001C0804101C0804100C18185
:10E092004000C0C101C30302C2C60607C705C5C40A
:10E0A20004CC0C0DCD0FCFCE0E0ACACB0BC909087A
:10E0B200C8D81819D91BDBDA1A1EDEDF1FDD1D1CBA
:10E0C200DC14D4D515D71716D6D21213D311D1D04A
:10E0D20010F03031F133F3F23236F6F737F53534EA
:10E0E200F43CFCFD3DFF3F3EFEFA3A3BFB39F9F8BA
:10E0F2003828E8E929EB2B2AEAEE2E2FEF2DEDEC5A
:10E102002CE42425E527E7E62622E2E323E1212089
:10E11200E0A06061A163A3A26266A6A767A5656489
:10E12200A46CACAD6DAF6F6EAEAA6A6BAB69A9A8F9
:10E132006878B8B979BB7B7ABABE7E7FBF7DBDBC39
:10E142007CB47475B577B7B67672B2B373B17170C9
:10E15200B050909151935352929656579755959429
:10E16200549C5C5D9D5F9F9E5E5A9A9B5B99595839
:10E1720098884849894B8B8A4A4E8E8F4F8D4D4CD9
:10E182008C44848545874746868242438341818009
:10E192004000C1814001C0804101C0804100C18175
:10E1A2004001C0804100C1814000C1814001C08066
:10E1B2004101C0804100C1814000C1814001C08055
:10E1C2004100C1814001C0804101C0804100C18144
:10E1D2004001C0804100C1814000C1814001C08036
:10E1E2004100C1814001C0804101C0804100C18124
:10E1F2004000C1814001C0804101C0804100C18115
:10E202004001C0804100C1814000C1814001C08005
:10E212004101C0804100C1814000C1814001C080F4
:10E222004100C1814001C0804101C0804100C181E3
:10E232004000C1814001C0804101C0804100C181D4
:10E242004001C0804100C1814000C1814001C080C5
:10E252004100C1814001C0804101C0804100C181B3
:10E262004001C0804100C1814000C1814001C080A5
:10E272004101C0804100C1814000C1814001C08094
:10E282004100C1814001C0804101C0804100C18183
:10E292004000C0C101C30302C2C60607C705C5C408
:10E2A20004CC0C0DCD0FCFCE0E0ACACB0BC9090878
:10E2B200C8D81819D91BDBDA1A1EDEDF1FDD1D1CB8
:10E2C200DC14D4D515D71716D6D21213D311D1D048
:10E2D20010F03031F133F3F23236F6F737F53534E8
:10E2E200F43CFCFD3DFF3F3EFEFA3A3BFB39F9F8B8
:10E2F2003828E8E929EB2B2AEAEE2E2FEF2DEDEC58
:10E302002CE42425E527E7E62622E2E323E1212087
:10E31200E0A06061A163A3A26266A6A767A5656487
:10E32200A46CACAD6DAF6F6EAEAA6A6BAB69A9A8F7
:10E332006878B8B979BB7B7ABABE7E7FBF7DBDBC37
:10E342007CB47475B577B7B67672B2B373B17170C7
:10E35200B050909151935352929656579755959427
:10E36200549C5C5D9D5F9F9E5E5A9A9B5B99595837
:10E3720098884849894B8B8A4A4E8E8F4F8D4D4CD7
:10E382008C44848545874746868242438341818007
:10E392004000C1814001C0804101C0804100C18173
:10E3A2004001C0804100C1814000C1814001C08064
:10E3B2004101C0804100C1814000C1814001C08053
:10E3C2004100C1814001C0804101C0804100C18142
:10E3D2004001C0804100C1814000C1814001C08034
:10E3E2004100C1814001C0804101C0804100C18122
:10E3F2004000C1814001C0804101C0804100C18113
:10E402004001C0804100C1814000C1814001C08003
:10E412004101C0804100C1814000C1814001C080F2
:10E422004100C1814001C0804101C0804100C181E1
:10E432004000C1814001C0804101C0804100C181D2
:10E442004001C0804100C1814000C1814001C080C3
:10E452004100C1814001C0804101C0804100C181B1
:10E462004001C0804100C1814000C1814001C080A3
:10E472004101C0804100C1814000C1814001C08092
:10E482004100C1814001C0804101C0804100C18181
:10E492004000C0C101C30302C2C60607C705C5C406
:10E4A20004CC0C0DCD0FCFCE0E0ACACB0BC9090876
:10E4B200C8D81819D91BDBDA1A1EDEDF1FDD1D1CB6
:10E4C200DC14D4D515D71716D6D21213D311D1D046
:10E4D20010F03031F133F3F23236F6F737F53534E6
:10E4E200F43CFCFD3DFF3F3EFEFA3A3BFB39F9F8B6
:10E4F2003828E8E929EB2B2AEAEE2E2FEF2DEDEC56
:10E502002CE42425E527E7E62622E2E323E1212085
:10E51200E0A06061A163A3A26266A6A767A5656485
:10E52200A46CACAD6DAF6F6EAEAA6A6BAB69A9A8F5
:10E532006878B8B979BB7B7ABABE7E7FBF7DBDBC35
:10E542007CB47475B577B7B67672B2B373B17170C5
:10E55200B050909151935352929656579755959425
:10E56200549C5C5D9D5F9F9E5E5A9A9B5B99595835
:10E5720098884849894B8B8A4A4E8E8F4F8D4D4CD5
:10E582008C44848545874746868242438341818005
:10E592004000C1814001C0804101C0804100C18171
:10E5A2004001C0804100C1814000C1814001C08062
:10E5B2004101C0804100C1814000C1814001C08051
:10E5C2004100C1814001C0804101C0804100C18140
:10E5D2004001C0804100C1814000C1814001C08032
:10E5E2004100C1814001C0804101C0804100C18120
:10E5F2004000C1814001C0804101C0804100C18111
:10E602004001C0804100C1814000C1814001C08001
:10E612004101C0804100C1814000C1814001C080F0
:10E622004100C1814001C0804101C0804100C181DF
:10E632004000C1814001C0804101C0804100C181D0
:10E642004001C0804100C1814000C1814001C080C1
:10E652004100C1814001C0804101C0804100C181AF
:10E662004001C0804100C1814000C1814001C080A1
:10E672004101C0804100C1814000C1814001C08090
:10E682004100C1814001C0804101C0804100C1817F
:10E692004000C0C101C30302C2C60607C705C5C404
:10E6A20004CC0C0DCD0FCFCE0E0ACACB0BC9090874
:10E6B200C8D81819D91BDBDA1A1EDEDF1FDD1D1CB4
:10E6C200DC14D4D515D71716D6D21213D311D1D044
:10E6D20010F03031F133F3F23236F6F737F53534E4
:10E6E200F43CFCFD3DFF3F3EFEFA3A3BFB39F9F8B4
:10E6F2003828E8E929EB2B2AEAEE2E2FEF2DEDEC54
:10E702002CE42425E527E7E62622E2E323E1212083
:10E71200E0A06061A163A3A26266A6A767A5656483
:10E72200A46CACAD6DAF6F6EAEAA6A6BAB69A9A8F3
:10E732006878B8B979BB7B7ABABE7E7FBF7DBDBC33
:10E742007CB47475B577B7B67672B2B373B17170C3
:10E75200B050909151935352929656579755959423
:10E76200549C5C5D9D5F9F9E5E5A9A9B5B99595833
:10E7720098884849894B8B8A4A4E8E8F4F8D4D4CD3
:10E782008C44848545874746868242438341818003
:10E792004000C1814001C0804101C0804100C1816F
:10E7A2004001C0804100C1814000C1814001C08060
:10E7B2004101C0804100C1814000C1814001C0804F
:10E7C2004100C1814001C0804101C0804100C1813E
:10E7D2004001C0804100C1814000C1814001C08030
:10E7E2004100C1814001C0804101C0804100C1811E
:10E7F2004000C1814001C0804101C0804100C1810F
:10E802004001C0804100C1814000C1814001C080FF
:10E812004101C0804100C1814000C1814001C080EE
:10E822004100C1814001C0804101C0804100C181DD
:10E832004000C1814001C0804101C0804100C181CE
:10E842004001C0804100C1814000C1814001C080BF
:10E852004100C1814001C0804101C0804100C181AD
:10E862004001C0804100C1814000C1814001C0809F
:10E872004101C0804100C1814000C1814001C0808E
:10E882004100C1814001C0804101C0804100C1817D
:10E892004000C0C101C30302C2C60607C705C5C402
:10E8A20004CC0C0DCD0FCFCE0E0ACACB0BC9090872
:10E8B200C8D81819D91BDBDA1A1EDEDF1FDD1D1CB2
:10E8C200DC14D4D515D71716D6D21213D311D1D042
:10E8D20010F03031F133F3F23236F6F737F53534E2
:10E8E200F43CFCFD3DFF3F3EFEFA3A3BFB39F9F8B2
:10E8F2003828E8E929EB2B2AEAEE2E2FEF2DEDEC52
:10E902002CE42425E527E7E62622E2E323E1212081
:10E91200E0A06061A163A3A26266A6A767A5656481
:10E92200A46CACAD6DAF6F6EAEAA6A6BAB69A9A8F1
:10E932006878B8B979BB7B7ABABE7E7FBF7DBDBC31
:10E942007CB47475B577B7B67672B2B373B17170C1
:10E95200B050909151935352929656579755959421
:10E96200549C5C5D9D5F9F9E5E5A9A9B5B99595831
:10E9720098884849894B8B8A4A4E8E8F4F8D4D4CD1
:10E982008C44848545874746868242438341818001
:10E992004000C1814001C0804101C0804100C1816D
:10E9A2004001C0804100C1814000C1814001C0805E
:10E9B2004101C0804100C1814000C1814001C0804D
:10E9C2004100C1814001C0804101C0804100C1813C
:10E9D2004001C0804100C1814000C1814001C0802E
:10E9E2004100C1814001C0804101C0804100C1811C
:10E9F2004000C1814001C0804101C0804100C1810D
:10EA02004001C0804100C1814000C1814001C080FD
:10EA12004101C0804100C1814000C1814001C080EC
:10EA22004100C1814001C0804101C0804100C181DB
:10EA32004000C1814001C0804101C0804100C181CC
:10EA42004001C0804100C1814000C1814001C080BD
:10EA52004100C1814001C0804101C0804100C181AB
:10EA62004001C0804100C1814000C1814001C0809D
:10EA72004101C0804100C1814000C1814001C0808C
:10EA82004100C1814001C0804101C0804100C1817B
:10EA92004000C0C101C30302C2C60607C705C5C400
:10EAA20004CC0C0DCD0FCFCE0E0ACACB0BC9090870
:10EAB200C8D81819D91BDBDA1A1EDEDF1FDD1D1CB0
:10EAC200DC14D4D515D71716D6D21213D311D1D040
:10EAD20010F03031F133F3F23236F6F737F53534E0
:10EAE200F43CFCFD3DFF3F3EFEFA3A3BFB39F9F8B0
:10EAF2003828E8E929EB2B2AEAEE2E2FEF2DEDEC50
:10EB02002CE42425E527E7E62622E2E323E121207F
:10EB1200E0A06061A163A3A26266A6A767A565647F
:10EB2200A46CACAD6DAF6F6EAEAA6A6BAB69A9A8EF
:10EB32006878B8B979BB7B7ABABE7E7FBF7DBDBC2F
:10EB42007CB47475B577B7B67672B2B373B17170BF
:10EB5200B05090915193535292965657975595941F
:10EB6200549C5C5D9D5F9F9E5E5A9A9B5B9959582F
:10EB720098884849894B8B8A4A4E8E8F4F8D4D4CCF
:10EB82008C448485458747468682424383418180FF
:10EB92004000C1814001C0804101C0804100C1816B
:10EBA2004001C0804100C1814000C1814001C0805C
:10EBB2004101C0804100C1814000C1814001C0804B
:10EBC2004100C1814001C0804101C0804100C1813A
:10EBD2004001C0804100C1814000C1814001C0802C
:10EBE2004100C1814001C0804101C0804100C1811A
:10EBF2004000C1814001C0804101C0804100C1810B
:10EC02004001C0804100C1814000C1814001C080FB
:10EC12004101C0804100C1814000C1814001C080EA
:10EC22004100C1814001C0804101C0804100C181D9
:10EC32004000C1814001C0804101C0804100C181CA
:10EC42004001C0804100C1814000C1814001C080BB
:10EC52004100C1814001C0804101C0804100C181A9
:10EC62004001C0804100C1814000C1814001C0809B
:10EC72004101C0804100C1814000C1814001C0808A
:10EC82004100C1814001C0804101C0804100C18179
:10EC9200400103000000000000000000000000002E
:10ECA2000000000000000000000000000000000062
:10ECB2000000000000000000000000000000000052
:10ECC2000000000000000000000000000000000042
:10ECD2000000000000000000000000000000000032
:10ECE2000000000000000000000000000000000022
:10ECF2000000000000000000000000000000000012
:10ED02000000000000000000000000000000000001
:10ED120000000000000001030000000000000000ED
:10ED220000000000000000000000000000000000E1
:10ED320000000000000000000000000000000000D1
:10ED420000000000000000000000000000000000C1
:10ED520000000000000000000000000000000000B1
:10ED620000000000000000000000000000000000A1
:10ED72000000000000000000000000000000000091
:10ED820000000025732025642025732020202020E8
:10ED92002020202020202020202020202020202071
:10EDA2002020202020202020202020202020202061
:10EDB20020004F4E4C494E45204125642C205225BF
:10EDC2006420524625642C20542564205446256430
:10EDD2002C20432564202564202573202020202018
:10EDE20000486F7374204125642C20522564205200
:10EDF2004625642C2054256420544625642C204347
:10EE02002564202564202573202020202020200036
:10EE1200554E4B20464F524D4154204125642C20E3
:10EE220052256420524625642C20542564205446E1
:10EE320025642C204325642025732020200025737F
:10EE42002025732020202020202020202020202068
:10EE520020202020202020202020202020202020B0
:10EE62002020202020202020002573202573202010
:10EE72002020202020202020202020202020202090
:10EE82002020202020202020202020202020202080
:10EE92000056332E303120464D783020696E74652D
:10EEA200726661636520513834004F66666C696E24
:10EEB20065000000000043414E425553000000002F
:10EEC200000001030000000000000000000000003C
:10EED20000000000000000000103000000D6000056
:10EEE2000001000000DA00000103000000D600006B
:10EEF2000000000000D9001F1E1F1E1F1F1E1F1E24
:10EF02001F1F1D0106000000000000010600000096
:10EF120000000001060000000000000103000000E4
:10EF2200000001030000000000832003040000240D
:10EF32000100018324030400CD0C0543E561214057
:10EF420000000000CD0C0543E56121408FC28042E4
:10EF5200CFB780421FC58042CFB780429A995E42A6
:10EF620066665E42E590584289C1584273488042C3
:10EF7200C5608042FC898042FC8980421F858042B4
:10EF82001F85804200000000CD0C0543E561214051
:10EF92008FC28042CFB780421FC58042CFB7804226
:10EFA2009A995E4266665E42E590584289C158422D
:10EFB20073488042C5608042FC898042FC8980425D
:10EFC2001F8580421F85804200000000CD0C054352
:10EFD200E56121408FC28042CFB780421FC5804287
:10EFE200CFB780429A995E4266665E42E590584289
:10EFF20089C1584273488042C5608042FC89804280
:10F00200FC8980421F8580421F85804200000000EB
:10F01200BC000000BA7FFFFEC80080003400000080
:10F02200CD0C0543E56121408FC28042CFB78042BB
:10F032001FC58042CFB780429A995E4266665E42A1
:10F04200E590584289C1584273488042C560804267
:10F05200FC898042FC8980421F8580421F85804254
:10F0620000000000CD0C0543E56121408FC28042C3
:10F07200CFB780421FC58042CFB780429A995E4285
:10F0820066665E42E590584289C1584273488042A2
:10F09200C5608042FC898042FC8980421F85804293
:10F0A2001F85804200000000CD0C0543E561214030
:10F0B2008FC28042CFB780421FC58042CFB7804205
:10F0C2009A995E4266665E42E590584289C158420C
:10F0D20073488042C5608042FC898042FC8980423C
:10F0E2001F8580421F85804200000000CD0C054331
:10F0F200E56121408FC28042CFB780421FC5804266
:10F10200CFB780429A995E4266665E42E590584267
:10F1120089C1584273488042C5608042FC8980425E
:10F12200FC8980421F8580421F85804200000000CA
:10F13200CD0C0543E56121408FC28042CFB78042AA
:10F142001FC58042CFB780429A995E4266665E4290
:10F15200E590584289C1584273488042C560804256
:10F16200FC898042FC8980421F8580421F85804243
:10F1720000000000CD0C0543E56121408FC28042B2
:10F18200CFB780421FC58042CFB780429A995E4274
:10F1920066665E42E590584289C158427348804291
:10F1A200C5608042FC898042FC8980421F85804282
:10F1B2001F858042000000008FC28042CFB780428C
:10F1C2001FC58042CFB780429A995E4266665E4210
:10F1D200E590584289C1584273488042C5608042D6
:10F1E200FC898042FC898042180000B004DC05F4EE
:10F1F200016400DC0564001027B80B307505990422
:10F20200990399B004DC05F4016400DC0564001084
:10F2120027B80B059904990399B004DC05F401643D
:10F2220000DC0564001027B80B059904990399B016
:10F2320004DC05F4016400DC0564001027B80B054A
:10F242009904990399B004DC05F4016400DC0564B7
:10F25200001027B80B059904990399B004DC05F452
:10F26200016400DC0564001027B80BB004DC05F46F
:10F27200016400DC0564001027B80B0599049903AA
:10F2820099B004DC05F4016400DC0564001027B8C1
:10F292000BB004DC05F4016400DC0564001027B83F
:10F2A2000B3075059904990399B004DC05F40164E7
:10F2B20000DC0564001027B80B3075E8FF3C002322
:10F2C20000059904990399B004DC05F4016400DC9B
:10F2D2000564001027B80B465A2D01204601FF0095
:10F2E2000228040228C80102FF000228040228C8DA
:10F2F20001028003C8010707070707070740400FFD
:10F30200F001050F67FF4010F0E0D0C0B0A0908080
:10F3120000465A2D01204601FF000228040228C897
:10F3220001020707070707070740400FF001050F13
:10F3320067FF4010F0E0D0C0B0A0908000465A2D88
:10F3420001204601FF000228040228C80102070723
:10F35200070707070740400FF001050F67FF40103E
:10F36200F0E0D0C0B0A0908000465A2D01204601A6
:10F37200FF000228040228C801020707070707073F
:10F382000740400FF001050F67FF4010F0E0D0C0CA
:10F39200B0A0908000465A2D01204601FF000228AD
:10F3A200040228C801020707070707070740400FA2
:10F3B200F001050F67FF4010F0E0D0C0B0A09080D0
:10F3C20000465A2D01204601FF000228040228C8E7
:10F3D2000102465A2D01204601FF0002280402289C
:10F3E200C801020707070707070740400FF001059A
:10F3F2000F67FF4010F0E0D0C0B0A0908000465AE6
:10F402002D01204601FF000228040228C8010246FD
:10F412005A2D01204601FF000228040228C80102D9
:10F422008003C8010707070707070740400FF001DD
:10F43200050F67FF4010F0E0D0C0B0A090800046FA
:10F442005A2D01204601FF000228040228C80102A9
:10F452008003C8010707070707070740400FF001AD
:10F46200050F67FF4010F0E0D0C0B0A090800046CA
:10F472005A2D01204601FF000228040228C8010279
:10F482005E2C25642C25332E32662C25332E3266D3
:10F492002C25332E32662C25332E32662C25332E24
:10F4A20032662C25332E32662C25332E32662C25DD
:10F4B200332E32662C25642E253031642C25642EA1
:10F4C200253031642C25642E253031642C25642CA2
:10F4D20025642C25642C25642C25642C256C6C75E4
:10F4E2002C25372E34662C25372E34662C25362EC5
:10F4F20034662C25372E34662C313935372C7E452F
:10F502004F54202020202020202020202020202096
:10F5120020202020202020202020202020202020E9
:10F5220020202020202020202020202020202020D9
:10F53200202020200D0A005E2C25642C25332E323B
:10F54200662C25332E32662C25332E32662C25333B
:10F552002E32662C25332E32662C25332E32662C23
:10F5620025332E32662C25332E32662C25642E2529
:10F572003031642C25642E253031642C25642E25EF
:10F582003031642C25642C25642C25642C25642CB4
:10F5920025642C256C6C752C25372E34662C25376A
:10F5A2002E34662C25362E34662C25372E34662CC6
:10F5B200313935372C7E454F542020202020202001
:10F5C2002020202020202020202020202020202039
:10F5D2002020202020202020202020202020202029
:10F5E20020202020202020202020200D0A005E2C18
:10F5F20025642C25332E32662C25332E32662C259B
:10F60200332E32662C25332E32662C25332E32666B
:10F612002C25332E32662C25332E32662C25332EA2
:10F6220032662C25642E253031642C25642E25303B
:10F6320031642C25642E253031642C25642C2564FC
:10F642002C25642C25642C25642C256C6C752C25AA
:10F65200362E34662C25362E34662C25362E34660C
:10F662002C25362E34662C313935372C7E454F54B5
:10F672002020202020202020202020202020202088
:10F682002020202020202020202020202020202078
:10F692002020202020202020202020202020202068
:10F6A20020200D0A005E2C25642C25332E32662C78
:10F6B20025332E32662C25332E32662C25332E32FC
:10F6C200662C25332E32662C25332E32662C2533BA
:10F6D2002E32662C25332E32662C25642E253031AF
:10F6E200642C25642E253031642C25642E2530317E
:10F6F200642C25642C25642C25642C25642C25641B
:10F702002C256C6C752C25362E33662C25362E3323
:10F71200662C25362E33662C25362E33662C31394F
:10F7220035372C7E454F54202020202020202020B9
:10F7320020202020202020202020202020202020C7
:10F7420020202020202020202020202020202020B7
:10F752002020202020202020200D0A007C7C2F2F1A
:10F762002D2D00000000000000000000000000003D
:10F772007C7C2F2F2D2D5C5C00000000000000001F
:10F78200000000004F4F4F4F4F4F2D2D5F5F2D0058
:10F79200000000000000000076763C3C5E5E3E3ECB
:10F7A2000000000000000000000000002E2E2A2AA7
:10F7B2007823782358587C7C2D2D0000000000000F
:10F7C2002E2E6F6F4F4F6F6F000000000000000081
:10F7D20000000000536C656570000000000000002E
:10F7E200466C6F61740000000000000042756C6B93
:10F7F20000000000000000004162736F72620000AE
:10F8020000000000457175616C697A6500000000B6
:10F812004E2F412000000000000000004F66666C81
:10F82200696E650000000000454D3534300000006F
:10F83200000000004F66666C696E65000000000003
:10F84200464D783000000000000000000001030077
:10F85200400002000000010000004600000102001A
:10F862000000040000000000000006000001020089
:10F87200000003000000000000000500000102007B
:10F88200000002000000000000000400000102006D
:10F892000000000000000000000002000001020061
:10F8A20001006A000000000000006D00000102007B
:10F8B2000100C700000000000000CA0000010200B1
:10F8C200000008000000000000000A000001020021
:10F8D2000100C600000000000000C9000001040091
:10F8E200000001000000000000000500000102000D
:10F8F2000100C800000000000000CB00000102006F
:10F9020000000000000000000000020001061604D2
:10F9120000050106100000000106100200000103AC
:10F9220050000008010305000040010300000034FC
:10F932000103030200010103000B00018FC2804298
:10F94200CFB780421FC58042CFB780429A995E42AC
:10F9520066665E42E590584289C1584273488042C9
:10F96200C5608042FC898042FC8980421F858042BA
:10F972001F858042B4000002040000000200000162
:10F982000A000001C77FFFFFC57FFFFFB400100020
:10F99200B77FFFFFB8000001C2000000E4000001D1
:10F9A200CD0C0543E56121401F8580421F858042C1
:10F9B200000000000400000CFFFF0B000010FFFF1E
:10F9C20040F7424D4320256C7520203058252E32B9
:10F9D20058202020202020202020202020202020ED
:10F9E2002020202020202020202020202020002530
:10F9F200322E31664B576820666C6F617420253356
:10FA02002E31664820202020202020202020202067
:10FA12002020202020202020202020000D2D2D2DF0
:10FA22002054494331323430302044726976657251
:10FA32002056657273696F6E202573202573202509
:10FA420073202D2D2D0D0A000D2D2D2D204D43330C
:10FA5200333939362044726976657220566572737D
:10FA6200696F6E202573202573202573202D2D2D7F
:10FA72000D0A004241542025642E2530316456205F
:10FA820050562025642E2530316456202020202017
:10FA9200202020202020202020202020003420256B
:10FAA200362E3366562C352025362E3366562020C8
:10FAB2002020202020202020202020202020202044
:10FAC2002020202000426D61782025755620426D4D
:10FAD200696E2025755620202020202020202020FD
:10FAE20020202020202020202020202000424D43C2
:10FAF20020256C752020202020202020202020205E
:10FB020020202020202020202020202020202020F3
:10FB1200202020004F4620256C752045525220257A
:10FB22006C75202020202020202020202020202032
:10FB3200202020202020202020200020256C6C580E
:10FB42002052756E20446973706C6179203058259B
:10FB52002E3258202020202020202020202020204B
:10FB6200004A616E4665624D61724170724D617903
:10FB72004A756E4A756C4175675365704F63744E72
:10FB82006F7644656300256C64562025332E3266F9
:10FB92004120202020202020202020202020202042
:10FBA200202020202020202020002573205665724E
:10FBB20020257320202020202020202020202020EB
:10FBC20020202020202020202020002573202573A3
:10FBD2002025642E253031644120256441202020D7
:10FBE200202020202020202020202000204D65736E
:10FBF2006720256420537461636B202564202020D4
:10FC02002020202020202020202020004D55492087
:10FC1200256C6C5820504943202558202020202054
:10FC22002020202020202020202020002054657227
:10FC32006D696E616C20496E666F20202020202045
:10FC42002020202020202020200025732025732022
:10FC520020202020202020202020202020202020A2
:10FC620020202020202000256C645720256C64561B
:10FC720041202564504620202020202020202020C2
:10FC8200202020002048454C502053637265656E49
:10FC92003A2025642020202020202020202020001F
:10FCA20025732020202020202020202020202020FA
:10FCB2002020202020202020202020002573202505
:10FCC2006C645641432025332E3266412020202089
:10FCD200202020202020200020506F7274204C6FA2
:10FCE200636B202325642020202020202020202038
:10FCF200202000205465726D696E616C202564209D
:10FD02002020202020202020202020200020434DC1
:10FD120044202563202563204C656E202564202025
:10FD220020202020202000202563504920444151DA
:10FD32005F424D43202573202020202020202000D8
:10FD420048454C50202573202020202020202020B0
:10FD52002020202020202000204F70656E204C4C57
:10FD620020202020202020202020202020202000B1
:10FD72002050756D70204C4C202020202020202007
:10FD82002020202020202000205265616479204C10
:10FD92004C20202020202020202020202020200055
:10FDA2002053324634312023256320202020202076
:10FDB2002020202020202000444953504C4159202B
:10FDC20025732020202020202020202020202000F9
:10FDD2002053746F72656420232564202020202024
:10FDE2002020202020202000767465726D20257846
:10FDF2003A257820202020202020202020202000AA
:10FE02002053455155454E4345202564202020204E
:10FE1200202020202020200020446973706C61790A
:10FE2200206E756D202564202020202020202000B7
:10FE320020532564462564206C6F672020202025EE
:10FE42006420202020202000204C6F61642D6C6FE4
:10FE5200636B206E756D20256420202020202000F9
:10FE62002025732020202020202020202020202038
:10FE72002020202020200020494E464F20202020F4
:10FE8200202020202020202020202020200020565A
:10FE92005445524D20494E464F20202020202020FC
:10FEA200202020200020565445524D2048454C50D9
:10FEB2002020202020202020202020002056657293
:10FEC20073696F6E2025732020202020202020209F
:10FED20020200020257320416C6C20446576202070
:10FEE200202020202020202020002048454C502087
:10FEF2004275696C64202573202020202020202058
:10FF02000020257320416E616C6F67204465762066
:10FF1200202020202020200053756E4D6F6E5475D6
:10FF22006557656454687546726953617400484543
:10FF32004C5020257320202020202020202020200B
:10FF420020202000506F7274202573202020202052
:10FF52002020202020202020002573202020202067
:10FF6200202020202020202020202020004C6F63F1
:10FF72006B65642031313532303062707300466512
:10FF82006220203520323032360031343A33373A6B
:10FF9200333800434F4D4D202020004552524F52DE
:10FFA2002020004F4E4C494E45200052454D4F54A3
:10FFB20045200044495341424C45004F46464C4976
:10FFC2004E4500286E756C6C290056302E35320075
:10FFD20034375138340035375138340056302E37E3
:10FFE2000056302E3800494E46004E414E00696E92
:0EFFF20066006E616E00474D540025730000DE
:020000040001F9
:1000000000019451D8BC05D0010E0501FB6F210EF3
:10001000F06F0AECDBF09F9422ECE9F0D68ED68CE0
:10002000BF82BF84BF866FECE4F00EECE6F0000EFA
:100030006100A2F3F3F122EED3F1070EDE6AE806C7
:10004000FDE20601F36BF351020DF3C4DAF6F4C4DA
:10005000DBF6000EDBBFFF0EDC6FDD6F000EDA2576
:1000600005017E6F000E0601DB2105017F6F2C0E5E
:100070000601DC210501806F9FECD3F00601F351EE
:10008000020DA30EF324D96E090EF420DA6E0501D9
:100090007EC5DEF47FC5DDF40601F351020DA30E2B
:1000A000F324D96E090EF420DA6EDEC4DAF6DDC46C
:1000B000DBF6DA510901D3270601DB510901D4230C
:1000C000000ED523000ED623000ED723000ED82312
:1000D000000ED923000EDA230601F32B080EF36578
:1000E000B2D7D3C953F8D4C954F8D5C955F8D6C92D
:1000F00056F8D7C957F8D8C958F8D9C959F8DAC93C
:100100005AF8FC0E05017E6FFF0E7F6F3F0E806F69
:100110009FECD3F07EC551F87FC552F8FE0E7E6F7E
:10012000FF0E7F6F3F0E806F9FECD3F07EC54FF8C0
:100130007FC550F8050E08014F1904E1990E5019BA
:10014000D8B42ED0040E4F1906E1990E5019D8A438
:1001500002D04C8525D04C69000E526F5169FF0EBC
:10016000536F000E546F000E556F000E566F000E49
:10017000576F000E586F000E596F000E5A6FFF0E2A
:100180000901D36FFF0ED46FFF0ED56FFF0ED66F30
:10019000000ED76F000ED86F000ED96F000EDA6F09
:1001A00053C87EF554C87FF555C880F556C881F50B
:1001B00057C882F558C883F559C884F55AC885F5DB
:1001C0004AECC0F0AA0E05017E6FC70E7F6F010ECC
:1001D000806FAEECE7F02AECDEF005017F6B140EC9
:1001E0007E6F090EECECE3F04E0E7F6F200E7E6FFB
:1001F0000C0EECECE3F022EED3F1FF0EDE1409015D
:10020000D36FFF0EDE14D46FFF0EDE14D56FFF0E1A
:10021000DE14D66F000EDE14D76F000EDE14D86F1A
:10022000000EDE14D96F000EDE14DA6FF9ECE8F080
:100230007A0E05017E6FC40E7F6F010E806F09EC90
:10024000E8F0F6ECE8F0F3ECE8F0660E05017E6FFE
:10025000960E7F6F010E806F02ECE8F02C0E7E6F21
:10026000D20E7F6F010E806F25ECE8F002ECE9F012
:10027000A20E05017E6FD10E7F6F010E806F1EEC06
:10028000E8F0FFECE8F06F0E0601F16FFF0EF26F81
:1002900034ECD4F00501846B640E836F3DECE5F023
:1002A000BF94BF92BF9620ECE9F008014CB5F3EF84
:1002B00085F0C20E0501B66F0A0EB76F35ECA5F0DA
:1002C00021D1FE0E05018C6FF80E8D6F38ECDDF03C
:1002D000000E0501CE6FBB0ECF6F010ED06F050E65
:1002E000D16FBAECCBF03DD109019451D8A413D011
:1002F000EE0E05018C6FF80E8D6F38ECDDF0860E7A
:100300000501CE6F990ECF6F010ED06F050ED16F24
:10031000BAECCBF026D14E0E05018C6FF80E8D6F26
:1003200038ECDDF01C0E0501CE6FD20ECF6F010E42
:10033000D06F050ED16FBAECCBF013D1CE0E050104
:100340008C6FF80E8D6F38ECDDF0BC0E0501CE6FB2
:10035000D10ECF6F010ED06F050ED16FBAECCBF07E
:1003600000D1BE0E05018C6FF80E8D6F38ECDDF0FC
:10037000020E0501CE6FCA0ECF6F010ED06F050EB3
:10038000D16FBAECCBF0EDD0AE0E05018C6FF80E4C
:100390008D6F38ECDDF0DA0E0501CE6FC90ECF6F30
:1003A000010ED06F050ED16FBAECCBF0DAD09E0EF5
:1003B00005018C6FF80E8D6F38ECDDF06A0E0501CB
:1003C000CE6FC30ECF6F010ED06F050ED16FBAEC9A
:1003D000CBF0C7D0DE0E05018C6FF80E8D6F38ECB8
:1003E000DDF07E0E0501CE6F980ECF6F010ED06F3F
:1003F000100ED16FBAECCBF0B4D07E0E8C6FF80E2D
:100400008D6F38ECDDF08E0E0501CE6FC50ECF6F0F
:10041000010ED06F050ED16FBAECCBF0A2D06E0EEC
:100420008C6FF80E8D6F38ECDDF0EDD75E0E8C6FB3
:10043000F80E8D6F38ECDDF08E0E0501CE6FC50E17
:10044000CF6F010ED06F050ED16FBAECCBF0050166
:10045000FD6B87D00501FD51000AD8B4CED7010A43
:10046000D8B4DDD7030AD8B4E1D7F1D7EF0E050130
:100470008C6F0A0E8D6F38ECDDF00A0E0501CE6F21
:10048000730ECF6F010ED06F110ED16FBAECCBF09F
:1004900068D0EC0E05018C6F0C0E8D6F38ECDDF022
:1004A000B60E0501CE6FD10ECF6F010ED06F050EC7
:1004B000D16FBAECCBF055D0DC0E05018C6F0C0E71
:1004C0008D6F38ECDDF0B00E0501CE6FD10ECF6F21
:1004D000010ED06F050ED16FBAECCBF042D08E0E6C
:1004E00005018C6FF80E8D6F38ECDDF0340E0501D0
:1004F000CE6FC30ECF6F010ED06F050ED16FBAEC69
:10050000CBF02FD00501FC510601DA6FDB6BDB511C
:10051000000AD8A4D6D6DA51000AD8B4D2D6010A35
:10052000D8B4E2D6030AD8B409D7010AD8B419D787
:10053000070AD8B429D7010AD8B439D7030AD8B4DE
:1005400089D7010AD8B4A5D70F0AD8B4B5D7010AFC
:10055000D8B48CD7030AD8B4C2D7010AD8B43AD7D2
:10056000B0D60C0E50ECE5F00009D8B43CD3750EB3
:100570007F6F300E7E6F0C0EECECE3F00901946B94
:1005800032D31BECC6F00C0EA3ECE8F028EED7F348
:10059000DF50FFECE5F0000E7E6F000E90ECDBF01C
:1005A0007EC553F67FC554F60601566B150E556F82
:1005B000460E576FFF0E586FF1C659F6F2C65AF63F
:1005C00013ECCEF0000E05017E6F010E90ECDBF017
:1005D0007EC553F67FC554F60601566B150E556F52
:1005E000460E576FFF0E586FF1C659F6F2C65AF60F
:1005F00013ECCEF0000E05017E6F020E90ECDBF0E6
:100600007EC553F67FC554F60601566B150E556F21
:10061000460E576FFF0E586FF1C659F6F2C65AF6DE
:1006200013ECCEF0000E05017E6F030E90ECDBF0B4
:100630007EC553F67FC554F60601566B150E556FF1
:10064000460E576FFF0E586FF1C659F6F2C65AF6AE
:1006500013ECCEF08BECE7F00501FB51D8B407D0DA
:10066000050E846FDC0E836F3DECE5F005D0846BE6
:10067000640E836F3DECE5F05FECE3F0A4ECDCF09E
:1006800097ECB1F00009D8A413D0010E6100A2F3D9
:10069000F9F3000E6100A2F3FAF3000E6100A2F379
:1006A000FBF3000E6100A2F3FCF3010E506E4C81CF
:1006B00077ECE3F007ECD3F00009D8A414D0010ED6
:1006C0006100A2F3FDF3000E6100A2F3FEF3000E41
:1006D0006100A2F3FFF3000E6100A2F300F4010E2B
:1006E000506E08014C83C9ECDCF075ECE5F0010EAE
:1006F0006100A2F3F3F1070E05017F6FA50E7E6F77
:10070000A4ECE6F028EED7F3DF50FFECE5F0140E92
:100710000601536F230E546F566B3F0E556F2E0E0E
:10072000576FFC0E586F13ECCEF0000E05017E6F74
:10073000000E90ECDBF07EC553F67FC554F6060143
:10074000566B150E556F290E576FFD0E586FF0C57D
:1007500059F65A6BCC0E5B6FFF0E5C6F13ECCEF04C
:10076000000E05017E6F010E90ECDBF07EC553F6A6
:100770007FC554F60601566B150E556F3D0E576F2B
:10078000FB0E586F53C859F654C85AF655C85BF655
:1007900056C85CF657C85DF658C85EF659C85FF68D
:1007A0005AC860F64CC861F6626B13ECCEF050503C
:1007B000D8B42BD0050E08014F1904E1990E501939
:1007C000D8B405D0D20E0601E76FFF0E04D0D80EC4
:1007D0000601E76FFF0EE86F000E05017E6F020E47
:1007E00090ECDBF07EC553F67FC554F60601566BE0
:1007F000150E556F030E576FFF0E586FE7C659F66B
:10080000E8C65AF613ECCEF02AD0050E08014F19AF
:1008100004E1990E5019D8B405D0D20E0601E96F43
:10082000FF0E04D0D80E0601E96FFF0EEA6F000E2E
:1008300005017E6F020E90ECDBF07EC553F67FC59E
:1008400054F60601566B150E556FD50E576FFE0EFA
:10085000586FE9C659F6EAC65AF613ECCEF0000E08
:1008600005017E6F030E90ECDBF07EC553F67FC56D
:1008700054F60601566B150E556F620E576FFE0E3D
:10088000586F800E596FFF0E5A6F13ECCEF0010EA9
:1008900005017E6F000E90ECDBF07EC553F67FC540
:1008A00054F60601566B150E556F790E576FFE0EF6
:1008B000586F13ECCEF0010E05017E6F010E90EC27
:1008C000DBF07EC553F67FC554F60601566B150E58
:1008D000556FBE0E576FFE0E586FCC0E596FFF0E40
:1008E0005A6F13ECCEF0010E05017E6F020E90ECF4
:1008F000DBF07EC553F67FC554F60601566B150E28
:10090000556F900E576FFE0E586F13ECCEF0010E20
:1009100005017E6F030E90ECDBF07EC553F67FC5BC
:1009200054F60601566B150E556F620E576FFE0E8C
:10093000586F800E596FFF0E5A6F13ECCEF0030EF6
:1009400005017E6F000E90ECDBF07EC553F67FC58F
:1009500054F60601566B150E556FEC0E576FFE0ED2
:10096000586FCC0E596FFF0E5A6F13ECCEF0030E7A
:1009700005017E6F010E90ECDBF07EC553F67FC55E
:1009800054F60601566B150E556FBE0E576FFE0ED0
:10099000586FCC0E596FFF0E5A6F13ECCEF0030E4A
:1009A00005017E6F020E90ECDBF07EC553F67FC52D
:1009B00054F60601566B150E556FA70E576FFE0EB7
:1009C000586F13ECCEF0030E05017E6F030E90EC12
:1009D000DBF07EC553F67FC554F60601566B150E47
:1009E000556F620E576FFE0E586F800E596FFF0ED7
:1009F0005A6F13ECCEF0020E05017E6F000E90ECE4
:100A0000DBF07EC553F67FC554F60601566B150E16
:100A1000556F0E0E576FFC0E586F53C859F654C8D9
:100A20005AF655C85BF656C85CF657C85DF658C806
:100A30005EF659C85FF65AC860F64FC861F650C8EE
:100A400062F613ECCEF0020E05017E6F010E90EC03
:100A5000DBF07EC553F67FC554F60601566B150EC6
:100A6000556F160E576FFB0E586F24C859F625C8E0
:100A70005AF626C85BF627C85CF644C85DF645C83A
:100A80005EF646C85FF647C860F613ECCEF0020E7D
:100A900005017E6F020E90ECDBF07EC553F67FC53C
:100AA00054F60601566B150E556FEF0E576FFA0E82
:100AB000586F08C859F609C85AF60AC85BF60BC839
:100AC0005CF613ECCEF0020E05017E6F030E90EC87
:100AD000DBF07EC553F67FC554F60601566B150E46
:100AE000556FAC0E576FFB0E586F800E596FFF0E8F
:100AF0005A6FCC0E5B6FFF0E5C6F13ECCEF08BEC7D
:100B0000E7F00B0E0501846FB80E836F3DECE5F046
:100B10005050D8B406D0270E846F100E836F3DEC72
:100B2000E5F0010E7F6FF40E7E6F050EECECE3F046
:100B30000B0E7F6FB80E7E6F020EECECE3F0050E2D
:100B40007F6FDC0E7E6F070EECECE3F00B0E7F6F19
:100B5000B80E7E6F040EECECE3F0270E7F6F100EE4
:100B60007E6F060EECECE3F00B0E7F6FB80E7E6F1F
:100B7000030EECECE3F07F6B010E7E6F010EECECEC
:100B8000E3F043D0000EDFECE5F0000E7E6F000EC8
:100B900090ECDBF07EC5EBF67FC5ECF6060120EEAF
:100BA00015F0EB51D926EC51DA22DF6A000E05016F
:100BB000826F030ECBECD1F00601DA6F20EE13F05A
:100BC000EB51D926EC51DA22DAC6DFF41ED0000E42
:100BD0006100A2F3F3F10B0E0501846FB80E836F71
:100BE0003DECE5F012D028EEF3F1DF500601DA6FAC
:100BF000DB6BDB51000AD8A4EAD7DA51000AD8B47B
:100C0000C0D4010AD8B4BED7E2D7010E50ECE5F04B
:100C10000009D8B472D17F6B010E7E6F010EECEC2F
:100C2000E3F028EEFDF3DE50DE10DE10DE10D8A477
:100C300014D077ECE3F0D69E09016C51D8A406D00D
:100C40006800D0FDAEF76800D4FDAFF7D68EAEC712
:100C50008EF5AFC78FF5AAECDEF075ECE5F0010E6E
:100C600008010027000E012302230323CDECE8F046
:100C7000000E64ECE7F095ECE8F00009D8B4FBD77F
:100C800095ECE8F00009D8B406D068ECE6F07EC533
:100C900000FC7FC501FCCDECE8F0010E64ECE7F050
:100CA00095ECE8F00009D8B4FBD795ECE8F0000922
:100CB000D8B40ED068ECE6F06100FAF5E7F3610015
:100CC000FEF5E8F368009CFF02FC6800A0FF03FC4F
:100CD000CDECE8F0020E64ECE7F095ECE8F00009EA
:100CE000D8B4FBD795ECE8F00009D8B40ED068EC86
:100CF000E6F06100FAF5E9F36100FEF5EAF3680059
:100D0000A4FF04FC6800A8FF05FCCDECE8F0040E8D
:100D100064ECE7F095ECE8F00009D8B4FBD795EC6B
:100D2000E8F00009D8B406D068ECE6F07EC508FC0F
:100D30007FC509FCCDECE8F0050E64ECE7F095EC1E
:100D4000E8F00009D8B4FBD795ECE8F00009D8B476
:100D500006D068ECE6F07EC50AFC7FC50BFCCDEC46
:100D6000E8F0160E64ECE7F095ECE8F00009D8B472
:100D7000FBD795ECE8F00009D8B406D068ECE6F0B3
:100D80007EC52CFC7FC52DFCCDECE8F0170E64EC85
:100D9000E7F095ECE8F00009D8B4FBD795ECE8F063
:100DA0000009D8B406D068ECE6F07EC52EFC7FC5FD
:100DB0002FFCCDECE8F01D0E64ECE7F095ECE8F0CC
:100DC0000009D8B4FBD795ECE8F00009D8B406D0F8
:100DD00068ECE6F07EC53AFC7FC53BFCCDECE8F064
:100DE0003B0E64ECE7F095ECE8F00009D8B4FBD7D3
:100DF00095ECE8F00009D8B406D068ECE6F07EC5C2
:100E000076FC7FC577FCCDECE8F03C0E64ECE7F0B7
:100E100095ECE8F00009D8B4FBD795ECE8F00009B0
:100E2000D8B406D068ECE6F07EC578FC7FC579FCC6
:100E3000CDECE8F03D0E64ECE7F095ECE8F000094D
:100E4000D8B4FBD795ECE8F00009D8B406D068EC2C
:100E5000E6F07EC57AFC7FC57BFCCDECE8F03E0E6B
:100E600064ECE7F095ECE8F00009D8B4FBD795EC1A
:100E7000E8F00009D8B406D068ECE6F07EC57CFC4A
:100E80007FC57DFCCDECE8F03F0E64ECE7F095EC1F
:100E9000E8F00009D8B4FBD795ECE8F00009D8B425
:100EA00006D068ECE6F07EC57EFC7FC57FFC68005E
:100EB00084FE7DF0040028EEF9F3DE50DE10DE1033
:100EC000DE10D8A41AD05FECE3F0000E05019D6F90
:100ED000000E9E6F000E9F6F000EA06F000EA16FA0
:100EE000000EA26F000EA36FEAECD3F06EC7D9F428
:100EF0006FC7DAF4DFBE97ECB1F0050E50ECE5F009
:100F00000009D8B4F0D275ECE5F0010E05017F6F51
:100F1000F40E7E6F050EECECE3F0040E50ECE5F001
:100F20000009D8B403D0000EDFECE5F0000EEBECC6
:100F3000E1F05150D8B49DD2AFEC8AF0000E05011B
:100F40007E6F000E90ECDBF07EC553F67FC554F645
:100F50000601566B150E556FA20E576FFC0E586F9B
:100F6000020E0501E3250601596F000E0501E4217B
:100F700006015A6F13ECCEF018C77EF519C77FF53E
:100F80001AC780F51BC781F5010E67ECC9F07EC555
:100F90008CF57FC58DF580C58EF581C58FF5000E6A
:100FA000906F000E916F7A0E926F440E936F42EC29
:100FB000B8F08CC5EDF68DC5EEF68EC5EFF68FC593
:100FC000F0F6000E7E6F010E90ECDBF07EC553F65E
:100FD0007FC554F60601566B150E556FBE0E576F42
:100FE000FC0E586F0A01C8510C0D1E0EF3240601A9
:100FF000596FF80EF4205A6F14C77EF515C77FF5A8
:1010000016C780F517C781F50A0E0501826F000E1D
:10101000836F000E846F000E856F4DECCFF07EC5A0
:101020005BF67FC55CF680C55DF681C55EF6EDC6F4
:101030005FF6EEC660F6EFC661F6F0C662F613EC38
:10104000CEF0000E05017E6F020E90ECDBF07EC547
:1010500053F67FC554F60601566B150E556FCD0E2F
:10106000576FFB0E586F09018E510C0D360EF3248D
:101070000601596FF80EF4205A6F0C0EF903F3C4F1
:10108000DAF6F4C4DBF6FA03F350DB27D60EDA25E2
:101090005B6FF70EDB215C6F800E5E245D6FFF0ED1
:1010A0005F205E6F800E5C245F6FFF0E5D20606FBF
:1010B000800E5A24616FFF0E5B20626F13ECCEF03E
:1010C000000E05017E6F030E90ECDBF07EC553F63B
:1010D0007FC554F60601566B150E556F750E576F8A
:1010E000FA0E586F40C559F641C55AF642C55BF62F
:1010F00043C55CF63CC55DF63DC55EF63EC55FF694
:101100003FC560F613ECCEF022EEC2F1DEC47EF5F0
:10111000DDC47FF50501000E7FBFFF0E806F816F7C
:10112000010E67ECC9F07EC58CF57FC58DF580C5D5
:101130008EF581C58FF5CD0E906FCC0E916FCC0ED4
:10114000926F3D0E936F42ECB8F08CC5EDF68DC5F5
:10115000EEF68EC5EFF68FC5F0F622EED0F1DEC4C6
:101160007EF5DDC47FF5000E7FBFFF0E806F816FBF
:10117000010E67ECC9F07EC58CF57FC58DF580C585
:101180008EF581C58FF5000E906F000E916F700E79
:10119000926F420E936F42ECB8F08CC5DFF68DC5AE
:1011A000E0F68EC5E1F68FC5E2F6010E7E6F000E09
:1011B00090ECDBF07EC553F67FC554F60601566B06
:1011C000150E556FF10E576FF90E586FEDC659F6A3
:1011D000EEC65AF6EFC65BF6F0C65CF6DFC65DF605
:1011E000E0C65EF6E1C65FF6E2C660F613ECCEF04E
:1011F000CCC97EF5CDC97FF50501816B0A0E806FE4
:1012000072ECD7F07EC5E3F67FC5E4F6CAC97EF579
:10121000CBC97FF5816B0A0E806F72ECD7F07EC56B
:10122000E5F67FC5E6F6010E7E6F010E90ECDBF071
:101230007EC553F67FC554F60601566B150E556FE5
:10124000C70E576FFA0E586FE3C659F6E4C65AF642
:10125000E5C65BF6E6C65CF613ECCEF018C77EF585
:1012600019C77FF51AC780F51BC781F5010E67EC1A
:10127000C9F07EC58CF57FC58DF580C58EF581C51D
:101280008FF5000E906F000E916F7A0E926F440EE4
:10129000936F42ECB8F08CC5EDF68DC5EEF68EC5B9
:1012A000EFF68FC5F0F6010E7E6F020E90ECDBF0CC
:1012B0007EC553F67FC554F60601566B150E556F65
:1012C000880E576FFB0E586F0CC759F60DC75AF6AC
:1012D0000EC75BF60FC75CF6EDC65DF6EEC65EF6B2
:1012E000EFC65FF6F0C660F613ECCEF0010E050116
:1012F0007E6F030E90ECDBF07EC553F67FC554F68F
:101300000601566B150E556F690E576FFC0E586F20
:1013100024C759F625C75AF626C75BF627C75CF6D9
:1013200030C75DF631C75EF632C75FF633C760F689
:1013300062C761F663C762F613ECCEF0020E0501D8
:101340007E6F000E90ECDBF07EC553F67FC554F641
:101350000601566B150E556F0E0E576FFC0E586F2B
:1013600053C859F654C85AF655C85BF656C85CF6C9
:1013700057C85DF658C85EF659C85FF65AC860F699
:101380004FC861F650C862F613ECCEF0020E0501AC
:101390007E6F010E90ECDBF07EC553F67FC554F6F0
:1013A0000601566B150E556F9F0E576FFA0E586F4C
:1013B00008CCBEF509CCBFF529ECD6F0BEC559F670
:1013C000BFC55AF6C0C55BF6C1C55CF60ACCBEF512
:1013D0000BCCBFF56DECD6F0BEC55DF6BFC55EF6B5
:1013E000C0C55FF6C1C560F613ECCEF0020E050174
:1013F0007E6F020E90ECDBF07EC553F67FC554F68F
:101400000601566B150E556FC40E576FF90E586FC7
:1014100008C859F609C85AF60AC85BF60BC85CF644
:101420004CC85DF65E6B13ECCEF0020E05017E6FCC
:10143000030E90ECDBF07EC553F67FC554F6060133
:10144000566B150E556F4C0E576FFC0E586F800E75
:10145000596FFF0E5A6FCC0E5B6FFF0E5C6F13EC73
:10146000CEF08BECE7F00901666B516A000EB0EC30
:10147000D6F028EED8F3DFC4DAF6010EDF26460EEA
:101480000601DA652BD00501EF51FFECE5F028EEFF
:10149000D8F3DF500601DA6FDB6B28EEDAF3DF50AA
:1014A000DC6FDD6B660EDC27000EDD23DA51DC5DC0
:1014B000DD51800ADE6FDB51800ADE59D8B013D0CF
:1014C0000501EF2BEF51030B030AD8A402D0010E44
:1014D000EF6F000E6100A2F3D8F305D028EED7F32A
:1014E000DF50FFECE5F028EEE3F3DF50D8B413D083
:1014F000030E50ECE5F00009D8B40AD0000E6100EC
:10150000A2F3E3F328EED7F3DF50FFECE5F003D0CE
:10151000030EFFECE5F028EEDEF3DF50D8B453EF16
:1015200081F0060E50ECE5F00009D8B453EF81F0DD
:10153000270E7F6F100E7E6F060EECECE3F00B0EA5
:101540007F6FB80E7E6F030EECECE3F0010E6100CE
:10155000A2F3E3F3000E1CECC8F053EF81F07C0E15
:101560000601046F230E056F59ECE6F004C6A6F7DA
:1015700005C6A7F7F20E536F1F0E546F566B190E68
:10158000556FFC0E576FFF0E586FA6C78BF5A7C798
:101590008CF5EFECBBF08BC559F68CC55AF613EC05
:1015A000CEF0000E6100A1F3F5FFB4EF93F0FBC69F
:1015B000EAF514C77EF515C77FF516C780F517C77E
:1015C00081F5010E67ECC9F07EC58CF57FC58DF500
:1015D00080C58EF581C58FF5000E906F000E916F5E
:1015E000200E926F410E936F42ECB8F08CC5C2F69C
:1015F0008DC5C3F68EC5C4F68FC5C5F624C77EF566
:1016000025C77FF526C780F527C781F5010E67EC52
:10161000C9F07EC58CF57FC58DF580C58EF581C579
:101620008FF5000E906F000E916F200E926F410E9D
:10163000936F42ECB8F08CC5C6F68DC5C7F68EC563
:10164000C8F68FC5C9F628C77EF529C77FF52AC712
:1016500080F52BC781F5010E67ECC9F07EC58CF5CE
:101660007FC58DF580C58EF581C58FF5000E906F15
:10167000000E916F200E926F410E936F42ECB8F006
:101680008CC5CAF68DC5CBF68EC5CCF68FC5CDF60A
:1016900030C77EF531C77FF532C780F533C781F596
:1016A000010E67ECC9F07EC58CF57FC58DF580C550
:1016B0008EF581C58FF5000E906F000E916F200E94
:1016C000926F410E936F42ECB8F08CC5CEF68DC58B
:1016D000CFF68EC5D0F68FC5D1F63CC77EF53DC797
:1016E0007FF53EC780F53FC781F5010E67ECC9F075
:1016F0007EC58CF57FC58DF580C58EF581C58FF5CE
:10170000000E906F000E916F200E926F410E936F3E
:1017100042ECB8F08CC5D2F68DC5D3F68EC5D4F6A2
:101720008FC5D5F621EE62F3DEC47EF5DDC47FF50C
:10173000000E7FBFFF0E806F816F010E67ECC9F056
:101740007EC58CF57FC58DF580C58EF581C58FF57D
:10175000000E906F000E916F200E926F410E936FEE
:1017600042ECB8F08CC5D6F68DC5D7F68EC5D8F646
:101770008FC5D9F6F20E0601536F1D0E546F020E7F
:10178000566F000E556FA70E576FF60E586FEAC5CD
:1017900059F65A6BC2C65BF6C3C65CF6C4C65DF6A4
:1017A000C5C65EF618CD5FF619CD60F61ACD61F6A6
:1017B0001BCD62F6C6C663F6C7C664F6C8C665F634
:1017C000C9C666F6CAC667F6CBC668F6CCC669F661
:1017D000CDC66AF6CEC66BF6CFC66CF6D0C66DF631
:1017E000D1C66EF6D2C66FF6D3C670F6D4C671F601
:1017F000D5C672F6D6C673F6D7C674F6D8C675F6D1
:10180000D9C676F670CD77F671CD78F672CD79F6C9
:1018100073CD7AF640C57BF641C57CF642C57DF6B0
:1018200043C57EF63CC57FF63DC580F63EC581F6D4
:101830003FC582F6800E5E24836FFF0E5F20846FAB
:10184000800E5C24856FFF0E5D20866F800E5A240B
:10185000876FFF0E5B20886F44C589F645C58AF601
:101860008EC98BF68C6BF9C68DF6FAC68EF6CBCA8E
:101870008FF6906BD3C991F6D4C992F6D5C993F679
:10188000D6C994F6D7C995F6D8C996F6D9C997F6A8
:10189000DAC998F6ECC799F6EDC79AF6EEC79BF64B
:1018A000EFC79CF6F4C79DF6F5C79EF6F6C79FF600
:1018B000F7C7A0F6F8C7A1F6F9C7A2F6FAC7A3F6CC
:1018C000FBC7A4F6FCC7A5F6FDC7A6F6FEC7A7F69C
:1018D000FFC7A8F613ECCEF0120E18EF92F0FBC67D
:1018E000EAF500C77EF501C77FF502C780F503C79B
:1018F00081F5010E67ECC9F07EC58CF57FC58DF5CD
:1019000080C58EF581C58FF5000E906F000E916F2A
:10191000200E926F410E936F42ECB8F08CC5C2F668
:101920008DC5C3F68EC5C4F68FC5C5F604C77EF552
:1019300005C77FF506C780F507C781F5010E67EC7F
:10194000C9F07EC58CF57FC58DF580C58EF581C546
:101950008FF5000E906F000E916F200E926F410E6A
:10196000936F42ECB8F08CC5C6F68DC5C7F68EC530
:10197000C8F68FC5C9F608C77EF509C77FF50AC73F
:1019800080F50BC781F5010E67ECC9F07EC58CF5BB
:101990007FC58DF580C58EF581C58FF5000E906FE2
:1019A000000E916F200E926F410E936F42ECB8F0D3
:1019B0008CC5CAF68DC5CBF68EC5CCF68FC5CDF6D7
:1019C0001CC77EF51DC77FF51EC780F51FC781F5B3
:1019D000010E67ECC9F07EC58CF57FC58DF580C51D
:1019E0008EF581C58FF5000E906F000E916F7A0E07
:1019F000926F440E936F42ECB8F08CC5CEF68DC555
:101A0000CFF68EC5D0F68FC5D1F62CC77EF52DC783
:101A10007FF52EC780F52FC781F5010E67ECC9F061
:101A20007EC58CF57FC58DF580C58EF581C58FF59A
:101A3000000E906F000E916F200E926F410E936F0B
:101A400042ECB8F08CC5D2F68DC5D3F68EC5D4F66F
:101A50008FC5D5F650C77EF551C77FF552C780F5C3
:101A600053C781F5010E67ECC9F07EC58CF57FC5C3
:101A70008DF580C58EF581C58FF5000E906F000E37
:101A8000916F200E926F410E936F42ECB8F08CC5AF
:101A9000D6F68DC5D7F68EC5D8F68FC5D9F621EE08
:101AA0005CF3DEC47EF5DDC47FF5000E7FBFFF0E64
:101AB000806F816F010E67ECC9F07EC58CF57FC524
:101AC0008DF580C58EF581C58FF5000E906F000EE7
:101AD000916F200E926F410E936F42ECB8F08CC55F
:101AE000BAF68DC5BBF68EC5BCF68FC5BDF621EE28
:101AF0005EF3DEC47EF5DDC47FF5000E7FBFFF0E12
:101B0000806F816F010E67ECC9F07EC58CF57FC5D3
:101B10008DF580C58EF581C58FF5000E906F000E96
:101B2000916F200E926F410E936F42ECB8F08CC50E
:101B3000BEF68DC5BFF68EC5C0F68FC5C1F6F20ED6
:101B40000601536F1D0E546F020E566F000E556F37
:101B5000F00E576FF50E586FEAC559F65A6BC2C6AC
:101B60005BF6C3C65CF6C4C65DF6C5C65EF6C6C601
:101B70005FF6C7C660F6C8C661F6C9C662F6CAC6D1
:101B800063F6CBC664F6CCC665F6CDC666F6CEC6A1
:101B900067F6CFC668F6D0C669F6D1C66AF6D2C671
:101BA0006BF6D3C66CF6D4C66DF6D5C66EF6D6C641
:101BB0006FF6D7C670F6D8C671F6D9C672F6BAC631
:101BC00073F6BBC674F6BCC675F6BDC676F6BEC661
:101BD00077F6BFC678F6C0C679F6C1C67AF640C5B4
:101BE0007BF641C57CF642C57DF643C57EF63CC515
:101BF0007FF63DC580F63EC581F63FC582F6800E74
:101C00005E24836FFF0E5F20846F800E5C24856FDF
:101C1000FF0E5D20866F800E5A24876FFF0E5B20BB
:101C2000886F44C589F645C58AF68EC98BF68C6BDC
:101C3000F9C68DF6FAC68EF6CBCA8FF6906BD3C96D
:101C400091F6D4C992F6D5C993F6D6C994F6D7C9F8
:101C500095F6D8C996F6D9C997F6DAC998F6ECC7B9
:101C600099F6EDC79AF6EEC79BF6EFC79CF6F4C758
:101C70009DF6F5C79EF6F6C79FF6F7C7A0F6F8C71C
:101C8000A1F6F9C7A2F6FAC7A3F6FBC7A4F6FCC7EC
:101C9000A5F6FDC7A6F6FEC7A7F6FFC7A8F613EC84
:101CA000CEF0110E0601FB6F0400CAEF93F0FBC6E5
:101CB000EAF514C77EF515C77FF516C780F517C777
:101CC00081F5010E67ECC9F07EC58CF57FC58DF5F9
:101CD00080C58EF581C58FF5000E906F000E916F57
:101CE000200E926F410E936F42ECB8F08CC5C2F695
:101CF0008DC5C3F68EC5C4F68FC5C5F618C77EF56B
:101D000019C77FF51AC780F51BC781F5010E67EC6F
:101D1000C9F07EC58CF57FC58DF580C58EF581C572
:101D20008FF5000E906F000E916F7A0E926F440E39
:101D3000936F42ECB8F08CC5C6F68DC5C7F68EC55C
:101D4000C8F68FC5C9F624C77EF525C77FF526C717
:101D500080F527C781F5010E67ECC9F07EC58CF5CB
:101D60007FC58DF580C58EF581C58FF5000E906F0E
:101D7000000E916F200E926F410E936F42ECB8F0FF
:101D80008CC5CAF68DC5CBF68EC5CCF68FC5CDF603
:101D900028C77EF529C77FF52AC780F52BC781F5AF
:101DA000010E67ECC9F07EC58CF57FC58DF580C549
:101DB0008EF581C58FF5000E906F000E916F200E8D
:101DC000926F410E936F42ECB8F08CC5CEF68DC584
:101DD000CFF68EC5D0F68FC5D1F630C77EF531C7A8
:101DE0007FF532C780F533C781F5010E67ECC9F086
:101DF0007EC58CF57FC58DF580C58EF581C58FF5C7
:101E0000000E906F000E916F200E926F410E936F37
:101E100042ECB8F08CC5D2F68DC5D3F68EC5D4F69B
:101E20008FC5D5F63CC77EF53DC77FF53EC780F52B
:101E30003FC781F5010E67ECC9F07EC58CF57FC503
:101E40008DF580C58EF581C58FF5000E906F000E63
:101E5000916F200E926F410E936F42ECB8F08CC5DB
:101E6000D6F68DC5D7F68EC5D8F68FC5D9F621EE34
:101E700062F3DEC47EF5DDC47FF5000E7FBFFF0E8A
:101E8000806F816F010E67ECC9F07EC58CF57FC550
:101E90008DF580C58EF581C58FF5000E906F000E13
:101EA000916F200E926F410E936F42ECB8F08CC58B
:101EB000BAF68DC5BBF68EC5BCF68FC5BDF678CB20
:101EC0007EF579CB7FF57ACB80F57BCB81F5010E62
:101ED00067ECC9F07EC58CF57FC58DF580C58EF5A4
:101EE00081C58FF5000E906F000E916F7A0E926F84
:101EF000440E936F42ECB8F08CC5BEF68DC5BFF6AC
:101F00008EC5C0F68FC5C1F6F20E0601536F1D0EC9
:101F1000546F020E566F000E556F390E576FF50E47
:101F2000586FEAC559F65A6BC2C65BF6C3C65CF673
:101F3000C4C65DF6C5C65EF6C6C65FF6C7C660F621
:101F4000C8C661F6C9C662F6CAC663F6CBC664F6F1
:101F5000CCC665F6CDC666F6CEC667F6CFC668F6C1
:101F6000D0C669F6D1C66AF6D2C66BF6D3C66CF691
:101F7000D4C66DF6D5C66EF6D6C66FF6D7C670F661
:101F8000D8C671F6D9C672F6BAC673F6BBC674F671
:101F9000BCC675F6BDC676F6BEC677F6BFC678F681
:101FA000C0C679F6C1C67AF640C57BF641C57CF657
:101FB00042C57DF643C57EF63CC57FF63DC580F63D
:101FC0003EC581F63FC582F6800E5E24836FFF0E0C
:101FD0005F20846F800E5C24856FFF0E5D20866F0E
:101FE000800E5A24876FFF0E5B20886F44C589F6E8
:101FF00045C58AF68EC98BF68C6BF9C68DF6FAC686
:102000008EF6CBCA8FF6906BD3C991F6D4C992F6EF
:10201000D5C993F6D6C994F6D7C995F6D8C996F618
:10202000D9C997F6DAC998F6ECC799F6EDC79AF6CA
:10203000EEC79BF6EFC79CF6F4C79DF6F5C79EF674
:10204000F6C79FF6F7C7A0F6F8C7A1F6F9C7A2F63C
:10205000FAC7A3F6FBC7A4F6FCC7A5F6FDC7A6F60C
:10206000FEC7A7F6FFC7A8F613ECCEF0140EE0D11A
:10207000FBC6EAF514C77EF515C77FF516C780F5D0
:1020800017C781F5010E67ECC9F07EC58CF57FC5D9
:102090008DF580C58EF581C58FF5000E906F000E11
:1020A000916F200E926F410E936F42ECB8F08CC589
:1020B000C2F68DC5C3F68EC5C4F68FC5C5F618C762
:1020C0007EF519C77FF51AC780F51BC781F5010E8C
:1020D00067ECC9F07EC58CF57FC58DF580C58EF5A2
:1020E00081C58FF5000E906F000E916F7A0E926F82
:1020F000440E936F42ECB8F08CC5C6F68DC5C7F69A
:102100008EC5C8F68FC5C9F624C77EF525C77FF5ED
:1021100026C780F527C781F5010E67ECC9F07EC59B
:102120008CF57FC58DF580C58EF581C58FF5000EC8
:10213000906F000E916F200E926F410E936F42ECE4
:10214000B8F08CC5CAF68DC5CBF68EC5CCF68FC55A
:10215000CDF628C77EF529C77FF52AC780F52BC79E
:1021600081F5010E67ECC9F07EC58CF57FC58DF554
:1021700080C58EF581C58FF5000E906F000E916FB2
:10218000200E926F410E936F42ECB8F08CC5CEF6E4
:102190008DC5CFF68EC5D0F68FC5D1F630C77EF58A
:1021A00031C77FF532C780F533C781F5010E67EC83
:1021B000C9F07EC58CF57FC58DF580C58EF581C5CE
:1021C0008FF5000E906F000E916F200E926F410EF2
:1021D000936F42ECB8F08CC5D2F68DC5D3F68EC5A0
:1021E000D4F68FC5D5F63CC77EF53DC77FF53EC713
:1021F00080F53FC781F5010E67ECC9F07EC58CF50F
:102200007FC58DF580C58EF581C58FF5000E906F69
:10221000000E916F200E926F410E936F42ECB8F05A
:102220008CC5D6F68DC5D7F68EC5D8F68FC5D9F62E
:1022300021EE62F3DEC47EF5DDC47FF5000E7FBFC4
:10224000FF0E806F816F010E67ECC9F07EC58CF5C3
:102250007FC58DF580C58EF581C58FF5000E906F19
:10226000000E916F200E926F410E936F42ECB8F00A
:102270008CC5BAF68DC5BBF68EC5BCF68FC5BDF64E
:1022800078CB7EF579CB7FF57ACB80F57BCB81F56A
:10229000010E67ECC9F07EC58CF57FC58DF580C554
:1022A0008EF581C58FF5000E906F000E916F7A0E3E
:1022B000926F440E936F42ECB8F08CC5BEF68DC59C
:1022C000BFF68EC5C0F68FC5C1F6F20E0601536F7C
:1022D0001D0E546F020E566F000E556F820E576F13
:1022E000F40E586FEAC559F65A6BC2C65BF6C3C600
:1022F0005CF6C4C65DF6C5C65EF6C6C65FF6C7C662
:1023000060F6C8C661F6C9C662F6CAC663F6CBC631
:1023100064F6CCC665F6CDC666F6CEC667F6CFC601
:1023200068F6D0C669F6D1C66AF6D2C66BF6D3C6D1
:102330006CF6D4C66DF6D5C66EF6D6C66FF6D7C6A1
:1023400070F6D8C671F6D9C672F6BAC673F6BBC6B1
:1023500074F6BCC675F6BDC676F6BEC677F6BFC6C1
:1023600078F6C0C679F6C1C67AF640C57BF641C597
:102370007CF642C57DF643C57EF63CC57FF63DC57D
:1023800080F63EC581F63FC582F6800E5E24836FDF
:10239000FF0E5F20846F800E5C24856FFF0E5D2032
:1023A000866F800E5A24876FFF0E5B20886F44C5AE
:1023B00089F645C58AF68EC98BF68C6BF9C68DF603
:1023C000FAC68EF6CBCA8FF6906BD3C991F6D4C9F4
:1023D00092F6D5C993F6D6C994F6D7C995F6D8C959
:1023E00096F6D9C997F6DAC998F6ECC799F6EDC70B
:1023F0009AF6EEC79BF6EFC79CF6F4C79DF6F5C7B5
:102400009EF6F6C79FF6F7C7A0F6F8C7A1F6F9C77C
:10241000A2F6FAC7A3F6FBC7A4F6FCC7A5F6FDC74C
:10242000A6F6FEC7A7F6FFC7A8F613ECCEF0110E6E
:102430000601FB6FAFD1110EFB6F110E0501EA6FA4
:1024400014C77EF515C77FF516C780F517C781F548
:10245000010E67ECC9F07EC58CF57FC58DF580C592
:102460008EF581C58FF5000E906F000E916F200ED6
:10247000926F410E936F42ECB8F08CC5C2F68DC5D9
:10248000C3F68EC5C4F68FC5C5F624C77EF525C72D
:102490007FF526C780F527C781F5010E67ECC9F0E7
:1024A0007EC58CF57FC58DF580C58EF581C58FF510
:1024B000000E906F000E916F200E926F410E936F81
:1024C00042ECB8F08CC5C6F68DC5C7F68EC5C8F609
:1024D0008FC5C9F628C77EF529C77FF52AC780F5BD
:1024E0002BC781F5010E67ECC9F07EC58CF57FC561
:1024F0008DF580C58EF581C58FF5000E906F000EAD
:10250000916F200E926F410E936F42ECB8F08CC524
:10251000CAF68DC5CBF68EC5CCF68FC5CDF630C7C5
:102520007EF531C77FF532C780F533C781F5010EDF
:1025300067ECC9F07EC58CF57FC58DF580C58EF53D
:1025400081C58FF5000E906F000E916F200E926F77
:10255000410E936F42ECB8F08CC5CEF68DC5CFF628
:102560008EC5D0F68FC5D1F63CC77EF53DC77FF549
:102570003EC780F53FC781F5010E67ECC9F07EC507
:102580008CF57FC58DF580C58EF581C58FF5000E64
:10259000906F000E916F200E926F410E936F42EC80
:1025A000B8F08CC5D2F68DC5D3F68EC5D4F68FC5DE
:1025B000D5F621EE62F3DEC47EF5DDC47FF5000EB4
:1025C0007FBFFF0E806F816F010E67ECC9F07EC583
:1025D0008CF57FC58DF580C58EF581C58FF5000E14
:1025E000906F000E916F200E926F410E936F42EC30
:1025F000B8F08CC5D6F68DC5D7F68EC5D8F68FC582
:10260000D9F6F20E0601536F1D0E546F020E566F6F
:10261000000E556FA70E576FF60E586FEAC559F6A4
:102620005A6BC2C65BF6C3C65CF6C4C65DF6C5C6C9
:102630005EF618CD5FF619CD60F61ACD61F61BCDAA
:1026400062F6C6C663F6C7C664F6C8C665F6C9C6EE
:1026500066F6CAC667F6CBC668F6CCC669F6CDC6BE
:102660006AF6CEC66BF6CFC66CF6D0C66DF6D1C68E
:102670006EF6D2C66FF6D3C670F6D4C671F6D5C65E
:1026800072F6D6C673F6D7C674F6D8C675F6D9C62E
:1026900076F670CD77F671CD78F672CD79F673CD8A
:1026A0007AF640C57BF641C57CF642C57DF643C54A
:1026B0007EF63CC57FF63DC580F63EC581F63FC53A
:1026C00082F6800E5E24836FFF0E5F20846F800E83
:1026D0005C24856FFF0E5D20866F800E5A24876F05
:1026E000FF0E5B20886F44C589F645C58AF68EC902
:1026F0008BF68C6BF9C68DF6FAC68EF6CBCA8FF6C2
:10270000906BD3C991F6D4C992F6D5C993F6D6C9C0
:1027100094F6D7C995F6D8C996F6D9C997F6DAC905
:1027200098F6ECC799F6EDC79AF6EEC79BF6EFC799
:102730009CF6F4C79DF6F5C79EF6F6C79FF6F7C759
:10274000A0F6F8C7A1F6F9C7A2F6FAC7A3F6FBC729
:10275000A4F6FCC7A5F6FDC7A6F6FEC7A7F6FFC7F9
:10276000A8F613ECCEF016D00601FB51020AD8B43D
:10277000D7EF8AF0130AD8B4D7EF8AF0030AD8B497
:102780006FEF8CF0010AD8B457EF8EF0070AD8B477
:102790006FD451D6F20E0501E36F1D0EE46F020EE9
:1027A000E66F000EE56FE86B000EE76F010EE96F54
:1027B000010E0701CE6F1200D6C5D9F4D7C5DAF4E1
:1027C000DEC4F6F4DDC4F7F4000EF86E0800F55030
:1027D000250AD8A408EF9AF0D6C5D9F4D7C5DAF4FB
:1027E000DE2A000EDD22F66B000EF56FF5C5F6F65B
:1027F0000601F469F569416B30D0F681D6C5D9F48C
:10280000D7C5DAF4DE2A000EDD2227D0F683F6D70C
:10281000F685F4D7F687F2D7F689F0D7010E416F27
:102820001CD0D6C5D9F4D7C5DAF4DEC4F6F4DDC4BD
:10283000F7F4000EF86E0800F550200AD8B4EAD775
:10284000030AD8B4E9D7080AD8B4E2D7060AD8B43C
:10285000D4D71D0AD8B4DAD7E1D74151D8B4E1D7DB
:10286000F6B1F693D6C57EF5D7C57FF5D8C580F508
:10287000D9C581F573ECD0F07EC5F5F57FC5F6F5C9
:10288000F6AF07D00601F6810501F56DF61FD8B049
:10289000F62BD6C5D9F4D7C5DAF4DEC4F6F4DDC418
:1028A000F7F4000EF86E0800F5502E0AD8A415D0E3
:1028B000D6C5D9F4D7C5DAF4DE2A000EDD22D6C596
:1028C0007EF5D7C57FF5D8C580F5D9C581F573EC00
:1028D000D0F07EC5F4F67FC5F5F6D6C5D9F4D7C5D8
:1028E000DAF4DEC4F6F4DDC4F7F4000EF86E080086
:1028F000F550630AD8A427D0D6C5D9F4D7C5DAF4E1
:10290000DE2A000EDD22D8C5D9F4D9C5DAF4DFC439
:1029100033F6020EDE26DFC434F6000EDD2233C6A7
:10292000D9F434C6DAF4DF500601426FD4C587F516
:10293000D5C588F542C689F57AECD1F087C5D4F5BE
:1029400088C5D5F51200D6C5D9F4D7C5DAF4DEC4EA
:102950004BF6DDC44CF64BC6F6F44CC6F7F4000E4D
:10296000F86E0800F5C442F626D04B4B4C2B4BC6F4
:10297000F6F44CC6F7F4000EF86E0800F550680A3D
:10298000D8A440D0480E426F4B4B4C2B3BD04B4B06
:102990004C2B4BC6F6F44CC6F7F4000EF86E08004C
:1029A000F5506C0AD8A42ED04C0EEDD7690E426FAC
:1029B00029D0426B27D006014251580AD8B4F6D725
:1029C0003C0AD8B4F3D70C0AD8B4CFD7010AD8B48C
:1029D000EDD7030AD8B4D8D7060AD8B4D8D7020A94
:1029E000D8B4E4D7010AD8B4E1D71B0AD8B4CCD7FD
:1029F000010AD8B4DBD70D0AD8B4D8D7020AD8B4A4
:102A0000C3D7D7D74BC6F6F44CC6F7F4000EF86E12
:102A10000800F550640AD8B4CBD04BC6F6F44CC6C7
:102A2000F7F4000EF86E0800F550690AD8B4C0D06B
:102A300001D1D8C5D9F4D9C5DAF4DFC433F6020E12
:102A4000DE26DFC434F6000EDD2233C6D9F434C6E8
:102A5000DAF4DF50436F000E43BFFF0E446F51D0D6
:102A6000D8C5D9F4D9C5DAF4DFC433F6040EDE26AE
:102A7000DFC434F6000EDD2233C6D9F434C6DAF4EE
:102A8000DEC435F6DEC436F6DEC437F6DEC438F60C
:102A900035C639F636C63AF637C63BF638C63CF682
:102AA0003D6B3CBF3D693DC63EF63DC63FF63DC66B
:102AB00040F639C643F63AC644F63BC645F63CC630
:102AC00046F63DC647F63EC648F63FC649F640C6FE
:102AD0004AF687D0D8C5D9F4D9C5DAF4DFC433F6BD
:102AE000020EDE26DFC434F6000EDD2233C6D9F432
:102AF00034C6DAF4DEC443F6DDC444F6000E44BF47
:102B0000FF0E456F466F476F486F496F4A6F69D038
:102B1000D8C5D9F4D9C5DAF4DFC433F6080EDE26F9
:102B2000DFC434F6000EDD2233C6D9F434C6DAF43D
:102B3000DEC435F6DEC436F6DEC437F6DEC438F65B
:102B4000DEC439F6DEC43AF6DEC43BF6DEC43CF63B
:102B500035C643F636C644F637C645F638C646F699
:102B600039C647F63AC648F63BC649F63CC64AF669
:102B700038D0D8C5D9F4D9C5DAF4DFC433F6020E9B
:102B8000DE26DFC434F6000EDD2233C6D9F434C6A7
:102B9000DAF4DEC435F6DDC436F635C643F636C69D
:102BA00044F6456B466B476B486B496B4A6B19D0D3
:102BB0004251480AD8B43DD7040AD8B4A9D7240A48
:102BC000D8B488D7010AD8B485D7030AD8B4A0D717
:102BD000060AD8B445D7180AD8B47CD70E0AD8B498
:102BE000C8D7010E4B25336F000E4C21346FD6C56C
:102BF000D9F4D7C5DAF433C6DEF434C6DDF4D4C56F
:102C000098F5D5C599F543C69AF544C69BF545C6D2
:102C10009CF546C69DF547C69EF548C69FF549C634
:102C2000A0F54AC6A1F547ECBFF098C5D4F599C503
:102C3000D5F512004BC6F6F44CC6F7F4000EF86E4C
:102C40000800F550780AD8B4C7D04BC6F6F44CC685
:102C5000F7F4000EF86E0800F550580AD8B4BCD04E
:102C60004BC6F6F44CC6F7F4000EF86E0800F550AB
:102C70006F0AD8B4B1D04BC6F6F44CC6F7F4000EC8
:102C8000F86E0800F550750AD8B4A6D03BD1D8C567
:102C9000D9F4D9C5DAF4DFC433F6020EDE26DFC478
:102CA00034F6000EDD2233C6D9F434C6DAF4DF5030
:102CB000356F3551436F446B88D0D8C5D9F4D9C529
:102CC000DAF4DFC433F6040EDE26DFC434F6000E79
:102CD000DD2233C6D9F434C6DAF4DEC435F6DEC4F8
:102CE00036F6DEC437F6DEC438F63551436F36515A
:102CF000446F3751456F3851466F69D0D8C5D9F404
:102D0000D9C5DAF4DFC433F6020EDE26DFC434F6AA
:102D1000000EDD2233C6D9F434C6DAF4DEC443F63D
:102D2000DDC444F6000E44BFFF0E456F466F476F8B
:102D3000486F496F4A6F69D0D8C5D9F4D9C5DAF45C
:102D4000DFC433F6080EDE26DFC434F6000EDD22C3
:102D500033C6D9F434C6DAF4DEC435F6DEC436F64A
:102D6000DEC437F6DEC438F6DEC439F6DEC43AF621
:102D7000DEC43BF6DEC43CF635C643F636C644F642
:102D800037C645F638C646F639C647F63AC648F657
:102D90003BC649F63CC64AF638D0D8C5D9F4D9C5A1
:102DA000DAF4DFC433F6020EDE26DFC434F6000E9A
:102DB000DD2233C6D9F434C6DAF4DEC435F6DDC418
:102DC00036F635C643F636C644F6456B466B476B5A
:102DD000486B496B4A6B19D04251480AD8B457D74F
:102DE000040AD8B4A9D7240AD8B4D7D7010AD8B4CA
:102DF000D4D7030AD8B4A0D7060AD8B45ED7180A25
:102E0000D8B47CD70E0AD8B4C8D7010E4B25336F7F
:102E1000000E4C21346FD6C5D9F4D7C5DAF433C6C9
:102E2000DEF434C6DDF45AD0D4C597F5D5C598F58F
:102E300043C699F544C69AF545C69BF546C69CF52A
:102E400047C69DF548C69EF549C69FF54AC6A0F5FA
:102E50006AECC5F097C5D4F598C5D5F51200D4C570
